{
  "abi": [
    {
      "anonymous": false,
      "inputs": [
        {
          "indexed": true,
          "internalType": "uint256",
          "name": "id",
          "type": "uint256"
        },
        {
          "indexed": false,
          "internalType": "string",
          "name": "currentVertiportId",
          "type": "string"
        }
      ],
      "name": "EVTOLRegistered",
      "type": "event"
    },
    {
      "anonymous": false,
      "inputs": [
        {
          "indexed": true,
          "internalType": "uint256",
          "name": "id",
          "type": "uint256"
        },
        {
          "indexed": false,
          "internalType": "enum EVTOLManagement.EVTOLState",
          "name": "previousState",
          "type": "uint8"
        },
        {
          "indexed": false,
          "internalType": "enum EVTOLManagement.EVTOLState",
          "name": "newState",
          "type": "uint8"
        },
        {
          "indexed": false,
          "internalType": "string",
          "name": "currentVertiportId",
          "type": "string"
        },
        {
          "indexed": false,
          "internalType": "string",
          "name": "activeTripId",
          "type": "string"
        }
      ],
      "name": "EVTOLStateChanged",
      "type": "event"
    },
    {
      "inputs": [
        {
          "internalType": "uint256",
          "name": "id",
          "type": "uint256"
        },
        {
          "internalType": "string",
          "name": "tripId",
          "type": "string"
        }
      ],
      "name": "assignToTrip",
      "outputs": [],
      "stateMutability": "nonpayable",
      "type": "function"
    },
    {
      "inputs": [
        {
          "internalType": "uint256",
          "name": "id",
          "type": "uint256"
        },
        {
          "internalType": "string",
          "name": "destinationVertiportId",
          "type": "string"
        }
      ],
      "name": "completeTrip",
      "outputs": [],
      "stateMutability": "nonpayable",
      "type": "function"
    },
    {
      "inputs": [
        {
          "internalType": "uint256",
          "name": "id",
          "type": "uint256"
        }
      ],
      "name": "finishMaintenance",
      "outputs": [],
      "stateMutability": "nonpayable",
      "type": "function"
    },
    {
      "inputs": [
        {
          "internalType": "uint256",
          "name": "id",
          "type": "uint256"
        }
      ],
      "name": "getEVTOL",
      "outputs": [
        {
          "components": [
            {
              "internalType": "uint256",
              "name": "id",
              "type": "uint256"
            },
            {
              "internalType": "enum EVTOLManagement.EVTOLState",
              "name": "state",
              "type": "uint8"
            },
            {
              "internalType": "string",
              "name": "currentVertiportId",
              "type": "string"
            },
            {
              "internalType": "string",
              "name": "activeTripId",
              "type": "string"
            },
            {
              "internalType": "bool",
              "name": "exists",
              "type": "bool"
            }
          ],
          "internalType": "struct EVTOLManagement.EVTOL",
          "name": "",
          "type": "tuple"
        }
      ],
      "stateMutability": "view",
      "type": "function"
    },
    {
      "inputs": [
        {
          "internalType": "uint256",
          "name": "id",
          "type": "uint256"
        }
      ],
      "name": "isAvailable",
      "outputs": [
        {
          "internalType": "bool",
          "name": "",
          "type": "bool"
        }
      ],
      "stateMutability": "view",
      "type": "function"
    },
    {
      "inputs": [
        {
          "internalType": "uint256",
          "name": "id",
          "type": "uint256"
        },
        {
          "internalType": "string",
          "name": "initialVertiportId",
          "type": "string"
        },
        {
          "internalType": "bytes",
          "name": "evtolCredential",
          "type": "bytes"
        }
      ],
      "name": "registerEVTOL",
      "outputs": [],
      "stateMutability": "nonpayable",
      "type": "function"
    },
    {
      "inputs": [
        {
          "internalType": "uint256",
          "name": "id",
          "type": "uint256"
        }
      ],
      "name": "setMaintenance",
      "outputs": [],
      "stateMutability": "nonpayable",
      "type": "function"
    },
    {
      "inputs": [
        {
          "internalType": "uint256",
          "name": "id",
          "type": "uint256"
        }
      ],
      "name": "startTrip",
      "outputs": [],
      "stateMutability": "nonpayable",
      "type": "function"
    }
  ],
  "devdoc": {
    "kind": "dev",
    "methods": {
      "assignToTrip(uint256,string)": {
        "params": {
          "id": "Id del eVTOL.",
          "tripId": "Id del viaje asignado."
        }
      },
      "completeTrip(uint256,string)": {
        "params": {
          "destinationVertiportId": "Vertiport donde queda estacionado al final.",
          "id": "Id del eVTOL."
        }
      },
      "finishMaintenance(uint256)": {
        "params": {
          "id": "Id del eVTOL."
        }
      },
      "registerEVTOL(uint256,string,bytes)": {
        "params": {
          "evtolCredential": "Credencial SSI mock del eVTOL.",
          "id": "Identificador único del eVTOL.",
          "initialVertiportId": "Vertiport donde está inicialmente."
        }
      },
      "setMaintenance(uint256)": {
        "params": {
          "id": "Id del eVTOL."
        }
      },
      "startTrip(uint256)": {
        "params": {
          "id": "Id del eVTOL."
        }
      }
    },
    "title": "Gestión de estados de eVTOLs",
    "version": 1
  },
  "evm": {
    "assembly": "    /* \"EVTOLManagement.sol\":178:6261  contract EVTOLManagement {... */\n  mstore(0x40, 0x80)\n  callvalue\n  dup1\n  iszero\n  tag_1\n  jumpi\n  0x00\n  dup1\n  revert\ntag_1:\n  pop\n  dataSize(sub_0)\n  dup1\n  dataOffset(sub_0)\n  0x00\n  codecopy\n  0x00\n  return\nstop\n\nsub_0: assembly {\n        /* \"EVTOLManagement.sol\":178:6261  contract EVTOLManagement {... */\n      mstore(0x40, 0x80)\n      callvalue\n      dup1\n      iszero\n      tag_1\n      jumpi\n      0x00\n      dup1\n      revert\n    tag_1:\n      pop\n      jumpi(tag_2, lt(calldatasize, 0x04))\n      shr(0xe0, calldataload(0x00))\n      dup1\n      0x9283e047\n      gt\n      tag_11\n      jumpi\n      dup1\n      0x9283e047\n      eq\n      tag_7\n      jumpi\n      dup1\n      0x9af81ece\n      eq\n      tag_8\n      jumpi\n      dup1\n      0xa6341cbc\n      eq\n      tag_9\n      jumpi\n      dup1\n      0xb72dbe9f\n      eq\n      tag_10\n      jumpi\n      jump(tag_2)\n    tag_11:\n      dup1\n      0x1e9b739c\n      eq\n      tag_3\n      jumpi\n      dup1\n      0x3a178d99\n      eq\n      tag_4\n      jumpi\n      dup1\n      0x3dde315e\n      eq\n      tag_5\n      jumpi\n      dup1\n      0x864980de\n      eq\n      tag_6\n      jumpi\n    tag_2:\n      0x00\n      dup1\n      revert\n        /* \"EVTOLManagement.sol\":1632:2400  function registerEVTOL(... */\n    tag_3:\n      tag_12\n      0x04\n      dup1\n      calldatasize\n      sub\n      dup2\n      add\n      swap1\n      tag_13\n      swap2\n      swap1\n      tag_14\n      jump\t// in\n    tag_13:\n      tag_15\n      jump\t// in\n    tag_12:\n      stop\n        /* \"EVTOLManagement.sol\":5979:6259  function isAvailable(uint256 id) public view returns (bool) {... */\n    tag_4:\n      tag_16\n      0x04\n      dup1\n      calldatasize\n      sub\n      dup2\n      add\n      swap1\n      tag_17\n      swap2\n      swap1\n      tag_18\n      jump\t// in\n    tag_17:\n      tag_19\n      jump\t// in\n    tag_16:\n      mload(0x40)\n      tag_20\n      swap2\n      swap1\n      tag_21\n      jump\t// in\n    tag_20:\n      mload(0x40)\n      dup1\n      swap2\n      sub\n      swap1\n      return\n        /* \"EVTOLManagement.sol\":3264:3719  function startTrip(uint256 id) public {... */\n    tag_5:\n      tag_22\n      0x04\n      dup1\n      calldatasize\n      sub\n      dup2\n      add\n      swap1\n      tag_23\n      swap2\n      swap1\n      tag_18\n      jump\t// in\n    tag_23:\n      tag_24\n      jump\t// in\n    tag_22:\n      stop\n        /* \"EVTOLManagement.sol\":2557:3151  function assignToTrip(... */\n    tag_6:\n      tag_25\n      0x04\n      dup1\n      calldatasize\n      sub\n      dup2\n      add\n      swap1\n      tag_26\n      swap2\n      swap1\n      tag_27\n      jump\t// in\n    tag_26:\n      tag_28\n      jump\t// in\n    tag_25:\n      stop\n        /* \"EVTOLManagement.sol\":3919:4558  function completeTrip(... */\n    tag_7:\n      tag_29\n      0x04\n      dup1\n      calldatasize\n      sub\n      dup2\n      add\n      swap1\n      tag_30\n      swap2\n      swap1\n      tag_27\n      jump\t// in\n    tag_30:\n      tag_31\n      jump\t// in\n    tag_29:\n      stop\n        /* \"EVTOLManagement.sol\":5702:5879  function getEVTOL(uint256 id) public view returns (EVTOL memory) {... */\n    tag_8:\n      tag_32\n      0x04\n      dup1\n      calldatasize\n      sub\n      dup2\n      add\n      swap1\n      tag_33\n      swap2\n      swap1\n      tag_18\n      jump\t// in\n    tag_33:\n      tag_34\n      jump\t// in\n    tag_32:\n      mload(0x40)\n      tag_35\n      swap2\n      swap1\n      tag_36\n      jump\t// in\n    tag_35:\n      mload(0x40)\n      dup1\n      swap2\n      sub\n      swap1\n      return\n        /* \"EVTOLManagement.sol\":5254:5650  function finishMaintenance(uint256 id) public {... */\n    tag_9:\n      tag_37\n      0x04\n      dup1\n      calldatasize\n      sub\n      dup2\n      add\n      swap1\n      tag_38\n      swap2\n      swap1\n      tag_18\n      jump\t// in\n    tag_38:\n      tag_39\n      jump\t// in\n    tag_37:\n      stop\n        /* \"EVTOLManagement.sol\":4670:5151  function setMaintenance(uint256 id) public {... */\n    tag_10:\n      tag_40\n      0x04\n      dup1\n      calldatasize\n      sub\n      dup2\n      add\n      swap1\n      tag_41\n      swap2\n      swap1\n      tag_18\n      jump\t// in\n    tag_41:\n      tag_42\n      jump\t// in\n    tag_40:\n      stop\n        /* \"EVTOLManagement.sol\":1632:2400  function registerEVTOL(... */\n    tag_15:\n        /* \"EVTOLManagement.sol\":1787:1793  evtols */\n      0x00\n        /* \"EVTOLManagement.sol\":1787:1797  evtols[id] */\n      dup1\n        /* \"EVTOLManagement.sol\":1794:1796  id */\n      dup5\n        /* \"EVTOLManagement.sol\":1787:1797  evtols[id] */\n      dup2\n      mstore\n      0x20\n      add\n      swap1\n      dup2\n      mstore\n      0x20\n      add\n      0x00\n      keccak256\n        /* \"EVTOLManagement.sol\":1787:1804  evtols[id].exists */\n      0x04\n      add\n      0x00\n      swap1\n      sload\n      swap1\n      0x0100\n      exp\n      swap1\n      div\n      0xff\n      and\n        /* \"EVTOLManagement.sol\":1786:1804  !evtols[id].exists */\n      iszero\n        /* \"EVTOLManagement.sol\":1778:1828  require(!evtols[id].exists, \"EVTOL ya registrado\") */\n      tag_44\n      jumpi\n      mload(0x40)\n      0x08c379a000000000000000000000000000000000000000000000000000000000\n      dup2\n      mstore\n      0x04\n      add\n      tag_45\n      swap1\n      tag_46\n      jump\t// in\n    tag_45:\n      mload(0x40)\n      dup1\n      swap2\n      sub\n      swap1\n      revert\n    tag_44:\n        /* \"EVTOLManagement.sol\":1860:1986  verifyCredentialSignature(... */\n      tag_47\n        /* \"EVTOLManagement.sol\":1903:1918  evtolCredential */\n      dup2\n        /* \"EVTOLManagement.sol\":1860:1986  verifyCredentialSignature(... */\n      mload(0x40)\n      dup1\n      0x40\n      add\n      0x40\n      mstore\n      dup1\n      0x0b\n      dup2\n      mstore\n      0x20\n      add\n      0x4576746f6c5f4372656465000000000000000000000000000000000000000000\n      dup2\n      mstore\n      pop\n      mload(0x40)\n      dup1\n      0x40\n      add\n      0x40\n      mstore\n      dup1\n      0x03\n      dup2\n      mstore\n      0x20\n      add\n      0x332e300000000000000000000000000000000000000000000000000000000000\n      dup2\n      mstore\n      pop\n        /* \"EVTOLManagement.sol\":1860:1885  verifyCredentialSignature */\n      tag_48\n        /* \"EVTOLManagement.sol\":1860:1986  verifyCredentialSignature(... */\n      jump\t// in\n    tag_47:\n        /* \"EVTOLManagement.sol\":1839:2040  require(... */\n      tag_49\n      jumpi\n      mload(0x40)\n      0x08c379a000000000000000000000000000000000000000000000000000000000\n      dup2\n      mstore\n      0x04\n      add\n      tag_50\n      swap1\n      tag_51\n      jump\t// in\n    tag_50:\n      mload(0x40)\n      dup1\n      swap2\n      sub\n      swap1\n      revert\n    tag_49:\n        /* \"EVTOLManagement.sol\":2051:2066  EVTOL storage e */\n      0x00\n        /* \"EVTOLManagement.sol\":2069:2075  evtols */\n      dup1\n        /* \"EVTOLManagement.sol\":2069:2079  evtols[id] */\n      0x00\n        /* \"EVTOLManagement.sol\":2076:2078  id */\n      dup6\n        /* \"EVTOLManagement.sol\":2069:2079  evtols[id] */\n      dup2\n      mstore\n      0x20\n      add\n      swap1\n      dup2\n      mstore\n      0x20\n      add\n      0x00\n      keccak256\n        /* \"EVTOLManagement.sol\":2051:2079  EVTOL storage e = evtols[id] */\n      swap1\n      pop\n        /* \"EVTOLManagement.sol\":2096:2098  id */\n      dup4\n        /* \"EVTOLManagement.sol\":2089:2090  e */\n      dup2\n        /* \"EVTOLManagement.sol\":2089:2093  e.id */\n      0x00\n      add\n        /* \"EVTOLManagement.sol\":2089:2098  e.id = id */\n      dup2\n      swap1\n      sstore\n      pop\n        /* \"EVTOLManagement.sol\":2118:2135  EVTOLState.PARKED */\n      0x00\n        /* \"EVTOLManagement.sol\":2108:2109  e */\n      dup2\n        /* \"EVTOLManagement.sol\":2108:2115  e.state */\n      0x01\n      add\n      0x00\n        /* \"EVTOLManagement.sol\":2108:2135  e.state = EVTOLState.PARKED */\n      0x0100\n      exp\n      dup2\n      sload\n      dup2\n      0xff\n      mul\n      not\n      and\n      swap1\n      dup4\n      0x03\n      dup2\n      gt\n      iszero\n      tag_52\n      jumpi\n      tag_53\n      tag_54\n      jump\t// in\n    tag_53:\n    tag_52:\n      mul\n      or\n      swap1\n      sstore\n      pop\n        /* \"EVTOLManagement.sol\":2168:2186  initialVertiportId */\n      dup3\n        /* \"EVTOLManagement.sol\":2145:2146  e */\n      dup2\n        /* \"EVTOLManagement.sol\":2145:2165  e.currentVertiportId */\n      0x02\n      add\n        /* \"EVTOLManagement.sol\":2145:2186  e.currentVertiportId = initialVertiportId */\n      swap1\n      dup1\n      mload\n      swap1\n      0x20\n      add\n      swap1\n      tag_55\n      swap3\n      swap2\n      swap1\n      tag_56\n      jump\t// in\n    tag_55:\n      pop\n        /* \"EVTOLManagement.sol\":2196:2215  e.activeTripId = \"\" */\n      mload(0x40)\n      dup1\n      0x20\n      add\n      0x40\n      mstore\n      dup1\n      0x00\n      dup2\n      mstore\n      pop\n        /* \"EVTOLManagement.sol\":2196:2197  e */\n      dup2\n        /* \"EVTOLManagement.sol\":2196:2210  e.activeTripId */\n      0x03\n      add\n        /* \"EVTOLManagement.sol\":2196:2215  e.activeTripId = \"\" */\n      swap1\n      dup1\n      mload\n      swap1\n      0x20\n      add\n      swap1\n      tag_57\n      swap3\n      swap2\n      swap1\n      tag_56\n      jump\t// in\n    tag_57:\n      pop\n        /* \"EVTOLManagement.sol\":2236:2240  true */\n      0x01\n        /* \"EVTOLManagement.sol\":2225:2226  e */\n      dup2\n        /* \"EVTOLManagement.sol\":2225:2233  e.exists */\n      0x04\n      add\n      0x00\n        /* \"EVTOLManagement.sol\":2225:2240  e.exists = true */\n      0x0100\n      exp\n      dup2\n      sload\n      dup2\n      0xff\n      mul\n      not\n      and\n      swap1\n      dup4\n      iszero\n      iszero\n      mul\n      or\n      swap1\n      sstore\n      pop\n        /* \"EVTOLManagement.sol\":2272:2274  id */\n      dup4\n        /* \"EVTOLManagement.sol\":2256:2295  EVTOLRegistered(id, initialVertiportId) */\n      0x2ea0fee87cb50dca037d00e075e41b58b34237c5b3d7d07f2e050e287432eb04\n        /* \"EVTOLManagement.sol\":2276:2294  initialVertiportId */\n      dup5\n        /* \"EVTOLManagement.sol\":2256:2295  EVTOLRegistered(id, initialVertiportId) */\n      mload(0x40)\n      tag_58\n      swap2\n      swap1\n      tag_59\n      jump\t// in\n    tag_58:\n      mload(0x40)\n      dup1\n      swap2\n      sub\n      swap1\n      log2\n        /* \"EVTOLManagement.sol\":2328:2330  id */\n      dup4\n        /* \"EVTOLManagement.sol\":2310:2393  EVTOLStateChanged(id, EVTOLState.PARKED, EVTOLState.PARKED, initialVertiportId, \"\") */\n      0xdad44df2dcb3bce38ba2cab07296adccf00f73e782eecb1e5fab123abb1e3d49\n        /* \"EVTOLManagement.sol\":2332:2349  EVTOLState.PARKED */\n      0x00\n        /* \"EVTOLManagement.sol\":2351:2368  EVTOLState.PARKED */\n      dup1\n        /* \"EVTOLManagement.sol\":2370:2388  initialVertiportId */\n      dup7\n        /* \"EVTOLManagement.sol\":2310:2393  EVTOLStateChanged(id, EVTOLState.PARKED, EVTOLState.PARKED, initialVertiportId, \"\") */\n      mload(0x40)\n      tag_60\n      swap4\n      swap3\n      swap2\n      swap1\n      tag_61\n      jump\t// in\n    tag_60:\n      mload(0x40)\n      dup1\n      swap2\n      sub\n      swap1\n      log2\n        /* \"EVTOLManagement.sol\":1768:2400  {... */\n      pop\n        /* \"EVTOLManagement.sol\":1632:2400  function registerEVTOL(... */\n      pop\n      pop\n      pop\n      jump\t// out\n        /* \"EVTOLManagement.sol\":5979:6259  function isAvailable(uint256 id) public view returns (bool) {... */\n    tag_19:\n        /* \"EVTOLManagement.sol\":6033:6037  bool */\n      0x00\n        /* \"EVTOLManagement.sol\":6049:6064  EVTOL storage e */\n      dup1\n        /* \"EVTOLManagement.sol\":6067:6073  evtols */\n      0x00\n        /* \"EVTOLManagement.sol\":6067:6077  evtols[id] */\n      dup1\n        /* \"EVTOLManagement.sol\":6074:6076  id */\n      dup5\n        /* \"EVTOLManagement.sol\":6067:6077  evtols[id] */\n      dup2\n      mstore\n      0x20\n      add\n      swap1\n      dup2\n      mstore\n      0x20\n      add\n      0x00\n      keccak256\n        /* \"EVTOLManagement.sol\":6049:6077  EVTOL storage e = evtols[id] */\n      swap1\n      pop\n        /* \"EVTOLManagement.sol\":6092:6093  e */\n      dup1\n        /* \"EVTOLManagement.sol\":6092:6100  e.exists */\n      0x04\n      add\n      0x00\n      swap1\n      sload\n      swap1\n      0x0100\n      exp\n      swap1\n      div\n      0xff\n      and\n        /* \"EVTOLManagement.sol\":6087:6114  if (!e.exists) return false */\n      tag_63\n      jumpi\n        /* \"EVTOLManagement.sol\":6109:6114  false */\n      0x00\n        /* \"EVTOLManagement.sol\":6102:6114  return false */\n      swap2\n      pop\n      pop\n      jump(tag_62)\n        /* \"EVTOLManagement.sol\":6087:6114  if (!e.exists) return false */\n    tag_63:\n        /* \"EVTOLManagement.sol\":6139:6156  EVTOLState.PARKED */\n      0x00\n        /* \"EVTOLManagement.sol\":6128:6156  e.state != EVTOLState.PARKED */\n      0x03\n      dup2\n      gt\n      iszero\n      tag_64\n      jumpi\n      tag_65\n      tag_54\n      jump\t// in\n    tag_65:\n    tag_64:\n        /* \"EVTOLManagement.sol\":6128:6129  e */\n      dup2\n        /* \"EVTOLManagement.sol\":6128:6135  e.state */\n      0x01\n      add\n      0x00\n      swap1\n      sload\n      swap1\n      0x0100\n      exp\n      swap1\n      div\n      0xff\n      and\n        /* \"EVTOLManagement.sol\":6128:6156  e.state != EVTOLState.PARKED */\n      0x03\n      dup2\n      gt\n      iszero\n      tag_66\n      jumpi\n      tag_67\n      tag_54\n      jump\t// in\n    tag_67:\n    tag_66:\n      eq\n        /* \"EVTOLManagement.sol\":6124:6170  if (e.state != EVTOLState.PARKED) return false */\n      tag_68\n      jumpi\n        /* \"EVTOLManagement.sol\":6165:6170  false */\n      0x00\n        /* \"EVTOLManagement.sol\":6158:6170  return false */\n      swap2\n      pop\n      pop\n      jump(tag_62)\n        /* \"EVTOLManagement.sol\":6124:6170  if (e.state != EVTOLState.PARKED) return false */\n    tag_68:\n        /* \"EVTOLManagement.sol\":6216:6217  0 */\n      0x00\n        /* \"EVTOLManagement.sol\":6190:6191  e */\n      dup2\n        /* \"EVTOLManagement.sol\":6190:6204  e.activeTripId */\n      0x03\n      add\n        /* \"EVTOLManagement.sol\":6184:6212  bytes(e.activeTripId).length */\n      dup1\n      sload\n      tag_69\n      swap1\n      tag_70\n      jump\t// in\n    tag_69:\n      swap1\n      pop\n        /* \"EVTOLManagement.sol\":6184:6217  bytes(e.activeTripId).length != 0 */\n      eq\n        /* \"EVTOLManagement.sol\":6180:6231  if (bytes(e.activeTripId).length != 0) return false */\n      tag_71\n      jumpi\n        /* \"EVTOLManagement.sol\":6226:6231  false */\n      0x00\n        /* \"EVTOLManagement.sol\":6219:6231  return false */\n      swap2\n      pop\n      pop\n      jump(tag_62)\n        /* \"EVTOLManagement.sol\":6180:6231  if (bytes(e.activeTripId).length != 0) return false */\n    tag_71:\n        /* \"EVTOLManagement.sol\":6248:6252  true */\n      0x01\n        /* \"EVTOLManagement.sol\":6241:6252  return true */\n      swap2\n      pop\n      pop\n        /* \"EVTOLManagement.sol\":5979:6259  function isAvailable(uint256 id) public view returns (bool) {... */\n    tag_62:\n      swap2\n      swap1\n      pop\n      jump\t// out\n        /* \"EVTOLManagement.sol\":3264:3719  function startTrip(uint256 id) public {... */\n    tag_24:\n        /* \"EVTOLManagement.sol\":3312:3327  EVTOL storage e */\n      0x00\n        /* \"EVTOLManagement.sol\":3330:3336  evtols */\n      dup1\n        /* \"EVTOLManagement.sol\":3330:3340  evtols[id] */\n      0x00\n        /* \"EVTOLManagement.sol\":3337:3339  id */\n      dup4\n        /* \"EVTOLManagement.sol\":3330:3340  evtols[id] */\n      dup2\n      mstore\n      0x20\n      add\n      swap1\n      dup2\n      mstore\n      0x20\n      add\n      0x00\n      keccak256\n        /* \"EVTOLManagement.sol\":3312:3340  EVTOL storage e = evtols[id] */\n      swap1\n      pop\n        /* \"EVTOLManagement.sol\":3358:3359  e */\n      dup1\n        /* \"EVTOLManagement.sol\":3358:3366  e.exists */\n      0x04\n      add\n      0x00\n      swap1\n      sload\n      swap1\n      0x0100\n      exp\n      swap1\n      div\n      0xff\n      and\n        /* \"EVTOLManagement.sol\":3350:3390  require(e.exists, \"EVTOL no encontrado\") */\n      tag_73\n      jumpi\n      mload(0x40)\n      0x08c379a000000000000000000000000000000000000000000000000000000000\n      dup2\n      mstore\n      0x04\n      add\n      tag_74\n      swap1\n      tag_75\n      jump\t// in\n    tag_74:\n      mload(0x40)\n      dup1\n      swap2\n      sub\n      swap1\n      revert\n    tag_73:\n        /* \"EVTOLManagement.sol\":3419:3439  EVTOLState.EXPECTING */\n      0x01\n        /* \"EVTOLManagement.sol\":3408:3439  e.state == EVTOLState.EXPECTING */\n      0x03\n      dup2\n      gt\n      iszero\n      tag_76\n      jumpi\n      tag_77\n      tag_54\n      jump\t// in\n    tag_77:\n    tag_76:\n        /* \"EVTOLManagement.sol\":3408:3409  e */\n      dup2\n        /* \"EVTOLManagement.sol\":3408:3415  e.state */\n      0x01\n      add\n      0x00\n      swap1\n      sload\n      swap1\n      0x0100\n      exp\n      swap1\n      div\n      0xff\n      and\n        /* \"EVTOLManagement.sol\":3408:3439  e.state == EVTOLState.EXPECTING */\n      0x03\n      dup2\n      gt\n      iszero\n      tag_78\n      jumpi\n      tag_79\n      tag_54\n      jump\t// in\n    tag_79:\n    tag_78:\n      eq\n        /* \"EVTOLManagement.sol\":3400:3467  require(e.state == EVTOLState.EXPECTING, \"EVTOL no esta EXPECTING\") */\n      tag_80\n      jumpi\n      mload(0x40)\n      0x08c379a000000000000000000000000000000000000000000000000000000000\n      dup2\n      mstore\n      0x04\n      add\n      tag_81\n      swap1\n      tag_82\n      jump\t// in\n    tag_81:\n      mload(0x40)\n      dup1\n      swap2\n      sub\n      swap1\n      revert\n    tag_80:\n        /* \"EVTOLManagement.sol\":3516:3517  0 */\n      0x00\n        /* \"EVTOLManagement.sol\":3491:3492  e */\n      dup2\n        /* \"EVTOLManagement.sol\":3491:3505  e.activeTripId */\n      0x03\n      add\n        /* \"EVTOLManagement.sol\":3485:3513  bytes(e.activeTripId).length */\n      dup1\n      sload\n      tag_83\n      swap1\n      tag_70\n      jump\t// in\n    tag_83:\n      swap1\n      pop\n        /* \"EVTOLManagement.sol\":3485:3517  bytes(e.activeTripId).length > 0 */\n      gt\n        /* \"EVTOLManagement.sol\":3477:3541  require(bytes(e.activeTripId).length > 0, \"No hay viaje activo\") */\n      tag_84\n      jumpi\n      mload(0x40)\n      0x08c379a000000000000000000000000000000000000000000000000000000000\n      dup2\n      mstore\n      0x04\n      add\n      tag_85\n      swap1\n      tag_86\n      jump\t// in\n    tag_85:\n      mload(0x40)\n      dup1\n      swap2\n      sub\n      swap1\n      revert\n    tag_84:\n        /* \"EVTOLManagement.sol\":3552:3571  EVTOLState previous */\n      0x00\n        /* \"EVTOLManagement.sol\":3574:3575  e */\n      dup2\n        /* \"EVTOLManagement.sol\":3574:3581  e.state */\n      0x01\n      add\n      0x00\n      swap1\n      sload\n      swap1\n      0x0100\n      exp\n      swap1\n      div\n      0xff\n      and\n        /* \"EVTOLManagement.sol\":3552:3581  EVTOLState previous = e.state */\n      swap1\n      pop\n        /* \"EVTOLManagement.sol\":3601:3618  EVTOLState.IN_USE */\n      0x02\n        /* \"EVTOLManagement.sol\":3591:3592  e */\n      dup3\n        /* \"EVTOLManagement.sol\":3591:3598  e.state */\n      0x01\n      add\n      0x00\n        /* \"EVTOLManagement.sol\":3591:3618  e.state = EVTOLState.IN_USE */\n      0x0100\n      exp\n      dup2\n      sload\n      dup2\n      0xff\n      mul\n      not\n      and\n      swap1\n      dup4\n      0x03\n      dup2\n      gt\n      iszero\n      tag_87\n      jumpi\n      tag_88\n      tag_54\n      jump\t// in\n    tag_88:\n    tag_87:\n      mul\n      or\n      swap1\n      sstore\n      pop\n        /* \"EVTOLManagement.sol\":3652:3654  id */\n      dup3\n        /* \"EVTOLManagement.sol\":3634:3712  EVTOLStateChanged(id, previous, e.state, e.currentVertiportId, e.activeTripId) */\n      0xdad44df2dcb3bce38ba2cab07296adccf00f73e782eecb1e5fab123abb1e3d49\n        /* \"EVTOLManagement.sol\":3656:3664  previous */\n      dup3\n        /* \"EVTOLManagement.sol\":3666:3667  e */\n      dup5\n        /* \"EVTOLManagement.sol\":3666:3673  e.state */\n      0x01\n      add\n      0x00\n      swap1\n      sload\n      swap1\n      0x0100\n      exp\n      swap1\n      div\n      0xff\n      and\n        /* \"EVTOLManagement.sol\":3675:3676  e */\n      dup6\n        /* \"EVTOLManagement.sol\":3675:3695  e.currentVertiportId */\n      0x02\n      add\n        /* \"EVTOLManagement.sol\":3697:3698  e */\n      dup7\n        /* \"EVTOLManagement.sol\":3697:3711  e.activeTripId */\n      0x03\n      add\n        /* \"EVTOLManagement.sol\":3634:3712  EVTOLStateChanged(id, previous, e.state, e.currentVertiportId, e.activeTripId) */\n      mload(0x40)\n      tag_89\n      swap5\n      swap4\n      swap3\n      swap2\n      swap1\n      tag_90\n      jump\t// in\n    tag_89:\n      mload(0x40)\n      dup1\n      swap2\n      sub\n      swap1\n      log2\n        /* \"EVTOLManagement.sol\":3302:3719  {... */\n      pop\n      pop\n        /* \"EVTOLManagement.sol\":3264:3719  function startTrip(uint256 id) public {... */\n      pop\n      jump\t// out\n        /* \"EVTOLManagement.sol\":2557:3151  function assignToTrip(... */\n    tag_28:\n        /* \"EVTOLManagement.sol\":2652:2667  EVTOL storage e */\n      0x00\n        /* \"EVTOLManagement.sol\":2670:2676  evtols */\n      dup1\n        /* \"EVTOLManagement.sol\":2670:2680  evtols[id] */\n      0x00\n        /* \"EVTOLManagement.sol\":2677:2679  id */\n      dup5\n        /* \"EVTOLManagement.sol\":2670:2680  evtols[id] */\n      dup2\n      mstore\n      0x20\n      add\n      swap1\n      dup2\n      mstore\n      0x20\n      add\n      0x00\n      keccak256\n        /* \"EVTOLManagement.sol\":2652:2680  EVTOL storage e = evtols[id] */\n      swap1\n      pop\n        /* \"EVTOLManagement.sol\":2698:2699  e */\n      dup1\n        /* \"EVTOLManagement.sol\":2698:2706  e.exists */\n      0x04\n      add\n      0x00\n      swap1\n      sload\n      swap1\n      0x0100\n      exp\n      swap1\n      div\n      0xff\n      and\n        /* \"EVTOLManagement.sol\":2690:2730  require(e.exists, \"EVTOL no encontrado\") */\n      tag_92\n      jumpi\n      mload(0x40)\n      0x08c379a000000000000000000000000000000000000000000000000000000000\n      dup2\n      mstore\n      0x04\n      add\n      tag_93\n      swap1\n      tag_75\n      jump\t// in\n    tag_93:\n      mload(0x40)\n      dup1\n      swap2\n      sub\n      swap1\n      revert\n    tag_92:\n        /* \"EVTOLManagement.sol\":2759:2776  EVTOLState.PARKED */\n      0x00\n        /* \"EVTOLManagement.sol\":2748:2776  e.state == EVTOLState.PARKED */\n      0x03\n      dup2\n      gt\n      iszero\n      tag_94\n      jumpi\n      tag_95\n      tag_54\n      jump\t// in\n    tag_95:\n    tag_94:\n        /* \"EVTOLManagement.sol\":2748:2749  e */\n      dup2\n        /* \"EVTOLManagement.sol\":2748:2755  e.state */\n      0x01\n      add\n      0x00\n      swap1\n      sload\n      swap1\n      0x0100\n      exp\n      swap1\n      div\n      0xff\n      and\n        /* \"EVTOLManagement.sol\":2748:2776  e.state == EVTOLState.PARKED */\n      0x03\n      dup2\n      gt\n      iszero\n      tag_96\n      jumpi\n      tag_97\n      tag_54\n      jump\t// in\n    tag_97:\n    tag_96:\n      eq\n        /* \"EVTOLManagement.sol\":2740:2801  require(e.state == EVTOLState.PARKED, \"EVTOL no esta PARKED\") */\n      tag_98\n      jumpi\n      mload(0x40)\n      0x08c379a000000000000000000000000000000000000000000000000000000000\n      dup2\n      mstore\n      0x04\n      add\n      tag_99\n      swap1\n      tag_100\n      jump\t// in\n    tag_99:\n      mload(0x40)\n      dup1\n      swap2\n      sub\n      swap1\n      revert\n    tag_98:\n        /* \"EVTOLManagement.sol\":2851:2852  0 */\n      0x00\n        /* \"EVTOLManagement.sol\":2825:2826  e */\n      dup2\n        /* \"EVTOLManagement.sol\":2825:2839  e.activeTripId */\n      0x03\n      add\n        /* \"EVTOLManagement.sol\":2819:2847  bytes(e.activeTripId).length */\n      dup1\n      sload\n      tag_101\n      swap1\n      tag_70\n      jump\t// in\n    tag_101:\n      swap1\n      pop\n        /* \"EVTOLManagement.sol\":2819:2852  bytes(e.activeTripId).length == 0 */\n      eq\n        /* \"EVTOLManagement.sol\":2811:2878  require(bytes(e.activeTripId).length == 0, \"Ya tiene viaje activo\") */\n      tag_102\n      jumpi\n      mload(0x40)\n      0x08c379a000000000000000000000000000000000000000000000000000000000\n      dup2\n      mstore\n      0x04\n      add\n      tag_103\n      swap1\n      tag_104\n      jump\t// in\n    tag_103:\n      mload(0x40)\n      dup1\n      swap2\n      sub\n      swap1\n      revert\n    tag_102:\n        /* \"EVTOLManagement.sol\":2919:2920  0 */\n      0x00\n        /* \"EVTOLManagement.sol\":2902:2908  tripId */\n      dup3\n        /* \"EVTOLManagement.sol\":2896:2916  bytes(tripId).length */\n      mload\n        /* \"EVTOLManagement.sol\":2896:2920  bytes(tripId).length > 0 */\n      gt\n        /* \"EVTOLManagement.sol\":2888:2937  require(bytes(tripId).length > 0, \"tripId vacio\") */\n      tag_105\n      jumpi\n      mload(0x40)\n      0x08c379a000000000000000000000000000000000000000000000000000000000\n      dup2\n      mstore\n      0x04\n      add\n      tag_106\n      swap1\n      tag_107\n      jump\t// in\n    tag_106:\n      mload(0x40)\n      dup1\n      swap2\n      sub\n      swap1\n      revert\n    tag_105:\n        /* \"EVTOLManagement.sol\":2948:2967  EVTOLState previous */\n      0x00\n        /* \"EVTOLManagement.sol\":2970:2971  e */\n      dup2\n        /* \"EVTOLManagement.sol\":2970:2977  e.state */\n      0x01\n      add\n      0x00\n      swap1\n      sload\n      swap1\n      0x0100\n      exp\n      swap1\n      div\n      0xff\n      and\n        /* \"EVTOLManagement.sol\":2948:2977  EVTOLState previous = e.state */\n      swap1\n      pop\n        /* \"EVTOLManagement.sol\":2997:3017  EVTOLState.EXPECTING */\n      0x01\n        /* \"EVTOLManagement.sol\":2987:2988  e */\n      dup3\n        /* \"EVTOLManagement.sol\":2987:2994  e.state */\n      0x01\n      add\n      0x00\n        /* \"EVTOLManagement.sol\":2987:3017  e.state = EVTOLState.EXPECTING */\n      0x0100\n      exp\n      dup2\n      sload\n      dup2\n      0xff\n      mul\n      not\n      and\n      swap1\n      dup4\n      0x03\n      dup2\n      gt\n      iszero\n      tag_108\n      jumpi\n      tag_109\n      tag_54\n      jump\t// in\n    tag_109:\n    tag_108:\n      mul\n      or\n      swap1\n      sstore\n      pop\n        /* \"EVTOLManagement.sol\":3044:3050  tripId */\n      dup3\n        /* \"EVTOLManagement.sol\":3027:3028  e */\n      dup3\n        /* \"EVTOLManagement.sol\":3027:3041  e.activeTripId */\n      0x03\n      add\n        /* \"EVTOLManagement.sol\":3027:3050  e.activeTripId = tripId */\n      swap1\n      dup1\n      mload\n      swap1\n      0x20\n      add\n      swap1\n      tag_110\n      swap3\n      swap2\n      swap1\n      tag_56\n      jump\t// in\n    tag_110:\n      pop\n        /* \"EVTOLManagement.sol\":3084:3086  id */\n      dup4\n        /* \"EVTOLManagement.sol\":3066:3144  EVTOLStateChanged(id, previous, e.state, e.currentVertiportId, e.activeTripId) */\n      0xdad44df2dcb3bce38ba2cab07296adccf00f73e782eecb1e5fab123abb1e3d49\n        /* \"EVTOLManagement.sol\":3088:3096  previous */\n      dup3\n        /* \"EVTOLManagement.sol\":3098:3099  e */\n      dup5\n        /* \"EVTOLManagement.sol\":3098:3105  e.state */\n      0x01\n      add\n      0x00\n      swap1\n      sload\n      swap1\n      0x0100\n      exp\n      swap1\n      div\n      0xff\n      and\n        /* \"EVTOLManagement.sol\":3107:3108  e */\n      dup6\n        /* \"EVTOLManagement.sol\":3107:3127  e.currentVertiportId */\n      0x02\n      add\n        /* \"EVTOLManagement.sol\":3129:3130  e */\n      dup7\n        /* \"EVTOLManagement.sol\":3129:3143  e.activeTripId */\n      0x03\n      add\n        /* \"EVTOLManagement.sol\":3066:3144  EVTOLStateChanged(id, previous, e.state, e.currentVertiportId, e.activeTripId) */\n      mload(0x40)\n      tag_111\n      swap5\n      swap4\n      swap3\n      swap2\n      swap1\n      tag_90\n      jump\t// in\n    tag_111:\n      mload(0x40)\n      dup1\n      swap2\n      sub\n      swap1\n      log2\n        /* \"EVTOLManagement.sol\":2642:3151  {... */\n      pop\n      pop\n        /* \"EVTOLManagement.sol\":2557:3151  function assignToTrip(... */\n      pop\n      pop\n      jump\t// out\n        /* \"EVTOLManagement.sol\":3919:4558  function completeTrip(... */\n    tag_31:\n        /* \"EVTOLManagement.sol\":4030:4045  EVTOL storage e */\n      0x00\n        /* \"EVTOLManagement.sol\":4048:4054  evtols */\n      dup1\n        /* \"EVTOLManagement.sol\":4048:4058  evtols[id] */\n      0x00\n        /* \"EVTOLManagement.sol\":4055:4057  id */\n      dup5\n        /* \"EVTOLManagement.sol\":4048:4058  evtols[id] */\n      dup2\n      mstore\n      0x20\n      add\n      swap1\n      dup2\n      mstore\n      0x20\n      add\n      0x00\n      keccak256\n        /* \"EVTOLManagement.sol\":4030:4058  EVTOL storage e = evtols[id] */\n      swap1\n      pop\n        /* \"EVTOLManagement.sol\":4076:4077  e */\n      dup1\n        /* \"EVTOLManagement.sol\":4076:4084  e.exists */\n      0x04\n      add\n      0x00\n      swap1\n      sload\n      swap1\n      0x0100\n      exp\n      swap1\n      div\n      0xff\n      and\n        /* \"EVTOLManagement.sol\":4068:4108  require(e.exists, \"EVTOL no encontrado\") */\n      tag_113\n      jumpi\n      mload(0x40)\n      0x08c379a000000000000000000000000000000000000000000000000000000000\n      dup2\n      mstore\n      0x04\n      add\n      tag_114\n      swap1\n      tag_75\n      jump\t// in\n    tag_114:\n      mload(0x40)\n      dup1\n      swap2\n      sub\n      swap1\n      revert\n    tag_113:\n        /* \"EVTOLManagement.sol\":4137:4154  EVTOLState.IN_USE */\n      0x02\n        /* \"EVTOLManagement.sol\":4126:4154  e.state == EVTOLState.IN_USE */\n      0x03\n      dup2\n      gt\n      iszero\n      tag_115\n      jumpi\n      tag_116\n      tag_54\n      jump\t// in\n    tag_116:\n    tag_115:\n        /* \"EVTOLManagement.sol\":4126:4127  e */\n      dup2\n        /* \"EVTOLManagement.sol\":4126:4133  e.state */\n      0x01\n      add\n      0x00\n      swap1\n      sload\n      swap1\n      0x0100\n      exp\n      swap1\n      div\n      0xff\n      and\n        /* \"EVTOLManagement.sol\":4126:4154  e.state == EVTOLState.IN_USE */\n      0x03\n      dup2\n      gt\n      iszero\n      tag_117\n      jumpi\n      tag_118\n      tag_54\n      jump\t// in\n    tag_118:\n    tag_117:\n      eq\n        /* \"EVTOLManagement.sol\":4118:4179  require(e.state == EVTOLState.IN_USE, \"EVTOL no esta IN_USE\") */\n      tag_119\n      jumpi\n      mload(0x40)\n      0x08c379a000000000000000000000000000000000000000000000000000000000\n      dup2\n      mstore\n      0x04\n      add\n      tag_120\n      swap1\n      tag_121\n      jump\t// in\n    tag_120:\n      mload(0x40)\n      dup1\n      swap2\n      sub\n      swap1\n      revert\n    tag_119:\n        /* \"EVTOLManagement.sol\":4228:4229  0 */\n      0x00\n        /* \"EVTOLManagement.sol\":4203:4204  e */\n      dup2\n        /* \"EVTOLManagement.sol\":4203:4217  e.activeTripId */\n      0x03\n      add\n        /* \"EVTOLManagement.sol\":4197:4225  bytes(e.activeTripId).length */\n      dup1\n      sload\n      tag_122\n      swap1\n      tag_70\n      jump\t// in\n    tag_122:\n      swap1\n      pop\n        /* \"EVTOLManagement.sol\":4197:4229  bytes(e.activeTripId).length > 0 */\n      gt\n        /* \"EVTOLManagement.sol\":4189:4253  require(bytes(e.activeTripId).length > 0, \"No hay viaje activo\") */\n      tag_123\n      jumpi\n      mload(0x40)\n      0x08c379a000000000000000000000000000000000000000000000000000000000\n      dup2\n      mstore\n      0x04\n      add\n      tag_124\n      swap1\n      tag_86\n      jump\t// in\n    tag_124:\n      mload(0x40)\n      dup1\n      swap2\n      sub\n      swap1\n      revert\n    tag_123:\n        /* \"EVTOLManagement.sol\":4264:4283  EVTOLState previous */\n      0x00\n        /* \"EVTOLManagement.sol\":4286:4287  e */\n      dup2\n        /* \"EVTOLManagement.sol\":4286:4293  e.state */\n      0x01\n      add\n      0x00\n      swap1\n      sload\n      swap1\n      0x0100\n      exp\n      swap1\n      div\n      0xff\n      and\n        /* \"EVTOLManagement.sol\":4264:4293  EVTOLState previous = e.state */\n      swap1\n      pop\n        /* \"EVTOLManagement.sol\":4356:4373  EVTOLState.PARKED */\n      0x00\n        /* \"EVTOLManagement.sol\":4346:4347  e */\n      dup3\n        /* \"EVTOLManagement.sol\":4346:4353  e.state */\n      0x01\n      add\n      0x00\n        /* \"EVTOLManagement.sol\":4346:4373  e.state = EVTOLState.PARKED */\n      0x0100\n      exp\n      dup2\n      sload\n      dup2\n      0xff\n      mul\n      not\n      and\n      swap1\n      dup4\n      0x03\n      dup2\n      gt\n      iszero\n      tag_125\n      jumpi\n      tag_126\n      tag_54\n      jump\t// in\n    tag_126:\n    tag_125:\n      mul\n      or\n      swap1\n      sstore\n      pop\n        /* \"EVTOLManagement.sol\":4406:4428  destinationVertiportId */\n      dup3\n        /* \"EVTOLManagement.sol\":4383:4384  e */\n      dup3\n        /* \"EVTOLManagement.sol\":4383:4403  e.currentVertiportId */\n      0x02\n      add\n        /* \"EVTOLManagement.sol\":4383:4428  e.currentVertiportId = destinationVertiportId */\n      swap1\n      dup1\n      mload\n      swap1\n      0x20\n      add\n      swap1\n      tag_127\n      swap3\n      swap2\n      swap1\n      tag_56\n      jump\t// in\n    tag_127:\n      pop\n        /* \"EVTOLManagement.sol\":4438:4457  e.activeTripId = \"\" */\n      mload(0x40)\n      dup1\n      0x20\n      add\n      0x40\n      mstore\n      dup1\n      0x00\n      dup2\n      mstore\n      pop\n        /* \"EVTOLManagement.sol\":4438:4439  e */\n      dup3\n        /* \"EVTOLManagement.sol\":4438:4452  e.activeTripId */\n      0x03\n      add\n        /* \"EVTOLManagement.sol\":4438:4457  e.activeTripId = \"\" */\n      swap1\n      dup1\n      mload\n      swap1\n      0x20\n      add\n      swap1\n      tag_128\n      swap3\n      swap2\n      swap1\n      tag_56\n      jump\t// in\n    tag_128:\n      pop\n        /* \"EVTOLManagement.sol\":4491:4493  id */\n      dup4\n        /* \"EVTOLManagement.sol\":4473:4551  EVTOLStateChanged(id, previous, e.state, e.currentVertiportId, e.activeTripId) */\n      0xdad44df2dcb3bce38ba2cab07296adccf00f73e782eecb1e5fab123abb1e3d49\n        /* \"EVTOLManagement.sol\":4495:4503  previous */\n      dup3\n        /* \"EVTOLManagement.sol\":4505:4506  e */\n      dup5\n        /* \"EVTOLManagement.sol\":4505:4512  e.state */\n      0x01\n      add\n      0x00\n      swap1\n      sload\n      swap1\n      0x0100\n      exp\n      swap1\n      div\n      0xff\n      and\n        /* \"EVTOLManagement.sol\":4514:4515  e */\n      dup6\n        /* \"EVTOLManagement.sol\":4514:4534  e.currentVertiportId */\n      0x02\n      add\n        /* \"EVTOLManagement.sol\":4536:4537  e */\n      dup7\n        /* \"EVTOLManagement.sol\":4536:4550  e.activeTripId */\n      0x03\n      add\n        /* \"EVTOLManagement.sol\":4473:4551  EVTOLStateChanged(id, previous, e.state, e.currentVertiportId, e.activeTripId) */\n      mload(0x40)\n      tag_129\n      swap5\n      swap4\n      swap3\n      swap2\n      swap1\n      tag_90\n      jump\t// in\n    tag_129:\n      mload(0x40)\n      dup1\n      swap2\n      sub\n      swap1\n      log2\n        /* \"EVTOLManagement.sol\":4020:4558  {... */\n      pop\n      pop\n        /* \"EVTOLManagement.sol\":3919:4558  function completeTrip(... */\n      pop\n      pop\n      jump\t// out\n        /* \"EVTOLManagement.sol\":5702:5879  function getEVTOL(uint256 id) public view returns (EVTOL memory) {... */\n    tag_34:\n        /* \"EVTOLManagement.sol\":5753:5765  EVTOL memory */\n      tag_130\n      tag_131\n      jump\t// in\n    tag_130:\n        /* \"EVTOLManagement.sol\":5777:5791  EVTOL memory e */\n      0x00\n        /* \"EVTOLManagement.sol\":5794:5800  evtols */\n      dup1\n        /* \"EVTOLManagement.sol\":5794:5804  evtols[id] */\n      0x00\n        /* \"EVTOLManagement.sol\":5801:5803  id */\n      dup5\n        /* \"EVTOLManagement.sol\":5794:5804  evtols[id] */\n      dup2\n      mstore\n      0x20\n      add\n      swap1\n      dup2\n      mstore\n      0x20\n      add\n      0x00\n      keccak256\n        /* \"EVTOLManagement.sol\":5777:5804  EVTOL memory e = evtols[id] */\n      mload(0x40)\n      dup1\n      0xa0\n      add\n      0x40\n      mstore\n      swap1\n      dup2\n      0x00\n      dup3\n      add\n      sload\n      dup2\n      mstore\n      0x20\n      add\n      0x01\n      dup3\n      add\n      0x00\n      swap1\n      sload\n      swap1\n      0x0100\n      exp\n      swap1\n      div\n      0xff\n      and\n      0x03\n      dup2\n      gt\n      iszero\n      tag_133\n      jumpi\n      tag_134\n      tag_54\n      jump\t// in\n    tag_134:\n    tag_133:\n      0x03\n      dup2\n      gt\n      iszero\n      tag_135\n      jumpi\n      tag_136\n      tag_54\n      jump\t// in\n    tag_136:\n    tag_135:\n      dup2\n      mstore\n      0x20\n      add\n      0x02\n      dup3\n      add\n      dup1\n      sload\n      tag_137\n      swap1\n      tag_70\n      jump\t// in\n    tag_137:\n      dup1\n      0x1f\n      add\n      0x20\n      dup1\n      swap2\n      div\n      mul\n      0x20\n      add\n      mload(0x40)\n      swap1\n      dup2\n      add\n      0x40\n      mstore\n      dup1\n      swap3\n      swap2\n      swap1\n      dup2\n      dup2\n      mstore\n      0x20\n      add\n      dup3\n      dup1\n      sload\n      tag_138\n      swap1\n      tag_70\n      jump\t// in\n    tag_138:\n      dup1\n      iszero\n      tag_139\n      jumpi\n      dup1\n      0x1f\n      lt\n      tag_140\n      jumpi\n      0x0100\n      dup1\n      dup4\n      sload\n      div\n      mul\n      dup4\n      mstore\n      swap2\n      0x20\n      add\n      swap2\n      jump(tag_139)\n    tag_140:\n      dup3\n      add\n      swap2\n      swap1\n      0x00\n      mstore\n      keccak256(0x00, 0x20)\n      swap1\n    tag_141:\n      dup2\n      sload\n      dup2\n      mstore\n      swap1\n      0x01\n      add\n      swap1\n      0x20\n      add\n      dup1\n      dup4\n      gt\n      tag_141\n      jumpi\n      dup3\n      swap1\n      sub\n      0x1f\n      and\n      dup3\n      add\n      swap2\n    tag_139:\n      pop\n      pop\n      pop\n      pop\n      pop\n      dup2\n      mstore\n      0x20\n      add\n      0x03\n      dup3\n      add\n      dup1\n      sload\n      tag_142\n      swap1\n      tag_70\n      jump\t// in\n    tag_142:\n      dup1\n      0x1f\n      add\n      0x20\n      dup1\n      swap2\n      div\n      mul\n      0x20\n      add\n      mload(0x40)\n      swap1\n      dup2\n      add\n      0x40\n      mstore\n      dup1\n      swap3\n      swap2\n      swap1\n      dup2\n      dup2\n      mstore\n      0x20\n      add\n      dup3\n      dup1\n      sload\n      tag_143\n      swap1\n      tag_70\n      jump\t// in\n    tag_143:\n      dup1\n      iszero\n      tag_144\n      jumpi\n      dup1\n      0x1f\n      lt\n      tag_145\n      jumpi\n      0x0100\n      dup1\n      dup4\n      sload\n      div\n      mul\n      dup4\n      mstore\n      swap2\n      0x20\n      add\n      swap2\n      jump(tag_144)\n    tag_145:\n      dup3\n      add\n      swap2\n      swap1\n      0x00\n      mstore\n      keccak256(0x00, 0x20)\n      swap1\n    tag_146:\n      dup2\n      sload\n      dup2\n      mstore\n      swap1\n      0x01\n      add\n      swap1\n      0x20\n      add\n      dup1\n      dup4\n      gt\n      tag_146\n      jumpi\n      dup3\n      swap1\n      sub\n      0x1f\n      and\n      dup3\n      add\n      swap2\n    tag_144:\n      pop\n      pop\n      pop\n      pop\n      pop\n      dup2\n      mstore\n      0x20\n      add\n      0x04\n      dup3\n      add\n      0x00\n      swap1\n      sload\n      swap1\n      0x0100\n      exp\n      swap1\n      div\n      0xff\n      and\n      iszero\n      iszero\n      iszero\n      iszero\n      dup2\n      mstore\n      pop\n      pop\n      swap1\n      pop\n        /* \"EVTOLManagement.sol\":5822:5823  e */\n      dup1\n        /* \"EVTOLManagement.sol\":5822:5830  e.exists */\n      0x80\n      add\n      mload\n        /* \"EVTOLManagement.sol\":5814:5854  require(e.exists, \"EVTOL no encontrado\") */\n      tag_147\n      jumpi\n      mload(0x40)\n      0x08c379a000000000000000000000000000000000000000000000000000000000\n      dup2\n      mstore\n      0x04\n      add\n      tag_148\n      swap1\n      tag_75\n      jump\t// in\n    tag_148:\n      mload(0x40)\n      dup1\n      swap2\n      sub\n      swap1\n      revert\n    tag_147:\n        /* \"EVTOLManagement.sol\":5871:5872  e */\n      dup1\n        /* \"EVTOLManagement.sol\":5864:5872  return e */\n      swap2\n      pop\n      pop\n        /* \"EVTOLManagement.sol\":5702:5879  function getEVTOL(uint256 id) public view returns (EVTOL memory) {... */\n      swap2\n      swap1\n      pop\n      jump\t// out\n        /* \"EVTOLManagement.sol\":5254:5650  function finishMaintenance(uint256 id) public {... */\n    tag_39:\n        /* \"EVTOLManagement.sol\":5310:5325  EVTOL storage e */\n      0x00\n        /* \"EVTOLManagement.sol\":5328:5334  evtols */\n      dup1\n        /* \"EVTOLManagement.sol\":5328:5338  evtols[id] */\n      0x00\n        /* \"EVTOLManagement.sol\":5335:5337  id */\n      dup4\n        /* \"EVTOLManagement.sol\":5328:5338  evtols[id] */\n      dup2\n      mstore\n      0x20\n      add\n      swap1\n      dup2\n      mstore\n      0x20\n      add\n      0x00\n      keccak256\n        /* \"EVTOLManagement.sol\":5310:5338  EVTOL storage e = evtols[id] */\n      swap1\n      pop\n        /* \"EVTOLManagement.sol\":5356:5357  e */\n      dup1\n        /* \"EVTOLManagement.sol\":5356:5364  e.exists */\n      0x04\n      add\n      0x00\n      swap1\n      sload\n      swap1\n      0x0100\n      exp\n      swap1\n      div\n      0xff\n      and\n        /* \"EVTOLManagement.sol\":5348:5388  require(e.exists, \"EVTOL no encontrado\") */\n      tag_150\n      jumpi\n      mload(0x40)\n      0x08c379a000000000000000000000000000000000000000000000000000000000\n      dup2\n      mstore\n      0x04\n      add\n      tag_151\n      swap1\n      tag_75\n      jump\t// in\n    tag_151:\n      mload(0x40)\n      dup1\n      swap2\n      sub\n      swap1\n      revert\n    tag_150:\n        /* \"EVTOLManagement.sol\":5417:5439  EVTOLState.MAINTENANCE */\n      0x03\n        /* \"EVTOLManagement.sol\":5406:5439  e.state == EVTOLState.MAINTENANCE */\n      dup1\n      dup2\n      gt\n      iszero\n      tag_152\n      jumpi\n      tag_153\n      tag_54\n      jump\t// in\n    tag_153:\n    tag_152:\n        /* \"EVTOLManagement.sol\":5406:5407  e */\n      dup2\n        /* \"EVTOLManagement.sol\":5406:5413  e.state */\n      0x01\n      add\n      0x00\n      swap1\n      sload\n      swap1\n      0x0100\n      exp\n      swap1\n      div\n      0xff\n      and\n        /* \"EVTOLManagement.sol\":5406:5439  e.state == EVTOLState.MAINTENANCE */\n      0x03\n      dup2\n      gt\n      iszero\n      tag_154\n      jumpi\n      tag_155\n      tag_54\n      jump\t// in\n    tag_155:\n    tag_154:\n      eq\n        /* \"EVTOLManagement.sol\":5398:5472  require(e.state == EVTOLState.MAINTENANCE, \"EVTOL no esta en MAINTENANCE\") */\n      tag_156\n      jumpi\n      mload(0x40)\n      0x08c379a000000000000000000000000000000000000000000000000000000000\n      dup2\n      mstore\n      0x04\n      add\n      tag_157\n      swap1\n      tag_158\n      jump\t// in\n    tag_157:\n      mload(0x40)\n      dup1\n      swap2\n      sub\n      swap1\n      revert\n    tag_156:\n        /* \"EVTOLManagement.sol\":5483:5502  EVTOLState previous */\n      0x00\n        /* \"EVTOLManagement.sol\":5505:5506  e */\n      dup2\n        /* \"EVTOLManagement.sol\":5505:5512  e.state */\n      0x01\n      add\n      0x00\n      swap1\n      sload\n      swap1\n      0x0100\n      exp\n      swap1\n      div\n      0xff\n      and\n        /* \"EVTOLManagement.sol\":5483:5512  EVTOLState previous = e.state */\n      swap1\n      pop\n        /* \"EVTOLManagement.sol\":5532:5549  EVTOLState.PARKED */\n      0x00\n        /* \"EVTOLManagement.sol\":5522:5523  e */\n      dup3\n        /* \"EVTOLManagement.sol\":5522:5529  e.state */\n      0x01\n      add\n      0x00\n        /* \"EVTOLManagement.sol\":5522:5549  e.state = EVTOLState.PARKED */\n      0x0100\n      exp\n      dup2\n      sload\n      dup2\n      0xff\n      mul\n      not\n      and\n      swap1\n      dup4\n      0x03\n      dup2\n      gt\n      iszero\n      tag_159\n      jumpi\n      tag_160\n      tag_54\n      jump\t// in\n    tag_160:\n    tag_159:\n      mul\n      or\n      swap1\n      sstore\n      pop\n        /* \"EVTOLManagement.sol\":5583:5585  id */\n      dup3\n        /* \"EVTOLManagement.sol\":5565:5643  EVTOLStateChanged(id, previous, e.state, e.currentVertiportId, e.activeTripId) */\n      0xdad44df2dcb3bce38ba2cab07296adccf00f73e782eecb1e5fab123abb1e3d49\n        /* \"EVTOLManagement.sol\":5587:5595  previous */\n      dup3\n        /* \"EVTOLManagement.sol\":5597:5598  e */\n      dup5\n        /* \"EVTOLManagement.sol\":5597:5604  e.state */\n      0x01\n      add\n      0x00\n      swap1\n      sload\n      swap1\n      0x0100\n      exp\n      swap1\n      div\n      0xff\n      and\n        /* \"EVTOLManagement.sol\":5606:5607  e */\n      dup6\n        /* \"EVTOLManagement.sol\":5606:5626  e.currentVertiportId */\n      0x02\n      add\n        /* \"EVTOLManagement.sol\":5628:5629  e */\n      dup7\n        /* \"EVTOLManagement.sol\":5628:5642  e.activeTripId */\n      0x03\n      add\n        /* \"EVTOLManagement.sol\":5565:5643  EVTOLStateChanged(id, previous, e.state, e.currentVertiportId, e.activeTripId) */\n      mload(0x40)\n      tag_161\n      swap5\n      swap4\n      swap3\n      swap2\n      swap1\n      tag_90\n      jump\t// in\n    tag_161:\n      mload(0x40)\n      dup1\n      swap2\n      sub\n      swap1\n      log2\n        /* \"EVTOLManagement.sol\":5300:5650  {... */\n      pop\n      pop\n        /* \"EVTOLManagement.sol\":5254:5650  function finishMaintenance(uint256 id) public {... */\n      pop\n      jump\t// out\n        /* \"EVTOLManagement.sol\":4670:5151  function setMaintenance(uint256 id) public {... */\n    tag_42:\n        /* \"EVTOLManagement.sol\":4723:4738  EVTOL storage e */\n      0x00\n        /* \"EVTOLManagement.sol\":4741:4747  evtols */\n      dup1\n        /* \"EVTOLManagement.sol\":4741:4751  evtols[id] */\n      0x00\n        /* \"EVTOLManagement.sol\":4748:4750  id */\n      dup4\n        /* \"EVTOLManagement.sol\":4741:4751  evtols[id] */\n      dup2\n      mstore\n      0x20\n      add\n      swap1\n      dup2\n      mstore\n      0x20\n      add\n      0x00\n      keccak256\n        /* \"EVTOLManagement.sol\":4723:4751  EVTOL storage e = evtols[id] */\n      swap1\n      pop\n        /* \"EVTOLManagement.sol\":4769:4770  e */\n      dup1\n        /* \"EVTOLManagement.sol\":4769:4777  e.exists */\n      0x04\n      add\n      0x00\n      swap1\n      sload\n      swap1\n      0x0100\n      exp\n      swap1\n      div\n      0xff\n      and\n        /* \"EVTOLManagement.sol\":4761:4801  require(e.exists, \"EVTOL no encontrado\") */\n      tag_163\n      jumpi\n      mload(0x40)\n      0x08c379a000000000000000000000000000000000000000000000000000000000\n      dup2\n      mstore\n      0x04\n      add\n      tag_164\n      swap1\n      tag_75\n      jump\t// in\n    tag_164:\n      mload(0x40)\n      dup1\n      swap2\n      sub\n      swap1\n      revert\n    tag_163:\n        /* \"EVTOLManagement.sol\":4830:4847  EVTOLState.PARKED */\n      0x00\n        /* \"EVTOLManagement.sol\":4819:4847  e.state == EVTOLState.PARKED */\n      0x03\n      dup2\n      gt\n      iszero\n      tag_165\n      jumpi\n      tag_166\n      tag_54\n      jump\t// in\n    tag_166:\n    tag_165:\n        /* \"EVTOLManagement.sol\":4819:4820  e */\n      dup2\n        /* \"EVTOLManagement.sol\":4819:4826  e.state */\n      0x01\n      add\n      0x00\n      swap1\n      sload\n      swap1\n      0x0100\n      exp\n      swap1\n      div\n      0xff\n      and\n        /* \"EVTOLManagement.sol\":4819:4847  e.state == EVTOLState.PARKED */\n      0x03\n      dup2\n      gt\n      iszero\n      tag_167\n      jumpi\n      tag_168\n      tag_54\n      jump\t// in\n    tag_168:\n    tag_167:\n      eq\n        /* \"EVTOLManagement.sol\":4811:4886  require(e.state == EVTOLState.PARKED, \"Solo PARKED puede ir a MAINTENANCE\") */\n      tag_169\n      jumpi\n      mload(0x40)\n      0x08c379a000000000000000000000000000000000000000000000000000000000\n      dup2\n      mstore\n      0x04\n      add\n      tag_170\n      swap1\n      tag_171\n      jump\t// in\n    tag_170:\n      mload(0x40)\n      dup1\n      swap2\n      sub\n      swap1\n      revert\n    tag_169:\n        /* \"EVTOLManagement.sol\":4936:4937  0 */\n      0x00\n        /* \"EVTOLManagement.sol\":4910:4911  e */\n      dup2\n        /* \"EVTOLManagement.sol\":4910:4924  e.activeTripId */\n      0x03\n      add\n        /* \"EVTOLManagement.sol\":4904:4932  bytes(e.activeTripId).length */\n      dup1\n      sload\n      tag_172\n      swap1\n      tag_70\n      jump\t// in\n    tag_172:\n      swap1\n      pop\n        /* \"EVTOLManagement.sol\":4904:4937  bytes(e.activeTripId).length == 0 */\n      eq\n        /* \"EVTOLManagement.sol\":4896:4968  require(bytes(e.activeTripId).length == 0, \"No debe tener viaje activo\") */\n      tag_173\n      jumpi\n      mload(0x40)\n      0x08c379a000000000000000000000000000000000000000000000000000000000\n      dup2\n      mstore\n      0x04\n      add\n      tag_174\n      swap1\n      tag_175\n      jump\t// in\n    tag_174:\n      mload(0x40)\n      dup1\n      swap2\n      sub\n      swap1\n      revert\n    tag_173:\n        /* \"EVTOLManagement.sol\":4979:4998  EVTOLState previous */\n      0x00\n        /* \"EVTOLManagement.sol\":5001:5002  e */\n      dup2\n        /* \"EVTOLManagement.sol\":5001:5008  e.state */\n      0x01\n      add\n      0x00\n      swap1\n      sload\n      swap1\n      0x0100\n      exp\n      swap1\n      div\n      0xff\n      and\n        /* \"EVTOLManagement.sol\":4979:5008  EVTOLState previous = e.state */\n      swap1\n      pop\n        /* \"EVTOLManagement.sol\":5028:5050  EVTOLState.MAINTENANCE */\n      0x03\n        /* \"EVTOLManagement.sol\":5018:5019  e */\n      dup3\n        /* \"EVTOLManagement.sol\":5018:5025  e.state */\n      0x01\n      add\n      0x00\n        /* \"EVTOLManagement.sol\":5018:5050  e.state = EVTOLState.MAINTENANCE */\n      0x0100\n      exp\n      dup2\n      sload\n      dup2\n      0xff\n      mul\n      not\n      and\n      swap1\n      dup4\n      0x03\n      dup2\n      gt\n      iszero\n      tag_176\n      jumpi\n      tag_177\n      tag_54\n      jump\t// in\n    tag_177:\n    tag_176:\n      mul\n      or\n      swap1\n      sstore\n      pop\n        /* \"EVTOLManagement.sol\":5084:5086  id */\n      dup3\n        /* \"EVTOLManagement.sol\":5066:5144  EVTOLStateChanged(id, previous, e.state, e.currentVertiportId, e.activeTripId) */\n      0xdad44df2dcb3bce38ba2cab07296adccf00f73e782eecb1e5fab123abb1e3d49\n        /* \"EVTOLManagement.sol\":5088:5096  previous */\n      dup3\n        /* \"EVTOLManagement.sol\":5098:5099  e */\n      dup5\n        /* \"EVTOLManagement.sol\":5098:5105  e.state */\n      0x01\n      add\n      0x00\n      swap1\n      sload\n      swap1\n      0x0100\n      exp\n      swap1\n      div\n      0xff\n      and\n        /* \"EVTOLManagement.sol\":5107:5108  e */\n      dup6\n        /* \"EVTOLManagement.sol\":5107:5127  e.currentVertiportId */\n      0x02\n      add\n        /* \"EVTOLManagement.sol\":5129:5130  e */\n      dup7\n        /* \"EVTOLManagement.sol\":5129:5143  e.activeTripId */\n      0x03\n      add\n        /* \"EVTOLManagement.sol\":5066:5144  EVTOLStateChanged(id, previous, e.state, e.currentVertiportId, e.activeTripId) */\n      mload(0x40)\n      tag_178\n      swap5\n      swap4\n      swap3\n      swap2\n      swap1\n      tag_90\n      jump\t// in\n    tag_178:\n      mload(0x40)\n      dup1\n      swap2\n      sub\n      swap1\n      log2\n        /* \"EVTOLManagement.sol\":4713:5151  {... */\n      pop\n      pop\n        /* \"EVTOLManagement.sol\":4670:5151  function setMaintenance(uint256 id) public {... */\n      pop\n      jump\t// out\n        /* \"EVTOLManagement.sol\":1044:1370  function verifyCredentialSignature(... */\n    tag_48:\n        /* \"EVTOLManagement.sol\":1212:1216  bool */\n      0x00\n        /* \"EVTOLManagement.sol\":1359:1363  true */\n      0x01\n        /* \"EVTOLManagement.sol\":1352:1363  return true */\n      swap1\n      pop\n        /* \"EVTOLManagement.sol\":1044:1370  function verifyCredentialSignature(... */\n      swap4\n      swap3\n      pop\n      pop\n      pop\n      jump\t// out\n    tag_56:\n      dup3\n      dup1\n      sload\n      tag_180\n      swap1\n      tag_70\n      jump\t// in\n    tag_180:\n      swap1\n      0x00\n      mstore\n      keccak256(0x00, 0x20)\n      swap1\n      0x1f\n      add\n      0x20\n      swap1\n      div\n      dup2\n      add\n      swap3\n      dup3\n      tag_182\n      jumpi\n      0x00\n      dup6\n      sstore\n      jump(tag_181)\n    tag_182:\n      dup3\n      0x1f\n      lt\n      tag_183\n      jumpi\n      dup1\n      mload\n      not(0xff)\n      and\n      dup4\n      dup1\n      add\n      or\n      dup6\n      sstore\n      jump(tag_181)\n    tag_183:\n      dup3\n      dup1\n      add\n      0x01\n      add\n      dup6\n      sstore\n      dup3\n      iszero\n      tag_181\n      jumpi\n      swap2\n      dup3\n      add\n    tag_184:\n      dup3\n      dup2\n      gt\n      iszero\n      tag_185\n      jumpi\n      dup3\n      mload\n      dup3\n      sstore\n      swap2\n      0x20\n      add\n      swap2\n      swap1\n      0x01\n      add\n      swap1\n      jump(tag_184)\n    tag_185:\n    tag_181:\n      pop\n      swap1\n      pop\n      tag_186\n      swap2\n      swap1\n      tag_187\n      jump\t// in\n    tag_186:\n      pop\n      swap1\n      jump\t// out\n    tag_131:\n      mload(0x40)\n      dup1\n      0xa0\n      add\n      0x40\n      mstore\n      dup1\n      0x00\n      dup2\n      mstore\n      0x20\n      add\n      0x00\n      0x03\n      dup2\n      gt\n      iszero\n      tag_188\n      jumpi\n      tag_189\n      tag_54\n      jump\t// in\n    tag_189:\n    tag_188:\n      dup2\n      mstore\n      0x20\n      add\n      0x60\n      dup2\n      mstore\n      0x20\n      add\n      0x60\n      dup2\n      mstore\n      0x20\n      add\n      iszero(iszero(0x00))\n      dup2\n      mstore\n      pop\n      swap1\n      jump\t// out\n    tag_187:\n    tag_190:\n      dup1\n      dup3\n      gt\n      iszero\n      tag_191\n      jumpi\n      0x00\n      dup2\n      0x00\n      swap1\n      sstore\n      pop\n      0x01\n      add\n      jump(tag_190)\n    tag_191:\n      pop\n      swap1\n      jump\t// out\n        /* \"#utility.yul\":7:82   */\n    tag_192:\n        /* \"#utility.yul\":40:46   */\n      0x00\n        /* \"#utility.yul\":73:75   */\n      0x40\n        /* \"#utility.yul\":67:76   */\n      mload\n        /* \"#utility.yul\":57:76   */\n      swap1\n      pop\n        /* \"#utility.yul\":7:82   */\n      swap1\n      jump\t// out\n        /* \"#utility.yul\":88:205   */\n    tag_193:\n        /* \"#utility.yul\":197:198   */\n      0x00\n        /* \"#utility.yul\":194:195   */\n      dup1\n        /* \"#utility.yul\":187:199   */\n      revert\n        /* \"#utility.yul\":211:328   */\n    tag_194:\n        /* \"#utility.yul\":320:321   */\n      0x00\n        /* \"#utility.yul\":317:318   */\n      dup1\n        /* \"#utility.yul\":310:322   */\n      revert\n        /* \"#utility.yul\":334:411   */\n    tag_195:\n        /* \"#utility.yul\":371:378   */\n      0x00\n        /* \"#utility.yul\":400:405   */\n      dup2\n        /* \"#utility.yul\":389:405   */\n      swap1\n      pop\n        /* \"#utility.yul\":334:411   */\n      swap2\n      swap1\n      pop\n      jump\t// out\n        /* \"#utility.yul\":417:539   */\n    tag_196:\n        /* \"#utility.yul\":490:514   */\n      tag_262\n        /* \"#utility.yul\":508:513   */\n      dup2\n        /* \"#utility.yul\":490:514   */\n      tag_195\n      jump\t// in\n    tag_262:\n        /* \"#utility.yul\":483:488   */\n      dup2\n        /* \"#utility.yul\":480:515   */\n      eq\n        /* \"#utility.yul\":470:533   */\n      tag_263\n      jumpi\n        /* \"#utility.yul\":529:530   */\n      0x00\n        /* \"#utility.yul\":526:527   */\n      dup1\n        /* \"#utility.yul\":519:531   */\n      revert\n        /* \"#utility.yul\":470:533   */\n    tag_263:\n        /* \"#utility.yul\":417:539   */\n      pop\n      jump\t// out\n        /* \"#utility.yul\":545:684   */\n    tag_197:\n        /* \"#utility.yul\":591:596   */\n      0x00\n        /* \"#utility.yul\":629:635   */\n      dup2\n        /* \"#utility.yul\":616:636   */\n      calldataload\n        /* \"#utility.yul\":607:636   */\n      swap1\n      pop\n        /* \"#utility.yul\":645:678   */\n      tag_265\n        /* \"#utility.yul\":672:677   */\n      dup2\n        /* \"#utility.yul\":645:678   */\n      tag_196\n      jump\t// in\n    tag_265:\n        /* \"#utility.yul\":545:684   */\n      swap3\n      swap2\n      pop\n      pop\n      jump\t// out\n        /* \"#utility.yul\":690:807   */\n    tag_198:\n        /* \"#utility.yul\":799:800   */\n      0x00\n        /* \"#utility.yul\":796:797   */\n      dup1\n        /* \"#utility.yul\":789:801   */\n      revert\n        /* \"#utility.yul\":813:930   */\n    tag_199:\n        /* \"#utility.yul\":922:923   */\n      0x00\n        /* \"#utility.yul\":919:920   */\n      dup1\n        /* \"#utility.yul\":912:924   */\n      revert\n        /* \"#utility.yul\":936:1038   */\n    tag_200:\n        /* \"#utility.yul\":977:983   */\n      0x00\n        /* \"#utility.yul\":1028:1030   */\n      0x1f\n        /* \"#utility.yul\":1024:1031   */\n      not\n        /* \"#utility.yul\":1019:1021   */\n      0x1f\n        /* \"#utility.yul\":1012:1017   */\n      dup4\n        /* \"#utility.yul\":1008:1022   */\n      add\n        /* \"#utility.yul\":1004:1032   */\n      and\n        /* \"#utility.yul\":994:1032   */\n      swap1\n      pop\n        /* \"#utility.yul\":936:1038   */\n      swap2\n      swap1\n      pop\n      jump\t// out\n        /* \"#utility.yul\":1044:1224   */\n    tag_201:\n        /* \"#utility.yul\":1092:1169   */\n      0x4e487b7100000000000000000000000000000000000000000000000000000000\n        /* \"#utility.yul\":1089:1090   */\n      0x00\n        /* \"#utility.yul\":1082:1170   */\n      mstore\n        /* \"#utility.yul\":1189:1193   */\n      0x41\n        /* \"#utility.yul\":1186:1187   */\n      0x04\n        /* \"#utility.yul\":1179:1194   */\n      mstore\n        /* \"#utility.yul\":1213:1217   */\n      0x24\n        /* \"#utility.yul\":1210:1211   */\n      0x00\n        /* \"#utility.yul\":1203:1218   */\n      revert\n        /* \"#utility.yul\":1230:1511   */\n    tag_202:\n        /* \"#utility.yul\":1313:1340   */\n      tag_271\n        /* \"#utility.yul\":1335:1339   */\n      dup3\n        /* \"#utility.yul\":1313:1340   */\n      tag_200\n      jump\t// in\n    tag_271:\n        /* \"#utility.yul\":1305:1311   */\n      dup2\n        /* \"#utility.yul\":1301:1341   */\n      add\n        /* \"#utility.yul\":1443:1449   */\n      dup2\n        /* \"#utility.yul\":1431:1441   */\n      dup2\n        /* \"#utility.yul\":1428:1450   */\n      lt\n        /* \"#utility.yul\":1407:1425   */\n      0xffffffffffffffff\n        /* \"#utility.yul\":1395:1405   */\n      dup3\n        /* \"#utility.yul\":1392:1426   */\n      gt\n        /* \"#utility.yul\":1389:1451   */\n      or\n        /* \"#utility.yul\":1386:1474   */\n      iszero\n      tag_272\n      jumpi\n        /* \"#utility.yul\":1454:1472   */\n      tag_273\n      tag_201\n      jump\t// in\n    tag_273:\n        /* \"#utility.yul\":1386:1474   */\n    tag_272:\n        /* \"#utility.yul\":1494:1504   */\n      dup1\n        /* \"#utility.yul\":1490:1492   */\n      0x40\n        /* \"#utility.yul\":1483:1505   */\n      mstore\n        /* \"#utility.yul\":1273:1511   */\n      pop\n        /* \"#utility.yul\":1230:1511   */\n      pop\n      pop\n      jump\t// out\n        /* \"#utility.yul\":1517:1646   */\n    tag_203:\n        /* \"#utility.yul\":1551:1557   */\n      0x00\n        /* \"#utility.yul\":1578:1598   */\n      tag_275\n      tag_192\n      jump\t// in\n    tag_275:\n        /* \"#utility.yul\":1568:1598   */\n      swap1\n      pop\n        /* \"#utility.yul\":1607:1640   */\n      tag_276\n        /* \"#utility.yul\":1635:1639   */\n      dup3\n        /* \"#utility.yul\":1627:1633   */\n      dup3\n        /* \"#utility.yul\":1607:1640   */\n      tag_202\n      jump\t// in\n    tag_276:\n        /* \"#utility.yul\":1517:1646   */\n      swap2\n      swap1\n      pop\n      jump\t// out\n        /* \"#utility.yul\":1652:1960   */\n    tag_204:\n        /* \"#utility.yul\":1714:1718   */\n      0x00\n        /* \"#utility.yul\":1804:1822   */\n      0xffffffffffffffff\n        /* \"#utility.yul\":1796:1802   */\n      dup3\n        /* \"#utility.yul\":1793:1823   */\n      gt\n        /* \"#utility.yul\":1790:1846   */\n      iszero\n      tag_278\n      jumpi\n        /* \"#utility.yul\":1826:1844   */\n      tag_279\n      tag_201\n      jump\t// in\n    tag_279:\n        /* \"#utility.yul\":1790:1846   */\n    tag_278:\n        /* \"#utility.yul\":1864:1893   */\n      tag_280\n        /* \"#utility.yul\":1886:1892   */\n      dup3\n        /* \"#utility.yul\":1864:1893   */\n      tag_200\n      jump\t// in\n    tag_280:\n        /* \"#utility.yul\":1856:1893   */\n      swap1\n      pop\n        /* \"#utility.yul\":1948:1952   */\n      0x20\n        /* \"#utility.yul\":1942:1946   */\n      dup2\n        /* \"#utility.yul\":1938:1953   */\n      add\n        /* \"#utility.yul\":1930:1953   */\n      swap1\n      pop\n        /* \"#utility.yul\":1652:1960   */\n      swap2\n      swap1\n      pop\n      jump\t// out\n        /* \"#utility.yul\":1966:2120   */\n    tag_205:\n        /* \"#utility.yul\":2050:2056   */\n      dup3\n        /* \"#utility.yul\":2045:2048   */\n      dup2\n        /* \"#utility.yul\":2040:2043   */\n      dup4\n        /* \"#utility.yul\":2027:2057   */\n      calldatacopy\n        /* \"#utility.yul\":2112:2113   */\n      0x00\n        /* \"#utility.yul\":2103:2109   */\n      dup4\n        /* \"#utility.yul\":2098:2101   */\n      dup4\n        /* \"#utility.yul\":2094:2110   */\n      add\n        /* \"#utility.yul\":2087:2114   */\n      mstore\n        /* \"#utility.yul\":1966:2120   */\n      pop\n      pop\n      pop\n      jump\t// out\n        /* \"#utility.yul\":2126:2538   */\n    tag_206:\n        /* \"#utility.yul\":2204:2209   */\n      0x00\n        /* \"#utility.yul\":2229:2295   */\n      tag_283\n        /* \"#utility.yul\":2245:2294   */\n      tag_284\n        /* \"#utility.yul\":2287:2293   */\n      dup5\n        /* \"#utility.yul\":2245:2294   */\n      tag_204\n      jump\t// in\n    tag_284:\n        /* \"#utility.yul\":2229:2295   */\n      tag_203\n      jump\t// in\n    tag_283:\n        /* \"#utility.yul\":2220:2295   */\n      swap1\n      pop\n        /* \"#utility.yul\":2318:2324   */\n      dup3\n        /* \"#utility.yul\":2311:2316   */\n      dup2\n        /* \"#utility.yul\":2304:2325   */\n      mstore\n        /* \"#utility.yul\":2356:2360   */\n      0x20\n        /* \"#utility.yul\":2349:2354   */\n      dup2\n        /* \"#utility.yul\":2345:2361   */\n      add\n        /* \"#utility.yul\":2394:2397   */\n      dup5\n        /* \"#utility.yul\":2385:2391   */\n      dup5\n        /* \"#utility.yul\":2380:2383   */\n      dup5\n        /* \"#utility.yul\":2376:2392   */\n      add\n        /* \"#utility.yul\":2373:2398   */\n      gt\n        /* \"#utility.yul\":2370:2482   */\n      iszero\n      tag_285\n      jumpi\n        /* \"#utility.yul\":2401:2480   */\n      tag_286\n      tag_199\n      jump\t// in\n    tag_286:\n        /* \"#utility.yul\":2370:2482   */\n    tag_285:\n        /* \"#utility.yul\":2491:2532   */\n      tag_287\n        /* \"#utility.yul\":2525:2531   */\n      dup5\n        /* \"#utility.yul\":2520:2523   */\n      dup3\n        /* \"#utility.yul\":2515:2518   */\n      dup6\n        /* \"#utility.yul\":2491:2532   */\n      tag_205\n      jump\t// in\n    tag_287:\n        /* \"#utility.yul\":2210:2538   */\n      pop\n        /* \"#utility.yul\":2126:2538   */\n      swap4\n      swap3\n      pop\n      pop\n      pop\n      jump\t// out\n        /* \"#utility.yul\":2558:2898   */\n    tag_207:\n        /* \"#utility.yul\":2614:2619   */\n      0x00\n        /* \"#utility.yul\":2663:2666   */\n      dup3\n        /* \"#utility.yul\":2656:2660   */\n      0x1f\n        /* \"#utility.yul\":2648:2654   */\n      dup4\n        /* \"#utility.yul\":2644:2661   */\n      add\n        /* \"#utility.yul\":2640:2667   */\n      slt\n        /* \"#utility.yul\":2630:2752   */\n      tag_289\n      jumpi\n        /* \"#utility.yul\":2671:2750   */\n      tag_290\n      tag_198\n      jump\t// in\n    tag_290:\n        /* \"#utility.yul\":2630:2752   */\n    tag_289:\n        /* \"#utility.yul\":2788:2794   */\n      dup2\n        /* \"#utility.yul\":2775:2795   */\n      calldataload\n        /* \"#utility.yul\":2813:2892   */\n      tag_291\n        /* \"#utility.yul\":2888:2891   */\n      dup5\n        /* \"#utility.yul\":2880:2886   */\n      dup3\n        /* \"#utility.yul\":2873:2877   */\n      0x20\n        /* \"#utility.yul\":2865:2871   */\n      dup7\n        /* \"#utility.yul\":2861:2878   */\n      add\n        /* \"#utility.yul\":2813:2892   */\n      tag_206\n      jump\t// in\n    tag_291:\n        /* \"#utility.yul\":2804:2892   */\n      swap2\n      pop\n        /* \"#utility.yul\":2620:2898   */\n      pop\n        /* \"#utility.yul\":2558:2898   */\n      swap3\n      swap2\n      pop\n      pop\n      jump\t// out\n        /* \"#utility.yul\":2904:3211   */\n    tag_208:\n        /* \"#utility.yul\":2965:2969   */\n      0x00\n        /* \"#utility.yul\":3055:3073   */\n      0xffffffffffffffff\n        /* \"#utility.yul\":3047:3053   */\n      dup3\n        /* \"#utility.yul\":3044:3074   */\n      gt\n        /* \"#utility.yul\":3041:3097   */\n      iszero\n      tag_293\n      jumpi\n        /* \"#utility.yul\":3077:3095   */\n      tag_294\n      tag_201\n      jump\t// in\n    tag_294:\n        /* \"#utility.yul\":3041:3097   */\n    tag_293:\n        /* \"#utility.yul\":3115:3144   */\n      tag_295\n        /* \"#utility.yul\":3137:3143   */\n      dup3\n        /* \"#utility.yul\":3115:3144   */\n      tag_200\n      jump\t// in\n    tag_295:\n        /* \"#utility.yul\":3107:3144   */\n      swap1\n      pop\n        /* \"#utility.yul\":3199:3203   */\n      0x20\n        /* \"#utility.yul\":3193:3197   */\n      dup2\n        /* \"#utility.yul\":3189:3204   */\n      add\n        /* \"#utility.yul\":3181:3204   */\n      swap1\n      pop\n        /* \"#utility.yul\":2904:3211   */\n      swap2\n      swap1\n      pop\n      jump\t// out\n        /* \"#utility.yul\":3217:3627   */\n    tag_209:\n        /* \"#utility.yul\":3294:3299   */\n      0x00\n        /* \"#utility.yul\":3319:3384   */\n      tag_297\n        /* \"#utility.yul\":3335:3383   */\n      tag_298\n        /* \"#utility.yul\":3376:3382   */\n      dup5\n        /* \"#utility.yul\":3335:3383   */\n      tag_208\n      jump\t// in\n    tag_298:\n        /* \"#utility.yul\":3319:3384   */\n      tag_203\n      jump\t// in\n    tag_297:\n        /* \"#utility.yul\":3310:3384   */\n      swap1\n      pop\n        /* \"#utility.yul\":3407:3413   */\n      dup3\n        /* \"#utility.yul\":3400:3405   */\n      dup2\n        /* \"#utility.yul\":3393:3414   */\n      mstore\n        /* \"#utility.yul\":3445:3449   */\n      0x20\n        /* \"#utility.yul\":3438:3443   */\n      dup2\n        /* \"#utility.yul\":3434:3450   */\n      add\n        /* \"#utility.yul\":3483:3486   */\n      dup5\n        /* \"#utility.yul\":3474:3480   */\n      dup5\n        /* \"#utility.yul\":3469:3472   */\n      dup5\n        /* \"#utility.yul\":3465:3481   */\n      add\n        /* \"#utility.yul\":3462:3487   */\n      gt\n        /* \"#utility.yul\":3459:3571   */\n      iszero\n      tag_299\n      jumpi\n        /* \"#utility.yul\":3490:3569   */\n      tag_300\n      tag_199\n      jump\t// in\n    tag_300:\n        /* \"#utility.yul\":3459:3571   */\n    tag_299:\n        /* \"#utility.yul\":3580:3621   */\n      tag_301\n        /* \"#utility.yul\":3614:3620   */\n      dup5\n        /* \"#utility.yul\":3609:3612   */\n      dup3\n        /* \"#utility.yul\":3604:3607   */\n      dup6\n        /* \"#utility.yul\":3580:3621   */\n      tag_205\n      jump\t// in\n    tag_301:\n        /* \"#utility.yul\":3300:3627   */\n      pop\n        /* \"#utility.yul\":3217:3627   */\n      swap4\n      swap3\n      pop\n      pop\n      pop\n      jump\t// out\n        /* \"#utility.yul\":3646:3984   */\n    tag_210:\n        /* \"#utility.yul\":3701:3706   */\n      0x00\n        /* \"#utility.yul\":3750:3753   */\n      dup3\n        /* \"#utility.yul\":3743:3747   */\n      0x1f\n        /* \"#utility.yul\":3735:3741   */\n      dup4\n        /* \"#utility.yul\":3731:3748   */\n      add\n        /* \"#utility.yul\":3727:3754   */\n      slt\n        /* \"#utility.yul\":3717:3839   */\n      tag_303\n      jumpi\n        /* \"#utility.yul\":3758:3837   */\n      tag_304\n      tag_198\n      jump\t// in\n    tag_304:\n        /* \"#utility.yul\":3717:3839   */\n    tag_303:\n        /* \"#utility.yul\":3875:3881   */\n      dup2\n        /* \"#utility.yul\":3862:3882   */\n      calldataload\n        /* \"#utility.yul\":3900:3978   */\n      tag_305\n        /* \"#utility.yul\":3974:3977   */\n      dup5\n        /* \"#utility.yul\":3966:3972   */\n      dup3\n        /* \"#utility.yul\":3959:3963   */\n      0x20\n        /* \"#utility.yul\":3951:3957   */\n      dup7\n        /* \"#utility.yul\":3947:3964   */\n      add\n        /* \"#utility.yul\":3900:3978   */\n      tag_209\n      jump\t// in\n    tag_305:\n        /* \"#utility.yul\":3891:3978   */\n      swap2\n      pop\n        /* \"#utility.yul\":3707:3984   */\n      pop\n        /* \"#utility.yul\":3646:3984   */\n      swap3\n      swap2\n      pop\n      pop\n      jump\t// out\n        /* \"#utility.yul\":3990:4967   */\n    tag_14:\n        /* \"#utility.yul\":4086:4092   */\n      0x00\n        /* \"#utility.yul\":4094:4100   */\n      dup1\n        /* \"#utility.yul\":4102:4108   */\n      0x00\n        /* \"#utility.yul\":4151:4153   */\n      0x60\n        /* \"#utility.yul\":4139:4148   */\n      dup5\n        /* \"#utility.yul\":4130:4137   */\n      dup7\n        /* \"#utility.yul\":4126:4149   */\n      sub\n        /* \"#utility.yul\":4122:4154   */\n      slt\n        /* \"#utility.yul\":4119:4238   */\n      iszero\n      tag_307\n      jumpi\n        /* \"#utility.yul\":4157:4236   */\n      tag_308\n      tag_193\n      jump\t// in\n    tag_308:\n        /* \"#utility.yul\":4119:4238   */\n    tag_307:\n        /* \"#utility.yul\":4277:4278   */\n      0x00\n        /* \"#utility.yul\":4302:4355   */\n      tag_309\n        /* \"#utility.yul\":4347:4354   */\n      dup7\n        /* \"#utility.yul\":4338:4344   */\n      dup3\n        /* \"#utility.yul\":4327:4336   */\n      dup8\n        /* \"#utility.yul\":4323:4345   */\n      add\n        /* \"#utility.yul\":4302:4355   */\n      tag_197\n      jump\t// in\n    tag_309:\n        /* \"#utility.yul\":4292:4355   */\n      swap4\n      pop\n        /* \"#utility.yul\":4248:4365   */\n      pop\n        /* \"#utility.yul\":4432:4434   */\n      0x20\n        /* \"#utility.yul\":4421:4430   */\n      dup5\n        /* \"#utility.yul\":4417:4435   */\n      add\n        /* \"#utility.yul\":4404:4436   */\n      calldataload\n        /* \"#utility.yul\":4463:4481   */\n      0xffffffffffffffff\n        /* \"#utility.yul\":4455:4461   */\n      dup2\n        /* \"#utility.yul\":4452:4482   */\n      gt\n        /* \"#utility.yul\":4449:4566   */\n      iszero\n      tag_310\n      jumpi\n        /* \"#utility.yul\":4485:4564   */\n      tag_311\n      tag_194\n      jump\t// in\n    tag_311:\n        /* \"#utility.yul\":4449:4566   */\n    tag_310:\n        /* \"#utility.yul\":4590:4653   */\n      tag_312\n        /* \"#utility.yul\":4645:4652   */\n      dup7\n        /* \"#utility.yul\":4636:4642   */\n      dup3\n        /* \"#utility.yul\":4625:4634   */\n      dup8\n        /* \"#utility.yul\":4621:4643   */\n      add\n        /* \"#utility.yul\":4590:4653   */\n      tag_207\n      jump\t// in\n    tag_312:\n        /* \"#utility.yul\":4580:4653   */\n      swap3\n      pop\n        /* \"#utility.yul\":4375:4663   */\n      pop\n        /* \"#utility.yul\":4730:4732   */\n      0x40\n        /* \"#utility.yul\":4719:4728   */\n      dup5\n        /* \"#utility.yul\":4715:4733   */\n      add\n        /* \"#utility.yul\":4702:4734   */\n      calldataload\n        /* \"#utility.yul\":4761:4779   */\n      0xffffffffffffffff\n        /* \"#utility.yul\":4753:4759   */\n      dup2\n        /* \"#utility.yul\":4750:4780   */\n      gt\n        /* \"#utility.yul\":4747:4864   */\n      iszero\n      tag_313\n      jumpi\n        /* \"#utility.yul\":4783:4862   */\n      tag_314\n      tag_194\n      jump\t// in\n    tag_314:\n        /* \"#utility.yul\":4747:4864   */\n    tag_313:\n        /* \"#utility.yul\":4888:4950   */\n      tag_315\n        /* \"#utility.yul\":4942:4949   */\n      dup7\n        /* \"#utility.yul\":4933:4939   */\n      dup3\n        /* \"#utility.yul\":4922:4931   */\n      dup8\n        /* \"#utility.yul\":4918:4940   */\n      add\n        /* \"#utility.yul\":4888:4950   */\n      tag_210\n      jump\t// in\n    tag_315:\n        /* \"#utility.yul\":4878:4950   */\n      swap2\n      pop\n        /* \"#utility.yul\":4673:4960   */\n      pop\n        /* \"#utility.yul\":3990:4967   */\n      swap3\n      pop\n      swap3\n      pop\n      swap3\n      jump\t// out\n        /* \"#utility.yul\":4973:5302   */\n    tag_18:\n        /* \"#utility.yul\":5032:5038   */\n      0x00\n        /* \"#utility.yul\":5081:5083   */\n      0x20\n        /* \"#utility.yul\":5069:5078   */\n      dup3\n        /* \"#utility.yul\":5060:5067   */\n      dup5\n        /* \"#utility.yul\":5056:5079   */\n      sub\n        /* \"#utility.yul\":5052:5084   */\n      slt\n        /* \"#utility.yul\":5049:5168   */\n      iszero\n      tag_317\n      jumpi\n        /* \"#utility.yul\":5087:5166   */\n      tag_318\n      tag_193\n      jump\t// in\n    tag_318:\n        /* \"#utility.yul\":5049:5168   */\n    tag_317:\n        /* \"#utility.yul\":5207:5208   */\n      0x00\n        /* \"#utility.yul\":5232:5285   */\n      tag_319\n        /* \"#utility.yul\":5277:5284   */\n      dup5\n        /* \"#utility.yul\":5268:5274   */\n      dup3\n        /* \"#utility.yul\":5257:5266   */\n      dup6\n        /* \"#utility.yul\":5253:5275   */\n      add\n        /* \"#utility.yul\":5232:5285   */\n      tag_197\n      jump\t// in\n    tag_319:\n        /* \"#utility.yul\":5222:5285   */\n      swap2\n      pop\n        /* \"#utility.yul\":5178:5295   */\n      pop\n        /* \"#utility.yul\":4973:5302   */\n      swap3\n      swap2\n      pop\n      pop\n      jump\t// out\n        /* \"#utility.yul\":5308:5398   */\n    tag_211:\n        /* \"#utility.yul\":5342:5349   */\n      0x00\n        /* \"#utility.yul\":5385:5390   */\n      dup2\n        /* \"#utility.yul\":5378:5391   */\n      iszero\n        /* \"#utility.yul\":5371:5392   */\n      iszero\n        /* \"#utility.yul\":5360:5392   */\n      swap1\n      pop\n        /* \"#utility.yul\":5308:5398   */\n      swap2\n      swap1\n      pop\n      jump\t// out\n        /* \"#utility.yul\":5404:5513   */\n    tag_212:\n        /* \"#utility.yul\":5485:5506   */\n      tag_322\n        /* \"#utility.yul\":5500:5505   */\n      dup2\n        /* \"#utility.yul\":5485:5506   */\n      tag_211\n      jump\t// in\n    tag_322:\n        /* \"#utility.yul\":5480:5483   */\n      dup3\n        /* \"#utility.yul\":5473:5507   */\n      mstore\n        /* \"#utility.yul\":5404:5513   */\n      pop\n      pop\n      jump\t// out\n        /* \"#utility.yul\":5519:5729   */\n    tag_21:\n        /* \"#utility.yul\":5606:5610   */\n      0x00\n        /* \"#utility.yul\":5644:5646   */\n      0x20\n        /* \"#utility.yul\":5633:5642   */\n      dup3\n        /* \"#utility.yul\":5629:5647   */\n      add\n        /* \"#utility.yul\":5621:5647   */\n      swap1\n      pop\n        /* \"#utility.yul\":5657:5722   */\n      tag_324\n        /* \"#utility.yul\":5719:5720   */\n      0x00\n        /* \"#utility.yul\":5708:5717   */\n      dup4\n        /* \"#utility.yul\":5704:5721   */\n      add\n        /* \"#utility.yul\":5695:5701   */\n      dup5\n        /* \"#utility.yul\":5657:5722   */\n      tag_212\n      jump\t// in\n    tag_324:\n        /* \"#utility.yul\":5519:5729   */\n      swap3\n      swap2\n      pop\n      pop\n      jump\t// out\n        /* \"#utility.yul\":5735:6389   */\n    tag_27:\n        /* \"#utility.yul\":5813:5819   */\n      0x00\n        /* \"#utility.yul\":5821:5827   */\n      dup1\n        /* \"#utility.yul\":5870:5872   */\n      0x40\n        /* \"#utility.yul\":5858:5867   */\n      dup4\n        /* \"#utility.yul\":5849:5856   */\n      dup6\n        /* \"#utility.yul\":5845:5868   */\n      sub\n        /* \"#utility.yul\":5841:5873   */\n      slt\n        /* \"#utility.yul\":5838:5957   */\n      iszero\n      tag_326\n      jumpi\n        /* \"#utility.yul\":5876:5955   */\n      tag_327\n      tag_193\n      jump\t// in\n    tag_327:\n        /* \"#utility.yul\":5838:5957   */\n    tag_326:\n        /* \"#utility.yul\":5996:5997   */\n      0x00\n        /* \"#utility.yul\":6021:6074   */\n      tag_328\n        /* \"#utility.yul\":6066:6073   */\n      dup6\n        /* \"#utility.yul\":6057:6063   */\n      dup3\n        /* \"#utility.yul\":6046:6055   */\n      dup7\n        /* \"#utility.yul\":6042:6064   */\n      add\n        /* \"#utility.yul\":6021:6074   */\n      tag_197\n      jump\t// in\n    tag_328:\n        /* \"#utility.yul\":6011:6074   */\n      swap3\n      pop\n        /* \"#utility.yul\":5967:6084   */\n      pop\n        /* \"#utility.yul\":6151:6153   */\n      0x20\n        /* \"#utility.yul\":6140:6149   */\n      dup4\n        /* \"#utility.yul\":6136:6154   */\n      add\n        /* \"#utility.yul\":6123:6155   */\n      calldataload\n        /* \"#utility.yul\":6182:6200   */\n      0xffffffffffffffff\n        /* \"#utility.yul\":6174:6180   */\n      dup2\n        /* \"#utility.yul\":6171:6201   */\n      gt\n        /* \"#utility.yul\":6168:6285   */\n      iszero\n      tag_329\n      jumpi\n        /* \"#utility.yul\":6204:6283   */\n      tag_330\n      tag_194\n      jump\t// in\n    tag_330:\n        /* \"#utility.yul\":6168:6285   */\n    tag_329:\n        /* \"#utility.yul\":6309:6372   */\n      tag_331\n        /* \"#utility.yul\":6364:6371   */\n      dup6\n        /* \"#utility.yul\":6355:6361   */\n      dup3\n        /* \"#utility.yul\":6344:6353   */\n      dup7\n        /* \"#utility.yul\":6340:6362   */\n      add\n        /* \"#utility.yul\":6309:6372   */\n      tag_207\n      jump\t// in\n    tag_331:\n        /* \"#utility.yul\":6299:6372   */\n      swap2\n      pop\n        /* \"#utility.yul\":6094:6382   */\n      pop\n        /* \"#utility.yul\":5735:6389   */\n      swap3\n      pop\n      swap3\n      swap1\n      pop\n      jump\t// out\n        /* \"#utility.yul\":6395:6503   */\n    tag_213:\n        /* \"#utility.yul\":6472:6496   */\n      tag_333\n        /* \"#utility.yul\":6490:6495   */\n      dup2\n        /* \"#utility.yul\":6472:6496   */\n      tag_195\n      jump\t// in\n    tag_333:\n        /* \"#utility.yul\":6467:6470   */\n      dup3\n        /* \"#utility.yul\":6460:6497   */\n      mstore\n        /* \"#utility.yul\":6395:6503   */\n      pop\n      pop\n      jump\t// out\n        /* \"#utility.yul\":6509:6689   */\n    tag_54:\n        /* \"#utility.yul\":6557:6634   */\n      0x4e487b7100000000000000000000000000000000000000000000000000000000\n        /* \"#utility.yul\":6554:6555   */\n      0x00\n        /* \"#utility.yul\":6547:6635   */\n      mstore\n        /* \"#utility.yul\":6654:6658   */\n      0x21\n        /* \"#utility.yul\":6651:6652   */\n      0x04\n        /* \"#utility.yul\":6644:6659   */\n      mstore\n        /* \"#utility.yul\":6678:6682   */\n      0x24\n        /* \"#utility.yul\":6675:6676   */\n      0x00\n        /* \"#utility.yul\":6668:6683   */\n      revert\n        /* \"#utility.yul\":6695:6812   */\n    tag_214:\n        /* \"#utility.yul\":6780:6781   */\n      0x04\n        /* \"#utility.yul\":6773:6778   */\n      dup2\n        /* \"#utility.yul\":6770:6782   */\n      lt\n        /* \"#utility.yul\":6760:6806   */\n      tag_336\n      jumpi\n        /* \"#utility.yul\":6786:6804   */\n      tag_337\n      tag_54\n      jump\t// in\n    tag_337:\n        /* \"#utility.yul\":6760:6806   */\n    tag_336:\n        /* \"#utility.yul\":6695:6812   */\n      pop\n      jump\t// out\n        /* \"#utility.yul\":6818:6953   */\n    tag_215:\n        /* \"#utility.yul\":6867:6874   */\n      0x00\n        /* \"#utility.yul\":6896:6901   */\n      dup2\n        /* \"#utility.yul\":6885:6901   */\n      swap1\n      pop\n        /* \"#utility.yul\":6902:6947   */\n      tag_339\n        /* \"#utility.yul\":6941:6946   */\n      dup3\n        /* \"#utility.yul\":6902:6947   */\n      tag_214\n      jump\t// in\n    tag_339:\n        /* \"#utility.yul\":6818:6953   */\n      swap2\n      swap1\n      pop\n      jump\t// out\n        /* \"#utility.yul\":6959:7094   */\n    tag_216:\n        /* \"#utility.yul\":7019:7028   */\n      0x00\n        /* \"#utility.yul\":7052:7088   */\n      tag_341\n        /* \"#utility.yul\":7082:7087   */\n      dup3\n        /* \"#utility.yul\":7052:7088   */\n      tag_215\n      jump\t// in\n    tag_341:\n        /* \"#utility.yul\":7039:7088   */\n      swap1\n      pop\n        /* \"#utility.yul\":6959:7094   */\n      swap2\n      swap1\n      pop\n      jump\t// out\n        /* \"#utility.yul\":7100:7241   */\n    tag_217:\n        /* \"#utility.yul\":7187:7234   */\n      tag_343\n        /* \"#utility.yul\":7228:7233   */\n      dup2\n        /* \"#utility.yul\":7187:7234   */\n      tag_216\n      jump\t// in\n    tag_343:\n        /* \"#utility.yul\":7182:7185   */\n      dup3\n        /* \"#utility.yul\":7175:7235   */\n      mstore\n        /* \"#utility.yul\":7100:7241   */\n      pop\n      pop\n      jump\t// out\n        /* \"#utility.yul\":7247:7346   */\n    tag_218:\n        /* \"#utility.yul\":7299:7305   */\n      0x00\n        /* \"#utility.yul\":7333:7338   */\n      dup2\n        /* \"#utility.yul\":7327:7339   */\n      mload\n        /* \"#utility.yul\":7317:7339   */\n      swap1\n      pop\n        /* \"#utility.yul\":7247:7346   */\n      swap2\n      swap1\n      pop\n      jump\t// out\n        /* \"#utility.yul\":7352:7511   */\n    tag_219:\n        /* \"#utility.yul\":7426:7437   */\n      0x00\n        /* \"#utility.yul\":7460:7466   */\n      dup3\n        /* \"#utility.yul\":7455:7458   */\n      dup3\n        /* \"#utility.yul\":7448:7467   */\n      mstore\n        /* \"#utility.yul\":7500:7504   */\n      0x20\n        /* \"#utility.yul\":7495:7498   */\n      dup3\n        /* \"#utility.yul\":7491:7505   */\n      add\n        /* \"#utility.yul\":7476:7505   */\n      swap1\n      pop\n        /* \"#utility.yul\":7352:7511   */\n      swap3\n      swap2\n      pop\n      pop\n      jump\t// out\n        /* \"#utility.yul\":7517:7824   */\n    tag_220:\n        /* \"#utility.yul\":7585:7586   */\n      0x00\n        /* \"#utility.yul\":7595:7708   */\n    tag_347:\n        /* \"#utility.yul\":7609:7615   */\n      dup4\n        /* \"#utility.yul\":7606:7607   */\n      dup2\n        /* \"#utility.yul\":7603:7616   */\n      lt\n        /* \"#utility.yul\":7595:7708   */\n      iszero\n      tag_349\n      jumpi\n        /* \"#utility.yul\":7694:7695   */\n      dup1\n        /* \"#utility.yul\":7689:7692   */\n      dup3\n        /* \"#utility.yul\":7685:7696   */\n      add\n        /* \"#utility.yul\":7679:7697   */\n      mload\n        /* \"#utility.yul\":7675:7676   */\n      dup2\n        /* \"#utility.yul\":7670:7673   */\n      dup5\n        /* \"#utility.yul\":7666:7677   */\n      add\n        /* \"#utility.yul\":7659:7698   */\n      mstore\n        /* \"#utility.yul\":7631:7633   */\n      0x20\n        /* \"#utility.yul\":7628:7629   */\n      dup2\n        /* \"#utility.yul\":7624:7634   */\n      add\n        /* \"#utility.yul\":7619:7634   */\n      swap1\n      pop\n        /* \"#utility.yul\":7595:7708   */\n      jump(tag_347)\n    tag_349:\n        /* \"#utility.yul\":7726:7732   */\n      dup4\n        /* \"#utility.yul\":7723:7724   */\n      dup2\n        /* \"#utility.yul\":7720:7733   */\n      gt\n        /* \"#utility.yul\":7717:7818   */\n      iszero\n      tag_350\n      jumpi\n        /* \"#utility.yul\":7806:7807   */\n      0x00\n        /* \"#utility.yul\":7797:7803   */\n      dup5\n        /* \"#utility.yul\":7792:7795   */\n      dup5\n        /* \"#utility.yul\":7788:7804   */\n      add\n        /* \"#utility.yul\":7781:7808   */\n      mstore\n        /* \"#utility.yul\":7717:7818   */\n    tag_350:\n        /* \"#utility.yul\":7566:7824   */\n      pop\n        /* \"#utility.yul\":7517:7824   */\n      pop\n      pop\n      pop\n      jump\t// out\n        /* \"#utility.yul\":7830:8174   */\n    tag_221:\n        /* \"#utility.yul\":7908:7911   */\n      0x00\n        /* \"#utility.yul\":7936:7975   */\n      tag_352\n        /* \"#utility.yul\":7969:7974   */\n      dup3\n        /* \"#utility.yul\":7936:7975   */\n      tag_218\n      jump\t// in\n    tag_352:\n        /* \"#utility.yul\":7991:8052   */\n      tag_353\n        /* \"#utility.yul\":8045:8051   */\n      dup2\n        /* \"#utility.yul\":8040:8043   */\n      dup6\n        /* \"#utility.yul\":7991:8052   */\n      tag_219\n      jump\t// in\n    tag_353:\n        /* \"#utility.yul\":7984:8052   */\n      swap4\n      pop\n        /* \"#utility.yul\":8061:8113   */\n      tag_354\n        /* \"#utility.yul\":8106:8112   */\n      dup2\n        /* \"#utility.yul\":8101:8104   */\n      dup6\n        /* \"#utility.yul\":8094:8098   */\n      0x20\n        /* \"#utility.yul\":8087:8092   */\n      dup7\n        /* \"#utility.yul\":8083:8099   */\n      add\n        /* \"#utility.yul\":8061:8113   */\n      tag_220\n      jump\t// in\n    tag_354:\n        /* \"#utility.yul\":8138:8167   */\n      tag_355\n        /* \"#utility.yul\":8160:8166   */\n      dup2\n        /* \"#utility.yul\":8138:8167   */\n      tag_200\n      jump\t// in\n    tag_355:\n        /* \"#utility.yul\":8133:8136   */\n      dup5\n        /* \"#utility.yul\":8129:8168   */\n      add\n        /* \"#utility.yul\":8122:8168   */\n      swap2\n      pop\n        /* \"#utility.yul\":7912:8174   */\n      pop\n        /* \"#utility.yul\":7830:8174   */\n      swap3\n      swap2\n      pop\n      pop\n      jump\t// out\n        /* \"#utility.yul\":8180:8279   */\n    tag_222:\n        /* \"#utility.yul\":8251:8272   */\n      tag_357\n        /* \"#utility.yul\":8266:8271   */\n      dup2\n        /* \"#utility.yul\":8251:8272   */\n      tag_211\n      jump\t// in\n    tag_357:\n        /* \"#utility.yul\":8246:8249   */\n      dup3\n        /* \"#utility.yul\":8239:8273   */\n      mstore\n        /* \"#utility.yul\":8180:8279   */\n      pop\n      pop\n      jump\t// out\n        /* \"#utility.yul\":8353:9571   */\n    tag_223:\n        /* \"#utility.yul\":8464:8467   */\n      0x00\n        /* \"#utility.yul\":8500:8504   */\n      0xa0\n        /* \"#utility.yul\":8495:8498   */\n      dup4\n        /* \"#utility.yul\":8491:8505   */\n      add\n        /* \"#utility.yul\":8585:8589   */\n      0x00\n        /* \"#utility.yul\":8578:8583   */\n      dup4\n        /* \"#utility.yul\":8574:8590   */\n      add\n        /* \"#utility.yul\":8568:8591   */\n      mload\n        /* \"#utility.yul\":8604:8667   */\n      tag_359\n        /* \"#utility.yul\":8661:8665   */\n      0x00\n        /* \"#utility.yul\":8656:8659   */\n      dup7\n        /* \"#utility.yul\":8652:8666   */\n      add\n        /* \"#utility.yul\":8638:8650   */\n      dup3\n        /* \"#utility.yul\":8604:8667   */\n      tag_213\n      jump\t// in\n    tag_359:\n        /* \"#utility.yul\":8515:8677   */\n      pop\n        /* \"#utility.yul\":8760:8764   */\n      0x20\n        /* \"#utility.yul\":8753:8758   */\n      dup4\n        /* \"#utility.yul\":8749:8765   */\n      add\n        /* \"#utility.yul\":8743:8766   */\n      mload\n        /* \"#utility.yul\":8779:8852   */\n      tag_360\n        /* \"#utility.yul\":8846:8850   */\n      0x20\n        /* \"#utility.yul\":8841:8844   */\n      dup7\n        /* \"#utility.yul\":8837:8851   */\n      add\n        /* \"#utility.yul\":8823:8835   */\n      dup3\n        /* \"#utility.yul\":8779:8852   */\n      tag_217\n      jump\t// in\n    tag_360:\n        /* \"#utility.yul\":8687:8862   */\n      pop\n        /* \"#utility.yul\":8958:8962   */\n      0x40\n        /* \"#utility.yul\":8951:8956   */\n      dup4\n        /* \"#utility.yul\":8947:8963   */\n      add\n        /* \"#utility.yul\":8941:8964   */\n      mload\n        /* \"#utility.yul\":9011:9014   */\n      dup5\n        /* \"#utility.yul\":9005:9009   */\n      dup3\n        /* \"#utility.yul\":9001:9015   */\n      sub\n        /* \"#utility.yul\":8994:8998   */\n      0x40\n        /* \"#utility.yul\":8989:8992   */\n      dup7\n        /* \"#utility.yul\":8985:8999   */\n      add\n        /* \"#utility.yul\":8978:9016   */\n      mstore\n        /* \"#utility.yul\":9037:9110   */\n      tag_361\n        /* \"#utility.yul\":9105:9109   */\n      dup3\n        /* \"#utility.yul\":9091:9103   */\n      dup3\n        /* \"#utility.yul\":9037:9110   */\n      tag_221\n      jump\t// in\n    tag_361:\n        /* \"#utility.yul\":9029:9110   */\n      swap2\n      pop\n        /* \"#utility.yul\":8872:9121   */\n      pop\n        /* \"#utility.yul\":9211:9215   */\n      0x60\n        /* \"#utility.yul\":9204:9209   */\n      dup4\n        /* \"#utility.yul\":9200:9216   */\n      add\n        /* \"#utility.yul\":9194:9217   */\n      mload\n        /* \"#utility.yul\":9264:9267   */\n      dup5\n        /* \"#utility.yul\":9258:9262   */\n      dup3\n        /* \"#utility.yul\":9254:9268   */\n      sub\n        /* \"#utility.yul\":9247:9251   */\n      0x60\n        /* \"#utility.yul\":9242:9245   */\n      dup7\n        /* \"#utility.yul\":9238:9252   */\n      add\n        /* \"#utility.yul\":9231:9269   */\n      mstore\n        /* \"#utility.yul\":9290:9363   */\n      tag_362\n        /* \"#utility.yul\":9358:9362   */\n      dup3\n        /* \"#utility.yul\":9344:9356   */\n      dup3\n        /* \"#utility.yul\":9290:9363   */\n      tag_221\n      jump\t// in\n    tag_362:\n        /* \"#utility.yul\":9282:9363   */\n      swap2\n      pop\n        /* \"#utility.yul\":9131:9374   */\n      pop\n        /* \"#utility.yul\":9458:9462   */\n      0x80\n        /* \"#utility.yul\":9451:9456   */\n      dup4\n        /* \"#utility.yul\":9447:9463   */\n      add\n        /* \"#utility.yul\":9441:9464   */\n      mload\n        /* \"#utility.yul\":9477:9534   */\n      tag_363\n        /* \"#utility.yul\":9528:9532   */\n      0x80\n        /* \"#utility.yul\":9523:9526   */\n      dup7\n        /* \"#utility.yul\":9519:9533   */\n      add\n        /* \"#utility.yul\":9505:9517   */\n      dup3\n        /* \"#utility.yul\":9477:9534   */\n      tag_222\n      jump\t// in\n    tag_363:\n        /* \"#utility.yul\":9384:9544   */\n      pop\n        /* \"#utility.yul\":9561:9565   */\n      dup1\n        /* \"#utility.yul\":9554:9565   */\n      swap2\n      pop\n        /* \"#utility.yul\":8469:9571   */\n      pop\n        /* \"#utility.yul\":8353:9571   */\n      swap3\n      swap2\n      pop\n      pop\n      jump\t// out\n        /* \"#utility.yul\":9577:9934   */\n    tag_36:\n        /* \"#utility.yul\":9712:9716   */\n      0x00\n        /* \"#utility.yul\":9750:9752   */\n      0x20\n        /* \"#utility.yul\":9739:9748   */\n      dup3\n        /* \"#utility.yul\":9735:9753   */\n      add\n        /* \"#utility.yul\":9727:9753   */\n      swap1\n      pop\n        /* \"#utility.yul\":9799:9808   */\n      dup2\n        /* \"#utility.yul\":9793:9797   */\n      dup2\n        /* \"#utility.yul\":9789:9809   */\n      sub\n        /* \"#utility.yul\":9785:9786   */\n      0x00\n        /* \"#utility.yul\":9774:9783   */\n      dup4\n        /* \"#utility.yul\":9770:9787   */\n      add\n        /* \"#utility.yul\":9763:9810   */\n      mstore\n        /* \"#utility.yul\":9827:9927   */\n      tag_365\n        /* \"#utility.yul\":9922:9926   */\n      dup2\n        /* \"#utility.yul\":9913:9919   */\n      dup5\n        /* \"#utility.yul\":9827:9927   */\n      tag_223\n      jump\t// in\n    tag_365:\n        /* \"#utility.yul\":9819:9927   */\n      swap1\n      pop\n        /* \"#utility.yul\":9577:9934   */\n      swap3\n      swap2\n      pop\n      pop\n      jump\t// out\n        /* \"#utility.yul\":9940:10109   */\n    tag_224:\n        /* \"#utility.yul\":10024:10035   */\n      0x00\n        /* \"#utility.yul\":10058:10064   */\n      dup3\n        /* \"#utility.yul\":10053:10056   */\n      dup3\n        /* \"#utility.yul\":10046:10065   */\n      mstore\n        /* \"#utility.yul\":10098:10102   */\n      0x20\n        /* \"#utility.yul\":10093:10096   */\n      dup3\n        /* \"#utility.yul\":10089:10103   */\n      add\n        /* \"#utility.yul\":10074:10103   */\n      swap1\n      pop\n        /* \"#utility.yul\":9940:10109   */\n      swap3\n      swap2\n      pop\n      pop\n      jump\t// out\n        /* \"#utility.yul\":10115:10284   */\n    tag_225:\n        /* \"#utility.yul\":10255:10276   */\n      0x4556544f4c207961207265676973747261646f00000000000000000000000000\n        /* \"#utility.yul\":10251:10252   */\n      0x00\n        /* \"#utility.yul\":10243:10249   */\n      dup3\n        /* \"#utility.yul\":10239:10253   */\n      add\n        /* \"#utility.yul\":10232:10277   */\n      mstore\n        /* \"#utility.yul\":10115:10284   */\n      pop\n      jump\t// out\n        /* \"#utility.yul\":10290:10656   */\n    tag_226:\n        /* \"#utility.yul\":10432:10435   */\n      0x00\n        /* \"#utility.yul\":10453:10520   */\n      tag_369\n        /* \"#utility.yul\":10517:10519   */\n      0x13\n        /* \"#utility.yul\":10512:10515   */\n      dup4\n        /* \"#utility.yul\":10453:10520   */\n      tag_224\n      jump\t// in\n    tag_369:\n        /* \"#utility.yul\":10446:10520   */\n      swap2\n      pop\n        /* \"#utility.yul\":10529:10622   */\n      tag_370\n        /* \"#utility.yul\":10618:10621   */\n      dup3\n        /* \"#utility.yul\":10529:10622   */\n      tag_225\n      jump\t// in\n    tag_370:\n        /* \"#utility.yul\":10647:10649   */\n      0x20\n        /* \"#utility.yul\":10642:10645   */\n      dup3\n        /* \"#utility.yul\":10638:10650   */\n      add\n        /* \"#utility.yul\":10631:10650   */\n      swap1\n      pop\n        /* \"#utility.yul\":10290:10656   */\n      swap2\n      swap1\n      pop\n      jump\t// out\n        /* \"#utility.yul\":10662:11081   */\n    tag_46:\n        /* \"#utility.yul\":10828:10832   */\n      0x00\n        /* \"#utility.yul\":10866:10868   */\n      0x20\n        /* \"#utility.yul\":10855:10864   */\n      dup3\n        /* \"#utility.yul\":10851:10869   */\n      add\n        /* \"#utility.yul\":10843:10869   */\n      swap1\n      pop\n        /* \"#utility.yul\":10915:10924   */\n      dup2\n        /* \"#utility.yul\":10909:10913   */\n      dup2\n        /* \"#utility.yul\":10905:10925   */\n      sub\n        /* \"#utility.yul\":10901:10902   */\n      0x00\n        /* \"#utility.yul\":10890:10899   */\n      dup4\n        /* \"#utility.yul\":10886:10903   */\n      add\n        /* \"#utility.yul\":10879:10926   */\n      mstore\n        /* \"#utility.yul\":10943:11074   */\n      tag_372\n        /* \"#utility.yul\":11069:11073   */\n      dup2\n        /* \"#utility.yul\":10943:11074   */\n      tag_226\n      jump\t// in\n    tag_372:\n        /* \"#utility.yul\":10935:11074   */\n      swap1\n      pop\n        /* \"#utility.yul\":10662:11081   */\n      swap2\n      swap1\n      pop\n      jump\t// out\n        /* \"#utility.yul\":11087:11265   */\n    tag_227:\n        /* \"#utility.yul\":11227:11257   */\n      0x43726564656e6369616c206465204556544f4c20696e76616c69646100000000\n        /* \"#utility.yul\":11223:11224   */\n      0x00\n        /* \"#utility.yul\":11215:11221   */\n      dup3\n        /* \"#utility.yul\":11211:11225   */\n      add\n        /* \"#utility.yul\":11204:11258   */\n      mstore\n        /* \"#utility.yul\":11087:11265   */\n      pop\n      jump\t// out\n        /* \"#utility.yul\":11271:11637   */\n    tag_228:\n        /* \"#utility.yul\":11413:11416   */\n      0x00\n        /* \"#utility.yul\":11434:11501   */\n      tag_375\n        /* \"#utility.yul\":11498:11500   */\n      0x1c\n        /* \"#utility.yul\":11493:11496   */\n      dup4\n        /* \"#utility.yul\":11434:11501   */\n      tag_224\n      jump\t// in\n    tag_375:\n        /* \"#utility.yul\":11427:11501   */\n      swap2\n      pop\n        /* \"#utility.yul\":11510:11603   */\n      tag_376\n        /* \"#utility.yul\":11599:11602   */\n      dup3\n        /* \"#utility.yul\":11510:11603   */\n      tag_227\n      jump\t// in\n    tag_376:\n        /* \"#utility.yul\":11628:11630   */\n      0x20\n        /* \"#utility.yul\":11623:11626   */\n      dup3\n        /* \"#utility.yul\":11619:11631   */\n      add\n        /* \"#utility.yul\":11612:11631   */\n      swap1\n      pop\n        /* \"#utility.yul\":11271:11637   */\n      swap2\n      swap1\n      pop\n      jump\t// out\n        /* \"#utility.yul\":11643:12062   */\n    tag_51:\n        /* \"#utility.yul\":11809:11813   */\n      0x00\n        /* \"#utility.yul\":11847:11849   */\n      0x20\n        /* \"#utility.yul\":11836:11845   */\n      dup3\n        /* \"#utility.yul\":11832:11850   */\n      add\n        /* \"#utility.yul\":11824:11850   */\n      swap1\n      pop\n        /* \"#utility.yul\":11896:11905   */\n      dup2\n        /* \"#utility.yul\":11890:11894   */\n      dup2\n        /* \"#utility.yul\":11886:11906   */\n      sub\n        /* \"#utility.yul\":11882:11883   */\n      0x00\n        /* \"#utility.yul\":11871:11880   */\n      dup4\n        /* \"#utility.yul\":11867:11884   */\n      add\n        /* \"#utility.yul\":11860:11907   */\n      mstore\n        /* \"#utility.yul\":11924:12055   */\n      tag_378\n        /* \"#utility.yul\":12050:12054   */\n      dup2\n        /* \"#utility.yul\":11924:12055   */\n      tag_228\n      jump\t// in\n    tag_378:\n        /* \"#utility.yul\":11916:12055   */\n      swap1\n      pop\n        /* \"#utility.yul\":11643:12062   */\n      swap2\n      swap1\n      pop\n      jump\t// out\n        /* \"#utility.yul\":12068:12432   */\n    tag_229:\n        /* \"#utility.yul\":12156:12159   */\n      0x00\n        /* \"#utility.yul\":12184:12223   */\n      tag_380\n        /* \"#utility.yul\":12217:12222   */\n      dup3\n        /* \"#utility.yul\":12184:12223   */\n      tag_218\n      jump\t// in\n    tag_380:\n        /* \"#utility.yul\":12239:12310   */\n      tag_381\n        /* \"#utility.yul\":12303:12309   */\n      dup2\n        /* \"#utility.yul\":12298:12301   */\n      dup6\n        /* \"#utility.yul\":12239:12310   */\n      tag_224\n      jump\t// in\n    tag_381:\n        /* \"#utility.yul\":12232:12310   */\n      swap4\n      pop\n        /* \"#utility.yul\":12319:12371   */\n      tag_382\n        /* \"#utility.yul\":12364:12370   */\n      dup2\n        /* \"#utility.yul\":12359:12362   */\n      dup6\n        /* \"#utility.yul\":12352:12356   */\n      0x20\n        /* \"#utility.yul\":12345:12350   */\n      dup7\n        /* \"#utility.yul\":12341:12357   */\n      add\n        /* \"#utility.yul\":12319:12371   */\n      tag_220\n      jump\t// in\n    tag_382:\n        /* \"#utility.yul\":12396:12425   */\n      tag_383\n        /* \"#utility.yul\":12418:12424   */\n      dup2\n        /* \"#utility.yul\":12396:12425   */\n      tag_200\n      jump\t// in\n    tag_383:\n        /* \"#utility.yul\":12391:12394   */\n      dup5\n        /* \"#utility.yul\":12387:12426   */\n      add\n        /* \"#utility.yul\":12380:12426   */\n      swap2\n      pop\n        /* \"#utility.yul\":12160:12432   */\n      pop\n        /* \"#utility.yul\":12068:12432   */\n      swap3\n      swap2\n      pop\n      pop\n      jump\t// out\n        /* \"#utility.yul\":12438:12751   */\n    tag_59:\n        /* \"#utility.yul\":12551:12555   */\n      0x00\n        /* \"#utility.yul\":12589:12591   */\n      0x20\n        /* \"#utility.yul\":12578:12587   */\n      dup3\n        /* \"#utility.yul\":12574:12592   */\n      add\n        /* \"#utility.yul\":12566:12592   */\n      swap1\n      pop\n        /* \"#utility.yul\":12638:12647   */\n      dup2\n        /* \"#utility.yul\":12632:12636   */\n      dup2\n        /* \"#utility.yul\":12628:12648   */\n      sub\n        /* \"#utility.yul\":12624:12625   */\n      0x00\n        /* \"#utility.yul\":12613:12622   */\n      dup4\n        /* \"#utility.yul\":12609:12626   */\n      add\n        /* \"#utility.yul\":12602:12649   */\n      mstore\n        /* \"#utility.yul\":12666:12744   */\n      tag_385\n        /* \"#utility.yul\":12739:12743   */\n      dup2\n        /* \"#utility.yul\":12730:12736   */\n      dup5\n        /* \"#utility.yul\":12666:12744   */\n      tag_229\n      jump\t// in\n    tag_385:\n        /* \"#utility.yul\":12658:12744   */\n      swap1\n      pop\n        /* \"#utility.yul\":12438:12751   */\n      swap3\n      swap2\n      pop\n      pop\n      jump\t// out\n        /* \"#utility.yul\":12757:12908   */\n    tag_230:\n        /* \"#utility.yul\":12854:12901   */\n      tag_387\n        /* \"#utility.yul\":12895:12900   */\n      dup2\n        /* \"#utility.yul\":12854:12901   */\n      tag_216\n      jump\t// in\n    tag_387:\n        /* \"#utility.yul\":12849:12852   */\n      dup3\n        /* \"#utility.yul\":12842:12902   */\n      mstore\n        /* \"#utility.yul\":12757:12908   */\n      pop\n      pop\n      jump\t// out\n        /* \"#utility.yul\":12914:13028   */\n    tag_231:\n      pop\n      jump\t// out\n        /* \"#utility.yul\":13034:13398   */\n    tag_232:\n        /* \"#utility.yul\":13176:13179   */\n      0x00\n        /* \"#utility.yul\":13197:13263   */\n      tag_390\n        /* \"#utility.yul\":13261:13262   */\n      0x00\n        /* \"#utility.yul\":13256:13259   */\n      dup4\n        /* \"#utility.yul\":13197:13263   */\n      tag_224\n      jump\t// in\n    tag_390:\n        /* \"#utility.yul\":13190:13263   */\n      swap2\n      pop\n        /* \"#utility.yul\":13272:13365   */\n      tag_391\n        /* \"#utility.yul\":13361:13364   */\n      dup3\n        /* \"#utility.yul\":13272:13365   */\n      tag_231\n      jump\t// in\n    tag_391:\n        /* \"#utility.yul\":13390:13391   */\n      0x00\n        /* \"#utility.yul\":13385:13388   */\n      dup3\n        /* \"#utility.yul\":13381:13392   */\n      add\n        /* \"#utility.yul\":13374:13392   */\n      swap1\n      pop\n        /* \"#utility.yul\":13034:13398   */\n      swap2\n      swap1\n      pop\n      jump\t// out\n        /* \"#utility.yul\":13404:14285   */\n    tag_61:\n        /* \"#utility.yul\":13694:13698   */\n      0x00\n        /* \"#utility.yul\":13732:13735   */\n      0x80\n        /* \"#utility.yul\":13721:13730   */\n      dup3\n        /* \"#utility.yul\":13717:13736   */\n      add\n        /* \"#utility.yul\":13709:13736   */\n      swap1\n      pop\n        /* \"#utility.yul\":13746:13827   */\n      tag_393\n        /* \"#utility.yul\":13824:13825   */\n      0x00\n        /* \"#utility.yul\":13813:13822   */\n      dup4\n        /* \"#utility.yul\":13809:13826   */\n      add\n        /* \"#utility.yul\":13800:13806   */\n      dup7\n        /* \"#utility.yul\":13746:13827   */\n      tag_230\n      jump\t// in\n    tag_393:\n        /* \"#utility.yul\":13837:13919   */\n      tag_394\n        /* \"#utility.yul\":13915:13917   */\n      0x20\n        /* \"#utility.yul\":13904:13913   */\n      dup4\n        /* \"#utility.yul\":13900:13918   */\n      add\n        /* \"#utility.yul\":13891:13897   */\n      dup6\n        /* \"#utility.yul\":13837:13919   */\n      tag_230\n      jump\t// in\n    tag_394:\n        /* \"#utility.yul\":13966:13975   */\n      dup2\n        /* \"#utility.yul\":13960:13964   */\n      dup2\n        /* \"#utility.yul\":13956:13976   */\n      sub\n        /* \"#utility.yul\":13951:13953   */\n      0x40\n        /* \"#utility.yul\":13940:13949   */\n      dup4\n        /* \"#utility.yul\":13936:13954   */\n      add\n        /* \"#utility.yul\":13929:13977   */\n      mstore\n        /* \"#utility.yul\":13994:14072   */\n      tag_395\n        /* \"#utility.yul\":14067:14071   */\n      dup2\n        /* \"#utility.yul\":14058:14064   */\n      dup5\n        /* \"#utility.yul\":13994:14072   */\n      tag_229\n      jump\t// in\n    tag_395:\n        /* \"#utility.yul\":13986:14072   */\n      swap1\n      pop\n        /* \"#utility.yul\":14119:14128   */\n      dup2\n        /* \"#utility.yul\":14113:14117   */\n      dup2\n        /* \"#utility.yul\":14109:14129   */\n      sub\n        /* \"#utility.yul\":14104:14106   */\n      0x60\n        /* \"#utility.yul\":14093:14102   */\n      dup4\n        /* \"#utility.yul\":14089:14107   */\n      add\n        /* \"#utility.yul\":14082:14130   */\n      mstore\n        /* \"#utility.yul\":14147:14278   */\n      tag_396\n        /* \"#utility.yul\":14273:14277   */\n      dup2\n        /* \"#utility.yul\":14147:14278   */\n      tag_232\n      jump\t// in\n    tag_396:\n        /* \"#utility.yul\":14139:14278   */\n      swap1\n      pop\n        /* \"#utility.yul\":13404:14285   */\n      swap5\n      swap4\n      pop\n      pop\n      pop\n      pop\n      jump\t// out\n        /* \"#utility.yul\":14291:14471   */\n    tag_233:\n        /* \"#utility.yul\":14339:14416   */\n      0x4e487b7100000000000000000000000000000000000000000000000000000000\n        /* \"#utility.yul\":14336:14337   */\n      0x00\n        /* \"#utility.yul\":14329:14417   */\n      mstore\n        /* \"#utility.yul\":14436:14440   */\n      0x22\n        /* \"#utility.yul\":14433:14434   */\n      0x04\n        /* \"#utility.yul\":14426:14441   */\n      mstore\n        /* \"#utility.yul\":14460:14464   */\n      0x24\n        /* \"#utility.yul\":14457:14458   */\n      0x00\n        /* \"#utility.yul\":14450:14465   */\n      revert\n        /* \"#utility.yul\":14477:14797   */\n    tag_70:\n        /* \"#utility.yul\":14521:14527   */\n      0x00\n        /* \"#utility.yul\":14558:14559   */\n      0x02\n        /* \"#utility.yul\":14552:14556   */\n      dup3\n        /* \"#utility.yul\":14548:14560   */\n      div\n        /* \"#utility.yul\":14538:14560   */\n      swap1\n      pop\n        /* \"#utility.yul\":14605:14606   */\n      0x01\n        /* \"#utility.yul\":14599:14603   */\n      dup3\n        /* \"#utility.yul\":14595:14607   */\n      and\n        /* \"#utility.yul\":14626:14644   */\n      dup1\n        /* \"#utility.yul\":14616:14697   */\n      tag_399\n      jumpi\n        /* \"#utility.yul\":14682:14686   */\n      0x7f\n        /* \"#utility.yul\":14674:14680   */\n      dup3\n        /* \"#utility.yul\":14670:14687   */\n      and\n        /* \"#utility.yul\":14660:14687   */\n      swap2\n      pop\n        /* \"#utility.yul\":14616:14697   */\n    tag_399:\n        /* \"#utility.yul\":14744:14746   */\n      0x20\n        /* \"#utility.yul\":14736:14742   */\n      dup3\n        /* \"#utility.yul\":14733:14747   */\n      lt\n        /* \"#utility.yul\":14713:14731   */\n      dup2\n        /* \"#utility.yul\":14710:14748   */\n      eq\n        /* \"#utility.yul\":14707:14791   */\n      iszero\n      tag_400\n      jumpi\n        /* \"#utility.yul\":14763:14781   */\n      tag_401\n      tag_233\n      jump\t// in\n    tag_401:\n        /* \"#utility.yul\":14707:14791   */\n    tag_400:\n        /* \"#utility.yul\":14528:14797   */\n      pop\n        /* \"#utility.yul\":14477:14797   */\n      swap2\n      swap1\n      pop\n      jump\t// out\n        /* \"#utility.yul\":14803:14972   */\n    tag_234:\n        /* \"#utility.yul\":14943:14964   */\n      0x4556544f4c206e6f20656e636f6e747261646f00000000000000000000000000\n        /* \"#utility.yul\":14939:14940   */\n      0x00\n        /* \"#utility.yul\":14931:14937   */\n      dup3\n        /* \"#utility.yul\":14927:14941   */\n      add\n        /* \"#utility.yul\":14920:14965   */\n      mstore\n        /* \"#utility.yul\":14803:14972   */\n      pop\n      jump\t// out\n        /* \"#utility.yul\":14978:15344   */\n    tag_235:\n        /* \"#utility.yul\":15120:15123   */\n      0x00\n        /* \"#utility.yul\":15141:15208   */\n      tag_404\n        /* \"#utility.yul\":15205:15207   */\n      0x13\n        /* \"#utility.yul\":15200:15203   */\n      dup4\n        /* \"#utility.yul\":15141:15208   */\n      tag_224\n      jump\t// in\n    tag_404:\n        /* \"#utility.yul\":15134:15208   */\n      swap2\n      pop\n        /* \"#utility.yul\":15217:15310   */\n      tag_405\n        /* \"#utility.yul\":15306:15309   */\n      dup3\n        /* \"#utility.yul\":15217:15310   */\n      tag_234\n      jump\t// in\n    tag_405:\n        /* \"#utility.yul\":15335:15337   */\n      0x20\n        /* \"#utility.yul\":15330:15333   */\n      dup3\n        /* \"#utility.yul\":15326:15338   */\n      add\n        /* \"#utility.yul\":15319:15338   */\n      swap1\n      pop\n        /* \"#utility.yul\":14978:15344   */\n      swap2\n      swap1\n      pop\n      jump\t// out\n        /* \"#utility.yul\":15350:15769   */\n    tag_75:\n        /* \"#utility.yul\":15516:15520   */\n      0x00\n        /* \"#utility.yul\":15554:15556   */\n      0x20\n        /* \"#utility.yul\":15543:15552   */\n      dup3\n        /* \"#utility.yul\":15539:15557   */\n      add\n        /* \"#utility.yul\":15531:15557   */\n      swap1\n      pop\n        /* \"#utility.yul\":15603:15612   */\n      dup2\n        /* \"#utility.yul\":15597:15601   */\n      dup2\n        /* \"#utility.yul\":15593:15613   */\n      sub\n        /* \"#utility.yul\":15589:15590   */\n      0x00\n        /* \"#utility.yul\":15578:15587   */\n      dup4\n        /* \"#utility.yul\":15574:15591   */\n      add\n        /* \"#utility.yul\":15567:15614   */\n      mstore\n        /* \"#utility.yul\":15631:15762   */\n      tag_407\n        /* \"#utility.yul\":15757:15761   */\n      dup2\n        /* \"#utility.yul\":15631:15762   */\n      tag_235\n      jump\t// in\n    tag_407:\n        /* \"#utility.yul\":15623:15762   */\n      swap1\n      pop\n        /* \"#utility.yul\":15350:15769   */\n      swap2\n      swap1\n      pop\n      jump\t// out\n        /* \"#utility.yul\":15775:15948   */\n    tag_236:\n        /* \"#utility.yul\":15915:15940   */\n      0x4556544f4c206e6f206573746120455850454354494e47000000000000000000\n        /* \"#utility.yul\":15911:15912   */\n      0x00\n        /* \"#utility.yul\":15903:15909   */\n      dup3\n        /* \"#utility.yul\":15899:15913   */\n      add\n        /* \"#utility.yul\":15892:15941   */\n      mstore\n        /* \"#utility.yul\":15775:15948   */\n      pop\n      jump\t// out\n        /* \"#utility.yul\":15954:16320   */\n    tag_237:\n        /* \"#utility.yul\":16096:16099   */\n      0x00\n        /* \"#utility.yul\":16117:16184   */\n      tag_410\n        /* \"#utility.yul\":16181:16183   */\n      0x17\n        /* \"#utility.yul\":16176:16179   */\n      dup4\n        /* \"#utility.yul\":16117:16184   */\n      tag_224\n      jump\t// in\n    tag_410:\n        /* \"#utility.yul\":16110:16184   */\n      swap2\n      pop\n        /* \"#utility.yul\":16193:16286   */\n      tag_411\n        /* \"#utility.yul\":16282:16285   */\n      dup3\n        /* \"#utility.yul\":16193:16286   */\n      tag_236\n      jump\t// in\n    tag_411:\n        /* \"#utility.yul\":16311:16313   */\n      0x20\n        /* \"#utility.yul\":16306:16309   */\n      dup3\n        /* \"#utility.yul\":16302:16314   */\n      add\n        /* \"#utility.yul\":16295:16314   */\n      swap1\n      pop\n        /* \"#utility.yul\":15954:16320   */\n      swap2\n      swap1\n      pop\n      jump\t// out\n        /* \"#utility.yul\":16326:16745   */\n    tag_82:\n        /* \"#utility.yul\":16492:16496   */\n      0x00\n        /* \"#utility.yul\":16530:16532   */\n      0x20\n        /* \"#utility.yul\":16519:16528   */\n      dup3\n        /* \"#utility.yul\":16515:16533   */\n      add\n        /* \"#utility.yul\":16507:16533   */\n      swap1\n      pop\n        /* \"#utility.yul\":16579:16588   */\n      dup2\n        /* \"#utility.yul\":16573:16577   */\n      dup2\n        /* \"#utility.yul\":16569:16589   */\n      sub\n        /* \"#utility.yul\":16565:16566   */\n      0x00\n        /* \"#utility.yul\":16554:16563   */\n      dup4\n        /* \"#utility.yul\":16550:16567   */\n      add\n        /* \"#utility.yul\":16543:16590   */\n      mstore\n        /* \"#utility.yul\":16607:16738   */\n      tag_413\n        /* \"#utility.yul\":16733:16737   */\n      dup2\n        /* \"#utility.yul\":16607:16738   */\n      tag_237\n      jump\t// in\n    tag_413:\n        /* \"#utility.yul\":16599:16738   */\n      swap1\n      pop\n        /* \"#utility.yul\":16326:16745   */\n      swap2\n      swap1\n      pop\n      jump\t// out\n        /* \"#utility.yul\":16751:16920   */\n    tag_238:\n        /* \"#utility.yul\":16891:16912   */\n      0x4e6f20686179207669616a652061637469766f00000000000000000000000000\n        /* \"#utility.yul\":16887:16888   */\n      0x00\n        /* \"#utility.yul\":16879:16885   */\n      dup3\n        /* \"#utility.yul\":16875:16889   */\n      add\n        /* \"#utility.yul\":16868:16913   */\n      mstore\n        /* \"#utility.yul\":16751:16920   */\n      pop\n      jump\t// out\n        /* \"#utility.yul\":16926:17292   */\n    tag_239:\n        /* \"#utility.yul\":17068:17071   */\n      0x00\n        /* \"#utility.yul\":17089:17156   */\n      tag_416\n        /* \"#utility.yul\":17153:17155   */\n      0x13\n        /* \"#utility.yul\":17148:17151   */\n      dup4\n        /* \"#utility.yul\":17089:17156   */\n      tag_224\n      jump\t// in\n    tag_416:\n        /* \"#utility.yul\":17082:17156   */\n      swap2\n      pop\n        /* \"#utility.yul\":17165:17258   */\n      tag_417\n        /* \"#utility.yul\":17254:17257   */\n      dup3\n        /* \"#utility.yul\":17165:17258   */\n      tag_238\n      jump\t// in\n    tag_417:\n        /* \"#utility.yul\":17283:17285   */\n      0x20\n        /* \"#utility.yul\":17278:17281   */\n      dup3\n        /* \"#utility.yul\":17274:17286   */\n      add\n        /* \"#utility.yul\":17267:17286   */\n      swap1\n      pop\n        /* \"#utility.yul\":16926:17292   */\n      swap2\n      swap1\n      pop\n      jump\t// out\n        /* \"#utility.yul\":17298:17717   */\n    tag_86:\n        /* \"#utility.yul\":17464:17468   */\n      0x00\n        /* \"#utility.yul\":17502:17504   */\n      0x20\n        /* \"#utility.yul\":17491:17500   */\n      dup3\n        /* \"#utility.yul\":17487:17505   */\n      add\n        /* \"#utility.yul\":17479:17505   */\n      swap1\n      pop\n        /* \"#utility.yul\":17551:17560   */\n      dup2\n        /* \"#utility.yul\":17545:17549   */\n      dup2\n        /* \"#utility.yul\":17541:17561   */\n      sub\n        /* \"#utility.yul\":17537:17538   */\n      0x00\n        /* \"#utility.yul\":17526:17535   */\n      dup4\n        /* \"#utility.yul\":17522:17539   */\n      add\n        /* \"#utility.yul\":17515:17562   */\n      mstore\n        /* \"#utility.yul\":17579:17710   */\n      tag_419\n        /* \"#utility.yul\":17705:17709   */\n      dup2\n        /* \"#utility.yul\":17579:17710   */\n      tag_239\n      jump\t// in\n    tag_419:\n        /* \"#utility.yul\":17571:17710   */\n      swap1\n      pop\n        /* \"#utility.yul\":17298:17717   */\n      swap2\n      swap1\n      pop\n      jump\t// out\n        /* \"#utility.yul\":17723:17864   */\n    tag_240:\n        /* \"#utility.yul\":17772:17776   */\n      0x00\n        /* \"#utility.yul\":17795:17798   */\n      dup2\n        /* \"#utility.yul\":17787:17798   */\n      swap1\n      pop\n        /* \"#utility.yul\":17818:17821   */\n      dup2\n        /* \"#utility.yul\":17815:17816   */\n      0x00\n        /* \"#utility.yul\":17808:17822   */\n      mstore\n        /* \"#utility.yul\":17852:17856   */\n      0x20\n        /* \"#utility.yul\":17849:17850   */\n      0x00\n        /* \"#utility.yul\":17839:17857   */\n      keccak256\n        /* \"#utility.yul\":17831:17857   */\n      swap1\n      pop\n        /* \"#utility.yul\":17723:17864   */\n      swap2\n      swap1\n      pop\n      jump\t// out\n        /* \"#utility.yul\":17894:18696   */\n    tag_241:\n        /* \"#utility.yul\":17979:17982   */\n      0x00\n        /* \"#utility.yul\":18016:18021   */\n      dup2\n        /* \"#utility.yul\":18010:18022   */\n      sload\n        /* \"#utility.yul\":18045:18081   */\n      tag_422\n        /* \"#utility.yul\":18071:18080   */\n      dup2\n        /* \"#utility.yul\":18045:18081   */\n      tag_70\n      jump\t// in\n    tag_422:\n        /* \"#utility.yul\":18097:18168   */\n      tag_423\n        /* \"#utility.yul\":18161:18167   */\n      dup2\n        /* \"#utility.yul\":18156:18159   */\n      dup7\n        /* \"#utility.yul\":18097:18168   */\n      tag_224\n      jump\t// in\n    tag_423:\n        /* \"#utility.yul\":18090:18168   */\n      swap5\n      pop\n        /* \"#utility.yul\":18199:18200   */\n      0x01\n        /* \"#utility.yul\":18188:18197   */\n      dup3\n        /* \"#utility.yul\":18184:18201   */\n      and\n        /* \"#utility.yul\":18215:18216   */\n      0x00\n        /* \"#utility.yul\":18210:18345   */\n      dup2\n      eq\n      tag_425\n      jumpi\n        /* \"#utility.yul\":18359:18360   */\n      0x01\n        /* \"#utility.yul\":18354:18690   */\n      dup2\n      eq\n      tag_426\n      jumpi\n        /* \"#utility.yul\":18177:18690   */\n      jump(tag_424)\n        /* \"#utility.yul\":18210:18345   */\n    tag_425:\n        /* \"#utility.yul\":18294:18298   */\n      0xff\n        /* \"#utility.yul\":18290:18299   */\n      not\n        /* \"#utility.yul\":18279:18288   */\n      dup4\n        /* \"#utility.yul\":18275:18300   */\n      and\n        /* \"#utility.yul\":18270:18273   */\n      dup7\n        /* \"#utility.yul\":18263:18301   */\n      mstore\n        /* \"#utility.yul\":18330:18334   */\n      0x20\n        /* \"#utility.yul\":18325:18328   */\n      dup7\n        /* \"#utility.yul\":18321:18335   */\n      add\n        /* \"#utility.yul\":18314:18335   */\n      swap4\n      pop\n        /* \"#utility.yul\":18210:18345   */\n      jump(tag_424)\n        /* \"#utility.yul\":18354:18690   */\n    tag_426:\n        /* \"#utility.yul\":18421:18459   */\n      tag_427\n        /* \"#utility.yul\":18453:18458   */\n      dup6\n        /* \"#utility.yul\":18421:18459   */\n      tag_240\n      jump\t// in\n    tag_427:\n        /* \"#utility.yul\":18481:18482   */\n      0x00\n        /* \"#utility.yul\":18495:18649   */\n    tag_428:\n        /* \"#utility.yul\":18509:18515   */\n      dup4\n        /* \"#utility.yul\":18506:18507   */\n      dup2\n        /* \"#utility.yul\":18503:18516   */\n      lt\n        /* \"#utility.yul\":18495:18649   */\n      iszero\n      tag_430\n      jumpi\n        /* \"#utility.yul\":18583:18590   */\n      dup2\n        /* \"#utility.yul\":18577:18591   */\n      sload\n        /* \"#utility.yul\":18573:18574   */\n      dup2\n        /* \"#utility.yul\":18568:18571   */\n      dup10\n        /* \"#utility.yul\":18564:18575   */\n      add\n        /* \"#utility.yul\":18557:18592   */\n      mstore\n        /* \"#utility.yul\":18633:18634   */\n      0x01\n        /* \"#utility.yul\":18624:18631   */\n      dup3\n        /* \"#utility.yul\":18620:18635   */\n      add\n        /* \"#utility.yul\":18609:18635   */\n      swap2\n      pop\n        /* \"#utility.yul\":18531:18535   */\n      0x20\n        /* \"#utility.yul\":18528:18529   */\n      dup2\n        /* \"#utility.yul\":18524:18536   */\n      add\n        /* \"#utility.yul\":18519:18536   */\n      swap1\n      pop\n        /* \"#utility.yul\":18495:18649   */\n      jump(tag_428)\n    tag_430:\n        /* \"#utility.yul\":18678:18679   */\n      dup1\n        /* \"#utility.yul\":18673:18676   */\n      dup9\n        /* \"#utility.yul\":18669:18680   */\n      add\n        /* \"#utility.yul\":18662:18680   */\n      swap6\n      pop\n        /* \"#utility.yul\":18361:18690   */\n      pop\n      pop\n        /* \"#utility.yul\":18177:18690   */\n    tag_424:\n      pop\n        /* \"#utility.yul\":17983:18696   */\n      pop\n      pop\n        /* \"#utility.yul\":17894:18696   */\n      swap3\n      swap2\n      pop\n      pop\n      jump\t// out\n        /* \"#utility.yul\":18702:19465   */\n    tag_90:\n        /* \"#utility.yul\":18933:18937   */\n      0x00\n        /* \"#utility.yul\":18971:18974   */\n      0x80\n        /* \"#utility.yul\":18960:18969   */\n      dup3\n        /* \"#utility.yul\":18956:18975   */\n      add\n        /* \"#utility.yul\":18948:18975   */\n      swap1\n      pop\n        /* \"#utility.yul\":18985:19066   */\n      tag_432\n        /* \"#utility.yul\":19063:19064   */\n      0x00\n        /* \"#utility.yul\":19052:19061   */\n      dup4\n        /* \"#utility.yul\":19048:19065   */\n      add\n        /* \"#utility.yul\":19039:19045   */\n      dup8\n        /* \"#utility.yul\":18985:19066   */\n      tag_230\n      jump\t// in\n    tag_432:\n        /* \"#utility.yul\":19076:19158   */\n      tag_433\n        /* \"#utility.yul\":19154:19156   */\n      0x20\n        /* \"#utility.yul\":19143:19152   */\n      dup4\n        /* \"#utility.yul\":19139:19157   */\n      add\n        /* \"#utility.yul\":19130:19136   */\n      dup7\n        /* \"#utility.yul\":19076:19158   */\n      tag_230\n      jump\t// in\n    tag_433:\n        /* \"#utility.yul\":19205:19214   */\n      dup2\n        /* \"#utility.yul\":19199:19203   */\n      dup2\n        /* \"#utility.yul\":19195:19215   */\n      sub\n        /* \"#utility.yul\":19190:19192   */\n      0x40\n        /* \"#utility.yul\":19179:19188   */\n      dup4\n        /* \"#utility.yul\":19175:19193   */\n      add\n        /* \"#utility.yul\":19168:19216   */\n      mstore\n        /* \"#utility.yul\":19233:19308   */\n      tag_434\n        /* \"#utility.yul\":19303:19307   */\n      dup2\n        /* \"#utility.yul\":19294:19300   */\n      dup6\n        /* \"#utility.yul\":19233:19308   */\n      tag_241\n      jump\t// in\n    tag_434:\n        /* \"#utility.yul\":19225:19308   */\n      swap1\n      pop\n        /* \"#utility.yul\":19355:19364   */\n      dup2\n        /* \"#utility.yul\":19349:19353   */\n      dup2\n        /* \"#utility.yul\":19345:19365   */\n      sub\n        /* \"#utility.yul\":19340:19342   */\n      0x60\n        /* \"#utility.yul\":19329:19338   */\n      dup4\n        /* \"#utility.yul\":19325:19343   */\n      add\n        /* \"#utility.yul\":19318:19366   */\n      mstore\n        /* \"#utility.yul\":19383:19458   */\n      tag_435\n        /* \"#utility.yul\":19453:19457   */\n      dup2\n        /* \"#utility.yul\":19444:19450   */\n      dup5\n        /* \"#utility.yul\":19383:19458   */\n      tag_241\n      jump\t// in\n    tag_435:\n        /* \"#utility.yul\":19375:19458   */\n      swap1\n      pop\n        /* \"#utility.yul\":18702:19465   */\n      swap6\n      swap5\n      pop\n      pop\n      pop\n      pop\n      pop\n      jump\t// out\n        /* \"#utility.yul\":19471:19641   */\n    tag_242:\n        /* \"#utility.yul\":19611:19633   */\n      0x4556544f4c206e6f2065737461205041524b4544000000000000000000000000\n        /* \"#utility.yul\":19607:19608   */\n      0x00\n        /* \"#utility.yul\":19599:19605   */\n      dup3\n        /* \"#utility.yul\":19595:19609   */\n      add\n        /* \"#utility.yul\":19588:19634   */\n      mstore\n        /* \"#utility.yul\":19471:19641   */\n      pop\n      jump\t// out\n        /* \"#utility.yul\":19647:20013   */\n    tag_243:\n        /* \"#utility.yul\":19789:19792   */\n      0x00\n        /* \"#utility.yul\":19810:19877   */\n      tag_438\n        /* \"#utility.yul\":19874:19876   */\n      0x14\n        /* \"#utility.yul\":19869:19872   */\n      dup4\n        /* \"#utility.yul\":19810:19877   */\n      tag_224\n      jump\t// in\n    tag_438:\n        /* \"#utility.yul\":19803:19877   */\n      swap2\n      pop\n        /* \"#utility.yul\":19886:19979   */\n      tag_439\n        /* \"#utility.yul\":19975:19978   */\n      dup3\n        /* \"#utility.yul\":19886:19979   */\n      tag_242\n      jump\t// in\n    tag_439:\n        /* \"#utility.yul\":20004:20006   */\n      0x20\n        /* \"#utility.yul\":19999:20002   */\n      dup3\n        /* \"#utility.yul\":19995:20007   */\n      add\n        /* \"#utility.yul\":19988:20007   */\n      swap1\n      pop\n        /* \"#utility.yul\":19647:20013   */\n      swap2\n      swap1\n      pop\n      jump\t// out\n        /* \"#utility.yul\":20019:20438   */\n    tag_100:\n        /* \"#utility.yul\":20185:20189   */\n      0x00\n        /* \"#utility.yul\":20223:20225   */\n      0x20\n        /* \"#utility.yul\":20212:20221   */\n      dup3\n        /* \"#utility.yul\":20208:20226   */\n      add\n        /* \"#utility.yul\":20200:20226   */\n      swap1\n      pop\n        /* \"#utility.yul\":20272:20281   */\n      dup2\n        /* \"#utility.yul\":20266:20270   */\n      dup2\n        /* \"#utility.yul\":20262:20282   */\n      sub\n        /* \"#utility.yul\":20258:20259   */\n      0x00\n        /* \"#utility.yul\":20247:20256   */\n      dup4\n        /* \"#utility.yul\":20243:20260   */\n      add\n        /* \"#utility.yul\":20236:20283   */\n      mstore\n        /* \"#utility.yul\":20300:20431   */\n      tag_441\n        /* \"#utility.yul\":20426:20430   */\n      dup2\n        /* \"#utility.yul\":20300:20431   */\n      tag_243\n      jump\t// in\n    tag_441:\n        /* \"#utility.yul\":20292:20431   */\n      swap1\n      pop\n        /* \"#utility.yul\":20019:20438   */\n      swap2\n      swap1\n      pop\n      jump\t// out\n        /* \"#utility.yul\":20444:20615   */\n    tag_244:\n        /* \"#utility.yul\":20584:20607   */\n      0x5961207469656e65207669616a652061637469766f0000000000000000000000\n        /* \"#utility.yul\":20580:20581   */\n      0x00\n        /* \"#utility.yul\":20572:20578   */\n      dup3\n        /* \"#utility.yul\":20568:20582   */\n      add\n        /* \"#utility.yul\":20561:20608   */\n      mstore\n        /* \"#utility.yul\":20444:20615   */\n      pop\n      jump\t// out\n        /* \"#utility.yul\":20621:20987   */\n    tag_245:\n        /* \"#utility.yul\":20763:20766   */\n      0x00\n        /* \"#utility.yul\":20784:20851   */\n      tag_444\n        /* \"#utility.yul\":20848:20850   */\n      0x15\n        /* \"#utility.yul\":20843:20846   */\n      dup4\n        /* \"#utility.yul\":20784:20851   */\n      tag_224\n      jump\t// in\n    tag_444:\n        /* \"#utility.yul\":20777:20851   */\n      swap2\n      pop\n        /* \"#utility.yul\":20860:20953   */\n      tag_445\n        /* \"#utility.yul\":20949:20952   */\n      dup3\n        /* \"#utility.yul\":20860:20953   */\n      tag_244\n      jump\t// in\n    tag_445:\n        /* \"#utility.yul\":20978:20980   */\n      0x20\n        /* \"#utility.yul\":20973:20976   */\n      dup3\n        /* \"#utility.yul\":20969:20981   */\n      add\n        /* \"#utility.yul\":20962:20981   */\n      swap1\n      pop\n        /* \"#utility.yul\":20621:20987   */\n      swap2\n      swap1\n      pop\n      jump\t// out\n        /* \"#utility.yul\":20993:21412   */\n    tag_104:\n        /* \"#utility.yul\":21159:21163   */\n      0x00\n        /* \"#utility.yul\":21197:21199   */\n      0x20\n        /* \"#utility.yul\":21186:21195   */\n      dup3\n        /* \"#utility.yul\":21182:21200   */\n      add\n        /* \"#utility.yul\":21174:21200   */\n      swap1\n      pop\n        /* \"#utility.yul\":21246:21255   */\n      dup2\n        /* \"#utility.yul\":21240:21244   */\n      dup2\n        /* \"#utility.yul\":21236:21256   */\n      sub\n        /* \"#utility.yul\":21232:21233   */\n      0x00\n        /* \"#utility.yul\":21221:21230   */\n      dup4\n        /* \"#utility.yul\":21217:21234   */\n      add\n        /* \"#utility.yul\":21210:21257   */\n      mstore\n        /* \"#utility.yul\":21274:21405   */\n      tag_447\n        /* \"#utility.yul\":21400:21404   */\n      dup2\n        /* \"#utility.yul\":21274:21405   */\n      tag_245\n      jump\t// in\n    tag_447:\n        /* \"#utility.yul\":21266:21405   */\n      swap1\n      pop\n        /* \"#utility.yul\":20993:21412   */\n      swap2\n      swap1\n      pop\n      jump\t// out\n        /* \"#utility.yul\":21418:21580   */\n    tag_246:\n        /* \"#utility.yul\":21558:21572   */\n      0x74726970496420766163696f0000000000000000000000000000000000000000\n        /* \"#utility.yul\":21554:21555   */\n      0x00\n        /* \"#utility.yul\":21546:21552   */\n      dup3\n        /* \"#utility.yul\":21542:21556   */\n      add\n        /* \"#utility.yul\":21535:21573   */\n      mstore\n        /* \"#utility.yul\":21418:21580   */\n      pop\n      jump\t// out\n        /* \"#utility.yul\":21586:21952   */\n    tag_247:\n        /* \"#utility.yul\":21728:21731   */\n      0x00\n        /* \"#utility.yul\":21749:21816   */\n      tag_450\n        /* \"#utility.yul\":21813:21815   */\n      0x0c\n        /* \"#utility.yul\":21808:21811   */\n      dup4\n        /* \"#utility.yul\":21749:21816   */\n      tag_224\n      jump\t// in\n    tag_450:\n        /* \"#utility.yul\":21742:21816   */\n      swap2\n      pop\n        /* \"#utility.yul\":21825:21918   */\n      tag_451\n        /* \"#utility.yul\":21914:21917   */\n      dup3\n        /* \"#utility.yul\":21825:21918   */\n      tag_246\n      jump\t// in\n    tag_451:\n        /* \"#utility.yul\":21943:21945   */\n      0x20\n        /* \"#utility.yul\":21938:21941   */\n      dup3\n        /* \"#utility.yul\":21934:21946   */\n      add\n        /* \"#utility.yul\":21927:21946   */\n      swap1\n      pop\n        /* \"#utility.yul\":21586:21952   */\n      swap2\n      swap1\n      pop\n      jump\t// out\n        /* \"#utility.yul\":21958:22377   */\n    tag_107:\n        /* \"#utility.yul\":22124:22128   */\n      0x00\n        /* \"#utility.yul\":22162:22164   */\n      0x20\n        /* \"#utility.yul\":22151:22160   */\n      dup3\n        /* \"#utility.yul\":22147:22165   */\n      add\n        /* \"#utility.yul\":22139:22165   */\n      swap1\n      pop\n        /* \"#utility.yul\":22211:22220   */\n      dup2\n        /* \"#utility.yul\":22205:22209   */\n      dup2\n        /* \"#utility.yul\":22201:22221   */\n      sub\n        /* \"#utility.yul\":22197:22198   */\n      0x00\n        /* \"#utility.yul\":22186:22195   */\n      dup4\n        /* \"#utility.yul\":22182:22199   */\n      add\n        /* \"#utility.yul\":22175:22222   */\n      mstore\n        /* \"#utility.yul\":22239:22370   */\n      tag_453\n        /* \"#utility.yul\":22365:22369   */\n      dup2\n        /* \"#utility.yul\":22239:22370   */\n      tag_247\n      jump\t// in\n    tag_453:\n        /* \"#utility.yul\":22231:22370   */\n      swap1\n      pop\n        /* \"#utility.yul\":21958:22377   */\n      swap2\n      swap1\n      pop\n      jump\t// out\n        /* \"#utility.yul\":22383:22553   */\n    tag_248:\n        /* \"#utility.yul\":22523:22545   */\n      0x4556544f4c206e6f206573746120494e5f555345000000000000000000000000\n        /* \"#utility.yul\":22519:22520   */\n      0x00\n        /* \"#utility.yul\":22511:22517   */\n      dup3\n        /* \"#utility.yul\":22507:22521   */\n      add\n        /* \"#utility.yul\":22500:22546   */\n      mstore\n        /* \"#utility.yul\":22383:22553   */\n      pop\n      jump\t// out\n        /* \"#utility.yul\":22559:22925   */\n    tag_249:\n        /* \"#utility.yul\":22701:22704   */\n      0x00\n        /* \"#utility.yul\":22722:22789   */\n      tag_456\n        /* \"#utility.yul\":22786:22788   */\n      0x14\n        /* \"#utility.yul\":22781:22784   */\n      dup4\n        /* \"#utility.yul\":22722:22789   */\n      tag_224\n      jump\t// in\n    tag_456:\n        /* \"#utility.yul\":22715:22789   */\n      swap2\n      pop\n        /* \"#utility.yul\":22798:22891   */\n      tag_457\n        /* \"#utility.yul\":22887:22890   */\n      dup3\n        /* \"#utility.yul\":22798:22891   */\n      tag_248\n      jump\t// in\n    tag_457:\n        /* \"#utility.yul\":22916:22918   */\n      0x20\n        /* \"#utility.yul\":22911:22914   */\n      dup3\n        /* \"#utility.yul\":22907:22919   */\n      add\n        /* \"#utility.yul\":22900:22919   */\n      swap1\n      pop\n        /* \"#utility.yul\":22559:22925   */\n      swap2\n      swap1\n      pop\n      jump\t// out\n        /* \"#utility.yul\":22931:23350   */\n    tag_121:\n        /* \"#utility.yul\":23097:23101   */\n      0x00\n        /* \"#utility.yul\":23135:23137   */\n      0x20\n        /* \"#utility.yul\":23124:23133   */\n      dup3\n        /* \"#utility.yul\":23120:23138   */\n      add\n        /* \"#utility.yul\":23112:23138   */\n      swap1\n      pop\n        /* \"#utility.yul\":23184:23193   */\n      dup2\n        /* \"#utility.yul\":23178:23182   */\n      dup2\n        /* \"#utility.yul\":23174:23194   */\n      sub\n        /* \"#utility.yul\":23170:23171   */\n      0x00\n        /* \"#utility.yul\":23159:23168   */\n      dup4\n        /* \"#utility.yul\":23155:23172   */\n      add\n        /* \"#utility.yul\":23148:23195   */\n      mstore\n        /* \"#utility.yul\":23212:23343   */\n      tag_459\n        /* \"#utility.yul\":23338:23342   */\n      dup2\n        /* \"#utility.yul\":23212:23343   */\n      tag_249\n      jump\t// in\n    tag_459:\n        /* \"#utility.yul\":23204:23343   */\n      swap1\n      pop\n        /* \"#utility.yul\":22931:23350   */\n      swap2\n      swap1\n      pop\n      jump\t// out\n        /* \"#utility.yul\":23356:23534   */\n    tag_250:\n        /* \"#utility.yul\":23496:23526   */\n      0x4556544f4c206e6f206573746120656e204d41494e54454e414e434500000000\n        /* \"#utility.yul\":23492:23493   */\n      0x00\n        /* \"#utility.yul\":23484:23490   */\n      dup3\n        /* \"#utility.yul\":23480:23494   */\n      add\n        /* \"#utility.yul\":23473:23527   */\n      mstore\n        /* \"#utility.yul\":23356:23534   */\n      pop\n      jump\t// out\n        /* \"#utility.yul\":23540:23906   */\n    tag_251:\n        /* \"#utility.yul\":23682:23685   */\n      0x00\n        /* \"#utility.yul\":23703:23770   */\n      tag_462\n        /* \"#utility.yul\":23767:23769   */\n      0x1c\n        /* \"#utility.yul\":23762:23765   */\n      dup4\n        /* \"#utility.yul\":23703:23770   */\n      tag_224\n      jump\t// in\n    tag_462:\n        /* \"#utility.yul\":23696:23770   */\n      swap2\n      pop\n        /* \"#utility.yul\":23779:23872   */\n      tag_463\n        /* \"#utility.yul\":23868:23871   */\n      dup3\n        /* \"#utility.yul\":23779:23872   */\n      tag_250\n      jump\t// in\n    tag_463:\n        /* \"#utility.yul\":23897:23899   */\n      0x20\n        /* \"#utility.yul\":23892:23895   */\n      dup3\n        /* \"#utility.yul\":23888:23900   */\n      add\n        /* \"#utility.yul\":23881:23900   */\n      swap1\n      pop\n        /* \"#utility.yul\":23540:23906   */\n      swap2\n      swap1\n      pop\n      jump\t// out\n        /* \"#utility.yul\":23912:24331   */\n    tag_158:\n        /* \"#utility.yul\":24078:24082   */\n      0x00\n        /* \"#utility.yul\":24116:24118   */\n      0x20\n        /* \"#utility.yul\":24105:24114   */\n      dup3\n        /* \"#utility.yul\":24101:24119   */\n      add\n        /* \"#utility.yul\":24093:24119   */\n      swap1\n      pop\n        /* \"#utility.yul\":24165:24174   */\n      dup2\n        /* \"#utility.yul\":24159:24163   */\n      dup2\n        /* \"#utility.yul\":24155:24175   */\n      sub\n        /* \"#utility.yul\":24151:24152   */\n      0x00\n        /* \"#utility.yul\":24140:24149   */\n      dup4\n        /* \"#utility.yul\":24136:24153   */\n      add\n        /* \"#utility.yul\":24129:24176   */\n      mstore\n        /* \"#utility.yul\":24193:24324   */\n      tag_465\n        /* \"#utility.yul\":24319:24323   */\n      dup2\n        /* \"#utility.yul\":24193:24324   */\n      tag_251\n      jump\t// in\n    tag_465:\n        /* \"#utility.yul\":24185:24324   */\n      swap1\n      pop\n        /* \"#utility.yul\":23912:24331   */\n      swap2\n      swap1\n      pop\n      jump\t// out\n        /* \"#utility.yul\":24337:24558   */\n    tag_252:\n        /* \"#utility.yul\":24477:24511   */\n      0x536f6c6f205041524b45442070756564652069722061204d41494e54454e414e\n        /* \"#utility.yul\":24473:24474   */\n      0x00\n        /* \"#utility.yul\":24465:24471   */\n      dup3\n        /* \"#utility.yul\":24461:24475   */\n      add\n        /* \"#utility.yul\":24454:24512   */\n      mstore\n        /* \"#utility.yul\":24546:24550   */\n      0x4345000000000000000000000000000000000000000000000000000000000000\n        /* \"#utility.yul\":24541:24543   */\n      0x20\n        /* \"#utility.yul\":24533:24539   */\n      dup3\n        /* \"#utility.yul\":24529:24544   */\n      add\n        /* \"#utility.yul\":24522:24551   */\n      mstore\n        /* \"#utility.yul\":24337:24558   */\n      pop\n      jump\t// out\n        /* \"#utility.yul\":24564:24930   */\n    tag_253:\n        /* \"#utility.yul\":24706:24709   */\n      0x00\n        /* \"#utility.yul\":24727:24794   */\n      tag_468\n        /* \"#utility.yul\":24791:24793   */\n      0x22\n        /* \"#utility.yul\":24786:24789   */\n      dup4\n        /* \"#utility.yul\":24727:24794   */\n      tag_224\n      jump\t// in\n    tag_468:\n        /* \"#utility.yul\":24720:24794   */\n      swap2\n      pop\n        /* \"#utility.yul\":24803:24896   */\n      tag_469\n        /* \"#utility.yul\":24892:24895   */\n      dup3\n        /* \"#utility.yul\":24803:24896   */\n      tag_252\n      jump\t// in\n    tag_469:\n        /* \"#utility.yul\":24921:24923   */\n      0x40\n        /* \"#utility.yul\":24916:24919   */\n      dup3\n        /* \"#utility.yul\":24912:24924   */\n      add\n        /* \"#utility.yul\":24905:24924   */\n      swap1\n      pop\n        /* \"#utility.yul\":24564:24930   */\n      swap2\n      swap1\n      pop\n      jump\t// out\n        /* \"#utility.yul\":24936:25355   */\n    tag_171:\n        /* \"#utility.yul\":25102:25106   */\n      0x00\n        /* \"#utility.yul\":25140:25142   */\n      0x20\n        /* \"#utility.yul\":25129:25138   */\n      dup3\n        /* \"#utility.yul\":25125:25143   */\n      add\n        /* \"#utility.yul\":25117:25143   */\n      swap1\n      pop\n        /* \"#utility.yul\":25189:25198   */\n      dup2\n        /* \"#utility.yul\":25183:25187   */\n      dup2\n        /* \"#utility.yul\":25179:25199   */\n      sub\n        /* \"#utility.yul\":25175:25176   */\n      0x00\n        /* \"#utility.yul\":25164:25173   */\n      dup4\n        /* \"#utility.yul\":25160:25177   */\n      add\n        /* \"#utility.yul\":25153:25200   */\n      mstore\n        /* \"#utility.yul\":25217:25348   */\n      tag_471\n        /* \"#utility.yul\":25343:25347   */\n      dup2\n        /* \"#utility.yul\":25217:25348   */\n      tag_253\n      jump\t// in\n    tag_471:\n        /* \"#utility.yul\":25209:25348   */\n      swap1\n      pop\n        /* \"#utility.yul\":24936:25355   */\n      swap2\n      swap1\n      pop\n      jump\t// out\n        /* \"#utility.yul\":25361:25537   */\n    tag_254:\n        /* \"#utility.yul\":25501:25529   */\n      0x4e6f20646562652074656e6572207669616a652061637469766f000000000000\n        /* \"#utility.yul\":25497:25498   */\n      0x00\n        /* \"#utility.yul\":25489:25495   */\n      dup3\n        /* \"#utility.yul\":25485:25499   */\n      add\n        /* \"#utility.yul\":25478:25530   */\n      mstore\n        /* \"#utility.yul\":25361:25537   */\n      pop\n      jump\t// out\n        /* \"#utility.yul\":25543:25909   */\n    tag_255:\n        /* \"#utility.yul\":25685:25688   */\n      0x00\n        /* \"#utility.yul\":25706:25773   */\n      tag_474\n        /* \"#utility.yul\":25770:25772   */\n      0x1a\n        /* \"#utility.yul\":25765:25768   */\n      dup4\n        /* \"#utility.yul\":25706:25773   */\n      tag_224\n      jump\t// in\n    tag_474:\n        /* \"#utility.yul\":25699:25773   */\n      swap2\n      pop\n        /* \"#utility.yul\":25782:25875   */\n      tag_475\n        /* \"#utility.yul\":25871:25874   */\n      dup3\n        /* \"#utility.yul\":25782:25875   */\n      tag_254\n      jump\t// in\n    tag_475:\n        /* \"#utility.yul\":25900:25902   */\n      0x20\n        /* \"#utility.yul\":25895:25898   */\n      dup3\n        /* \"#utility.yul\":25891:25903   */\n      add\n        /* \"#utility.yul\":25884:25903   */\n      swap1\n      pop\n        /* \"#utility.yul\":25543:25909   */\n      swap2\n      swap1\n      pop\n      jump\t// out\n        /* \"#utility.yul\":25915:26334   */\n    tag_175:\n        /* \"#utility.yul\":26081:26085   */\n      0x00\n        /* \"#utility.yul\":26119:26121   */\n      0x20\n        /* \"#utility.yul\":26108:26117   */\n      dup3\n        /* \"#utility.yul\":26104:26122   */\n      add\n        /* \"#utility.yul\":26096:26122   */\n      swap1\n      pop\n        /* \"#utility.yul\":26168:26177   */\n      dup2\n        /* \"#utility.yul\":26162:26166   */\n      dup2\n        /* \"#utility.yul\":26158:26178   */\n      sub\n        /* \"#utility.yul\":26154:26155   */\n      0x00\n        /* \"#utility.yul\":26143:26152   */\n      dup4\n        /* \"#utility.yul\":26139:26156   */\n      add\n        /* \"#utility.yul\":26132:26179   */\n      mstore\n        /* \"#utility.yul\":26196:26327   */\n      tag_477\n        /* \"#utility.yul\":26322:26326   */\n      dup2\n        /* \"#utility.yul\":26196:26327   */\n      tag_255\n      jump\t// in\n    tag_477:\n        /* \"#utility.yul\":26188:26327   */\n      swap1\n      pop\n        /* \"#utility.yul\":25915:26334   */\n      swap2\n      swap1\n      pop\n      jump\t// out\n\n    auxdata: 0xa264697066735822122016397dc8d8fd3f8ae3ae905fb76901586b7805c522dce050a6e9f9d76613b81564736f6c634300080a0033\n}\n",
    "bytecode": {
      "linkReferences": {},
      "object": "608060405234801561001057600080fd5b50611d9e806100206000396000f3fe608060405234801561001057600080fd5b50600436106100885760003560e01c80639283e0471161005b5780639283e047146101115780639af81ece1461012d578063a6341cbc1461015d578063b72dbe9f1461017957610088565b80631e9b739c1461008d5780633a178d99146100a95780633dde315e146100d9578063864980de146100f5575b600080fd5b6100a760048036038101906100a291906112f1565b610195565b005b6100c360048036038101906100be919061137c565b6103d1565b6040516100d091906113c4565b60405180910390f35b6100f360048036038101906100ee919061137c565b61047c565b005b61010f600480360381019061010a91906113df565b61064b565b005b61012b600480360381019061012691906113df565b610878565b005b6101476004803603810190610142919061137c565b610a89565b60405161015491906115d5565b60405180910390f35b6101776004803603810190610172919061137c565b610c83565b005b610193600480360381019061018e919061137c565b610dfe565b005b60008084815260200190815260200160002060040160009054906101000a900460ff16156101f8576040517f08c379a00000000000000000000000000000000000000000000000000000000081526004016101ef90611654565b60405180910390fd5b61026d816040518060400160405280600b81526020017f4576746f6c5f43726564650000000000000000000000000000000000000000008152506040518060400160405280600381526020017f332e300000000000000000000000000000000000000000000000000000000000815250610fcd565b6102ac576040517f08c379a00000000000000000000000000000000000000000000000000000000081526004016102a3906116c0565b60405180910390fd5b6000806000858152602001908152602001600020905083816000018190555060008160010160006101000a81548160ff021916908360038111156102f3576102f261144a565b5b021790555082816002019080519060200190610310929190610fda565b5060405180602001604052806000815250816003019080519060200190610338929190610fda565b5060018160040160006101000a81548160ff021916908315150217905550837f2ea0fee87cb50dca037d00e075e41b58b34237c5b3d7d07f2e050e287432eb04846040516103869190611719565b60405180910390a2837fdad44df2dcb3bce38ba2cab07296adccf00f73e782eecb1e5fab123abb1e3d49600080866040516103c393929190611770565b60405180910390a250505050565b60008060008084815260200190815260200160002090508060040160009054906101000a900460ff16610408576000915050610477565b6000600381111561041c5761041b61144a565b5b8160010160009054906101000a900460ff1660038111156104405761043f61144a565b5b1461044f576000915050610477565b6000816003018054610460906117f0565b905014610471576000915050610477565b60019150505b919050565b600080600083815260200190815260200160002090508060040160009054906101000a900460ff166104e3576040517f08c379a00000000000000000000000000000000000000000000000000000000081526004016104da9061186e565b60405180910390fd5b600160038111156104f7576104f661144a565b5b8160010160009054906101000a900460ff16600381111561051b5761051a61144a565b5b1461055b576040517f08c379a0000000000000000000000000000000000000000000000000000000008152600401610552906118da565b60405180910390fd5b600081600301805461056c906117f0565b9050116105ae576040517f08c379a00000000000000000000000000000000000000000000000000000000081526004016105a590611946565b60405180910390fd5b60008160010160009054906101000a900460ff16905060028260010160006101000a81548160ff021916908360038111156105ec576105eb61144a565b5b0217905550827fdad44df2dcb3bce38ba2cab07296adccf00f73e782eecb1e5fab123abb1e3d49828460010160009054906101000a900460ff16856002018660030160405161063e94939291906119fb565b60405180910390a2505050565b600080600084815260200190815260200160002090508060040160009054906101000a900460ff166106b2576040517f08c379a00000000000000000000000000000000000000000000000000000000081526004016106a99061186e565b60405180910390fd5b600060038111156106c6576106c561144a565b5b8160010160009054906101000a900460ff1660038111156106ea576106e961144a565b5b1461072a576040517f08c379a000000000000000000000000000000000000000000000000000000000815260040161072190611a9a565b60405180910390fd5b600081600301805461073b906117f0565b90501461077d576040517f08c379a000000000000000000000000000000000000000000000000000000000815260040161077490611b06565b60405180910390fd5b60008251116107c1576040517f08c379a00000000000000000000000000000000000000000000000000000000081526004016107b890611b72565b60405180910390fd5b60008160010160009054906101000a900460ff16905060018260010160006101000a81548160ff021916908360038111156107ff576107fe61144a565b5b02179055508282600301908051906020019061081c929190610fda565b50837fdad44df2dcb3bce38ba2cab07296adccf00f73e782eecb1e5fab123abb1e3d49828460010160009054906101000a900460ff16856002018660030160405161086a94939291906119fb565b60405180910390a250505050565b600080600084815260200190815260200160002090508060040160009054906101000a900460ff166108df576040517f08c379a00000000000000000000000000000000000000000000000000000000081526004016108d69061186e565b60405180910390fd5b600260038111156108f3576108f261144a565b5b8160010160009054906101000a900460ff1660038111156109175761091661144a565b5b14610957576040517f08c379a000000000000000000000000000000000000000000000000000000000815260040161094e90611bde565b60405180910390fd5b6000816003018054610968906117f0565b9050116109aa576040517f08c379a00000000000000000000000000000000000000000000000000000000081526004016109a190611946565b60405180910390fd5b60008160010160009054906101000a900460ff16905060008260010160006101000a81548160ff021916908360038111156109e8576109e761144a565b5b021790555082826002019080519060200190610a05929190610fda565b5060405180602001604052806000815250826003019080519060200190610a2d929190610fda565b50837fdad44df2dcb3bce38ba2cab07296adccf00f73e782eecb1e5fab123abb1e3d49828460010160009054906101000a900460ff168560020186600301604051610a7b94939291906119fb565b60405180910390a250505050565b610a91611060565b60008060008481526020019081526020016000206040518060a0016040529081600082015481526020016001820160009054906101000a900460ff166003811115610adf57610ade61144a565b5b6003811115610af157610af061144a565b5b8152602001600282018054610b05906117f0565b80601f0160208091040260200160405190810160405280929190818152602001828054610b31906117f0565b8015610b7e5780601f10610b5357610100808354040283529160200191610b7e565b820191906000526020600020905b815481529060010190602001808311610b6157829003601f168201915b50505050508152602001600382018054610b97906117f0565b80601f0160208091040260200160405190810160405280929190818152602001828054610bc3906117f0565b8015610c105780601f10610be557610100808354040283529160200191610c10565b820191906000526020600020905b815481529060010190602001808311610bf357829003601f168201915b505050505081526020016004820160009054906101000a900460ff16151515158152505090508060800151610c7a576040517f08c379a0000000000000000000000000000000000000000000000000000000008152600401610c719061186e565b60405180910390fd5b80915050919050565b600080600083815260200190815260200160002090508060040160009054906101000a900460ff16610cea576040517f08c379a0000000000000000000000000000000000000000000000000000000008152600401610ce19061186e565b60405180910390fd5b600380811115610cfd57610cfc61144a565b5b8160010160009054906101000a900460ff166003811115610d2157610d2061144a565b5b14610d61576040517f08c379a0000000000000000000000000000000000000000000000000000000008152600401610d5890611c4a565b60405180910390fd5b60008160010160009054906101000a900460ff16905060008260010160006101000a81548160ff02191690836003811115610d9f57610d9e61144a565b5b0217905550827fdad44df2dcb3bce38ba2cab07296adccf00f73e782eecb1e5fab123abb1e3d49828460010160009054906101000a900460ff168560020186600301604051610df194939291906119fb565b60405180910390a2505050565b600080600083815260200190815260200160002090508060040160009054906101000a900460ff16610e65576040517f08c379a0000000000000000000000000000000000000000000000000000000008152600401610e5c9061186e565b60405180910390fd5b60006003811115610e7957610e7861144a565b5b8160010160009054906101000a900460ff166003811115610e9d57610e9c61144a565b5b14610edd576040517f08c379a0000000000000000000000000000000000000000000000000000000008152600401610ed490611cdc565b60405180910390fd5b6000816003018054610eee906117f0565b905014610f30576040517f08c379a0000000000000000000000000000000000000000000000000000000008152600401610f2790611d48565b60405180910390fd5b60008160010160009054906101000a900460ff16905060038260010160006101000a81548160ff02191690836003811115610f6e57610f6d61144a565b5b0217905550827fdad44df2dcb3bce38ba2cab07296adccf00f73e782eecb1e5fab123abb1e3d49828460010160009054906101000a900460ff168560020186600301604051610fc094939291906119fb565b60405180910390a2505050565b6000600190509392505050565b828054610fe6906117f0565b90600052602060002090601f016020900481019282611008576000855561104f565b82601f1061102157805160ff191683800117855561104f565b8280016001018555821561104f579182015b8281111561104e578251825591602001919060010190611033565b5b50905061105c91906110a3565b5090565b6040518060a0016040528060008152602001600060038111156110865761108561144a565b5b815260200160608152602001606081526020016000151581525090565b5b808211156110bc5760008160009055506001016110a4565b5090565b6000604051905090565b600080fd5b600080fd5b6000819050919050565b6110e7816110d4565b81146110f257600080fd5b50565b600081359050611104816110de565b92915050565b600080fd5b600080fd5b6000601f19601f8301169050919050565b7f4e487b7100000000000000000000000000000000000000000000000000000000600052604160045260246000fd5b61115d82611114565b810181811067ffffffffffffffff8211171561117c5761117b611125565b5b80604052505050565b600061118f6110c0565b905061119b8282611154565b919050565b600067ffffffffffffffff8211156111bb576111ba611125565b5b6111c482611114565b9050602081019050919050565b82818337600083830152505050565b60006111f36111ee846111a0565b611185565b90508281526020810184848401111561120f5761120e61110f565b5b61121a8482856111d1565b509392505050565b600082601f8301126112375761123661110a565b5b81356112478482602086016111e0565b91505092915050565b600067ffffffffffffffff82111561126b5761126a611125565b5b61127482611114565b9050602081019050919050565b600061129461128f84611250565b611185565b9050828152602081018484840111156112b0576112af61110f565b5b6112bb8482856111d1565b509392505050565b600082601f8301126112d8576112d761110a565b5b81356112e8848260208601611281565b91505092915050565b60008060006060848603121561130a576113096110ca565b5b6000611318868287016110f5565b935050602084013567ffffffffffffffff811115611339576113386110cf565b5b61134586828701611222565b925050604084013567ffffffffffffffff811115611366576113656110cf565b5b611372868287016112c3565b9150509250925092565b600060208284031215611392576113916110ca565b5b60006113a0848285016110f5565b91505092915050565b60008115159050919050565b6113be816113a9565b82525050565b60006020820190506113d960008301846113b5565b92915050565b600080604083850312156113f6576113f56110ca565b5b6000611404858286016110f5565b925050602083013567ffffffffffffffff811115611425576114246110cf565b5b61143185828601611222565b9150509250929050565b611444816110d4565b82525050565b7f4e487b7100000000000000000000000000000000000000000000000000000000600052602160045260246000fd5b6004811061148a5761148961144a565b5b50565b600081905061149b82611479565b919050565b60006114ab8261148d565b9050919050565b6114bb816114a0565b82525050565b600081519050919050565b600082825260208201905092915050565b60005b838110156114fb5780820151818401526020810190506114e0565b8381111561150a576000848401525b50505050565b600061151b826114c1565b61152581856114cc565b93506115358185602086016114dd565b61153e81611114565b840191505092915050565b611552816113a9565b82525050565b600060a083016000830151611570600086018261143b565b50602083015161158360208601826114b2565b506040830151848203604086015261159b8282611510565b915050606083015184820360608601526115b58282611510565b91505060808301516115ca6080860182611549565b508091505092915050565b600060208201905081810360008301526115ef8184611558565b905092915050565b600082825260208201905092915050565b7f4556544f4c207961207265676973747261646f00000000000000000000000000600082015250565b600061163e6013836115f7565b915061164982611608565b602082019050919050565b6000602082019050818103600083015261166d81611631565b9050919050565b7f43726564656e6369616c206465204556544f4c20696e76616c69646100000000600082015250565b60006116aa601c836115f7565b91506116b582611674565b602082019050919050565b600060208201905081810360008301526116d98161169d565b9050919050565b60006116eb826114c1565b6116f581856115f7565b93506117058185602086016114dd565b61170e81611114565b840191505092915050565b6000602082019050818103600083015261173381846116e0565b905092915050565b611744816114a0565b82525050565b50565b600061175a6000836115f7565b91506117658261174a565b600082019050919050565b6000608082019050611785600083018661173b565b611792602083018561173b565b81810360408301526117a481846116e0565b905081810360608301526117b78161174d565b9050949350505050565b7f4e487b7100000000000000000000000000000000000000000000000000000000600052602260045260246000fd5b6000600282049050600182168061180857607f821691505b6020821081141561181c5761181b6117c1565b5b50919050565b7f4556544f4c206e6f20656e636f6e747261646f00000000000000000000000000600082015250565b60006118586013836115f7565b915061186382611822565b602082019050919050565b600060208201905081810360008301526118878161184b565b9050919050565b7f4556544f4c206e6f206573746120455850454354494e47000000000000000000600082015250565b60006118c46017836115f7565b91506118cf8261188e565b602082019050919050565b600060208201905081810360008301526118f3816118b7565b9050919050565b7f4e6f20686179207669616a652061637469766f00000000000000000000000000600082015250565b60006119306013836115f7565b915061193b826118fa565b602082019050919050565b6000602082019050818103600083015261195f81611923565b9050919050565b60008190508160005260206000209050919050565b60008154611988816117f0565b61199281866115f7565b945060018216600081146119ad57600181146119bf576119f2565b60ff19831686526020860193506119f2565b6119c885611966565b60005b838110156119ea578154818901526001820191506020810190506119cb565b808801955050505b50505092915050565b6000608082019050611a10600083018761173b565b611a1d602083018661173b565b8181036040830152611a2f818561197b565b90508181036060830152611a43818461197b565b905095945050505050565b7f4556544f4c206e6f2065737461205041524b4544000000000000000000000000600082015250565b6000611a846014836115f7565b9150611a8f82611a4e565b602082019050919050565b60006020820190508181036000830152611ab381611a77565b9050919050565b7f5961207469656e65207669616a652061637469766f0000000000000000000000600082015250565b6000611af06015836115f7565b9150611afb82611aba565b602082019050919050565b60006020820190508181036000830152611b1f81611ae3565b9050919050565b7f74726970496420766163696f0000000000000000000000000000000000000000600082015250565b6000611b5c600c836115f7565b9150611b6782611b26565b602082019050919050565b60006020820190508181036000830152611b8b81611b4f565b9050919050565b7f4556544f4c206e6f206573746120494e5f555345000000000000000000000000600082015250565b6000611bc86014836115f7565b9150611bd382611b92565b602082019050919050565b60006020820190508181036000830152611bf781611bbb565b9050919050565b7f4556544f4c206e6f206573746120656e204d41494e54454e414e434500000000600082015250565b6000611c34601c836115f7565b9150611c3f82611bfe565b602082019050919050565b60006020820190508181036000830152611c6381611c27565b9050919050565b7f536f6c6f205041524b45442070756564652069722061204d41494e54454e414e60008201527f4345000000000000000000000000000000000000000000000000000000000000602082015250565b6000611cc66022836115f7565b9150611cd182611c6a565b604082019050919050565b60006020820190508181036000830152611cf581611cb9565b9050919050565b7f4e6f20646562652074656e6572207669616a652061637469766f000000000000600082015250565b6000611d32601a836115f7565b9150611d3d82611cfc565b602082019050919050565b60006020820190508181036000830152611d6181611d25565b905091905056fea264697066735822122016397dc8d8fd3f8ae3ae905fb76901586b7805c522dce050a6e9f9d76613b81564736f6c634300080a0033",
      "opcodes": "PUSH1 0x80 PUSH1 0x40 MSTORE CALLVALUE DUP1 ISZERO PUSH2 0x10 JUMPI PUSH1 0x0 DUP1 REVERT JUMPDEST POP PUSH2 0x1D9E DUP1 PUSH2 0x20 PUSH1 0x0 CODECOPY PUSH1 0x0 RETURN INVALID PUSH1 0x80 PUSH1 0x40 MSTORE CALLVALUE DUP1 ISZERO PUSH2 0x10 JUMPI PUSH1 0x0 DUP1 REVERT JUMPDEST POP PUSH1 0x4 CALLDATASIZE LT PUSH2 0x88 JUMPI PUSH1 0x0 CALLDATALOAD PUSH1 0xE0 SHR DUP1 PUSH4 0x9283E047 GT PUSH2 0x5B JUMPI DUP1 PUSH4 0x9283E047 EQ PUSH2 0x111 JUMPI DUP1 PUSH4 0x9AF81ECE EQ PUSH2 0x12D JUMPI DUP1 PUSH4 0xA6341CBC EQ PUSH2 0x15D JUMPI DUP1 PUSH4 0xB72DBE9F EQ PUSH2 0x179 JUMPI PUSH2 0x88 JUMP JUMPDEST DUP1 PUSH4 0x1E9B739C EQ PUSH2 0x8D JUMPI DUP1 PUSH4 0x3A178D99 EQ PUSH2 0xA9 JUMPI DUP1 PUSH4 0x3DDE315E EQ PUSH2 0xD9 JUMPI DUP1 PUSH4 0x864980DE EQ PUSH2 0xF5 JUMPI JUMPDEST PUSH1 0x0 DUP1 REVERT JUMPDEST PUSH2 0xA7 PUSH1 0x4 DUP1 CALLDATASIZE SUB DUP2 ADD SWAP1 PUSH2 0xA2 SWAP2 SWAP1 PUSH2 0x12F1 JUMP JUMPDEST PUSH2 0x195 JUMP JUMPDEST STOP JUMPDEST PUSH2 0xC3 PUSH1 0x4 DUP1 CALLDATASIZE SUB DUP2 ADD SWAP1 PUSH2 0xBE SWAP2 SWAP1 PUSH2 0x137C JUMP JUMPDEST PUSH2 0x3D1 JUMP JUMPDEST PUSH1 0x40 MLOAD PUSH2 0xD0 SWAP2 SWAP1 PUSH2 0x13C4 JUMP JUMPDEST PUSH1 0x40 MLOAD DUP1 SWAP2 SUB SWAP1 RETURN JUMPDEST PUSH2 0xF3 PUSH1 0x4 DUP1 CALLDATASIZE SUB DUP2 ADD SWAP1 PUSH2 0xEE SWAP2 SWAP1 PUSH2 0x137C JUMP JUMPDEST PUSH2 0x47C JUMP JUMPDEST STOP JUMPDEST PUSH2 0x10F PUSH1 0x4 DUP1 CALLDATASIZE SUB DUP2 ADD SWAP1 PUSH2 0x10A SWAP2 SWAP1 PUSH2 0x13DF JUMP JUMPDEST PUSH2 0x64B JUMP JUMPDEST STOP JUMPDEST PUSH2 0x12B PUSH1 0x4 DUP1 CALLDATASIZE SUB DUP2 ADD SWAP1 PUSH2 0x126 SWAP2 SWAP1 PUSH2 0x13DF JUMP JUMPDEST PUSH2 0x878 JUMP JUMPDEST STOP JUMPDEST PUSH2 0x147 PUSH1 0x4 DUP1 CALLDATASIZE SUB DUP2 ADD SWAP1 PUSH2 0x142 SWAP2 SWAP1 PUSH2 0x137C JUMP JUMPDEST PUSH2 0xA89 JUMP JUMPDEST PUSH1 0x40 MLOAD PUSH2 0x154 SWAP2 SWAP1 PUSH2 0x15D5 JUMP JUMPDEST PUSH1 0x40 MLOAD DUP1 SWAP2 SUB SWAP1 RETURN JUMPDEST PUSH2 0x177 PUSH1 0x4 DUP1 CALLDATASIZE SUB DUP2 ADD SWAP1 PUSH2 0x172 SWAP2 SWAP1 PUSH2 0x137C JUMP JUMPDEST PUSH2 0xC83 JUMP JUMPDEST STOP JUMPDEST PUSH2 0x193 PUSH1 0x4 DUP1 CALLDATASIZE SUB DUP2 ADD SWAP1 PUSH2 0x18E SWAP2 SWAP1 PUSH2 0x137C JUMP JUMPDEST PUSH2 0xDFE JUMP JUMPDEST STOP JUMPDEST PUSH1 0x0 DUP1 DUP5 DUP2 MSTORE PUSH1 0x20 ADD SWAP1 DUP2 MSTORE PUSH1 0x20 ADD PUSH1 0x0 KECCAK256 PUSH1 0x4 ADD PUSH1 0x0 SWAP1 SLOAD SWAP1 PUSH2 0x100 EXP SWAP1 DIV PUSH1 0xFF AND ISZERO PUSH2 0x1F8 JUMPI PUSH1 0x40 MLOAD PUSH32 0x8C379A000000000000000000000000000000000000000000000000000000000 DUP2 MSTORE PUSH1 0x4 ADD PUSH2 0x1EF SWAP1 PUSH2 0x1654 JUMP JUMPDEST PUSH1 0x40 MLOAD DUP1 SWAP2 SUB SWAP1 REVERT JUMPDEST PUSH2 0x26D DUP2 PUSH1 0x40 MLOAD DUP1 PUSH1 0x40 ADD PUSH1 0x40 MSTORE DUP1 PUSH1 0xB DUP2 MSTORE PUSH1 0x20 ADD PUSH32 0x4576746F6C5F4372656465000000000000000000000000000000000000000000 DUP2 MSTORE POP PUSH1 0x40 MLOAD DUP1 PUSH1 0x40 ADD PUSH1 0x40 MSTORE DUP1 PUSH1 0x3 DUP2 MSTORE PUSH1 0x20 ADD PUSH32 0x332E300000000000000000000000000000000000000000000000000000000000 DUP2 MSTORE POP PUSH2 0xFCD JUMP JUMPDEST PUSH2 0x2AC JUMPI PUSH1 0x40 MLOAD PUSH32 0x8C379A000000000000000000000000000000000000000000000000000000000 DUP2 MSTORE PUSH1 0x4 ADD PUSH2 0x2A3 SWAP1 PUSH2 0x16C0 JUMP JUMPDEST PUSH1 0x40 MLOAD DUP1 SWAP2 SUB SWAP1 REVERT JUMPDEST PUSH1 0x0 DUP1 PUSH1 0x0 DUP6 DUP2 MSTORE PUSH1 0x20 ADD SWAP1 DUP2 MSTORE PUSH1 0x20 ADD PUSH1 0x0 KECCAK256 SWAP1 POP DUP4 DUP2 PUSH1 0x0 ADD DUP2 SWAP1 SSTORE POP PUSH1 0x0 DUP2 PUSH1 0x1 ADD PUSH1 0x0 PUSH2 0x100 EXP DUP2 SLOAD DUP2 PUSH1 0xFF MUL NOT AND SWAP1 DUP4 PUSH1 0x3 DUP2 GT ISZERO PUSH2 0x2F3 JUMPI PUSH2 0x2F2 PUSH2 0x144A JUMP JUMPDEST JUMPDEST MUL OR SWAP1 SSTORE POP DUP3 DUP2 PUSH1 0x2 ADD SWAP1 DUP1 MLOAD SWAP1 PUSH1 0x20 ADD SWAP1 PUSH2 0x310 SWAP3 SWAP2 SWAP1 PUSH2 0xFDA JUMP JUMPDEST POP PUSH1 0x40 MLOAD DUP1 PUSH1 0x20 ADD PUSH1 0x40 MSTORE DUP1 PUSH1 0x0 DUP2 MSTORE POP DUP2 PUSH1 0x3 ADD SWAP1 DUP1 MLOAD SWAP1 PUSH1 0x20 ADD SWAP1 PUSH2 0x338 SWAP3 SWAP2 SWAP1 PUSH2 0xFDA JUMP JUMPDEST POP PUSH1 0x1 DUP2 PUSH1 0x4 ADD PUSH1 0x0 PUSH2 0x100 EXP DUP2 SLOAD DUP2 PUSH1 0xFF MUL NOT AND SWAP1 DUP4 ISZERO ISZERO MUL OR SWAP1 SSTORE POP DUP4 PUSH32 0x2EA0FEE87CB50DCA037D00E075E41B58B34237C5B3D7D07F2E050E287432EB04 DUP5 PUSH1 0x40 MLOAD PUSH2 0x386 SWAP2 SWAP1 PUSH2 0x1719 JUMP JUMPDEST PUSH1 0x40 MLOAD DUP1 SWAP2 SUB SWAP1 LOG2 DUP4 PUSH32 0xDAD44DF2DCB3BCE38BA2CAB07296ADCCF00F73E782EECB1E5FAB123ABB1E3D49 PUSH1 0x0 DUP1 DUP7 PUSH1 0x40 MLOAD PUSH2 0x3C3 SWAP4 SWAP3 SWAP2 SWAP1 PUSH2 0x1770 JUMP JUMPDEST PUSH1 0x40 MLOAD DUP1 SWAP2 SUB SWAP1 LOG2 POP POP POP POP JUMP JUMPDEST PUSH1 0x0 DUP1 PUSH1 0x0 DUP1 DUP5 DUP2 MSTORE PUSH1 0x20 ADD SWAP1 DUP2 MSTORE PUSH1 0x20 ADD PUSH1 0x0 KECCAK256 SWAP1 POP DUP1 PUSH1 0x4 ADD PUSH1 0x0 SWAP1 SLOAD SWAP1 PUSH2 0x100 EXP SWAP1 DIV PUSH1 0xFF AND PUSH2 0x408 JUMPI PUSH1 0x0 SWAP2 POP POP PUSH2 0x477 JUMP JUMPDEST PUSH1 0x0 PUSH1 0x3 DUP2 GT ISZERO PUSH2 0x41C JUMPI PUSH2 0x41B PUSH2 0x144A JUMP JUMPDEST JUMPDEST DUP2 PUSH1 0x1 ADD PUSH1 0x0 SWAP1 SLOAD SWAP1 PUSH2 0x100 EXP SWAP1 DIV PUSH1 0xFF AND PUSH1 0x3 DUP2 GT ISZERO PUSH2 0x440 JUMPI PUSH2 0x43F PUSH2 0x144A JUMP JUMPDEST JUMPDEST EQ PUSH2 0x44F JUMPI PUSH1 0x0 SWAP2 POP POP PUSH2 0x477 JUMP JUMPDEST PUSH1 0x0 DUP2 PUSH1 0x3 ADD DUP1 SLOAD PUSH2 0x460 SWAP1 PUSH2 0x17F0 JUMP JUMPDEST SWAP1 POP EQ PUSH2 0x471 JUMPI PUSH1 0x0 SWAP2 POP POP PUSH2 0x477 JUMP JUMPDEST PUSH1 0x1 SWAP2 POP POP JUMPDEST SWAP2 SWAP1 POP JUMP JUMPDEST PUSH1 0x0 DUP1 PUSH1 0x0 DUP4 DUP2 MSTORE PUSH1 0x20 ADD SWAP1 DUP2 MSTORE PUSH1 0x20 ADD PUSH1 0x0 KECCAK256 SWAP1 POP DUP1 PUSH1 0x4 ADD PUSH1 0x0 SWAP1 SLOAD SWAP1 PUSH2 0x100 EXP SWAP1 DIV PUSH1 0xFF AND PUSH2 0x4E3 JUMPI PUSH1 0x40 MLOAD PUSH32 0x8C379A000000000000000000000000000000000000000000000000000000000 DUP2 MSTORE PUSH1 0x4 ADD PUSH2 0x4DA SWAP1 PUSH2 0x186E JUMP JUMPDEST PUSH1 0x40 MLOAD DUP1 SWAP2 SUB SWAP1 REVERT JUMPDEST PUSH1 0x1 PUSH1 0x3 DUP2 GT ISZERO PUSH2 0x4F7 JUMPI PUSH2 0x4F6 PUSH2 0x144A JUMP JUMPDEST JUMPDEST DUP2 PUSH1 0x1 ADD PUSH1 0x0 SWAP1 SLOAD SWAP1 PUSH2 0x100 EXP SWAP1 DIV PUSH1 0xFF AND PUSH1 0x3 DUP2 GT ISZERO PUSH2 0x51B JUMPI PUSH2 0x51A PUSH2 0x144A JUMP JUMPDEST JUMPDEST EQ PUSH2 0x55B JUMPI PUSH1 0x40 MLOAD PUSH32 0x8C379A000000000000000000000000000000000000000000000000000000000 DUP2 MSTORE PUSH1 0x4 ADD PUSH2 0x552 SWAP1 PUSH2 0x18DA JUMP JUMPDEST PUSH1 0x40 MLOAD DUP1 SWAP2 SUB SWAP1 REVERT JUMPDEST PUSH1 0x0 DUP2 PUSH1 0x3 ADD DUP1 SLOAD PUSH2 0x56C SWAP1 PUSH2 0x17F0 JUMP JUMPDEST SWAP1 POP GT PUSH2 0x5AE JUMPI PUSH1 0x40 MLOAD PUSH32 0x8C379A000000000000000000000000000000000000000000000000000000000 DUP2 MSTORE PUSH1 0x4 ADD PUSH2 0x5A5 SWAP1 PUSH2 0x1946 JUMP JUMPDEST PUSH1 0x40 MLOAD DUP1 SWAP2 SUB SWAP1 REVERT JUMPDEST PUSH1 0x0 DUP2 PUSH1 0x1 ADD PUSH1 0x0 SWAP1 SLOAD SWAP1 PUSH2 0x100 EXP SWAP1 DIV PUSH1 0xFF AND SWAP1 POP PUSH1 0x2 DUP3 PUSH1 0x1 ADD PUSH1 0x0 PUSH2 0x100 EXP DUP2 SLOAD DUP2 PUSH1 0xFF MUL NOT AND SWAP1 DUP4 PUSH1 0x3 DUP2 GT ISZERO PUSH2 0x5EC JUMPI PUSH2 0x5EB PUSH2 0x144A JUMP JUMPDEST JUMPDEST MUL OR SWAP1 SSTORE POP DUP3 PUSH32 0xDAD44DF2DCB3BCE38BA2CAB07296ADCCF00F73E782EECB1E5FAB123ABB1E3D49 DUP3 DUP5 PUSH1 0x1 ADD PUSH1 0x0 SWAP1 SLOAD SWAP1 PUSH2 0x100 EXP SWAP1 DIV PUSH1 0xFF AND DUP6 PUSH1 0x2 ADD DUP7 PUSH1 0x3 ADD PUSH1 0x40 MLOAD PUSH2 0x63E SWAP5 SWAP4 SWAP3 SWAP2 SWAP1 PUSH2 0x19FB JUMP JUMPDEST PUSH1 0x40 MLOAD DUP1 SWAP2 SUB SWAP1 LOG2 POP POP POP JUMP JUMPDEST PUSH1 0x0 DUP1 PUSH1 0x0 DUP5 DUP2 MSTORE PUSH1 0x20 ADD SWAP1 DUP2 MSTORE PUSH1 0x20 ADD PUSH1 0x0 KECCAK256 SWAP1 POP DUP1 PUSH1 0x4 ADD PUSH1 0x0 SWAP1 SLOAD SWAP1 PUSH2 0x100 EXP SWAP1 DIV PUSH1 0xFF AND PUSH2 0x6B2 JUMPI PUSH1 0x40 MLOAD PUSH32 0x8C379A000000000000000000000000000000000000000000000000000000000 DUP2 MSTORE PUSH1 0x4 ADD PUSH2 0x6A9 SWAP1 PUSH2 0x186E JUMP JUMPDEST PUSH1 0x40 MLOAD DUP1 SWAP2 SUB SWAP1 REVERT JUMPDEST PUSH1 0x0 PUSH1 0x3 DUP2 GT ISZERO PUSH2 0x6C6 JUMPI PUSH2 0x6C5 PUSH2 0x144A JUMP JUMPDEST JUMPDEST DUP2 PUSH1 0x1 ADD PUSH1 0x0 SWAP1 SLOAD SWAP1 PUSH2 0x100 EXP SWAP1 DIV PUSH1 0xFF AND PUSH1 0x3 DUP2 GT ISZERO PUSH2 0x6EA JUMPI PUSH2 0x6E9 PUSH2 0x144A JUMP JUMPDEST JUMPDEST EQ PUSH2 0x72A JUMPI PUSH1 0x40 MLOAD PUSH32 0x8C379A000000000000000000000000000000000000000000000000000000000 DUP2 MSTORE PUSH1 0x4 ADD PUSH2 0x721 SWAP1 PUSH2 0x1A9A JUMP JUMPDEST PUSH1 0x40 MLOAD DUP1 SWAP2 SUB SWAP1 REVERT JUMPDEST PUSH1 0x0 DUP2 PUSH1 0x3 ADD DUP1 SLOAD PUSH2 0x73B SWAP1 PUSH2 0x17F0 JUMP JUMPDEST SWAP1 POP EQ PUSH2 0x77D JUMPI PUSH1 0x40 MLOAD PUSH32 0x8C379A000000000000000000000000000000000000000000000000000000000 DUP2 MSTORE PUSH1 0x4 ADD PUSH2 0x774 SWAP1 PUSH2 0x1B06 JUMP JUMPDEST PUSH1 0x40 MLOAD DUP1 SWAP2 SUB SWAP1 REVERT JUMPDEST PUSH1 0x0 DUP3 MLOAD GT PUSH2 0x7C1 JUMPI PUSH1 0x40 MLOAD PUSH32 0x8C379A000000000000000000000000000000000000000000000000000000000 DUP2 MSTORE PUSH1 0x4 ADD PUSH2 0x7B8 SWAP1 PUSH2 0x1B72 JUMP JUMPDEST PUSH1 0x40 MLOAD DUP1 SWAP2 SUB SWAP1 REVERT JUMPDEST PUSH1 0x0 DUP2 PUSH1 0x1 ADD PUSH1 0x0 SWAP1 SLOAD SWAP1 PUSH2 0x100 EXP SWAP1 DIV PUSH1 0xFF AND SWAP1 POP PUSH1 0x1 DUP3 PUSH1 0x1 ADD PUSH1 0x0 PUSH2 0x100 EXP DUP2 SLOAD DUP2 PUSH1 0xFF MUL NOT AND SWAP1 DUP4 PUSH1 0x3 DUP2 GT ISZERO PUSH2 0x7FF JUMPI PUSH2 0x7FE PUSH2 0x144A JUMP JUMPDEST JUMPDEST MUL OR SWAP1 SSTORE POP DUP3 DUP3 PUSH1 0x3 ADD SWAP1 DUP1 MLOAD SWAP1 PUSH1 0x20 ADD SWAP1 PUSH2 0x81C SWAP3 SWAP2 SWAP1 PUSH2 0xFDA JUMP JUMPDEST POP DUP4 PUSH32 0xDAD44DF2DCB3BCE38BA2CAB07296ADCCF00F73E782EECB1E5FAB123ABB1E3D49 DUP3 DUP5 PUSH1 0x1 ADD PUSH1 0x0 SWAP1 SLOAD SWAP1 PUSH2 0x100 EXP SWAP1 DIV PUSH1 0xFF AND DUP6 PUSH1 0x2 ADD DUP7 PUSH1 0x3 ADD PUSH1 0x40 MLOAD PUSH2 0x86A SWAP5 SWAP4 SWAP3 SWAP2 SWAP1 PUSH2 0x19FB JUMP JUMPDEST PUSH1 0x40 MLOAD DUP1 SWAP2 SUB SWAP1 LOG2 POP POP POP POP JUMP JUMPDEST PUSH1 0x0 DUP1 PUSH1 0x0 DUP5 DUP2 MSTORE PUSH1 0x20 ADD SWAP1 DUP2 MSTORE PUSH1 0x20 ADD PUSH1 0x0 KECCAK256 SWAP1 POP DUP1 PUSH1 0x4 ADD PUSH1 0x0 SWAP1 SLOAD SWAP1 PUSH2 0x100 EXP SWAP1 DIV PUSH1 0xFF AND PUSH2 0x8DF JUMPI PUSH1 0x40 MLOAD PUSH32 0x8C379A000000000000000000000000000000000000000000000000000000000 DUP2 MSTORE PUSH1 0x4 ADD PUSH2 0x8D6 SWAP1 PUSH2 0x186E JUMP JUMPDEST PUSH1 0x40 MLOAD DUP1 SWAP2 SUB SWAP1 REVERT JUMPDEST PUSH1 0x2 PUSH1 0x3 DUP2 GT ISZERO PUSH2 0x8F3 JUMPI PUSH2 0x8F2 PUSH2 0x144A JUMP JUMPDEST JUMPDEST DUP2 PUSH1 0x1 ADD PUSH1 0x0 SWAP1 SLOAD SWAP1 PUSH2 0x100 EXP SWAP1 DIV PUSH1 0xFF AND PUSH1 0x3 DUP2 GT ISZERO PUSH2 0x917 JUMPI PUSH2 0x916 PUSH2 0x144A JUMP JUMPDEST JUMPDEST EQ PUSH2 0x957 JUMPI PUSH1 0x40 MLOAD PUSH32 0x8C379A000000000000000000000000000000000000000000000000000000000 DUP2 MSTORE PUSH1 0x4 ADD PUSH2 0x94E SWAP1 PUSH2 0x1BDE JUMP JUMPDEST PUSH1 0x40 MLOAD DUP1 SWAP2 SUB SWAP1 REVERT JUMPDEST PUSH1 0x0 DUP2 PUSH1 0x3 ADD DUP1 SLOAD PUSH2 0x968 SWAP1 PUSH2 0x17F0 JUMP JUMPDEST SWAP1 POP GT PUSH2 0x9AA JUMPI PUSH1 0x40 MLOAD PUSH32 0x8C379A000000000000000000000000000000000000000000000000000000000 DUP2 MSTORE PUSH1 0x4 ADD PUSH2 0x9A1 SWAP1 PUSH2 0x1946 JUMP JUMPDEST PUSH1 0x40 MLOAD DUP1 SWAP2 SUB SWAP1 REVERT JUMPDEST PUSH1 0x0 DUP2 PUSH1 0x1 ADD PUSH1 0x0 SWAP1 SLOAD SWAP1 PUSH2 0x100 EXP SWAP1 DIV PUSH1 0xFF AND SWAP1 POP PUSH1 0x0 DUP3 PUSH1 0x1 ADD PUSH1 0x0 PUSH2 0x100 EXP DUP2 SLOAD DUP2 PUSH1 0xFF MUL NOT AND SWAP1 DUP4 PUSH1 0x3 DUP2 GT ISZERO PUSH2 0x9E8 JUMPI PUSH2 0x9E7 PUSH2 0x144A JUMP JUMPDEST JUMPDEST MUL OR SWAP1 SSTORE POP DUP3 DUP3 PUSH1 0x2 ADD SWAP1 DUP1 MLOAD SWAP1 PUSH1 0x20 ADD SWAP1 PUSH2 0xA05 SWAP3 SWAP2 SWAP1 PUSH2 0xFDA JUMP JUMPDEST POP PUSH1 0x40 MLOAD DUP1 PUSH1 0x20 ADD PUSH1 0x40 MSTORE DUP1 PUSH1 0x0 DUP2 MSTORE POP DUP3 PUSH1 0x3 ADD SWAP1 DUP1 MLOAD SWAP1 PUSH1 0x20 ADD SWAP1 PUSH2 0xA2D SWAP3 SWAP2 SWAP1 PUSH2 0xFDA JUMP JUMPDEST POP DUP4 PUSH32 0xDAD44DF2DCB3BCE38BA2CAB07296ADCCF00F73E782EECB1E5FAB123ABB1E3D49 DUP3 DUP5 PUSH1 0x1 ADD PUSH1 0x0 SWAP1 SLOAD SWAP1 PUSH2 0x100 EXP SWAP1 DIV PUSH1 0xFF AND DUP6 PUSH1 0x2 ADD DUP7 PUSH1 0x3 ADD PUSH1 0x40 MLOAD PUSH2 0xA7B SWAP5 SWAP4 SWAP3 SWAP2 SWAP1 PUSH2 0x19FB JUMP JUMPDEST PUSH1 0x40 MLOAD DUP1 SWAP2 SUB SWAP1 LOG2 POP POP POP POP JUMP JUMPDEST PUSH2 0xA91 PUSH2 0x1060 JUMP JUMPDEST PUSH1 0x0 DUP1 PUSH1 0x0 DUP5 DUP2 MSTORE PUSH1 0x20 ADD SWAP1 DUP2 MSTORE PUSH1 0x20 ADD PUSH1 0x0 KECCAK256 PUSH1 0x40 MLOAD DUP1 PUSH1 0xA0 ADD PUSH1 0x40 MSTORE SWAP1 DUP2 PUSH1 0x0 DUP3 ADD SLOAD DUP2 MSTORE PUSH1 0x20 ADD PUSH1 0x1 DUP3 ADD PUSH1 0x0 SWAP1 SLOAD SWAP1 PUSH2 0x100 EXP SWAP1 DIV PUSH1 0xFF AND PUSH1 0x3 DUP2 GT ISZERO PUSH2 0xADF JUMPI PUSH2 0xADE PUSH2 0x144A JUMP JUMPDEST JUMPDEST PUSH1 0x3 DUP2 GT ISZERO PUSH2 0xAF1 JUMPI PUSH2 0xAF0 PUSH2 0x144A JUMP JUMPDEST JUMPDEST DUP2 MSTORE PUSH1 0x20 ADD PUSH1 0x2 DUP3 ADD DUP1 SLOAD PUSH2 0xB05 SWAP1 PUSH2 0x17F0 JUMP JUMPDEST DUP1 PUSH1 0x1F ADD PUSH1 0x20 DUP1 SWAP2 DIV MUL PUSH1 0x20 ADD PUSH1 0x40 MLOAD SWAP1 DUP2 ADD PUSH1 0x40 MSTORE DUP1 SWAP3 SWAP2 SWAP1 DUP2 DUP2 MSTORE PUSH1 0x20 ADD DUP3 DUP1 SLOAD PUSH2 0xB31 SWAP1 PUSH2 0x17F0 JUMP JUMPDEST DUP1 ISZERO PUSH2 0xB7E JUMPI DUP1 PUSH1 0x1F LT PUSH2 0xB53 JUMPI PUSH2 0x100 DUP1 DUP4 SLOAD DIV MUL DUP4 MSTORE SWAP2 PUSH1 0x20 ADD SWAP2 PUSH2 0xB7E JUMP JUMPDEST DUP3 ADD SWAP2 SWAP1 PUSH1 0x0 MSTORE PUSH1 0x20 PUSH1 0x0 KECCAK256 SWAP1 JUMPDEST DUP2 SLOAD DUP2 MSTORE SWAP1 PUSH1 0x1 ADD SWAP1 PUSH1 0x20 ADD DUP1 DUP4 GT PUSH2 0xB61 JUMPI DUP3 SWAP1 SUB PUSH1 0x1F AND DUP3 ADD SWAP2 JUMPDEST POP POP POP POP POP DUP2 MSTORE PUSH1 0x20 ADD PUSH1 0x3 DUP3 ADD DUP1 SLOAD PUSH2 0xB97 SWAP1 PUSH2 0x17F0 JUMP JUMPDEST DUP1 PUSH1 0x1F ADD PUSH1 0x20 DUP1 SWAP2 DIV MUL PUSH1 0x20 ADD PUSH1 0x40 MLOAD SWAP1 DUP2 ADD PUSH1 0x40 MSTORE DUP1 SWAP3 SWAP2 SWAP1 DUP2 DUP2 MSTORE PUSH1 0x20 ADD DUP3 DUP1 SLOAD PUSH2 0xBC3 SWAP1 PUSH2 0x17F0 JUMP JUMPDEST DUP1 ISZERO PUSH2 0xC10 JUMPI DUP1 PUSH1 0x1F LT PUSH2 0xBE5 JUMPI PUSH2 0x100 DUP1 DUP4 SLOAD DIV MUL DUP4 MSTORE SWAP2 PUSH1 0x20 ADD SWAP2 PUSH2 0xC10 JUMP JUMPDEST DUP3 ADD SWAP2 SWAP1 PUSH1 0x0 MSTORE PUSH1 0x20 PUSH1 0x0 KECCAK256 SWAP1 JUMPDEST DUP2 SLOAD DUP2 MSTORE SWAP1 PUSH1 0x1 ADD SWAP1 PUSH1 0x20 ADD DUP1 DUP4 GT PUSH2 0xBF3 JUMPI DUP3 SWAP1 SUB PUSH1 0x1F AND DUP3 ADD SWAP2 JUMPDEST POP POP POP POP POP DUP2 MSTORE PUSH1 0x20 ADD PUSH1 0x4 DUP3 ADD PUSH1 0x0 SWAP1 SLOAD SWAP1 PUSH2 0x100 EXP SWAP1 DIV PUSH1 0xFF AND ISZERO ISZERO ISZERO ISZERO DUP2 MSTORE POP POP SWAP1 POP DUP1 PUSH1 0x80 ADD MLOAD PUSH2 0xC7A JUMPI PUSH1 0x40 MLOAD PUSH32 0x8C379A000000000000000000000000000000000000000000000000000000000 DUP2 MSTORE PUSH1 0x4 ADD PUSH2 0xC71 SWAP1 PUSH2 0x186E JUMP JUMPDEST PUSH1 0x40 MLOAD DUP1 SWAP2 SUB SWAP1 REVERT JUMPDEST DUP1 SWAP2 POP POP SWAP2 SWAP1 POP JUMP JUMPDEST PUSH1 0x0 DUP1 PUSH1 0x0 DUP4 DUP2 MSTORE PUSH1 0x20 ADD SWAP1 DUP2 MSTORE PUSH1 0x20 ADD PUSH1 0x0 KECCAK256 SWAP1 POP DUP1 PUSH1 0x4 ADD PUSH1 0x0 SWAP1 SLOAD SWAP1 PUSH2 0x100 EXP SWAP1 DIV PUSH1 0xFF AND PUSH2 0xCEA JUMPI PUSH1 0x40 MLOAD PUSH32 0x8C379A000000000000000000000000000000000000000000000000000000000 DUP2 MSTORE PUSH1 0x4 ADD PUSH2 0xCE1 SWAP1 PUSH2 0x186E JUMP JUMPDEST PUSH1 0x40 MLOAD DUP1 SWAP2 SUB SWAP1 REVERT JUMPDEST PUSH1 0x3 DUP1 DUP2 GT ISZERO PUSH2 0xCFD JUMPI PUSH2 0xCFC PUSH2 0x144A JUMP JUMPDEST JUMPDEST DUP2 PUSH1 0x1 ADD PUSH1 0x0 SWAP1 SLOAD SWAP1 PUSH2 0x100 EXP SWAP1 DIV PUSH1 0xFF AND PUSH1 0x3 DUP2 GT ISZERO PUSH2 0xD21 JUMPI PUSH2 0xD20 PUSH2 0x144A JUMP JUMPDEST JUMPDEST EQ PUSH2 0xD61 JUMPI PUSH1 0x40 MLOAD PUSH32 0x8C379A000000000000000000000000000000000000000000000000000000000 DUP2 MSTORE PUSH1 0x4 ADD PUSH2 0xD58 SWAP1 PUSH2 0x1C4A JUMP JUMPDEST PUSH1 0x40 MLOAD DUP1 SWAP2 SUB SWAP1 REVERT JUMPDEST PUSH1 0x0 DUP2 PUSH1 0x1 ADD PUSH1 0x0 SWAP1 SLOAD SWAP1 PUSH2 0x100 EXP SWAP1 DIV PUSH1 0xFF AND SWAP1 POP PUSH1 0x0 DUP3 PUSH1 0x1 ADD PUSH1 0x0 PUSH2 0x100 EXP DUP2 SLOAD DUP2 PUSH1 0xFF MUL NOT AND SWAP1 DUP4 PUSH1 0x3 DUP2 GT ISZERO PUSH2 0xD9F JUMPI PUSH2 0xD9E PUSH2 0x144A JUMP JUMPDEST JUMPDEST MUL OR SWAP1 SSTORE POP DUP3 PUSH32 0xDAD44DF2DCB3BCE38BA2CAB07296ADCCF00F73E782EECB1E5FAB123ABB1E3D49 DUP3 DUP5 PUSH1 0x1 ADD PUSH1 0x0 SWAP1 SLOAD SWAP1 PUSH2 0x100 EXP SWAP1 DIV PUSH1 0xFF AND DUP6 PUSH1 0x2 ADD DUP7 PUSH1 0x3 ADD PUSH1 0x40 MLOAD PUSH2 0xDF1 SWAP5 SWAP4 SWAP3 SWAP2 SWAP1 PUSH2 0x19FB JUMP JUMPDEST PUSH1 0x40 MLOAD DUP1 SWAP2 SUB SWAP1 LOG2 POP POP POP JUMP JUMPDEST PUSH1 0x0 DUP1 PUSH1 0x0 DUP4 DUP2 MSTORE PUSH1 0x20 ADD SWAP1 DUP2 MSTORE PUSH1 0x20 ADD PUSH1 0x0 KECCAK256 SWAP1 POP DUP1 PUSH1 0x4 ADD PUSH1 0x0 SWAP1 SLOAD SWAP1 PUSH2 0x100 EXP SWAP1 DIV PUSH1 0xFF AND PUSH2 0xE65 JUMPI PUSH1 0x40 MLOAD PUSH32 0x8C379A000000000000000000000000000000000000000000000000000000000 DUP2 MSTORE PUSH1 0x4 ADD PUSH2 0xE5C SWAP1 PUSH2 0x186E JUMP JUMPDEST PUSH1 0x40 MLOAD DUP1 SWAP2 SUB SWAP1 REVERT JUMPDEST PUSH1 0x0 PUSH1 0x3 DUP2 GT ISZERO PUSH2 0xE79 JUMPI PUSH2 0xE78 PUSH2 0x144A JUMP JUMPDEST JUMPDEST DUP2 PUSH1 0x1 ADD PUSH1 0x0 SWAP1 SLOAD SWAP1 PUSH2 0x100 EXP SWAP1 DIV PUSH1 0xFF AND PUSH1 0x3 DUP2 GT ISZERO PUSH2 0xE9D JUMPI PUSH2 0xE9C PUSH2 0x144A JUMP JUMPDEST JUMPDEST EQ PUSH2 0xEDD JUMPI PUSH1 0x40 MLOAD PUSH32 0x8C379A000000000000000000000000000000000000000000000000000000000 DUP2 MSTORE PUSH1 0x4 ADD PUSH2 0xED4 SWAP1 PUSH2 0x1CDC JUMP JUMPDEST PUSH1 0x40 MLOAD DUP1 SWAP2 SUB SWAP1 REVERT JUMPDEST PUSH1 0x0 DUP2 PUSH1 0x3 ADD DUP1 SLOAD PUSH2 0xEEE SWAP1 PUSH2 0x17F0 JUMP JUMPDEST SWAP1 POP EQ PUSH2 0xF30 JUMPI PUSH1 0x40 MLOAD PUSH32 0x8C379A000000000000000000000000000000000000000000000000000000000 DUP2 MSTORE PUSH1 0x4 ADD PUSH2 0xF27 SWAP1 PUSH2 0x1D48 JUMP JUMPDEST PUSH1 0x40 MLOAD DUP1 SWAP2 SUB SWAP1 REVERT JUMPDEST PUSH1 0x0 DUP2 PUSH1 0x1 ADD PUSH1 0x0 SWAP1 SLOAD SWAP1 PUSH2 0x100 EXP SWAP1 DIV PUSH1 0xFF AND SWAP1 POP PUSH1 0x3 DUP3 PUSH1 0x1 ADD PUSH1 0x0 PUSH2 0x100 EXP DUP2 SLOAD DUP2 PUSH1 0xFF MUL NOT AND SWAP1 DUP4 PUSH1 0x3 DUP2 GT ISZERO PUSH2 0xF6E JUMPI PUSH2 0xF6D PUSH2 0x144A JUMP JUMPDEST JUMPDEST MUL OR SWAP1 SSTORE POP DUP3 PUSH32 0xDAD44DF2DCB3BCE38BA2CAB07296ADCCF00F73E782EECB1E5FAB123ABB1E3D49 DUP3 DUP5 PUSH1 0x1 ADD PUSH1 0x0 SWAP1 SLOAD SWAP1 PUSH2 0x100 EXP SWAP1 DIV PUSH1 0xFF AND DUP6 PUSH1 0x2 ADD DUP7 PUSH1 0x3 ADD PUSH1 0x40 MLOAD PUSH2 0xFC0 SWAP5 SWAP4 SWAP3 SWAP2 SWAP1 PUSH2 0x19FB JUMP JUMPDEST PUSH1 0x40 MLOAD DUP1 SWAP2 SUB SWAP1 LOG2 POP POP POP JUMP JUMPDEST PUSH1 0x0 PUSH1 0x1 SWAP1 POP SWAP4 SWAP3 POP POP POP JUMP JUMPDEST DUP3 DUP1 SLOAD PUSH2 0xFE6 SWAP1 PUSH2 0x17F0 JUMP JUMPDEST SWAP1 PUSH1 0x0 MSTORE PUSH1 0x20 PUSH1 0x0 KECCAK256 SWAP1 PUSH1 0x1F ADD PUSH1 0x20 SWAP1 DIV DUP2 ADD SWAP3 DUP3 PUSH2 0x1008 JUMPI PUSH1 0x0 DUP6 SSTORE PUSH2 0x104F JUMP JUMPDEST DUP3 PUSH1 0x1F LT PUSH2 0x1021 JUMPI DUP1 MLOAD PUSH1 0xFF NOT AND DUP4 DUP1 ADD OR DUP6 SSTORE PUSH2 0x104F JUMP JUMPDEST DUP3 DUP1 ADD PUSH1 0x1 ADD DUP6 SSTORE DUP3 ISZERO PUSH2 0x104F JUMPI SWAP2 DUP3 ADD JUMPDEST DUP3 DUP2 GT ISZERO PUSH2 0x104E JUMPI DUP3 MLOAD DUP3 SSTORE SWAP2 PUSH1 0x20 ADD SWAP2 SWAP1 PUSH1 0x1 ADD SWAP1 PUSH2 0x1033 JUMP JUMPDEST JUMPDEST POP SWAP1 POP PUSH2 0x105C SWAP2 SWAP1 PUSH2 0x10A3 JUMP JUMPDEST POP SWAP1 JUMP JUMPDEST PUSH1 0x40 MLOAD DUP1 PUSH1 0xA0 ADD PUSH1 0x40 MSTORE DUP1 PUSH1 0x0 DUP2 MSTORE PUSH1 0x20 ADD PUSH1 0x0 PUSH1 0x3 DUP2 GT ISZERO PUSH2 0x1086 JUMPI PUSH2 0x1085 PUSH2 0x144A JUMP JUMPDEST JUMPDEST DUP2 MSTORE PUSH1 0x20 ADD PUSH1 0x60 DUP2 MSTORE PUSH1 0x20 ADD PUSH1 0x60 DUP2 MSTORE PUSH1 0x20 ADD PUSH1 0x0 ISZERO ISZERO DUP2 MSTORE POP SWAP1 JUMP JUMPDEST JUMPDEST DUP1 DUP3 GT ISZERO PUSH2 0x10BC JUMPI PUSH1 0x0 DUP2 PUSH1 0x0 SWAP1 SSTORE POP PUSH1 0x1 ADD PUSH2 0x10A4 JUMP JUMPDEST POP SWAP1 JUMP JUMPDEST PUSH1 0x0 PUSH1 0x40 MLOAD SWAP1 POP SWAP1 JUMP JUMPDEST PUSH1 0x0 DUP1 REVERT JUMPDEST PUSH1 0x0 DUP1 REVERT JUMPDEST PUSH1 0x0 DUP2 SWAP1 POP SWAP2 SWAP1 POP JUMP JUMPDEST PUSH2 0x10E7 DUP2 PUSH2 0x10D4 JUMP JUMPDEST DUP2 EQ PUSH2 0x10F2 JUMPI PUSH1 0x0 DUP1 REVERT JUMPDEST POP JUMP JUMPDEST PUSH1 0x0 DUP2 CALLDATALOAD SWAP1 POP PUSH2 0x1104 DUP2 PUSH2 0x10DE JUMP JUMPDEST SWAP3 SWAP2 POP POP JUMP JUMPDEST PUSH1 0x0 DUP1 REVERT JUMPDEST PUSH1 0x0 DUP1 REVERT JUMPDEST PUSH1 0x0 PUSH1 0x1F NOT PUSH1 0x1F DUP4 ADD AND SWAP1 POP SWAP2 SWAP1 POP JUMP JUMPDEST PUSH32 0x4E487B7100000000000000000000000000000000000000000000000000000000 PUSH1 0x0 MSTORE PUSH1 0x41 PUSH1 0x4 MSTORE PUSH1 0x24 PUSH1 0x0 REVERT JUMPDEST PUSH2 0x115D DUP3 PUSH2 0x1114 JUMP JUMPDEST DUP2 ADD DUP2 DUP2 LT PUSH8 0xFFFFFFFFFFFFFFFF DUP3 GT OR ISZERO PUSH2 0x117C JUMPI PUSH2 0x117B PUSH2 0x1125 JUMP JUMPDEST JUMPDEST DUP1 PUSH1 0x40 MSTORE POP POP POP JUMP JUMPDEST PUSH1 0x0 PUSH2 0x118F PUSH2 0x10C0 JUMP JUMPDEST SWAP1 POP PUSH2 0x119B DUP3 DUP3 PUSH2 0x1154 JUMP JUMPDEST SWAP2 SWAP1 POP JUMP JUMPDEST PUSH1 0x0 PUSH8 0xFFFFFFFFFFFFFFFF DUP3 GT ISZERO PUSH2 0x11BB JUMPI PUSH2 0x11BA PUSH2 0x1125 JUMP JUMPDEST JUMPDEST PUSH2 0x11C4 DUP3 PUSH2 0x1114 JUMP JUMPDEST SWAP1 POP PUSH1 0x20 DUP2 ADD SWAP1 POP SWAP2 SWAP1 POP JUMP JUMPDEST DUP3 DUP2 DUP4 CALLDATACOPY PUSH1 0x0 DUP4 DUP4 ADD MSTORE POP POP POP JUMP JUMPDEST PUSH1 0x0 PUSH2 0x11F3 PUSH2 0x11EE DUP5 PUSH2 0x11A0 JUMP JUMPDEST PUSH2 0x1185 JUMP JUMPDEST SWAP1 POP DUP3 DUP2 MSTORE PUSH1 0x20 DUP2 ADD DUP5 DUP5 DUP5 ADD GT ISZERO PUSH2 0x120F JUMPI PUSH2 0x120E PUSH2 0x110F JUMP JUMPDEST JUMPDEST PUSH2 0x121A DUP5 DUP3 DUP6 PUSH2 0x11D1 JUMP JUMPDEST POP SWAP4 SWAP3 POP POP POP JUMP JUMPDEST PUSH1 0x0 DUP3 PUSH1 0x1F DUP4 ADD SLT PUSH2 0x1237 JUMPI PUSH2 0x1236 PUSH2 0x110A JUMP JUMPDEST JUMPDEST DUP2 CALLDATALOAD PUSH2 0x1247 DUP5 DUP3 PUSH1 0x20 DUP7 ADD PUSH2 0x11E0 JUMP JUMPDEST SWAP2 POP POP SWAP3 SWAP2 POP POP JUMP JUMPDEST PUSH1 0x0 PUSH8 0xFFFFFFFFFFFFFFFF DUP3 GT ISZERO PUSH2 0x126B JUMPI PUSH2 0x126A PUSH2 0x1125 JUMP JUMPDEST JUMPDEST PUSH2 0x1274 DUP3 PUSH2 0x1114 JUMP JUMPDEST SWAP1 POP PUSH1 0x20 DUP2 ADD SWAP1 POP SWAP2 SWAP1 POP JUMP JUMPDEST PUSH1 0x0 PUSH2 0x1294 PUSH2 0x128F DUP5 PUSH2 0x1250 JUMP JUMPDEST PUSH2 0x1185 JUMP JUMPDEST SWAP1 POP DUP3 DUP2 MSTORE PUSH1 0x20 DUP2 ADD DUP5 DUP5 DUP5 ADD GT ISZERO PUSH2 0x12B0 JUMPI PUSH2 0x12AF PUSH2 0x110F JUMP JUMPDEST JUMPDEST PUSH2 0x12BB DUP5 DUP3 DUP6 PUSH2 0x11D1 JUMP JUMPDEST POP SWAP4 SWAP3 POP POP POP JUMP JUMPDEST PUSH1 0x0 DUP3 PUSH1 0x1F DUP4 ADD SLT PUSH2 0x12D8 JUMPI PUSH2 0x12D7 PUSH2 0x110A JUMP JUMPDEST JUMPDEST DUP2 CALLDATALOAD PUSH2 0x12E8 DUP5 DUP3 PUSH1 0x20 DUP7 ADD PUSH2 0x1281 JUMP JUMPDEST SWAP2 POP POP SWAP3 SWAP2 POP POP JUMP JUMPDEST PUSH1 0x0 DUP1 PUSH1 0x0 PUSH1 0x60 DUP5 DUP7 SUB SLT ISZERO PUSH2 0x130A JUMPI PUSH2 0x1309 PUSH2 0x10CA JUMP JUMPDEST JUMPDEST PUSH1 0x0 PUSH2 0x1318 DUP7 DUP3 DUP8 ADD PUSH2 0x10F5 JUMP JUMPDEST SWAP4 POP POP PUSH1 0x20 DUP5 ADD CALLDATALOAD PUSH8 0xFFFFFFFFFFFFFFFF DUP2 GT ISZERO PUSH2 0x1339 JUMPI PUSH2 0x1338 PUSH2 0x10CF JUMP JUMPDEST JUMPDEST PUSH2 0x1345 DUP7 DUP3 DUP8 ADD PUSH2 0x1222 JUMP JUMPDEST SWAP3 POP POP PUSH1 0x40 DUP5 ADD CALLDATALOAD PUSH8 0xFFFFFFFFFFFFFFFF DUP2 GT ISZERO PUSH2 0x1366 JUMPI PUSH2 0x1365 PUSH2 0x10CF JUMP JUMPDEST JUMPDEST PUSH2 0x1372 DUP7 DUP3 DUP8 ADD PUSH2 0x12C3 JUMP JUMPDEST SWAP2 POP POP SWAP3 POP SWAP3 POP SWAP3 JUMP JUMPDEST PUSH1 0x0 PUSH1 0x20 DUP3 DUP5 SUB SLT ISZERO PUSH2 0x1392 JUMPI PUSH2 0x1391 PUSH2 0x10CA JUMP JUMPDEST JUMPDEST PUSH1 0x0 PUSH2 0x13A0 DUP5 DUP3 DUP6 ADD PUSH2 0x10F5 JUMP JUMPDEST SWAP2 POP POP SWAP3 SWAP2 POP POP JUMP JUMPDEST PUSH1 0x0 DUP2 ISZERO ISZERO SWAP1 POP SWAP2 SWAP1 POP JUMP JUMPDEST PUSH2 0x13BE DUP2 PUSH2 0x13A9 JUMP JUMPDEST DUP3 MSTORE POP POP JUMP JUMPDEST PUSH1 0x0 PUSH1 0x20 DUP3 ADD SWAP1 POP PUSH2 0x13D9 PUSH1 0x0 DUP4 ADD DUP5 PUSH2 0x13B5 JUMP JUMPDEST SWAP3 SWAP2 POP POP JUMP JUMPDEST PUSH1 0x0 DUP1 PUSH1 0x40 DUP4 DUP6 SUB SLT ISZERO PUSH2 0x13F6 JUMPI PUSH2 0x13F5 PUSH2 0x10CA JUMP JUMPDEST JUMPDEST PUSH1 0x0 PUSH2 0x1404 DUP6 DUP3 DUP7 ADD PUSH2 0x10F5 JUMP JUMPDEST SWAP3 POP POP PUSH1 0x20 DUP4 ADD CALLDATALOAD PUSH8 0xFFFFFFFFFFFFFFFF DUP2 GT ISZERO PUSH2 0x1425 JUMPI PUSH2 0x1424 PUSH2 0x10CF JUMP JUMPDEST JUMPDEST PUSH2 0x1431 DUP6 DUP3 DUP7 ADD PUSH2 0x1222 JUMP JUMPDEST SWAP2 POP POP SWAP3 POP SWAP3 SWAP1 POP JUMP JUMPDEST PUSH2 0x1444 DUP2 PUSH2 0x10D4 JUMP JUMPDEST DUP3 MSTORE POP POP JUMP JUMPDEST PUSH32 0x4E487B7100000000000000000000000000000000000000000000000000000000 PUSH1 0x0 MSTORE PUSH1 0x21 PUSH1 0x4 MSTORE PUSH1 0x24 PUSH1 0x0 REVERT JUMPDEST PUSH1 0x4 DUP2 LT PUSH2 0x148A JUMPI PUSH2 0x1489 PUSH2 0x144A JUMP JUMPDEST JUMPDEST POP JUMP JUMPDEST PUSH1 0x0 DUP2 SWAP1 POP PUSH2 0x149B DUP3 PUSH2 0x1479 JUMP JUMPDEST SWAP2 SWAP1 POP JUMP JUMPDEST PUSH1 0x0 PUSH2 0x14AB DUP3 PUSH2 0x148D JUMP JUMPDEST SWAP1 POP SWAP2 SWAP1 POP JUMP JUMPDEST PUSH2 0x14BB DUP2 PUSH2 0x14A0 JUMP JUMPDEST DUP3 MSTORE POP POP JUMP JUMPDEST PUSH1 0x0 DUP2 MLOAD SWAP1 POP SWAP2 SWAP1 POP JUMP JUMPDEST PUSH1 0x0 DUP3 DUP3 MSTORE PUSH1 0x20 DUP3 ADD SWAP1 POP SWAP3 SWAP2 POP POP JUMP JUMPDEST PUSH1 0x0 JUMPDEST DUP4 DUP2 LT ISZERO PUSH2 0x14FB JUMPI DUP1 DUP3 ADD MLOAD DUP2 DUP5 ADD MSTORE PUSH1 0x20 DUP2 ADD SWAP1 POP PUSH2 0x14E0 JUMP JUMPDEST DUP4 DUP2 GT ISZERO PUSH2 0x150A JUMPI PUSH1 0x0 DUP5 DUP5 ADD MSTORE JUMPDEST POP POP POP POP JUMP JUMPDEST PUSH1 0x0 PUSH2 0x151B DUP3 PUSH2 0x14C1 JUMP JUMPDEST PUSH2 0x1525 DUP2 DUP6 PUSH2 0x14CC JUMP JUMPDEST SWAP4 POP PUSH2 0x1535 DUP2 DUP6 PUSH1 0x20 DUP7 ADD PUSH2 0x14DD JUMP JUMPDEST PUSH2 0x153E DUP2 PUSH2 0x1114 JUMP JUMPDEST DUP5 ADD SWAP2 POP POP SWAP3 SWAP2 POP POP JUMP JUMPDEST PUSH2 0x1552 DUP2 PUSH2 0x13A9 JUMP JUMPDEST DUP3 MSTORE POP POP JUMP JUMPDEST PUSH1 0x0 PUSH1 0xA0 DUP4 ADD PUSH1 0x0 DUP4 ADD MLOAD PUSH2 0x1570 PUSH1 0x0 DUP7 ADD DUP3 PUSH2 0x143B JUMP JUMPDEST POP PUSH1 0x20 DUP4 ADD MLOAD PUSH2 0x1583 PUSH1 0x20 DUP7 ADD DUP3 PUSH2 0x14B2 JUMP JUMPDEST POP PUSH1 0x40 DUP4 ADD MLOAD DUP5 DUP3 SUB PUSH1 0x40 DUP7 ADD MSTORE PUSH2 0x159B DUP3 DUP3 PUSH2 0x1510 JUMP JUMPDEST SWAP2 POP POP PUSH1 0x60 DUP4 ADD MLOAD DUP5 DUP3 SUB PUSH1 0x60 DUP7 ADD MSTORE PUSH2 0x15B5 DUP3 DUP3 PUSH2 0x1510 JUMP JUMPDEST SWAP2 POP POP PUSH1 0x80 DUP4 ADD MLOAD PUSH2 0x15CA PUSH1 0x80 DUP7 ADD DUP3 PUSH2 0x1549 JUMP JUMPDEST POP DUP1 SWAP2 POP POP SWAP3 SWAP2 POP POP JUMP JUMPDEST PUSH1 0x0 PUSH1 0x20 DUP3 ADD SWAP1 POP DUP2 DUP2 SUB PUSH1 0x0 DUP4 ADD MSTORE PUSH2 0x15EF DUP2 DUP5 PUSH2 0x1558 JUMP JUMPDEST SWAP1 POP SWAP3 SWAP2 POP POP JUMP JUMPDEST PUSH1 0x0 DUP3 DUP3 MSTORE PUSH1 0x20 DUP3 ADD SWAP1 POP SWAP3 SWAP2 POP POP JUMP JUMPDEST PUSH32 0x4556544F4C207961207265676973747261646F00000000000000000000000000 PUSH1 0x0 DUP3 ADD MSTORE POP JUMP JUMPDEST PUSH1 0x0 PUSH2 0x163E PUSH1 0x13 DUP4 PUSH2 0x15F7 JUMP JUMPDEST SWAP2 POP PUSH2 0x1649 DUP3 PUSH2 0x1608 JUMP JUMPDEST PUSH1 0x20 DUP3 ADD SWAP1 POP SWAP2 SWAP1 POP JUMP JUMPDEST PUSH1 0x0 PUSH1 0x20 DUP3 ADD SWAP1 POP DUP2 DUP2 SUB PUSH1 0x0 DUP4 ADD MSTORE PUSH2 0x166D DUP2 PUSH2 0x1631 JUMP JUMPDEST SWAP1 POP SWAP2 SWAP1 POP JUMP JUMPDEST PUSH32 0x43726564656E6369616C206465204556544F4C20696E76616C69646100000000 PUSH1 0x0 DUP3 ADD MSTORE POP JUMP JUMPDEST PUSH1 0x0 PUSH2 0x16AA PUSH1 0x1C DUP4 PUSH2 0x15F7 JUMP JUMPDEST SWAP2 POP PUSH2 0x16B5 DUP3 PUSH2 0x1674 JUMP JUMPDEST PUSH1 0x20 DUP3 ADD SWAP1 POP SWAP2 SWAP1 POP JUMP JUMPDEST PUSH1 0x0 PUSH1 0x20 DUP3 ADD SWAP1 POP DUP2 DUP2 SUB PUSH1 0x0 DUP4 ADD MSTORE PUSH2 0x16D9 DUP2 PUSH2 0x169D JUMP JUMPDEST SWAP1 POP SWAP2 SWAP1 POP JUMP JUMPDEST PUSH1 0x0 PUSH2 0x16EB DUP3 PUSH2 0x14C1 JUMP JUMPDEST PUSH2 0x16F5 DUP2 DUP6 PUSH2 0x15F7 JUMP JUMPDEST SWAP4 POP PUSH2 0x1705 DUP2 DUP6 PUSH1 0x20 DUP7 ADD PUSH2 0x14DD JUMP JUMPDEST PUSH2 0x170E DUP2 PUSH2 0x1114 JUMP JUMPDEST DUP5 ADD SWAP2 POP POP SWAP3 SWAP2 POP POP JUMP JUMPDEST PUSH1 0x0 PUSH1 0x20 DUP3 ADD SWAP1 POP DUP2 DUP2 SUB PUSH1 0x0 DUP4 ADD MSTORE PUSH2 0x1733 DUP2 DUP5 PUSH2 0x16E0 JUMP JUMPDEST SWAP1 POP SWAP3 SWAP2 POP POP JUMP JUMPDEST PUSH2 0x1744 DUP2 PUSH2 0x14A0 JUMP JUMPDEST DUP3 MSTORE POP POP JUMP JUMPDEST POP JUMP JUMPDEST PUSH1 0x0 PUSH2 0x175A PUSH1 0x0 DUP4 PUSH2 0x15F7 JUMP JUMPDEST SWAP2 POP PUSH2 0x1765 DUP3 PUSH2 0x174A JUMP JUMPDEST PUSH1 0x0 DUP3 ADD SWAP1 POP SWAP2 SWAP1 POP JUMP JUMPDEST PUSH1 0x0 PUSH1 0x80 DUP3 ADD SWAP1 POP PUSH2 0x1785 PUSH1 0x0 DUP4 ADD DUP7 PUSH2 0x173B JUMP JUMPDEST PUSH2 0x1792 PUSH1 0x20 DUP4 ADD DUP6 PUSH2 0x173B JUMP JUMPDEST DUP2 DUP2 SUB PUSH1 0x40 DUP4 ADD MSTORE PUSH2 0x17A4 DUP2 DUP5 PUSH2 0x16E0 JUMP JUMPDEST SWAP1 POP DUP2 DUP2 SUB PUSH1 0x60 DUP4 ADD MSTORE PUSH2 0x17B7 DUP2 PUSH2 0x174D JUMP JUMPDEST SWAP1 POP SWAP5 SWAP4 POP POP POP POP JUMP JUMPDEST PUSH32 0x4E487B7100000000000000000000000000000000000000000000000000000000 PUSH1 0x0 MSTORE PUSH1 0x22 PUSH1 0x4 MSTORE PUSH1 0x24 PUSH1 0x0 REVERT JUMPDEST PUSH1 0x0 PUSH1 0x2 DUP3 DIV SWAP1 POP PUSH1 0x1 DUP3 AND DUP1 PUSH2 0x1808 JUMPI PUSH1 0x7F DUP3 AND SWAP2 POP JUMPDEST PUSH1 0x20 DUP3 LT DUP2 EQ ISZERO PUSH2 0x181C JUMPI PUSH2 0x181B PUSH2 0x17C1 JUMP JUMPDEST JUMPDEST POP SWAP2 SWAP1 POP JUMP JUMPDEST PUSH32 0x4556544F4C206E6F20656E636F6E747261646F00000000000000000000000000 PUSH1 0x0 DUP3 ADD MSTORE POP JUMP JUMPDEST PUSH1 0x0 PUSH2 0x1858 PUSH1 0x13 DUP4 PUSH2 0x15F7 JUMP JUMPDEST SWAP2 POP PUSH2 0x1863 DUP3 PUSH2 0x1822 JUMP JUMPDEST PUSH1 0x20 DUP3 ADD SWAP1 POP SWAP2 SWAP1 POP JUMP JUMPDEST PUSH1 0x0 PUSH1 0x20 DUP3 ADD SWAP1 POP DUP2 DUP2 SUB PUSH1 0x0 DUP4 ADD MSTORE PUSH2 0x1887 DUP2 PUSH2 0x184B JUMP JUMPDEST SWAP1 POP SWAP2 SWAP1 POP JUMP JUMPDEST PUSH32 0x4556544F4C206E6F206573746120455850454354494E47000000000000000000 PUSH1 0x0 DUP3 ADD MSTORE POP JUMP JUMPDEST PUSH1 0x0 PUSH2 0x18C4 PUSH1 0x17 DUP4 PUSH2 0x15F7 JUMP JUMPDEST SWAP2 POP PUSH2 0x18CF DUP3 PUSH2 0x188E JUMP JUMPDEST PUSH1 0x20 DUP3 ADD SWAP1 POP SWAP2 SWAP1 POP JUMP JUMPDEST PUSH1 0x0 PUSH1 0x20 DUP3 ADD SWAP1 POP DUP2 DUP2 SUB PUSH1 0x0 DUP4 ADD MSTORE PUSH2 0x18F3 DUP2 PUSH2 0x18B7 JUMP JUMPDEST SWAP1 POP SWAP2 SWAP1 POP JUMP JUMPDEST PUSH32 0x4E6F20686179207669616A652061637469766F00000000000000000000000000 PUSH1 0x0 DUP3 ADD MSTORE POP JUMP JUMPDEST PUSH1 0x0 PUSH2 0x1930 PUSH1 0x13 DUP4 PUSH2 0x15F7 JUMP JUMPDEST SWAP2 POP PUSH2 0x193B DUP3 PUSH2 0x18FA JUMP JUMPDEST PUSH1 0x20 DUP3 ADD SWAP1 POP SWAP2 SWAP1 POP JUMP JUMPDEST PUSH1 0x0 PUSH1 0x20 DUP3 ADD SWAP1 POP DUP2 DUP2 SUB PUSH1 0x0 DUP4 ADD MSTORE PUSH2 0x195F DUP2 PUSH2 0x1923 JUMP JUMPDEST SWAP1 POP SWAP2 SWAP1 POP JUMP JUMPDEST PUSH1 0x0 DUP2 SWAP1 POP DUP2 PUSH1 0x0 MSTORE PUSH1 0x20 PUSH1 0x0 KECCAK256 SWAP1 POP SWAP2 SWAP1 POP JUMP JUMPDEST PUSH1 0x0 DUP2 SLOAD PUSH2 0x1988 DUP2 PUSH2 0x17F0 JUMP JUMPDEST PUSH2 0x1992 DUP2 DUP7 PUSH2 0x15F7 JUMP JUMPDEST SWAP5 POP PUSH1 0x1 DUP3 AND PUSH1 0x0 DUP2 EQ PUSH2 0x19AD JUMPI PUSH1 0x1 DUP2 EQ PUSH2 0x19BF JUMPI PUSH2 0x19F2 JUMP JUMPDEST PUSH1 0xFF NOT DUP4 AND DUP7 MSTORE PUSH1 0x20 DUP7 ADD SWAP4 POP PUSH2 0x19F2 JUMP JUMPDEST PUSH2 0x19C8 DUP6 PUSH2 0x1966 JUMP JUMPDEST PUSH1 0x0 JUMPDEST DUP4 DUP2 LT ISZERO PUSH2 0x19EA JUMPI DUP2 SLOAD DUP2 DUP10 ADD MSTORE PUSH1 0x1 DUP3 ADD SWAP2 POP PUSH1 0x20 DUP2 ADD SWAP1 POP PUSH2 0x19CB JUMP JUMPDEST DUP1 DUP9 ADD SWAP6 POP POP POP JUMPDEST POP POP POP SWAP3 SWAP2 POP POP JUMP JUMPDEST PUSH1 0x0 PUSH1 0x80 DUP3 ADD SWAP1 POP PUSH2 0x1A10 PUSH1 0x0 DUP4 ADD DUP8 PUSH2 0x173B JUMP JUMPDEST PUSH2 0x1A1D PUSH1 0x20 DUP4 ADD DUP7 PUSH2 0x173B JUMP JUMPDEST DUP2 DUP2 SUB PUSH1 0x40 DUP4 ADD MSTORE PUSH2 0x1A2F DUP2 DUP6 PUSH2 0x197B JUMP JUMPDEST SWAP1 POP DUP2 DUP2 SUB PUSH1 0x60 DUP4 ADD MSTORE PUSH2 0x1A43 DUP2 DUP5 PUSH2 0x197B JUMP JUMPDEST SWAP1 POP SWAP6 SWAP5 POP POP POP POP POP JUMP JUMPDEST PUSH32 0x4556544F4C206E6F2065737461205041524B4544000000000000000000000000 PUSH1 0x0 DUP3 ADD MSTORE POP JUMP JUMPDEST PUSH1 0x0 PUSH2 0x1A84 PUSH1 0x14 DUP4 PUSH2 0x15F7 JUMP JUMPDEST SWAP2 POP PUSH2 0x1A8F DUP3 PUSH2 0x1A4E JUMP JUMPDEST PUSH1 0x20 DUP3 ADD SWAP1 POP SWAP2 SWAP1 POP JUMP JUMPDEST PUSH1 0x0 PUSH1 0x20 DUP3 ADD SWAP1 POP DUP2 DUP2 SUB PUSH1 0x0 DUP4 ADD MSTORE PUSH2 0x1AB3 DUP2 PUSH2 0x1A77 JUMP JUMPDEST SWAP1 POP SWAP2 SWAP1 POP JUMP JUMPDEST PUSH32 0x5961207469656E65207669616A652061637469766F0000000000000000000000 PUSH1 0x0 DUP3 ADD MSTORE POP JUMP JUMPDEST PUSH1 0x0 PUSH2 0x1AF0 PUSH1 0x15 DUP4 PUSH2 0x15F7 JUMP JUMPDEST SWAP2 POP PUSH2 0x1AFB DUP3 PUSH2 0x1ABA JUMP JUMPDEST PUSH1 0x20 DUP3 ADD SWAP1 POP SWAP2 SWAP1 POP JUMP JUMPDEST PUSH1 0x0 PUSH1 0x20 DUP3 ADD SWAP1 POP DUP2 DUP2 SUB PUSH1 0x0 DUP4 ADD MSTORE PUSH2 0x1B1F DUP2 PUSH2 0x1AE3 JUMP JUMPDEST SWAP1 POP SWAP2 SWAP1 POP JUMP JUMPDEST PUSH32 0x74726970496420766163696F0000000000000000000000000000000000000000 PUSH1 0x0 DUP3 ADD MSTORE POP JUMP JUMPDEST PUSH1 0x0 PUSH2 0x1B5C PUSH1 0xC DUP4 PUSH2 0x15F7 JUMP JUMPDEST SWAP2 POP PUSH2 0x1B67 DUP3 PUSH2 0x1B26 JUMP JUMPDEST PUSH1 0x20 DUP3 ADD SWAP1 POP SWAP2 SWAP1 POP JUMP JUMPDEST PUSH1 0x0 PUSH1 0x20 DUP3 ADD SWAP1 POP DUP2 DUP2 SUB PUSH1 0x0 DUP4 ADD MSTORE PUSH2 0x1B8B DUP2 PUSH2 0x1B4F JUMP JUMPDEST SWAP1 POP SWAP2 SWAP1 POP JUMP JUMPDEST PUSH32 0x4556544F4C206E6F206573746120494E5F555345000000000000000000000000 PUSH1 0x0 DUP3 ADD MSTORE POP JUMP JUMPDEST PUSH1 0x0 PUSH2 0x1BC8 PUSH1 0x14 DUP4 PUSH2 0x15F7 JUMP JUMPDEST SWAP2 POP PUSH2 0x1BD3 DUP3 PUSH2 0x1B92 JUMP JUMPDEST PUSH1 0x20 DUP3 ADD SWAP1 POP SWAP2 SWAP1 POP JUMP JUMPDEST PUSH1 0x0 PUSH1 0x20 DUP3 ADD SWAP1 POP DUP2 DUP2 SUB PUSH1 0x0 DUP4 ADD MSTORE PUSH2 0x1BF7 DUP2 PUSH2 0x1BBB JUMP JUMPDEST SWAP1 POP SWAP2 SWAP1 POP JUMP JUMPDEST PUSH32 0x4556544F4C206E6F206573746120656E204D41494E54454E414E434500000000 PUSH1 0x0 DUP3 ADD MSTORE POP JUMP JUMPDEST PUSH1 0x0 PUSH2 0x1C34 PUSH1 0x1C DUP4 PUSH2 0x15F7 JUMP JUMPDEST SWAP2 POP PUSH2 0x1C3F DUP3 PUSH2 0x1BFE JUMP JUMPDEST PUSH1 0x20 DUP3 ADD SWAP1 POP SWAP2 SWAP1 POP JUMP JUMPDEST PUSH1 0x0 PUSH1 0x20 DUP3 ADD SWAP1 POP DUP2 DUP2 SUB PUSH1 0x0 DUP4 ADD MSTORE PUSH2 0x1C63 DUP2 PUSH2 0x1C27 JUMP JUMPDEST SWAP1 POP SWAP2 SWAP1 POP JUMP JUMPDEST PUSH32 0x536F6C6F205041524B45442070756564652069722061204D41494E54454E414E PUSH1 0x0 DUP3 ADD MSTORE PUSH32 0x4345000000000000000000000000000000000000000000000000000000000000 PUSH1 0x20 DUP3 ADD MSTORE POP JUMP JUMPDEST PUSH1 0x0 PUSH2 0x1CC6 PUSH1 0x22 DUP4 PUSH2 0x15F7 JUMP JUMPDEST SWAP2 POP PUSH2 0x1CD1 DUP3 PUSH2 0x1C6A JUMP JUMPDEST PUSH1 0x40 DUP3 ADD SWAP1 POP SWAP2 SWAP1 POP JUMP JUMPDEST PUSH1 0x0 PUSH1 0x20 DUP3 ADD SWAP1 POP DUP2 DUP2 SUB PUSH1 0x0 DUP4 ADD MSTORE PUSH2 0x1CF5 DUP2 PUSH2 0x1CB9 JUMP JUMPDEST SWAP1 POP SWAP2 SWAP1 POP JUMP JUMPDEST PUSH32 0x4E6F20646562652074656E6572207669616A652061637469766F000000000000 PUSH1 0x0 DUP3 ADD MSTORE POP JUMP JUMPDEST PUSH1 0x0 PUSH2 0x1D32 PUSH1 0x1A DUP4 PUSH2 0x15F7 JUMP JUMPDEST SWAP2 POP PUSH2 0x1D3D DUP3 PUSH2 0x1CFC JUMP JUMPDEST PUSH1 0x20 DUP3 ADD SWAP1 POP SWAP2 SWAP1 POP JUMP JUMPDEST PUSH1 0x0 PUSH1 0x20 DUP3 ADD SWAP1 POP DUP2 DUP2 SUB PUSH1 0x0 DUP4 ADD MSTORE PUSH2 0x1D61 DUP2 PUSH2 0x1D25 JUMP JUMPDEST SWAP1 POP SWAP2 SWAP1 POP JUMP INVALID LOG2 PUSH5 0x6970667358 0x22 SLT KECCAK256 AND CODECOPY PUSH30 0xC8D8FD3F8AE3AE905FB76901586B7805C522DCE050A6E9F9D76613B81564 PUSH20 0x6F6C634300080A00330000000000000000000000 "
    },
    "gasEstimates": {
      "creation": {
        "codeDepositCost": "1516400",
        "executionCost": "1582",
        "totalCost": "1517982"
      },
      "external": {
        "assignToTrip(uint256,string)": "infinite",
        "completeTrip(uint256,string)": "infinite",
        "finishMaintenance(uint256)": "infinite",
        "getEVTOL(uint256)": "infinite",
        "isAvailable(uint256)": "7374",
        "registerEVTOL(uint256,string,bytes)": "infinite",
        "setMaintenance(uint256)": "infinite",
        "startTrip(uint256)": "infinite"
      },
      "internal": {
        "verifyCredentialSignature(bytes memory,string memory,string memory)": "32"
      }
    },
    "methodIdentifiers": {
      "assignToTrip(uint256,string)": "864980de",
      "completeTrip(uint256,string)": "9283e047",
      "finishMaintenance(uint256)": "a6341cbc",
      "getEVTOL(uint256)": "9af81ece",
      "isAvailable(uint256)": "3a178d99",
      "registerEVTOL(uint256,string,bytes)": "1e9b739c",
      "setMaintenance(uint256)": "b72dbe9f",
      "startTrip(uint256)": "3dde315e"
    }
  },
  "storageLayout": {
    "storage": [
      {
        "astId": 24,
        "contract": "EVTOLManagement.sol:EVTOLManagement",
        "label": "evtols",
        "offset": 0,
        "slot": "0",
        "type": "t_mapping(t_uint256,t_struct(EVTOL)19_storage)"
      }
    ],
    "types": {
      "t_bool": {
        "encoding": "inplace",
        "label": "bool",
        "numberOfBytes": "1"
      },
      "t_enum(EVTOLState)7": {
        "encoding": "inplace",
        "label": "enum EVTOLManagement.EVTOLState",
        "numberOfBytes": "1"
      },
      "t_mapping(t_uint256,t_struct(EVTOL)19_storage)": {
        "encoding": "mapping",
        "key": "t_uint256",
        "label": "mapping(uint256 => struct EVTOLManagement.EVTOL)",
        "numberOfBytes": "32",
        "value": "t_struct(EVTOL)19_storage"
      },
      "t_string_storage": {
        "encoding": "bytes",
        "label": "string",
        "numberOfBytes": "32"
      },
      "t_struct(EVTOL)19_storage": {
        "encoding": "inplace",
        "label": "struct EVTOLManagement.EVTOL",
        "members": [
          {
            "astId": 9,
            "contract": "EVTOLManagement.sol:EVTOLManagement",
            "label": "id",
            "offset": 0,
            "slot": "0",
            "type": "t_uint256"
          },
          {
            "astId": 12,
            "contract": "EVTOLManagement.sol:EVTOLManagement",
            "label": "state",
            "offset": 0,
            "slot": "1",
            "type": "t_enum(EVTOLState)7"
          },
          {
            "astId": 14,
            "contract": "EVTOLManagement.sol:EVTOLManagement",
            "label": "currentVertiportId",
            "offset": 0,
            "slot": "2",
            "type": "t_string_storage"
          },
          {
            "astId": 16,
            "contract": "EVTOLManagement.sol:EVTOLManagement",
            "label": "activeTripId",
            "offset": 0,
            "slot": "3",
            "type": "t_string_storage"
          },
          {
            "astId": 18,
            "contract": "EVTOLManagement.sol:EVTOLManagement",
            "label": "exists",
            "offset": 0,
            "slot": "4",
            "type": "t_bool"
          }
        ],
        "numberOfBytes": "160"
      },
      "t_uint256": {
        "encoding": "inplace",
        "label": "uint256",
        "numberOfBytes": "32"
      }
    }
  },
  "userdoc": {
    "kind": "user",
    "methods": {
      "assignToTrip(uint256,string)": {
        "notice": "Asigna un eVTOL a un viaje y lo pone en estado EXPECTING."
      },
      "completeTrip(uint256,string)": {
        "notice": "Completa el viaje y estaciona el eVTOL en el vertiport destino."
      },
      "finishMaintenance(uint256)": {
        "notice": "Saca al eVTOL de mantenimiento y lo deja PARKED."
      },
      "getEVTOL(uint256)": {
        "notice": "Devuelve la info de un eVTOL."
      },
      "isAvailable(uint256)": {
        "notice": "Devuelve true si el eVTOL esta PARKED y sin viaje activo (apto para asignar)."
      },
      "registerEVTOL(uint256,string,bytes)": {
        "notice": "Registra un nuevo eVTOL en estado PARKED en un vertiport."
      },
      "setMaintenance(uint256)": {
        "notice": "Pone el eVTOL en mantenimiento (no puede aceptar viajes)."
      },
      "startTrip(uint256)": {
        "notice": "Marca que el eVTOL inicia el vuelo para el viaje asignado."
      }
    },
    "notice": "Mantiene el estado operativo y la ubicación actual de cada eVTOL.",
    "version": 1
  }
}