{
  "abi": [
    {
      "inputs": [
        {
          "internalType": "address",
          "name": "userVerificationAddress",
          "type": "address"
        },
        {
          "internalType": "address",
          "name": "vertiportManagementAddress",
          "type": "address"
        },
        {
          "internalType": "address",
          "name": "evtolManagementAddress",
          "type": "address"
        }
      ],
      "stateMutability": "nonpayable",
      "type": "constructor"
    },
    {
      "anonymous": false,
      "inputs": [
        {
          "indexed": true,
          "internalType": "string",
          "name": "tripId",
          "type": "string"
        },
        {
          "indexed": true,
          "internalType": "address",
          "name": "rider",
          "type": "address"
        },
        {
          "indexed": false,
          "internalType": "string",
          "name": "originVertiportId",
          "type": "string"
        },
        {
          "indexed": false,
          "internalType": "string",
          "name": "destinationVertiportId",
          "type": "string"
        },
        {
          "indexed": false,
          "internalType": "uint256",
          "name": "evtolId",
          "type": "uint256"
        }
      ],
      "name": "TripCreated",
      "type": "event"
    },
    {
      "anonymous": false,
      "inputs": [
        {
          "indexed": true,
          "internalType": "string",
          "name": "tripId",
          "type": "string"
        },
        {
          "indexed": false,
          "internalType": "enum FlightReservation.TripStatus",
          "name": "previousStatus",
          "type": "uint8"
        },
        {
          "indexed": false,
          "internalType": "enum FlightReservation.TripStatus",
          "name": "newStatus",
          "type": "uint8"
        }
      ],
      "name": "TripStatusUpdated",
      "type": "event"
    },
    {
      "inputs": [],
      "name": "admin",
      "outputs": [
        {
          "internalType": "address",
          "name": "",
          "type": "address"
        }
      ],
      "stateMutability": "view",
      "type": "function"
    },
    {
      "inputs": [
        {
          "internalType": "string",
          "name": "tripId",
          "type": "string"
        }
      ],
      "name": "cancelTrip",
      "outputs": [],
      "stateMutability": "nonpayable",
      "type": "function"
    },
    {
      "inputs": [
        {
          "internalType": "string",
          "name": "tripId",
          "type": "string"
        },
        {
          "internalType": "bytes",
          "name": "destinationVertiportCredential",
          "type": "bytes"
        }
      ],
      "name": "completeTrip",
      "outputs": [],
      "stateMutability": "nonpayable",
      "type": "function"
    },
    {
      "inputs": [
        {
          "internalType": "string",
          "name": "tripId",
          "type": "string"
        },
        {
          "internalType": "address",
          "name": "rider",
          "type": "address"
        },
        {
          "internalType": "string",
          "name": "originVertiportId",
          "type": "string"
        },
        {
          "internalType": "string",
          "name": "destinationVertiportId",
          "type": "string"
        },
        {
          "internalType": "uint256",
          "name": "evtolId",
          "type": "uint256"
        },
        {
          "internalType": "bytes",
          "name": "userCredential",
          "type": "bytes"
        },
        {
          "internalType": "bytes",
          "name": "originVertiportCredential",
          "type": "bytes"
        },
        {
          "internalType": "bytes",
          "name": "evtolCredential",
          "type": "bytes"
        }
      ],
      "name": "createReservation",
      "outputs": [],
      "stateMutability": "nonpayable",
      "type": "function"
    },
    {
      "inputs": [],
      "name": "evtolManagement",
      "outputs": [
        {
          "internalType": "contract IEVTOLManagement",
          "name": "",
          "type": "address"
        }
      ],
      "stateMutability": "view",
      "type": "function"
    },
    {
      "inputs": [
        {
          "internalType": "string",
          "name": "tripId",
          "type": "string"
        }
      ],
      "name": "getTrip",
      "outputs": [
        {
          "components": [
            {
              "internalType": "string",
              "name": "id",
              "type": "string"
            },
            {
              "internalType": "address",
              "name": "rider",
              "type": "address"
            },
            {
              "internalType": "string",
              "name": "originVertiportId",
              "type": "string"
            },
            {
              "internalType": "string",
              "name": "destinationVertiportId",
              "type": "string"
            },
            {
              "internalType": "uint256",
              "name": "evtolId",
              "type": "uint256"
            },
            {
              "internalType": "enum FlightReservation.TripStatus",
              "name": "status",
              "type": "uint8"
            },
            {
              "internalType": "uint256",
              "name": "createdAt",
              "type": "uint256"
            },
            {
              "internalType": "bool",
              "name": "exists",
              "type": "bool"
            }
          ],
          "internalType": "struct FlightReservation.Trip",
          "name": "",
          "type": "tuple"
        }
      ],
      "stateMutability": "view",
      "type": "function"
    },
    {
      "inputs": [
        {
          "internalType": "address",
          "name": "newAdmin",
          "type": "address"
        }
      ],
      "name": "setAdmin",
      "outputs": [],
      "stateMutability": "nonpayable",
      "type": "function"
    },
    {
      "inputs": [
        {
          "internalType": "string",
          "name": "tripId",
          "type": "string"
        },
        {
          "internalType": "bytes",
          "name": "originVertiportCredential",
          "type": "bytes"
        }
      ],
      "name": "startTrip",
      "outputs": [],
      "stateMutability": "nonpayable",
      "type": "function"
    },
    {
      "inputs": [],
      "name": "userVerification",
      "outputs": [
        {
          "internalType": "contract IUserVerification",
          "name": "",
          "type": "address"
        }
      ],
      "stateMutability": "view",
      "type": "function"
    },
    {
      "inputs": [],
      "name": "vertiportManagement",
      "outputs": [
        {
          "internalType": "contract IVertiportManagement",
          "name": "",
          "type": "address"
        }
      ],
      "stateMutability": "view",
      "type": "function"
    }
  ],
  "devdoc": {
    "kind": "dev",
    "methods": {
      "cancelTrip(string)": {
        "details": "No tocamos aqui los recursos fisicos; esa logica puedes ampliarla despues."
      },
      "completeTrip(string,bytes)": {
        "details": "Simplificacion: se ocupa 1 parking en vertiport destino cuando el EVTOL llega.",
        "params": {
          "destinationVertiportCredential": "Credencial SSI mock del vertiport destino.",
          "tripId": "Id del viaje."
        }
      },
      "createReservation(string,address,string,string,uint256,bytes,bytes,bytes)": {
        "details": "Simplificacion: asumimos que backend ya eligio el eVTOL concreto.",
        "params": {
          "destinationVertiportId": "Id del vertiport de destino.",
          "evtolCredential": "Credencial SSI mock del eVTOL.",
          "evtolId": "Id del eVTOL asignado.",
          "originVertiportCredential": "Credencial SSI mock del vertiport origen.",
          "originVertiportId": "Id del vertiport de origen.",
          "rider": "Address del usuario que va a viajar.",
          "tripId": "Id logico del viaje (unico).",
          "userCredential": "Credencial SSI mock del usuario (ya verificada off-chain)."
        }
      },
      "startTrip(string,bytes)": {
        "details": "Simplificacion: se libera 1 parking en vertiport origen cuando el EVTOL despega.",
        "params": {
          "originVertiportCredential": "Credencial SSI mock del vertiport origen.",
          "tripId": "Id del viaje."
        }
      }
    },
    "title": "Contrato de reserva de viajes",
    "version": 1
  },
  "evm": {
    "assembly": "    /* \"FlightReservation.sol\":1168:9591  contract FlightReservation {... */\n  mstore(0x40, 0x80)\n    /* \"FlightReservation.sol\":2288:2945  constructor(... */\n  callvalue\n  dup1\n  iszero\n  tag_1\n  jumpi\n  0x00\n  dup1\n  revert\ntag_1:\n  pop\n  mload(0x40)\n  sub(codesize, bytecodeSize)\n  dup1\n  bytecodeSize\n  dup4\n  codecopy\n  dup2\n  dup2\n  add\n  0x40\n  mstore\n  dup2\n  add\n  swap1\n  tag_2\n  swap2\n  swap1\n  tag_3\n  jump\t// in\ntag_2:\n    /* \"FlightReservation.sol\":2484:2485  0 */\n  0x00\n    /* \"FlightReservation.sol\":2449:2486  userVerificationAddress != address(0) */\n  0xffffffffffffffffffffffffffffffffffffffff\n  and\n    /* \"FlightReservation.sol\":2449:2472  userVerificationAddress */\n  dup4\n    /* \"FlightReservation.sol\":2449:2486  userVerificationAddress != address(0) */\n  0xffffffffffffffffffffffffffffffffffffffff\n  and\n  eq\n  iszero\n    /* \"FlightReservation.sol\":2441:2516  require(userVerificationAddress != address(0), \"UserVerification invalido\") */\n  tag_6\n  jumpi\n  mload(0x40)\n  0x08c379a000000000000000000000000000000000000000000000000000000000\n  dup2\n  mstore\n  0x04\n  add\n  tag_7\n  swap1\n  tag_8\n  jump\t// in\ntag_7:\n  mload(0x40)\n  dup1\n  swap2\n  sub\n  swap1\n  revert\ntag_6:\n    /* \"FlightReservation.sol\":2572:2573  0 */\n  0x00\n    /* \"FlightReservation.sol\":2534:2574  vertiportManagementAddress != address(0) */\n  0xffffffffffffffffffffffffffffffffffffffff\n  and\n    /* \"FlightReservation.sol\":2534:2560  vertiportManagementAddress */\n  dup3\n    /* \"FlightReservation.sol\":2534:2574  vertiportManagementAddress != address(0) */\n  0xffffffffffffffffffffffffffffffffffffffff\n  and\n  eq\n  iszero\n    /* \"FlightReservation.sol\":2526:2607  require(vertiportManagementAddress != address(0), \"VertiportManagement invalido\") */\n  tag_9\n  jumpi\n  mload(0x40)\n  0x08c379a000000000000000000000000000000000000000000000000000000000\n  dup2\n  mstore\n  0x04\n  add\n  tag_10\n  swap1\n  tag_11\n  jump\t// in\ntag_10:\n  mload(0x40)\n  dup1\n  swap2\n  sub\n  swap1\n  revert\ntag_9:\n    /* \"FlightReservation.sol\":2659:2660  0 */\n  0x00\n    /* \"FlightReservation.sol\":2625:2661  evtolManagementAddress != address(0) */\n  0xffffffffffffffffffffffffffffffffffffffff\n  and\n    /* \"FlightReservation.sol\":2625:2647  evtolManagementAddress */\n  dup2\n    /* \"FlightReservation.sol\":2625:2661  evtolManagementAddress != address(0) */\n  0xffffffffffffffffffffffffffffffffffffffff\n  and\n  eq\n  iszero\n    /* \"FlightReservation.sol\":2617:2690  require(evtolManagementAddress != address(0), \"EVTOLManagement invalido\") */\n  tag_12\n  jumpi\n  mload(0x40)\n  0x08c379a000000000000000000000000000000000000000000000000000000000\n  dup2\n  mstore\n  0x04\n  add\n  tag_13\n  swap1\n  tag_14\n  jump\t// in\ntag_13:\n  mload(0x40)\n  dup1\n  swap2\n  sub\n  swap1\n  revert\ntag_12:\n    /* \"FlightReservation.sol\":2709:2719  msg.sender */\n  caller\n    /* \"FlightReservation.sol\":2701:2706  admin */\n  0x03\n  0x00\n    /* \"FlightReservation.sol\":2701:2719  admin = msg.sender */\n  0x0100\n  exp\n  dup2\n  sload\n  dup2\n  0xffffffffffffffffffffffffffffffffffffffff\n  mul\n  not\n  and\n  swap1\n  dup4\n  0xffffffffffffffffffffffffffffffffffffffff\n  and\n  mul\n  or\n  swap1\n  sstore\n  pop\n    /* \"FlightReservation.sol\":2766:2789  userVerificationAddress */\n  dup3\n    /* \"FlightReservation.sol\":2729:2745  userVerification */\n  0x00\n  dup1\n    /* \"FlightReservation.sol\":2729:2790  userVerification = IUserVerification(userVerificationAddress) */\n  0x0100\n  exp\n  dup2\n  sload\n  dup2\n  0xffffffffffffffffffffffffffffffffffffffff\n  mul\n  not\n  and\n  swap1\n  dup4\n  0xffffffffffffffffffffffffffffffffffffffff\n  and\n  mul\n  or\n  swap1\n  sstore\n  pop\n    /* \"FlightReservation.sol\":2843:2869  vertiportManagementAddress */\n  dup2\n    /* \"FlightReservation.sol\":2800:2819  vertiportManagement */\n  0x01\n  0x00\n    /* \"FlightReservation.sol\":2800:2870  vertiportManagement = IVertiportManagement(vertiportManagementAddress) */\n  0x0100\n  exp\n  dup2\n  sload\n  dup2\n  0xffffffffffffffffffffffffffffffffffffffff\n  mul\n  not\n  and\n  swap1\n  dup4\n  0xffffffffffffffffffffffffffffffffffffffff\n  and\n  mul\n  or\n  swap1\n  sstore\n  pop\n    /* \"FlightReservation.sol\":2915:2937  evtolManagementAddress */\n  dup1\n    /* \"FlightReservation.sol\":2880:2895  evtolManagement */\n  0x02\n  0x00\n    /* \"FlightReservation.sol\":2880:2938  evtolManagement = IEVTOLManagement(evtolManagementAddress) */\n  0x0100\n  exp\n  dup2\n  sload\n  dup2\n  0xffffffffffffffffffffffffffffffffffffffff\n  mul\n  not\n  and\n  swap1\n  dup4\n  0xffffffffffffffffffffffffffffffffffffffff\n  and\n  mul\n  or\n  swap1\n  sstore\n  pop\n    /* \"FlightReservation.sol\":2288:2945  constructor(... */\n  pop\n  pop\n  pop\n    /* \"FlightReservation.sol\":1168:9591  contract FlightReservation {... */\n  jump(tag_15)\n    /* \"#utility.yul\":88:205   */\ntag_17:\n    /* \"#utility.yul\":197:198   */\n  0x00\n    /* \"#utility.yul\":194:195   */\n  dup1\n    /* \"#utility.yul\":187:199   */\n  revert\n    /* \"#utility.yul\":334:460   */\ntag_19:\n    /* \"#utility.yul\":371:378   */\n  0x00\n    /* \"#utility.yul\":411:453   */\n  0xffffffffffffffffffffffffffffffffffffffff\n    /* \"#utility.yul\":404:409   */\n  dup3\n    /* \"#utility.yul\":400:454   */\n  and\n    /* \"#utility.yul\":389:454   */\n  swap1\n  pop\n    /* \"#utility.yul\":334:460   */\n  swap2\n  swap1\n  pop\n  jump\t// out\n    /* \"#utility.yul\":466:562   */\ntag_20:\n    /* \"#utility.yul\":503:510   */\n  0x00\n    /* \"#utility.yul\":532:556   */\n  tag_36\n    /* \"#utility.yul\":550:555   */\n  dup3\n    /* \"#utility.yul\":532:556   */\n  tag_19\n  jump\t// in\ntag_36:\n    /* \"#utility.yul\":521:556   */\n  swap1\n  pop\n    /* \"#utility.yul\":466:562   */\n  swap2\n  swap1\n  pop\n  jump\t// out\n    /* \"#utility.yul\":568:690   */\ntag_21:\n    /* \"#utility.yul\":641:665   */\n  tag_38\n    /* \"#utility.yul\":659:664   */\n  dup2\n    /* \"#utility.yul\":641:665   */\n  tag_20\n  jump\t// in\ntag_38:\n    /* \"#utility.yul\":634:639   */\n  dup2\n    /* \"#utility.yul\":631:666   */\n  eq\n    /* \"#utility.yul\":621:684   */\n  tag_39\n  jumpi\n    /* \"#utility.yul\":680:681   */\n  0x00\n    /* \"#utility.yul\":677:678   */\n  dup1\n    /* \"#utility.yul\":670:682   */\n  revert\n    /* \"#utility.yul\":621:684   */\ntag_39:\n    /* \"#utility.yul\":568:690   */\n  pop\n  jump\t// out\n    /* \"#utility.yul\":696:839   */\ntag_22:\n    /* \"#utility.yul\":753:758   */\n  0x00\n    /* \"#utility.yul\":784:790   */\n  dup2\n    /* \"#utility.yul\":778:791   */\n  mload\n    /* \"#utility.yul\":769:791   */\n  swap1\n  pop\n    /* \"#utility.yul\":800:833   */\n  tag_41\n    /* \"#utility.yul\":827:832   */\n  dup2\n    /* \"#utility.yul\":800:833   */\n  tag_21\n  jump\t// in\ntag_41:\n    /* \"#utility.yul\":696:839   */\n  swap3\n  swap2\n  pop\n  pop\n  jump\t// out\n    /* \"#utility.yul\":845:1508   */\ntag_3:\n    /* \"#utility.yul\":933:939   */\n  0x00\n    /* \"#utility.yul\":941:947   */\n  dup1\n    /* \"#utility.yul\":949:955   */\n  0x00\n    /* \"#utility.yul\":998:1000   */\n  0x60\n    /* \"#utility.yul\":986:995   */\n  dup5\n    /* \"#utility.yul\":977:984   */\n  dup7\n    /* \"#utility.yul\":973:996   */\n  sub\n    /* \"#utility.yul\":969:1001   */\n  slt\n    /* \"#utility.yul\":966:1085   */\n  iszero\n  tag_43\n  jumpi\n    /* \"#utility.yul\":1004:1083   */\n  tag_44\n  tag_17\n  jump\t// in\ntag_44:\n    /* \"#utility.yul\":966:1085   */\ntag_43:\n    /* \"#utility.yul\":1124:1125   */\n  0x00\n    /* \"#utility.yul\":1149:1213   */\n  tag_45\n    /* \"#utility.yul\":1205:1212   */\n  dup7\n    /* \"#utility.yul\":1196:1202   */\n  dup3\n    /* \"#utility.yul\":1185:1194   */\n  dup8\n    /* \"#utility.yul\":1181:1203   */\n  add\n    /* \"#utility.yul\":1149:1213   */\n  tag_22\n  jump\t// in\ntag_45:\n    /* \"#utility.yul\":1139:1213   */\n  swap4\n  pop\n    /* \"#utility.yul\":1095:1223   */\n  pop\n    /* \"#utility.yul\":1262:1264   */\n  0x20\n    /* \"#utility.yul\":1288:1352   */\n  tag_46\n    /* \"#utility.yul\":1344:1351   */\n  dup7\n    /* \"#utility.yul\":1335:1341   */\n  dup3\n    /* \"#utility.yul\":1324:1333   */\n  dup8\n    /* \"#utility.yul\":1320:1342   */\n  add\n    /* \"#utility.yul\":1288:1352   */\n  tag_22\n  jump\t// in\ntag_46:\n    /* \"#utility.yul\":1278:1352   */\n  swap3\n  pop\n    /* \"#utility.yul\":1233:1362   */\n  pop\n    /* \"#utility.yul\":1401:1403   */\n  0x40\n    /* \"#utility.yul\":1427:1491   */\n  tag_47\n    /* \"#utility.yul\":1483:1490   */\n  dup7\n    /* \"#utility.yul\":1474:1480   */\n  dup3\n    /* \"#utility.yul\":1463:1472   */\n  dup8\n    /* \"#utility.yul\":1459:1481   */\n  add\n    /* \"#utility.yul\":1427:1491   */\n  tag_22\n  jump\t// in\ntag_47:\n    /* \"#utility.yul\":1417:1491   */\n  swap2\n  pop\n    /* \"#utility.yul\":1372:1501   */\n  pop\n    /* \"#utility.yul\":845:1508   */\n  swap3\n  pop\n  swap3\n  pop\n  swap3\n  jump\t// out\n    /* \"#utility.yul\":1514:1683   */\ntag_23:\n    /* \"#utility.yul\":1598:1609   */\n  0x00\n    /* \"#utility.yul\":1632:1638   */\n  dup3\n    /* \"#utility.yul\":1627:1630   */\n  dup3\n    /* \"#utility.yul\":1620:1639   */\n  mstore\n    /* \"#utility.yul\":1672:1676   */\n  0x20\n    /* \"#utility.yul\":1667:1670   */\n  dup3\n    /* \"#utility.yul\":1663:1677   */\n  add\n    /* \"#utility.yul\":1648:1677   */\n  swap1\n  pop\n    /* \"#utility.yul\":1514:1683   */\n  swap3\n  swap2\n  pop\n  pop\n  jump\t// out\n    /* \"#utility.yul\":1689:1864   */\ntag_24:\n    /* \"#utility.yul\":1829:1856   */\n  0x55736572566572696669636174696f6e20696e76616c69646f00000000000000\n    /* \"#utility.yul\":1825:1826   */\n  0x00\n    /* \"#utility.yul\":1817:1823   */\n  dup3\n    /* \"#utility.yul\":1813:1827   */\n  add\n    /* \"#utility.yul\":1806:1857   */\n  mstore\n    /* \"#utility.yul\":1689:1864   */\n  pop\n  jump\t// out\n    /* \"#utility.yul\":1870:2236   */\ntag_25:\n    /* \"#utility.yul\":2012:2015   */\n  0x00\n    /* \"#utility.yul\":2033:2100   */\n  tag_51\n    /* \"#utility.yul\":2097:2099   */\n  0x19\n    /* \"#utility.yul\":2092:2095   */\n  dup4\n    /* \"#utility.yul\":2033:2100   */\n  tag_23\n  jump\t// in\ntag_51:\n    /* \"#utility.yul\":2026:2100   */\n  swap2\n  pop\n    /* \"#utility.yul\":2109:2202   */\n  tag_52\n    /* \"#utility.yul\":2198:2201   */\n  dup3\n    /* \"#utility.yul\":2109:2202   */\n  tag_24\n  jump\t// in\ntag_52:\n    /* \"#utility.yul\":2227:2229   */\n  0x20\n    /* \"#utility.yul\":2222:2225   */\n  dup3\n    /* \"#utility.yul\":2218:2230   */\n  add\n    /* \"#utility.yul\":2211:2230   */\n  swap1\n  pop\n    /* \"#utility.yul\":1870:2236   */\n  swap2\n  swap1\n  pop\n  jump\t// out\n    /* \"#utility.yul\":2242:2661   */\ntag_8:\n    /* \"#utility.yul\":2408:2412   */\n  0x00\n    /* \"#utility.yul\":2446:2448   */\n  0x20\n    /* \"#utility.yul\":2435:2444   */\n  dup3\n    /* \"#utility.yul\":2431:2449   */\n  add\n    /* \"#utility.yul\":2423:2449   */\n  swap1\n  pop\n    /* \"#utility.yul\":2495:2504   */\n  dup2\n    /* \"#utility.yul\":2489:2493   */\n  dup2\n    /* \"#utility.yul\":2485:2505   */\n  sub\n    /* \"#utility.yul\":2481:2482   */\n  0x00\n    /* \"#utility.yul\":2470:2479   */\n  dup4\n    /* \"#utility.yul\":2466:2483   */\n  add\n    /* \"#utility.yul\":2459:2506   */\n  mstore\n    /* \"#utility.yul\":2523:2654   */\n  tag_54\n    /* \"#utility.yul\":2649:2653   */\n  dup2\n    /* \"#utility.yul\":2523:2654   */\n  tag_25\n  jump\t// in\ntag_54:\n    /* \"#utility.yul\":2515:2654   */\n  swap1\n  pop\n    /* \"#utility.yul\":2242:2661   */\n  swap2\n  swap1\n  pop\n  jump\t// out\n    /* \"#utility.yul\":2667:2845   */\ntag_26:\n    /* \"#utility.yul\":2807:2837   */\n  0x5665727469706f72744d616e6167656d656e7420696e76616c69646f00000000\n    /* \"#utility.yul\":2803:2804   */\n  0x00\n    /* \"#utility.yul\":2795:2801   */\n  dup3\n    /* \"#utility.yul\":2791:2805   */\n  add\n    /* \"#utility.yul\":2784:2838   */\n  mstore\n    /* \"#utility.yul\":2667:2845   */\n  pop\n  jump\t// out\n    /* \"#utility.yul\":2851:3217   */\ntag_27:\n    /* \"#utility.yul\":2993:2996   */\n  0x00\n    /* \"#utility.yul\":3014:3081   */\n  tag_57\n    /* \"#utility.yul\":3078:3080   */\n  0x1c\n    /* \"#utility.yul\":3073:3076   */\n  dup4\n    /* \"#utility.yul\":3014:3081   */\n  tag_23\n  jump\t// in\ntag_57:\n    /* \"#utility.yul\":3007:3081   */\n  swap2\n  pop\n    /* \"#utility.yul\":3090:3183   */\n  tag_58\n    /* \"#utility.yul\":3179:3182   */\n  dup3\n    /* \"#utility.yul\":3090:3183   */\n  tag_26\n  jump\t// in\ntag_58:\n    /* \"#utility.yul\":3208:3210   */\n  0x20\n    /* \"#utility.yul\":3203:3206   */\n  dup3\n    /* \"#utility.yul\":3199:3211   */\n  add\n    /* \"#utility.yul\":3192:3211   */\n  swap1\n  pop\n    /* \"#utility.yul\":2851:3217   */\n  swap2\n  swap1\n  pop\n  jump\t// out\n    /* \"#utility.yul\":3223:3642   */\ntag_11:\n    /* \"#utility.yul\":3389:3393   */\n  0x00\n    /* \"#utility.yul\":3427:3429   */\n  0x20\n    /* \"#utility.yul\":3416:3425   */\n  dup3\n    /* \"#utility.yul\":3412:3430   */\n  add\n    /* \"#utility.yul\":3404:3430   */\n  swap1\n  pop\n    /* \"#utility.yul\":3476:3485   */\n  dup2\n    /* \"#utility.yul\":3470:3474   */\n  dup2\n    /* \"#utility.yul\":3466:3486   */\n  sub\n    /* \"#utility.yul\":3462:3463   */\n  0x00\n    /* \"#utility.yul\":3451:3460   */\n  dup4\n    /* \"#utility.yul\":3447:3464   */\n  add\n    /* \"#utility.yul\":3440:3487   */\n  mstore\n    /* \"#utility.yul\":3504:3635   */\n  tag_60\n    /* \"#utility.yul\":3630:3634   */\n  dup2\n    /* \"#utility.yul\":3504:3635   */\n  tag_27\n  jump\t// in\ntag_60:\n    /* \"#utility.yul\":3496:3635   */\n  swap1\n  pop\n    /* \"#utility.yul\":3223:3642   */\n  swap2\n  swap1\n  pop\n  jump\t// out\n    /* \"#utility.yul\":3648:3822   */\ntag_28:\n    /* \"#utility.yul\":3788:3814   */\n  0x4556544f4c4d616e6167656d656e7420696e76616c69646f0000000000000000\n    /* \"#utility.yul\":3784:3785   */\n  0x00\n    /* \"#utility.yul\":3776:3782   */\n  dup3\n    /* \"#utility.yul\":3772:3786   */\n  add\n    /* \"#utility.yul\":3765:3815   */\n  mstore\n    /* \"#utility.yul\":3648:3822   */\n  pop\n  jump\t// out\n    /* \"#utility.yul\":3828:4194   */\ntag_29:\n    /* \"#utility.yul\":3970:3973   */\n  0x00\n    /* \"#utility.yul\":3991:4058   */\n  tag_63\n    /* \"#utility.yul\":4055:4057   */\n  0x18\n    /* \"#utility.yul\":4050:4053   */\n  dup4\n    /* \"#utility.yul\":3991:4058   */\n  tag_23\n  jump\t// in\ntag_63:\n    /* \"#utility.yul\":3984:4058   */\n  swap2\n  pop\n    /* \"#utility.yul\":4067:4160   */\n  tag_64\n    /* \"#utility.yul\":4156:4159   */\n  dup3\n    /* \"#utility.yul\":4067:4160   */\n  tag_28\n  jump\t// in\ntag_64:\n    /* \"#utility.yul\":4185:4187   */\n  0x20\n    /* \"#utility.yul\":4180:4183   */\n  dup3\n    /* \"#utility.yul\":4176:4188   */\n  add\n    /* \"#utility.yul\":4169:4188   */\n  swap1\n  pop\n    /* \"#utility.yul\":3828:4194   */\n  swap2\n  swap1\n  pop\n  jump\t// out\n    /* \"#utility.yul\":4200:4619   */\ntag_14:\n    /* \"#utility.yul\":4366:4370   */\n  0x00\n    /* \"#utility.yul\":4404:4406   */\n  0x20\n    /* \"#utility.yul\":4393:4402   */\n  dup3\n    /* \"#utility.yul\":4389:4407   */\n  add\n    /* \"#utility.yul\":4381:4407   */\n  swap1\n  pop\n    /* \"#utility.yul\":4453:4462   */\n  dup2\n    /* \"#utility.yul\":4447:4451   */\n  dup2\n    /* \"#utility.yul\":4443:4463   */\n  sub\n    /* \"#utility.yul\":4439:4440   */\n  0x00\n    /* \"#utility.yul\":4428:4437   */\n  dup4\n    /* \"#utility.yul\":4424:4441   */\n  add\n    /* \"#utility.yul\":4417:4464   */\n  mstore\n    /* \"#utility.yul\":4481:4612   */\n  tag_66\n    /* \"#utility.yul\":4607:4611   */\n  dup2\n    /* \"#utility.yul\":4481:4612   */\n  tag_29\n  jump\t// in\ntag_66:\n    /* \"#utility.yul\":4473:4612   */\n  swap1\n  pop\n    /* \"#utility.yul\":4200:4619   */\n  swap2\n  swap1\n  pop\n  jump\t// out\n    /* \"FlightReservation.sol\":1168:9591  contract FlightReservation {... */\ntag_15:\n  dataSize(sub_0)\n  dup1\n  dataOffset(sub_0)\n  0x00\n  codecopy\n  0x00\n  return\nstop\n\nsub_0: assembly {\n        /* \"FlightReservation.sol\":1168:9591  contract FlightReservation {... */\n      mstore(0x40, 0x80)\n      callvalue\n      dup1\n      iszero\n      tag_1\n      jumpi\n      0x00\n      dup1\n      revert\n    tag_1:\n      pop\n      jumpi(tag_2, lt(calldatasize, 0x04))\n      shr(0xe0, calldataload(0x00))\n      dup1\n      0xae981ab7\n      gt\n      tag_13\n      jumpi\n      dup1\n      0xae981ab7\n      eq\n      tag_8\n      jumpi\n      dup1\n      0xcd17bdc0\n      eq\n      tag_9\n      jumpi\n      dup1\n      0xdfd90448\n      eq\n      tag_10\n      jumpi\n      dup1\n      0xf851a440\n      eq\n      tag_11\n      jumpi\n      dup1\n      0xfecc1f8a\n      eq\n      tag_12\n      jumpi\n      jump(tag_2)\n    tag_13:\n      dup1\n      0x0b125c11\n      eq\n      tag_3\n      jumpi\n      dup1\n      0x55d96b51\n      eq\n      tag_4\n      jumpi\n      dup1\n      0x5f6c5cfc\n      eq\n      tag_5\n      jumpi\n      dup1\n      0x704b6c02\n      eq\n      tag_6\n      jumpi\n      dup1\n      0x7b56724a\n      eq\n      tag_7\n      jumpi\n    tag_2:\n      0x00\n      dup1\n      revert\n        /* \"FlightReservation.sol\":1566:1607  IUserVerification public userVerification */\n    tag_3:\n      tag_14\n      tag_15\n      jump\t// in\n    tag_14:\n      mload(0x40)\n      tag_16\n      swap2\n      swap1\n      tag_17\n      jump\t// in\n    tag_16:\n      mload(0x40)\n      dup1\n      swap2\n      sub\n      swap1\n      return\n        /* \"FlightReservation.sol\":1666:1705  IEVTOLManagement public evtolManagement */\n    tag_4:\n      tag_18\n      tag_19\n      jump\t// in\n    tag_18:\n      mload(0x40)\n      tag_20\n      swap2\n      swap1\n      tag_21\n      jump\t// in\n    tag_20:\n      mload(0x40)\n      dup1\n      swap2\n      sub\n      swap1\n      return\n        /* \"FlightReservation.sol\":9389:9589  function getTrip(... */\n    tag_5:\n      tag_22\n      0x04\n      dup1\n      calldatasize\n      sub\n      dup2\n      add\n      swap1\n      tag_23\n      swap2\n      swap1\n      tag_24\n      jump\t// in\n    tag_23:\n      tag_25\n      jump\t// in\n    tag_22:\n      mload(0x40)\n      tag_26\n      swap2\n      swap1\n      tag_27\n      jump\t// in\n    tag_26:\n      mload(0x40)\n      dup1\n      swap2\n      sub\n      swap1\n      return\n        /* \"FlightReservation.sol\":3028:3175  function setAdmin(address newAdmin) external onlyAdmin {... */\n    tag_6:\n      tag_28\n      0x04\n      dup1\n      calldatasize\n      sub\n      dup2\n      add\n      swap1\n      tag_29\n      swap2\n      swap1\n      tag_30\n      jump\t// in\n    tag_29:\n      tag_31\n      jump\t// in\n    tag_28:\n      stop\n        /* \"FlightReservation.sol\":7775:8699  function completeTrip(... */\n    tag_7:\n      tag_32\n      0x04\n      dup1\n      calldatasize\n      sub\n      dup2\n      add\n      swap1\n      tag_33\n      swap2\n      swap1\n      tag_34\n      jump\t// in\n    tag_33:\n      tag_35\n      jump\t// in\n    tag_32:\n      stop\n        /* \"FlightReservation.sol\":3845:6256  function createReservation(... */\n    tag_8:\n      tag_36\n      0x04\n      dup1\n      calldatasize\n      sub\n      dup2\n      add\n      swap1\n      tag_37\n      swap2\n      swap1\n      tag_38\n      jump\t// in\n    tag_37:\n      tag_39\n      jump\t// in\n    tag_36:\n      stop\n        /* \"FlightReservation.sol\":6535:7490  function startTrip(... */\n    tag_9:\n      tag_40\n      0x04\n      dup1\n      calldatasize\n      sub\n      dup2\n      add\n      swap1\n      tag_41\n      swap2\n      swap1\n      tag_34\n      jump\t// in\n    tag_41:\n      tag_42\n      jump\t// in\n    tag_40:\n      stop\n        /* \"FlightReservation.sol\":8872:9330  function cancelTrip(string memory tripId) public onlyAdmin {... */\n    tag_10:\n      tag_43\n      0x04\n      dup1\n      calldatasize\n      sub\n      dup2\n      add\n      swap1\n      tag_44\n      swap2\n      swap1\n      tag_24\n      jump\t// in\n    tag_44:\n      tag_45\n      jump\t// in\n    tag_43:\n      stop\n        /* \"FlightReservation.sol\":1783:1803  address public admin */\n    tag_11:\n      tag_46\n      tag_47\n      jump\t// in\n    tag_46:\n      mload(0x40)\n      tag_48\n      swap2\n      swap1\n      tag_49\n      jump\t// in\n    tag_48:\n      mload(0x40)\n      dup1\n      swap2\n      sub\n      swap1\n      return\n        /* \"FlightReservation.sol\":1613:1660  IVertiportManagement public vertiportManagement */\n    tag_12:\n      tag_50\n      tag_51\n      jump\t// in\n    tag_50:\n      mload(0x40)\n      tag_52\n      swap2\n      swap1\n      tag_53\n      jump\t// in\n    tag_52:\n      mload(0x40)\n      dup1\n      swap2\n      sub\n      swap1\n      return\n        /* \"FlightReservation.sol\":1566:1607  IUserVerification public userVerification */\n    tag_15:\n      0x00\n      dup1\n      sload\n      swap1\n      0x0100\n      exp\n      swap1\n      div\n      0xffffffffffffffffffffffffffffffffffffffff\n      and\n      dup2\n      jump\t// out\n        /* \"FlightReservation.sol\":1666:1705  IEVTOLManagement public evtolManagement */\n    tag_19:\n      0x02\n      0x00\n      swap1\n      sload\n      swap1\n      0x0100\n      exp\n      swap1\n      div\n      0xffffffffffffffffffffffffffffffffffffffff\n      and\n      dup2\n      jump\t// out\n        /* \"FlightReservation.sol\":9389:9589  function getTrip(... */\n    tag_25:\n        /* \"FlightReservation.sol\":9463:9474  Trip memory */\n      tag_54\n      tag_55\n      jump\t// in\n    tag_54:\n        /* \"FlightReservation.sol\":9486:9499  Trip memory t */\n      0x00\n        /* \"FlightReservation.sol\":9502:9507  trips */\n      0x04\n        /* \"FlightReservation.sol\":9508:9514  tripId */\n      dup4\n        /* \"FlightReservation.sol\":9502:9515  trips[tripId] */\n      mload(0x40)\n      tag_57\n      swap2\n      swap1\n      tag_58\n      jump\t// in\n    tag_57:\n      swap1\n      dup2\n      mstore\n      0x20\n      add\n      mload(0x40)\n      dup1\n      swap2\n      sub\n      swap1\n      keccak256\n        /* \"FlightReservation.sol\":9486:9515  Trip memory t = trips[tripId] */\n      mload(0x40)\n      dup1\n      0x0100\n      add\n      0x40\n      mstore\n      swap1\n      dup2\n      0x00\n      dup3\n      add\n      dup1\n      sload\n      tag_59\n      swap1\n      tag_60\n      jump\t// in\n    tag_59:\n      dup1\n      0x1f\n      add\n      0x20\n      dup1\n      swap2\n      div\n      mul\n      0x20\n      add\n      mload(0x40)\n      swap1\n      dup2\n      add\n      0x40\n      mstore\n      dup1\n      swap3\n      swap2\n      swap1\n      dup2\n      dup2\n      mstore\n      0x20\n      add\n      dup3\n      dup1\n      sload\n      tag_61\n      swap1\n      tag_60\n      jump\t// in\n    tag_61:\n      dup1\n      iszero\n      tag_62\n      jumpi\n      dup1\n      0x1f\n      lt\n      tag_63\n      jumpi\n      0x0100\n      dup1\n      dup4\n      sload\n      div\n      mul\n      dup4\n      mstore\n      swap2\n      0x20\n      add\n      swap2\n      jump(tag_62)\n    tag_63:\n      dup3\n      add\n      swap2\n      swap1\n      0x00\n      mstore\n      keccak256(0x00, 0x20)\n      swap1\n    tag_64:\n      dup2\n      sload\n      dup2\n      mstore\n      swap1\n      0x01\n      add\n      swap1\n      0x20\n      add\n      dup1\n      dup4\n      gt\n      tag_64\n      jumpi\n      dup3\n      swap1\n      sub\n      0x1f\n      and\n      dup3\n      add\n      swap2\n    tag_62:\n      pop\n      pop\n      pop\n      pop\n      pop\n      dup2\n      mstore\n      0x20\n      add\n      0x01\n      dup3\n      add\n      0x00\n      swap1\n      sload\n      swap1\n      0x0100\n      exp\n      swap1\n      div\n      0xffffffffffffffffffffffffffffffffffffffff\n      and\n      0xffffffffffffffffffffffffffffffffffffffff\n      and\n      0xffffffffffffffffffffffffffffffffffffffff\n      and\n      dup2\n      mstore\n      0x20\n      add\n      0x02\n      dup3\n      add\n      dup1\n      sload\n      tag_65\n      swap1\n      tag_60\n      jump\t// in\n    tag_65:\n      dup1\n      0x1f\n      add\n      0x20\n      dup1\n      swap2\n      div\n      mul\n      0x20\n      add\n      mload(0x40)\n      swap1\n      dup2\n      add\n      0x40\n      mstore\n      dup1\n      swap3\n      swap2\n      swap1\n      dup2\n      dup2\n      mstore\n      0x20\n      add\n      dup3\n      dup1\n      sload\n      tag_66\n      swap1\n      tag_60\n      jump\t// in\n    tag_66:\n      dup1\n      iszero\n      tag_67\n      jumpi\n      dup1\n      0x1f\n      lt\n      tag_68\n      jumpi\n      0x0100\n      dup1\n      dup4\n      sload\n      div\n      mul\n      dup4\n      mstore\n      swap2\n      0x20\n      add\n      swap2\n      jump(tag_67)\n    tag_68:\n      dup3\n      add\n      swap2\n      swap1\n      0x00\n      mstore\n      keccak256(0x00, 0x20)\n      swap1\n    tag_69:\n      dup2\n      sload\n      dup2\n      mstore\n      swap1\n      0x01\n      add\n      swap1\n      0x20\n      add\n      dup1\n      dup4\n      gt\n      tag_69\n      jumpi\n      dup3\n      swap1\n      sub\n      0x1f\n      and\n      dup3\n      add\n      swap2\n    tag_67:\n      pop\n      pop\n      pop\n      pop\n      pop\n      dup2\n      mstore\n      0x20\n      add\n      0x03\n      dup3\n      add\n      dup1\n      sload\n      tag_70\n      swap1\n      tag_60\n      jump\t// in\n    tag_70:\n      dup1\n      0x1f\n      add\n      0x20\n      dup1\n      swap2\n      div\n      mul\n      0x20\n      add\n      mload(0x40)\n      swap1\n      dup2\n      add\n      0x40\n      mstore\n      dup1\n      swap3\n      swap2\n      swap1\n      dup2\n      dup2\n      mstore\n      0x20\n      add\n      dup3\n      dup1\n      sload\n      tag_71\n      swap1\n      tag_60\n      jump\t// in\n    tag_71:\n      dup1\n      iszero\n      tag_72\n      jumpi\n      dup1\n      0x1f\n      lt\n      tag_73\n      jumpi\n      0x0100\n      dup1\n      dup4\n      sload\n      div\n      mul\n      dup4\n      mstore\n      swap2\n      0x20\n      add\n      swap2\n      jump(tag_72)\n    tag_73:\n      dup3\n      add\n      swap2\n      swap1\n      0x00\n      mstore\n      keccak256(0x00, 0x20)\n      swap1\n    tag_74:\n      dup2\n      sload\n      dup2\n      mstore\n      swap1\n      0x01\n      add\n      swap1\n      0x20\n      add\n      dup1\n      dup4\n      gt\n      tag_74\n      jumpi\n      dup3\n      swap1\n      sub\n      0x1f\n      and\n      dup3\n      add\n      swap2\n    tag_72:\n      pop\n      pop\n      pop\n      pop\n      pop\n      dup2\n      mstore\n      0x20\n      add\n      0x04\n      dup3\n      add\n      sload\n      dup2\n      mstore\n      0x20\n      add\n      0x05\n      dup3\n      add\n      0x00\n      swap1\n      sload\n      swap1\n      0x0100\n      exp\n      swap1\n      div\n      0xff\n      and\n      0x04\n      dup2\n      gt\n      iszero\n      tag_75\n      jumpi\n      tag_76\n      tag_77\n      jump\t// in\n    tag_76:\n    tag_75:\n      0x04\n      dup2\n      gt\n      iszero\n      tag_78\n      jumpi\n      tag_79\n      tag_77\n      jump\t// in\n    tag_79:\n    tag_78:\n      dup2\n      mstore\n      0x20\n      add\n      0x06\n      dup3\n      add\n      sload\n      dup2\n      mstore\n      0x20\n      add\n      0x07\n      dup3\n      add\n      0x00\n      swap1\n      sload\n      swap1\n      0x0100\n      exp\n      swap1\n      div\n      0xff\n      and\n      iszero\n      iszero\n      iszero\n      iszero\n      dup2\n      mstore\n      pop\n      pop\n      swap1\n      pop\n        /* \"FlightReservation.sol\":9533:9534  t */\n      dup1\n        /* \"FlightReservation.sol\":9533:9541  t.exists */\n      0xe0\n      add\n      mload\n        /* \"FlightReservation.sol\":9525:9564  require(t.exists, \"Trip no encontrada\") */\n      tag_80\n      jumpi\n      mload(0x40)\n      0x08c379a000000000000000000000000000000000000000000000000000000000\n      dup2\n      mstore\n      0x04\n      add\n      tag_81\n      swap1\n      tag_82\n      jump\t// in\n    tag_81:\n      mload(0x40)\n      dup1\n      swap2\n      sub\n      swap1\n      revert\n    tag_80:\n        /* \"FlightReservation.sol\":9581:9582  t */\n      dup1\n        /* \"FlightReservation.sol\":9574:9582  return t */\n      swap2\n      pop\n      pop\n        /* \"FlightReservation.sol\":9389:9589  function getTrip(... */\n      swap2\n      swap1\n      pop\n      jump\t// out\n        /* \"FlightReservation.sol\":3028:3175  function setAdmin(address newAdmin) external onlyAdmin {... */\n    tag_31:\n        /* \"FlightReservation.sol\":2229:2234  admin */\n      0x03\n      0x00\n      swap1\n      sload\n      swap1\n      0x0100\n      exp\n      swap1\n      div\n      0xffffffffffffffffffffffffffffffffffffffff\n      and\n        /* \"FlightReservation.sol\":2215:2234  msg.sender == admin */\n      0xffffffffffffffffffffffffffffffffffffffff\n      and\n        /* \"FlightReservation.sol\":2215:2225  msg.sender */\n      caller\n        /* \"FlightReservation.sol\":2215:2234  msg.sender == admin */\n      0xffffffffffffffffffffffffffffffffffffffff\n      and\n      eq\n        /* \"FlightReservation.sol\":2207:2264  require(msg.sender == admin, \"No autorizado: solo admin\") */\n      tag_84\n      jumpi\n      mload(0x40)\n      0x08c379a000000000000000000000000000000000000000000000000000000000\n      dup2\n      mstore\n      0x04\n      add\n      tag_85\n      swap1\n      tag_86\n      jump\t// in\n    tag_85:\n      mload(0x40)\n      dup1\n      swap2\n      sub\n      swap1\n      revert\n    tag_84:\n        /* \"FlightReservation.sol\":3121:3122  0 */\n      0x00\n        /* \"FlightReservation.sol\":3101:3123  newAdmin != address(0) */\n      0xffffffffffffffffffffffffffffffffffffffff\n      and\n        /* \"FlightReservation.sol\":3101:3109  newAdmin */\n      dup2\n        /* \"FlightReservation.sol\":3101:3123  newAdmin != address(0) */\n      0xffffffffffffffffffffffffffffffffffffffff\n      and\n      eq\n      iszero\n        /* \"FlightReservation.sol\":3093:3142  require(newAdmin != address(0), \"Admin invalido\") */\n      tag_88\n      jumpi\n      mload(0x40)\n      0x08c379a000000000000000000000000000000000000000000000000000000000\n      dup2\n      mstore\n      0x04\n      add\n      tag_89\n      swap1\n      tag_90\n      jump\t// in\n    tag_89:\n      mload(0x40)\n      dup1\n      swap2\n      sub\n      swap1\n      revert\n    tag_88:\n        /* \"FlightReservation.sol\":3160:3168  newAdmin */\n      dup1\n        /* \"FlightReservation.sol\":3152:3157  admin */\n      0x03\n      0x00\n        /* \"FlightReservation.sol\":3152:3168  admin = newAdmin */\n      0x0100\n      exp\n      dup2\n      sload\n      dup2\n      0xffffffffffffffffffffffffffffffffffffffff\n      mul\n      not\n      and\n      swap1\n      dup4\n      0xffffffffffffffffffffffffffffffffffffffff\n      and\n      mul\n      or\n      swap1\n      sstore\n      pop\n        /* \"FlightReservation.sol\":3028:3175  function setAdmin(address newAdmin) external onlyAdmin {... */\n      pop\n      jump\t// out\n        /* \"FlightReservation.sol\":7775:8699  function completeTrip(... */\n    tag_35:\n        /* \"FlightReservation.sol\":2229:2234  admin */\n      0x03\n      0x00\n      swap1\n      sload\n      swap1\n      0x0100\n      exp\n      swap1\n      div\n      0xffffffffffffffffffffffffffffffffffffffff\n      and\n        /* \"FlightReservation.sol\":2215:2234  msg.sender == admin */\n      0xffffffffffffffffffffffffffffffffffffffff\n      and\n        /* \"FlightReservation.sol\":2215:2225  msg.sender */\n      caller\n        /* \"FlightReservation.sol\":2215:2234  msg.sender == admin */\n      0xffffffffffffffffffffffffffffffffffffffff\n      and\n      eq\n        /* \"FlightReservation.sol\":2207:2264  require(msg.sender == admin, \"No autorizado: solo admin\") */\n      tag_92\n      jumpi\n      mload(0x40)\n      0x08c379a000000000000000000000000000000000000000000000000000000000\n      dup2\n      mstore\n      0x04\n      add\n      tag_93\n      swap1\n      tag_86\n      jump\t// in\n    tag_93:\n      mload(0x40)\n      dup1\n      swap2\n      sub\n      swap1\n      revert\n    tag_92:\n        /* \"FlightReservation.sol\":7913:7927  Trip storage t */\n      0x00\n        /* \"FlightReservation.sol\":7930:7935  trips */\n      0x04\n        /* \"FlightReservation.sol\":7936:7942  tripId */\n      dup4\n        /* \"FlightReservation.sol\":7930:7943  trips[tripId] */\n      mload(0x40)\n      tag_95\n      swap2\n      swap1\n      tag_58\n      jump\t// in\n    tag_95:\n      swap1\n      dup2\n      mstore\n      0x20\n      add\n      mload(0x40)\n      dup1\n      swap2\n      sub\n      swap1\n      keccak256\n        /* \"FlightReservation.sol\":7913:7943  Trip storage t = trips[tripId] */\n      swap1\n      pop\n        /* \"FlightReservation.sol\":7961:7962  t */\n      dup1\n        /* \"FlightReservation.sol\":7961:7969  t.exists */\n      0x07\n      add\n      0x00\n      swap1\n      sload\n      swap1\n      0x0100\n      exp\n      swap1\n      div\n      0xff\n      and\n        /* \"FlightReservation.sol\":7953:7992  require(t.exists, \"Trip no encontrada\") */\n      tag_96\n      jumpi\n      mload(0x40)\n      0x08c379a000000000000000000000000000000000000000000000000000000000\n      dup2\n      mstore\n      0x04\n      add\n      tag_97\n      swap1\n      tag_82\n      jump\t// in\n    tag_97:\n      mload(0x40)\n      dup1\n      swap2\n      sub\n      swap1\n      revert\n    tag_96:\n        /* \"FlightReservation.sol\":8022:8044  TripStatus.IN_PROGRESS */\n      0x02\n        /* \"FlightReservation.sol\":8010:8044  t.status == TripStatus.IN_PROGRESS */\n      0x04\n      dup2\n      gt\n      iszero\n      tag_98\n      jumpi\n      tag_99\n      tag_77\n      jump\t// in\n    tag_99:\n    tag_98:\n        /* \"FlightReservation.sol\":8010:8011  t */\n      dup2\n        /* \"FlightReservation.sol\":8010:8018  t.status */\n      0x05\n      add\n      0x00\n      swap1\n      sload\n      swap1\n      0x0100\n      exp\n      swap1\n      div\n      0xff\n      and\n        /* \"FlightReservation.sol\":8010:8044  t.status == TripStatus.IN_PROGRESS */\n      0x04\n      dup2\n      gt\n      iszero\n      tag_100\n      jumpi\n      tag_101\n      tag_77\n      jump\t// in\n    tag_101:\n    tag_100:\n      eq\n        /* \"FlightReservation.sol\":8002:8072  require(t.status == TripStatus.IN_PROGRESS, \"Estado de trip invalido\") */\n      tag_102\n      jumpi\n      mload(0x40)\n      0x08c379a000000000000000000000000000000000000000000000000000000000\n      dup2\n      mstore\n      0x04\n      add\n      tag_103\n      swap1\n      tag_104\n      jump\t// in\n    tag_103:\n      mload(0x40)\n      dup1\n      swap2\n      sub\n      swap1\n      revert\n    tag_102:\n        /* \"FlightReservation.sol\":8154:8169  evtolManagement */\n      0x02\n      0x00\n      swap1\n      sload\n      swap1\n      0x0100\n      exp\n      swap1\n      div\n      0xffffffffffffffffffffffffffffffffffffffff\n      and\n        /* \"FlightReservation.sol\":8154:8182  evtolManagement.completeTrip */\n      0xffffffffffffffffffffffffffffffffffffffff\n      and\n      0x9283e047\n        /* \"FlightReservation.sol\":8183:8184  t */\n      dup3\n        /* \"FlightReservation.sol\":8183:8192  t.evtolId */\n      0x04\n      add\n      sload\n        /* \"FlightReservation.sol\":8194:8195  t */\n      dup4\n        /* \"FlightReservation.sol\":8194:8218  t.destinationVertiportId */\n      0x03\n      add\n        /* \"FlightReservation.sol\":8154:8219  evtolManagement.completeTrip(t.evtolId, t.destinationVertiportId) */\n      mload(0x40)\n      dup4\n      0xffffffff\n      and\n      0xe0\n      shl\n      dup2\n      mstore\n      0x04\n      add\n      tag_105\n      swap3\n      swap2\n      swap1\n      tag_106\n      jump\t// in\n    tag_105:\n      0x00\n      mload(0x40)\n      dup1\n      dup4\n      sub\n      dup2\n      0x00\n      dup8\n      dup1\n      extcodesize\n      iszero\n      dup1\n      iszero\n      tag_107\n      jumpi\n      0x00\n      dup1\n      revert\n    tag_107:\n      pop\n      gas\n      call\n      iszero\n      dup1\n      iszero\n      tag_109\n      jumpi\n      returndatasize\n      0x00\n      dup1\n      returndatacopy\n      revert(0x00, returndatasize)\n    tag_109:\n      pop\n      pop\n      pop\n      pop\n        /* \"FlightReservation.sol\":8358:8377  vertiportManagement */\n      0x01\n      0x00\n      swap1\n      sload\n      swap1\n      0x0100\n      exp\n      swap1\n      div\n      0xffffffffffffffffffffffffffffffffffffffff\n      and\n        /* \"FlightReservation.sol\":8358:8398  vertiportManagement.updateVertiportState */\n      0xffffffffffffffffffffffffffffffffffffffff\n      and\n      0xcf0803e9\n        /* \"FlightReservation.sol\":8412:8413  t */\n      dup3\n        /* \"FlightReservation.sol\":8412:8436  t.destinationVertiportId */\n      0x03\n      add\n        /* \"FlightReservation.sol\":8450:8480  destinationVertiportCredential */\n      dup5\n        /* \"FlightReservation.sol\":8494:8495  0 */\n      0x00\n        /* \"FlightReservation.sol\":8516:8518  -1 */\n      0xffffffffffffffffffffffffffffffffffffffffffffffffffffffffffffffff\n        /* \"FlightReservation.sol\":8358:8549  vertiportManagement.updateVertiportState(... */\n      mload(0x40)\n      dup6\n      0xffffffff\n      and\n      0xe0\n      shl\n      dup2\n      mstore\n      0x04\n      add\n      tag_110\n      swap5\n      swap4\n      swap3\n      swap2\n      swap1\n      tag_111\n      jump\t// in\n    tag_110:\n      0x00\n      mload(0x40)\n      dup1\n      dup4\n      sub\n      dup2\n      0x00\n      dup8\n      dup1\n      extcodesize\n      iszero\n      dup1\n      iszero\n      tag_112\n      jumpi\n      0x00\n      dup1\n      revert\n    tag_112:\n      pop\n      gas\n      call\n      iszero\n      dup1\n      iszero\n      tag_114\n      jumpi\n      returndatasize\n      0x00\n      dup1\n      returndatacopy\n      revert(0x00, returndatasize)\n    tag_114:\n      pop\n      pop\n      pop\n      pop\n        /* \"FlightReservation.sol\":8560:8579  TripStatus previous */\n      0x00\n        /* \"FlightReservation.sol\":8582:8583  t */\n      dup2\n        /* \"FlightReservation.sol\":8582:8590  t.status */\n      0x05\n      add\n      0x00\n      swap1\n      sload\n      swap1\n      0x0100\n      exp\n      swap1\n      div\n      0xff\n      and\n        /* \"FlightReservation.sol\":8560:8590  TripStatus previous = t.status */\n      swap1\n      pop\n        /* \"FlightReservation.sol\":8611:8631  TripStatus.COMPLETED */\n      0x03\n        /* \"FlightReservation.sol\":8600:8601  t */\n      dup3\n        /* \"FlightReservation.sol\":8600:8608  t.status */\n      0x05\n      add\n      0x00\n        /* \"FlightReservation.sol\":8600:8631  t.status = TripStatus.COMPLETED */\n      0x0100\n      exp\n      dup2\n      sload\n      dup2\n      0xff\n      mul\n      not\n      and\n      swap1\n      dup4\n      0x04\n      dup2\n      gt\n      iszero\n      tag_115\n      jumpi\n      tag_116\n      tag_77\n      jump\t// in\n    tag_116:\n    tag_115:\n      mul\n      or\n      swap1\n      sstore\n      pop\n        /* \"FlightReservation.sol\":8665:8671  tripId */\n      dup4\n        /* \"FlightReservation.sol\":8647:8692  TripStatusUpdated(tripId, previous, t.status) */\n      mload(0x40)\n      tag_117\n      swap2\n      swap1\n      tag_58\n      jump\t// in\n    tag_117:\n      mload(0x40)\n      dup1\n      swap2\n      sub\n      swap1\n      keccak256\n      0x9d90b27494f938a087a90248834b48353bb9436a76e90f1f37fcb8d3ae5dbd20\n        /* \"FlightReservation.sol\":8673:8681  previous */\n      dup3\n        /* \"FlightReservation.sol\":8683:8684  t */\n      dup5\n        /* \"FlightReservation.sol\":8683:8691  t.status */\n      0x05\n      add\n      0x00\n      swap1\n      sload\n      swap1\n      0x0100\n      exp\n      swap1\n      div\n      0xff\n      and\n        /* \"FlightReservation.sol\":8647:8692  TripStatusUpdated(tripId, previous, t.status) */\n      mload(0x40)\n      tag_118\n      swap3\n      swap2\n      swap1\n      tag_119\n      jump\t// in\n    tag_118:\n      mload(0x40)\n      dup1\n      swap2\n      sub\n      swap1\n      log2\n        /* \"FlightReservation.sol\":7903:8699  {... */\n      pop\n      pop\n        /* \"FlightReservation.sol\":7775:8699  function completeTrip(... */\n      pop\n      pop\n      jump\t// out\n        /* \"FlightReservation.sol\":3845:6256  function createReservation(... */\n    tag_39:\n        /* \"FlightReservation.sol\":2229:2234  admin */\n      0x03\n      0x00\n      swap1\n      sload\n      swap1\n      0x0100\n      exp\n      swap1\n      div\n      0xffffffffffffffffffffffffffffffffffffffff\n      and\n        /* \"FlightReservation.sol\":2215:2234  msg.sender == admin */\n      0xffffffffffffffffffffffffffffffffffffffff\n      and\n        /* \"FlightReservation.sol\":2215:2225  msg.sender */\n      caller\n        /* \"FlightReservation.sol\":2215:2234  msg.sender == admin */\n      0xffffffffffffffffffffffffffffffffffffffff\n      and\n      eq\n        /* \"FlightReservation.sol\":2207:2264  require(msg.sender == admin, \"No autorizado: solo admin\") */\n      tag_121\n      jumpi\n      mload(0x40)\n      0x08c379a000000000000000000000000000000000000000000000000000000000\n      dup2\n      mstore\n      0x04\n      add\n      tag_122\n      swap1\n      tag_86\n      jump\t// in\n    tag_122:\n      mload(0x40)\n      dup1\n      swap2\n      sub\n      swap1\n      revert\n    tag_121:\n        /* \"FlightReservation.sol\":4224:4225  0 */\n      0x00\n        /* \"FlightReservation.sol\":4207:4213  tripId */\n      dup9\n        /* \"FlightReservation.sol\":4201:4221  bytes(tripId).length */\n      mload\n        /* \"FlightReservation.sol\":4201:4225  bytes(tripId).length > 0 */\n      gt\n        /* \"FlightReservation.sol\":4193:4242  require(bytes(tripId).length > 0, \"tripId vacio\") */\n      tag_124\n      jumpi\n      mload(0x40)\n      0x08c379a000000000000000000000000000000000000000000000000000000000\n      dup2\n      mstore\n      0x04\n      add\n      tag_125\n      swap1\n      tag_126\n      jump\t// in\n    tag_125:\n      mload(0x40)\n      dup1\n      swap2\n      sub\n      swap1\n      revert\n    tag_124:\n        /* \"FlightReservation.sol\":4261:4266  trips */\n      0x04\n        /* \"FlightReservation.sol\":4267:4273  tripId */\n      dup9\n        /* \"FlightReservation.sol\":4261:4274  trips[tripId] */\n      mload(0x40)\n      tag_127\n      swap2\n      swap1\n      tag_58\n      jump\t// in\n    tag_127:\n      swap1\n      dup2\n      mstore\n      0x20\n      add\n      mload(0x40)\n      dup1\n      swap2\n      sub\n      swap1\n      keccak256\n        /* \"FlightReservation.sol\":4261:4281  trips[tripId].exists */\n      0x07\n      add\n      0x00\n      swap1\n      sload\n      swap1\n      0x0100\n      exp\n      swap1\n      div\n      0xff\n      and\n        /* \"FlightReservation.sol\":4260:4281  !trips[tripId].exists */\n      iszero\n        /* \"FlightReservation.sol\":4252:4300  require(!trips[tripId].exists, \"Trip ya existe\") */\n      tag_128\n      jumpi\n      mload(0x40)\n      0x08c379a000000000000000000000000000000000000000000000000000000000\n      dup2\n      mstore\n      0x04\n      add\n      tag_129\n      swap1\n      tag_130\n      jump\t// in\n    tag_129:\n      mload(0x40)\n      dup1\n      swap2\n      sub\n      swap1\n      revert\n    tag_128:\n        /* \"FlightReservation.sol\":4335:4336  0 */\n      0x00\n        /* \"FlightReservation.sol\":4318:4337  rider != address(0) */\n      0xffffffffffffffffffffffffffffffffffffffff\n      and\n        /* \"FlightReservation.sol\":4318:4323  rider */\n      dup8\n        /* \"FlightReservation.sol\":4318:4337  rider != address(0) */\n      0xffffffffffffffffffffffffffffffffffffffff\n      and\n      eq\n      iszero\n        /* \"FlightReservation.sol\":4310:4356  require(rider != address(0), \"Rider invalido\") */\n      tag_131\n      jumpi\n      mload(0x40)\n      0x08c379a000000000000000000000000000000000000000000000000000000000\n      dup2\n      mstore\n      0x04\n      add\n      tag_132\n      swap1\n      tag_133\n      jump\t// in\n    tag_132:\n      mload(0x40)\n      dup1\n      swap2\n      sub\n      swap1\n      revert\n    tag_131:\n        /* \"FlightReservation.sol\":4408:4409  0 */\n      0x00\n        /* \"FlightReservation.sol\":4380:4397  originVertiportId */\n      dup7\n        /* \"FlightReservation.sol\":4374:4405  bytes(originVertiportId).length */\n      mload\n        /* \"FlightReservation.sol\":4374:4409  bytes(originVertiportId).length > 0 */\n      gt\n        /* \"FlightReservation.sol\":4366:4426  require(bytes(originVertiportId).length > 0, \"Origen vacio\") */\n      tag_134\n      jumpi\n      mload(0x40)\n      0x08c379a000000000000000000000000000000000000000000000000000000000\n      dup2\n      mstore\n      0x04\n      add\n      tag_135\n      swap1\n      tag_136\n      jump\t// in\n    tag_135:\n      mload(0x40)\n      dup1\n      swap2\n      sub\n      swap1\n      revert\n    tag_134:\n        /* \"FlightReservation.sol\":4483:4484  0 */\n      0x00\n        /* \"FlightReservation.sol\":4450:4472  destinationVertiportId */\n      dup6\n        /* \"FlightReservation.sol\":4444:4480  bytes(destinationVertiportId).length */\n      mload\n        /* \"FlightReservation.sol\":4444:4484  bytes(destinationVertiportId).length > 0 */\n      gt\n        /* \"FlightReservation.sol\":4436:4502  require(bytes(destinationVertiportId).length > 0, \"Destino vacio\") */\n      tag_137\n      jumpi\n      mload(0x40)\n      0x08c379a000000000000000000000000000000000000000000000000000000000\n      dup2\n      mstore\n      0x04\n      add\n      tag_138\n      swap1\n      tag_139\n      jump\t// in\n    tag_138:\n      mload(0x40)\n      dup1\n      swap2\n      sub\n      swap1\n      revert\n    tag_137:\n        /* \"FlightReservation.sol\":4531:4532  0 */\n      0x00\n        /* \"FlightReservation.sol\":4520:4527  evtolId */\n      dup5\n        /* \"FlightReservation.sol\":4520:4532  evtolId != 0 */\n      eq\n      iszero\n        /* \"FlightReservation.sol\":4512:4551  require(evtolId != 0, \"EVTOL invalido\") */\n      tag_140\n      jumpi\n      mload(0x40)\n      0x08c379a000000000000000000000000000000000000000000000000000000000\n      dup2\n      mstore\n      0x04\n      add\n      tag_141\n      swap1\n      tag_142\n      jump\t// in\n    tag_141:\n      mload(0x40)\n      dup1\n      swap2\n      sub\n      swap1\n      revert\n    tag_140:\n        /* \"FlightReservation.sol\":4928:4944  userVerification */\n      0x00\n      dup1\n      sload\n      swap1\n      0x0100\n      exp\n      swap1\n      div\n      0xffffffffffffffffffffffffffffffffffffffff\n      and\n        /* \"FlightReservation.sol\":4928:4956  userVerification.canUserRide */\n      0xffffffffffffffffffffffffffffffffffffffff\n      and\n      0x73984517\n        /* \"FlightReservation.sol\":4957:4962  rider */\n      dup9\n        /* \"FlightReservation.sol\":4928:4963  userVerification.canUserRide(rider) */\n      mload(0x40)\n      dup3\n      0xffffffff\n      and\n      0xe0\n      shl\n      dup2\n      mstore\n      0x04\n      add\n      tag_143\n      swap2\n      swap1\n      tag_49\n      jump\t// in\n    tag_143:\n      0x20\n      mload(0x40)\n      dup1\n      dup4\n      sub\n      dup2\n      dup7\n      gas\n      staticcall\n      iszero\n      dup1\n      iszero\n      tag_145\n      jumpi\n      returndatasize\n      0x00\n      dup1\n      returndatacopy\n      revert(0x00, returndatasize)\n    tag_145:\n      pop\n      pop\n      pop\n      pop\n      mload(0x40)\n      returndatasize\n      not(0x1f)\n      0x1f\n      dup3\n      add\n      and\n      dup3\n      add\n      dup1\n      0x40\n      mstore\n      pop\n      dup2\n      add\n      swap1\n      tag_146\n      swap2\n      swap1\n      tag_147\n      jump\t// in\n    tag_146:\n        /* \"FlightReservation.sol\":4907:5024  require(... */\n      tag_148\n      jumpi\n      mload(0x40)\n      0x08c379a000000000000000000000000000000000000000000000000000000000\n      dup2\n      mstore\n      0x04\n      add\n      tag_149\n      swap1\n      tag_150\n      jump\t// in\n    tag_149:\n      mload(0x40)\n      dup1\n      swap2\n      sub\n      swap1\n      revert\n    tag_148:\n        /* \"FlightReservation.sol\":5169:5188  vertiportManagement */\n      0x01\n      0x00\n      swap1\n      sload\n      swap1\n      0x0100\n      exp\n      swap1\n      div\n      0xffffffffffffffffffffffffffffffffffffffff\n      and\n        /* \"FlightReservation.sol\":5169:5213  vertiportManagement.checkLandingAvailability */\n      0xffffffffffffffffffffffffffffffffffffffff\n      and\n      0x04dde7b1\n        /* \"FlightReservation.sol\":5214:5231  originVertiportId */\n      dup8\n        /* \"FlightReservation.sol\":5169:5232  vertiportManagement.checkLandingAvailability(originVertiportId) */\n      mload(0x40)\n      dup3\n      0xffffffff\n      and\n      0xe0\n      shl\n      dup2\n      mstore\n      0x04\n      add\n      tag_151\n      swap2\n      swap1\n      tag_152\n      jump\t// in\n    tag_151:\n      0x20\n      mload(0x40)\n      dup1\n      dup4\n      sub\n      dup2\n      dup7\n      gas\n      staticcall\n      iszero\n      dup1\n      iszero\n      tag_154\n      jumpi\n      returndatasize\n      0x00\n      dup1\n      returndatacopy\n      revert(0x00, returndatasize)\n    tag_154:\n      pop\n      pop\n      pop\n      pop\n      mload(0x40)\n      returndatasize\n      not(0x1f)\n      0x1f\n      dup3\n      add\n      and\n      dup3\n      add\n      dup1\n      0x40\n      mstore\n      pop\n      dup2\n      add\n      swap1\n      tag_155\n      swap2\n      swap1\n      tag_147\n      jump\t// in\n    tag_155:\n        /* \"FlightReservation.sol\":5148:5291  require(... */\n      tag_156\n      jumpi\n      mload(0x40)\n      0x08c379a000000000000000000000000000000000000000000000000000000000\n      dup2\n      mstore\n      0x04\n      add\n      tag_157\n      swap1\n      tag_158\n      jump\t// in\n    tag_157:\n      mload(0x40)\n      dup1\n      swap2\n      sub\n      swap1\n      revert\n    tag_156:\n        /* \"FlightReservation.sol\":5438:5453  evtolManagement */\n      0x02\n      0x00\n      swap1\n      sload\n      swap1\n      0x0100\n      exp\n      swap1\n      div\n      0xffffffffffffffffffffffffffffffffffffffff\n      and\n        /* \"FlightReservation.sol\":5438:5465  evtolManagement.isAvailable */\n      0xffffffffffffffffffffffffffffffffffffffff\n      and\n      0x3a178d99\n        /* \"FlightReservation.sol\":5466:5473  evtolId */\n      dup6\n        /* \"FlightReservation.sol\":5438:5474  evtolManagement.isAvailable(evtolId) */\n      mload(0x40)\n      dup3\n      0xffffffff\n      and\n      0xe0\n      shl\n      dup2\n      mstore\n      0x04\n      add\n      tag_159\n      swap2\n      swap1\n      tag_160\n      jump\t// in\n    tag_159:\n      0x20\n      mload(0x40)\n      dup1\n      dup4\n      sub\n      dup2\n      dup7\n      gas\n      staticcall\n      iszero\n      dup1\n      iszero\n      tag_162\n      jumpi\n      returndatasize\n      0x00\n      dup1\n      returndatacopy\n      revert(0x00, returndatasize)\n    tag_162:\n      pop\n      pop\n      pop\n      pop\n      mload(0x40)\n      returndatasize\n      not(0x1f)\n      0x1f\n      dup3\n      add\n      and\n      dup3\n      add\n      dup1\n      0x40\n      mstore\n      pop\n      dup2\n      add\n      swap1\n      tag_163\n      swap2\n      swap1\n      tag_147\n      jump\t// in\n    tag_163:\n        /* \"FlightReservation.sol\":5417:5519  require(... */\n      tag_164\n      jumpi\n      mload(0x40)\n      0x08c379a000000000000000000000000000000000000000000000000000000000\n      dup2\n      mstore\n      0x04\n      add\n      tag_165\n      swap1\n      tag_166\n      jump\t// in\n    tag_165:\n      mload(0x40)\n      dup1\n      swap2\n      sub\n      swap1\n      revert\n    tag_164:\n        /* \"FlightReservation.sol\":5644:5659  evtolManagement */\n      0x02\n      0x00\n      swap1\n      sload\n      swap1\n      0x0100\n      exp\n      swap1\n      div\n      0xffffffffffffffffffffffffffffffffffffffff\n      and\n        /* \"FlightReservation.sol\":5644:5672  evtolManagement.assignToTrip */\n      0xffffffffffffffffffffffffffffffffffffffff\n      and\n      0x864980de\n        /* \"FlightReservation.sol\":5673:5680  evtolId */\n      dup6\n        /* \"FlightReservation.sol\":5682:5688  tripId */\n      dup11\n        /* \"FlightReservation.sol\":5644:5689  evtolManagement.assignToTrip(evtolId, tripId) */\n      mload(0x40)\n      dup4\n      0xffffffff\n      and\n      0xe0\n      shl\n      dup2\n      mstore\n      0x04\n      add\n      tag_167\n      swap3\n      swap2\n      swap1\n      tag_168\n      jump\t// in\n    tag_167:\n      0x00\n      mload(0x40)\n      dup1\n      dup4\n      sub\n      dup2\n      0x00\n      dup8\n      dup1\n      extcodesize\n      iszero\n      dup1\n      iszero\n      tag_169\n      jumpi\n      0x00\n      dup1\n      revert\n    tag_169:\n      pop\n      gas\n      call\n      iszero\n      dup1\n      iszero\n      tag_171\n      jumpi\n      returndatasize\n      0x00\n      dup1\n      returndatacopy\n      revert(0x00, returndatasize)\n    tag_171:\n      pop\n      pop\n      pop\n      pop\n        /* \"FlightReservation.sol\":5751:5765  Trip storage t */\n      0x00\n        /* \"FlightReservation.sol\":5768:5773  trips */\n      0x04\n        /* \"FlightReservation.sol\":5774:5780  tripId */\n      dup10\n        /* \"FlightReservation.sol\":5768:5781  trips[tripId] */\n      mload(0x40)\n      tag_172\n      swap2\n      swap1\n      tag_58\n      jump\t// in\n    tag_172:\n      swap1\n      dup2\n      mstore\n      0x20\n      add\n      mload(0x40)\n      dup1\n      swap2\n      sub\n      swap1\n      keccak256\n        /* \"FlightReservation.sol\":5751:5781  Trip storage t = trips[tripId] */\n      swap1\n      pop\n        /* \"FlightReservation.sol\":5798:5804  tripId */\n      dup9\n        /* \"FlightReservation.sol\":5791:5792  t */\n      dup2\n        /* \"FlightReservation.sol\":5791:5795  t.id */\n      0x00\n      add\n        /* \"FlightReservation.sol\":5791:5804  t.id = tripId */\n      swap1\n      dup1\n      mload\n      swap1\n      0x20\n      add\n      swap1\n      tag_173\n      swap3\n      swap2\n      swap1\n      tag_174\n      jump\t// in\n    tag_173:\n      pop\n        /* \"FlightReservation.sol\":5824:5829  rider */\n      dup8\n        /* \"FlightReservation.sol\":5814:5815  t */\n      dup2\n        /* \"FlightReservation.sol\":5814:5821  t.rider */\n      0x01\n      add\n      0x00\n        /* \"FlightReservation.sol\":5814:5829  t.rider = rider */\n      0x0100\n      exp\n      dup2\n      sload\n      dup2\n      0xffffffffffffffffffffffffffffffffffffffff\n      mul\n      not\n      and\n      swap1\n      dup4\n      0xffffffffffffffffffffffffffffffffffffffff\n      and\n      mul\n      or\n      swap1\n      sstore\n      pop\n        /* \"FlightReservation.sol\":5861:5878  originVertiportId */\n      dup7\n        /* \"FlightReservation.sol\":5839:5840  t */\n      dup2\n        /* \"FlightReservation.sol\":5839:5858  t.originVertiportId */\n      0x02\n      add\n        /* \"FlightReservation.sol\":5839:5878  t.originVertiportId = originVertiportId */\n      swap1\n      dup1\n      mload\n      swap1\n      0x20\n      add\n      swap1\n      tag_175\n      swap3\n      swap2\n      swap1\n      tag_174\n      jump\t// in\n    tag_175:\n      pop\n        /* \"FlightReservation.sol\":5915:5937  destinationVertiportId */\n      dup6\n        /* \"FlightReservation.sol\":5888:5889  t */\n      dup2\n        /* \"FlightReservation.sol\":5888:5912  t.destinationVertiportId */\n      0x03\n      add\n        /* \"FlightReservation.sol\":5888:5937  t.destinationVertiportId = destinationVertiportId */\n      swap1\n      dup1\n      mload\n      swap1\n      0x20\n      add\n      swap1\n      tag_176\n      swap3\n      swap2\n      swap1\n      tag_174\n      jump\t// in\n    tag_176:\n      pop\n        /* \"FlightReservation.sol\":5959:5966  evtolId */\n      dup5\n        /* \"FlightReservation.sol\":5947:5948  t */\n      dup2\n        /* \"FlightReservation.sol\":5947:5956  t.evtolId */\n      0x04\n      add\n        /* \"FlightReservation.sol\":5947:5966  t.evtolId = evtolId */\n      dup2\n      swap1\n      sstore\n      pop\n        /* \"FlightReservation.sol\":5987:6007  TripStatus.CONFIRMED */\n      0x01\n        /* \"FlightReservation.sol\":5976:5977  t */\n      dup2\n        /* \"FlightReservation.sol\":5976:5984  t.status */\n      0x05\n      add\n      0x00\n        /* \"FlightReservation.sol\":5976:6007  t.status = TripStatus.CONFIRMED */\n      0x0100\n      exp\n      dup2\n      sload\n      dup2\n      0xff\n      mul\n      not\n      and\n      swap1\n      dup4\n      0x04\n      dup2\n      gt\n      iszero\n      tag_177\n      jumpi\n      tag_178\n      tag_77\n      jump\t// in\n    tag_178:\n    tag_177:\n      mul\n      or\n      swap1\n      sstore\n      pop\n        /* \"FlightReservation.sol\":6031:6046  block.timestamp */\n      timestamp\n        /* \"FlightReservation.sol\":6017:6018  t */\n      dup2\n        /* \"FlightReservation.sol\":6017:6028  t.createdAt */\n      0x06\n      add\n        /* \"FlightReservation.sol\":6017:6046  t.createdAt = block.timestamp */\n      dup2\n      swap1\n      sstore\n      pop\n        /* \"FlightReservation.sol\":6067:6071  true */\n      0x01\n        /* \"FlightReservation.sol\":6056:6057  t */\n      dup2\n        /* \"FlightReservation.sol\":6056:6064  t.exists */\n      0x07\n      add\n      0x00\n        /* \"FlightReservation.sol\":6056:6071  t.exists = true */\n      0x0100\n      exp\n      dup2\n      sload\n      dup2\n      0xff\n      mul\n      not\n      and\n      swap1\n      dup4\n      iszero\n      iszero\n      mul\n      or\n      swap1\n      sstore\n      pop\n        /* \"FlightReservation.sol\":6107:6112  rider */\n      dup8\n        /* \"FlightReservation.sol\":6087:6165  TripCreated(tripId, rider, originVertiportId, destinationVertiportId, evtolId) */\n      0xffffffffffffffffffffffffffffffffffffffff\n      and\n        /* \"FlightReservation.sol\":6099:6105  tripId */\n      dup10\n        /* \"FlightReservation.sol\":6087:6165  TripCreated(tripId, rider, originVertiportId, destinationVertiportId, evtolId) */\n      mload(0x40)\n      tag_179\n      swap2\n      swap1\n      tag_58\n      jump\t// in\n    tag_179:\n      mload(0x40)\n      dup1\n      swap2\n      sub\n      swap1\n      keccak256\n      0x016b16e7cc38488f7360a97fa5cf95ef7503b5cbda614ace6942520a53ad1846\n        /* \"FlightReservation.sol\":6114:6131  originVertiportId */\n      dup10\n        /* \"FlightReservation.sol\":6133:6155  destinationVertiportId */\n      dup10\n        /* \"FlightReservation.sol\":6157:6164  evtolId */\n      dup10\n        /* \"FlightReservation.sol\":6087:6165  TripCreated(tripId, rider, originVertiportId, destinationVertiportId, evtolId) */\n      mload(0x40)\n      tag_180\n      swap4\n      swap3\n      swap2\n      swap1\n      tag_181\n      jump\t// in\n    tag_180:\n      mload(0x40)\n      dup1\n      swap2\n      sub\n      swap1\n      log3\n        /* \"FlightReservation.sol\":6198:6204  tripId */\n      dup9\n        /* \"FlightReservation.sol\":6180:6249  TripStatusUpdated(tripId, TripStatus.REQUESTED, TripStatus.CONFIRMED) */\n      mload(0x40)\n      tag_182\n      swap2\n      swap1\n      tag_58\n      jump\t// in\n    tag_182:\n      mload(0x40)\n      dup1\n      swap2\n      sub\n      swap1\n      keccak256\n      0x9d90b27494f938a087a90248834b48353bb9436a76e90f1f37fcb8d3ae5dbd20\n        /* \"FlightReservation.sol\":6206:6226  TripStatus.REQUESTED */\n      0x00\n        /* \"FlightReservation.sol\":6228:6248  TripStatus.CONFIRMED */\n      0x01\n        /* \"FlightReservation.sol\":6180:6249  TripStatusUpdated(tripId, TripStatus.REQUESTED, TripStatus.CONFIRMED) */\n      mload(0x40)\n      tag_183\n      swap3\n      swap2\n      swap1\n      tag_119\n      jump\t// in\n    tag_183:\n      mload(0x40)\n      dup1\n      swap2\n      sub\n      swap1\n      log2\n        /* \"FlightReservation.sol\":4183:6256  {... */\n      pop\n        /* \"FlightReservation.sol\":3845:6256  function createReservation(... */\n      pop\n      pop\n      pop\n      pop\n      pop\n      pop\n      pop\n      pop\n      jump\t// out\n        /* \"FlightReservation.sol\":6535:7490  function startTrip(... */\n    tag_42:\n        /* \"FlightReservation.sol\":2229:2234  admin */\n      0x03\n      0x00\n      swap1\n      sload\n      swap1\n      0x0100\n      exp\n      swap1\n      div\n      0xffffffffffffffffffffffffffffffffffffffff\n      and\n        /* \"FlightReservation.sol\":2215:2234  msg.sender == admin */\n      0xffffffffffffffffffffffffffffffffffffffff\n      and\n        /* \"FlightReservation.sol\":2215:2225  msg.sender */\n      caller\n        /* \"FlightReservation.sol\":2215:2234  msg.sender == admin */\n      0xffffffffffffffffffffffffffffffffffffffff\n      and\n      eq\n        /* \"FlightReservation.sol\":2207:2264  require(msg.sender == admin, \"No autorizado: solo admin\") */\n      tag_185\n      jumpi\n      mload(0x40)\n      0x08c379a000000000000000000000000000000000000000000000000000000000\n      dup2\n      mstore\n      0x04\n      add\n      tag_186\n      swap1\n      tag_86\n      jump\t// in\n    tag_186:\n      mload(0x40)\n      dup1\n      swap2\n      sub\n      swap1\n      revert\n    tag_185:\n        /* \"FlightReservation.sol\":6665:6679  Trip storage t */\n      0x00\n        /* \"FlightReservation.sol\":6682:6687  trips */\n      0x04\n        /* \"FlightReservation.sol\":6688:6694  tripId */\n      dup4\n        /* \"FlightReservation.sol\":6682:6695  trips[tripId] */\n      mload(0x40)\n      tag_188\n      swap2\n      swap1\n      tag_58\n      jump\t// in\n    tag_188:\n      swap1\n      dup2\n      mstore\n      0x20\n      add\n      mload(0x40)\n      dup1\n      swap2\n      sub\n      swap1\n      keccak256\n        /* \"FlightReservation.sol\":6665:6695  Trip storage t = trips[tripId] */\n      swap1\n      pop\n        /* \"FlightReservation.sol\":6713:6714  t */\n      dup1\n        /* \"FlightReservation.sol\":6713:6721  t.exists */\n      0x07\n      add\n      0x00\n      swap1\n      sload\n      swap1\n      0x0100\n      exp\n      swap1\n      div\n      0xff\n      and\n        /* \"FlightReservation.sol\":6705:6744  require(t.exists, \"Trip no encontrada\") */\n      tag_189\n      jumpi\n      mload(0x40)\n      0x08c379a000000000000000000000000000000000000000000000000000000000\n      dup2\n      mstore\n      0x04\n      add\n      tag_190\n      swap1\n      tag_82\n      jump\t// in\n    tag_190:\n      mload(0x40)\n      dup1\n      swap2\n      sub\n      swap1\n      revert\n    tag_189:\n        /* \"FlightReservation.sol\":6774:6794  TripStatus.CONFIRMED */\n      0x01\n        /* \"FlightReservation.sol\":6762:6794  t.status == TripStatus.CONFIRMED */\n      0x04\n      dup2\n      gt\n      iszero\n      tag_191\n      jumpi\n      tag_192\n      tag_77\n      jump\t// in\n    tag_192:\n    tag_191:\n        /* \"FlightReservation.sol\":6762:6763  t */\n      dup2\n        /* \"FlightReservation.sol\":6762:6770  t.status */\n      0x05\n      add\n      0x00\n      swap1\n      sload\n      swap1\n      0x0100\n      exp\n      swap1\n      div\n      0xff\n      and\n        /* \"FlightReservation.sol\":6762:6794  t.status == TripStatus.CONFIRMED */\n      0x04\n      dup2\n      gt\n      iszero\n      tag_193\n      jumpi\n      tag_194\n      tag_77\n      jump\t// in\n    tag_194:\n    tag_193:\n      eq\n        /* \"FlightReservation.sol\":6754:6822  require(t.status == TripStatus.CONFIRMED, \"Estado de trip invalido\") */\n      tag_195\n      jumpi\n      mload(0x40)\n      0x08c379a000000000000000000000000000000000000000000000000000000000\n      dup2\n      mstore\n      0x04\n      add\n      tag_196\n      swap1\n      tag_104\n      jump\t// in\n    tag_196:\n      mload(0x40)\n      dup1\n      swap2\n      sub\n      swap1\n      revert\n    tag_195:\n        /* \"FlightReservation.sol\":6894:6909  evtolManagement */\n      0x02\n      0x00\n      swap1\n      sload\n      swap1\n      0x0100\n      exp\n      swap1\n      div\n      0xffffffffffffffffffffffffffffffffffffffff\n      and\n        /* \"FlightReservation.sol\":6894:6919  evtolManagement.startTrip */\n      0xffffffffffffffffffffffffffffffffffffffff\n      and\n      0x3dde315e\n        /* \"FlightReservation.sol\":6920:6921  t */\n      dup3\n        /* \"FlightReservation.sol\":6920:6929  t.evtolId */\n      0x04\n      add\n      sload\n        /* \"FlightReservation.sol\":6894:6930  evtolManagement.startTrip(t.evtolId) */\n      mload(0x40)\n      dup3\n      0xffffffff\n      and\n      0xe0\n      shl\n      dup2\n      mstore\n      0x04\n      add\n      tag_197\n      swap2\n      swap1\n      tag_160\n      jump\t// in\n    tag_197:\n      0x00\n      mload(0x40)\n      dup1\n      dup4\n      sub\n      dup2\n      0x00\n      dup8\n      dup1\n      extcodesize\n      iszero\n      dup1\n      iszero\n      tag_198\n      jumpi\n      0x00\n      dup1\n      revert\n    tag_198:\n      pop\n      gas\n      call\n      iszero\n      dup1\n      iszero\n      tag_200\n      jumpi\n      returndatasize\n      0x00\n      dup1\n      returndatacopy\n      revert(0x00, returndatasize)\n    tag_200:\n      pop\n      pop\n      pop\n      pop\n        /* \"FlightReservation.sol\":7157:7176  vertiportManagement */\n      0x01\n      0x00\n      swap1\n      sload\n      swap1\n      0x0100\n      exp\n      swap1\n      div\n      0xffffffffffffffffffffffffffffffffffffffff\n      and\n        /* \"FlightReservation.sol\":7157:7197  vertiportManagement.updateVertiportState */\n      0xffffffffffffffffffffffffffffffffffffffff\n      and\n      0xcf0803e9\n        /* \"FlightReservation.sol\":7211:7212  t */\n      dup3\n        /* \"FlightReservation.sol\":7211:7230  t.originVertiportId */\n      0x02\n      add\n        /* \"FlightReservation.sol\":7244:7269  originVertiportCredential */\n      dup5\n        /* \"FlightReservation.sol\":7283:7284  0 */\n      0x00\n        /* \"FlightReservation.sol\":7305:7306  1 */\n      0x01\n        /* \"FlightReservation.sol\":7157:7338  vertiportManagement.updateVertiportState(... */\n      mload(0x40)\n      dup6\n      0xffffffff\n      and\n      0xe0\n      shl\n      dup2\n      mstore\n      0x04\n      add\n      tag_201\n      swap5\n      swap4\n      swap3\n      swap2\n      swap1\n      tag_111\n      jump\t// in\n    tag_201:\n      0x00\n      mload(0x40)\n      dup1\n      dup4\n      sub\n      dup2\n      0x00\n      dup8\n      dup1\n      extcodesize\n      iszero\n      dup1\n      iszero\n      tag_202\n      jumpi\n      0x00\n      dup1\n      revert\n    tag_202:\n      pop\n      gas\n      call\n      iszero\n      dup1\n      iszero\n      tag_204\n      jumpi\n      returndatasize\n      0x00\n      dup1\n      returndatacopy\n      revert(0x00, returndatasize)\n    tag_204:\n      pop\n      pop\n      pop\n      pop\n        /* \"FlightReservation.sol\":7349:7368  TripStatus previous */\n      0x00\n        /* \"FlightReservation.sol\":7371:7372  t */\n      dup2\n        /* \"FlightReservation.sol\":7371:7379  t.status */\n      0x05\n      add\n      0x00\n      swap1\n      sload\n      swap1\n      0x0100\n      exp\n      swap1\n      div\n      0xff\n      and\n        /* \"FlightReservation.sol\":7349:7379  TripStatus previous = t.status */\n      swap1\n      pop\n        /* \"FlightReservation.sol\":7400:7422  TripStatus.IN_PROGRESS */\n      0x02\n        /* \"FlightReservation.sol\":7389:7390  t */\n      dup3\n        /* \"FlightReservation.sol\":7389:7397  t.status */\n      0x05\n      add\n      0x00\n        /* \"FlightReservation.sol\":7389:7422  t.status = TripStatus.IN_PROGRESS */\n      0x0100\n      exp\n      dup2\n      sload\n      dup2\n      0xff\n      mul\n      not\n      and\n      swap1\n      dup4\n      0x04\n      dup2\n      gt\n      iszero\n      tag_205\n      jumpi\n      tag_206\n      tag_77\n      jump\t// in\n    tag_206:\n    tag_205:\n      mul\n      or\n      swap1\n      sstore\n      pop\n        /* \"FlightReservation.sol\":7456:7462  tripId */\n      dup4\n        /* \"FlightReservation.sol\":7438:7483  TripStatusUpdated(tripId, previous, t.status) */\n      mload(0x40)\n      tag_207\n      swap2\n      swap1\n      tag_58\n      jump\t// in\n    tag_207:\n      mload(0x40)\n      dup1\n      swap2\n      sub\n      swap1\n      keccak256\n      0x9d90b27494f938a087a90248834b48353bb9436a76e90f1f37fcb8d3ae5dbd20\n        /* \"FlightReservation.sol\":7464:7472  previous */\n      dup3\n        /* \"FlightReservation.sol\":7474:7475  t */\n      dup5\n        /* \"FlightReservation.sol\":7474:7482  t.status */\n      0x05\n      add\n      0x00\n      swap1\n      sload\n      swap1\n      0x0100\n      exp\n      swap1\n      div\n      0xff\n      and\n        /* \"FlightReservation.sol\":7438:7483  TripStatusUpdated(tripId, previous, t.status) */\n      mload(0x40)\n      tag_208\n      swap3\n      swap2\n      swap1\n      tag_119\n      jump\t// in\n    tag_208:\n      mload(0x40)\n      dup1\n      swap2\n      sub\n      swap1\n      log2\n        /* \"FlightReservation.sol\":6655:7490  {... */\n      pop\n      pop\n        /* \"FlightReservation.sol\":6535:7490  function startTrip(... */\n      pop\n      pop\n      jump\t// out\n        /* \"FlightReservation.sol\":8872:9330  function cancelTrip(string memory tripId) public onlyAdmin {... */\n    tag_45:\n        /* \"FlightReservation.sol\":2229:2234  admin */\n      0x03\n      0x00\n      swap1\n      sload\n      swap1\n      0x0100\n      exp\n      swap1\n      div\n      0xffffffffffffffffffffffffffffffffffffffff\n      and\n        /* \"FlightReservation.sol\":2215:2234  msg.sender == admin */\n      0xffffffffffffffffffffffffffffffffffffffff\n      and\n        /* \"FlightReservation.sol\":2215:2225  msg.sender */\n      caller\n        /* \"FlightReservation.sol\":2215:2234  msg.sender == admin */\n      0xffffffffffffffffffffffffffffffffffffffff\n      and\n      eq\n        /* \"FlightReservation.sol\":2207:2264  require(msg.sender == admin, \"No autorizado: solo admin\") */\n      tag_210\n      jumpi\n      mload(0x40)\n      0x08c379a000000000000000000000000000000000000000000000000000000000\n      dup2\n      mstore\n      0x04\n      add\n      tag_211\n      swap1\n      tag_86\n      jump\t// in\n    tag_211:\n      mload(0x40)\n      dup1\n      swap2\n      sub\n      swap1\n      revert\n    tag_210:\n        /* \"FlightReservation.sol\":8941:8955  Trip storage t */\n      0x00\n        /* \"FlightReservation.sol\":8958:8963  trips */\n      0x04\n        /* \"FlightReservation.sol\":8964:8970  tripId */\n      dup3\n        /* \"FlightReservation.sol\":8958:8971  trips[tripId] */\n      mload(0x40)\n      tag_213\n      swap2\n      swap1\n      tag_58\n      jump\t// in\n    tag_213:\n      swap1\n      dup2\n      mstore\n      0x20\n      add\n      mload(0x40)\n      dup1\n      swap2\n      sub\n      swap1\n      keccak256\n        /* \"FlightReservation.sol\":8941:8971  Trip storage t = trips[tripId] */\n      swap1\n      pop\n        /* \"FlightReservation.sol\":8989:8990  t */\n      dup1\n        /* \"FlightReservation.sol\":8989:8997  t.exists */\n      0x07\n      add\n      0x00\n      swap1\n      sload\n      swap1\n      0x0100\n      exp\n      swap1\n      div\n      0xff\n      and\n        /* \"FlightReservation.sol\":8981:9020  require(t.exists, \"Trip no encontrada\") */\n      tag_214\n      jumpi\n      mload(0x40)\n      0x08c379a000000000000000000000000000000000000000000000000000000000\n      dup2\n      mstore\n      0x04\n      add\n      tag_215\n      swap1\n      tag_82\n      jump\t// in\n    tag_215:\n      mload(0x40)\n      dup1\n      swap2\n      sub\n      swap1\n      revert\n    tag_214:\n        /* \"FlightReservation.sol\":9063:9083  TripStatus.CONFIRMED */\n      0x01\n        /* \"FlightReservation.sol\":9051:9083  t.status == TripStatus.CONFIRMED */\n      0x04\n      dup2\n      gt\n      iszero\n      tag_216\n      jumpi\n      tag_217\n      tag_77\n      jump\t// in\n    tag_217:\n    tag_216:\n        /* \"FlightReservation.sol\":9051:9052  t */\n      dup2\n        /* \"FlightReservation.sol\":9051:9059  t.status */\n      0x05\n      add\n      0x00\n      swap1\n      sload\n      swap1\n      0x0100\n      exp\n      swap1\n      div\n      0xff\n      and\n        /* \"FlightReservation.sol\":9051:9083  t.status == TripStatus.CONFIRMED */\n      0x04\n      dup2\n      gt\n      iszero\n      tag_218\n      jumpi\n      tag_219\n      tag_77\n      jump\t// in\n    tag_219:\n    tag_218:\n      eq\n        /* \"FlightReservation.sol\":9051:9119  t.status == TripStatus.CONFIRMED || t.status == TripStatus.REQUESTED */\n      dup1\n      tag_220\n      jumpi\n      pop\n        /* \"FlightReservation.sol\":9099:9119  TripStatus.REQUESTED */\n      0x00\n        /* \"FlightReservation.sol\":9087:9119  t.status == TripStatus.REQUESTED */\n      0x04\n      dup2\n      gt\n      iszero\n      tag_221\n      jumpi\n      tag_222\n      tag_77\n      jump\t// in\n    tag_222:\n    tag_221:\n        /* \"FlightReservation.sol\":9087:9088  t */\n      dup2\n        /* \"FlightReservation.sol\":9087:9095  t.status */\n      0x05\n      add\n      0x00\n      swap1\n      sload\n      swap1\n      0x0100\n      exp\n      swap1\n      div\n      0xff\n      and\n        /* \"FlightReservation.sol\":9087:9119  t.status == TripStatus.REQUESTED */\n      0x04\n      dup2\n      gt\n      iszero\n      tag_223\n      jumpi\n      tag_224\n      tag_77\n      jump\t// in\n    tag_224:\n    tag_223:\n      eq\n        /* \"FlightReservation.sol\":9051:9119  t.status == TripStatus.CONFIRMED || t.status == TripStatus.REQUESTED */\n    tag_220:\n        /* \"FlightReservation.sol\":9030:9180  require(... */\n      tag_225\n      jumpi\n      mload(0x40)\n      0x08c379a000000000000000000000000000000000000000000000000000000000\n      dup2\n      mstore\n      0x04\n      add\n      tag_226\n      swap1\n      tag_227\n      jump\t// in\n    tag_226:\n      mload(0x40)\n      dup1\n      swap2\n      sub\n      swap1\n      revert\n    tag_225:\n        /* \"FlightReservation.sol\":9191:9210  TripStatus previous */\n      0x00\n        /* \"FlightReservation.sol\":9213:9214  t */\n      dup2\n        /* \"FlightReservation.sol\":9213:9221  t.status */\n      0x05\n      add\n      0x00\n      swap1\n      sload\n      swap1\n      0x0100\n      exp\n      swap1\n      div\n      0xff\n      and\n        /* \"FlightReservation.sol\":9191:9221  TripStatus previous = t.status */\n      swap1\n      pop\n        /* \"FlightReservation.sol\":9242:9262  TripStatus.CANCELLED */\n      0x04\n        /* \"FlightReservation.sol\":9231:9232  t */\n      dup3\n        /* \"FlightReservation.sol\":9231:9239  t.status */\n      0x05\n      add\n      0x00\n        /* \"FlightReservation.sol\":9231:9262  t.status = TripStatus.CANCELLED */\n      0x0100\n      exp\n      dup2\n      sload\n      dup2\n      0xff\n      mul\n      not\n      and\n      swap1\n      dup4\n      0x04\n      dup2\n      gt\n      iszero\n      tag_228\n      jumpi\n      tag_229\n      tag_77\n      jump\t// in\n    tag_229:\n    tag_228:\n      mul\n      or\n      swap1\n      sstore\n      pop\n        /* \"FlightReservation.sol\":9296:9302  tripId */\n      dup3\n        /* \"FlightReservation.sol\":9278:9323  TripStatusUpdated(tripId, previous, t.status) */\n      mload(0x40)\n      tag_230\n      swap2\n      swap1\n      tag_58\n      jump\t// in\n    tag_230:\n      mload(0x40)\n      dup1\n      swap2\n      sub\n      swap1\n      keccak256\n      0x9d90b27494f938a087a90248834b48353bb9436a76e90f1f37fcb8d3ae5dbd20\n        /* \"FlightReservation.sol\":9304:9312  previous */\n      dup3\n        /* \"FlightReservation.sol\":9314:9315  t */\n      dup5\n        /* \"FlightReservation.sol\":9314:9322  t.status */\n      0x05\n      add\n      0x00\n      swap1\n      sload\n      swap1\n      0x0100\n      exp\n      swap1\n      div\n      0xff\n      and\n        /* \"FlightReservation.sol\":9278:9323  TripStatusUpdated(tripId, previous, t.status) */\n      mload(0x40)\n      tag_231\n      swap3\n      swap2\n      swap1\n      tag_119\n      jump\t// in\n    tag_231:\n      mload(0x40)\n      dup1\n      swap2\n      sub\n      swap1\n      log2\n        /* \"FlightReservation.sol\":8931:9330  {... */\n      pop\n      pop\n        /* \"FlightReservation.sol\":8872:9330  function cancelTrip(string memory tripId) public onlyAdmin {... */\n      pop\n      jump\t// out\n        /* \"FlightReservation.sol\":1783:1803  address public admin */\n    tag_47:\n      0x03\n      0x00\n      swap1\n      sload\n      swap1\n      0x0100\n      exp\n      swap1\n      div\n      0xffffffffffffffffffffffffffffffffffffffff\n      and\n      dup2\n      jump\t// out\n        /* \"FlightReservation.sol\":1613:1660  IVertiportManagement public vertiportManagement */\n    tag_51:\n      0x01\n      0x00\n      swap1\n      sload\n      swap1\n      0x0100\n      exp\n      swap1\n      div\n      0xffffffffffffffffffffffffffffffffffffffff\n      and\n      dup2\n      jump\t// out\n    tag_55:\n      mload(0x40)\n      dup1\n      0x0100\n      add\n      0x40\n      mstore\n      dup1\n      0x60\n      dup2\n      mstore\n      0x20\n      add\n      and(0xffffffffffffffffffffffffffffffffffffffff, 0x00)\n      dup2\n      mstore\n      0x20\n      add\n      0x60\n      dup2\n      mstore\n      0x20\n      add\n      0x60\n      dup2\n      mstore\n      0x20\n      add\n      0x00\n      dup2\n      mstore\n      0x20\n      add\n      0x00\n      0x04\n      dup2\n      gt\n      iszero\n      tag_232\n      jumpi\n      tag_233\n      tag_77\n      jump\t// in\n    tag_233:\n    tag_232:\n      dup2\n      mstore\n      0x20\n      add\n      0x00\n      dup2\n      mstore\n      0x20\n      add\n      iszero(iszero(0x00))\n      dup2\n      mstore\n      pop\n      swap1\n      jump\t// out\n    tag_174:\n      dup3\n      dup1\n      sload\n      tag_234\n      swap1\n      tag_60\n      jump\t// in\n    tag_234:\n      swap1\n      0x00\n      mstore\n      keccak256(0x00, 0x20)\n      swap1\n      0x1f\n      add\n      0x20\n      swap1\n      div\n      dup2\n      add\n      swap3\n      dup3\n      tag_236\n      jumpi\n      0x00\n      dup6\n      sstore\n      jump(tag_235)\n    tag_236:\n      dup3\n      0x1f\n      lt\n      tag_237\n      jumpi\n      dup1\n      mload\n      not(0xff)\n      and\n      dup4\n      dup1\n      add\n      or\n      dup6\n      sstore\n      jump(tag_235)\n    tag_237:\n      dup3\n      dup1\n      add\n      0x01\n      add\n      dup6\n      sstore\n      dup3\n      iszero\n      tag_235\n      jumpi\n      swap2\n      dup3\n      add\n    tag_238:\n      dup3\n      dup2\n      gt\n      iszero\n      tag_239\n      jumpi\n      dup3\n      mload\n      dup3\n      sstore\n      swap2\n      0x20\n      add\n      swap2\n      swap1\n      0x01\n      add\n      swap1\n      jump(tag_238)\n    tag_239:\n    tag_235:\n      pop\n      swap1\n      pop\n      tag_240\n      swap2\n      swap1\n      tag_241\n      jump\t// in\n    tag_240:\n      pop\n      swap1\n      jump\t// out\n    tag_241:\n    tag_242:\n      dup1\n      dup3\n      gt\n      iszero\n      tag_243\n      jumpi\n      0x00\n      dup2\n      0x00\n      swap1\n      sstore\n      pop\n      0x01\n      add\n      jump(tag_242)\n    tag_243:\n      pop\n      swap1\n      jump\t// out\n        /* \"#utility.yul\":7:133   */\n    tag_244:\n        /* \"#utility.yul\":44:51   */\n      0x00\n        /* \"#utility.yul\":84:126   */\n      0xffffffffffffffffffffffffffffffffffffffff\n        /* \"#utility.yul\":77:82   */\n      dup3\n        /* \"#utility.yul\":73:127   */\n      and\n        /* \"#utility.yul\":62:127   */\n      swap1\n      pop\n        /* \"#utility.yul\":7:133   */\n      swap2\n      swap1\n      pop\n      jump\t// out\n        /* \"#utility.yul\":139:199   */\n    tag_245:\n        /* \"#utility.yul\":167:170   */\n      0x00\n        /* \"#utility.yul\":188:193   */\n      dup2\n        /* \"#utility.yul\":181:193   */\n      swap1\n      pop\n        /* \"#utility.yul\":139:199   */\n      swap2\n      swap1\n      pop\n      jump\t// out\n        /* \"#utility.yul\":205:347   */\n    tag_246:\n        /* \"#utility.yul\":255:264   */\n      0x00\n        /* \"#utility.yul\":288:341   */\n      tag_341\n        /* \"#utility.yul\":306:340   */\n      tag_342\n        /* \"#utility.yul\":315:339   */\n      tag_343\n        /* \"#utility.yul\":333:338   */\n      dup5\n        /* \"#utility.yul\":315:339   */\n      tag_244\n      jump\t// in\n    tag_343:\n        /* \"#utility.yul\":306:340   */\n      tag_245\n      jump\t// in\n    tag_342:\n        /* \"#utility.yul\":288:341   */\n      tag_244\n      jump\t// in\n    tag_341:\n        /* \"#utility.yul\":275:341   */\n      swap1\n      pop\n        /* \"#utility.yul\":205:347   */\n      swap2\n      swap1\n      pop\n      jump\t// out\n        /* \"#utility.yul\":353:479   */\n    tag_247:\n        /* \"#utility.yul\":403:412   */\n      0x00\n        /* \"#utility.yul\":436:473   */\n      tag_345\n        /* \"#utility.yul\":467:472   */\n      dup3\n        /* \"#utility.yul\":436:473   */\n      tag_246\n      jump\t// in\n    tag_345:\n        /* \"#utility.yul\":423:473   */\n      swap1\n      pop\n        /* \"#utility.yul\":353:479   */\n      swap2\n      swap1\n      pop\n      jump\t// out\n        /* \"#utility.yul\":485:636   */\n    tag_248:\n        /* \"#utility.yul\":560:569   */\n      0x00\n        /* \"#utility.yul\":593:630   */\n      tag_347\n        /* \"#utility.yul\":624:629   */\n      dup3\n        /* \"#utility.yul\":593:630   */\n      tag_247\n      jump\t// in\n    tag_347:\n        /* \"#utility.yul\":580:630   */\n      swap1\n      pop\n        /* \"#utility.yul\":485:636   */\n      swap2\n      swap1\n      pop\n      jump\t// out\n        /* \"#utility.yul\":642:823   */\n    tag_249:\n        /* \"#utility.yul\":754:816   */\n      tag_349\n        /* \"#utility.yul\":810:815   */\n      dup2\n        /* \"#utility.yul\":754:816   */\n      tag_248\n      jump\t// in\n    tag_349:\n        /* \"#utility.yul\":749:752   */\n      dup3\n        /* \"#utility.yul\":742:817   */\n      mstore\n        /* \"#utility.yul\":642:823   */\n      pop\n      pop\n      jump\t// out\n        /* \"#utility.yul\":829:1101   */\n    tag_17:\n        /* \"#utility.yul\":947:951   */\n      0x00\n        /* \"#utility.yul\":985:987   */\n      0x20\n        /* \"#utility.yul\":974:983   */\n      dup3\n        /* \"#utility.yul\":970:988   */\n      add\n        /* \"#utility.yul\":962:988   */\n      swap1\n      pop\n        /* \"#utility.yul\":998:1094   */\n      tag_351\n        /* \"#utility.yul\":1091:1092   */\n      0x00\n        /* \"#utility.yul\":1080:1089   */\n      dup4\n        /* \"#utility.yul\":1076:1093   */\n      add\n        /* \"#utility.yul\":1067:1073   */\n      dup5\n        /* \"#utility.yul\":998:1094   */\n      tag_249\n      jump\t// in\n    tag_351:\n        /* \"#utility.yul\":829:1101   */\n      swap3\n      swap2\n      pop\n      pop\n      jump\t// out\n        /* \"#utility.yul\":1107:1257   */\n    tag_250:\n        /* \"#utility.yul\":1181:1190   */\n      0x00\n        /* \"#utility.yul\":1214:1251   */\n      tag_353\n        /* \"#utility.yul\":1245:1250   */\n      dup3\n        /* \"#utility.yul\":1214:1251   */\n      tag_247\n      jump\t// in\n    tag_353:\n        /* \"#utility.yul\":1201:1251   */\n      swap1\n      pop\n        /* \"#utility.yul\":1107:1257   */\n      swap2\n      swap1\n      pop\n      jump\t// out\n        /* \"#utility.yul\":1263:1442   */\n    tag_251:\n        /* \"#utility.yul\":1374:1435   */\n      tag_355\n        /* \"#utility.yul\":1429:1434   */\n      dup2\n        /* \"#utility.yul\":1374:1435   */\n      tag_250\n      jump\t// in\n    tag_355:\n        /* \"#utility.yul\":1369:1372   */\n      dup3\n        /* \"#utility.yul\":1362:1436   */\n      mstore\n        /* \"#utility.yul\":1263:1442   */\n      pop\n      pop\n      jump\t// out\n        /* \"#utility.yul\":1448:1718   */\n    tag_21:\n        /* \"#utility.yul\":1565:1569   */\n      0x00\n        /* \"#utility.yul\":1603:1605   */\n      0x20\n        /* \"#utility.yul\":1592:1601   */\n      dup3\n        /* \"#utility.yul\":1588:1606   */\n      add\n        /* \"#utility.yul\":1580:1606   */\n      swap1\n      pop\n        /* \"#utility.yul\":1616:1711   */\n      tag_357\n        /* \"#utility.yul\":1708:1709   */\n      0x00\n        /* \"#utility.yul\":1697:1706   */\n      dup4\n        /* \"#utility.yul\":1693:1710   */\n      add\n        /* \"#utility.yul\":1684:1690   */\n      dup5\n        /* \"#utility.yul\":1616:1711   */\n      tag_251\n      jump\t// in\n    tag_357:\n        /* \"#utility.yul\":1448:1718   */\n      swap3\n      swap2\n      pop\n      pop\n      jump\t// out\n        /* \"#utility.yul\":1724:1799   */\n    tag_252:\n        /* \"#utility.yul\":1757:1763   */\n      0x00\n        /* \"#utility.yul\":1790:1792   */\n      0x40\n        /* \"#utility.yul\":1784:1793   */\n      mload\n        /* \"#utility.yul\":1774:1793   */\n      swap1\n      pop\n        /* \"#utility.yul\":1724:1799   */\n      swap1\n      jump\t// out\n        /* \"#utility.yul\":1805:1922   */\n    tag_253:\n        /* \"#utility.yul\":1914:1915   */\n      0x00\n        /* \"#utility.yul\":1911:1912   */\n      dup1\n        /* \"#utility.yul\":1904:1916   */\n      revert\n        /* \"#utility.yul\":1928:2045   */\n    tag_254:\n        /* \"#utility.yul\":2037:2038   */\n      0x00\n        /* \"#utility.yul\":2034:2035   */\n      dup1\n        /* \"#utility.yul\":2027:2039   */\n      revert\n        /* \"#utility.yul\":2051:2168   */\n    tag_255:\n        /* \"#utility.yul\":2160:2161   */\n      0x00\n        /* \"#utility.yul\":2157:2158   */\n      dup1\n        /* \"#utility.yul\":2150:2162   */\n      revert\n        /* \"#utility.yul\":2174:2291   */\n    tag_256:\n        /* \"#utility.yul\":2283:2284   */\n      0x00\n        /* \"#utility.yul\":2280:2281   */\n      dup1\n        /* \"#utility.yul\":2273:2285   */\n      revert\n        /* \"#utility.yul\":2297:2399   */\n    tag_257:\n        /* \"#utility.yul\":2338:2344   */\n      0x00\n        /* \"#utility.yul\":2389:2391   */\n      0x1f\n        /* \"#utility.yul\":2385:2392   */\n      not\n        /* \"#utility.yul\":2380:2382   */\n      0x1f\n        /* \"#utility.yul\":2373:2378   */\n      dup4\n        /* \"#utility.yul\":2369:2383   */\n      add\n        /* \"#utility.yul\":2365:2393   */\n      and\n        /* \"#utility.yul\":2355:2393   */\n      swap1\n      pop\n        /* \"#utility.yul\":2297:2399   */\n      swap2\n      swap1\n      pop\n      jump\t// out\n        /* \"#utility.yul\":2405:2585   */\n    tag_258:\n        /* \"#utility.yul\":2453:2530   */\n      0x4e487b7100000000000000000000000000000000000000000000000000000000\n        /* \"#utility.yul\":2450:2451   */\n      0x00\n        /* \"#utility.yul\":2443:2531   */\n      mstore\n        /* \"#utility.yul\":2550:2554   */\n      0x41\n        /* \"#utility.yul\":2547:2548   */\n      0x04\n        /* \"#utility.yul\":2540:2555   */\n      mstore\n        /* \"#utility.yul\":2574:2578   */\n      0x24\n        /* \"#utility.yul\":2571:2572   */\n      0x00\n        /* \"#utility.yul\":2564:2579   */\n      revert\n        /* \"#utility.yul\":2591:2872   */\n    tag_259:\n        /* \"#utility.yul\":2674:2701   */\n      tag_366\n        /* \"#utility.yul\":2696:2700   */\n      dup3\n        /* \"#utility.yul\":2674:2701   */\n      tag_257\n      jump\t// in\n    tag_366:\n        /* \"#utility.yul\":2666:2672   */\n      dup2\n        /* \"#utility.yul\":2662:2702   */\n      add\n        /* \"#utility.yul\":2804:2810   */\n      dup2\n        /* \"#utility.yul\":2792:2802   */\n      dup2\n        /* \"#utility.yul\":2789:2811   */\n      lt\n        /* \"#utility.yul\":2768:2786   */\n      0xffffffffffffffff\n        /* \"#utility.yul\":2756:2766   */\n      dup3\n        /* \"#utility.yul\":2753:2787   */\n      gt\n        /* \"#utility.yul\":2750:2812   */\n      or\n        /* \"#utility.yul\":2747:2835   */\n      iszero\n      tag_367\n      jumpi\n        /* \"#utility.yul\":2815:2833   */\n      tag_368\n      tag_258\n      jump\t// in\n    tag_368:\n        /* \"#utility.yul\":2747:2835   */\n    tag_367:\n        /* \"#utility.yul\":2855:2865   */\n      dup1\n        /* \"#utility.yul\":2851:2853   */\n      0x40\n        /* \"#utility.yul\":2844:2866   */\n      mstore\n        /* \"#utility.yul\":2634:2872   */\n      pop\n        /* \"#utility.yul\":2591:2872   */\n      pop\n      pop\n      jump\t// out\n        /* \"#utility.yul\":2878:3007   */\n    tag_260:\n        /* \"#utility.yul\":2912:2918   */\n      0x00\n        /* \"#utility.yul\":2939:2959   */\n      tag_370\n      tag_252\n      jump\t// in\n    tag_370:\n        /* \"#utility.yul\":2929:2959   */\n      swap1\n      pop\n        /* \"#utility.yul\":2968:3001   */\n      tag_371\n        /* \"#utility.yul\":2996:3000   */\n      dup3\n        /* \"#utility.yul\":2988:2994   */\n      dup3\n        /* \"#utility.yul\":2968:3001   */\n      tag_259\n      jump\t// in\n    tag_371:\n        /* \"#utility.yul\":2878:3007   */\n      swap2\n      swap1\n      pop\n      jump\t// out\n        /* \"#utility.yul\":3013:3321   */\n    tag_261:\n        /* \"#utility.yul\":3075:3079   */\n      0x00\n        /* \"#utility.yul\":3165:3183   */\n      0xffffffffffffffff\n        /* \"#utility.yul\":3157:3163   */\n      dup3\n        /* \"#utility.yul\":3154:3184   */\n      gt\n        /* \"#utility.yul\":3151:3207   */\n      iszero\n      tag_373\n      jumpi\n        /* \"#utility.yul\":3187:3205   */\n      tag_374\n      tag_258\n      jump\t// in\n    tag_374:\n        /* \"#utility.yul\":3151:3207   */\n    tag_373:\n        /* \"#utility.yul\":3225:3254   */\n      tag_375\n        /* \"#utility.yul\":3247:3253   */\n      dup3\n        /* \"#utility.yul\":3225:3254   */\n      tag_257\n      jump\t// in\n    tag_375:\n        /* \"#utility.yul\":3217:3254   */\n      swap1\n      pop\n        /* \"#utility.yul\":3309:3313   */\n      0x20\n        /* \"#utility.yul\":3303:3307   */\n      dup2\n        /* \"#utility.yul\":3299:3314   */\n      add\n        /* \"#utility.yul\":3291:3314   */\n      swap1\n      pop\n        /* \"#utility.yul\":3013:3321   */\n      swap2\n      swap1\n      pop\n      jump\t// out\n        /* \"#utility.yul\":3327:3481   */\n    tag_262:\n        /* \"#utility.yul\":3411:3417   */\n      dup3\n        /* \"#utility.yul\":3406:3409   */\n      dup2\n        /* \"#utility.yul\":3401:3404   */\n      dup4\n        /* \"#utility.yul\":3388:3418   */\n      calldatacopy\n        /* \"#utility.yul\":3473:3474   */\n      0x00\n        /* \"#utility.yul\":3464:3470   */\n      dup4\n        /* \"#utility.yul\":3459:3462   */\n      dup4\n        /* \"#utility.yul\":3455:3471   */\n      add\n        /* \"#utility.yul\":3448:3475   */\n      mstore\n        /* \"#utility.yul\":3327:3481   */\n      pop\n      pop\n      pop\n      jump\t// out\n        /* \"#utility.yul\":3487:3899   */\n    tag_263:\n        /* \"#utility.yul\":3565:3570   */\n      0x00\n        /* \"#utility.yul\":3590:3656   */\n      tag_378\n        /* \"#utility.yul\":3606:3655   */\n      tag_379\n        /* \"#utility.yul\":3648:3654   */\n      dup5\n        /* \"#utility.yul\":3606:3655   */\n      tag_261\n      jump\t// in\n    tag_379:\n        /* \"#utility.yul\":3590:3656   */\n      tag_260\n      jump\t// in\n    tag_378:\n        /* \"#utility.yul\":3581:3656   */\n      swap1\n      pop\n        /* \"#utility.yul\":3679:3685   */\n      dup3\n        /* \"#utility.yul\":3672:3677   */\n      dup2\n        /* \"#utility.yul\":3665:3686   */\n      mstore\n        /* \"#utility.yul\":3717:3721   */\n      0x20\n        /* \"#utility.yul\":3710:3715   */\n      dup2\n        /* \"#utility.yul\":3706:3722   */\n      add\n        /* \"#utility.yul\":3755:3758   */\n      dup5\n        /* \"#utility.yul\":3746:3752   */\n      dup5\n        /* \"#utility.yul\":3741:3744   */\n      dup5\n        /* \"#utility.yul\":3737:3753   */\n      add\n        /* \"#utility.yul\":3734:3759   */\n      gt\n        /* \"#utility.yul\":3731:3843   */\n      iszero\n      tag_380\n      jumpi\n        /* \"#utility.yul\":3762:3841   */\n      tag_381\n      tag_256\n      jump\t// in\n    tag_381:\n        /* \"#utility.yul\":3731:3843   */\n    tag_380:\n        /* \"#utility.yul\":3852:3893   */\n      tag_382\n        /* \"#utility.yul\":3886:3892   */\n      dup5\n        /* \"#utility.yul\":3881:3884   */\n      dup3\n        /* \"#utility.yul\":3876:3879   */\n      dup6\n        /* \"#utility.yul\":3852:3893   */\n      tag_262\n      jump\t// in\n    tag_382:\n        /* \"#utility.yul\":3571:3899   */\n      pop\n        /* \"#utility.yul\":3487:3899   */\n      swap4\n      swap3\n      pop\n      pop\n      pop\n      jump\t// out\n        /* \"#utility.yul\":3919:4259   */\n    tag_264:\n        /* \"#utility.yul\":3975:3980   */\n      0x00\n        /* \"#utility.yul\":4024:4027   */\n      dup3\n        /* \"#utility.yul\":4017:4021   */\n      0x1f\n        /* \"#utility.yul\":4009:4015   */\n      dup4\n        /* \"#utility.yul\":4005:4022   */\n      add\n        /* \"#utility.yul\":4001:4028   */\n      slt\n        /* \"#utility.yul\":3991:4113   */\n      tag_384\n      jumpi\n        /* \"#utility.yul\":4032:4111   */\n      tag_385\n      tag_255\n      jump\t// in\n    tag_385:\n        /* \"#utility.yul\":3991:4113   */\n    tag_384:\n        /* \"#utility.yul\":4149:4155   */\n      dup2\n        /* \"#utility.yul\":4136:4156   */\n      calldataload\n        /* \"#utility.yul\":4174:4253   */\n      tag_386\n        /* \"#utility.yul\":4249:4252   */\n      dup5\n        /* \"#utility.yul\":4241:4247   */\n      dup3\n        /* \"#utility.yul\":4234:4238   */\n      0x20\n        /* \"#utility.yul\":4226:4232   */\n      dup7\n        /* \"#utility.yul\":4222:4239   */\n      add\n        /* \"#utility.yul\":4174:4253   */\n      tag_263\n      jump\t// in\n    tag_386:\n        /* \"#utility.yul\":4165:4253   */\n      swap2\n      pop\n        /* \"#utility.yul\":3981:4259   */\n      pop\n        /* \"#utility.yul\":3919:4259   */\n      swap3\n      swap2\n      pop\n      pop\n      jump\t// out\n        /* \"#utility.yul\":4265:4774   */\n    tag_24:\n        /* \"#utility.yul\":4334:4340   */\n      0x00\n        /* \"#utility.yul\":4383:4385   */\n      0x20\n        /* \"#utility.yul\":4371:4380   */\n      dup3\n        /* \"#utility.yul\":4362:4369   */\n      dup5\n        /* \"#utility.yul\":4358:4381   */\n      sub\n        /* \"#utility.yul\":4354:4386   */\n      slt\n        /* \"#utility.yul\":4351:4470   */\n      iszero\n      tag_388\n      jumpi\n        /* \"#utility.yul\":4389:4468   */\n      tag_389\n      tag_253\n      jump\t// in\n    tag_389:\n        /* \"#utility.yul\":4351:4470   */\n    tag_388:\n        /* \"#utility.yul\":4537:4538   */\n      0x00\n        /* \"#utility.yul\":4526:4535   */\n      dup3\n        /* \"#utility.yul\":4522:4539   */\n      add\n        /* \"#utility.yul\":4509:4540   */\n      calldataload\n        /* \"#utility.yul\":4567:4585   */\n      0xffffffffffffffff\n        /* \"#utility.yul\":4559:4565   */\n      dup2\n        /* \"#utility.yul\":4556:4586   */\n      gt\n        /* \"#utility.yul\":4553:4670   */\n      iszero\n      tag_390\n      jumpi\n        /* \"#utility.yul\":4589:4668   */\n      tag_391\n      tag_254\n      jump\t// in\n    tag_391:\n        /* \"#utility.yul\":4553:4670   */\n    tag_390:\n        /* \"#utility.yul\":4694:4757   */\n      tag_392\n        /* \"#utility.yul\":4749:4756   */\n      dup5\n        /* \"#utility.yul\":4740:4746   */\n      dup3\n        /* \"#utility.yul\":4729:4738   */\n      dup6\n        /* \"#utility.yul\":4725:4747   */\n      add\n        /* \"#utility.yul\":4694:4757   */\n      tag_264\n      jump\t// in\n    tag_392:\n        /* \"#utility.yul\":4684:4757   */\n      swap2\n      pop\n        /* \"#utility.yul\":4480:4767   */\n      pop\n        /* \"#utility.yul\":4265:4774   */\n      swap3\n      swap2\n      pop\n      pop\n      jump\t// out\n        /* \"#utility.yul\":4780:4879   */\n    tag_265:\n        /* \"#utility.yul\":4832:4838   */\n      0x00\n        /* \"#utility.yul\":4866:4871   */\n      dup2\n        /* \"#utility.yul\":4860:4872   */\n      mload\n        /* \"#utility.yul\":4850:4872   */\n      swap1\n      pop\n        /* \"#utility.yul\":4780:4879   */\n      swap2\n      swap1\n      pop\n      jump\t// out\n        /* \"#utility.yul\":4885:5044   */\n    tag_266:\n        /* \"#utility.yul\":4959:4970   */\n      0x00\n        /* \"#utility.yul\":4993:4999   */\n      dup3\n        /* \"#utility.yul\":4988:4991   */\n      dup3\n        /* \"#utility.yul\":4981:5000   */\n      mstore\n        /* \"#utility.yul\":5033:5037   */\n      0x20\n        /* \"#utility.yul\":5028:5031   */\n      dup3\n        /* \"#utility.yul\":5024:5038   */\n      add\n        /* \"#utility.yul\":5009:5038   */\n      swap1\n      pop\n        /* \"#utility.yul\":4885:5044   */\n      swap3\n      swap2\n      pop\n      pop\n      jump\t// out\n        /* \"#utility.yul\":5050:5357   */\n    tag_267:\n        /* \"#utility.yul\":5118:5119   */\n      0x00\n        /* \"#utility.yul\":5128:5241   */\n    tag_396:\n        /* \"#utility.yul\":5142:5148   */\n      dup4\n        /* \"#utility.yul\":5139:5140   */\n      dup2\n        /* \"#utility.yul\":5136:5149   */\n      lt\n        /* \"#utility.yul\":5128:5241   */\n      iszero\n      tag_398\n      jumpi\n        /* \"#utility.yul\":5227:5228   */\n      dup1\n        /* \"#utility.yul\":5222:5225   */\n      dup3\n        /* \"#utility.yul\":5218:5229   */\n      add\n        /* \"#utility.yul\":5212:5230   */\n      mload\n        /* \"#utility.yul\":5208:5209   */\n      dup2\n        /* \"#utility.yul\":5203:5206   */\n      dup5\n        /* \"#utility.yul\":5199:5210   */\n      add\n        /* \"#utility.yul\":5192:5231   */\n      mstore\n        /* \"#utility.yul\":5164:5166   */\n      0x20\n        /* \"#utility.yul\":5161:5162   */\n      dup2\n        /* \"#utility.yul\":5157:5167   */\n      add\n        /* \"#utility.yul\":5152:5167   */\n      swap1\n      pop\n        /* \"#utility.yul\":5128:5241   */\n      jump(tag_396)\n    tag_398:\n        /* \"#utility.yul\":5259:5265   */\n      dup4\n        /* \"#utility.yul\":5256:5257   */\n      dup2\n        /* \"#utility.yul\":5253:5266   */\n      gt\n        /* \"#utility.yul\":5250:5351   */\n      iszero\n      tag_399\n      jumpi\n        /* \"#utility.yul\":5339:5340   */\n      0x00\n        /* \"#utility.yul\":5330:5336   */\n      dup5\n        /* \"#utility.yul\":5325:5328   */\n      dup5\n        /* \"#utility.yul\":5321:5337   */\n      add\n        /* \"#utility.yul\":5314:5341   */\n      mstore\n        /* \"#utility.yul\":5250:5351   */\n    tag_399:\n        /* \"#utility.yul\":5099:5357   */\n      pop\n        /* \"#utility.yul\":5050:5357   */\n      pop\n      pop\n      pop\n      jump\t// out\n        /* \"#utility.yul\":5363:5707   */\n    tag_268:\n        /* \"#utility.yul\":5441:5444   */\n      0x00\n        /* \"#utility.yul\":5469:5508   */\n      tag_401\n        /* \"#utility.yul\":5502:5507   */\n      dup3\n        /* \"#utility.yul\":5469:5508   */\n      tag_265\n      jump\t// in\n    tag_401:\n        /* \"#utility.yul\":5524:5585   */\n      tag_402\n        /* \"#utility.yul\":5578:5584   */\n      dup2\n        /* \"#utility.yul\":5573:5576   */\n      dup6\n        /* \"#utility.yul\":5524:5585   */\n      tag_266\n      jump\t// in\n    tag_402:\n        /* \"#utility.yul\":5517:5585   */\n      swap4\n      pop\n        /* \"#utility.yul\":5594:5646   */\n      tag_403\n        /* \"#utility.yul\":5639:5645   */\n      dup2\n        /* \"#utility.yul\":5634:5637   */\n      dup6\n        /* \"#utility.yul\":5627:5631   */\n      0x20\n        /* \"#utility.yul\":5620:5625   */\n      dup7\n        /* \"#utility.yul\":5616:5632   */\n      add\n        /* \"#utility.yul\":5594:5646   */\n      tag_267\n      jump\t// in\n    tag_403:\n        /* \"#utility.yul\":5671:5700   */\n      tag_404\n        /* \"#utility.yul\":5693:5699   */\n      dup2\n        /* \"#utility.yul\":5671:5700   */\n      tag_257\n      jump\t// in\n    tag_404:\n        /* \"#utility.yul\":5666:5669   */\n      dup5\n        /* \"#utility.yul\":5662:5701   */\n      add\n        /* \"#utility.yul\":5655:5701   */\n      swap2\n      pop\n        /* \"#utility.yul\":5445:5707   */\n      pop\n        /* \"#utility.yul\":5363:5707   */\n      swap3\n      swap2\n      pop\n      pop\n      jump\t// out\n        /* \"#utility.yul\":5713:5809   */\n    tag_269:\n        /* \"#utility.yul\":5750:5757   */\n      0x00\n        /* \"#utility.yul\":5779:5803   */\n      tag_406\n        /* \"#utility.yul\":5797:5802   */\n      dup3\n        /* \"#utility.yul\":5779:5803   */\n      tag_244\n      jump\t// in\n    tag_406:\n        /* \"#utility.yul\":5768:5803   */\n      swap1\n      pop\n        /* \"#utility.yul\":5713:5809   */\n      swap2\n      swap1\n      pop\n      jump\t// out\n        /* \"#utility.yul\":5815:5923   */\n    tag_270:\n        /* \"#utility.yul\":5892:5916   */\n      tag_408\n        /* \"#utility.yul\":5910:5915   */\n      dup2\n        /* \"#utility.yul\":5892:5916   */\n      tag_269\n      jump\t// in\n    tag_408:\n        /* \"#utility.yul\":5887:5890   */\n      dup3\n        /* \"#utility.yul\":5880:5917   */\n      mstore\n        /* \"#utility.yul\":5815:5923   */\n      pop\n      pop\n      jump\t// out\n        /* \"#utility.yul\":5929:6006   */\n    tag_271:\n        /* \"#utility.yul\":5966:5973   */\n      0x00\n        /* \"#utility.yul\":5995:6000   */\n      dup2\n        /* \"#utility.yul\":5984:6000   */\n      swap1\n      pop\n        /* \"#utility.yul\":5929:6006   */\n      swap2\n      swap1\n      pop\n      jump\t// out\n        /* \"#utility.yul\":6012:6120   */\n    tag_272:\n        /* \"#utility.yul\":6089:6113   */\n      tag_411\n        /* \"#utility.yul\":6107:6112   */\n      dup2\n        /* \"#utility.yul\":6089:6113   */\n      tag_271\n      jump\t// in\n    tag_411:\n        /* \"#utility.yul\":6084:6087   */\n      dup3\n        /* \"#utility.yul\":6077:6114   */\n      mstore\n        /* \"#utility.yul\":6012:6120   */\n      pop\n      pop\n      jump\t// out\n        /* \"#utility.yul\":6126:6306   */\n    tag_77:\n        /* \"#utility.yul\":6174:6251   */\n      0x4e487b7100000000000000000000000000000000000000000000000000000000\n        /* \"#utility.yul\":6171:6172   */\n      0x00\n        /* \"#utility.yul\":6164:6252   */\n      mstore\n        /* \"#utility.yul\":6271:6275   */\n      0x21\n        /* \"#utility.yul\":6268:6269   */\n      0x04\n        /* \"#utility.yul\":6261:6276   */\n      mstore\n        /* \"#utility.yul\":6295:6299   */\n      0x24\n        /* \"#utility.yul\":6292:6293   */\n      0x00\n        /* \"#utility.yul\":6285:6300   */\n      revert\n        /* \"#utility.yul\":6312:6431   */\n    tag_273:\n        /* \"#utility.yul\":6399:6400   */\n      0x05\n        /* \"#utility.yul\":6392:6397   */\n      dup2\n        /* \"#utility.yul\":6389:6401   */\n      lt\n        /* \"#utility.yul\":6379:6425   */\n      tag_414\n      jumpi\n        /* \"#utility.yul\":6405:6423   */\n      tag_415\n      tag_77\n      jump\t// in\n    tag_415:\n        /* \"#utility.yul\":6379:6425   */\n    tag_414:\n        /* \"#utility.yul\":6312:6431   */\n      pop\n      jump\t// out\n        /* \"#utility.yul\":6437:6576   */\n    tag_274:\n        /* \"#utility.yul\":6488:6495   */\n      0x00\n        /* \"#utility.yul\":6517:6522   */\n      dup2\n        /* \"#utility.yul\":6506:6522   */\n      swap1\n      pop\n        /* \"#utility.yul\":6523:6570   */\n      tag_417\n        /* \"#utility.yul\":6564:6569   */\n      dup3\n        /* \"#utility.yul\":6523:6570   */\n      tag_273\n      jump\t// in\n    tag_417:\n        /* \"#utility.yul\":6437:6576   */\n      swap2\n      swap1\n      pop\n      jump\t// out\n        /* \"#utility.yul\":6582:6721   */\n    tag_275:\n        /* \"#utility.yul\":6644:6653   */\n      0x00\n        /* \"#utility.yul\":6677:6715   */\n      tag_419\n        /* \"#utility.yul\":6709:6714   */\n      dup3\n        /* \"#utility.yul\":6677:6715   */\n      tag_274\n      jump\t// in\n    tag_419:\n        /* \"#utility.yul\":6664:6715   */\n      swap1\n      pop\n        /* \"#utility.yul\":6582:6721   */\n      swap2\n      swap1\n      pop\n      jump\t// out\n        /* \"#utility.yul\":6727:6872   */\n    tag_276:\n        /* \"#utility.yul\":6816:6865   */\n      tag_421\n        /* \"#utility.yul\":6859:6864   */\n      dup2\n        /* \"#utility.yul\":6816:6865   */\n      tag_275\n      jump\t// in\n    tag_421:\n        /* \"#utility.yul\":6811:6814   */\n      dup3\n        /* \"#utility.yul\":6804:6866   */\n      mstore\n        /* \"#utility.yul\":6727:6872   */\n      pop\n      pop\n      jump\t// out\n        /* \"#utility.yul\":6878:6968   */\n    tag_277:\n        /* \"#utility.yul\":6912:6919   */\n      0x00\n        /* \"#utility.yul\":6955:6960   */\n      dup2\n        /* \"#utility.yul\":6948:6961   */\n      iszero\n        /* \"#utility.yul\":6941:6962   */\n      iszero\n        /* \"#utility.yul\":6930:6962   */\n      swap1\n      pop\n        /* \"#utility.yul\":6878:6968   */\n      swap2\n      swap1\n      pop\n      jump\t// out\n        /* \"#utility.yul\":6974:7073   */\n    tag_278:\n        /* \"#utility.yul\":7045:7066   */\n      tag_424\n        /* \"#utility.yul\":7060:7065   */\n      dup2\n        /* \"#utility.yul\":7045:7066   */\n      tag_277\n      jump\t// in\n    tag_424:\n        /* \"#utility.yul\":7040:7043   */\n      dup3\n        /* \"#utility.yul\":7033:7067   */\n      mstore\n        /* \"#utility.yul\":6974:7073   */\n      pop\n      pop\n      jump\t// out\n        /* \"#utility.yul\":7149:8983   */\n    tag_279:\n        /* \"#utility.yul\":7260:7263   */\n      0x00\n        /* \"#utility.yul\":7296:7302   */\n      0x0100\n        /* \"#utility.yul\":7291:7294   */\n      dup4\n        /* \"#utility.yul\":7287:7303   */\n      add\n        /* \"#utility.yul\":7383:7387   */\n      0x00\n        /* \"#utility.yul\":7376:7381   */\n      dup4\n        /* \"#utility.yul\":7372:7388   */\n      add\n        /* \"#utility.yul\":7366:7389   */\n      mload\n        /* \"#utility.yul\":7436:7439   */\n      dup5\n        /* \"#utility.yul\":7430:7434   */\n      dup3\n        /* \"#utility.yul\":7426:7440   */\n      sub\n        /* \"#utility.yul\":7419:7423   */\n      0x00\n        /* \"#utility.yul\":7414:7417   */\n      dup7\n        /* \"#utility.yul\":7410:7424   */\n      add\n        /* \"#utility.yul\":7403:7441   */\n      mstore\n        /* \"#utility.yul\":7462:7535   */\n      tag_426\n        /* \"#utility.yul\":7530:7534   */\n      dup3\n        /* \"#utility.yul\":7516:7528   */\n      dup3\n        /* \"#utility.yul\":7462:7535   */\n      tag_268\n      jump\t// in\n    tag_426:\n        /* \"#utility.yul\":7454:7535   */\n      swap2\n      pop\n        /* \"#utility.yul\":7313:7546   */\n      pop\n        /* \"#utility.yul\":7629:7633   */\n      0x20\n        /* \"#utility.yul\":7622:7627   */\n      dup4\n        /* \"#utility.yul\":7618:7634   */\n      add\n        /* \"#utility.yul\":7612:7635   */\n      mload\n        /* \"#utility.yul\":7648:7711   */\n      tag_427\n        /* \"#utility.yul\":7705:7709   */\n      0x20\n        /* \"#utility.yul\":7700:7703   */\n      dup7\n        /* \"#utility.yul\":7696:7710   */\n      add\n        /* \"#utility.yul\":7682:7694   */\n      dup3\n        /* \"#utility.yul\":7648:7711   */\n      tag_270\n      jump\t// in\n    tag_427:\n        /* \"#utility.yul\":7556:7721   */\n      pop\n        /* \"#utility.yul\":7816:7820   */\n      0x40\n        /* \"#utility.yul\":7809:7814   */\n      dup4\n        /* \"#utility.yul\":7805:7821   */\n      add\n        /* \"#utility.yul\":7799:7822   */\n      mload\n        /* \"#utility.yul\":7869:7872   */\n      dup5\n        /* \"#utility.yul\":7863:7867   */\n      dup3\n        /* \"#utility.yul\":7859:7873   */\n      sub\n        /* \"#utility.yul\":7852:7856   */\n      0x40\n        /* \"#utility.yul\":7847:7850   */\n      dup7\n        /* \"#utility.yul\":7843:7857   */\n      add\n        /* \"#utility.yul\":7836:7874   */\n      mstore\n        /* \"#utility.yul\":7895:7968   */\n      tag_428\n        /* \"#utility.yul\":7963:7967   */\n      dup3\n        /* \"#utility.yul\":7949:7961   */\n      dup3\n        /* \"#utility.yul\":7895:7968   */\n      tag_268\n      jump\t// in\n    tag_428:\n        /* \"#utility.yul\":7887:7968   */\n      swap2\n      pop\n        /* \"#utility.yul\":7731:7979   */\n      pop\n        /* \"#utility.yul\":8079:8083   */\n      0x60\n        /* \"#utility.yul\":8072:8077   */\n      dup4\n        /* \"#utility.yul\":8068:8084   */\n      add\n        /* \"#utility.yul\":8062:8085   */\n      mload\n        /* \"#utility.yul\":8132:8135   */\n      dup5\n        /* \"#utility.yul\":8126:8130   */\n      dup3\n        /* \"#utility.yul\":8122:8136   */\n      sub\n        /* \"#utility.yul\":8115:8119   */\n      0x60\n        /* \"#utility.yul\":8110:8113   */\n      dup7\n        /* \"#utility.yul\":8106:8120   */\n      add\n        /* \"#utility.yul\":8099:8137   */\n      mstore\n        /* \"#utility.yul\":8158:8231   */\n      tag_429\n        /* \"#utility.yul\":8226:8230   */\n      dup3\n        /* \"#utility.yul\":8212:8224   */\n      dup3\n        /* \"#utility.yul\":8158:8231   */\n      tag_268\n      jump\t// in\n    tag_429:\n        /* \"#utility.yul\":8150:8231   */\n      swap2\n      pop\n        /* \"#utility.yul\":7989:8242   */\n      pop\n        /* \"#utility.yul\":8327:8331   */\n      0x80\n        /* \"#utility.yul\":8320:8325   */\n      dup4\n        /* \"#utility.yul\":8316:8332   */\n      add\n        /* \"#utility.yul\":8310:8333   */\n      mload\n        /* \"#utility.yul\":8346:8409   */\n      tag_430\n        /* \"#utility.yul\":8403:8407   */\n      0x80\n        /* \"#utility.yul\":8398:8401   */\n      dup7\n        /* \"#utility.yul\":8394:8408   */\n      add\n        /* \"#utility.yul\":8380:8392   */\n      dup3\n        /* \"#utility.yul\":8346:8409   */\n      tag_272\n      jump\t// in\n    tag_430:\n        /* \"#utility.yul\":8252:8419   */\n      pop\n        /* \"#utility.yul\":8503:8507   */\n      0xa0\n        /* \"#utility.yul\":8496:8501   */\n      dup4\n        /* \"#utility.yul\":8492:8508   */\n      add\n        /* \"#utility.yul\":8486:8509   */\n      mload\n        /* \"#utility.yul\":8522:8597   */\n      tag_431\n        /* \"#utility.yul\":8591:8595   */\n      0xa0\n        /* \"#utility.yul\":8586:8589   */\n      dup7\n        /* \"#utility.yul\":8582:8596   */\n      add\n        /* \"#utility.yul\":8568:8580   */\n      dup3\n        /* \"#utility.yul\":8522:8597   */\n      tag_276\n      jump\t// in\n    tag_431:\n        /* \"#utility.yul\":8429:8607   */\n      pop\n        /* \"#utility.yul\":8694:8698   */\n      0xc0\n        /* \"#utility.yul\":8687:8692   */\n      dup4\n        /* \"#utility.yul\":8683:8699   */\n      add\n        /* \"#utility.yul\":8677:8700   */\n      mload\n        /* \"#utility.yul\":8713:8776   */\n      tag_432\n        /* \"#utility.yul\":8770:8774   */\n      0xc0\n        /* \"#utility.yul\":8765:8768   */\n      dup7\n        /* \"#utility.yul\":8761:8775   */\n      add\n        /* \"#utility.yul\":8747:8759   */\n      dup3\n        /* \"#utility.yul\":8713:8776   */\n      tag_272\n      jump\t// in\n    tag_432:\n        /* \"#utility.yul\":8617:8786   */\n      pop\n        /* \"#utility.yul\":8870:8874   */\n      0xe0\n        /* \"#utility.yul\":8863:8868   */\n      dup4\n        /* \"#utility.yul\":8859:8875   */\n      add\n        /* \"#utility.yul\":8853:8876   */\n      mload\n        /* \"#utility.yul\":8889:8946   */\n      tag_433\n        /* \"#utility.yul\":8940:8944   */\n      0xe0\n        /* \"#utility.yul\":8935:8938   */\n      dup7\n        /* \"#utility.yul\":8931:8945   */\n      add\n        /* \"#utility.yul\":8917:8929   */\n      dup3\n        /* \"#utility.yul\":8889:8946   */\n      tag_278\n      jump\t// in\n    tag_433:\n        /* \"#utility.yul\":8796:8956   */\n      pop\n        /* \"#utility.yul\":8973:8977   */\n      dup1\n        /* \"#utility.yul\":8966:8977   */\n      swap2\n      pop\n        /* \"#utility.yul\":7265:8983   */\n      pop\n        /* \"#utility.yul\":7149:8983   */\n      swap3\n      swap2\n      pop\n      pop\n      jump\t// out\n        /* \"#utility.yul\":8989:9346   */\n    tag_27:\n        /* \"#utility.yul\":9124:9128   */\n      0x00\n        /* \"#utility.yul\":9162:9164   */\n      0x20\n        /* \"#utility.yul\":9151:9160   */\n      dup3\n        /* \"#utility.yul\":9147:9165   */\n      add\n        /* \"#utility.yul\":9139:9165   */\n      swap1\n      pop\n        /* \"#utility.yul\":9211:9220   */\n      dup2\n        /* \"#utility.yul\":9205:9209   */\n      dup2\n        /* \"#utility.yul\":9201:9221   */\n      sub\n        /* \"#utility.yul\":9197:9198   */\n      0x00\n        /* \"#utility.yul\":9186:9195   */\n      dup4\n        /* \"#utility.yul\":9182:9199   */\n      add\n        /* \"#utility.yul\":9175:9222   */\n      mstore\n        /* \"#utility.yul\":9239:9339   */\n      tag_435\n        /* \"#utility.yul\":9334:9338   */\n      dup2\n        /* \"#utility.yul\":9325:9331   */\n      dup5\n        /* \"#utility.yul\":9239:9339   */\n      tag_279\n      jump\t// in\n    tag_435:\n        /* \"#utility.yul\":9231:9339   */\n      swap1\n      pop\n        /* \"#utility.yul\":8989:9346   */\n      swap3\n      swap2\n      pop\n      pop\n      jump\t// out\n        /* \"#utility.yul\":9352:9474   */\n    tag_280:\n        /* \"#utility.yul\":9425:9449   */\n      tag_437\n        /* \"#utility.yul\":9443:9448   */\n      dup2\n        /* \"#utility.yul\":9425:9449   */\n      tag_269\n      jump\t// in\n    tag_437:\n        /* \"#utility.yul\":9418:9423   */\n      dup2\n        /* \"#utility.yul\":9415:9450   */\n      eq\n        /* \"#utility.yul\":9405:9468   */\n      tag_438\n      jumpi\n        /* \"#utility.yul\":9464:9465   */\n      0x00\n        /* \"#utility.yul\":9461:9462   */\n      dup1\n        /* \"#utility.yul\":9454:9466   */\n      revert\n        /* \"#utility.yul\":9405:9468   */\n    tag_438:\n        /* \"#utility.yul\":9352:9474   */\n      pop\n      jump\t// out\n        /* \"#utility.yul\":9480:9619   */\n    tag_281:\n        /* \"#utility.yul\":9526:9531   */\n      0x00\n        /* \"#utility.yul\":9564:9570   */\n      dup2\n        /* \"#utility.yul\":9551:9571   */\n      calldataload\n        /* \"#utility.yul\":9542:9571   */\n      swap1\n      pop\n        /* \"#utility.yul\":9580:9613   */\n      tag_440\n        /* \"#utility.yul\":9607:9612   */\n      dup2\n        /* \"#utility.yul\":9580:9613   */\n      tag_280\n      jump\t// in\n    tag_440:\n        /* \"#utility.yul\":9480:9619   */\n      swap3\n      swap2\n      pop\n      pop\n      jump\t// out\n        /* \"#utility.yul\":9625:9954   */\n    tag_30:\n        /* \"#utility.yul\":9684:9690   */\n      0x00\n        /* \"#utility.yul\":9733:9735   */\n      0x20\n        /* \"#utility.yul\":9721:9730   */\n      dup3\n        /* \"#utility.yul\":9712:9719   */\n      dup5\n        /* \"#utility.yul\":9708:9731   */\n      sub\n        /* \"#utility.yul\":9704:9736   */\n      slt\n        /* \"#utility.yul\":9701:9820   */\n      iszero\n      tag_442\n      jumpi\n        /* \"#utility.yul\":9739:9818   */\n      tag_443\n      tag_253\n      jump\t// in\n    tag_443:\n        /* \"#utility.yul\":9701:9820   */\n    tag_442:\n        /* \"#utility.yul\":9859:9860   */\n      0x00\n        /* \"#utility.yul\":9884:9937   */\n      tag_444\n        /* \"#utility.yul\":9929:9936   */\n      dup5\n        /* \"#utility.yul\":9920:9926   */\n      dup3\n        /* \"#utility.yul\":9909:9918   */\n      dup6\n        /* \"#utility.yul\":9905:9927   */\n      add\n        /* \"#utility.yul\":9884:9937   */\n      tag_281\n      jump\t// in\n    tag_444:\n        /* \"#utility.yul\":9874:9937   */\n      swap2\n      pop\n        /* \"#utility.yul\":9830:9947   */\n      pop\n        /* \"#utility.yul\":9625:9954   */\n      swap3\n      swap2\n      pop\n      pop\n      jump\t// out\n        /* \"#utility.yul\":9960:10267   */\n    tag_282:\n        /* \"#utility.yul\":10021:10025   */\n      0x00\n        /* \"#utility.yul\":10111:10129   */\n      0xffffffffffffffff\n        /* \"#utility.yul\":10103:10109   */\n      dup3\n        /* \"#utility.yul\":10100:10130   */\n      gt\n        /* \"#utility.yul\":10097:10153   */\n      iszero\n      tag_446\n      jumpi\n        /* \"#utility.yul\":10133:10151   */\n      tag_447\n      tag_258\n      jump\t// in\n    tag_447:\n        /* \"#utility.yul\":10097:10153   */\n    tag_446:\n        /* \"#utility.yul\":10171:10200   */\n      tag_448\n        /* \"#utility.yul\":10193:10199   */\n      dup3\n        /* \"#utility.yul\":10171:10200   */\n      tag_257\n      jump\t// in\n    tag_448:\n        /* \"#utility.yul\":10163:10200   */\n      swap1\n      pop\n        /* \"#utility.yul\":10255:10259   */\n      0x20\n        /* \"#utility.yul\":10249:10253   */\n      dup2\n        /* \"#utility.yul\":10245:10260   */\n      add\n        /* \"#utility.yul\":10237:10260   */\n      swap1\n      pop\n        /* \"#utility.yul\":9960:10267   */\n      swap2\n      swap1\n      pop\n      jump\t// out\n        /* \"#utility.yul\":10273:10683   */\n    tag_283:\n        /* \"#utility.yul\":10350:10355   */\n      0x00\n        /* \"#utility.yul\":10375:10440   */\n      tag_450\n        /* \"#utility.yul\":10391:10439   */\n      tag_451\n        /* \"#utility.yul\":10432:10438   */\n      dup5\n        /* \"#utility.yul\":10391:10439   */\n      tag_282\n      jump\t// in\n    tag_451:\n        /* \"#utility.yul\":10375:10440   */\n      tag_260\n      jump\t// in\n    tag_450:\n        /* \"#utility.yul\":10366:10440   */\n      swap1\n      pop\n        /* \"#utility.yul\":10463:10469   */\n      dup3\n        /* \"#utility.yul\":10456:10461   */\n      dup2\n        /* \"#utility.yul\":10449:10470   */\n      mstore\n        /* \"#utility.yul\":10501:10505   */\n      0x20\n        /* \"#utility.yul\":10494:10499   */\n      dup2\n        /* \"#utility.yul\":10490:10506   */\n      add\n        /* \"#utility.yul\":10539:10542   */\n      dup5\n        /* \"#utility.yul\":10530:10536   */\n      dup5\n        /* \"#utility.yul\":10525:10528   */\n      dup5\n        /* \"#utility.yul\":10521:10537   */\n      add\n        /* \"#utility.yul\":10518:10543   */\n      gt\n        /* \"#utility.yul\":10515:10627   */\n      iszero\n      tag_452\n      jumpi\n        /* \"#utility.yul\":10546:10625   */\n      tag_453\n      tag_256\n      jump\t// in\n    tag_453:\n        /* \"#utility.yul\":10515:10627   */\n    tag_452:\n        /* \"#utility.yul\":10636:10677   */\n      tag_454\n        /* \"#utility.yul\":10670:10676   */\n      dup5\n        /* \"#utility.yul\":10665:10668   */\n      dup3\n        /* \"#utility.yul\":10660:10663   */\n      dup6\n        /* \"#utility.yul\":10636:10677   */\n      tag_262\n      jump\t// in\n    tag_454:\n        /* \"#utility.yul\":10356:10683   */\n      pop\n        /* \"#utility.yul\":10273:10683   */\n      swap4\n      swap3\n      pop\n      pop\n      pop\n      jump\t// out\n        /* \"#utility.yul\":10702:11040   */\n    tag_284:\n        /* \"#utility.yul\":10757:10762   */\n      0x00\n        /* \"#utility.yul\":10806:10809   */\n      dup3\n        /* \"#utility.yul\":10799:10803   */\n      0x1f\n        /* \"#utility.yul\":10791:10797   */\n      dup4\n        /* \"#utility.yul\":10787:10804   */\n      add\n        /* \"#utility.yul\":10783:10810   */\n      slt\n        /* \"#utility.yul\":10773:10895   */\n      tag_456\n      jumpi\n        /* \"#utility.yul\":10814:10893   */\n      tag_457\n      tag_255\n      jump\t// in\n    tag_457:\n        /* \"#utility.yul\":10773:10895   */\n    tag_456:\n        /* \"#utility.yul\":10931:10937   */\n      dup2\n        /* \"#utility.yul\":10918:10938   */\n      calldataload\n        /* \"#utility.yul\":10956:11034   */\n      tag_458\n        /* \"#utility.yul\":11030:11033   */\n      dup5\n        /* \"#utility.yul\":11022:11028   */\n      dup3\n        /* \"#utility.yul\":11015:11019   */\n      0x20\n        /* \"#utility.yul\":11007:11013   */\n      dup7\n        /* \"#utility.yul\":11003:11020   */\n      add\n        /* \"#utility.yul\":10956:11034   */\n      tag_283\n      jump\t// in\n    tag_458:\n        /* \"#utility.yul\":10947:11034   */\n      swap2\n      pop\n        /* \"#utility.yul\":10763:11040   */\n      pop\n        /* \"#utility.yul\":10702:11040   */\n      swap3\n      swap2\n      pop\n      pop\n      jump\t// out\n        /* \"#utility.yul\":11046:11878   */\n    tag_34:\n        /* \"#utility.yul\":11133:11139   */\n      0x00\n        /* \"#utility.yul\":11141:11147   */\n      dup1\n        /* \"#utility.yul\":11190:11192   */\n      0x40\n        /* \"#utility.yul\":11178:11187   */\n      dup4\n        /* \"#utility.yul\":11169:11176   */\n      dup6\n        /* \"#utility.yul\":11165:11188   */\n      sub\n        /* \"#utility.yul\":11161:11193   */\n      slt\n        /* \"#utility.yul\":11158:11277   */\n      iszero\n      tag_460\n      jumpi\n        /* \"#utility.yul\":11196:11275   */\n      tag_461\n      tag_253\n      jump\t// in\n    tag_461:\n        /* \"#utility.yul\":11158:11277   */\n    tag_460:\n        /* \"#utility.yul\":11344:11345   */\n      0x00\n        /* \"#utility.yul\":11333:11342   */\n      dup4\n        /* \"#utility.yul\":11329:11346   */\n      add\n        /* \"#utility.yul\":11316:11347   */\n      calldataload\n        /* \"#utility.yul\":11374:11392   */\n      0xffffffffffffffff\n        /* \"#utility.yul\":11366:11372   */\n      dup2\n        /* \"#utility.yul\":11363:11393   */\n      gt\n        /* \"#utility.yul\":11360:11477   */\n      iszero\n      tag_462\n      jumpi\n        /* \"#utility.yul\":11396:11475   */\n      tag_463\n      tag_254\n      jump\t// in\n    tag_463:\n        /* \"#utility.yul\":11360:11477   */\n    tag_462:\n        /* \"#utility.yul\":11501:11564   */\n      tag_464\n        /* \"#utility.yul\":11556:11563   */\n      dup6\n        /* \"#utility.yul\":11547:11553   */\n      dup3\n        /* \"#utility.yul\":11536:11545   */\n      dup7\n        /* \"#utility.yul\":11532:11554   */\n      add\n        /* \"#utility.yul\":11501:11564   */\n      tag_264\n      jump\t// in\n    tag_464:\n        /* \"#utility.yul\":11491:11564   */\n      swap3\n      pop\n        /* \"#utility.yul\":11287:11574   */\n      pop\n        /* \"#utility.yul\":11641:11643   */\n      0x20\n        /* \"#utility.yul\":11630:11639   */\n      dup4\n        /* \"#utility.yul\":11626:11644   */\n      add\n        /* \"#utility.yul\":11613:11645   */\n      calldataload\n        /* \"#utility.yul\":11672:11690   */\n      0xffffffffffffffff\n        /* \"#utility.yul\":11664:11670   */\n      dup2\n        /* \"#utility.yul\":11661:11691   */\n      gt\n        /* \"#utility.yul\":11658:11775   */\n      iszero\n      tag_465\n      jumpi\n        /* \"#utility.yul\":11694:11773   */\n      tag_466\n      tag_254\n      jump\t// in\n    tag_466:\n        /* \"#utility.yul\":11658:11775   */\n    tag_465:\n        /* \"#utility.yul\":11799:11861   */\n      tag_467\n        /* \"#utility.yul\":11853:11860   */\n      dup6\n        /* \"#utility.yul\":11844:11850   */\n      dup3\n        /* \"#utility.yul\":11833:11842   */\n      dup7\n        /* \"#utility.yul\":11829:11851   */\n      add\n        /* \"#utility.yul\":11799:11861   */\n      tag_284\n      jump\t// in\n    tag_467:\n        /* \"#utility.yul\":11789:11861   */\n      swap2\n      pop\n        /* \"#utility.yul\":11584:11871   */\n      pop\n        /* \"#utility.yul\":11046:11878   */\n      swap3\n      pop\n      swap3\n      swap1\n      pop\n      jump\t// out\n        /* \"#utility.yul\":11884:12006   */\n    tag_285:\n        /* \"#utility.yul\":11957:11981   */\n      tag_469\n        /* \"#utility.yul\":11975:11980   */\n      dup2\n        /* \"#utility.yul\":11957:11981   */\n      tag_271\n      jump\t// in\n    tag_469:\n        /* \"#utility.yul\":11950:11955   */\n      dup2\n        /* \"#utility.yul\":11947:11982   */\n      eq\n        /* \"#utility.yul\":11937:12000   */\n      tag_470\n      jumpi\n        /* \"#utility.yul\":11996:11997   */\n      0x00\n        /* \"#utility.yul\":11993:11994   */\n      dup1\n        /* \"#utility.yul\":11986:11998   */\n      revert\n        /* \"#utility.yul\":11937:12000   */\n    tag_470:\n        /* \"#utility.yul\":11884:12006   */\n      pop\n      jump\t// out\n        /* \"#utility.yul\":12012:12151   */\n    tag_286:\n        /* \"#utility.yul\":12058:12063   */\n      0x00\n        /* \"#utility.yul\":12096:12102   */\n      dup2\n        /* \"#utility.yul\":12083:12103   */\n      calldataload\n        /* \"#utility.yul\":12074:12103   */\n      swap1\n      pop\n        /* \"#utility.yul\":12112:12145   */\n      tag_472\n        /* \"#utility.yul\":12139:12144   */\n      dup2\n        /* \"#utility.yul\":12112:12145   */\n      tag_285\n      jump\t// in\n    tag_472:\n        /* \"#utility.yul\":12012:12151   */\n      swap3\n      swap2\n      pop\n      pop\n      jump\t// out\n        /* \"#utility.yul\":12157:14580   */\n    tag_38:\n        /* \"#utility.yul\":12336:12342   */\n      0x00\n        /* \"#utility.yul\":12344:12350   */\n      dup1\n        /* \"#utility.yul\":12352:12358   */\n      0x00\n        /* \"#utility.yul\":12360:12366   */\n      dup1\n        /* \"#utility.yul\":12368:12374   */\n      0x00\n        /* \"#utility.yul\":12376:12382   */\n      dup1\n        /* \"#utility.yul\":12384:12390   */\n      0x00\n        /* \"#utility.yul\":12392:12398   */\n      dup1\n        /* \"#utility.yul\":12441:12444   */\n      0x0100\n        /* \"#utility.yul\":12429:12438   */\n      dup10\n        /* \"#utility.yul\":12420:12427   */\n      dup12\n        /* \"#utility.yul\":12416:12439   */\n      sub\n        /* \"#utility.yul\":12412:12445   */\n      slt\n        /* \"#utility.yul\":12409:12529   */\n      iszero\n      tag_474\n      jumpi\n        /* \"#utility.yul\":12448:12527   */\n      tag_475\n      tag_253\n      jump\t// in\n    tag_475:\n        /* \"#utility.yul\":12409:12529   */\n    tag_474:\n        /* \"#utility.yul\":12596:12597   */\n      0x00\n        /* \"#utility.yul\":12585:12594   */\n      dup10\n        /* \"#utility.yul\":12581:12598   */\n      add\n        /* \"#utility.yul\":12568:12599   */\n      calldataload\n        /* \"#utility.yul\":12626:12644   */\n      0xffffffffffffffff\n        /* \"#utility.yul\":12618:12624   */\n      dup2\n        /* \"#utility.yul\":12615:12645   */\n      gt\n        /* \"#utility.yul\":12612:12729   */\n      iszero\n      tag_476\n      jumpi\n        /* \"#utility.yul\":12648:12727   */\n      tag_477\n      tag_254\n      jump\t// in\n    tag_477:\n        /* \"#utility.yul\":12612:12729   */\n    tag_476:\n        /* \"#utility.yul\":12753:12816   */\n      tag_478\n        /* \"#utility.yul\":12808:12815   */\n      dup12\n        /* \"#utility.yul\":12799:12805   */\n      dup3\n        /* \"#utility.yul\":12788:12797   */\n      dup13\n        /* \"#utility.yul\":12784:12806   */\n      add\n        /* \"#utility.yul\":12753:12816   */\n      tag_264\n      jump\t// in\n    tag_478:\n        /* \"#utility.yul\":12743:12816   */\n      swap9\n      pop\n        /* \"#utility.yul\":12539:12826   */\n      pop\n        /* \"#utility.yul\":12865:12867   */\n      0x20\n        /* \"#utility.yul\":12891:12944   */\n      tag_479\n        /* \"#utility.yul\":12936:12943   */\n      dup12\n        /* \"#utility.yul\":12927:12933   */\n      dup3\n        /* \"#utility.yul\":12916:12925   */\n      dup13\n        /* \"#utility.yul\":12912:12934   */\n      add\n        /* \"#utility.yul\":12891:12944   */\n      tag_281\n      jump\t// in\n    tag_479:\n        /* \"#utility.yul\":12881:12944   */\n      swap8\n      pop\n        /* \"#utility.yul\":12836:12954   */\n      pop\n        /* \"#utility.yul\":13021:13023   */\n      0x40\n        /* \"#utility.yul\":13010:13019   */\n      dup10\n        /* \"#utility.yul\":13006:13024   */\n      add\n        /* \"#utility.yul\":12993:13025   */\n      calldataload\n        /* \"#utility.yul\":13052:13070   */\n      0xffffffffffffffff\n        /* \"#utility.yul\":13044:13050   */\n      dup2\n        /* \"#utility.yul\":13041:13071   */\n      gt\n        /* \"#utility.yul\":13038:13155   */\n      iszero\n      tag_480\n      jumpi\n        /* \"#utility.yul\":13074:13153   */\n      tag_481\n      tag_254\n      jump\t// in\n    tag_481:\n        /* \"#utility.yul\":13038:13155   */\n    tag_480:\n        /* \"#utility.yul\":13179:13242   */\n      tag_482\n        /* \"#utility.yul\":13234:13241   */\n      dup12\n        /* \"#utility.yul\":13225:13231   */\n      dup3\n        /* \"#utility.yul\":13214:13223   */\n      dup13\n        /* \"#utility.yul\":13210:13232   */\n      add\n        /* \"#utility.yul\":13179:13242   */\n      tag_264\n      jump\t// in\n    tag_482:\n        /* \"#utility.yul\":13169:13242   */\n      swap7\n      pop\n        /* \"#utility.yul\":12964:13252   */\n      pop\n        /* \"#utility.yul\":13319:13321   */\n      0x60\n        /* \"#utility.yul\":13308:13317   */\n      dup10\n        /* \"#utility.yul\":13304:13322   */\n      add\n        /* \"#utility.yul\":13291:13323   */\n      calldataload\n        /* \"#utility.yul\":13350:13368   */\n      0xffffffffffffffff\n        /* \"#utility.yul\":13342:13348   */\n      dup2\n        /* \"#utility.yul\":13339:13369   */\n      gt\n        /* \"#utility.yul\":13336:13453   */\n      iszero\n      tag_483\n      jumpi\n        /* \"#utility.yul\":13372:13451   */\n      tag_484\n      tag_254\n      jump\t// in\n    tag_484:\n        /* \"#utility.yul\":13336:13453   */\n    tag_483:\n        /* \"#utility.yul\":13477:13540   */\n      tag_485\n        /* \"#utility.yul\":13532:13539   */\n      dup12\n        /* \"#utility.yul\":13523:13529   */\n      dup3\n        /* \"#utility.yul\":13512:13521   */\n      dup13\n        /* \"#utility.yul\":13508:13530   */\n      add\n        /* \"#utility.yul\":13477:13540   */\n      tag_264\n      jump\t// in\n    tag_485:\n        /* \"#utility.yul\":13467:13540   */\n      swap6\n      pop\n        /* \"#utility.yul\":13262:13550   */\n      pop\n        /* \"#utility.yul\":13589:13592   */\n      0x80\n        /* \"#utility.yul\":13616:13669   */\n      tag_486\n        /* \"#utility.yul\":13661:13668   */\n      dup12\n        /* \"#utility.yul\":13652:13658   */\n      dup3\n        /* \"#utility.yul\":13641:13650   */\n      dup13\n        /* \"#utility.yul\":13637:13659   */\n      add\n        /* \"#utility.yul\":13616:13669   */\n      tag_286\n      jump\t// in\n    tag_486:\n        /* \"#utility.yul\":13606:13669   */\n      swap5\n      pop\n        /* \"#utility.yul\":13560:13679   */\n      pop\n        /* \"#utility.yul\":13746:13749   */\n      0xa0\n        /* \"#utility.yul\":13735:13744   */\n      dup10\n        /* \"#utility.yul\":13731:13750   */\n      add\n        /* \"#utility.yul\":13718:13751   */\n      calldataload\n        /* \"#utility.yul\":13778:13796   */\n      0xffffffffffffffff\n        /* \"#utility.yul\":13770:13776   */\n      dup2\n        /* \"#utility.yul\":13767:13797   */\n      gt\n        /* \"#utility.yul\":13764:13881   */\n      iszero\n      tag_487\n      jumpi\n        /* \"#utility.yul\":13800:13879   */\n      tag_488\n      tag_254\n      jump\t// in\n    tag_488:\n        /* \"#utility.yul\":13764:13881   */\n    tag_487:\n        /* \"#utility.yul\":13905:13967   */\n      tag_489\n        /* \"#utility.yul\":13959:13966   */\n      dup12\n        /* \"#utility.yul\":13950:13956   */\n      dup3\n        /* \"#utility.yul\":13939:13948   */\n      dup13\n        /* \"#utility.yul\":13935:13957   */\n      add\n        /* \"#utility.yul\":13905:13967   */\n      tag_284\n      jump\t// in\n    tag_489:\n        /* \"#utility.yul\":13895:13967   */\n      swap4\n      pop\n        /* \"#utility.yul\":13689:13977   */\n      pop\n        /* \"#utility.yul\":14044:14047   */\n      0xc0\n        /* \"#utility.yul\":14033:14042   */\n      dup10\n        /* \"#utility.yul\":14029:14048   */\n      add\n        /* \"#utility.yul\":14016:14049   */\n      calldataload\n        /* \"#utility.yul\":14076:14094   */\n      0xffffffffffffffff\n        /* \"#utility.yul\":14068:14074   */\n      dup2\n        /* \"#utility.yul\":14065:14095   */\n      gt\n        /* \"#utility.yul\":14062:14179   */\n      iszero\n      tag_490\n      jumpi\n        /* \"#utility.yul\":14098:14177   */\n      tag_491\n      tag_254\n      jump\t// in\n    tag_491:\n        /* \"#utility.yul\":14062:14179   */\n    tag_490:\n        /* \"#utility.yul\":14203:14265   */\n      tag_492\n        /* \"#utility.yul\":14257:14264   */\n      dup12\n        /* \"#utility.yul\":14248:14254   */\n      dup3\n        /* \"#utility.yul\":14237:14246   */\n      dup13\n        /* \"#utility.yul\":14233:14255   */\n      add\n        /* \"#utility.yul\":14203:14265   */\n      tag_284\n      jump\t// in\n    tag_492:\n        /* \"#utility.yul\":14193:14265   */\n      swap3\n      pop\n        /* \"#utility.yul\":13987:14275   */\n      pop\n        /* \"#utility.yul\":14342:14345   */\n      0xe0\n        /* \"#utility.yul\":14331:14340   */\n      dup10\n        /* \"#utility.yul\":14327:14346   */\n      add\n        /* \"#utility.yul\":14314:14347   */\n      calldataload\n        /* \"#utility.yul\":14374:14392   */\n      0xffffffffffffffff\n        /* \"#utility.yul\":14366:14372   */\n      dup2\n        /* \"#utility.yul\":14363:14393   */\n      gt\n        /* \"#utility.yul\":14360:14477   */\n      iszero\n      tag_493\n      jumpi\n        /* \"#utility.yul\":14396:14475   */\n      tag_494\n      tag_254\n      jump\t// in\n    tag_494:\n        /* \"#utility.yul\":14360:14477   */\n    tag_493:\n        /* \"#utility.yul\":14501:14563   */\n      tag_495\n        /* \"#utility.yul\":14555:14562   */\n      dup12\n        /* \"#utility.yul\":14546:14552   */\n      dup3\n        /* \"#utility.yul\":14535:14544   */\n      dup13\n        /* \"#utility.yul\":14531:14553   */\n      add\n        /* \"#utility.yul\":14501:14563   */\n      tag_284\n      jump\t// in\n    tag_495:\n        /* \"#utility.yul\":14491:14563   */\n      swap2\n      pop\n        /* \"#utility.yul\":14285:14573   */\n      pop\n        /* \"#utility.yul\":12157:14580   */\n      swap3\n      swap6\n      swap9\n      pop\n      swap3\n      swap6\n      swap9\n      swap1\n      swap4\n      swap7\n      pop\n      jump\t// out\n        /* \"#utility.yul\":14586:14704   */\n    tag_287:\n        /* \"#utility.yul\":14673:14697   */\n      tag_497\n        /* \"#utility.yul\":14691:14696   */\n      dup2\n        /* \"#utility.yul\":14673:14697   */\n      tag_269\n      jump\t// in\n    tag_497:\n        /* \"#utility.yul\":14668:14671   */\n      dup3\n        /* \"#utility.yul\":14661:14698   */\n      mstore\n        /* \"#utility.yul\":14586:14704   */\n      pop\n      pop\n      jump\t// out\n        /* \"#utility.yul\":14710:14932   */\n    tag_49:\n        /* \"#utility.yul\":14803:14807   */\n      0x00\n        /* \"#utility.yul\":14841:14843   */\n      0x20\n        /* \"#utility.yul\":14830:14839   */\n      dup3\n        /* \"#utility.yul\":14826:14844   */\n      add\n        /* \"#utility.yul\":14818:14844   */\n      swap1\n      pop\n        /* \"#utility.yul\":14854:14925   */\n      tag_499\n        /* \"#utility.yul\":14922:14923   */\n      0x00\n        /* \"#utility.yul\":14911:14920   */\n      dup4\n        /* \"#utility.yul\":14907:14924   */\n      add\n        /* \"#utility.yul\":14898:14904   */\n      dup5\n        /* \"#utility.yul\":14854:14925   */\n      tag_287\n      jump\t// in\n    tag_499:\n        /* \"#utility.yul\":14710:14932   */\n      swap3\n      swap2\n      pop\n      pop\n      jump\t// out\n        /* \"#utility.yul\":14938:15092   */\n    tag_288:\n        /* \"#utility.yul\":15016:15025   */\n      0x00\n        /* \"#utility.yul\":15049:15086   */\n      tag_501\n        /* \"#utility.yul\":15080:15085   */\n      dup3\n        /* \"#utility.yul\":15049:15086   */\n      tag_247\n      jump\t// in\n    tag_501:\n        /* \"#utility.yul\":15036:15086   */\n      swap1\n      pop\n        /* \"#utility.yul\":14938:15092   */\n      swap2\n      swap1\n      pop\n      jump\t// out\n        /* \"#utility.yul\":15098:15285   */\n    tag_289:\n        /* \"#utility.yul\":15213:15278   */\n      tag_503\n        /* \"#utility.yul\":15272:15277   */\n      dup2\n        /* \"#utility.yul\":15213:15278   */\n      tag_288\n      jump\t// in\n    tag_503:\n        /* \"#utility.yul\":15208:15211   */\n      dup3\n        /* \"#utility.yul\":15201:15279   */\n      mstore\n        /* \"#utility.yul\":15098:15285   */\n      pop\n      pop\n      jump\t// out\n        /* \"#utility.yul\":15291:15569   */\n    tag_53:\n        /* \"#utility.yul\":15412:15416   */\n      0x00\n        /* \"#utility.yul\":15450:15452   */\n      0x20\n        /* \"#utility.yul\":15439:15448   */\n      dup3\n        /* \"#utility.yul\":15435:15453   */\n      add\n        /* \"#utility.yul\":15427:15453   */\n      swap1\n      pop\n        /* \"#utility.yul\":15463:15562   */\n      tag_505\n        /* \"#utility.yul\":15559:15560   */\n      0x00\n        /* \"#utility.yul\":15548:15557   */\n      dup4\n        /* \"#utility.yul\":15544:15561   */\n      add\n        /* \"#utility.yul\":15535:15541   */\n      dup5\n        /* \"#utility.yul\":15463:15562   */\n      tag_289\n      jump\t// in\n    tag_505:\n        /* \"#utility.yul\":15291:15569   */\n      swap3\n      swap2\n      pop\n      pop\n      jump\t// out\n        /* \"#utility.yul\":15575:15723   */\n    tag_290:\n        /* \"#utility.yul\":15677:15688   */\n      0x00\n        /* \"#utility.yul\":15714:15717   */\n      dup2\n        /* \"#utility.yul\":15699:15717   */\n      swap1\n      pop\n        /* \"#utility.yul\":15575:15723   */\n      swap3\n      swap2\n      pop\n      pop\n      jump\t// out\n        /* \"#utility.yul\":15729:16106   */\n    tag_291:\n        /* \"#utility.yul\":15835:15838   */\n      0x00\n        /* \"#utility.yul\":15863:15902   */\n      tag_508\n        /* \"#utility.yul\":15896:15901   */\n      dup3\n        /* \"#utility.yul\":15863:15902   */\n      tag_265\n      jump\t// in\n    tag_508:\n        /* \"#utility.yul\":15918:16007   */\n      tag_509\n        /* \"#utility.yul\":16000:16006   */\n      dup2\n        /* \"#utility.yul\":15995:15998   */\n      dup6\n        /* \"#utility.yul\":15918:16007   */\n      tag_290\n      jump\t// in\n    tag_509:\n        /* \"#utility.yul\":15911:16007   */\n      swap4\n      pop\n        /* \"#utility.yul\":16016:16068   */\n      tag_510\n        /* \"#utility.yul\":16061:16067   */\n      dup2\n        /* \"#utility.yul\":16056:16059   */\n      dup6\n        /* \"#utility.yul\":16049:16053   */\n      0x20\n        /* \"#utility.yul\":16042:16047   */\n      dup7\n        /* \"#utility.yul\":16038:16054   */\n      add\n        /* \"#utility.yul\":16016:16068   */\n      tag_267\n      jump\t// in\n    tag_510:\n        /* \"#utility.yul\":16093:16099   */\n      dup1\n        /* \"#utility.yul\":16088:16091   */\n      dup5\n        /* \"#utility.yul\":16084:16100   */\n      add\n        /* \"#utility.yul\":16077:16100   */\n      swap2\n      pop\n        /* \"#utility.yul\":15839:16106   */\n      pop\n        /* \"#utility.yul\":15729:16106   */\n      swap3\n      swap2\n      pop\n      pop\n      jump\t// out\n        /* \"#utility.yul\":16112:16387   */\n    tag_58:\n        /* \"#utility.yul\":16244:16247   */\n      0x00\n        /* \"#utility.yul\":16266:16361   */\n      tag_512\n        /* \"#utility.yul\":16357:16360   */\n      dup3\n        /* \"#utility.yul\":16348:16354   */\n      dup5\n        /* \"#utility.yul\":16266:16361   */\n      tag_291\n      jump\t// in\n    tag_512:\n        /* \"#utility.yul\":16259:16361   */\n      swap2\n      pop\n        /* \"#utility.yul\":16378:16381   */\n      dup2\n        /* \"#utility.yul\":16371:16381   */\n      swap1\n      pop\n        /* \"#utility.yul\":16112:16387   */\n      swap3\n      swap2\n      pop\n      pop\n      jump\t// out\n        /* \"#utility.yul\":16393:16573   */\n    tag_292:\n        /* \"#utility.yul\":16441:16518   */\n      0x4e487b7100000000000000000000000000000000000000000000000000000000\n        /* \"#utility.yul\":16438:16439   */\n      0x00\n        /* \"#utility.yul\":16431:16519   */\n      mstore\n        /* \"#utility.yul\":16538:16542   */\n      0x22\n        /* \"#utility.yul\":16535:16536   */\n      0x04\n        /* \"#utility.yul\":16528:16543   */\n      mstore\n        /* \"#utility.yul\":16562:16566   */\n      0x24\n        /* \"#utility.yul\":16559:16560   */\n      0x00\n        /* \"#utility.yul\":16552:16567   */\n      revert\n        /* \"#utility.yul\":16579:16899   */\n    tag_60:\n        /* \"#utility.yul\":16623:16629   */\n      0x00\n        /* \"#utility.yul\":16660:16661   */\n      0x02\n        /* \"#utility.yul\":16654:16658   */\n      dup3\n        /* \"#utility.yul\":16650:16662   */\n      div\n        /* \"#utility.yul\":16640:16662   */\n      swap1\n      pop\n        /* \"#utility.yul\":16707:16708   */\n      0x01\n        /* \"#utility.yul\":16701:16705   */\n      dup3\n        /* \"#utility.yul\":16697:16709   */\n      and\n        /* \"#utility.yul\":16728:16746   */\n      dup1\n        /* \"#utility.yul\":16718:16799   */\n      tag_515\n      jumpi\n        /* \"#utility.yul\":16784:16788   */\n      0x7f\n        /* \"#utility.yul\":16776:16782   */\n      dup3\n        /* \"#utility.yul\":16772:16789   */\n      and\n        /* \"#utility.yul\":16762:16789   */\n      swap2\n      pop\n        /* \"#utility.yul\":16718:16799   */\n    tag_515:\n        /* \"#utility.yul\":16846:16848   */\n      0x20\n        /* \"#utility.yul\":16838:16844   */\n      dup3\n        /* \"#utility.yul\":16835:16849   */\n      lt\n        /* \"#utility.yul\":16815:16833   */\n      dup2\n        /* \"#utility.yul\":16812:16850   */\n      eq\n        /* \"#utility.yul\":16809:16893   */\n      iszero\n      tag_516\n      jumpi\n        /* \"#utility.yul\":16865:16883   */\n      tag_517\n      tag_292\n      jump\t// in\n    tag_517:\n        /* \"#utility.yul\":16809:16893   */\n    tag_516:\n        /* \"#utility.yul\":16630:16899   */\n      pop\n        /* \"#utility.yul\":16579:16899   */\n      swap2\n      swap1\n      pop\n      jump\t// out\n        /* \"#utility.yul\":16905:17074   */\n    tag_293:\n        /* \"#utility.yul\":16989:17000   */\n      0x00\n        /* \"#utility.yul\":17023:17029   */\n      dup3\n        /* \"#utility.yul\":17018:17021   */\n      dup3\n        /* \"#utility.yul\":17011:17030   */\n      mstore\n        /* \"#utility.yul\":17063:17067   */\n      0x20\n        /* \"#utility.yul\":17058:17061   */\n      dup3\n        /* \"#utility.yul\":17054:17068   */\n      add\n        /* \"#utility.yul\":17039:17068   */\n      swap1\n      pop\n        /* \"#utility.yul\":16905:17074   */\n      swap3\n      swap2\n      pop\n      pop\n      jump\t// out\n        /* \"#utility.yul\":17080:17248   */\n    tag_294:\n        /* \"#utility.yul\":17220:17240   */\n      0x54726970206e6f20656e636f6e74726164610000000000000000000000000000\n        /* \"#utility.yul\":17216:17217   */\n      0x00\n        /* \"#utility.yul\":17208:17214   */\n      dup3\n        /* \"#utility.yul\":17204:17218   */\n      add\n        /* \"#utility.yul\":17197:17241   */\n      mstore\n        /* \"#utility.yul\":17080:17248   */\n      pop\n      jump\t// out\n        /* \"#utility.yul\":17254:17620   */\n    tag_295:\n        /* \"#utility.yul\":17396:17399   */\n      0x00\n        /* \"#utility.yul\":17417:17484   */\n      tag_521\n        /* \"#utility.yul\":17481:17483   */\n      0x12\n        /* \"#utility.yul\":17476:17479   */\n      dup4\n        /* \"#utility.yul\":17417:17484   */\n      tag_293\n      jump\t// in\n    tag_521:\n        /* \"#utility.yul\":17410:17484   */\n      swap2\n      pop\n        /* \"#utility.yul\":17493:17586   */\n      tag_522\n        /* \"#utility.yul\":17582:17585   */\n      dup3\n        /* \"#utility.yul\":17493:17586   */\n      tag_294\n      jump\t// in\n    tag_522:\n        /* \"#utility.yul\":17611:17613   */\n      0x20\n        /* \"#utility.yul\":17606:17609   */\n      dup3\n        /* \"#utility.yul\":17602:17614   */\n      add\n        /* \"#utility.yul\":17595:17614   */\n      swap1\n      pop\n        /* \"#utility.yul\":17254:17620   */\n      swap2\n      swap1\n      pop\n      jump\t// out\n        /* \"#utility.yul\":17626:18045   */\n    tag_82:\n        /* \"#utility.yul\":17792:17796   */\n      0x00\n        /* \"#utility.yul\":17830:17832   */\n      0x20\n        /* \"#utility.yul\":17819:17828   */\n      dup3\n        /* \"#utility.yul\":17815:17833   */\n      add\n        /* \"#utility.yul\":17807:17833   */\n      swap1\n      pop\n        /* \"#utility.yul\":17879:17888   */\n      dup2\n        /* \"#utility.yul\":17873:17877   */\n      dup2\n        /* \"#utility.yul\":17869:17889   */\n      sub\n        /* \"#utility.yul\":17865:17866   */\n      0x00\n        /* \"#utility.yul\":17854:17863   */\n      dup4\n        /* \"#utility.yul\":17850:17867   */\n      add\n        /* \"#utility.yul\":17843:17890   */\n      mstore\n        /* \"#utility.yul\":17907:18038   */\n      tag_524\n        /* \"#utility.yul\":18033:18037   */\n      dup2\n        /* \"#utility.yul\":17907:18038   */\n      tag_295\n      jump\t// in\n    tag_524:\n        /* \"#utility.yul\":17899:18038   */\n      swap1\n      pop\n        /* \"#utility.yul\":17626:18045   */\n      swap2\n      swap1\n      pop\n      jump\t// out\n        /* \"#utility.yul\":18051:18226   */\n    tag_296:\n        /* \"#utility.yul\":18191:18218   */\n      0x4e6f206175746f72697a61646f3a20736f6c6f2061646d696e00000000000000\n        /* \"#utility.yul\":18187:18188   */\n      0x00\n        /* \"#utility.yul\":18179:18185   */\n      dup3\n        /* \"#utility.yul\":18175:18189   */\n      add\n        /* \"#utility.yul\":18168:18219   */\n      mstore\n        /* \"#utility.yul\":18051:18226   */\n      pop\n      jump\t// out\n        /* \"#utility.yul\":18232:18598   */\n    tag_297:\n        /* \"#utility.yul\":18374:18377   */\n      0x00\n        /* \"#utility.yul\":18395:18462   */\n      tag_527\n        /* \"#utility.yul\":18459:18461   */\n      0x19\n        /* \"#utility.yul\":18454:18457   */\n      dup4\n        /* \"#utility.yul\":18395:18462   */\n      tag_293\n      jump\t// in\n    tag_527:\n        /* \"#utility.yul\":18388:18462   */\n      swap2\n      pop\n        /* \"#utility.yul\":18471:18564   */\n      tag_528\n        /* \"#utility.yul\":18560:18563   */\n      dup3\n        /* \"#utility.yul\":18471:18564   */\n      tag_296\n      jump\t// in\n    tag_528:\n        /* \"#utility.yul\":18589:18591   */\n      0x20\n        /* \"#utility.yul\":18584:18587   */\n      dup3\n        /* \"#utility.yul\":18580:18592   */\n      add\n        /* \"#utility.yul\":18573:18592   */\n      swap1\n      pop\n        /* \"#utility.yul\":18232:18598   */\n      swap2\n      swap1\n      pop\n      jump\t// out\n        /* \"#utility.yul\":18604:19023   */\n    tag_86:\n        /* \"#utility.yul\":18770:18774   */\n      0x00\n        /* \"#utility.yul\":18808:18810   */\n      0x20\n        /* \"#utility.yul\":18797:18806   */\n      dup3\n        /* \"#utility.yul\":18793:18811   */\n      add\n        /* \"#utility.yul\":18785:18811   */\n      swap1\n      pop\n        /* \"#utility.yul\":18857:18866   */\n      dup2\n        /* \"#utility.yul\":18851:18855   */\n      dup2\n        /* \"#utility.yul\":18847:18867   */\n      sub\n        /* \"#utility.yul\":18843:18844   */\n      0x00\n        /* \"#utility.yul\":18832:18841   */\n      dup4\n        /* \"#utility.yul\":18828:18845   */\n      add\n        /* \"#utility.yul\":18821:18868   */\n      mstore\n        /* \"#utility.yul\":18885:19016   */\n      tag_530\n        /* \"#utility.yul\":19011:19015   */\n      dup2\n        /* \"#utility.yul\":18885:19016   */\n      tag_297\n      jump\t// in\n    tag_530:\n        /* \"#utility.yul\":18877:19016   */\n      swap1\n      pop\n        /* \"#utility.yul\":18604:19023   */\n      swap2\n      swap1\n      pop\n      jump\t// out\n        /* \"#utility.yul\":19029:19193   */\n    tag_298:\n        /* \"#utility.yul\":19169:19185   */\n      0x41646d696e20696e76616c69646f000000000000000000000000000000000000\n        /* \"#utility.yul\":19165:19166   */\n      0x00\n        /* \"#utility.yul\":19157:19163   */\n      dup3\n        /* \"#utility.yul\":19153:19167   */\n      add\n        /* \"#utility.yul\":19146:19186   */\n      mstore\n        /* \"#utility.yul\":19029:19193   */\n      pop\n      jump\t// out\n        /* \"#utility.yul\":19199:19565   */\n    tag_299:\n        /* \"#utility.yul\":19341:19344   */\n      0x00\n        /* \"#utility.yul\":19362:19429   */\n      tag_533\n        /* \"#utility.yul\":19426:19428   */\n      0x0e\n        /* \"#utility.yul\":19421:19424   */\n      dup4\n        /* \"#utility.yul\":19362:19429   */\n      tag_293\n      jump\t// in\n    tag_533:\n        /* \"#utility.yul\":19355:19429   */\n      swap2\n      pop\n        /* \"#utility.yul\":19438:19531   */\n      tag_534\n        /* \"#utility.yul\":19527:19530   */\n      dup3\n        /* \"#utility.yul\":19438:19531   */\n      tag_298\n      jump\t// in\n    tag_534:\n        /* \"#utility.yul\":19556:19558   */\n      0x20\n        /* \"#utility.yul\":19551:19554   */\n      dup3\n        /* \"#utility.yul\":19547:19559   */\n      add\n        /* \"#utility.yul\":19540:19559   */\n      swap1\n      pop\n        /* \"#utility.yul\":19199:19565   */\n      swap2\n      swap1\n      pop\n      jump\t// out\n        /* \"#utility.yul\":19571:19990   */\n    tag_90:\n        /* \"#utility.yul\":19737:19741   */\n      0x00\n        /* \"#utility.yul\":19775:19777   */\n      0x20\n        /* \"#utility.yul\":19764:19773   */\n      dup3\n        /* \"#utility.yul\":19760:19778   */\n      add\n        /* \"#utility.yul\":19752:19778   */\n      swap1\n      pop\n        /* \"#utility.yul\":19824:19833   */\n      dup2\n        /* \"#utility.yul\":19818:19822   */\n      dup2\n        /* \"#utility.yul\":19814:19834   */\n      sub\n        /* \"#utility.yul\":19810:19811   */\n      0x00\n        /* \"#utility.yul\":19799:19808   */\n      dup4\n        /* \"#utility.yul\":19795:19812   */\n      add\n        /* \"#utility.yul\":19788:19835   */\n      mstore\n        /* \"#utility.yul\":19852:19983   */\n      tag_536\n        /* \"#utility.yul\":19978:19982   */\n      dup2\n        /* \"#utility.yul\":19852:19983   */\n      tag_299\n      jump\t// in\n    tag_536:\n        /* \"#utility.yul\":19844:19983   */\n      swap1\n      pop\n        /* \"#utility.yul\":19571:19990   */\n      swap2\n      swap1\n      pop\n      jump\t// out\n        /* \"#utility.yul\":19996:20169   */\n    tag_300:\n        /* \"#utility.yul\":20136:20161   */\n      0x45737461646f206465207472697020696e76616c69646f000000000000000000\n        /* \"#utility.yul\":20132:20133   */\n      0x00\n        /* \"#utility.yul\":20124:20130   */\n      dup3\n        /* \"#utility.yul\":20120:20134   */\n      add\n        /* \"#utility.yul\":20113:20162   */\n      mstore\n        /* \"#utility.yul\":19996:20169   */\n      pop\n      jump\t// out\n        /* \"#utility.yul\":20175:20541   */\n    tag_301:\n        /* \"#utility.yul\":20317:20320   */\n      0x00\n        /* \"#utility.yul\":20338:20405   */\n      tag_539\n        /* \"#utility.yul\":20402:20404   */\n      0x17\n        /* \"#utility.yul\":20397:20400   */\n      dup4\n        /* \"#utility.yul\":20338:20405   */\n      tag_293\n      jump\t// in\n    tag_539:\n        /* \"#utility.yul\":20331:20405   */\n      swap2\n      pop\n        /* \"#utility.yul\":20414:20507   */\n      tag_540\n        /* \"#utility.yul\":20503:20506   */\n      dup3\n        /* \"#utility.yul\":20414:20507   */\n      tag_300\n      jump\t// in\n    tag_540:\n        /* \"#utility.yul\":20532:20534   */\n      0x20\n        /* \"#utility.yul\":20527:20530   */\n      dup3\n        /* \"#utility.yul\":20523:20535   */\n      add\n        /* \"#utility.yul\":20516:20535   */\n      swap1\n      pop\n        /* \"#utility.yul\":20175:20541   */\n      swap2\n      swap1\n      pop\n      jump\t// out\n        /* \"#utility.yul\":20547:20966   */\n    tag_104:\n        /* \"#utility.yul\":20713:20717   */\n      0x00\n        /* \"#utility.yul\":20751:20753   */\n      0x20\n        /* \"#utility.yul\":20740:20749   */\n      dup3\n        /* \"#utility.yul\":20736:20754   */\n      add\n        /* \"#utility.yul\":20728:20754   */\n      swap1\n      pop\n        /* \"#utility.yul\":20800:20809   */\n      dup2\n        /* \"#utility.yul\":20794:20798   */\n      dup2\n        /* \"#utility.yul\":20790:20810   */\n      sub\n        /* \"#utility.yul\":20786:20787   */\n      0x00\n        /* \"#utility.yul\":20775:20784   */\n      dup4\n        /* \"#utility.yul\":20771:20788   */\n      add\n        /* \"#utility.yul\":20764:20811   */\n      mstore\n        /* \"#utility.yul\":20828:20959   */\n      tag_542\n        /* \"#utility.yul\":20954:20958   */\n      dup2\n        /* \"#utility.yul\":20828:20959   */\n      tag_301\n      jump\t// in\n    tag_542:\n        /* \"#utility.yul\":20820:20959   */\n      swap1\n      pop\n        /* \"#utility.yul\":20547:20966   */\n      swap2\n      swap1\n      pop\n      jump\t// out\n        /* \"#utility.yul\":20972:21090   */\n    tag_302:\n        /* \"#utility.yul\":21059:21083   */\n      tag_544\n        /* \"#utility.yul\":21077:21082   */\n      dup2\n        /* \"#utility.yul\":21059:21083   */\n      tag_271\n      jump\t// in\n    tag_544:\n        /* \"#utility.yul\":21054:21057   */\n      dup3\n        /* \"#utility.yul\":21047:21084   */\n      mstore\n        /* \"#utility.yul\":20972:21090   */\n      pop\n      pop\n      jump\t// out\n        /* \"#utility.yul\":21096:21237   */\n    tag_303:\n        /* \"#utility.yul\":21145:21149   */\n      0x00\n        /* \"#utility.yul\":21168:21171   */\n      dup2\n        /* \"#utility.yul\":21160:21171   */\n      swap1\n      pop\n        /* \"#utility.yul\":21191:21194   */\n      dup2\n        /* \"#utility.yul\":21188:21189   */\n      0x00\n        /* \"#utility.yul\":21181:21195   */\n      mstore\n        /* \"#utility.yul\":21225:21229   */\n      0x20\n        /* \"#utility.yul\":21222:21223   */\n      0x00\n        /* \"#utility.yul\":21212:21230   */\n      keccak256\n        /* \"#utility.yul\":21204:21230   */\n      swap1\n      pop\n        /* \"#utility.yul\":21096:21237   */\n      swap2\n      swap1\n      pop\n      jump\t// out\n        /* \"#utility.yul\":21267:22069   */\n    tag_304:\n        /* \"#utility.yul\":21352:21355   */\n      0x00\n        /* \"#utility.yul\":21389:21394   */\n      dup2\n        /* \"#utility.yul\":21383:21395   */\n      sload\n        /* \"#utility.yul\":21418:21454   */\n      tag_547\n        /* \"#utility.yul\":21444:21453   */\n      dup2\n        /* \"#utility.yul\":21418:21454   */\n      tag_60\n      jump\t// in\n    tag_547:\n        /* \"#utility.yul\":21470:21541   */\n      tag_548\n        /* \"#utility.yul\":21534:21540   */\n      dup2\n        /* \"#utility.yul\":21529:21532   */\n      dup7\n        /* \"#utility.yul\":21470:21541   */\n      tag_293\n      jump\t// in\n    tag_548:\n        /* \"#utility.yul\":21463:21541   */\n      swap5\n      pop\n        /* \"#utility.yul\":21572:21573   */\n      0x01\n        /* \"#utility.yul\":21561:21570   */\n      dup3\n        /* \"#utility.yul\":21557:21574   */\n      and\n        /* \"#utility.yul\":21588:21589   */\n      0x00\n        /* \"#utility.yul\":21583:21718   */\n      dup2\n      eq\n      tag_550\n      jumpi\n        /* \"#utility.yul\":21732:21733   */\n      0x01\n        /* \"#utility.yul\":21727:22063   */\n      dup2\n      eq\n      tag_551\n      jumpi\n        /* \"#utility.yul\":21550:22063   */\n      jump(tag_549)\n        /* \"#utility.yul\":21583:21718   */\n    tag_550:\n        /* \"#utility.yul\":21667:21671   */\n      0xff\n        /* \"#utility.yul\":21663:21672   */\n      not\n        /* \"#utility.yul\":21652:21661   */\n      dup4\n        /* \"#utility.yul\":21648:21673   */\n      and\n        /* \"#utility.yul\":21643:21646   */\n      dup7\n        /* \"#utility.yul\":21636:21674   */\n      mstore\n        /* \"#utility.yul\":21703:21707   */\n      0x20\n        /* \"#utility.yul\":21698:21701   */\n      dup7\n        /* \"#utility.yul\":21694:21708   */\n      add\n        /* \"#utility.yul\":21687:21708   */\n      swap4\n      pop\n        /* \"#utility.yul\":21583:21718   */\n      jump(tag_549)\n        /* \"#utility.yul\":21727:22063   */\n    tag_551:\n        /* \"#utility.yul\":21794:21832   */\n      tag_552\n        /* \"#utility.yul\":21826:21831   */\n      dup6\n        /* \"#utility.yul\":21794:21832   */\n      tag_303\n      jump\t// in\n    tag_552:\n        /* \"#utility.yul\":21854:21855   */\n      0x00\n        /* \"#utility.yul\":21868:22022   */\n    tag_553:\n        /* \"#utility.yul\":21882:21888   */\n      dup4\n        /* \"#utility.yul\":21879:21880   */\n      dup2\n        /* \"#utility.yul\":21876:21889   */\n      lt\n        /* \"#utility.yul\":21868:22022   */\n      iszero\n      tag_555\n      jumpi\n        /* \"#utility.yul\":21956:21963   */\n      dup2\n        /* \"#utility.yul\":21950:21964   */\n      sload\n        /* \"#utility.yul\":21946:21947   */\n      dup2\n        /* \"#utility.yul\":21941:21944   */\n      dup10\n        /* \"#utility.yul\":21937:21948   */\n      add\n        /* \"#utility.yul\":21930:21965   */\n      mstore\n        /* \"#utility.yul\":22006:22007   */\n      0x01\n        /* \"#utility.yul\":21997:22004   */\n      dup3\n        /* \"#utility.yul\":21993:22008   */\n      add\n        /* \"#utility.yul\":21982:22008   */\n      swap2\n      pop\n        /* \"#utility.yul\":21904:21908   */\n      0x20\n        /* \"#utility.yul\":21901:21902   */\n      dup2\n        /* \"#utility.yul\":21897:21909   */\n      add\n        /* \"#utility.yul\":21892:21909   */\n      swap1\n      pop\n        /* \"#utility.yul\":21868:22022   */\n      jump(tag_553)\n    tag_555:\n        /* \"#utility.yul\":22051:22052   */\n      dup1\n        /* \"#utility.yul\":22046:22049   */\n      dup9\n        /* \"#utility.yul\":22042:22053   */\n      add\n        /* \"#utility.yul\":22035:22053   */\n      swap6\n      pop\n        /* \"#utility.yul\":21734:22063   */\n      pop\n      pop\n        /* \"#utility.yul\":21550:22063   */\n    tag_549:\n      pop\n        /* \"#utility.yul\":21356:22069   */\n      pop\n      pop\n        /* \"#utility.yul\":21267:22069   */\n      swap3\n      swap2\n      pop\n      pop\n      jump\t// out\n        /* \"#utility.yul\":22075:22492   */\n    tag_106:\n        /* \"#utility.yul\":22213:22217   */\n      0x00\n        /* \"#utility.yul\":22251:22253   */\n      0x40\n        /* \"#utility.yul\":22240:22249   */\n      dup3\n        /* \"#utility.yul\":22236:22254   */\n      add\n        /* \"#utility.yul\":22228:22254   */\n      swap1\n      pop\n        /* \"#utility.yul\":22264:22335   */\n      tag_557\n        /* \"#utility.yul\":22332:22333   */\n      0x00\n        /* \"#utility.yul\":22321:22330   */\n      dup4\n        /* \"#utility.yul\":22317:22334   */\n      add\n        /* \"#utility.yul\":22308:22314   */\n      dup6\n        /* \"#utility.yul\":22264:22335   */\n      tag_302\n      jump\t// in\n    tag_557:\n        /* \"#utility.yul\":22382:22391   */\n      dup2\n        /* \"#utility.yul\":22376:22380   */\n      dup2\n        /* \"#utility.yul\":22372:22392   */\n      sub\n        /* \"#utility.yul\":22367:22369   */\n      0x20\n        /* \"#utility.yul\":22356:22365   */\n      dup4\n        /* \"#utility.yul\":22352:22370   */\n      add\n        /* \"#utility.yul\":22345:22393   */\n      mstore\n        /* \"#utility.yul\":22410:22485   */\n      tag_558\n        /* \"#utility.yul\":22480:22484   */\n      dup2\n        /* \"#utility.yul\":22471:22477   */\n      dup5\n        /* \"#utility.yul\":22410:22485   */\n      tag_304\n      jump\t// in\n    tag_558:\n        /* \"#utility.yul\":22402:22485   */\n      swap1\n      pop\n        /* \"#utility.yul\":22075:22492   */\n      swap4\n      swap3\n      pop\n      pop\n      pop\n      jump\t// out\n        /* \"#utility.yul\":22498:22596   */\n    tag_305:\n        /* \"#utility.yul\":22549:22555   */\n      0x00\n        /* \"#utility.yul\":22583:22588   */\n      dup2\n        /* \"#utility.yul\":22577:22589   */\n      mload\n        /* \"#utility.yul\":22567:22589   */\n      swap1\n      pop\n        /* \"#utility.yul\":22498:22596   */\n      swap2\n      swap1\n      pop\n      jump\t// out\n        /* \"#utility.yul\":22602:22770   */\n    tag_306:\n        /* \"#utility.yul\":22685:22696   */\n      0x00\n        /* \"#utility.yul\":22719:22725   */\n      dup3\n        /* \"#utility.yul\":22714:22717   */\n      dup3\n        /* \"#utility.yul\":22707:22726   */\n      mstore\n        /* \"#utility.yul\":22759:22763   */\n      0x20\n        /* \"#utility.yul\":22754:22757   */\n      dup3\n        /* \"#utility.yul\":22750:22764   */\n      add\n        /* \"#utility.yul\":22735:22764   */\n      swap1\n      pop\n        /* \"#utility.yul\":22602:22770   */\n      swap3\n      swap2\n      pop\n      pop\n      jump\t// out\n        /* \"#utility.yul\":22776:23136   */\n    tag_307:\n        /* \"#utility.yul\":22862:22865   */\n      0x00\n        /* \"#utility.yul\":22890:22928   */\n      tag_562\n        /* \"#utility.yul\":22922:22927   */\n      dup3\n        /* \"#utility.yul\":22890:22928   */\n      tag_305\n      jump\t// in\n    tag_562:\n        /* \"#utility.yul\":22944:23014   */\n      tag_563\n        /* \"#utility.yul\":23007:23013   */\n      dup2\n        /* \"#utility.yul\":23002:23005   */\n      dup6\n        /* \"#utility.yul\":22944:23014   */\n      tag_306\n      jump\t// in\n    tag_563:\n        /* \"#utility.yul\":22937:23014   */\n      swap4\n      pop\n        /* \"#utility.yul\":23023:23075   */\n      tag_564\n        /* \"#utility.yul\":23068:23074   */\n      dup2\n        /* \"#utility.yul\":23063:23066   */\n      dup6\n        /* \"#utility.yul\":23056:23060   */\n      0x20\n        /* \"#utility.yul\":23049:23054   */\n      dup7\n        /* \"#utility.yul\":23045:23061   */\n      add\n        /* \"#utility.yul\":23023:23075   */\n      tag_267\n      jump\t// in\n    tag_564:\n        /* \"#utility.yul\":23100:23129   */\n      tag_565\n        /* \"#utility.yul\":23122:23128   */\n      dup2\n        /* \"#utility.yul\":23100:23129   */\n      tag_257\n      jump\t// in\n    tag_565:\n        /* \"#utility.yul\":23095:23098   */\n      dup5\n        /* \"#utility.yul\":23091:23130   */\n      add\n        /* \"#utility.yul\":23084:23130   */\n      swap2\n      pop\n        /* \"#utility.yul\":22866:23136   */\n      pop\n        /* \"#utility.yul\":22776:23136   */\n      swap3\n      swap2\n      pop\n      pop\n      jump\t// out\n        /* \"#utility.yul\":23142:23227   */\n    tag_308:\n        /* \"#utility.yul\":23187:23194   */\n      0x00\n        /* \"#utility.yul\":23216:23221   */\n      dup2\n        /* \"#utility.yul\":23205:23221   */\n      swap1\n      pop\n        /* \"#utility.yul\":23142:23227   */\n      swap2\n      swap1\n      pop\n      jump\t// out\n        /* \"#utility.yul\":23233:23309   */\n    tag_309:\n        /* \"#utility.yul\":23269:23276   */\n      0x00\n        /* \"#utility.yul\":23298:23303   */\n      dup2\n        /* \"#utility.yul\":23287:23303   */\n      swap1\n      pop\n        /* \"#utility.yul\":23233:23309   */\n      swap2\n      swap1\n      pop\n      jump\t// out\n        /* \"#utility.yul\":23315:23471   */\n    tag_310:\n        /* \"#utility.yul\":23372:23381   */\n      0x00\n        /* \"#utility.yul\":23405:23465   */\n      tag_569\n        /* \"#utility.yul\":23422:23464   */\n      tag_570\n        /* \"#utility.yul\":23431:23463   */\n      tag_571\n        /* \"#utility.yul\":23457:23462   */\n      dup5\n        /* \"#utility.yul\":23431:23463   */\n      tag_308\n      jump\t// in\n    tag_571:\n        /* \"#utility.yul\":23422:23464   */\n      tag_245\n      jump\t// in\n    tag_570:\n        /* \"#utility.yul\":23405:23465   */\n      tag_309\n      jump\t// in\n    tag_569:\n        /* \"#utility.yul\":23392:23465   */\n      swap1\n      pop\n        /* \"#utility.yul\":23315:23471   */\n      swap2\n      swap1\n      pop\n      jump\t// out\n        /* \"#utility.yul\":23477:23622   */\n    tag_311:\n        /* \"#utility.yul\":23571:23615   */\n      tag_573\n        /* \"#utility.yul\":23609:23614   */\n      dup2\n        /* \"#utility.yul\":23571:23615   */\n      tag_310\n      jump\t// in\n    tag_573:\n        /* \"#utility.yul\":23566:23569   */\n      dup3\n        /* \"#utility.yul\":23559:23616   */\n      mstore\n        /* \"#utility.yul\":23477:23622   */\n      pop\n      pop\n      jump\t// out\n        /* \"#utility.yul\":23628:23743   */\n    tag_312:\n        /* \"#utility.yul\":23713:23736   */\n      tag_575\n        /* \"#utility.yul\":23730:23735   */\n      dup2\n        /* \"#utility.yul\":23713:23736   */\n      tag_309\n      jump\t// in\n    tag_575:\n        /* \"#utility.yul\":23708:23711   */\n      dup3\n        /* \"#utility.yul\":23701:23737   */\n      mstore\n        /* \"#utility.yul\":23628:23743   */\n      pop\n      pop\n      jump\t// out\n        /* \"#utility.yul\":23749:24484   */\n    tag_111:\n        /* \"#utility.yul\":23966:23970   */\n      0x00\n        /* \"#utility.yul\":24004:24007   */\n      0x80\n        /* \"#utility.yul\":23993:24002   */\n      dup3\n        /* \"#utility.yul\":23989:24008   */\n      add\n        /* \"#utility.yul\":23981:24008   */\n      swap1\n      pop\n        /* \"#utility.yul\":24054:24063   */\n      dup2\n        /* \"#utility.yul\":24048:24052   */\n      dup2\n        /* \"#utility.yul\":24044:24064   */\n      sub\n        /* \"#utility.yul\":24040:24041   */\n      0x00\n        /* \"#utility.yul\":24029:24038   */\n      dup4\n        /* \"#utility.yul\":24025:24042   */\n      add\n        /* \"#utility.yul\":24018:24065   */\n      mstore\n        /* \"#utility.yul\":24082:24157   */\n      tag_577\n        /* \"#utility.yul\":24152:24156   */\n      dup2\n        /* \"#utility.yul\":24143:24149   */\n      dup8\n        /* \"#utility.yul\":24082:24157   */\n      tag_304\n      jump\t// in\n    tag_577:\n        /* \"#utility.yul\":24074:24157   */\n      swap1\n      pop\n        /* \"#utility.yul\":24204:24213   */\n      dup2\n        /* \"#utility.yul\":24198:24202   */\n      dup2\n        /* \"#utility.yul\":24194:24214   */\n      sub\n        /* \"#utility.yul\":24189:24191   */\n      0x20\n        /* \"#utility.yul\":24178:24187   */\n      dup4\n        /* \"#utility.yul\":24174:24192   */\n      add\n        /* \"#utility.yul\":24167:24215   */\n      mstore\n        /* \"#utility.yul\":24232:24308   */\n      tag_578\n        /* \"#utility.yul\":24303:24307   */\n      dup2\n        /* \"#utility.yul\":24294:24300   */\n      dup7\n        /* \"#utility.yul\":24232:24308   */\n      tag_307\n      jump\t// in\n    tag_578:\n        /* \"#utility.yul\":24224:24308   */\n      swap1\n      pop\n        /* \"#utility.yul\":24318:24397   */\n      tag_579\n        /* \"#utility.yul\":24393:24395   */\n      0x40\n        /* \"#utility.yul\":24382:24391   */\n      dup4\n        /* \"#utility.yul\":24378:24396   */\n      add\n        /* \"#utility.yul\":24369:24375   */\n      dup6\n        /* \"#utility.yul\":24318:24397   */\n      tag_311\n      jump\t// in\n    tag_579:\n        /* \"#utility.yul\":24407:24477   */\n      tag_580\n        /* \"#utility.yul\":24473:24475   */\n      0x60\n        /* \"#utility.yul\":24462:24471   */\n      dup4\n        /* \"#utility.yul\":24458:24476   */\n      add\n        /* \"#utility.yul\":24449:24455   */\n      dup5\n        /* \"#utility.yul\":24407:24477   */\n      tag_312\n      jump\t// in\n    tag_580:\n        /* \"#utility.yul\":23749:24484   */\n      swap6\n      swap5\n      pop\n      pop\n      pop\n      pop\n      pop\n      jump\t// out\n        /* \"#utility.yul\":24490:24645   */\n    tag_313:\n        /* \"#utility.yul\":24589:24638   */\n      tag_582\n        /* \"#utility.yul\":24632:24637   */\n      dup2\n        /* \"#utility.yul\":24589:24638   */\n      tag_275\n      jump\t// in\n    tag_582:\n        /* \"#utility.yul\":24584:24587   */\n      dup3\n        /* \"#utility.yul\":24577:24639   */\n      mstore\n        /* \"#utility.yul\":24490:24645   */\n      pop\n      pop\n      jump\t// out\n        /* \"#utility.yul\":24651:25031   */\n    tag_119:\n        /* \"#utility.yul\":24796:24800   */\n      0x00\n        /* \"#utility.yul\":24834:24836   */\n      0x40\n        /* \"#utility.yul\":24823:24832   */\n      dup3\n        /* \"#utility.yul\":24819:24837   */\n      add\n        /* \"#utility.yul\":24811:24837   */\n      swap1\n      pop\n        /* \"#utility.yul\":24847:24930   */\n      tag_584\n        /* \"#utility.yul\":24927:24928   */\n      0x00\n        /* \"#utility.yul\":24916:24925   */\n      dup4\n        /* \"#utility.yul\":24912:24929   */\n      add\n        /* \"#utility.yul\":24903:24909   */\n      dup6\n        /* \"#utility.yul\":24847:24930   */\n      tag_313\n      jump\t// in\n    tag_584:\n        /* \"#utility.yul\":24940:25024   */\n      tag_585\n        /* \"#utility.yul\":25020:25022   */\n      0x20\n        /* \"#utility.yul\":25009:25018   */\n      dup4\n        /* \"#utility.yul\":25005:25023   */\n      add\n        /* \"#utility.yul\":24996:25002   */\n      dup5\n        /* \"#utility.yul\":24940:25024   */\n      tag_313\n      jump\t// in\n    tag_585:\n        /* \"#utility.yul\":24651:25031   */\n      swap4\n      swap3\n      pop\n      pop\n      pop\n      jump\t// out\n        /* \"#utility.yul\":25037:25199   */\n    tag_314:\n        /* \"#utility.yul\":25177:25191   */\n      0x74726970496420766163696f0000000000000000000000000000000000000000\n        /* \"#utility.yul\":25173:25174   */\n      0x00\n        /* \"#utility.yul\":25165:25171   */\n      dup3\n        /* \"#utility.yul\":25161:25175   */\n      add\n        /* \"#utility.yul\":25154:25192   */\n      mstore\n        /* \"#utility.yul\":25037:25199   */\n      pop\n      jump\t// out\n        /* \"#utility.yul\":25205:25571   */\n    tag_315:\n        /* \"#utility.yul\":25347:25350   */\n      0x00\n        /* \"#utility.yul\":25368:25435   */\n      tag_588\n        /* \"#utility.yul\":25432:25434   */\n      0x0c\n        /* \"#utility.yul\":25427:25430   */\n      dup4\n        /* \"#utility.yul\":25368:25435   */\n      tag_293\n      jump\t// in\n    tag_588:\n        /* \"#utility.yul\":25361:25435   */\n      swap2\n      pop\n        /* \"#utility.yul\":25444:25537   */\n      tag_589\n        /* \"#utility.yul\":25533:25536   */\n      dup3\n        /* \"#utility.yul\":25444:25537   */\n      tag_314\n      jump\t// in\n    tag_589:\n        /* \"#utility.yul\":25562:25564   */\n      0x20\n        /* \"#utility.yul\":25557:25560   */\n      dup3\n        /* \"#utility.yul\":25553:25565   */\n      add\n        /* \"#utility.yul\":25546:25565   */\n      swap1\n      pop\n        /* \"#utility.yul\":25205:25571   */\n      swap2\n      swap1\n      pop\n      jump\t// out\n        /* \"#utility.yul\":25577:25996   */\n    tag_126:\n        /* \"#utility.yul\":25743:25747   */\n      0x00\n        /* \"#utility.yul\":25781:25783   */\n      0x20\n        /* \"#utility.yul\":25770:25779   */\n      dup3\n        /* \"#utility.yul\":25766:25784   */\n      add\n        /* \"#utility.yul\":25758:25784   */\n      swap1\n      pop\n        /* \"#utility.yul\":25830:25839   */\n      dup2\n        /* \"#utility.yul\":25824:25828   */\n      dup2\n        /* \"#utility.yul\":25820:25840   */\n      sub\n        /* \"#utility.yul\":25816:25817   */\n      0x00\n        /* \"#utility.yul\":25805:25814   */\n      dup4\n        /* \"#utility.yul\":25801:25818   */\n      add\n        /* \"#utility.yul\":25794:25841   */\n      mstore\n        /* \"#utility.yul\":25858:25989   */\n      tag_591\n        /* \"#utility.yul\":25984:25988   */\n      dup2\n        /* \"#utility.yul\":25858:25989   */\n      tag_315\n      jump\t// in\n    tag_591:\n        /* \"#utility.yul\":25850:25989   */\n      swap1\n      pop\n        /* \"#utility.yul\":25577:25996   */\n      swap2\n      swap1\n      pop\n      jump\t// out\n        /* \"#utility.yul\":26002:26166   */\n    tag_316:\n        /* \"#utility.yul\":26142:26158   */\n      0x5472697020796120657869737465000000000000000000000000000000000000\n        /* \"#utility.yul\":26138:26139   */\n      0x00\n        /* \"#utility.yul\":26130:26136   */\n      dup3\n        /* \"#utility.yul\":26126:26140   */\n      add\n        /* \"#utility.yul\":26119:26159   */\n      mstore\n        /* \"#utility.yul\":26002:26166   */\n      pop\n      jump\t// out\n        /* \"#utility.yul\":26172:26538   */\n    tag_317:\n        /* \"#utility.yul\":26314:26317   */\n      0x00\n        /* \"#utility.yul\":26335:26402   */\n      tag_594\n        /* \"#utility.yul\":26399:26401   */\n      0x0e\n        /* \"#utility.yul\":26394:26397   */\n      dup4\n        /* \"#utility.yul\":26335:26402   */\n      tag_293\n      jump\t// in\n    tag_594:\n        /* \"#utility.yul\":26328:26402   */\n      swap2\n      pop\n        /* \"#utility.yul\":26411:26504   */\n      tag_595\n        /* \"#utility.yul\":26500:26503   */\n      dup3\n        /* \"#utility.yul\":26411:26504   */\n      tag_316\n      jump\t// in\n    tag_595:\n        /* \"#utility.yul\":26529:26531   */\n      0x20\n        /* \"#utility.yul\":26524:26527   */\n      dup3\n        /* \"#utility.yul\":26520:26532   */\n      add\n        /* \"#utility.yul\":26513:26532   */\n      swap1\n      pop\n        /* \"#utility.yul\":26172:26538   */\n      swap2\n      swap1\n      pop\n      jump\t// out\n        /* \"#utility.yul\":26544:26963   */\n    tag_130:\n        /* \"#utility.yul\":26710:26714   */\n      0x00\n        /* \"#utility.yul\":26748:26750   */\n      0x20\n        /* \"#utility.yul\":26737:26746   */\n      dup3\n        /* \"#utility.yul\":26733:26751   */\n      add\n        /* \"#utility.yul\":26725:26751   */\n      swap1\n      pop\n        /* \"#utility.yul\":26797:26806   */\n      dup2\n        /* \"#utility.yul\":26791:26795   */\n      dup2\n        /* \"#utility.yul\":26787:26807   */\n      sub\n        /* \"#utility.yul\":26783:26784   */\n      0x00\n        /* \"#utility.yul\":26772:26781   */\n      dup4\n        /* \"#utility.yul\":26768:26785   */\n      add\n        /* \"#utility.yul\":26761:26808   */\n      mstore\n        /* \"#utility.yul\":26825:26956   */\n      tag_597\n        /* \"#utility.yul\":26951:26955   */\n      dup2\n        /* \"#utility.yul\":26825:26956   */\n      tag_317\n      jump\t// in\n    tag_597:\n        /* \"#utility.yul\":26817:26956   */\n      swap1\n      pop\n        /* \"#utility.yul\":26544:26963   */\n      swap2\n      swap1\n      pop\n      jump\t// out\n        /* \"#utility.yul\":26969:27133   */\n    tag_318:\n        /* \"#utility.yul\":27109:27125   */\n      0x526964657220696e76616c69646f000000000000000000000000000000000000\n        /* \"#utility.yul\":27105:27106   */\n      0x00\n        /* \"#utility.yul\":27097:27103   */\n      dup3\n        /* \"#utility.yul\":27093:27107   */\n      add\n        /* \"#utility.yul\":27086:27126   */\n      mstore\n        /* \"#utility.yul\":26969:27133   */\n      pop\n      jump\t// out\n        /* \"#utility.yul\":27139:27505   */\n    tag_319:\n        /* \"#utility.yul\":27281:27284   */\n      0x00\n        /* \"#utility.yul\":27302:27369   */\n      tag_600\n        /* \"#utility.yul\":27366:27368   */\n      0x0e\n        /* \"#utility.yul\":27361:27364   */\n      dup4\n        /* \"#utility.yul\":27302:27369   */\n      tag_293\n      jump\t// in\n    tag_600:\n        /* \"#utility.yul\":27295:27369   */\n      swap2\n      pop\n        /* \"#utility.yul\":27378:27471   */\n      tag_601\n        /* \"#utility.yul\":27467:27470   */\n      dup3\n        /* \"#utility.yul\":27378:27471   */\n      tag_318\n      jump\t// in\n    tag_601:\n        /* \"#utility.yul\":27496:27498   */\n      0x20\n        /* \"#utility.yul\":27491:27494   */\n      dup3\n        /* \"#utility.yul\":27487:27499   */\n      add\n        /* \"#utility.yul\":27480:27499   */\n      swap1\n      pop\n        /* \"#utility.yul\":27139:27505   */\n      swap2\n      swap1\n      pop\n      jump\t// out\n        /* \"#utility.yul\":27511:27930   */\n    tag_133:\n        /* \"#utility.yul\":27677:27681   */\n      0x00\n        /* \"#utility.yul\":27715:27717   */\n      0x20\n        /* \"#utility.yul\":27704:27713   */\n      dup3\n        /* \"#utility.yul\":27700:27718   */\n      add\n        /* \"#utility.yul\":27692:27718   */\n      swap1\n      pop\n        /* \"#utility.yul\":27764:27773   */\n      dup2\n        /* \"#utility.yul\":27758:27762   */\n      dup2\n        /* \"#utility.yul\":27754:27774   */\n      sub\n        /* \"#utility.yul\":27750:27751   */\n      0x00\n        /* \"#utility.yul\":27739:27748   */\n      dup4\n        /* \"#utility.yul\":27735:27752   */\n      add\n        /* \"#utility.yul\":27728:27775   */\n      mstore\n        /* \"#utility.yul\":27792:27923   */\n      tag_603\n        /* \"#utility.yul\":27918:27922   */\n      dup2\n        /* \"#utility.yul\":27792:27923   */\n      tag_319\n      jump\t// in\n    tag_603:\n        /* \"#utility.yul\":27784:27923   */\n      swap1\n      pop\n        /* \"#utility.yul\":27511:27930   */\n      swap2\n      swap1\n      pop\n      jump\t// out\n        /* \"#utility.yul\":27936:28098   */\n    tag_320:\n        /* \"#utility.yul\":28076:28090   */\n      0x4f726967656e20766163696f0000000000000000000000000000000000000000\n        /* \"#utility.yul\":28072:28073   */\n      0x00\n        /* \"#utility.yul\":28064:28070   */\n      dup3\n        /* \"#utility.yul\":28060:28074   */\n      add\n        /* \"#utility.yul\":28053:28091   */\n      mstore\n        /* \"#utility.yul\":27936:28098   */\n      pop\n      jump\t// out\n        /* \"#utility.yul\":28104:28470   */\n    tag_321:\n        /* \"#utility.yul\":28246:28249   */\n      0x00\n        /* \"#utility.yul\":28267:28334   */\n      tag_606\n        /* \"#utility.yul\":28331:28333   */\n      0x0c\n        /* \"#utility.yul\":28326:28329   */\n      dup4\n        /* \"#utility.yul\":28267:28334   */\n      tag_293\n      jump\t// in\n    tag_606:\n        /* \"#utility.yul\":28260:28334   */\n      swap2\n      pop\n        /* \"#utility.yul\":28343:28436   */\n      tag_607\n        /* \"#utility.yul\":28432:28435   */\n      dup3\n        /* \"#utility.yul\":28343:28436   */\n      tag_320\n      jump\t// in\n    tag_607:\n        /* \"#utility.yul\":28461:28463   */\n      0x20\n        /* \"#utility.yul\":28456:28459   */\n      dup3\n        /* \"#utility.yul\":28452:28464   */\n      add\n        /* \"#utility.yul\":28445:28464   */\n      swap1\n      pop\n        /* \"#utility.yul\":28104:28470   */\n      swap2\n      swap1\n      pop\n      jump\t// out\n        /* \"#utility.yul\":28476:28895   */\n    tag_136:\n        /* \"#utility.yul\":28642:28646   */\n      0x00\n        /* \"#utility.yul\":28680:28682   */\n      0x20\n        /* \"#utility.yul\":28669:28678   */\n      dup3\n        /* \"#utility.yul\":28665:28683   */\n      add\n        /* \"#utility.yul\":28657:28683   */\n      swap1\n      pop\n        /* \"#utility.yul\":28729:28738   */\n      dup2\n        /* \"#utility.yul\":28723:28727   */\n      dup2\n        /* \"#utility.yul\":28719:28739   */\n      sub\n        /* \"#utility.yul\":28715:28716   */\n      0x00\n        /* \"#utility.yul\":28704:28713   */\n      dup4\n        /* \"#utility.yul\":28700:28717   */\n      add\n        /* \"#utility.yul\":28693:28740   */\n      mstore\n        /* \"#utility.yul\":28757:28888   */\n      tag_609\n        /* \"#utility.yul\":28883:28887   */\n      dup2\n        /* \"#utility.yul\":28757:28888   */\n      tag_321\n      jump\t// in\n    tag_609:\n        /* \"#utility.yul\":28749:28888   */\n      swap1\n      pop\n        /* \"#utility.yul\":28476:28895   */\n      swap2\n      swap1\n      pop\n      jump\t// out\n        /* \"#utility.yul\":28901:29064   */\n    tag_322:\n        /* \"#utility.yul\":29041:29056   */\n      0x44657374696e6f20766163696f00000000000000000000000000000000000000\n        /* \"#utility.yul\":29037:29038   */\n      0x00\n        /* \"#utility.yul\":29029:29035   */\n      dup3\n        /* \"#utility.yul\":29025:29039   */\n      add\n        /* \"#utility.yul\":29018:29057   */\n      mstore\n        /* \"#utility.yul\":28901:29064   */\n      pop\n      jump\t// out\n        /* \"#utility.yul\":29070:29436   */\n    tag_323:\n        /* \"#utility.yul\":29212:29215   */\n      0x00\n        /* \"#utility.yul\":29233:29300   */\n      tag_612\n        /* \"#utility.yul\":29297:29299   */\n      0x0d\n        /* \"#utility.yul\":29292:29295   */\n      dup4\n        /* \"#utility.yul\":29233:29300   */\n      tag_293\n      jump\t// in\n    tag_612:\n        /* \"#utility.yul\":29226:29300   */\n      swap2\n      pop\n        /* \"#utility.yul\":29309:29402   */\n      tag_613\n        /* \"#utility.yul\":29398:29401   */\n      dup3\n        /* \"#utility.yul\":29309:29402   */\n      tag_322\n      jump\t// in\n    tag_613:\n        /* \"#utility.yul\":29427:29429   */\n      0x20\n        /* \"#utility.yul\":29422:29425   */\n      dup3\n        /* \"#utility.yul\":29418:29430   */\n      add\n        /* \"#utility.yul\":29411:29430   */\n      swap1\n      pop\n        /* \"#utility.yul\":29070:29436   */\n      swap2\n      swap1\n      pop\n      jump\t// out\n        /* \"#utility.yul\":29442:29861   */\n    tag_139:\n        /* \"#utility.yul\":29608:29612   */\n      0x00\n        /* \"#utility.yul\":29646:29648   */\n      0x20\n        /* \"#utility.yul\":29635:29644   */\n      dup3\n        /* \"#utility.yul\":29631:29649   */\n      add\n        /* \"#utility.yul\":29623:29649   */\n      swap1\n      pop\n        /* \"#utility.yul\":29695:29704   */\n      dup2\n        /* \"#utility.yul\":29689:29693   */\n      dup2\n        /* \"#utility.yul\":29685:29705   */\n      sub\n        /* \"#utility.yul\":29681:29682   */\n      0x00\n        /* \"#utility.yul\":29670:29679   */\n      dup4\n        /* \"#utility.yul\":29666:29683   */\n      add\n        /* \"#utility.yul\":29659:29706   */\n      mstore\n        /* \"#utility.yul\":29723:29854   */\n      tag_615\n        /* \"#utility.yul\":29849:29853   */\n      dup2\n        /* \"#utility.yul\":29723:29854   */\n      tag_323\n      jump\t// in\n    tag_615:\n        /* \"#utility.yul\":29715:29854   */\n      swap1\n      pop\n        /* \"#utility.yul\":29442:29861   */\n      swap2\n      swap1\n      pop\n      jump\t// out\n        /* \"#utility.yul\":29867:30031   */\n    tag_324:\n        /* \"#utility.yul\":30007:30023   */\n      0x4556544f4c20696e76616c69646f000000000000000000000000000000000000\n        /* \"#utility.yul\":30003:30004   */\n      0x00\n        /* \"#utility.yul\":29995:30001   */\n      dup3\n        /* \"#utility.yul\":29991:30005   */\n      add\n        /* \"#utility.yul\":29984:30024   */\n      mstore\n        /* \"#utility.yul\":29867:30031   */\n      pop\n      jump\t// out\n        /* \"#utility.yul\":30037:30403   */\n    tag_325:\n        /* \"#utility.yul\":30179:30182   */\n      0x00\n        /* \"#utility.yul\":30200:30267   */\n      tag_618\n        /* \"#utility.yul\":30264:30266   */\n      0x0e\n        /* \"#utility.yul\":30259:30262   */\n      dup4\n        /* \"#utility.yul\":30200:30267   */\n      tag_293\n      jump\t// in\n    tag_618:\n        /* \"#utility.yul\":30193:30267   */\n      swap2\n      pop\n        /* \"#utility.yul\":30276:30369   */\n      tag_619\n        /* \"#utility.yul\":30365:30368   */\n      dup3\n        /* \"#utility.yul\":30276:30369   */\n      tag_324\n      jump\t// in\n    tag_619:\n        /* \"#utility.yul\":30394:30396   */\n      0x20\n        /* \"#utility.yul\":30389:30392   */\n      dup3\n        /* \"#utility.yul\":30385:30397   */\n      add\n        /* \"#utility.yul\":30378:30397   */\n      swap1\n      pop\n        /* \"#utility.yul\":30037:30403   */\n      swap2\n      swap1\n      pop\n      jump\t// out\n        /* \"#utility.yul\":30409:30828   */\n    tag_142:\n        /* \"#utility.yul\":30575:30579   */\n      0x00\n        /* \"#utility.yul\":30613:30615   */\n      0x20\n        /* \"#utility.yul\":30602:30611   */\n      dup3\n        /* \"#utility.yul\":30598:30616   */\n      add\n        /* \"#utility.yul\":30590:30616   */\n      swap1\n      pop\n        /* \"#utility.yul\":30662:30671   */\n      dup2\n        /* \"#utility.yul\":30656:30660   */\n      dup2\n        /* \"#utility.yul\":30652:30672   */\n      sub\n        /* \"#utility.yul\":30648:30649   */\n      0x00\n        /* \"#utility.yul\":30637:30646   */\n      dup4\n        /* \"#utility.yul\":30633:30650   */\n      add\n        /* \"#utility.yul\":30626:30673   */\n      mstore\n        /* \"#utility.yul\":30690:30821   */\n      tag_621\n        /* \"#utility.yul\":30816:30820   */\n      dup2\n        /* \"#utility.yul\":30690:30821   */\n      tag_325\n      jump\t// in\n    tag_621:\n        /* \"#utility.yul\":30682:30821   */\n      swap1\n      pop\n        /* \"#utility.yul\":30409:30828   */\n      swap2\n      swap1\n      pop\n      jump\t// out\n        /* \"#utility.yul\":30834:30950   */\n    tag_326:\n        /* \"#utility.yul\":30904:30925   */\n      tag_623\n        /* \"#utility.yul\":30919:30924   */\n      dup2\n        /* \"#utility.yul\":30904:30925   */\n      tag_277\n      jump\t// in\n    tag_623:\n        /* \"#utility.yul\":30897:30902   */\n      dup2\n        /* \"#utility.yul\":30894:30926   */\n      eq\n        /* \"#utility.yul\":30884:30944   */\n      tag_624\n      jumpi\n        /* \"#utility.yul\":30940:30941   */\n      0x00\n        /* \"#utility.yul\":30937:30938   */\n      dup1\n        /* \"#utility.yul\":30930:30942   */\n      revert\n        /* \"#utility.yul\":30884:30944   */\n    tag_624:\n        /* \"#utility.yul\":30834:30950   */\n      pop\n      jump\t// out\n        /* \"#utility.yul\":30956:31093   */\n    tag_327:\n        /* \"#utility.yul\":31010:31015   */\n      0x00\n        /* \"#utility.yul\":31041:31047   */\n      dup2\n        /* \"#utility.yul\":31035:31048   */\n      mload\n        /* \"#utility.yul\":31026:31048   */\n      swap1\n      pop\n        /* \"#utility.yul\":31057:31087   */\n      tag_626\n        /* \"#utility.yul\":31081:31086   */\n      dup2\n        /* \"#utility.yul\":31057:31087   */\n      tag_326\n      jump\t// in\n    tag_626:\n        /* \"#utility.yul\":30956:31093   */\n      swap3\n      swap2\n      pop\n      pop\n      jump\t// out\n        /* \"#utility.yul\":31099:31444   */\n    tag_147:\n        /* \"#utility.yul\":31166:31172   */\n      0x00\n        /* \"#utility.yul\":31215:31217   */\n      0x20\n        /* \"#utility.yul\":31203:31212   */\n      dup3\n        /* \"#utility.yul\":31194:31201   */\n      dup5\n        /* \"#utility.yul\":31190:31213   */\n      sub\n        /* \"#utility.yul\":31186:31218   */\n      slt\n        /* \"#utility.yul\":31183:31302   */\n      iszero\n      tag_628\n      jumpi\n        /* \"#utility.yul\":31221:31300   */\n      tag_629\n      tag_253\n      jump\t// in\n    tag_629:\n        /* \"#utility.yul\":31183:31302   */\n    tag_628:\n        /* \"#utility.yul\":31341:31342   */\n      0x00\n        /* \"#utility.yul\":31366:31427   */\n      tag_630\n        /* \"#utility.yul\":31419:31426   */\n      dup5\n        /* \"#utility.yul\":31410:31416   */\n      dup3\n        /* \"#utility.yul\":31399:31408   */\n      dup6\n        /* \"#utility.yul\":31395:31417   */\n      add\n        /* \"#utility.yul\":31366:31427   */\n      tag_327\n      jump\t// in\n    tag_630:\n        /* \"#utility.yul\":31356:31427   */\n      swap2\n      pop\n        /* \"#utility.yul\":31312:31437   */\n      pop\n        /* \"#utility.yul\":31099:31444   */\n      swap3\n      swap2\n      pop\n      pop\n      jump\t// out\n        /* \"#utility.yul\":31450:31672   */\n    tag_328:\n        /* \"#utility.yul\":31590:31624   */\n      0x5573756172696f206e6f206175746f72697a61646f2070617261207265736572\n        /* \"#utility.yul\":31586:31587   */\n      0x00\n        /* \"#utility.yul\":31578:31584   */\n      dup3\n        /* \"#utility.yul\":31574:31588   */\n      add\n        /* \"#utility.yul\":31567:31625   */\n      mstore\n        /* \"#utility.yul\":31659:31664   */\n      0x7661720000000000000000000000000000000000000000000000000000000000\n        /* \"#utility.yul\":31654:31656   */\n      0x20\n        /* \"#utility.yul\":31646:31652   */\n      dup3\n        /* \"#utility.yul\":31642:31657   */\n      add\n        /* \"#utility.yul\":31635:31665   */\n      mstore\n        /* \"#utility.yul\":31450:31672   */\n      pop\n      jump\t// out\n        /* \"#utility.yul\":31678:32044   */\n    tag_329:\n        /* \"#utility.yul\":31820:31823   */\n      0x00\n        /* \"#utility.yul\":31841:31908   */\n      tag_633\n        /* \"#utility.yul\":31905:31907   */\n      0x23\n        /* \"#utility.yul\":31900:31903   */\n      dup4\n        /* \"#utility.yul\":31841:31908   */\n      tag_293\n      jump\t// in\n    tag_633:\n        /* \"#utility.yul\":31834:31908   */\n      swap2\n      pop\n        /* \"#utility.yul\":31917:32010   */\n      tag_634\n        /* \"#utility.yul\":32006:32009   */\n      dup3\n        /* \"#utility.yul\":31917:32010   */\n      tag_328\n      jump\t// in\n    tag_634:\n        /* \"#utility.yul\":32035:32037   */\n      0x40\n        /* \"#utility.yul\":32030:32033   */\n      dup3\n        /* \"#utility.yul\":32026:32038   */\n      add\n        /* \"#utility.yul\":32019:32038   */\n      swap1\n      pop\n        /* \"#utility.yul\":31678:32044   */\n      swap2\n      swap1\n      pop\n      jump\t// out\n        /* \"#utility.yul\":32050:32469   */\n    tag_150:\n        /* \"#utility.yul\":32216:32220   */\n      0x00\n        /* \"#utility.yul\":32254:32256   */\n      0x20\n        /* \"#utility.yul\":32243:32252   */\n      dup3\n        /* \"#utility.yul\":32239:32257   */\n      add\n        /* \"#utility.yul\":32231:32257   */\n      swap1\n      pop\n        /* \"#utility.yul\":32303:32312   */\n      dup2\n        /* \"#utility.yul\":32297:32301   */\n      dup2\n        /* \"#utility.yul\":32293:32313   */\n      sub\n        /* \"#utility.yul\":32289:32290   */\n      0x00\n        /* \"#utility.yul\":32278:32287   */\n      dup4\n        /* \"#utility.yul\":32274:32291   */\n      add\n        /* \"#utility.yul\":32267:32314   */\n      mstore\n        /* \"#utility.yul\":32331:32462   */\n      tag_636\n        /* \"#utility.yul\":32457:32461   */\n      dup2\n        /* \"#utility.yul\":32331:32462   */\n      tag_329\n      jump\t// in\n    tag_636:\n        /* \"#utility.yul\":32323:32462   */\n      swap1\n      pop\n        /* \"#utility.yul\":32050:32469   */\n      swap2\n      swap1\n      pop\n      jump\t// out\n        /* \"#utility.yul\":32475:32839   */\n    tag_330:\n        /* \"#utility.yul\":32563:32566   */\n      0x00\n        /* \"#utility.yul\":32591:32630   */\n      tag_638\n        /* \"#utility.yul\":32624:32629   */\n      dup3\n        /* \"#utility.yul\":32591:32630   */\n      tag_265\n      jump\t// in\n    tag_638:\n        /* \"#utility.yul\":32646:32717   */\n      tag_639\n        /* \"#utility.yul\":32710:32716   */\n      dup2\n        /* \"#utility.yul\":32705:32708   */\n      dup6\n        /* \"#utility.yul\":32646:32717   */\n      tag_293\n      jump\t// in\n    tag_639:\n        /* \"#utility.yul\":32639:32717   */\n      swap4\n      pop\n        /* \"#utility.yul\":32726:32778   */\n      tag_640\n        /* \"#utility.yul\":32771:32777   */\n      dup2\n        /* \"#utility.yul\":32766:32769   */\n      dup6\n        /* \"#utility.yul\":32759:32763   */\n      0x20\n        /* \"#utility.yul\":32752:32757   */\n      dup7\n        /* \"#utility.yul\":32748:32764   */\n      add\n        /* \"#utility.yul\":32726:32778   */\n      tag_267\n      jump\t// in\n    tag_640:\n        /* \"#utility.yul\":32803:32832   */\n      tag_641\n        /* \"#utility.yul\":32825:32831   */\n      dup2\n        /* \"#utility.yul\":32803:32832   */\n      tag_257\n      jump\t// in\n    tag_641:\n        /* \"#utility.yul\":32798:32801   */\n      dup5\n        /* \"#utility.yul\":32794:32833   */\n      add\n        /* \"#utility.yul\":32787:32833   */\n      swap2\n      pop\n        /* \"#utility.yul\":32567:32839   */\n      pop\n        /* \"#utility.yul\":32475:32839   */\n      swap3\n      swap2\n      pop\n      pop\n      jump\t// out\n        /* \"#utility.yul\":32845:33158   */\n    tag_152:\n        /* \"#utility.yul\":32958:32962   */\n      0x00\n        /* \"#utility.yul\":32996:32998   */\n      0x20\n        /* \"#utility.yul\":32985:32994   */\n      dup3\n        /* \"#utility.yul\":32981:32999   */\n      add\n        /* \"#utility.yul\":32973:32999   */\n      swap1\n      pop\n        /* \"#utility.yul\":33045:33054   */\n      dup2\n        /* \"#utility.yul\":33039:33043   */\n      dup2\n        /* \"#utility.yul\":33035:33055   */\n      sub\n        /* \"#utility.yul\":33031:33032   */\n      0x00\n        /* \"#utility.yul\":33020:33029   */\n      dup4\n        /* \"#utility.yul\":33016:33033   */\n      add\n        /* \"#utility.yul\":33009:33056   */\n      mstore\n        /* \"#utility.yul\":33073:33151   */\n      tag_643\n        /* \"#utility.yul\":33146:33150   */\n      dup2\n        /* \"#utility.yul\":33137:33143   */\n      dup5\n        /* \"#utility.yul\":33073:33151   */\n      tag_330\n      jump\t// in\n    tag_643:\n        /* \"#utility.yul\":33065:33151   */\n      swap1\n      pop\n        /* \"#utility.yul\":32845:33158   */\n      swap3\n      swap2\n      pop\n      pop\n      jump\t// out\n        /* \"#utility.yul\":33164:33384   */\n    tag_331:\n        /* \"#utility.yul\":33304:33338   */\n      0x53696e2063617061636964616420656e207665727469706f7274206f72696765\n        /* \"#utility.yul\":33300:33301   */\n      0x00\n        /* \"#utility.yul\":33292:33298   */\n      dup3\n        /* \"#utility.yul\":33288:33302   */\n      add\n        /* \"#utility.yul\":33281:33339   */\n      mstore\n        /* \"#utility.yul\":33373:33376   */\n      0x6e00000000000000000000000000000000000000000000000000000000000000\n        /* \"#utility.yul\":33368:33370   */\n      0x20\n        /* \"#utility.yul\":33360:33366   */\n      dup3\n        /* \"#utility.yul\":33356:33371   */\n      add\n        /* \"#utility.yul\":33349:33377   */\n      mstore\n        /* \"#utility.yul\":33164:33384   */\n      pop\n      jump\t// out\n        /* \"#utility.yul\":33390:33756   */\n    tag_332:\n        /* \"#utility.yul\":33532:33535   */\n      0x00\n        /* \"#utility.yul\":33553:33620   */\n      tag_646\n        /* \"#utility.yul\":33617:33619   */\n      0x21\n        /* \"#utility.yul\":33612:33615   */\n      dup4\n        /* \"#utility.yul\":33553:33620   */\n      tag_293\n      jump\t// in\n    tag_646:\n        /* \"#utility.yul\":33546:33620   */\n      swap2\n      pop\n        /* \"#utility.yul\":33629:33722   */\n      tag_647\n        /* \"#utility.yul\":33718:33721   */\n      dup3\n        /* \"#utility.yul\":33629:33722   */\n      tag_331\n      jump\t// in\n    tag_647:\n        /* \"#utility.yul\":33747:33749   */\n      0x40\n        /* \"#utility.yul\":33742:33745   */\n      dup3\n        /* \"#utility.yul\":33738:33750   */\n      add\n        /* \"#utility.yul\":33731:33750   */\n      swap1\n      pop\n        /* \"#utility.yul\":33390:33756   */\n      swap2\n      swap1\n      pop\n      jump\t// out\n        /* \"#utility.yul\":33762:34181   */\n    tag_158:\n        /* \"#utility.yul\":33928:33932   */\n      0x00\n        /* \"#utility.yul\":33966:33968   */\n      0x20\n        /* \"#utility.yul\":33955:33964   */\n      dup3\n        /* \"#utility.yul\":33951:33969   */\n      add\n        /* \"#utility.yul\":33943:33969   */\n      swap1\n      pop\n        /* \"#utility.yul\":34015:34024   */\n      dup2\n        /* \"#utility.yul\":34009:34013   */\n      dup2\n        /* \"#utility.yul\":34005:34025   */\n      sub\n        /* \"#utility.yul\":34001:34002   */\n      0x00\n        /* \"#utility.yul\":33990:33999   */\n      dup4\n        /* \"#utility.yul\":33986:34003   */\n      add\n        /* \"#utility.yul\":33979:34026   */\n      mstore\n        /* \"#utility.yul\":34043:34174   */\n      tag_649\n        /* \"#utility.yul\":34169:34173   */\n      dup2\n        /* \"#utility.yul\":34043:34174   */\n      tag_332\n      jump\t// in\n    tag_649:\n        /* \"#utility.yul\":34035:34174   */\n      swap1\n      pop\n        /* \"#utility.yul\":33762:34181   */\n      swap2\n      swap1\n      pop\n      jump\t// out\n        /* \"#utility.yul\":34187:34409   */\n    tag_160:\n        /* \"#utility.yul\":34280:34284   */\n      0x00\n        /* \"#utility.yul\":34318:34320   */\n      0x20\n        /* \"#utility.yul\":34307:34316   */\n      dup3\n        /* \"#utility.yul\":34303:34321   */\n      add\n        /* \"#utility.yul\":34295:34321   */\n      swap1\n      pop\n        /* \"#utility.yul\":34331:34402   */\n      tag_651\n        /* \"#utility.yul\":34399:34400   */\n      0x00\n        /* \"#utility.yul\":34388:34397   */\n      dup4\n        /* \"#utility.yul\":34384:34401   */\n      add\n        /* \"#utility.yul\":34375:34381   */\n      dup5\n        /* \"#utility.yul\":34331:34402   */\n      tag_302\n      jump\t// in\n    tag_651:\n        /* \"#utility.yul\":34187:34409   */\n      swap3\n      swap2\n      pop\n      pop\n      jump\t// out\n        /* \"#utility.yul\":34415:34584   */\n    tag_333:\n        /* \"#utility.yul\":34555:34576   */\n      0x4556544f4c206e6f20646973706f6e69626c6500000000000000000000000000\n        /* \"#utility.yul\":34551:34552   */\n      0x00\n        /* \"#utility.yul\":34543:34549   */\n      dup3\n        /* \"#utility.yul\":34539:34553   */\n      add\n        /* \"#utility.yul\":34532:34577   */\n      mstore\n        /* \"#utility.yul\":34415:34584   */\n      pop\n      jump\t// out\n        /* \"#utility.yul\":34590:34956   */\n    tag_334:\n        /* \"#utility.yul\":34732:34735   */\n      0x00\n        /* \"#utility.yul\":34753:34820   */\n      tag_654\n        /* \"#utility.yul\":34817:34819   */\n      0x13\n        /* \"#utility.yul\":34812:34815   */\n      dup4\n        /* \"#utility.yul\":34753:34820   */\n      tag_293\n      jump\t// in\n    tag_654:\n        /* \"#utility.yul\":34746:34820   */\n      swap2\n      pop\n        /* \"#utility.yul\":34829:34922   */\n      tag_655\n        /* \"#utility.yul\":34918:34921   */\n      dup3\n        /* \"#utility.yul\":34829:34922   */\n      tag_333\n      jump\t// in\n    tag_655:\n        /* \"#utility.yul\":34947:34949   */\n      0x20\n        /* \"#utility.yul\":34942:34945   */\n      dup3\n        /* \"#utility.yul\":34938:34950   */\n      add\n        /* \"#utility.yul\":34931:34950   */\n      swap1\n      pop\n        /* \"#utility.yul\":34590:34956   */\n      swap2\n      swap1\n      pop\n      jump\t// out\n        /* \"#utility.yul\":34962:35381   */\n    tag_166:\n        /* \"#utility.yul\":35128:35132   */\n      0x00\n        /* \"#utility.yul\":35166:35168   */\n      0x20\n        /* \"#utility.yul\":35155:35164   */\n      dup3\n        /* \"#utility.yul\":35151:35169   */\n      add\n        /* \"#utility.yul\":35143:35169   */\n      swap1\n      pop\n        /* \"#utility.yul\":35215:35224   */\n      dup2\n        /* \"#utility.yul\":35209:35213   */\n      dup2\n        /* \"#utility.yul\":35205:35225   */\n      sub\n        /* \"#utility.yul\":35201:35202   */\n      0x00\n        /* \"#utility.yul\":35190:35199   */\n      dup4\n        /* \"#utility.yul\":35186:35203   */\n      add\n        /* \"#utility.yul\":35179:35226   */\n      mstore\n        /* \"#utility.yul\":35243:35374   */\n      tag_657\n        /* \"#utility.yul\":35369:35373   */\n      dup2\n        /* \"#utility.yul\":35243:35374   */\n      tag_334\n      jump\t// in\n    tag_657:\n        /* \"#utility.yul\":35235:35374   */\n      swap1\n      pop\n        /* \"#utility.yul\":34962:35381   */\n      swap2\n      swap1\n      pop\n      jump\t// out\n        /* \"#utility.yul\":35387:35810   */\n    tag_168:\n        /* \"#utility.yul\":35528:35532   */\n      0x00\n        /* \"#utility.yul\":35566:35568   */\n      0x40\n        /* \"#utility.yul\":35555:35564   */\n      dup3\n        /* \"#utility.yul\":35551:35569   */\n      add\n        /* \"#utility.yul\":35543:35569   */\n      swap1\n      pop\n        /* \"#utility.yul\":35579:35650   */\n      tag_659\n        /* \"#utility.yul\":35647:35648   */\n      0x00\n        /* \"#utility.yul\":35636:35645   */\n      dup4\n        /* \"#utility.yul\":35632:35649   */\n      add\n        /* \"#utility.yul\":35623:35629   */\n      dup6\n        /* \"#utility.yul\":35579:35650   */\n      tag_302\n      jump\t// in\n    tag_659:\n        /* \"#utility.yul\":35697:35706   */\n      dup2\n        /* \"#utility.yul\":35691:35695   */\n      dup2\n        /* \"#utility.yul\":35687:35707   */\n      sub\n        /* \"#utility.yul\":35682:35684   */\n      0x20\n        /* \"#utility.yul\":35671:35680   */\n      dup4\n        /* \"#utility.yul\":35667:35685   */\n      add\n        /* \"#utility.yul\":35660:35708   */\n      mstore\n        /* \"#utility.yul\":35725:35803   */\n      tag_660\n        /* \"#utility.yul\":35798:35802   */\n      dup2\n        /* \"#utility.yul\":35789:35795   */\n      dup5\n        /* \"#utility.yul\":35725:35803   */\n      tag_330\n      jump\t// in\n    tag_660:\n        /* \"#utility.yul\":35717:35803   */\n      swap1\n      pop\n        /* \"#utility.yul\":35387:35810   */\n      swap4\n      swap3\n      pop\n      pop\n      pop\n      jump\t// out\n        /* \"#utility.yul\":35816:36440   */\n    tag_181:\n        /* \"#utility.yul\":36005:36009   */\n      0x00\n        /* \"#utility.yul\":36043:36045   */\n      0x60\n        /* \"#utility.yul\":36032:36041   */\n      dup3\n        /* \"#utility.yul\":36028:36046   */\n      add\n        /* \"#utility.yul\":36020:36046   */\n      swap1\n      pop\n        /* \"#utility.yul\":36092:36101   */\n      dup2\n        /* \"#utility.yul\":36086:36090   */\n      dup2\n        /* \"#utility.yul\":36082:36102   */\n      sub\n        /* \"#utility.yul\":36078:36079   */\n      0x00\n        /* \"#utility.yul\":36067:36076   */\n      dup4\n        /* \"#utility.yul\":36063:36080   */\n      add\n        /* \"#utility.yul\":36056:36103   */\n      mstore\n        /* \"#utility.yul\":36120:36198   */\n      tag_662\n        /* \"#utility.yul\":36193:36197   */\n      dup2\n        /* \"#utility.yul\":36184:36190   */\n      dup7\n        /* \"#utility.yul\":36120:36198   */\n      tag_330\n      jump\t// in\n    tag_662:\n        /* \"#utility.yul\":36112:36198   */\n      swap1\n      pop\n        /* \"#utility.yul\":36245:36254   */\n      dup2\n        /* \"#utility.yul\":36239:36243   */\n      dup2\n        /* \"#utility.yul\":36235:36255   */\n      sub\n        /* \"#utility.yul\":36230:36232   */\n      0x20\n        /* \"#utility.yul\":36219:36228   */\n      dup4\n        /* \"#utility.yul\":36215:36233   */\n      add\n        /* \"#utility.yul\":36208:36256   */\n      mstore\n        /* \"#utility.yul\":36273:36351   */\n      tag_663\n        /* \"#utility.yul\":36346:36350   */\n      dup2\n        /* \"#utility.yul\":36337:36343   */\n      dup6\n        /* \"#utility.yul\":36273:36351   */\n      tag_330\n      jump\t// in\n    tag_663:\n        /* \"#utility.yul\":36265:36351   */\n      swap1\n      pop\n        /* \"#utility.yul\":36361:36433   */\n      tag_664\n        /* \"#utility.yul\":36429:36431   */\n      0x40\n        /* \"#utility.yul\":36418:36427   */\n      dup4\n        /* \"#utility.yul\":36414:36432   */\n      add\n        /* \"#utility.yul\":36405:36411   */\n      dup5\n        /* \"#utility.yul\":36361:36433   */\n      tag_302\n      jump\t// in\n    tag_664:\n        /* \"#utility.yul\":35816:36440   */\n      swap5\n      swap4\n      pop\n      pop\n      pop\n      pop\n      jump\t// out\n        /* \"#utility.yul\":36446:36668   */\n    tag_335:\n        /* \"#utility.yul\":36586:36620   */\n      0x4e6f2073652070756564652063616e63656c617220656e206573746520657374\n        /* \"#utility.yul\":36582:36583   */\n      0x00\n        /* \"#utility.yul\":36574:36580   */\n      dup3\n        /* \"#utility.yul\":36570:36584   */\n      add\n        /* \"#utility.yul\":36563:36621   */\n      mstore\n        /* \"#utility.yul\":36655:36660   */\n      0x61646f0000000000000000000000000000000000000000000000000000000000\n        /* \"#utility.yul\":36650:36652   */\n      0x20\n        /* \"#utility.yul\":36642:36648   */\n      dup3\n        /* \"#utility.yul\":36638:36653   */\n      add\n        /* \"#utility.yul\":36631:36661   */\n      mstore\n        /* \"#utility.yul\":36446:36668   */\n      pop\n      jump\t// out\n        /* \"#utility.yul\":36674:37040   */\n    tag_336:\n        /* \"#utility.yul\":36816:36819   */\n      0x00\n        /* \"#utility.yul\":36837:36904   */\n      tag_667\n        /* \"#utility.yul\":36901:36903   */\n      0x23\n        /* \"#utility.yul\":36896:36899   */\n      dup4\n        /* \"#utility.yul\":36837:36904   */\n      tag_293\n      jump\t// in\n    tag_667:\n        /* \"#utility.yul\":36830:36904   */\n      swap2\n      pop\n        /* \"#utility.yul\":36913:37006   */\n      tag_668\n        /* \"#utility.yul\":37002:37005   */\n      dup3\n        /* \"#utility.yul\":36913:37006   */\n      tag_335\n      jump\t// in\n    tag_668:\n        /* \"#utility.yul\":37031:37033   */\n      0x40\n        /* \"#utility.yul\":37026:37029   */\n      dup3\n        /* \"#utility.yul\":37022:37034   */\n      add\n        /* \"#utility.yul\":37015:37034   */\n      swap1\n      pop\n        /* \"#utility.yul\":36674:37040   */\n      swap2\n      swap1\n      pop\n      jump\t// out\n        /* \"#utility.yul\":37046:37465   */\n    tag_227:\n        /* \"#utility.yul\":37212:37216   */\n      0x00\n        /* \"#utility.yul\":37250:37252   */\n      0x20\n        /* \"#utility.yul\":37239:37248   */\n      dup3\n        /* \"#utility.yul\":37235:37253   */\n      add\n        /* \"#utility.yul\":37227:37253   */\n      swap1\n      pop\n        /* \"#utility.yul\":37299:37308   */\n      dup2\n        /* \"#utility.yul\":37293:37297   */\n      dup2\n        /* \"#utility.yul\":37289:37309   */\n      sub\n        /* \"#utility.yul\":37285:37286   */\n      0x00\n        /* \"#utility.yul\":37274:37283   */\n      dup4\n        /* \"#utility.yul\":37270:37287   */\n      add\n        /* \"#utility.yul\":37263:37310   */\n      mstore\n        /* \"#utility.yul\":37327:37458   */\n      tag_670\n        /* \"#utility.yul\":37453:37457   */\n      dup2\n        /* \"#utility.yul\":37327:37458   */\n      tag_336\n      jump\t// in\n    tag_670:\n        /* \"#utility.yul\":37319:37458   */\n      swap1\n      pop\n        /* \"#utility.yul\":37046:37465   */\n      swap2\n      swap1\n      pop\n      jump\t// out\n\n    auxdata: 0xa2646970667358221220955e2c9c94c71710285ddddb8b635ae7bc6ef8abd6dc8efa56e3cb89e502e92464736f6c634300080a0033\n}\n",
    "bytecode": {
      "linkReferences": {},
      "object": "60806040523480156200001157600080fd5b5060405162002fd338038062002fd3833981810160405281019062000037919062000306565b600073ffffffffffffffffffffffffffffffffffffffff168373ffffffffffffffffffffffffffffffffffffffff161415620000aa576040517f08c379a0000000000000000000000000000000000000000000000000000000008152600401620000a190620003c3565b60405180910390fd5b600073ffffffffffffffffffffffffffffffffffffffff168273ffffffffffffffffffffffffffffffffffffffff1614156200011d576040517f08c379a0000000000000000000000000000000000000000000000000000000008152600401620001149062000435565b60405180910390fd5b600073ffffffffffffffffffffffffffffffffffffffff168173ffffffffffffffffffffffffffffffffffffffff16141562000190576040517f08c379a00000000000000000000000000000000000000000000000000000000081526004016200018790620004a7565b60405180910390fd5b33600360006101000a81548173ffffffffffffffffffffffffffffffffffffffff021916908373ffffffffffffffffffffffffffffffffffffffff160217905550826000806101000a81548173ffffffffffffffffffffffffffffffffffffffff021916908373ffffffffffffffffffffffffffffffffffffffff16021790555081600160006101000a81548173ffffffffffffffffffffffffffffffffffffffff021916908373ffffffffffffffffffffffffffffffffffffffff16021790555080600260006101000a81548173ffffffffffffffffffffffffffffffffffffffff021916908373ffffffffffffffffffffffffffffffffffffffff160217905550505050620004c9565b600080fd5b600073ffffffffffffffffffffffffffffffffffffffff82169050919050565b6000620002ce82620002a1565b9050919050565b620002e081620002c1565b8114620002ec57600080fd5b50565b6000815190506200030081620002d5565b92915050565b6000806000606084860312156200032257620003216200029c565b5b60006200033286828701620002ef565b93505060206200034586828701620002ef565b92505060406200035886828701620002ef565b9150509250925092565b600082825260208201905092915050565b7f55736572566572696669636174696f6e20696e76616c69646f00000000000000600082015250565b6000620003ab60198362000362565b9150620003b88262000373565b602082019050919050565b60006020820190508181036000830152620003de816200039c565b9050919050565b7f5665727469706f72744d616e6167656d656e7420696e76616c69646f00000000600082015250565b60006200041d601c8362000362565b91506200042a82620003e5565b602082019050919050565b6000602082019050818103600083015262000450816200040e565b9050919050565b7f4556544f4c4d616e6167656d656e7420696e76616c69646f0000000000000000600082015250565b60006200048f60188362000362565b91506200049c8262000457565b602082019050919050565b60006020820190508181036000830152620004c28162000480565b9050919050565b612afa80620004d96000396000f3fe608060405234801561001057600080fd5b506004361061009e5760003560e01c8063ae981ab711610066578063ae981ab714610147578063cd17bdc014610163578063dfd904481461017f578063f851a4401461019b578063fecc1f8a146101b95761009e565b80630b125c11146100a357806355d96b51146100c15780635f6c5cfc146100df578063704b6c021461010f5780637b56724a1461012b575b600080fd5b6100ab6101d7565b6040516100b891906118c9565b60405180910390f35b6100c96101fb565b6040516100d69190611905565b60405180910390f35b6100f960048036038101906100f49190611a7a565b610221565b6040516101069190611cd5565b60405180910390f35b61012960048036038101906101249190611d23565b61051a565b005b61014560048036038101906101409190611df1565b61065e565b005b610161600480360381019061015c9190611e95565b6109cf565b005b61017d60048036038101906101789190611df1565b61113c565b005b61019960048036038101906101949190611a7a565b611489565b005b6101a36116ec565b6040516101b09190612002565b60405180910390f35b6101c1611712565b6040516101ce919061203e565b60405180910390f35b60008054906101000a900473ffffffffffffffffffffffffffffffffffffffff1681565b600260009054906101000a900473ffffffffffffffffffffffffffffffffffffffff1681565b610229611738565b600060048360405161023b9190612095565b908152602001604051809103902060405180610100016040529081600082018054610265906120db565b80601f0160208091040260200160405190810160405280929190818152602001828054610291906120db565b80156102de5780601f106102b3576101008083540402835291602001916102de565b820191906000526020600020905b8154815290600101906020018083116102c157829003601f168201915b505050505081526020016001820160009054906101000a900473ffffffffffffffffffffffffffffffffffffffff1673ffffffffffffffffffffffffffffffffffffffff1673ffffffffffffffffffffffffffffffffffffffff16815260200160028201805461034d906120db565b80601f0160208091040260200160405190810160405280929190818152602001828054610379906120db565b80156103c65780601f1061039b576101008083540402835291602001916103c6565b820191906000526020600020905b8154815290600101906020018083116103a957829003601f168201915b505050505081526020016003820180546103df906120db565b80601f016020809104026020016040519081016040528092919081815260200182805461040b906120db565b80156104585780601f1061042d57610100808354040283529160200191610458565b820191906000526020600020905b81548152906001019060200180831161043b57829003601f168201915b50505050508152602001600482015481526020016005820160009054906101000a900460ff1660048111156104905761048f611b85565b5b60048111156104a2576104a1611b85565b5b8152602001600682015481526020016007820160009054906101000a900460ff16151515158152505090508060e00151610511576040517f08c379a00000000000000000000000000000000000000000000000000000000081526004016105089061216a565b60405180910390fd5b80915050919050565b600360009054906101000a900473ffffffffffffffffffffffffffffffffffffffff1673ffffffffffffffffffffffffffffffffffffffff163373ffffffffffffffffffffffffffffffffffffffff16146105aa576040517f08c379a00000000000000000000000000000000000000000000000000000000081526004016105a1906121d6565b60405180910390fd5b600073ffffffffffffffffffffffffffffffffffffffff168173ffffffffffffffffffffffffffffffffffffffff16141561061a576040517f08c379a000000000000000000000000000000000000000000000000000000000815260040161061190612242565b60405180910390fd5b80600360006101000a81548173ffffffffffffffffffffffffffffffffffffffff021916908373ffffffffffffffffffffffffffffffffffffffff16021790555050565b600360009054906101000a900473ffffffffffffffffffffffffffffffffffffffff1673ffffffffffffffffffffffffffffffffffffffff163373ffffffffffffffffffffffffffffffffffffffff16146106ee576040517f08c379a00000000000000000000000000000000000000000000000000000000081526004016106e5906121d6565b60405180910390fd5b60006004836040516107009190612095565b908152602001604051809103902090508060070160009054906101000a900460ff16610761576040517f08c379a00000000000000000000000000000000000000000000000000000000081526004016107589061216a565b60405180910390fd5b6002600481111561077557610774611b85565b5b8160050160009054906101000a900460ff16600481111561079957610798611b85565b5b146107d9576040517f08c379a00000000000000000000000000000000000000000000000000000000081526004016107d0906122ae565b60405180910390fd5b600260009054906101000a900473ffffffffffffffffffffffffffffffffffffffff1673ffffffffffffffffffffffffffffffffffffffff16639283e0478260040154836003016040518363ffffffff1660e01b815260040161083d929190612372565b600060405180830381600087803b15801561085757600080fd5b505af115801561086b573d6000803e3d6000fd5b50505050600160009054906101000a900473ffffffffffffffffffffffffffffffffffffffff1673ffffffffffffffffffffffffffffffffffffffff1663cf0803e9826003018460007fffffffffffffffffffffffffffffffffffffffffffffffffffffffffffffffff6040518563ffffffff1660e01b81526004016108f4949392919061244b565b600060405180830381600087803b15801561090e57600080fd5b505af1158015610922573d6000803e3d6000fd5b5050505060008160050160009054906101000a900460ff16905060038260050160006101000a81548160ff0219169083600481111561096457610963611b85565b5b0217905550836040516109779190612095565b60405180910390207f9d90b27494f938a087a90248834b48353bb9436a76e90f1f37fcb8d3ae5dbd20828460050160009054906101000a900460ff166040516109c19291906124ad565b60405180910390a250505050565b600360009054906101000a900473ffffffffffffffffffffffffffffffffffffffff1673ffffffffffffffffffffffffffffffffffffffff163373ffffffffffffffffffffffffffffffffffffffff1614610a5f576040517f08c379a0000000000000000000000000000000000000000000000000000000008152600401610a56906121d6565b60405180910390fd5b6000885111610aa3576040517f08c379a0000000000000000000000000000000000000000000000000000000008152600401610a9a90612522565b60405180910390fd5b600488604051610ab39190612095565b908152602001604051809103902060070160009054906101000a900460ff1615610b12576040517f08c379a0000000000000000000000000000000000000000000000000000000008152600401610b099061258e565b60405180910390fd5b600073ffffffffffffffffffffffffffffffffffffffff168773ffffffffffffffffffffffffffffffffffffffff161415610b82576040517f08c379a0000000000000000000000000000000000000000000000000000000008152600401610b79906125fa565b60405180910390fd5b6000865111610bc6576040517f08c379a0000000000000000000000000000000000000000000000000000000008152600401610bbd90612666565b60405180910390fd5b6000855111610c0a576040517f08c379a0000000000000000000000000000000000000000000000000000000008152600401610c01906126d2565b60405180910390fd5b6000841415610c4e576040517f08c379a0000000000000000000000000000000000000000000000000000000008152600401610c459061273e565b60405180910390fd5b60008054906101000a900473ffffffffffffffffffffffffffffffffffffffff1673ffffffffffffffffffffffffffffffffffffffff166373984517886040518263ffffffff1660e01b8152600401610ca79190612002565b602060405180830381865afa158015610cc4573d6000803e3d6000fd5b505050506040513d601f19601f82011682018060405250810190610ce8919061278a565b610d27576040517f08c379a0000000000000000000000000000000000000000000000000000000008152600401610d1e90612829565b60405180910390fd5b600160009054906101000a900473ffffffffffffffffffffffffffffffffffffffff1673ffffffffffffffffffffffffffffffffffffffff166304dde7b1876040518263ffffffff1660e01b8152600401610d829190612882565b602060405180830381865afa158015610d9f573d6000803e3d6000fd5b505050506040513d601f19601f82011682018060405250810190610dc3919061278a565b610e02576040517f08c379a0000000000000000000000000000000000000000000000000000000008152600401610df990612916565b60405180910390fd5b600260009054906101000a900473ffffffffffffffffffffffffffffffffffffffff1673ffffffffffffffffffffffffffffffffffffffff16633a178d99856040518263ffffffff1660e01b8152600401610e5d9190612936565b602060405180830381865afa158015610e7a573d6000803e3d6000fd5b505050506040513d601f19601f82011682018060405250810190610e9e919061278a565b610edd576040517f08c379a0000000000000000000000000000000000000000000000000000000008152600401610ed49061299d565b60405180910390fd5b600260009054906101000a900473ffffffffffffffffffffffffffffffffffffffff1673ffffffffffffffffffffffffffffffffffffffff1663864980de858a6040518363ffffffff1660e01b8152600401610f3a9291906129bd565b600060405180830381600087803b158015610f5457600080fd5b505af1158015610f68573d6000803e3d6000fd5b505050506000600489604051610f7e9190612095565b9081526020016040518091039020905088816000019080519060200190610fa69291906117a7565b50878160010160006101000a81548173ffffffffffffffffffffffffffffffffffffffff021916908373ffffffffffffffffffffffffffffffffffffffff160217905550868160020190805190602001906110029291906117a7565b508581600301908051906020019061101b9291906117a7565b5084816004018190555060018160050160006101000a81548160ff0219169083600481111561104d5761104c611b85565b5b021790555042816006018190555060018160070160006101000a81548160ff0219169083151502179055508773ffffffffffffffffffffffffffffffffffffffff168960405161109d9190612095565b60405180910390207f016b16e7cc38488f7360a97fa5cf95ef7503b5cbda614ace6942520a53ad18468989896040516110d8939291906129ed565b60405180910390a3886040516110ee9190612095565b60405180910390207f9d90b27494f938a087a90248834b48353bb9436a76e90f1f37fcb8d3ae5dbd20600060016040516111299291906124ad565b60405180910390a2505050505050505050565b600360009054906101000a900473ffffffffffffffffffffffffffffffffffffffff1673ffffffffffffffffffffffffffffffffffffffff163373ffffffffffffffffffffffffffffffffffffffff16146111cc576040517f08c379a00000000000000000000000000000000000000000000000000000000081526004016111c3906121d6565b60405180910390fd5b60006004836040516111de9190612095565b908152602001604051809103902090508060070160009054906101000a900460ff1661123f576040517f08c379a00000000000000000000000000000000000000000000000000000000081526004016112369061216a565b60405180910390fd5b6001600481111561125357611252611b85565b5b8160050160009054906101000a900460ff16600481111561127757611276611b85565b5b146112b7576040517f08c379a00000000000000000000000000000000000000000000000000000000081526004016112ae906122ae565b60405180910390fd5b600260009054906101000a900473ffffffffffffffffffffffffffffffffffffffff1673ffffffffffffffffffffffffffffffffffffffff16633dde315e82600401546040518263ffffffff1660e01b81526004016113169190612936565b600060405180830381600087803b15801561133057600080fd5b505af1158015611344573d6000803e3d6000fd5b50505050600160009054906101000a900473ffffffffffffffffffffffffffffffffffffffff1673ffffffffffffffffffffffffffffffffffffffff1663cf0803e98260020184600060016040518563ffffffff1660e01b81526004016113ae949392919061244b565b600060405180830381600087803b1580156113c857600080fd5b505af11580156113dc573d6000803e3d6000fd5b5050505060008160050160009054906101000a900460ff16905060028260050160006101000a81548160ff0219169083600481111561141e5761141d611b85565b5b0217905550836040516114319190612095565b60405180910390207f9d90b27494f938a087a90248834b48353bb9436a76e90f1f37fcb8d3ae5dbd20828460050160009054906101000a900460ff1660405161147b9291906124ad565b60405180910390a250505050565b600360009054906101000a900473ffffffffffffffffffffffffffffffffffffffff1673ffffffffffffffffffffffffffffffffffffffff163373ffffffffffffffffffffffffffffffffffffffff1614611519576040517f08c379a0000000000000000000000000000000000000000000000000000000008152600401611510906121d6565b60405180910390fd5b600060048260405161152b9190612095565b908152602001604051809103902090508060070160009054906101000a900460ff1661158c576040517f08c379a00000000000000000000000000000000000000000000000000000000081526004016115839061216a565b60405180910390fd5b600160048111156115a05761159f611b85565b5b8160050160009054906101000a900460ff1660048111156115c4576115c3611b85565b5b14806116055750600060048111156115df576115de611b85565b5b8160050160009054906101000a900460ff16600481111561160357611602611b85565b5b145b611644576040517f08c379a000000000000000000000000000000000000000000000000000000000815260040161163b90612aa4565b60405180910390fd5b60008160050160009054906101000a900460ff16905060048260050160006101000a81548160ff0219169083600481111561168257611681611b85565b5b0217905550826040516116959190612095565b60405180910390207f9d90b27494f938a087a90248834b48353bb9436a76e90f1f37fcb8d3ae5dbd20828460050160009054906101000a900460ff166040516116df9291906124ad565b60405180910390a2505050565b600360009054906101000a900473ffffffffffffffffffffffffffffffffffffffff1681565b600160009054906101000a900473ffffffffffffffffffffffffffffffffffffffff1681565b60405180610100016040528060608152602001600073ffffffffffffffffffffffffffffffffffffffff1681526020016060815260200160608152602001600081526020016000600481111561179157611790611b85565b5b8152602001600081526020016000151581525090565b8280546117b3906120db565b90600052602060002090601f0160209004810192826117d5576000855561181c565b82601f106117ee57805160ff191683800117855561181c565b8280016001018555821561181c579182015b8281111561181b578251825591602001919060010190611800565b5b509050611829919061182d565b5090565b5b8082111561184657600081600090555060010161182e565b5090565b600073ffffffffffffffffffffffffffffffffffffffff82169050919050565b6000819050919050565b600061188f61188a6118858461184a565b61186a565b61184a565b9050919050565b60006118a182611874565b9050919050565b60006118b382611896565b9050919050565b6118c3816118a8565b82525050565b60006020820190506118de60008301846118ba565b92915050565b60006118ef82611896565b9050919050565b6118ff816118e4565b82525050565b600060208201905061191a60008301846118f6565b92915050565b6000604051905090565b600080fd5b600080fd5b600080fd5b600080fd5b6000601f19601f8301169050919050565b7f4e487b7100000000000000000000000000000000000000000000000000000000600052604160045260246000fd5b6119878261193e565b810181811067ffffffffffffffff821117156119a6576119a561194f565b5b80604052505050565b60006119b9611920565b90506119c5828261197e565b919050565b600067ffffffffffffffff8211156119e5576119e461194f565b5b6119ee8261193e565b9050602081019050919050565b82818337600083830152505050565b6000611a1d611a18846119ca565b6119af565b905082815260208101848484011115611a3957611a38611939565b5b611a448482856119fb565b509392505050565b600082601f830112611a6157611a60611934565b5b8135611a71848260208601611a0a565b91505092915050565b600060208284031215611a9057611a8f61192a565b5b600082013567ffffffffffffffff811115611aae57611aad61192f565b5b611aba84828501611a4c565b91505092915050565b600081519050919050565b600082825260208201905092915050565b60005b83811015611afd578082015181840152602081019050611ae2565b83811115611b0c576000848401525b50505050565b6000611b1d82611ac3565b611b278185611ace565b9350611b37818560208601611adf565b611b408161193e565b840191505092915050565b6000611b568261184a565b9050919050565b611b6681611b4b565b82525050565b6000819050919050565b611b7f81611b6c565b82525050565b7f4e487b7100000000000000000000000000000000000000000000000000000000600052602160045260246000fd5b60058110611bc557611bc4611b85565b5b50565b6000819050611bd682611bb4565b919050565b6000611be682611bc8565b9050919050565b611bf681611bdb565b82525050565b60008115159050919050565b611c1181611bfc565b82525050565b6000610100830160008301518482036000860152611c358282611b12565b9150506020830151611c4a6020860182611b5d565b5060408301518482036040860152611c628282611b12565b91505060608301518482036060860152611c7c8282611b12565b9150506080830151611c916080860182611b76565b5060a0830151611ca460a0860182611bed565b5060c0830151611cb760c0860182611b76565b5060e0830151611cca60e0860182611c08565b508091505092915050565b60006020820190508181036000830152611cef8184611c17565b905092915050565b611d0081611b4b565b8114611d0b57600080fd5b50565b600081359050611d1d81611cf7565b92915050565b600060208284031215611d3957611d3861192a565b5b6000611d4784828501611d0e565b91505092915050565b600067ffffffffffffffff821115611d6b57611d6a61194f565b5b611d748261193e565b9050602081019050919050565b6000611d94611d8f84611d50565b6119af565b905082815260208101848484011115611db057611daf611939565b5b611dbb8482856119fb565b509392505050565b600082601f830112611dd857611dd7611934565b5b8135611de8848260208601611d81565b91505092915050565b60008060408385031215611e0857611e0761192a565b5b600083013567ffffffffffffffff811115611e2657611e2561192f565b5b611e3285828601611a4c565b925050602083013567ffffffffffffffff811115611e5357611e5261192f565b5b611e5f85828601611dc3565b9150509250929050565b611e7281611b6c565b8114611e7d57600080fd5b50565b600081359050611e8f81611e69565b92915050565b600080600080600080600080610100898b031215611eb657611eb561192a565b5b600089013567ffffffffffffffff811115611ed457611ed361192f565b5b611ee08b828c01611a4c565b9850506020611ef18b828c01611d0e565b975050604089013567ffffffffffffffff811115611f1257611f1161192f565b5b611f1e8b828c01611a4c565b965050606089013567ffffffffffffffff811115611f3f57611f3e61192f565b5b611f4b8b828c01611a4c565b9550506080611f5c8b828c01611e80565b94505060a089013567ffffffffffffffff811115611f7d57611f7c61192f565b5b611f898b828c01611dc3565b93505060c089013567ffffffffffffffff811115611faa57611fa961192f565b5b611fb68b828c01611dc3565b92505060e089013567ffffffffffffffff811115611fd757611fd661192f565b5b611fe38b828c01611dc3565b9150509295985092959890939650565b611ffc81611b4b565b82525050565b60006020820190506120176000830184611ff3565b92915050565b600061202882611896565b9050919050565b6120388161201d565b82525050565b6000602082019050612053600083018461202f565b92915050565b600081905092915050565b600061206f82611ac3565b6120798185612059565b9350612089818560208601611adf565b80840191505092915050565b60006120a18284612064565b915081905092915050565b7f4e487b7100000000000000000000000000000000000000000000000000000000600052602260045260246000fd5b600060028204905060018216806120f357607f821691505b60208210811415612107576121066120ac565b5b50919050565b600082825260208201905092915050565b7f54726970206e6f20656e636f6e74726164610000000000000000000000000000600082015250565b600061215460128361210d565b915061215f8261211e565b602082019050919050565b6000602082019050818103600083015261218381612147565b9050919050565b7f4e6f206175746f72697a61646f3a20736f6c6f2061646d696e00000000000000600082015250565b60006121c060198361210d565b91506121cb8261218a565b602082019050919050565b600060208201905081810360008301526121ef816121b3565b9050919050565b7f41646d696e20696e76616c69646f000000000000000000000000000000000000600082015250565b600061222c600e8361210d565b9150612237826121f6565b602082019050919050565b6000602082019050818103600083015261225b8161221f565b9050919050565b7f45737461646f206465207472697020696e76616c69646f000000000000000000600082015250565b600061229860178361210d565b91506122a382612262565b602082019050919050565b600060208201905081810360008301526122c78161228b565b9050919050565b6122d781611b6c565b82525050565b60008190508160005260206000209050919050565b600081546122ff816120db565b612309818661210d565b94506001821660008114612324576001811461233657612369565b60ff1983168652602086019350612369565b61233f856122dd565b60005b8381101561236157815481890152600182019150602081019050612342565b808801955050505b50505092915050565b600060408201905061238760008301856122ce565b818103602083015261239981846122f2565b90509392505050565b600081519050919050565b600082825260208201905092915050565b60006123c9826123a2565b6123d381856123ad565b93506123e3818560208601611adf565b6123ec8161193e565b840191505092915050565b6000819050919050565b6000819050919050565b600061242661242161241c846123f7565b61186a565b612401565b9050919050565b6124368161240b565b82525050565b61244581612401565b82525050565b6000608082019050818103600083015261246581876122f2565b9050818103602083015261247981866123be565b9050612488604083018561242d565b612495606083018461243c565b95945050505050565b6124a781611bdb565b82525050565b60006040820190506124c2600083018561249e565b6124cf602083018461249e565b9392505050565b7f74726970496420766163696f0000000000000000000000000000000000000000600082015250565b600061250c600c8361210d565b9150612517826124d6565b602082019050919050565b6000602082019050818103600083015261253b816124ff565b9050919050565b7f5472697020796120657869737465000000000000000000000000000000000000600082015250565b6000612578600e8361210d565b915061258382612542565b602082019050919050565b600060208201905081810360008301526125a78161256b565b9050919050565b7f526964657220696e76616c69646f000000000000000000000000000000000000600082015250565b60006125e4600e8361210d565b91506125ef826125ae565b602082019050919050565b60006020820190508181036000830152612613816125d7565b9050919050565b7f4f726967656e20766163696f0000000000000000000000000000000000000000600082015250565b6000612650600c8361210d565b915061265b8261261a565b602082019050919050565b6000602082019050818103600083015261267f81612643565b9050919050565b7f44657374696e6f20766163696f00000000000000000000000000000000000000600082015250565b60006126bc600d8361210d565b91506126c782612686565b602082019050919050565b600060208201905081810360008301526126eb816126af565b9050919050565b7f4556544f4c20696e76616c69646f000000000000000000000000000000000000600082015250565b6000612728600e8361210d565b9150612733826126f2565b602082019050919050565b600060208201905081810360008301526127578161271b565b9050919050565b61276781611bfc565b811461277257600080fd5b50565b6000815190506127848161275e565b92915050565b6000602082840312156127a05761279f61192a565b5b60006127ae84828501612775565b91505092915050565b7f5573756172696f206e6f206175746f72697a61646f207061726120726573657260008201527f7661720000000000000000000000000000000000000000000000000000000000602082015250565b600061281360238361210d565b915061281e826127b7565b604082019050919050565b6000602082019050818103600083015261284281612806565b9050919050565b600061285482611ac3565b61285e818561210d565b935061286e818560208601611adf565b6128778161193e565b840191505092915050565b6000602082019050818103600083015261289c8184612849565b905092915050565b7f53696e2063617061636964616420656e207665727469706f7274206f7269676560008201527f6e00000000000000000000000000000000000000000000000000000000000000602082015250565b600061290060218361210d565b915061290b826128a4565b604082019050919050565b6000602082019050818103600083015261292f816128f3565b9050919050565b600060208201905061294b60008301846122ce565b92915050565b7f4556544f4c206e6f20646973706f6e69626c6500000000000000000000000000600082015250565b600061298760138361210d565b915061299282612951565b602082019050919050565b600060208201905081810360008301526129b68161297a565b9050919050565b60006040820190506129d260008301856122ce565b81810360208301526129e48184612849565b90509392505050565b60006060820190508181036000830152612a078186612849565b90508181036020830152612a1b8185612849565b9050612a2a60408301846122ce565b949350505050565b7f4e6f2073652070756564652063616e63656c617220656e20657374652065737460008201527f61646f0000000000000000000000000000000000000000000000000000000000602082015250565b6000612a8e60238361210d565b9150612a9982612a32565b604082019050919050565b60006020820190508181036000830152612abd81612a81565b905091905056fea2646970667358221220955e2c9c94c71710285ddddb8b635ae7bc6ef8abd6dc8efa56e3cb89e502e92464736f6c634300080a0033",
      "opcodes": "PUSH1 0x80 PUSH1 0x40 MSTORE CALLVALUE DUP1 ISZERO PUSH3 0x11 JUMPI PUSH1 0x0 DUP1 REVERT JUMPDEST POP PUSH1 0x40 MLOAD PUSH3 0x2FD3 CODESIZE SUB DUP1 PUSH3 0x2FD3 DUP4 CODECOPY DUP2 DUP2 ADD PUSH1 0x40 MSTORE DUP2 ADD SWAP1 PUSH3 0x37 SWAP2 SWAP1 PUSH3 0x306 JUMP JUMPDEST PUSH1 0x0 PUSH20 0xFFFFFFFFFFFFFFFFFFFFFFFFFFFFFFFFFFFFFFFF AND DUP4 PUSH20 0xFFFFFFFFFFFFFFFFFFFFFFFFFFFFFFFFFFFFFFFF AND EQ ISZERO PUSH3 0xAA JUMPI PUSH1 0x40 MLOAD PUSH32 0x8C379A000000000000000000000000000000000000000000000000000000000 DUP2 MSTORE PUSH1 0x4 ADD PUSH3 0xA1 SWAP1 PUSH3 0x3C3 JUMP JUMPDEST PUSH1 0x40 MLOAD DUP1 SWAP2 SUB SWAP1 REVERT JUMPDEST PUSH1 0x0 PUSH20 0xFFFFFFFFFFFFFFFFFFFFFFFFFFFFFFFFFFFFFFFF AND DUP3 PUSH20 0xFFFFFFFFFFFFFFFFFFFFFFFFFFFFFFFFFFFFFFFF AND EQ ISZERO PUSH3 0x11D JUMPI PUSH1 0x40 MLOAD PUSH32 0x8C379A000000000000000000000000000000000000000000000000000000000 DUP2 MSTORE PUSH1 0x4 ADD PUSH3 0x114 SWAP1 PUSH3 0x435 JUMP JUMPDEST PUSH1 0x40 MLOAD DUP1 SWAP2 SUB SWAP1 REVERT JUMPDEST PUSH1 0x0 PUSH20 0xFFFFFFFFFFFFFFFFFFFFFFFFFFFFFFFFFFFFFFFF AND DUP2 PUSH20 0xFFFFFFFFFFFFFFFFFFFFFFFFFFFFFFFFFFFFFFFF AND EQ ISZERO PUSH3 0x190 JUMPI PUSH1 0x40 MLOAD PUSH32 0x8C379A000000000000000000000000000000000000000000000000000000000 DUP2 MSTORE PUSH1 0x4 ADD PUSH3 0x187 SWAP1 PUSH3 0x4A7 JUMP JUMPDEST PUSH1 0x40 MLOAD DUP1 SWAP2 SUB SWAP1 REVERT JUMPDEST CALLER PUSH1 0x3 PUSH1 0x0 PUSH2 0x100 EXP DUP2 SLOAD DUP2 PUSH20 0xFFFFFFFFFFFFFFFFFFFFFFFFFFFFFFFFFFFFFFFF MUL NOT AND SWAP1 DUP4 PUSH20 0xFFFFFFFFFFFFFFFFFFFFFFFFFFFFFFFFFFFFFFFF AND MUL OR SWAP1 SSTORE POP DUP3 PUSH1 0x0 DUP1 PUSH2 0x100 EXP DUP2 SLOAD DUP2 PUSH20 0xFFFFFFFFFFFFFFFFFFFFFFFFFFFFFFFFFFFFFFFF MUL NOT AND SWAP1 DUP4 PUSH20 0xFFFFFFFFFFFFFFFFFFFFFFFFFFFFFFFFFFFFFFFF AND MUL OR SWAP1 SSTORE POP DUP2 PUSH1 0x1 PUSH1 0x0 PUSH2 0x100 EXP DUP2 SLOAD DUP2 PUSH20 0xFFFFFFFFFFFFFFFFFFFFFFFFFFFFFFFFFFFFFFFF MUL NOT AND SWAP1 DUP4 PUSH20 0xFFFFFFFFFFFFFFFFFFFFFFFFFFFFFFFFFFFFFFFF AND MUL OR SWAP1 SSTORE POP DUP1 PUSH1 0x2 PUSH1 0x0 PUSH2 0x100 EXP DUP2 SLOAD DUP2 PUSH20 0xFFFFFFFFFFFFFFFFFFFFFFFFFFFFFFFFFFFFFFFF MUL NOT AND SWAP1 DUP4 PUSH20 0xFFFFFFFFFFFFFFFFFFFFFFFFFFFFFFFFFFFFFFFF AND MUL OR SWAP1 SSTORE POP POP POP POP PUSH3 0x4C9 JUMP JUMPDEST PUSH1 0x0 DUP1 REVERT JUMPDEST PUSH1 0x0 PUSH20 0xFFFFFFFFFFFFFFFFFFFFFFFFFFFFFFFFFFFFFFFF DUP3 AND SWAP1 POP SWAP2 SWAP1 POP JUMP JUMPDEST PUSH1 0x0 PUSH3 0x2CE DUP3 PUSH3 0x2A1 JUMP JUMPDEST SWAP1 POP SWAP2 SWAP1 POP JUMP JUMPDEST PUSH3 0x2E0 DUP2 PUSH3 0x2C1 JUMP JUMPDEST DUP2 EQ PUSH3 0x2EC JUMPI PUSH1 0x0 DUP1 REVERT JUMPDEST POP JUMP JUMPDEST PUSH1 0x0 DUP2 MLOAD SWAP1 POP PUSH3 0x300 DUP2 PUSH3 0x2D5 JUMP JUMPDEST SWAP3 SWAP2 POP POP JUMP JUMPDEST PUSH1 0x0 DUP1 PUSH1 0x0 PUSH1 0x60 DUP5 DUP7 SUB SLT ISZERO PUSH3 0x322 JUMPI PUSH3 0x321 PUSH3 0x29C JUMP JUMPDEST JUMPDEST PUSH1 0x0 PUSH3 0x332 DUP7 DUP3 DUP8 ADD PUSH3 0x2EF JUMP JUMPDEST SWAP4 POP POP PUSH1 0x20 PUSH3 0x345 DUP7 DUP3 DUP8 ADD PUSH3 0x2EF JUMP JUMPDEST SWAP3 POP POP PUSH1 0x40 PUSH3 0x358 DUP7 DUP3 DUP8 ADD PUSH3 0x2EF JUMP JUMPDEST SWAP2 POP POP SWAP3 POP SWAP3 POP SWAP3 JUMP JUMPDEST PUSH1 0x0 DUP3 DUP3 MSTORE PUSH1 0x20 DUP3 ADD SWAP1 POP SWAP3 SWAP2 POP POP JUMP JUMPDEST PUSH32 0x55736572566572696669636174696F6E20696E76616C69646F00000000000000 PUSH1 0x0 DUP3 ADD MSTORE POP JUMP JUMPDEST PUSH1 0x0 PUSH3 0x3AB PUSH1 0x19 DUP4 PUSH3 0x362 JUMP JUMPDEST SWAP2 POP PUSH3 0x3B8 DUP3 PUSH3 0x373 JUMP JUMPDEST PUSH1 0x20 DUP3 ADD SWAP1 POP SWAP2 SWAP1 POP JUMP JUMPDEST PUSH1 0x0 PUSH1 0x20 DUP3 ADD SWAP1 POP DUP2 DUP2 SUB PUSH1 0x0 DUP4 ADD MSTORE PUSH3 0x3DE DUP2 PUSH3 0x39C JUMP JUMPDEST SWAP1 POP SWAP2 SWAP1 POP JUMP JUMPDEST PUSH32 0x5665727469706F72744D616E6167656D656E7420696E76616C69646F00000000 PUSH1 0x0 DUP3 ADD MSTORE POP JUMP JUMPDEST PUSH1 0x0 PUSH3 0x41D PUSH1 0x1C DUP4 PUSH3 0x362 JUMP JUMPDEST SWAP2 POP PUSH3 0x42A DUP3 PUSH3 0x3E5 JUMP JUMPDEST PUSH1 0x20 DUP3 ADD SWAP1 POP SWAP2 SWAP1 POP JUMP JUMPDEST PUSH1 0x0 PUSH1 0x20 DUP3 ADD SWAP1 POP DUP2 DUP2 SUB PUSH1 0x0 DUP4 ADD MSTORE PUSH3 0x450 DUP2 PUSH3 0x40E JUMP JUMPDEST SWAP1 POP SWAP2 SWAP1 POP JUMP JUMPDEST PUSH32 0x4556544F4C4D616E6167656D656E7420696E76616C69646F0000000000000000 PUSH1 0x0 DUP3 ADD MSTORE POP JUMP JUMPDEST PUSH1 0x0 PUSH3 0x48F PUSH1 0x18 DUP4 PUSH3 0x362 JUMP JUMPDEST SWAP2 POP PUSH3 0x49C DUP3 PUSH3 0x457 JUMP JUMPDEST PUSH1 0x20 DUP3 ADD SWAP1 POP SWAP2 SWAP1 POP JUMP JUMPDEST PUSH1 0x0 PUSH1 0x20 DUP3 ADD SWAP1 POP DUP2 DUP2 SUB PUSH1 0x0 DUP4 ADD MSTORE PUSH3 0x4C2 DUP2 PUSH3 0x480 JUMP JUMPDEST SWAP1 POP SWAP2 SWAP1 POP JUMP JUMPDEST PUSH2 0x2AFA DUP1 PUSH3 0x4D9 PUSH1 0x0 CODECOPY PUSH1 0x0 RETURN INVALID PUSH1 0x80 PUSH1 0x40 MSTORE CALLVALUE DUP1 ISZERO PUSH2 0x10 JUMPI PUSH1 0x0 DUP1 REVERT JUMPDEST POP PUSH1 0x4 CALLDATASIZE LT PUSH2 0x9E JUMPI PUSH1 0x0 CALLDATALOAD PUSH1 0xE0 SHR DUP1 PUSH4 0xAE981AB7 GT PUSH2 0x66 JUMPI DUP1 PUSH4 0xAE981AB7 EQ PUSH2 0x147 JUMPI DUP1 PUSH4 0xCD17BDC0 EQ PUSH2 0x163 JUMPI DUP1 PUSH4 0xDFD90448 EQ PUSH2 0x17F JUMPI DUP1 PUSH4 0xF851A440 EQ PUSH2 0x19B JUMPI DUP1 PUSH4 0xFECC1F8A EQ PUSH2 0x1B9 JUMPI PUSH2 0x9E JUMP JUMPDEST DUP1 PUSH4 0xB125C11 EQ PUSH2 0xA3 JUMPI DUP1 PUSH4 0x55D96B51 EQ PUSH2 0xC1 JUMPI DUP1 PUSH4 0x5F6C5CFC EQ PUSH2 0xDF JUMPI DUP1 PUSH4 0x704B6C02 EQ PUSH2 0x10F JUMPI DUP1 PUSH4 0x7B56724A EQ PUSH2 0x12B JUMPI JUMPDEST PUSH1 0x0 DUP1 REVERT JUMPDEST PUSH2 0xAB PUSH2 0x1D7 JUMP JUMPDEST PUSH1 0x40 MLOAD PUSH2 0xB8 SWAP2 SWAP1 PUSH2 0x18C9 JUMP JUMPDEST PUSH1 0x40 MLOAD DUP1 SWAP2 SUB SWAP1 RETURN JUMPDEST PUSH2 0xC9 PUSH2 0x1FB JUMP JUMPDEST PUSH1 0x40 MLOAD PUSH2 0xD6 SWAP2 SWAP1 PUSH2 0x1905 JUMP JUMPDEST PUSH1 0x40 MLOAD DUP1 SWAP2 SUB SWAP1 RETURN JUMPDEST PUSH2 0xF9 PUSH1 0x4 DUP1 CALLDATASIZE SUB DUP2 ADD SWAP1 PUSH2 0xF4 SWAP2 SWAP1 PUSH2 0x1A7A JUMP JUMPDEST PUSH2 0x221 JUMP JUMPDEST PUSH1 0x40 MLOAD PUSH2 0x106 SWAP2 SWAP1 PUSH2 0x1CD5 JUMP JUMPDEST PUSH1 0x40 MLOAD DUP1 SWAP2 SUB SWAP1 RETURN JUMPDEST PUSH2 0x129 PUSH1 0x4 DUP1 CALLDATASIZE SUB DUP2 ADD SWAP1 PUSH2 0x124 SWAP2 SWAP1 PUSH2 0x1D23 JUMP JUMPDEST PUSH2 0x51A JUMP JUMPDEST STOP JUMPDEST PUSH2 0x145 PUSH1 0x4 DUP1 CALLDATASIZE SUB DUP2 ADD SWAP1 PUSH2 0x140 SWAP2 SWAP1 PUSH2 0x1DF1 JUMP JUMPDEST PUSH2 0x65E JUMP JUMPDEST STOP JUMPDEST PUSH2 0x161 PUSH1 0x4 DUP1 CALLDATASIZE SUB DUP2 ADD SWAP1 PUSH2 0x15C SWAP2 SWAP1 PUSH2 0x1E95 JUMP JUMPDEST PUSH2 0x9CF JUMP JUMPDEST STOP JUMPDEST PUSH2 0x17D PUSH1 0x4 DUP1 CALLDATASIZE SUB DUP2 ADD SWAP1 PUSH2 0x178 SWAP2 SWAP1 PUSH2 0x1DF1 JUMP JUMPDEST PUSH2 0x113C JUMP JUMPDEST STOP JUMPDEST PUSH2 0x199 PUSH1 0x4 DUP1 CALLDATASIZE SUB DUP2 ADD SWAP1 PUSH2 0x194 SWAP2 SWAP1 PUSH2 0x1A7A JUMP JUMPDEST PUSH2 0x1489 JUMP JUMPDEST STOP JUMPDEST PUSH2 0x1A3 PUSH2 0x16EC JUMP JUMPDEST PUSH1 0x40 MLOAD PUSH2 0x1B0 SWAP2 SWAP1 PUSH2 0x2002 JUMP JUMPDEST PUSH1 0x40 MLOAD DUP1 SWAP2 SUB SWAP1 RETURN JUMPDEST PUSH2 0x1C1 PUSH2 0x1712 JUMP JUMPDEST PUSH1 0x40 MLOAD PUSH2 0x1CE SWAP2 SWAP1 PUSH2 0x203E JUMP JUMPDEST PUSH1 0x40 MLOAD DUP1 SWAP2 SUB SWAP1 RETURN JUMPDEST PUSH1 0x0 DUP1 SLOAD SWAP1 PUSH2 0x100 EXP SWAP1 DIV PUSH20 0xFFFFFFFFFFFFFFFFFFFFFFFFFFFFFFFFFFFFFFFF AND DUP2 JUMP JUMPDEST PUSH1 0x2 PUSH1 0x0 SWAP1 SLOAD SWAP1 PUSH2 0x100 EXP SWAP1 DIV PUSH20 0xFFFFFFFFFFFFFFFFFFFFFFFFFFFFFFFFFFFFFFFF AND DUP2 JUMP JUMPDEST PUSH2 0x229 PUSH2 0x1738 JUMP JUMPDEST PUSH1 0x0 PUSH1 0x4 DUP4 PUSH1 0x40 MLOAD PUSH2 0x23B SWAP2 SWAP1 PUSH2 0x2095 JUMP JUMPDEST SWAP1 DUP2 MSTORE PUSH1 0x20 ADD PUSH1 0x40 MLOAD DUP1 SWAP2 SUB SWAP1 KECCAK256 PUSH1 0x40 MLOAD DUP1 PUSH2 0x100 ADD PUSH1 0x40 MSTORE SWAP1 DUP2 PUSH1 0x0 DUP3 ADD DUP1 SLOAD PUSH2 0x265 SWAP1 PUSH2 0x20DB JUMP JUMPDEST DUP1 PUSH1 0x1F ADD PUSH1 0x20 DUP1 SWAP2 DIV MUL PUSH1 0x20 ADD PUSH1 0x40 MLOAD SWAP1 DUP2 ADD PUSH1 0x40 MSTORE DUP1 SWAP3 SWAP2 SWAP1 DUP2 DUP2 MSTORE PUSH1 0x20 ADD DUP3 DUP1 SLOAD PUSH2 0x291 SWAP1 PUSH2 0x20DB JUMP JUMPDEST DUP1 ISZERO PUSH2 0x2DE JUMPI DUP1 PUSH1 0x1F LT PUSH2 0x2B3 JUMPI PUSH2 0x100 DUP1 DUP4 SLOAD DIV MUL DUP4 MSTORE SWAP2 PUSH1 0x20 ADD SWAP2 PUSH2 0x2DE JUMP JUMPDEST DUP3 ADD SWAP2 SWAP1 PUSH1 0x0 MSTORE PUSH1 0x20 PUSH1 0x0 KECCAK256 SWAP1 JUMPDEST DUP2 SLOAD DUP2 MSTORE SWAP1 PUSH1 0x1 ADD SWAP1 PUSH1 0x20 ADD DUP1 DUP4 GT PUSH2 0x2C1 JUMPI DUP3 SWAP1 SUB PUSH1 0x1F AND DUP3 ADD SWAP2 JUMPDEST POP POP POP POP POP DUP2 MSTORE PUSH1 0x20 ADD PUSH1 0x1 DUP3 ADD PUSH1 0x0 SWAP1 SLOAD SWAP1 PUSH2 0x100 EXP SWAP1 DIV PUSH20 0xFFFFFFFFFFFFFFFFFFFFFFFFFFFFFFFFFFFFFFFF AND PUSH20 0xFFFFFFFFFFFFFFFFFFFFFFFFFFFFFFFFFFFFFFFF AND PUSH20 0xFFFFFFFFFFFFFFFFFFFFFFFFFFFFFFFFFFFFFFFF AND DUP2 MSTORE PUSH1 0x20 ADD PUSH1 0x2 DUP3 ADD DUP1 SLOAD PUSH2 0x34D SWAP1 PUSH2 0x20DB JUMP JUMPDEST DUP1 PUSH1 0x1F ADD PUSH1 0x20 DUP1 SWAP2 DIV MUL PUSH1 0x20 ADD PUSH1 0x40 MLOAD SWAP1 DUP2 ADD PUSH1 0x40 MSTORE DUP1 SWAP3 SWAP2 SWAP1 DUP2 DUP2 MSTORE PUSH1 0x20 ADD DUP3 DUP1 SLOAD PUSH2 0x379 SWAP1 PUSH2 0x20DB JUMP JUMPDEST DUP1 ISZERO PUSH2 0x3C6 JUMPI DUP1 PUSH1 0x1F LT PUSH2 0x39B JUMPI PUSH2 0x100 DUP1 DUP4 SLOAD DIV MUL DUP4 MSTORE SWAP2 PUSH1 0x20 ADD SWAP2 PUSH2 0x3C6 JUMP JUMPDEST DUP3 ADD SWAP2 SWAP1 PUSH1 0x0 MSTORE PUSH1 0x20 PUSH1 0x0 KECCAK256 SWAP1 JUMPDEST DUP2 SLOAD DUP2 MSTORE SWAP1 PUSH1 0x1 ADD SWAP1 PUSH1 0x20 ADD DUP1 DUP4 GT PUSH2 0x3A9 JUMPI DUP3 SWAP1 SUB PUSH1 0x1F AND DUP3 ADD SWAP2 JUMPDEST POP POP POP POP POP DUP2 MSTORE PUSH1 0x20 ADD PUSH1 0x3 DUP3 ADD DUP1 SLOAD PUSH2 0x3DF SWAP1 PUSH2 0x20DB JUMP JUMPDEST DUP1 PUSH1 0x1F ADD PUSH1 0x20 DUP1 SWAP2 DIV MUL PUSH1 0x20 ADD PUSH1 0x40 MLOAD SWAP1 DUP2 ADD PUSH1 0x40 MSTORE DUP1 SWAP3 SWAP2 SWAP1 DUP2 DUP2 MSTORE PUSH1 0x20 ADD DUP3 DUP1 SLOAD PUSH2 0x40B SWAP1 PUSH2 0x20DB JUMP JUMPDEST DUP1 ISZERO PUSH2 0x458 JUMPI DUP1 PUSH1 0x1F LT PUSH2 0x42D JUMPI PUSH2 0x100 DUP1 DUP4 SLOAD DIV MUL DUP4 MSTORE SWAP2 PUSH1 0x20 ADD SWAP2 PUSH2 0x458 JUMP JUMPDEST DUP3 ADD SWAP2 SWAP1 PUSH1 0x0 MSTORE PUSH1 0x20 PUSH1 0x0 KECCAK256 SWAP1 JUMPDEST DUP2 SLOAD DUP2 MSTORE SWAP1 PUSH1 0x1 ADD SWAP1 PUSH1 0x20 ADD DUP1 DUP4 GT PUSH2 0x43B JUMPI DUP3 SWAP1 SUB PUSH1 0x1F AND DUP3 ADD SWAP2 JUMPDEST POP POP POP POP POP DUP2 MSTORE PUSH1 0x20 ADD PUSH1 0x4 DUP3 ADD SLOAD DUP2 MSTORE PUSH1 0x20 ADD PUSH1 0x5 DUP3 ADD PUSH1 0x0 SWAP1 SLOAD SWAP1 PUSH2 0x100 EXP SWAP1 DIV PUSH1 0xFF AND PUSH1 0x4 DUP2 GT ISZERO PUSH2 0x490 JUMPI PUSH2 0x48F PUSH2 0x1B85 JUMP JUMPDEST JUMPDEST PUSH1 0x4 DUP2 GT ISZERO PUSH2 0x4A2 JUMPI PUSH2 0x4A1 PUSH2 0x1B85 JUMP JUMPDEST JUMPDEST DUP2 MSTORE PUSH1 0x20 ADD PUSH1 0x6 DUP3 ADD SLOAD DUP2 MSTORE PUSH1 0x20 ADD PUSH1 0x7 DUP3 ADD PUSH1 0x0 SWAP1 SLOAD SWAP1 PUSH2 0x100 EXP SWAP1 DIV PUSH1 0xFF AND ISZERO ISZERO ISZERO ISZERO DUP2 MSTORE POP POP SWAP1 POP DUP1 PUSH1 0xE0 ADD MLOAD PUSH2 0x511 JUMPI PUSH1 0x40 MLOAD PUSH32 0x8C379A000000000000000000000000000000000000000000000000000000000 DUP2 MSTORE PUSH1 0x4 ADD PUSH2 0x508 SWAP1 PUSH2 0x216A JUMP JUMPDEST PUSH1 0x40 MLOAD DUP1 SWAP2 SUB SWAP1 REVERT JUMPDEST DUP1 SWAP2 POP POP SWAP2 SWAP1 POP JUMP JUMPDEST PUSH1 0x3 PUSH1 0x0 SWAP1 SLOAD SWAP1 PUSH2 0x100 EXP SWAP1 DIV PUSH20 0xFFFFFFFFFFFFFFFFFFFFFFFFFFFFFFFFFFFFFFFF AND PUSH20 0xFFFFFFFFFFFFFFFFFFFFFFFFFFFFFFFFFFFFFFFF AND CALLER PUSH20 0xFFFFFFFFFFFFFFFFFFFFFFFFFFFFFFFFFFFFFFFF AND EQ PUSH2 0x5AA JUMPI PUSH1 0x40 MLOAD PUSH32 0x8C379A000000000000000000000000000000000000000000000000000000000 DUP2 MSTORE PUSH1 0x4 ADD PUSH2 0x5A1 SWAP1 PUSH2 0x21D6 JUMP JUMPDEST PUSH1 0x40 MLOAD DUP1 SWAP2 SUB SWAP1 REVERT JUMPDEST PUSH1 0x0 PUSH20 0xFFFFFFFFFFFFFFFFFFFFFFFFFFFFFFFFFFFFFFFF AND DUP2 PUSH20 0xFFFFFFFFFFFFFFFFFFFFFFFFFFFFFFFFFFFFFFFF AND EQ ISZERO PUSH2 0x61A JUMPI PUSH1 0x40 MLOAD PUSH32 0x8C379A000000000000000000000000000000000000000000000000000000000 DUP2 MSTORE PUSH1 0x4 ADD PUSH2 0x611 SWAP1 PUSH2 0x2242 JUMP JUMPDEST PUSH1 0x40 MLOAD DUP1 SWAP2 SUB SWAP1 REVERT JUMPDEST DUP1 PUSH1 0x3 PUSH1 0x0 PUSH2 0x100 EXP DUP2 SLOAD DUP2 PUSH20 0xFFFFFFFFFFFFFFFFFFFFFFFFFFFFFFFFFFFFFFFF MUL NOT AND SWAP1 DUP4 PUSH20 0xFFFFFFFFFFFFFFFFFFFFFFFFFFFFFFFFFFFFFFFF AND MUL OR SWAP1 SSTORE POP POP JUMP JUMPDEST PUSH1 0x3 PUSH1 0x0 SWAP1 SLOAD SWAP1 PUSH2 0x100 EXP SWAP1 DIV PUSH20 0xFFFFFFFFFFFFFFFFFFFFFFFFFFFFFFFFFFFFFFFF AND PUSH20 0xFFFFFFFFFFFFFFFFFFFFFFFFFFFFFFFFFFFFFFFF AND CALLER PUSH20 0xFFFFFFFFFFFFFFFFFFFFFFFFFFFFFFFFFFFFFFFF AND EQ PUSH2 0x6EE JUMPI PUSH1 0x40 MLOAD PUSH32 0x8C379A000000000000000000000000000000000000000000000000000000000 DUP2 MSTORE PUSH1 0x4 ADD PUSH2 0x6E5 SWAP1 PUSH2 0x21D6 JUMP JUMPDEST PUSH1 0x40 MLOAD DUP1 SWAP2 SUB SWAP1 REVERT JUMPDEST PUSH1 0x0 PUSH1 0x4 DUP4 PUSH1 0x40 MLOAD PUSH2 0x700 SWAP2 SWAP1 PUSH2 0x2095 JUMP JUMPDEST SWAP1 DUP2 MSTORE PUSH1 0x20 ADD PUSH1 0x40 MLOAD DUP1 SWAP2 SUB SWAP1 KECCAK256 SWAP1 POP DUP1 PUSH1 0x7 ADD PUSH1 0x0 SWAP1 SLOAD SWAP1 PUSH2 0x100 EXP SWAP1 DIV PUSH1 0xFF AND PUSH2 0x761 JUMPI PUSH1 0x40 MLOAD PUSH32 0x8C379A000000000000000000000000000000000000000000000000000000000 DUP2 MSTORE PUSH1 0x4 ADD PUSH2 0x758 SWAP1 PUSH2 0x216A JUMP JUMPDEST PUSH1 0x40 MLOAD DUP1 SWAP2 SUB SWAP1 REVERT JUMPDEST PUSH1 0x2 PUSH1 0x4 DUP2 GT ISZERO PUSH2 0x775 JUMPI PUSH2 0x774 PUSH2 0x1B85 JUMP JUMPDEST JUMPDEST DUP2 PUSH1 0x5 ADD PUSH1 0x0 SWAP1 SLOAD SWAP1 PUSH2 0x100 EXP SWAP1 DIV PUSH1 0xFF AND PUSH1 0x4 DUP2 GT ISZERO PUSH2 0x799 JUMPI PUSH2 0x798 PUSH2 0x1B85 JUMP JUMPDEST JUMPDEST EQ PUSH2 0x7D9 JUMPI PUSH1 0x40 MLOAD PUSH32 0x8C379A000000000000000000000000000000000000000000000000000000000 DUP2 MSTORE PUSH1 0x4 ADD PUSH2 0x7D0 SWAP1 PUSH2 0x22AE JUMP JUMPDEST PUSH1 0x40 MLOAD DUP1 SWAP2 SUB SWAP1 REVERT JUMPDEST PUSH1 0x2 PUSH1 0x0 SWAP1 SLOAD SWAP1 PUSH2 0x100 EXP SWAP1 DIV PUSH20 0xFFFFFFFFFFFFFFFFFFFFFFFFFFFFFFFFFFFFFFFF AND PUSH20 0xFFFFFFFFFFFFFFFFFFFFFFFFFFFFFFFFFFFFFFFF AND PUSH4 0x9283E047 DUP3 PUSH1 0x4 ADD SLOAD DUP4 PUSH1 0x3 ADD PUSH1 0x40 MLOAD DUP4 PUSH4 0xFFFFFFFF AND PUSH1 0xE0 SHL DUP2 MSTORE PUSH1 0x4 ADD PUSH2 0x83D SWAP3 SWAP2 SWAP1 PUSH2 0x2372 JUMP JUMPDEST PUSH1 0x0 PUSH1 0x40 MLOAD DUP1 DUP4 SUB DUP2 PUSH1 0x0 DUP8 DUP1 EXTCODESIZE ISZERO DUP1 ISZERO PUSH2 0x857 JUMPI PUSH1 0x0 DUP1 REVERT JUMPDEST POP GAS CALL ISZERO DUP1 ISZERO PUSH2 0x86B JUMPI RETURNDATASIZE PUSH1 0x0 DUP1 RETURNDATACOPY RETURNDATASIZE PUSH1 0x0 REVERT JUMPDEST POP POP POP POP PUSH1 0x1 PUSH1 0x0 SWAP1 SLOAD SWAP1 PUSH2 0x100 EXP SWAP1 DIV PUSH20 0xFFFFFFFFFFFFFFFFFFFFFFFFFFFFFFFFFFFFFFFF AND PUSH20 0xFFFFFFFFFFFFFFFFFFFFFFFFFFFFFFFFFFFFFFFF AND PUSH4 0xCF0803E9 DUP3 PUSH1 0x3 ADD DUP5 PUSH1 0x0 PUSH32 0xFFFFFFFFFFFFFFFFFFFFFFFFFFFFFFFFFFFFFFFFFFFFFFFFFFFFFFFFFFFFFFFF PUSH1 0x40 MLOAD DUP6 PUSH4 0xFFFFFFFF AND PUSH1 0xE0 SHL DUP2 MSTORE PUSH1 0x4 ADD PUSH2 0x8F4 SWAP5 SWAP4 SWAP3 SWAP2 SWAP1 PUSH2 0x244B JUMP JUMPDEST PUSH1 0x0 PUSH1 0x40 MLOAD DUP1 DUP4 SUB DUP2 PUSH1 0x0 DUP8 DUP1 EXTCODESIZE ISZERO DUP1 ISZERO PUSH2 0x90E JUMPI PUSH1 0x0 DUP1 REVERT JUMPDEST POP GAS CALL ISZERO DUP1 ISZERO PUSH2 0x922 JUMPI RETURNDATASIZE PUSH1 0x0 DUP1 RETURNDATACOPY RETURNDATASIZE PUSH1 0x0 REVERT JUMPDEST POP POP POP POP PUSH1 0x0 DUP2 PUSH1 0x5 ADD PUSH1 0x0 SWAP1 SLOAD SWAP1 PUSH2 0x100 EXP SWAP1 DIV PUSH1 0xFF AND SWAP1 POP PUSH1 0x3 DUP3 PUSH1 0x5 ADD PUSH1 0x0 PUSH2 0x100 EXP DUP2 SLOAD DUP2 PUSH1 0xFF MUL NOT AND SWAP1 DUP4 PUSH1 0x4 DUP2 GT ISZERO PUSH2 0x964 JUMPI PUSH2 0x963 PUSH2 0x1B85 JUMP JUMPDEST JUMPDEST MUL OR SWAP1 SSTORE POP DUP4 PUSH1 0x40 MLOAD PUSH2 0x977 SWAP2 SWAP1 PUSH2 0x2095 JUMP JUMPDEST PUSH1 0x40 MLOAD DUP1 SWAP2 SUB SWAP1 KECCAK256 PUSH32 0x9D90B27494F938A087A90248834B48353BB9436A76E90F1F37FCB8D3AE5DBD20 DUP3 DUP5 PUSH1 0x5 ADD PUSH1 0x0 SWAP1 SLOAD SWAP1 PUSH2 0x100 EXP SWAP1 DIV PUSH1 0xFF AND PUSH1 0x40 MLOAD PUSH2 0x9C1 SWAP3 SWAP2 SWAP1 PUSH2 0x24AD JUMP JUMPDEST PUSH1 0x40 MLOAD DUP1 SWAP2 SUB SWAP1 LOG2 POP POP POP POP JUMP JUMPDEST PUSH1 0x3 PUSH1 0x0 SWAP1 SLOAD SWAP1 PUSH2 0x100 EXP SWAP1 DIV PUSH20 0xFFFFFFFFFFFFFFFFFFFFFFFFFFFFFFFFFFFFFFFF AND PUSH20 0xFFFFFFFFFFFFFFFFFFFFFFFFFFFFFFFFFFFFFFFF AND CALLER PUSH20 0xFFFFFFFFFFFFFFFFFFFFFFFFFFFFFFFFFFFFFFFF AND EQ PUSH2 0xA5F JUMPI PUSH1 0x40 MLOAD PUSH32 0x8C379A000000000000000000000000000000000000000000000000000000000 DUP2 MSTORE PUSH1 0x4 ADD PUSH2 0xA56 SWAP1 PUSH2 0x21D6 JUMP JUMPDEST PUSH1 0x40 MLOAD DUP1 SWAP2 SUB SWAP1 REVERT JUMPDEST PUSH1 0x0 DUP9 MLOAD GT PUSH2 0xAA3 JUMPI PUSH1 0x40 MLOAD PUSH32 0x8C379A000000000000000000000000000000000000000000000000000000000 DUP2 MSTORE PUSH1 0x4 ADD PUSH2 0xA9A SWAP1 PUSH2 0x2522 JUMP JUMPDEST PUSH1 0x40 MLOAD DUP1 SWAP2 SUB SWAP1 REVERT JUMPDEST PUSH1 0x4 DUP9 PUSH1 0x40 MLOAD PUSH2 0xAB3 SWAP2 SWAP1 PUSH2 0x2095 JUMP JUMPDEST SWAP1 DUP2 MSTORE PUSH1 0x20 ADD PUSH1 0x40 MLOAD DUP1 SWAP2 SUB SWAP1 KECCAK256 PUSH1 0x7 ADD PUSH1 0x0 SWAP1 SLOAD SWAP1 PUSH2 0x100 EXP SWAP1 DIV PUSH1 0xFF AND ISZERO PUSH2 0xB12 JUMPI PUSH1 0x40 MLOAD PUSH32 0x8C379A000000000000000000000000000000000000000000000000000000000 DUP2 MSTORE PUSH1 0x4 ADD PUSH2 0xB09 SWAP1 PUSH2 0x258E JUMP JUMPDEST PUSH1 0x40 MLOAD DUP1 SWAP2 SUB SWAP1 REVERT JUMPDEST PUSH1 0x0 PUSH20 0xFFFFFFFFFFFFFFFFFFFFFFFFFFFFFFFFFFFFFFFF AND DUP8 PUSH20 0xFFFFFFFFFFFFFFFFFFFFFFFFFFFFFFFFFFFFFFFF AND EQ ISZERO PUSH2 0xB82 JUMPI PUSH1 0x40 MLOAD PUSH32 0x8C379A000000000000000000000000000000000000000000000000000000000 DUP2 MSTORE PUSH1 0x4 ADD PUSH2 0xB79 SWAP1 PUSH2 0x25FA JUMP JUMPDEST PUSH1 0x40 MLOAD DUP1 SWAP2 SUB SWAP1 REVERT JUMPDEST PUSH1 0x0 DUP7 MLOAD GT PUSH2 0xBC6 JUMPI PUSH1 0x40 MLOAD PUSH32 0x8C379A000000000000000000000000000000000000000000000000000000000 DUP2 MSTORE PUSH1 0x4 ADD PUSH2 0xBBD SWAP1 PUSH2 0x2666 JUMP JUMPDEST PUSH1 0x40 MLOAD DUP1 SWAP2 SUB SWAP1 REVERT JUMPDEST PUSH1 0x0 DUP6 MLOAD GT PUSH2 0xC0A JUMPI PUSH1 0x40 MLOAD PUSH32 0x8C379A000000000000000000000000000000000000000000000000000000000 DUP2 MSTORE PUSH1 0x4 ADD PUSH2 0xC01 SWAP1 PUSH2 0x26D2 JUMP JUMPDEST PUSH1 0x40 MLOAD DUP1 SWAP2 SUB SWAP1 REVERT JUMPDEST PUSH1 0x0 DUP5 EQ ISZERO PUSH2 0xC4E JUMPI PUSH1 0x40 MLOAD PUSH32 0x8C379A000000000000000000000000000000000000000000000000000000000 DUP2 MSTORE PUSH1 0x4 ADD PUSH2 0xC45 SWAP1 PUSH2 0x273E JUMP JUMPDEST PUSH1 0x40 MLOAD DUP1 SWAP2 SUB SWAP1 REVERT JUMPDEST PUSH1 0x0 DUP1 SLOAD SWAP1 PUSH2 0x100 EXP SWAP1 DIV PUSH20 0xFFFFFFFFFFFFFFFFFFFFFFFFFFFFFFFFFFFFFFFF AND PUSH20 0xFFFFFFFFFFFFFFFFFFFFFFFFFFFFFFFFFFFFFFFF AND PUSH4 0x73984517 DUP9 PUSH1 0x40 MLOAD DUP3 PUSH4 0xFFFFFFFF AND PUSH1 0xE0 SHL DUP2 MSTORE PUSH1 0x4 ADD PUSH2 0xCA7 SWAP2 SWAP1 PUSH2 0x2002 JUMP JUMPDEST PUSH1 0x20 PUSH1 0x40 MLOAD DUP1 DUP4 SUB DUP2 DUP7 GAS STATICCALL ISZERO DUP1 ISZERO PUSH2 0xCC4 JUMPI RETURNDATASIZE PUSH1 0x0 DUP1 RETURNDATACOPY RETURNDATASIZE PUSH1 0x0 REVERT JUMPDEST POP POP POP POP PUSH1 0x40 MLOAD RETURNDATASIZE PUSH1 0x1F NOT PUSH1 0x1F DUP3 ADD AND DUP3 ADD DUP1 PUSH1 0x40 MSTORE POP DUP2 ADD SWAP1 PUSH2 0xCE8 SWAP2 SWAP1 PUSH2 0x278A JUMP JUMPDEST PUSH2 0xD27 JUMPI PUSH1 0x40 MLOAD PUSH32 0x8C379A000000000000000000000000000000000000000000000000000000000 DUP2 MSTORE PUSH1 0x4 ADD PUSH2 0xD1E SWAP1 PUSH2 0x2829 JUMP JUMPDEST PUSH1 0x40 MLOAD DUP1 SWAP2 SUB SWAP1 REVERT JUMPDEST PUSH1 0x1 PUSH1 0x0 SWAP1 SLOAD SWAP1 PUSH2 0x100 EXP SWAP1 DIV PUSH20 0xFFFFFFFFFFFFFFFFFFFFFFFFFFFFFFFFFFFFFFFF AND PUSH20 0xFFFFFFFFFFFFFFFFFFFFFFFFFFFFFFFFFFFFFFFF AND PUSH4 0x4DDE7B1 DUP8 PUSH1 0x40 MLOAD DUP3 PUSH4 0xFFFFFFFF AND PUSH1 0xE0 SHL DUP2 MSTORE PUSH1 0x4 ADD PUSH2 0xD82 SWAP2 SWAP1 PUSH2 0x2882 JUMP JUMPDEST PUSH1 0x20 PUSH1 0x40 MLOAD DUP1 DUP4 SUB DUP2 DUP7 GAS STATICCALL ISZERO DUP1 ISZERO PUSH2 0xD9F JUMPI RETURNDATASIZE PUSH1 0x0 DUP1 RETURNDATACOPY RETURNDATASIZE PUSH1 0x0 REVERT JUMPDEST POP POP POP POP PUSH1 0x40 MLOAD RETURNDATASIZE PUSH1 0x1F NOT PUSH1 0x1F DUP3 ADD AND DUP3 ADD DUP1 PUSH1 0x40 MSTORE POP DUP2 ADD SWAP1 PUSH2 0xDC3 SWAP2 SWAP1 PUSH2 0x278A JUMP JUMPDEST PUSH2 0xE02 JUMPI PUSH1 0x40 MLOAD PUSH32 0x8C379A000000000000000000000000000000000000000000000000000000000 DUP2 MSTORE PUSH1 0x4 ADD PUSH2 0xDF9 SWAP1 PUSH2 0x2916 JUMP JUMPDEST PUSH1 0x40 MLOAD DUP1 SWAP2 SUB SWAP1 REVERT JUMPDEST PUSH1 0x2 PUSH1 0x0 SWAP1 SLOAD SWAP1 PUSH2 0x100 EXP SWAP1 DIV PUSH20 0xFFFFFFFFFFFFFFFFFFFFFFFFFFFFFFFFFFFFFFFF AND PUSH20 0xFFFFFFFFFFFFFFFFFFFFFFFFFFFFFFFFFFFFFFFF AND PUSH4 0x3A178D99 DUP6 PUSH1 0x40 MLOAD DUP3 PUSH4 0xFFFFFFFF AND PUSH1 0xE0 SHL DUP2 MSTORE PUSH1 0x4 ADD PUSH2 0xE5D SWAP2 SWAP1 PUSH2 0x2936 JUMP JUMPDEST PUSH1 0x20 PUSH1 0x40 MLOAD DUP1 DUP4 SUB DUP2 DUP7 GAS STATICCALL ISZERO DUP1 ISZERO PUSH2 0xE7A JUMPI RETURNDATASIZE PUSH1 0x0 DUP1 RETURNDATACOPY RETURNDATASIZE PUSH1 0x0 REVERT JUMPDEST POP POP POP POP PUSH1 0x40 MLOAD RETURNDATASIZE PUSH1 0x1F NOT PUSH1 0x1F DUP3 ADD AND DUP3 ADD DUP1 PUSH1 0x40 MSTORE POP DUP2 ADD SWAP1 PUSH2 0xE9E SWAP2 SWAP1 PUSH2 0x278A JUMP JUMPDEST PUSH2 0xEDD JUMPI PUSH1 0x40 MLOAD PUSH32 0x8C379A000000000000000000000000000000000000000000000000000000000 DUP2 MSTORE PUSH1 0x4 ADD PUSH2 0xED4 SWAP1 PUSH2 0x299D JUMP JUMPDEST PUSH1 0x40 MLOAD DUP1 SWAP2 SUB SWAP1 REVERT JUMPDEST PUSH1 0x2 PUSH1 0x0 SWAP1 SLOAD SWAP1 PUSH2 0x100 EXP SWAP1 DIV PUSH20 0xFFFFFFFFFFFFFFFFFFFFFFFFFFFFFFFFFFFFFFFF AND PUSH20 0xFFFFFFFFFFFFFFFFFFFFFFFFFFFFFFFFFFFFFFFF AND PUSH4 0x864980DE DUP6 DUP11 PUSH1 0x40 MLOAD DUP4 PUSH4 0xFFFFFFFF AND PUSH1 0xE0 SHL DUP2 MSTORE PUSH1 0x4 ADD PUSH2 0xF3A SWAP3 SWAP2 SWAP1 PUSH2 0x29BD JUMP JUMPDEST PUSH1 0x0 PUSH1 0x40 MLOAD DUP1 DUP4 SUB DUP2 PUSH1 0x0 DUP8 DUP1 EXTCODESIZE ISZERO DUP1 ISZERO PUSH2 0xF54 JUMPI PUSH1 0x0 DUP1 REVERT JUMPDEST POP GAS CALL ISZERO DUP1 ISZERO PUSH2 0xF68 JUMPI RETURNDATASIZE PUSH1 0x0 DUP1 RETURNDATACOPY RETURNDATASIZE PUSH1 0x0 REVERT JUMPDEST POP POP POP POP PUSH1 0x0 PUSH1 0x4 DUP10 PUSH1 0x40 MLOAD PUSH2 0xF7E SWAP2 SWAP1 PUSH2 0x2095 JUMP JUMPDEST SWAP1 DUP2 MSTORE PUSH1 0x20 ADD PUSH1 0x40 MLOAD DUP1 SWAP2 SUB SWAP1 KECCAK256 SWAP1 POP DUP9 DUP2 PUSH1 0x0 ADD SWAP1 DUP1 MLOAD SWAP1 PUSH1 0x20 ADD SWAP1 PUSH2 0xFA6 SWAP3 SWAP2 SWAP1 PUSH2 0x17A7 JUMP JUMPDEST POP DUP8 DUP2 PUSH1 0x1 ADD PUSH1 0x0 PUSH2 0x100 EXP DUP2 SLOAD DUP2 PUSH20 0xFFFFFFFFFFFFFFFFFFFFFFFFFFFFFFFFFFFFFFFF MUL NOT AND SWAP1 DUP4 PUSH20 0xFFFFFFFFFFFFFFFFFFFFFFFFFFFFFFFFFFFFFFFF AND MUL OR SWAP1 SSTORE POP DUP7 DUP2 PUSH1 0x2 ADD SWAP1 DUP1 MLOAD SWAP1 PUSH1 0x20 ADD SWAP1 PUSH2 0x1002 SWAP3 SWAP2 SWAP1 PUSH2 0x17A7 JUMP JUMPDEST POP DUP6 DUP2 PUSH1 0x3 ADD SWAP1 DUP1 MLOAD SWAP1 PUSH1 0x20 ADD SWAP1 PUSH2 0x101B SWAP3 SWAP2 SWAP1 PUSH2 0x17A7 JUMP JUMPDEST POP DUP5 DUP2 PUSH1 0x4 ADD DUP2 SWAP1 SSTORE POP PUSH1 0x1 DUP2 PUSH1 0x5 ADD PUSH1 0x0 PUSH2 0x100 EXP DUP2 SLOAD DUP2 PUSH1 0xFF MUL NOT AND SWAP1 DUP4 PUSH1 0x4 DUP2 GT ISZERO PUSH2 0x104D JUMPI PUSH2 0x104C PUSH2 0x1B85 JUMP JUMPDEST JUMPDEST MUL OR SWAP1 SSTORE POP TIMESTAMP DUP2 PUSH1 0x6 ADD DUP2 SWAP1 SSTORE POP PUSH1 0x1 DUP2 PUSH1 0x7 ADD PUSH1 0x0 PUSH2 0x100 EXP DUP2 SLOAD DUP2 PUSH1 0xFF MUL NOT AND SWAP1 DUP4 ISZERO ISZERO MUL OR SWAP1 SSTORE POP DUP8 PUSH20 0xFFFFFFFFFFFFFFFFFFFFFFFFFFFFFFFFFFFFFFFF AND DUP10 PUSH1 0x40 MLOAD PUSH2 0x109D SWAP2 SWAP1 PUSH2 0x2095 JUMP JUMPDEST PUSH1 0x40 MLOAD DUP1 SWAP2 SUB SWAP1 KECCAK256 PUSH32 0x16B16E7CC38488F7360A97FA5CF95EF7503B5CBDA614ACE6942520A53AD1846 DUP10 DUP10 DUP10 PUSH1 0x40 MLOAD PUSH2 0x10D8 SWAP4 SWAP3 SWAP2 SWAP1 PUSH2 0x29ED JUMP JUMPDEST PUSH1 0x40 MLOAD DUP1 SWAP2 SUB SWAP1 LOG3 DUP9 PUSH1 0x40 MLOAD PUSH2 0x10EE SWAP2 SWAP1 PUSH2 0x2095 JUMP JUMPDEST PUSH1 0x40 MLOAD DUP1 SWAP2 SUB SWAP1 KECCAK256 PUSH32 0x9D90B27494F938A087A90248834B48353BB9436A76E90F1F37FCB8D3AE5DBD20 PUSH1 0x0 PUSH1 0x1 PUSH1 0x40 MLOAD PUSH2 0x1129 SWAP3 SWAP2 SWAP1 PUSH2 0x24AD JUMP JUMPDEST PUSH1 0x40 MLOAD DUP1 SWAP2 SUB SWAP1 LOG2 POP POP POP POP POP POP POP POP POP JUMP JUMPDEST PUSH1 0x3 PUSH1 0x0 SWAP1 SLOAD SWAP1 PUSH2 0x100 EXP SWAP1 DIV PUSH20 0xFFFFFFFFFFFFFFFFFFFFFFFFFFFFFFFFFFFFFFFF AND PUSH20 0xFFFFFFFFFFFFFFFFFFFFFFFFFFFFFFFFFFFFFFFF AND CALLER PUSH20 0xFFFFFFFFFFFFFFFFFFFFFFFFFFFFFFFFFFFFFFFF AND EQ PUSH2 0x11CC JUMPI PUSH1 0x40 MLOAD PUSH32 0x8C379A000000000000000000000000000000000000000000000000000000000 DUP2 MSTORE PUSH1 0x4 ADD PUSH2 0x11C3 SWAP1 PUSH2 0x21D6 JUMP JUMPDEST PUSH1 0x40 MLOAD DUP1 SWAP2 SUB SWAP1 REVERT JUMPDEST PUSH1 0x0 PUSH1 0x4 DUP4 PUSH1 0x40 MLOAD PUSH2 0x11DE SWAP2 SWAP1 PUSH2 0x2095 JUMP JUMPDEST SWAP1 DUP2 MSTORE PUSH1 0x20 ADD PUSH1 0x40 MLOAD DUP1 SWAP2 SUB SWAP1 KECCAK256 SWAP1 POP DUP1 PUSH1 0x7 ADD PUSH1 0x0 SWAP1 SLOAD SWAP1 PUSH2 0x100 EXP SWAP1 DIV PUSH1 0xFF AND PUSH2 0x123F JUMPI PUSH1 0x40 MLOAD PUSH32 0x8C379A000000000000000000000000000000000000000000000000000000000 DUP2 MSTORE PUSH1 0x4 ADD PUSH2 0x1236 SWAP1 PUSH2 0x216A JUMP JUMPDEST PUSH1 0x40 MLOAD DUP1 SWAP2 SUB SWAP1 REVERT JUMPDEST PUSH1 0x1 PUSH1 0x4 DUP2 GT ISZERO PUSH2 0x1253 JUMPI PUSH2 0x1252 PUSH2 0x1B85 JUMP JUMPDEST JUMPDEST DUP2 PUSH1 0x5 ADD PUSH1 0x0 SWAP1 SLOAD SWAP1 PUSH2 0x100 EXP SWAP1 DIV PUSH1 0xFF AND PUSH1 0x4 DUP2 GT ISZERO PUSH2 0x1277 JUMPI PUSH2 0x1276 PUSH2 0x1B85 JUMP JUMPDEST JUMPDEST EQ PUSH2 0x12B7 JUMPI PUSH1 0x40 MLOAD PUSH32 0x8C379A000000000000000000000000000000000000000000000000000000000 DUP2 MSTORE PUSH1 0x4 ADD PUSH2 0x12AE SWAP1 PUSH2 0x22AE JUMP JUMPDEST PUSH1 0x40 MLOAD DUP1 SWAP2 SUB SWAP1 REVERT JUMPDEST PUSH1 0x2 PUSH1 0x0 SWAP1 SLOAD SWAP1 PUSH2 0x100 EXP SWAP1 DIV PUSH20 0xFFFFFFFFFFFFFFFFFFFFFFFFFFFFFFFFFFFFFFFF AND PUSH20 0xFFFFFFFFFFFFFFFFFFFFFFFFFFFFFFFFFFFFFFFF AND PUSH4 0x3DDE315E DUP3 PUSH1 0x4 ADD SLOAD PUSH1 0x40 MLOAD DUP3 PUSH4 0xFFFFFFFF AND PUSH1 0xE0 SHL DUP2 MSTORE PUSH1 0x4 ADD PUSH2 0x1316 SWAP2 SWAP1 PUSH2 0x2936 JUMP JUMPDEST PUSH1 0x0 PUSH1 0x40 MLOAD DUP1 DUP4 SUB DUP2 PUSH1 0x0 DUP8 DUP1 EXTCODESIZE ISZERO DUP1 ISZERO PUSH2 0x1330 JUMPI PUSH1 0x0 DUP1 REVERT JUMPDEST POP GAS CALL ISZERO DUP1 ISZERO PUSH2 0x1344 JUMPI RETURNDATASIZE PUSH1 0x0 DUP1 RETURNDATACOPY RETURNDATASIZE PUSH1 0x0 REVERT JUMPDEST POP POP POP POP PUSH1 0x1 PUSH1 0x0 SWAP1 SLOAD SWAP1 PUSH2 0x100 EXP SWAP1 DIV PUSH20 0xFFFFFFFFFFFFFFFFFFFFFFFFFFFFFFFFFFFFFFFF AND PUSH20 0xFFFFFFFFFFFFFFFFFFFFFFFFFFFFFFFFFFFFFFFF AND PUSH4 0xCF0803E9 DUP3 PUSH1 0x2 ADD DUP5 PUSH1 0x0 PUSH1 0x1 PUSH1 0x40 MLOAD DUP6 PUSH4 0xFFFFFFFF AND PUSH1 0xE0 SHL DUP2 MSTORE PUSH1 0x4 ADD PUSH2 0x13AE SWAP5 SWAP4 SWAP3 SWAP2 SWAP1 PUSH2 0x244B JUMP JUMPDEST PUSH1 0x0 PUSH1 0x40 MLOAD DUP1 DUP4 SUB DUP2 PUSH1 0x0 DUP8 DUP1 EXTCODESIZE ISZERO DUP1 ISZERO PUSH2 0x13C8 JUMPI PUSH1 0x0 DUP1 REVERT JUMPDEST POP GAS CALL ISZERO DUP1 ISZERO PUSH2 0x13DC JUMPI RETURNDATASIZE PUSH1 0x0 DUP1 RETURNDATACOPY RETURNDATASIZE PUSH1 0x0 REVERT JUMPDEST POP POP POP POP PUSH1 0x0 DUP2 PUSH1 0x5 ADD PUSH1 0x0 SWAP1 SLOAD SWAP1 PUSH2 0x100 EXP SWAP1 DIV PUSH1 0xFF AND SWAP1 POP PUSH1 0x2 DUP3 PUSH1 0x5 ADD PUSH1 0x0 PUSH2 0x100 EXP DUP2 SLOAD DUP2 PUSH1 0xFF MUL NOT AND SWAP1 DUP4 PUSH1 0x4 DUP2 GT ISZERO PUSH2 0x141E JUMPI PUSH2 0x141D PUSH2 0x1B85 JUMP JUMPDEST JUMPDEST MUL OR SWAP1 SSTORE POP DUP4 PUSH1 0x40 MLOAD PUSH2 0x1431 SWAP2 SWAP1 PUSH2 0x2095 JUMP JUMPDEST PUSH1 0x40 MLOAD DUP1 SWAP2 SUB SWAP1 KECCAK256 PUSH32 0x9D90B27494F938A087A90248834B48353BB9436A76E90F1F37FCB8D3AE5DBD20 DUP3 DUP5 PUSH1 0x5 ADD PUSH1 0x0 SWAP1 SLOAD SWAP1 PUSH2 0x100 EXP SWAP1 DIV PUSH1 0xFF AND PUSH1 0x40 MLOAD PUSH2 0x147B SWAP3 SWAP2 SWAP1 PUSH2 0x24AD JUMP JUMPDEST PUSH1 0x40 MLOAD DUP1 SWAP2 SUB SWAP1 LOG2 POP POP POP POP JUMP JUMPDEST PUSH1 0x3 PUSH1 0x0 SWAP1 SLOAD SWAP1 PUSH2 0x100 EXP SWAP1 DIV PUSH20 0xFFFFFFFFFFFFFFFFFFFFFFFFFFFFFFFFFFFFFFFF AND PUSH20 0xFFFFFFFFFFFFFFFFFFFFFFFFFFFFFFFFFFFFFFFF AND CALLER PUSH20 0xFFFFFFFFFFFFFFFFFFFFFFFFFFFFFFFFFFFFFFFF AND EQ PUSH2 0x1519 JUMPI PUSH1 0x40 MLOAD PUSH32 0x8C379A000000000000000000000000000000000000000000000000000000000 DUP2 MSTORE PUSH1 0x4 ADD PUSH2 0x1510 SWAP1 PUSH2 0x21D6 JUMP JUMPDEST PUSH1 0x40 MLOAD DUP1 SWAP2 SUB SWAP1 REVERT JUMPDEST PUSH1 0x0 PUSH1 0x4 DUP3 PUSH1 0x40 MLOAD PUSH2 0x152B SWAP2 SWAP1 PUSH2 0x2095 JUMP JUMPDEST SWAP1 DUP2 MSTORE PUSH1 0x20 ADD PUSH1 0x40 MLOAD DUP1 SWAP2 SUB SWAP1 KECCAK256 SWAP1 POP DUP1 PUSH1 0x7 ADD PUSH1 0x0 SWAP1 SLOAD SWAP1 PUSH2 0x100 EXP SWAP1 DIV PUSH1 0xFF AND PUSH2 0x158C JUMPI PUSH1 0x40 MLOAD PUSH32 0x8C379A000000000000000000000000000000000000000000000000000000000 DUP2 MSTORE PUSH1 0x4 ADD PUSH2 0x1583 SWAP1 PUSH2 0x216A JUMP JUMPDEST PUSH1 0x40 MLOAD DUP1 SWAP2 SUB SWAP1 REVERT JUMPDEST PUSH1 0x1 PUSH1 0x4 DUP2 GT ISZERO PUSH2 0x15A0 JUMPI PUSH2 0x159F PUSH2 0x1B85 JUMP JUMPDEST JUMPDEST DUP2 PUSH1 0x5 ADD PUSH1 0x0 SWAP1 SLOAD SWAP1 PUSH2 0x100 EXP SWAP1 DIV PUSH1 0xFF AND PUSH1 0x4 DUP2 GT ISZERO PUSH2 0x15C4 JUMPI PUSH2 0x15C3 PUSH2 0x1B85 JUMP JUMPDEST JUMPDEST EQ DUP1 PUSH2 0x1605 JUMPI POP PUSH1 0x0 PUSH1 0x4 DUP2 GT ISZERO PUSH2 0x15DF JUMPI PUSH2 0x15DE PUSH2 0x1B85 JUMP JUMPDEST JUMPDEST DUP2 PUSH1 0x5 ADD PUSH1 0x0 SWAP1 SLOAD SWAP1 PUSH2 0x100 EXP SWAP1 DIV PUSH1 0xFF AND PUSH1 0x4 DUP2 GT ISZERO PUSH2 0x1603 JUMPI PUSH2 0x1602 PUSH2 0x1B85 JUMP JUMPDEST JUMPDEST EQ JUMPDEST PUSH2 0x1644 JUMPI PUSH1 0x40 MLOAD PUSH32 0x8C379A000000000000000000000000000000000000000000000000000000000 DUP2 MSTORE PUSH1 0x4 ADD PUSH2 0x163B SWAP1 PUSH2 0x2AA4 JUMP JUMPDEST PUSH1 0x40 MLOAD DUP1 SWAP2 SUB SWAP1 REVERT JUMPDEST PUSH1 0x0 DUP2 PUSH1 0x5 ADD PUSH1 0x0 SWAP1 SLOAD SWAP1 PUSH2 0x100 EXP SWAP1 DIV PUSH1 0xFF AND SWAP1 POP PUSH1 0x4 DUP3 PUSH1 0x5 ADD PUSH1 0x0 PUSH2 0x100 EXP DUP2 SLOAD DUP2 PUSH1 0xFF MUL NOT AND SWAP1 DUP4 PUSH1 0x4 DUP2 GT ISZERO PUSH2 0x1682 JUMPI PUSH2 0x1681 PUSH2 0x1B85 JUMP JUMPDEST JUMPDEST MUL OR SWAP1 SSTORE POP DUP3 PUSH1 0x40 MLOAD PUSH2 0x1695 SWAP2 SWAP1 PUSH2 0x2095 JUMP JUMPDEST PUSH1 0x40 MLOAD DUP1 SWAP2 SUB SWAP1 KECCAK256 PUSH32 0x9D90B27494F938A087A90248834B48353BB9436A76E90F1F37FCB8D3AE5DBD20 DUP3 DUP5 PUSH1 0x5 ADD PUSH1 0x0 SWAP1 SLOAD SWAP1 PUSH2 0x100 EXP SWAP1 DIV PUSH1 0xFF AND PUSH1 0x40 MLOAD PUSH2 0x16DF SWAP3 SWAP2 SWAP1 PUSH2 0x24AD JUMP JUMPDEST PUSH1 0x40 MLOAD DUP1 SWAP2 SUB SWAP1 LOG2 POP POP POP JUMP JUMPDEST PUSH1 0x3 PUSH1 0x0 SWAP1 SLOAD SWAP1 PUSH2 0x100 EXP SWAP1 DIV PUSH20 0xFFFFFFFFFFFFFFFFFFFFFFFFFFFFFFFFFFFFFFFF AND DUP2 JUMP JUMPDEST PUSH1 0x1 PUSH1 0x0 SWAP1 SLOAD SWAP1 PUSH2 0x100 EXP SWAP1 DIV PUSH20 0xFFFFFFFFFFFFFFFFFFFFFFFFFFFFFFFFFFFFFFFF AND DUP2 JUMP JUMPDEST PUSH1 0x40 MLOAD DUP1 PUSH2 0x100 ADD PUSH1 0x40 MSTORE DUP1 PUSH1 0x60 DUP2 MSTORE PUSH1 0x20 ADD PUSH1 0x0 PUSH20 0xFFFFFFFFFFFFFFFFFFFFFFFFFFFFFFFFFFFFFFFF AND DUP2 MSTORE PUSH1 0x20 ADD PUSH1 0x60 DUP2 MSTORE PUSH1 0x20 ADD PUSH1 0x60 DUP2 MSTORE PUSH1 0x20 ADD PUSH1 0x0 DUP2 MSTORE PUSH1 0x20 ADD PUSH1 0x0 PUSH1 0x4 DUP2 GT ISZERO PUSH2 0x1791 JUMPI PUSH2 0x1790 PUSH2 0x1B85 JUMP JUMPDEST JUMPDEST DUP2 MSTORE PUSH1 0x20 ADD PUSH1 0x0 DUP2 MSTORE PUSH1 0x20 ADD PUSH1 0x0 ISZERO ISZERO DUP2 MSTORE POP SWAP1 JUMP JUMPDEST DUP3 DUP1 SLOAD PUSH2 0x17B3 SWAP1 PUSH2 0x20DB JUMP JUMPDEST SWAP1 PUSH1 0x0 MSTORE PUSH1 0x20 PUSH1 0x0 KECCAK256 SWAP1 PUSH1 0x1F ADD PUSH1 0x20 SWAP1 DIV DUP2 ADD SWAP3 DUP3 PUSH2 0x17D5 JUMPI PUSH1 0x0 DUP6 SSTORE PUSH2 0x181C JUMP JUMPDEST DUP3 PUSH1 0x1F LT PUSH2 0x17EE JUMPI DUP1 MLOAD PUSH1 0xFF NOT AND DUP4 DUP1 ADD OR DUP6 SSTORE PUSH2 0x181C JUMP JUMPDEST DUP3 DUP1 ADD PUSH1 0x1 ADD DUP6 SSTORE DUP3 ISZERO PUSH2 0x181C JUMPI SWAP2 DUP3 ADD JUMPDEST DUP3 DUP2 GT ISZERO PUSH2 0x181B JUMPI DUP3 MLOAD DUP3 SSTORE SWAP2 PUSH1 0x20 ADD SWAP2 SWAP1 PUSH1 0x1 ADD SWAP1 PUSH2 0x1800 JUMP JUMPDEST JUMPDEST POP SWAP1 POP PUSH2 0x1829 SWAP2 SWAP1 PUSH2 0x182D JUMP JUMPDEST POP SWAP1 JUMP JUMPDEST JUMPDEST DUP1 DUP3 GT ISZERO PUSH2 0x1846 JUMPI PUSH1 0x0 DUP2 PUSH1 0x0 SWAP1 SSTORE POP PUSH1 0x1 ADD PUSH2 0x182E JUMP JUMPDEST POP SWAP1 JUMP JUMPDEST PUSH1 0x0 PUSH20 0xFFFFFFFFFFFFFFFFFFFFFFFFFFFFFFFFFFFFFFFF DUP3 AND SWAP1 POP SWAP2 SWAP1 POP JUMP JUMPDEST PUSH1 0x0 DUP2 SWAP1 POP SWAP2 SWAP1 POP JUMP JUMPDEST PUSH1 0x0 PUSH2 0x188F PUSH2 0x188A PUSH2 0x1885 DUP5 PUSH2 0x184A JUMP JUMPDEST PUSH2 0x186A JUMP JUMPDEST PUSH2 0x184A JUMP JUMPDEST SWAP1 POP SWAP2 SWAP1 POP JUMP JUMPDEST PUSH1 0x0 PUSH2 0x18A1 DUP3 PUSH2 0x1874 JUMP JUMPDEST SWAP1 POP SWAP2 SWAP1 POP JUMP JUMPDEST PUSH1 0x0 PUSH2 0x18B3 DUP3 PUSH2 0x1896 JUMP JUMPDEST SWAP1 POP SWAP2 SWAP1 POP JUMP JUMPDEST PUSH2 0x18C3 DUP2 PUSH2 0x18A8 JUMP JUMPDEST DUP3 MSTORE POP POP JUMP JUMPDEST PUSH1 0x0 PUSH1 0x20 DUP3 ADD SWAP1 POP PUSH2 0x18DE PUSH1 0x0 DUP4 ADD DUP5 PUSH2 0x18BA JUMP JUMPDEST SWAP3 SWAP2 POP POP JUMP JUMPDEST PUSH1 0x0 PUSH2 0x18EF DUP3 PUSH2 0x1896 JUMP JUMPDEST SWAP1 POP SWAP2 SWAP1 POP JUMP JUMPDEST PUSH2 0x18FF DUP2 PUSH2 0x18E4 JUMP JUMPDEST DUP3 MSTORE POP POP JUMP JUMPDEST PUSH1 0x0 PUSH1 0x20 DUP3 ADD SWAP1 POP PUSH2 0x191A PUSH1 0x0 DUP4 ADD DUP5 PUSH2 0x18F6 JUMP JUMPDEST SWAP3 SWAP2 POP POP JUMP JUMPDEST PUSH1 0x0 PUSH1 0x40 MLOAD SWAP1 POP SWAP1 JUMP JUMPDEST PUSH1 0x0 DUP1 REVERT JUMPDEST PUSH1 0x0 DUP1 REVERT JUMPDEST PUSH1 0x0 DUP1 REVERT JUMPDEST PUSH1 0x0 DUP1 REVERT JUMPDEST PUSH1 0x0 PUSH1 0x1F NOT PUSH1 0x1F DUP4 ADD AND SWAP1 POP SWAP2 SWAP1 POP JUMP JUMPDEST PUSH32 0x4E487B7100000000000000000000000000000000000000000000000000000000 PUSH1 0x0 MSTORE PUSH1 0x41 PUSH1 0x4 MSTORE PUSH1 0x24 PUSH1 0x0 REVERT JUMPDEST PUSH2 0x1987 DUP3 PUSH2 0x193E JUMP JUMPDEST DUP2 ADD DUP2 DUP2 LT PUSH8 0xFFFFFFFFFFFFFFFF DUP3 GT OR ISZERO PUSH2 0x19A6 JUMPI PUSH2 0x19A5 PUSH2 0x194F JUMP JUMPDEST JUMPDEST DUP1 PUSH1 0x40 MSTORE POP POP POP JUMP JUMPDEST PUSH1 0x0 PUSH2 0x19B9 PUSH2 0x1920 JUMP JUMPDEST SWAP1 POP PUSH2 0x19C5 DUP3 DUP3 PUSH2 0x197E JUMP JUMPDEST SWAP2 SWAP1 POP JUMP JUMPDEST PUSH1 0x0 PUSH8 0xFFFFFFFFFFFFFFFF DUP3 GT ISZERO PUSH2 0x19E5 JUMPI PUSH2 0x19E4 PUSH2 0x194F JUMP JUMPDEST JUMPDEST PUSH2 0x19EE DUP3 PUSH2 0x193E JUMP JUMPDEST SWAP1 POP PUSH1 0x20 DUP2 ADD SWAP1 POP SWAP2 SWAP1 POP JUMP JUMPDEST DUP3 DUP2 DUP4 CALLDATACOPY PUSH1 0x0 DUP4 DUP4 ADD MSTORE POP POP POP JUMP JUMPDEST PUSH1 0x0 PUSH2 0x1A1D PUSH2 0x1A18 DUP5 PUSH2 0x19CA JUMP JUMPDEST PUSH2 0x19AF JUMP JUMPDEST SWAP1 POP DUP3 DUP2 MSTORE PUSH1 0x20 DUP2 ADD DUP5 DUP5 DUP5 ADD GT ISZERO PUSH2 0x1A39 JUMPI PUSH2 0x1A38 PUSH2 0x1939 JUMP JUMPDEST JUMPDEST PUSH2 0x1A44 DUP5 DUP3 DUP6 PUSH2 0x19FB JUMP JUMPDEST POP SWAP4 SWAP3 POP POP POP JUMP JUMPDEST PUSH1 0x0 DUP3 PUSH1 0x1F DUP4 ADD SLT PUSH2 0x1A61 JUMPI PUSH2 0x1A60 PUSH2 0x1934 JUMP JUMPDEST JUMPDEST DUP2 CALLDATALOAD PUSH2 0x1A71 DUP5 DUP3 PUSH1 0x20 DUP7 ADD PUSH2 0x1A0A JUMP JUMPDEST SWAP2 POP POP SWAP3 SWAP2 POP POP JUMP JUMPDEST PUSH1 0x0 PUSH1 0x20 DUP3 DUP5 SUB SLT ISZERO PUSH2 0x1A90 JUMPI PUSH2 0x1A8F PUSH2 0x192A JUMP JUMPDEST JUMPDEST PUSH1 0x0 DUP3 ADD CALLDATALOAD PUSH8 0xFFFFFFFFFFFFFFFF DUP2 GT ISZERO PUSH2 0x1AAE JUMPI PUSH2 0x1AAD PUSH2 0x192F JUMP JUMPDEST JUMPDEST PUSH2 0x1ABA DUP5 DUP3 DUP6 ADD PUSH2 0x1A4C JUMP JUMPDEST SWAP2 POP POP SWAP3 SWAP2 POP POP JUMP JUMPDEST PUSH1 0x0 DUP2 MLOAD SWAP1 POP SWAP2 SWAP1 POP JUMP JUMPDEST PUSH1 0x0 DUP3 DUP3 MSTORE PUSH1 0x20 DUP3 ADD SWAP1 POP SWAP3 SWAP2 POP POP JUMP JUMPDEST PUSH1 0x0 JUMPDEST DUP4 DUP2 LT ISZERO PUSH2 0x1AFD JUMPI DUP1 DUP3 ADD MLOAD DUP2 DUP5 ADD MSTORE PUSH1 0x20 DUP2 ADD SWAP1 POP PUSH2 0x1AE2 JUMP JUMPDEST DUP4 DUP2 GT ISZERO PUSH2 0x1B0C JUMPI PUSH1 0x0 DUP5 DUP5 ADD MSTORE JUMPDEST POP POP POP POP JUMP JUMPDEST PUSH1 0x0 PUSH2 0x1B1D DUP3 PUSH2 0x1AC3 JUMP JUMPDEST PUSH2 0x1B27 DUP2 DUP6 PUSH2 0x1ACE JUMP JUMPDEST SWAP4 POP PUSH2 0x1B37 DUP2 DUP6 PUSH1 0x20 DUP7 ADD PUSH2 0x1ADF JUMP JUMPDEST PUSH2 0x1B40 DUP2 PUSH2 0x193E JUMP JUMPDEST DUP5 ADD SWAP2 POP POP SWAP3 SWAP2 POP POP JUMP JUMPDEST PUSH1 0x0 PUSH2 0x1B56 DUP3 PUSH2 0x184A JUMP JUMPDEST SWAP1 POP SWAP2 SWAP1 POP JUMP JUMPDEST PUSH2 0x1B66 DUP2 PUSH2 0x1B4B JUMP JUMPDEST DUP3 MSTORE POP POP JUMP JUMPDEST PUSH1 0x0 DUP2 SWAP1 POP SWAP2 SWAP1 POP JUMP JUMPDEST PUSH2 0x1B7F DUP2 PUSH2 0x1B6C JUMP JUMPDEST DUP3 MSTORE POP POP JUMP JUMPDEST PUSH32 0x4E487B7100000000000000000000000000000000000000000000000000000000 PUSH1 0x0 MSTORE PUSH1 0x21 PUSH1 0x4 MSTORE PUSH1 0x24 PUSH1 0x0 REVERT JUMPDEST PUSH1 0x5 DUP2 LT PUSH2 0x1BC5 JUMPI PUSH2 0x1BC4 PUSH2 0x1B85 JUMP JUMPDEST JUMPDEST POP JUMP JUMPDEST PUSH1 0x0 DUP2 SWAP1 POP PUSH2 0x1BD6 DUP3 PUSH2 0x1BB4 JUMP JUMPDEST SWAP2 SWAP1 POP JUMP JUMPDEST PUSH1 0x0 PUSH2 0x1BE6 DUP3 PUSH2 0x1BC8 JUMP JUMPDEST SWAP1 POP SWAP2 SWAP1 POP JUMP JUMPDEST PUSH2 0x1BF6 DUP2 PUSH2 0x1BDB JUMP JUMPDEST DUP3 MSTORE POP POP JUMP JUMPDEST PUSH1 0x0 DUP2 ISZERO ISZERO SWAP1 POP SWAP2 SWAP1 POP JUMP JUMPDEST PUSH2 0x1C11 DUP2 PUSH2 0x1BFC JUMP JUMPDEST DUP3 MSTORE POP POP JUMP JUMPDEST PUSH1 0x0 PUSH2 0x100 DUP4 ADD PUSH1 0x0 DUP4 ADD MLOAD DUP5 DUP3 SUB PUSH1 0x0 DUP7 ADD MSTORE PUSH2 0x1C35 DUP3 DUP3 PUSH2 0x1B12 JUMP JUMPDEST SWAP2 POP POP PUSH1 0x20 DUP4 ADD MLOAD PUSH2 0x1C4A PUSH1 0x20 DUP7 ADD DUP3 PUSH2 0x1B5D JUMP JUMPDEST POP PUSH1 0x40 DUP4 ADD MLOAD DUP5 DUP3 SUB PUSH1 0x40 DUP7 ADD MSTORE PUSH2 0x1C62 DUP3 DUP3 PUSH2 0x1B12 JUMP JUMPDEST SWAP2 POP POP PUSH1 0x60 DUP4 ADD MLOAD DUP5 DUP3 SUB PUSH1 0x60 DUP7 ADD MSTORE PUSH2 0x1C7C DUP3 DUP3 PUSH2 0x1B12 JUMP JUMPDEST SWAP2 POP POP PUSH1 0x80 DUP4 ADD MLOAD PUSH2 0x1C91 PUSH1 0x80 DUP7 ADD DUP3 PUSH2 0x1B76 JUMP JUMPDEST POP PUSH1 0xA0 DUP4 ADD MLOAD PUSH2 0x1CA4 PUSH1 0xA0 DUP7 ADD DUP3 PUSH2 0x1BED JUMP JUMPDEST POP PUSH1 0xC0 DUP4 ADD MLOAD PUSH2 0x1CB7 PUSH1 0xC0 DUP7 ADD DUP3 PUSH2 0x1B76 JUMP JUMPDEST POP PUSH1 0xE0 DUP4 ADD MLOAD PUSH2 0x1CCA PUSH1 0xE0 DUP7 ADD DUP3 PUSH2 0x1C08 JUMP JUMPDEST POP DUP1 SWAP2 POP POP SWAP3 SWAP2 POP POP JUMP JUMPDEST PUSH1 0x0 PUSH1 0x20 DUP3 ADD SWAP1 POP DUP2 DUP2 SUB PUSH1 0x0 DUP4 ADD MSTORE PUSH2 0x1CEF DUP2 DUP5 PUSH2 0x1C17 JUMP JUMPDEST SWAP1 POP SWAP3 SWAP2 POP POP JUMP JUMPDEST PUSH2 0x1D00 DUP2 PUSH2 0x1B4B JUMP JUMPDEST DUP2 EQ PUSH2 0x1D0B JUMPI PUSH1 0x0 DUP1 REVERT JUMPDEST POP JUMP JUMPDEST PUSH1 0x0 DUP2 CALLDATALOAD SWAP1 POP PUSH2 0x1D1D DUP2 PUSH2 0x1CF7 JUMP JUMPDEST SWAP3 SWAP2 POP POP JUMP JUMPDEST PUSH1 0x0 PUSH1 0x20 DUP3 DUP5 SUB SLT ISZERO PUSH2 0x1D39 JUMPI PUSH2 0x1D38 PUSH2 0x192A JUMP JUMPDEST JUMPDEST PUSH1 0x0 PUSH2 0x1D47 DUP5 DUP3 DUP6 ADD PUSH2 0x1D0E JUMP JUMPDEST SWAP2 POP POP SWAP3 SWAP2 POP POP JUMP JUMPDEST PUSH1 0x0 PUSH8 0xFFFFFFFFFFFFFFFF DUP3 GT ISZERO PUSH2 0x1D6B JUMPI PUSH2 0x1D6A PUSH2 0x194F JUMP JUMPDEST JUMPDEST PUSH2 0x1D74 DUP3 PUSH2 0x193E JUMP JUMPDEST SWAP1 POP PUSH1 0x20 DUP2 ADD SWAP1 POP SWAP2 SWAP1 POP JUMP JUMPDEST PUSH1 0x0 PUSH2 0x1D94 PUSH2 0x1D8F DUP5 PUSH2 0x1D50 JUMP JUMPDEST PUSH2 0x19AF JUMP JUMPDEST SWAP1 POP DUP3 DUP2 MSTORE PUSH1 0x20 DUP2 ADD DUP5 DUP5 DUP5 ADD GT ISZERO PUSH2 0x1DB0 JUMPI PUSH2 0x1DAF PUSH2 0x1939 JUMP JUMPDEST JUMPDEST PUSH2 0x1DBB DUP5 DUP3 DUP6 PUSH2 0x19FB JUMP JUMPDEST POP SWAP4 SWAP3 POP POP POP JUMP JUMPDEST PUSH1 0x0 DUP3 PUSH1 0x1F DUP4 ADD SLT PUSH2 0x1DD8 JUMPI PUSH2 0x1DD7 PUSH2 0x1934 JUMP JUMPDEST JUMPDEST DUP2 CALLDATALOAD PUSH2 0x1DE8 DUP5 DUP3 PUSH1 0x20 DUP7 ADD PUSH2 0x1D81 JUMP JUMPDEST SWAP2 POP POP SWAP3 SWAP2 POP POP JUMP JUMPDEST PUSH1 0x0 DUP1 PUSH1 0x40 DUP4 DUP6 SUB SLT ISZERO PUSH2 0x1E08 JUMPI PUSH2 0x1E07 PUSH2 0x192A JUMP JUMPDEST JUMPDEST PUSH1 0x0 DUP4 ADD CALLDATALOAD PUSH8 0xFFFFFFFFFFFFFFFF DUP2 GT ISZERO PUSH2 0x1E26 JUMPI PUSH2 0x1E25 PUSH2 0x192F JUMP JUMPDEST JUMPDEST PUSH2 0x1E32 DUP6 DUP3 DUP7 ADD PUSH2 0x1A4C JUMP JUMPDEST SWAP3 POP POP PUSH1 0x20 DUP4 ADD CALLDATALOAD PUSH8 0xFFFFFFFFFFFFFFFF DUP2 GT ISZERO PUSH2 0x1E53 JUMPI PUSH2 0x1E52 PUSH2 0x192F JUMP JUMPDEST JUMPDEST PUSH2 0x1E5F DUP6 DUP3 DUP7 ADD PUSH2 0x1DC3 JUMP JUMPDEST SWAP2 POP POP SWAP3 POP SWAP3 SWAP1 POP JUMP JUMPDEST PUSH2 0x1E72 DUP2 PUSH2 0x1B6C JUMP JUMPDEST DUP2 EQ PUSH2 0x1E7D JUMPI PUSH1 0x0 DUP1 REVERT JUMPDEST POP JUMP JUMPDEST PUSH1 0x0 DUP2 CALLDATALOAD SWAP1 POP PUSH2 0x1E8F DUP2 PUSH2 0x1E69 JUMP JUMPDEST SWAP3 SWAP2 POP POP JUMP JUMPDEST PUSH1 0x0 DUP1 PUSH1 0x0 DUP1 PUSH1 0x0 DUP1 PUSH1 0x0 DUP1 PUSH2 0x100 DUP10 DUP12 SUB SLT ISZERO PUSH2 0x1EB6 JUMPI PUSH2 0x1EB5 PUSH2 0x192A JUMP JUMPDEST JUMPDEST PUSH1 0x0 DUP10 ADD CALLDATALOAD PUSH8 0xFFFFFFFFFFFFFFFF DUP2 GT ISZERO PUSH2 0x1ED4 JUMPI PUSH2 0x1ED3 PUSH2 0x192F JUMP JUMPDEST JUMPDEST PUSH2 0x1EE0 DUP12 DUP3 DUP13 ADD PUSH2 0x1A4C JUMP JUMPDEST SWAP9 POP POP PUSH1 0x20 PUSH2 0x1EF1 DUP12 DUP3 DUP13 ADD PUSH2 0x1D0E JUMP JUMPDEST SWAP8 POP POP PUSH1 0x40 DUP10 ADD CALLDATALOAD PUSH8 0xFFFFFFFFFFFFFFFF DUP2 GT ISZERO PUSH2 0x1F12 JUMPI PUSH2 0x1F11 PUSH2 0x192F JUMP JUMPDEST JUMPDEST PUSH2 0x1F1E DUP12 DUP3 DUP13 ADD PUSH2 0x1A4C JUMP JUMPDEST SWAP7 POP POP PUSH1 0x60 DUP10 ADD CALLDATALOAD PUSH8 0xFFFFFFFFFFFFFFFF DUP2 GT ISZERO PUSH2 0x1F3F JUMPI PUSH2 0x1F3E PUSH2 0x192F JUMP JUMPDEST JUMPDEST PUSH2 0x1F4B DUP12 DUP3 DUP13 ADD PUSH2 0x1A4C JUMP JUMPDEST SWAP6 POP POP PUSH1 0x80 PUSH2 0x1F5C DUP12 DUP3 DUP13 ADD PUSH2 0x1E80 JUMP JUMPDEST SWAP5 POP POP PUSH1 0xA0 DUP10 ADD CALLDATALOAD PUSH8 0xFFFFFFFFFFFFFFFF DUP2 GT ISZERO PUSH2 0x1F7D JUMPI PUSH2 0x1F7C PUSH2 0x192F JUMP JUMPDEST JUMPDEST PUSH2 0x1F89 DUP12 DUP3 DUP13 ADD PUSH2 0x1DC3 JUMP JUMPDEST SWAP4 POP POP PUSH1 0xC0 DUP10 ADD CALLDATALOAD PUSH8 0xFFFFFFFFFFFFFFFF DUP2 GT ISZERO PUSH2 0x1FAA JUMPI PUSH2 0x1FA9 PUSH2 0x192F JUMP JUMPDEST JUMPDEST PUSH2 0x1FB6 DUP12 DUP3 DUP13 ADD PUSH2 0x1DC3 JUMP JUMPDEST SWAP3 POP POP PUSH1 0xE0 DUP10 ADD CALLDATALOAD PUSH8 0xFFFFFFFFFFFFFFFF DUP2 GT ISZERO PUSH2 0x1FD7 JUMPI PUSH2 0x1FD6 PUSH2 0x192F JUMP JUMPDEST JUMPDEST PUSH2 0x1FE3 DUP12 DUP3 DUP13 ADD PUSH2 0x1DC3 JUMP JUMPDEST SWAP2 POP POP SWAP3 SWAP6 SWAP9 POP SWAP3 SWAP6 SWAP9 SWAP1 SWAP4 SWAP7 POP JUMP JUMPDEST PUSH2 0x1FFC DUP2 PUSH2 0x1B4B JUMP JUMPDEST DUP3 MSTORE POP POP JUMP JUMPDEST PUSH1 0x0 PUSH1 0x20 DUP3 ADD SWAP1 POP PUSH2 0x2017 PUSH1 0x0 DUP4 ADD DUP5 PUSH2 0x1FF3 JUMP JUMPDEST SWAP3 SWAP2 POP POP JUMP JUMPDEST PUSH1 0x0 PUSH2 0x2028 DUP3 PUSH2 0x1896 JUMP JUMPDEST SWAP1 POP SWAP2 SWAP1 POP JUMP JUMPDEST PUSH2 0x2038 DUP2 PUSH2 0x201D JUMP JUMPDEST DUP3 MSTORE POP POP JUMP JUMPDEST PUSH1 0x0 PUSH1 0x20 DUP3 ADD SWAP1 POP PUSH2 0x2053 PUSH1 0x0 DUP4 ADD DUP5 PUSH2 0x202F JUMP JUMPDEST SWAP3 SWAP2 POP POP JUMP JUMPDEST PUSH1 0x0 DUP2 SWAP1 POP SWAP3 SWAP2 POP POP JUMP JUMPDEST PUSH1 0x0 PUSH2 0x206F DUP3 PUSH2 0x1AC3 JUMP JUMPDEST PUSH2 0x2079 DUP2 DUP6 PUSH2 0x2059 JUMP JUMPDEST SWAP4 POP PUSH2 0x2089 DUP2 DUP6 PUSH1 0x20 DUP7 ADD PUSH2 0x1ADF JUMP JUMPDEST DUP1 DUP5 ADD SWAP2 POP POP SWAP3 SWAP2 POP POP JUMP JUMPDEST PUSH1 0x0 PUSH2 0x20A1 DUP3 DUP5 PUSH2 0x2064 JUMP JUMPDEST SWAP2 POP DUP2 SWAP1 POP SWAP3 SWAP2 POP POP JUMP JUMPDEST PUSH32 0x4E487B7100000000000000000000000000000000000000000000000000000000 PUSH1 0x0 MSTORE PUSH1 0x22 PUSH1 0x4 MSTORE PUSH1 0x24 PUSH1 0x0 REVERT JUMPDEST PUSH1 0x0 PUSH1 0x2 DUP3 DIV SWAP1 POP PUSH1 0x1 DUP3 AND DUP1 PUSH2 0x20F3 JUMPI PUSH1 0x7F DUP3 AND SWAP2 POP JUMPDEST PUSH1 0x20 DUP3 LT DUP2 EQ ISZERO PUSH2 0x2107 JUMPI PUSH2 0x2106 PUSH2 0x20AC JUMP JUMPDEST JUMPDEST POP SWAP2 SWAP1 POP JUMP JUMPDEST PUSH1 0x0 DUP3 DUP3 MSTORE PUSH1 0x20 DUP3 ADD SWAP1 POP SWAP3 SWAP2 POP POP JUMP JUMPDEST PUSH32 0x54726970206E6F20656E636F6E74726164610000000000000000000000000000 PUSH1 0x0 DUP3 ADD MSTORE POP JUMP JUMPDEST PUSH1 0x0 PUSH2 0x2154 PUSH1 0x12 DUP4 PUSH2 0x210D JUMP JUMPDEST SWAP2 POP PUSH2 0x215F DUP3 PUSH2 0x211E JUMP JUMPDEST PUSH1 0x20 DUP3 ADD SWAP1 POP SWAP2 SWAP1 POP JUMP JUMPDEST PUSH1 0x0 PUSH1 0x20 DUP3 ADD SWAP1 POP DUP2 DUP2 SUB PUSH1 0x0 DUP4 ADD MSTORE PUSH2 0x2183 DUP2 PUSH2 0x2147 JUMP JUMPDEST SWAP1 POP SWAP2 SWAP1 POP JUMP JUMPDEST PUSH32 0x4E6F206175746F72697A61646F3A20736F6C6F2061646D696E00000000000000 PUSH1 0x0 DUP3 ADD MSTORE POP JUMP JUMPDEST PUSH1 0x0 PUSH2 0x21C0 PUSH1 0x19 DUP4 PUSH2 0x210D JUMP JUMPDEST SWAP2 POP PUSH2 0x21CB DUP3 PUSH2 0x218A JUMP JUMPDEST PUSH1 0x20 DUP3 ADD SWAP1 POP SWAP2 SWAP1 POP JUMP JUMPDEST PUSH1 0x0 PUSH1 0x20 DUP3 ADD SWAP1 POP DUP2 DUP2 SUB PUSH1 0x0 DUP4 ADD MSTORE PUSH2 0x21EF DUP2 PUSH2 0x21B3 JUMP JUMPDEST SWAP1 POP SWAP2 SWAP1 POP JUMP JUMPDEST PUSH32 0x41646D696E20696E76616C69646F000000000000000000000000000000000000 PUSH1 0x0 DUP3 ADD MSTORE POP JUMP JUMPDEST PUSH1 0x0 PUSH2 0x222C PUSH1 0xE DUP4 PUSH2 0x210D JUMP JUMPDEST SWAP2 POP PUSH2 0x2237 DUP3 PUSH2 0x21F6 JUMP JUMPDEST PUSH1 0x20 DUP3 ADD SWAP1 POP SWAP2 SWAP1 POP JUMP JUMPDEST PUSH1 0x0 PUSH1 0x20 DUP3 ADD SWAP1 POP DUP2 DUP2 SUB PUSH1 0x0 DUP4 ADD MSTORE PUSH2 0x225B DUP2 PUSH2 0x221F JUMP JUMPDEST SWAP1 POP SWAP2 SWAP1 POP JUMP JUMPDEST PUSH32 0x45737461646F206465207472697020696E76616C69646F000000000000000000 PUSH1 0x0 DUP3 ADD MSTORE POP JUMP JUMPDEST PUSH1 0x0 PUSH2 0x2298 PUSH1 0x17 DUP4 PUSH2 0x210D JUMP JUMPDEST SWAP2 POP PUSH2 0x22A3 DUP3 PUSH2 0x2262 JUMP JUMPDEST PUSH1 0x20 DUP3 ADD SWAP1 POP SWAP2 SWAP1 POP JUMP JUMPDEST PUSH1 0x0 PUSH1 0x20 DUP3 ADD SWAP1 POP DUP2 DUP2 SUB PUSH1 0x0 DUP4 ADD MSTORE PUSH2 0x22C7 DUP2 PUSH2 0x228B JUMP JUMPDEST SWAP1 POP SWAP2 SWAP1 POP JUMP JUMPDEST PUSH2 0x22D7 DUP2 PUSH2 0x1B6C JUMP JUMPDEST DUP3 MSTORE POP POP JUMP JUMPDEST PUSH1 0x0 DUP2 SWAP1 POP DUP2 PUSH1 0x0 MSTORE PUSH1 0x20 PUSH1 0x0 KECCAK256 SWAP1 POP SWAP2 SWAP1 POP JUMP JUMPDEST PUSH1 0x0 DUP2 SLOAD PUSH2 0x22FF DUP2 PUSH2 0x20DB JUMP JUMPDEST PUSH2 0x2309 DUP2 DUP7 PUSH2 0x210D JUMP JUMPDEST SWAP5 POP PUSH1 0x1 DUP3 AND PUSH1 0x0 DUP2 EQ PUSH2 0x2324 JUMPI PUSH1 0x1 DUP2 EQ PUSH2 0x2336 JUMPI PUSH2 0x2369 JUMP JUMPDEST PUSH1 0xFF NOT DUP4 AND DUP7 MSTORE PUSH1 0x20 DUP7 ADD SWAP4 POP PUSH2 0x2369 JUMP JUMPDEST PUSH2 0x233F DUP6 PUSH2 0x22DD JUMP JUMPDEST PUSH1 0x0 JUMPDEST DUP4 DUP2 LT ISZERO PUSH2 0x2361 JUMPI DUP2 SLOAD DUP2 DUP10 ADD MSTORE PUSH1 0x1 DUP3 ADD SWAP2 POP PUSH1 0x20 DUP2 ADD SWAP1 POP PUSH2 0x2342 JUMP JUMPDEST DUP1 DUP9 ADD SWAP6 POP POP POP JUMPDEST POP POP POP SWAP3 SWAP2 POP POP JUMP JUMPDEST PUSH1 0x0 PUSH1 0x40 DUP3 ADD SWAP1 POP PUSH2 0x2387 PUSH1 0x0 DUP4 ADD DUP6 PUSH2 0x22CE JUMP JUMPDEST DUP2 DUP2 SUB PUSH1 0x20 DUP4 ADD MSTORE PUSH2 0x2399 DUP2 DUP5 PUSH2 0x22F2 JUMP JUMPDEST SWAP1 POP SWAP4 SWAP3 POP POP POP JUMP JUMPDEST PUSH1 0x0 DUP2 MLOAD SWAP1 POP SWAP2 SWAP1 POP JUMP JUMPDEST PUSH1 0x0 DUP3 DUP3 MSTORE PUSH1 0x20 DUP3 ADD SWAP1 POP SWAP3 SWAP2 POP POP JUMP JUMPDEST PUSH1 0x0 PUSH2 0x23C9 DUP3 PUSH2 0x23A2 JUMP JUMPDEST PUSH2 0x23D3 DUP2 DUP6 PUSH2 0x23AD JUMP JUMPDEST SWAP4 POP PUSH2 0x23E3 DUP2 DUP6 PUSH1 0x20 DUP7 ADD PUSH2 0x1ADF JUMP JUMPDEST PUSH2 0x23EC DUP2 PUSH2 0x193E JUMP JUMPDEST DUP5 ADD SWAP2 POP POP SWAP3 SWAP2 POP POP JUMP JUMPDEST PUSH1 0x0 DUP2 SWAP1 POP SWAP2 SWAP1 POP JUMP JUMPDEST PUSH1 0x0 DUP2 SWAP1 POP SWAP2 SWAP1 POP JUMP JUMPDEST PUSH1 0x0 PUSH2 0x2426 PUSH2 0x2421 PUSH2 0x241C DUP5 PUSH2 0x23F7 JUMP JUMPDEST PUSH2 0x186A JUMP JUMPDEST PUSH2 0x2401 JUMP JUMPDEST SWAP1 POP SWAP2 SWAP1 POP JUMP JUMPDEST PUSH2 0x2436 DUP2 PUSH2 0x240B JUMP JUMPDEST DUP3 MSTORE POP POP JUMP JUMPDEST PUSH2 0x2445 DUP2 PUSH2 0x2401 JUMP JUMPDEST DUP3 MSTORE POP POP JUMP JUMPDEST PUSH1 0x0 PUSH1 0x80 DUP3 ADD SWAP1 POP DUP2 DUP2 SUB PUSH1 0x0 DUP4 ADD MSTORE PUSH2 0x2465 DUP2 DUP8 PUSH2 0x22F2 JUMP JUMPDEST SWAP1 POP DUP2 DUP2 SUB PUSH1 0x20 DUP4 ADD MSTORE PUSH2 0x2479 DUP2 DUP7 PUSH2 0x23BE JUMP JUMPDEST SWAP1 POP PUSH2 0x2488 PUSH1 0x40 DUP4 ADD DUP6 PUSH2 0x242D JUMP JUMPDEST PUSH2 0x2495 PUSH1 0x60 DUP4 ADD DUP5 PUSH2 0x243C JUMP JUMPDEST SWAP6 SWAP5 POP POP POP POP POP JUMP JUMPDEST PUSH2 0x24A7 DUP2 PUSH2 0x1BDB JUMP JUMPDEST DUP3 MSTORE POP POP JUMP JUMPDEST PUSH1 0x0 PUSH1 0x40 DUP3 ADD SWAP1 POP PUSH2 0x24C2 PUSH1 0x0 DUP4 ADD DUP6 PUSH2 0x249E JUMP JUMPDEST PUSH2 0x24CF PUSH1 0x20 DUP4 ADD DUP5 PUSH2 0x249E JUMP JUMPDEST SWAP4 SWAP3 POP POP POP JUMP JUMPDEST PUSH32 0x74726970496420766163696F0000000000000000000000000000000000000000 PUSH1 0x0 DUP3 ADD MSTORE POP JUMP JUMPDEST PUSH1 0x0 PUSH2 0x250C PUSH1 0xC DUP4 PUSH2 0x210D JUMP JUMPDEST SWAP2 POP PUSH2 0x2517 DUP3 PUSH2 0x24D6 JUMP JUMPDEST PUSH1 0x20 DUP3 ADD SWAP1 POP SWAP2 SWAP1 POP JUMP JUMPDEST PUSH1 0x0 PUSH1 0x20 DUP3 ADD SWAP1 POP DUP2 DUP2 SUB PUSH1 0x0 DUP4 ADD MSTORE PUSH2 0x253B DUP2 PUSH2 0x24FF JUMP JUMPDEST SWAP1 POP SWAP2 SWAP1 POP JUMP JUMPDEST PUSH32 0x5472697020796120657869737465000000000000000000000000000000000000 PUSH1 0x0 DUP3 ADD MSTORE POP JUMP JUMPDEST PUSH1 0x0 PUSH2 0x2578 PUSH1 0xE DUP4 PUSH2 0x210D JUMP JUMPDEST SWAP2 POP PUSH2 0x2583 DUP3 PUSH2 0x2542 JUMP JUMPDEST PUSH1 0x20 DUP3 ADD SWAP1 POP SWAP2 SWAP1 POP JUMP JUMPDEST PUSH1 0x0 PUSH1 0x20 DUP3 ADD SWAP1 POP DUP2 DUP2 SUB PUSH1 0x0 DUP4 ADD MSTORE PUSH2 0x25A7 DUP2 PUSH2 0x256B JUMP JUMPDEST SWAP1 POP SWAP2 SWAP1 POP JUMP JUMPDEST PUSH32 0x526964657220696E76616C69646F000000000000000000000000000000000000 PUSH1 0x0 DUP3 ADD MSTORE POP JUMP JUMPDEST PUSH1 0x0 PUSH2 0x25E4 PUSH1 0xE DUP4 PUSH2 0x210D JUMP JUMPDEST SWAP2 POP PUSH2 0x25EF DUP3 PUSH2 0x25AE JUMP JUMPDEST PUSH1 0x20 DUP3 ADD SWAP1 POP SWAP2 SWAP1 POP JUMP JUMPDEST PUSH1 0x0 PUSH1 0x20 DUP3 ADD SWAP1 POP DUP2 DUP2 SUB PUSH1 0x0 DUP4 ADD MSTORE PUSH2 0x2613 DUP2 PUSH2 0x25D7 JUMP JUMPDEST SWAP1 POP SWAP2 SWAP1 POP JUMP JUMPDEST PUSH32 0x4F726967656E20766163696F0000000000000000000000000000000000000000 PUSH1 0x0 DUP3 ADD MSTORE POP JUMP JUMPDEST PUSH1 0x0 PUSH2 0x2650 PUSH1 0xC DUP4 PUSH2 0x210D JUMP JUMPDEST SWAP2 POP PUSH2 0x265B DUP3 PUSH2 0x261A JUMP JUMPDEST PUSH1 0x20 DUP3 ADD SWAP1 POP SWAP2 SWAP1 POP JUMP JUMPDEST PUSH1 0x0 PUSH1 0x20 DUP3 ADD SWAP1 POP DUP2 DUP2 SUB PUSH1 0x0 DUP4 ADD MSTORE PUSH2 0x267F DUP2 PUSH2 0x2643 JUMP JUMPDEST SWAP1 POP SWAP2 SWAP1 POP JUMP JUMPDEST PUSH32 0x44657374696E6F20766163696F00000000000000000000000000000000000000 PUSH1 0x0 DUP3 ADD MSTORE POP JUMP JUMPDEST PUSH1 0x0 PUSH2 0x26BC PUSH1 0xD DUP4 PUSH2 0x210D JUMP JUMPDEST SWAP2 POP PUSH2 0x26C7 DUP3 PUSH2 0x2686 JUMP JUMPDEST PUSH1 0x20 DUP3 ADD SWAP1 POP SWAP2 SWAP1 POP JUMP JUMPDEST PUSH1 0x0 PUSH1 0x20 DUP3 ADD SWAP1 POP DUP2 DUP2 SUB PUSH1 0x0 DUP4 ADD MSTORE PUSH2 0x26EB DUP2 PUSH2 0x26AF JUMP JUMPDEST SWAP1 POP SWAP2 SWAP1 POP JUMP JUMPDEST PUSH32 0x4556544F4C20696E76616C69646F000000000000000000000000000000000000 PUSH1 0x0 DUP3 ADD MSTORE POP JUMP JUMPDEST PUSH1 0x0 PUSH2 0x2728 PUSH1 0xE DUP4 PUSH2 0x210D JUMP JUMPDEST SWAP2 POP PUSH2 0x2733 DUP3 PUSH2 0x26F2 JUMP JUMPDEST PUSH1 0x20 DUP3 ADD SWAP1 POP SWAP2 SWAP1 POP JUMP JUMPDEST PUSH1 0x0 PUSH1 0x20 DUP3 ADD SWAP1 POP DUP2 DUP2 SUB PUSH1 0x0 DUP4 ADD MSTORE PUSH2 0x2757 DUP2 PUSH2 0x271B JUMP JUMPDEST SWAP1 POP SWAP2 SWAP1 POP JUMP JUMPDEST PUSH2 0x2767 DUP2 PUSH2 0x1BFC JUMP JUMPDEST DUP2 EQ PUSH2 0x2772 JUMPI PUSH1 0x0 DUP1 REVERT JUMPDEST POP JUMP JUMPDEST PUSH1 0x0 DUP2 MLOAD SWAP1 POP PUSH2 0x2784 DUP2 PUSH2 0x275E JUMP JUMPDEST SWAP3 SWAP2 POP POP JUMP JUMPDEST PUSH1 0x0 PUSH1 0x20 DUP3 DUP5 SUB SLT ISZERO PUSH2 0x27A0 JUMPI PUSH2 0x279F PUSH2 0x192A JUMP JUMPDEST JUMPDEST PUSH1 0x0 PUSH2 0x27AE DUP5 DUP3 DUP6 ADD PUSH2 0x2775 JUMP JUMPDEST SWAP2 POP POP SWAP3 SWAP2 POP POP JUMP JUMPDEST PUSH32 0x5573756172696F206E6F206175746F72697A61646F2070617261207265736572 PUSH1 0x0 DUP3 ADD MSTORE PUSH32 0x7661720000000000000000000000000000000000000000000000000000000000 PUSH1 0x20 DUP3 ADD MSTORE POP JUMP JUMPDEST PUSH1 0x0 PUSH2 0x2813 PUSH1 0x23 DUP4 PUSH2 0x210D JUMP JUMPDEST SWAP2 POP PUSH2 0x281E DUP3 PUSH2 0x27B7 JUMP JUMPDEST PUSH1 0x40 DUP3 ADD SWAP1 POP SWAP2 SWAP1 POP JUMP JUMPDEST PUSH1 0x0 PUSH1 0x20 DUP3 ADD SWAP1 POP DUP2 DUP2 SUB PUSH1 0x0 DUP4 ADD MSTORE PUSH2 0x2842 DUP2 PUSH2 0x2806 JUMP JUMPDEST SWAP1 POP SWAP2 SWAP1 POP JUMP JUMPDEST PUSH1 0x0 PUSH2 0x2854 DUP3 PUSH2 0x1AC3 JUMP JUMPDEST PUSH2 0x285E DUP2 DUP6 PUSH2 0x210D JUMP JUMPDEST SWAP4 POP PUSH2 0x286E DUP2 DUP6 PUSH1 0x20 DUP7 ADD PUSH2 0x1ADF JUMP JUMPDEST PUSH2 0x2877 DUP2 PUSH2 0x193E JUMP JUMPDEST DUP5 ADD SWAP2 POP POP SWAP3 SWAP2 POP POP JUMP JUMPDEST PUSH1 0x0 PUSH1 0x20 DUP3 ADD SWAP1 POP DUP2 DUP2 SUB PUSH1 0x0 DUP4 ADD MSTORE PUSH2 0x289C DUP2 DUP5 PUSH2 0x2849 JUMP JUMPDEST SWAP1 POP SWAP3 SWAP2 POP POP JUMP JUMPDEST PUSH32 0x53696E2063617061636964616420656E207665727469706F7274206F72696765 PUSH1 0x0 DUP3 ADD MSTORE PUSH32 0x6E00000000000000000000000000000000000000000000000000000000000000 PUSH1 0x20 DUP3 ADD MSTORE POP JUMP JUMPDEST PUSH1 0x0 PUSH2 0x2900 PUSH1 0x21 DUP4 PUSH2 0x210D JUMP JUMPDEST SWAP2 POP PUSH2 0x290B DUP3 PUSH2 0x28A4 JUMP JUMPDEST PUSH1 0x40 DUP3 ADD SWAP1 POP SWAP2 SWAP1 POP JUMP JUMPDEST PUSH1 0x0 PUSH1 0x20 DUP3 ADD SWAP1 POP DUP2 DUP2 SUB PUSH1 0x0 DUP4 ADD MSTORE PUSH2 0x292F DUP2 PUSH2 0x28F3 JUMP JUMPDEST SWAP1 POP SWAP2 SWAP1 POP JUMP JUMPDEST PUSH1 0x0 PUSH1 0x20 DUP3 ADD SWAP1 POP PUSH2 0x294B PUSH1 0x0 DUP4 ADD DUP5 PUSH2 0x22CE JUMP JUMPDEST SWAP3 SWAP2 POP POP JUMP JUMPDEST PUSH32 0x4556544F4C206E6F20646973706F6E69626C6500000000000000000000000000 PUSH1 0x0 DUP3 ADD MSTORE POP JUMP JUMPDEST PUSH1 0x0 PUSH2 0x2987 PUSH1 0x13 DUP4 PUSH2 0x210D JUMP JUMPDEST SWAP2 POP PUSH2 0x2992 DUP3 PUSH2 0x2951 JUMP JUMPDEST PUSH1 0x20 DUP3 ADD SWAP1 POP SWAP2 SWAP1 POP JUMP JUMPDEST PUSH1 0x0 PUSH1 0x20 DUP3 ADD SWAP1 POP DUP2 DUP2 SUB PUSH1 0x0 DUP4 ADD MSTORE PUSH2 0x29B6 DUP2 PUSH2 0x297A JUMP JUMPDEST SWAP1 POP SWAP2 SWAP1 POP JUMP JUMPDEST PUSH1 0x0 PUSH1 0x40 DUP3 ADD SWAP1 POP PUSH2 0x29D2 PUSH1 0x0 DUP4 ADD DUP6 PUSH2 0x22CE JUMP JUMPDEST DUP2 DUP2 SUB PUSH1 0x20 DUP4 ADD MSTORE PUSH2 0x29E4 DUP2 DUP5 PUSH2 0x2849 JUMP JUMPDEST SWAP1 POP SWAP4 SWAP3 POP POP POP JUMP JUMPDEST PUSH1 0x0 PUSH1 0x60 DUP3 ADD SWAP1 POP DUP2 DUP2 SUB PUSH1 0x0 DUP4 ADD MSTORE PUSH2 0x2A07 DUP2 DUP7 PUSH2 0x2849 JUMP JUMPDEST SWAP1 POP DUP2 DUP2 SUB PUSH1 0x20 DUP4 ADD MSTORE PUSH2 0x2A1B DUP2 DUP6 PUSH2 0x2849 JUMP JUMPDEST SWAP1 POP PUSH2 0x2A2A PUSH1 0x40 DUP4 ADD DUP5 PUSH2 0x22CE JUMP JUMPDEST SWAP5 SWAP4 POP POP POP POP JUMP JUMPDEST PUSH32 0x4E6F2073652070756564652063616E63656C617220656E206573746520657374 PUSH1 0x0 DUP3 ADD MSTORE PUSH32 0x61646F0000000000000000000000000000000000000000000000000000000000 PUSH1 0x20 DUP3 ADD MSTORE POP JUMP JUMPDEST PUSH1 0x0 PUSH2 0x2A8E PUSH1 0x23 DUP4 PUSH2 0x210D JUMP JUMPDEST SWAP2 POP PUSH2 0x2A99 DUP3 PUSH2 0x2A32 JUMP JUMPDEST PUSH1 0x40 DUP3 ADD SWAP1 POP SWAP2 SWAP1 POP JUMP JUMPDEST PUSH1 0x0 PUSH1 0x20 DUP3 ADD SWAP1 POP DUP2 DUP2 SUB PUSH1 0x0 DUP4 ADD MSTORE PUSH2 0x2ABD DUP2 PUSH2 0x2A81 JUMP JUMPDEST SWAP1 POP SWAP2 SWAP1 POP JUMP INVALID LOG2 PUSH5 0x6970667358 0x22 SLT KECCAK256 SWAP6 0x5E 0x2C SWAP13 SWAP5 0xC7 OR LT 0x28 0x5D 0xDD 0xDB DUP12 PUSH4 0x5AE7BC6E 0xF8 0xAB 0xD6 0xDC DUP15 STATICCALL JUMP 0xE3 0xCB DUP10 0xE5 MUL 0xE9 0x24 PUSH5 0x736F6C6343 STOP ADDMOD EXP STOP CALLER "
    },
    "gasEstimates": {
      "creation": {
        "codeDepositCost": "2200400",
        "executionCost": "infinite",
        "totalCost": "infinite"
      },
      "external": {
        "admin()": "2580",
        "cancelTrip(string)": "infinite",
        "completeTrip(string,bytes)": "infinite",
        "createReservation(string,address,string,string,uint256,bytes,bytes,bytes)": "infinite",
        "evtolManagement()": "infinite",
        "getTrip(string)": "infinite",
        "setAdmin(address)": "26997",
        "startTrip(string,bytes)": "infinite",
        "userVerification()": "infinite",
        "vertiportManagement()": "infinite"
      }
    },
    "methodIdentifiers": {
      "admin()": "f851a440",
      "cancelTrip(string)": "dfd90448",
      "completeTrip(string,bytes)": "7b56724a",
      "createReservation(string,address,string,string,uint256,bytes,bytes,bytes)": "ae981ab7",
      "evtolManagement()": "55d96b51",
      "getTrip(string)": "5f6c5cfc",
      "setAdmin(address)": "704b6c02",
      "startTrip(string,bytes)": "cd17bdc0",
      "userVerification()": "0b125c11",
      "vertiportManagement()": "fecc1f8a"
    }
  },
  "storageLayout": {
    "storage": [
      {
        "astId": 649,
        "contract": "FlightReservation.sol:FlightReservation",
        "label": "userVerification",
        "offset": 0,
        "slot": "0",
        "type": "t_contract(IUserVerification)573"
      },
      {
        "astId": 652,
        "contract": "FlightReservation.sol:FlightReservation",
        "label": "vertiportManagement",
        "offset": 0,
        "slot": "1",
        "type": "t_contract(IVertiportManagement)593"
      },
      {
        "astId": 655,
        "contract": "FlightReservation.sol:FlightReservation",
        "label": "evtolManagement",
        "offset": 0,
        "slot": "2",
        "type": "t_contract(IEVTOLManagement)621"
      },
      {
        "astId": 657,
        "contract": "FlightReservation.sol:FlightReservation",
        "label": "admin",
        "offset": 0,
        "slot": "3",
        "type": "t_address"
      },
      {
        "astId": 662,
        "contract": "FlightReservation.sol:FlightReservation",
        "label": "trips",
        "offset": 0,
        "slot": "4",
        "type": "t_mapping(t_string_memory_ptr,t_struct(Trip)646_storage)"
      }
    ],
    "types": {
      "t_address": {
        "encoding": "inplace",
        "label": "address",
        "numberOfBytes": "20"
      },
      "t_bool": {
        "encoding": "inplace",
        "label": "bool",
        "numberOfBytes": "1"
      },
      "t_contract(IEVTOLManagement)621": {
        "encoding": "inplace",
        "label": "contract IEVTOLManagement",
        "numberOfBytes": "20"
      },
      "t_contract(IUserVerification)573": {
        "encoding": "inplace",
        "label": "contract IUserVerification",
        "numberOfBytes": "20"
      },
      "t_contract(IVertiportManagement)593": {
        "encoding": "inplace",
        "label": "contract IVertiportManagement",
        "numberOfBytes": "20"
      },
      "t_enum(TripStatus)628": {
        "encoding": "inplace",
        "label": "enum FlightReservation.TripStatus",
        "numberOfBytes": "1"
      },
      "t_mapping(t_string_memory_ptr,t_struct(Trip)646_storage)": {
        "encoding": "mapping",
        "key": "t_string_memory_ptr",
        "label": "mapping(string => struct FlightReservation.Trip)",
        "numberOfBytes": "32",
        "value": "t_struct(Trip)646_storage"
      },
      "t_string_memory_ptr": {
        "encoding": "bytes",
        "label": "string",
        "numberOfBytes": "32"
      },
      "t_string_storage": {
        "encoding": "bytes",
        "label": "string",
        "numberOfBytes": "32"
      },
      "t_struct(Trip)646_storage": {
        "encoding": "inplace",
        "label": "struct FlightReservation.Trip",
        "members": [
          {
            "astId": 630,
            "contract": "FlightReservation.sol:FlightReservation",
            "label": "id",
            "offset": 0,
            "slot": "0",
            "type": "t_string_storage"
          },
          {
            "astId": 632,
            "contract": "FlightReservation.sol:FlightReservation",
            "label": "rider",
            "offset": 0,
            "slot": "1",
            "type": "t_address"
          },
          {
            "astId": 634,
            "contract": "FlightReservation.sol:FlightReservation",
            "label": "originVertiportId",
            "offset": 0,
            "slot": "2",
            "type": "t_string_storage"
          },
          {
            "astId": 636,
            "contract": "FlightReservation.sol:FlightReservation",
            "label": "destinationVertiportId",
            "offset": 0,
            "slot": "3",
            "type": "t_string_storage"
          },
          {
            "astId": 638,
            "contract": "FlightReservation.sol:FlightReservation",
            "label": "evtolId",
            "offset": 0,
            "slot": "4",
            "type": "t_uint256"
          },
          {
            "astId": 641,
            "contract": "FlightReservation.sol:FlightReservation",
            "label": "status",
            "offset": 0,
            "slot": "5",
            "type": "t_enum(TripStatus)628"
          },
          {
            "astId": 643,
            "contract": "FlightReservation.sol:FlightReservation",
            "label": "createdAt",
            "offset": 0,
            "slot": "6",
            "type": "t_uint256"
          },
          {
            "astId": 645,
            "contract": "FlightReservation.sol:FlightReservation",
            "label": "exists",
            "offset": 0,
            "slot": "7",
            "type": "t_bool"
          }
        ],
        "numberOfBytes": "256"
      },
      "t_uint256": {
        "encoding": "inplace",
        "label": "uint256",
        "numberOfBytes": "32"
      }
    }
  },
  "userdoc": {
    "kind": "user",
    "methods": {
      "cancelTrip(string)": {
        "notice": "Cancela un viaje antes de que inicie (CONFIRMED -> CANCELLED)."
      },
      "completeTrip(string,bytes)": {
        "notice": "Completa el viaje (IN_PROGRESS -> COMPLETED)."
      },
      "createReservation(string,address,string,string,uint256,bytes,bytes,bytes)": {
        "notice": "Crea una reserva y asigna un eVTOL en un solo paso."
      },
      "getTrip(string)": {
        "notice": "Devuelve la informacion de un viaje."
      },
      "setAdmin(address)": {
        "notice": "Permite cambiar el admin (por ejemplo, rotacion de backend)."
      },
      "startTrip(string,bytes)": {
        "notice": "Inicia el viaje (CONFIRMED -> IN_PROGRESS)."
      }
    },
    "notice": "Orquesta la verificacion de usuario, asignacion de eVTOL y actualizacion         de vertiports para registrar y seguir viajes.",
    "version": 1
  }
}