{
  "abi": [
    {
      "inputs": [
        {
          "internalType": "address",
          "name": "initialIssuer",
          "type": "address"
        }
      ],
      "stateMutability": "nonpayable",
      "type": "constructor"
    },
    {
      "anonymous": false,
      "inputs": [
        {
          "indexed": true,
          "internalType": "address",
          "name": "previousIssuer",
          "type": "address"
        },
        {
          "indexed": true,
          "internalType": "address",
          "name": "newIssuer",
          "type": "address"
        }
      ],
      "name": "IssuerChanged",
      "type": "event"
    },
    {
      "anonymous": false,
      "inputs": [
        {
          "indexed": true,
          "internalType": "address",
          "name": "user",
          "type": "address"
        },
        {
          "indexed": false,
          "internalType": "bool",
          "name": "canRide",
          "type": "bool"
        }
      ],
      "name": "RiderPermissionSet",
      "type": "event"
    },
    {
      "inputs": [
        {
          "internalType": "address",
          "name": "user",
          "type": "address"
        }
      ],
      "name": "canUserRide",
      "outputs": [
        {
          "internalType": "bool",
          "name": "",
          "type": "bool"
        }
      ],
      "stateMutability": "view",
      "type": "function"
    },
    {
      "inputs": [],
      "name": "issuer",
      "outputs": [
        {
          "internalType": "address",
          "name": "",
          "type": "address"
        }
      ],
      "stateMutability": "view",
      "type": "function"
    },
    {
      "inputs": [
        {
          "internalType": "address",
          "name": "newIssuer",
          "type": "address"
        }
      ],
      "name": "setIssuer",
      "outputs": [],
      "stateMutability": "nonpayable",
      "type": "function"
    },
    {
      "inputs": [
        {
          "internalType": "address",
          "name": "user",
          "type": "address"
        },
        {
          "internalType": "bool",
          "name": "canRide",
          "type": "bool"
        }
      ],
      "name": "setRiderPermission",
      "outputs": [],
      "stateMutability": "nonpayable",
      "type": "function"
    },
    {
      "inputs": [
        {
          "internalType": "address",
          "name": "user",
          "type": "address"
        },
        {
          "internalType": "bytes",
          "name": "userCredential",
          "type": "bytes"
        }
      ],
      "name": "setRiderPermissionWithCredential",
      "outputs": [
        {
          "internalType": "bool",
          "name": "canRide",
          "type": "bool"
        }
      ],
      "stateMutability": "nonpayable",
      "type": "function"
    }
  ],
  "devdoc": {
    "kind": "dev",
    "methods": {
      "setRiderPermission(address,bool)": {
        "details": "Esta funcion representa el caso en el que Aries/Indy ya decidio      todo off-chain y solo se refleja el resultado en la blockchain."
      },
      "setRiderPermissionWithCredential(address,bytes)": {
        "params": {
          "user": "Address del usuario en la red Besu.",
          "userCredential": "Credencial SSI mock (por ejemplo Rider_Credential v1.0)."
        },
        "returns": {
          "canRide": "Decision final de si el usuario puede volar."
        }
      }
    },
    "title": "Verificacion de usuarios aptos para volar",
    "version": 1
  },
  "evm": {
    "assembly": "    /* \"UserVerification.sol\":283:4106  contract UserVerification {... */\n  mstore(0x40, 0x80)\n    /* \"UserVerification.sol\":609:803  constructor(address initialIssuer) {... */\n  callvalue\n  dup1\n  iszero\n  tag_1\n  jumpi\n  0x00\n  dup1\n  revert\ntag_1:\n  pop\n  mload(0x40)\n  sub(codesize, bytecodeSize)\n  dup1\n  bytecodeSize\n  dup4\n  codecopy\n  dup2\n  dup2\n  add\n  0x40\n  mstore\n  dup2\n  add\n  swap1\n  tag_2\n  swap2\n  swap1\n  tag_3\n  jump\t// in\ntag_2:\n    /* \"UserVerification.sol\":687:688  0 */\n  0x00\n    /* \"UserVerification.sol\":662:689  initialIssuer != address(0) */\n  0xffffffffffffffffffffffffffffffffffffffff\n  and\n    /* \"UserVerification.sol\":662:675  initialIssuer */\n  dup2\n    /* \"UserVerification.sol\":662:689  initialIssuer != address(0) */\n  0xffffffffffffffffffffffffffffffffffffffff\n  and\n  eq\n  iszero\n    /* \"UserVerification.sol\":654:709  require(initialIssuer != address(0), \"Issuer invalido\") */\n  tag_6\n  jumpi\n  mload(0x40)\n  0x08c379a000000000000000000000000000000000000000000000000000000000\n  dup2\n  mstore\n  0x04\n  add\n  tag_7\n  swap1\n  tag_8\n  jump\t// in\ntag_7:\n  mload(0x40)\n  dup1\n  swap2\n  sub\n  swap1\n  revert\ntag_6:\n    /* \"UserVerification.sol\":728:741  initialIssuer */\n  dup1\n    /* \"UserVerification.sol\":719:725  issuer */\n  0x00\n  dup1\n    /* \"UserVerification.sol\":719:741  issuer = initialIssuer */\n  0x0100\n  exp\n  dup2\n  sload\n  dup2\n  0xffffffffffffffffffffffffffffffffffffffff\n  mul\n  not\n  and\n  swap1\n  dup4\n  0xffffffffffffffffffffffffffffffffffffffff\n  and\n  mul\n  or\n  swap1\n  sstore\n  pop\n    /* \"UserVerification.sol\":782:795  initialIssuer */\n  dup1\n    /* \"UserVerification.sol\":756:796  IssuerChanged(address(0), initialIssuer) */\n  0xffffffffffffffffffffffffffffffffffffffff\n  and\n    /* \"UserVerification.sol\":778:779  0 */\n  0x00\n    /* \"UserVerification.sol\":756:796  IssuerChanged(address(0), initialIssuer) */\n  0xffffffffffffffffffffffffffffffffffffffff\n  and\n  0xaf014c0f1e2d7c810cfe4f4ec7c675b9dbd7ad5fd0b058fe94776a447d6f3337\n  mload(0x40)\n  mload(0x40)\n  dup1\n  swap2\n  sub\n  swap1\n  log3\n    /* \"UserVerification.sol\":609:803  constructor(address initialIssuer) {... */\n  pop\n    /* \"UserVerification.sol\":283:4106  contract UserVerification {... */\n  jump(tag_9)\n    /* \"#utility.yul\":88:205   */\ntag_11:\n    /* \"#utility.yul\":197:198   */\n  0x00\n    /* \"#utility.yul\":194:195   */\n  dup1\n    /* \"#utility.yul\":187:199   */\n  revert\n    /* \"#utility.yul\":334:460   */\ntag_13:\n    /* \"#utility.yul\":371:378   */\n  0x00\n    /* \"#utility.yul\":411:453   */\n  0xffffffffffffffffffffffffffffffffffffffff\n    /* \"#utility.yul\":404:409   */\n  dup3\n    /* \"#utility.yul\":400:454   */\n  and\n    /* \"#utility.yul\":389:454   */\n  swap1\n  pop\n    /* \"#utility.yul\":334:460   */\n  swap2\n  swap1\n  pop\n  jump\t// out\n    /* \"#utility.yul\":466:562   */\ntag_14:\n    /* \"#utility.yul\":503:510   */\n  0x00\n    /* \"#utility.yul\":532:556   */\n  tag_26\n    /* \"#utility.yul\":550:555   */\n  dup3\n    /* \"#utility.yul\":532:556   */\n  tag_13\n  jump\t// in\ntag_26:\n    /* \"#utility.yul\":521:556   */\n  swap1\n  pop\n    /* \"#utility.yul\":466:562   */\n  swap2\n  swap1\n  pop\n  jump\t// out\n    /* \"#utility.yul\":568:690   */\ntag_15:\n    /* \"#utility.yul\":641:665   */\n  tag_28\n    /* \"#utility.yul\":659:664   */\n  dup2\n    /* \"#utility.yul\":641:665   */\n  tag_14\n  jump\t// in\ntag_28:\n    /* \"#utility.yul\":634:639   */\n  dup2\n    /* \"#utility.yul\":631:666   */\n  eq\n    /* \"#utility.yul\":621:684   */\n  tag_29\n  jumpi\n    /* \"#utility.yul\":680:681   */\n  0x00\n    /* \"#utility.yul\":677:678   */\n  dup1\n    /* \"#utility.yul\":670:682   */\n  revert\n    /* \"#utility.yul\":621:684   */\ntag_29:\n    /* \"#utility.yul\":568:690   */\n  pop\n  jump\t// out\n    /* \"#utility.yul\":696:839   */\ntag_16:\n    /* \"#utility.yul\":753:758   */\n  0x00\n    /* \"#utility.yul\":784:790   */\n  dup2\n    /* \"#utility.yul\":778:791   */\n  mload\n    /* \"#utility.yul\":769:791   */\n  swap1\n  pop\n    /* \"#utility.yul\":800:833   */\n  tag_31\n    /* \"#utility.yul\":827:832   */\n  dup2\n    /* \"#utility.yul\":800:833   */\n  tag_15\n  jump\t// in\ntag_31:\n    /* \"#utility.yul\":696:839   */\n  swap3\n  swap2\n  pop\n  pop\n  jump\t// out\n    /* \"#utility.yul\":845:1196   */\ntag_3:\n    /* \"#utility.yul\":915:921   */\n  0x00\n    /* \"#utility.yul\":964:966   */\n  0x20\n    /* \"#utility.yul\":952:961   */\n  dup3\n    /* \"#utility.yul\":943:950   */\n  dup5\n    /* \"#utility.yul\":939:962   */\n  sub\n    /* \"#utility.yul\":935:967   */\n  slt\n    /* \"#utility.yul\":932:1051   */\n  iszero\n  tag_33\n  jumpi\n    /* \"#utility.yul\":970:1049   */\n  tag_34\n  tag_11\n  jump\t// in\ntag_34:\n    /* \"#utility.yul\":932:1051   */\ntag_33:\n    /* \"#utility.yul\":1090:1091   */\n  0x00\n    /* \"#utility.yul\":1115:1179   */\n  tag_35\n    /* \"#utility.yul\":1171:1178   */\n  dup5\n    /* \"#utility.yul\":1162:1168   */\n  dup3\n    /* \"#utility.yul\":1151:1160   */\n  dup6\n    /* \"#utility.yul\":1147:1169   */\n  add\n    /* \"#utility.yul\":1115:1179   */\n  tag_16\n  jump\t// in\ntag_35:\n    /* \"#utility.yul\":1105:1179   */\n  swap2\n  pop\n    /* \"#utility.yul\":1061:1189   */\n  pop\n    /* \"#utility.yul\":845:1196   */\n  swap3\n  swap2\n  pop\n  pop\n  jump\t// out\n    /* \"#utility.yul\":1202:1371   */\ntag_17:\n    /* \"#utility.yul\":1286:1297   */\n  0x00\n    /* \"#utility.yul\":1320:1326   */\n  dup3\n    /* \"#utility.yul\":1315:1318   */\n  dup3\n    /* \"#utility.yul\":1308:1327   */\n  mstore\n    /* \"#utility.yul\":1360:1364   */\n  0x20\n    /* \"#utility.yul\":1355:1358   */\n  dup3\n    /* \"#utility.yul\":1351:1365   */\n  add\n    /* \"#utility.yul\":1336:1365   */\n  swap1\n  pop\n    /* \"#utility.yul\":1202:1371   */\n  swap3\n  swap2\n  pop\n  pop\n  jump\t// out\n    /* \"#utility.yul\":1377:1542   */\ntag_18:\n    /* \"#utility.yul\":1517:1534   */\n  0x49737375657220696e76616c69646f0000000000000000000000000000000000\n    /* \"#utility.yul\":1513:1514   */\n  0x00\n    /* \"#utility.yul\":1505:1511   */\n  dup3\n    /* \"#utility.yul\":1501:1515   */\n  add\n    /* \"#utility.yul\":1494:1535   */\n  mstore\n    /* \"#utility.yul\":1377:1542   */\n  pop\n  jump\t// out\n    /* \"#utility.yul\":1548:1914   */\ntag_19:\n    /* \"#utility.yul\":1690:1693   */\n  0x00\n    /* \"#utility.yul\":1711:1778   */\n  tag_39\n    /* \"#utility.yul\":1775:1777   */\n  0x0f\n    /* \"#utility.yul\":1770:1773   */\n  dup4\n    /* \"#utility.yul\":1711:1778   */\n  tag_17\n  jump\t// in\ntag_39:\n    /* \"#utility.yul\":1704:1778   */\n  swap2\n  pop\n    /* \"#utility.yul\":1787:1880   */\n  tag_40\n    /* \"#utility.yul\":1876:1879   */\n  dup3\n    /* \"#utility.yul\":1787:1880   */\n  tag_18\n  jump\t// in\ntag_40:\n    /* \"#utility.yul\":1905:1907   */\n  0x20\n    /* \"#utility.yul\":1900:1903   */\n  dup3\n    /* \"#utility.yul\":1896:1908   */\n  add\n    /* \"#utility.yul\":1889:1908   */\n  swap1\n  pop\n    /* \"#utility.yul\":1548:1914   */\n  swap2\n  swap1\n  pop\n  jump\t// out\n    /* \"#utility.yul\":1920:2339   */\ntag_8:\n    /* \"#utility.yul\":2086:2090   */\n  0x00\n    /* \"#utility.yul\":2124:2126   */\n  0x20\n    /* \"#utility.yul\":2113:2122   */\n  dup3\n    /* \"#utility.yul\":2109:2127   */\n  add\n    /* \"#utility.yul\":2101:2127   */\n  swap1\n  pop\n    /* \"#utility.yul\":2173:2182   */\n  dup2\n    /* \"#utility.yul\":2167:2171   */\n  dup2\n    /* \"#utility.yul\":2163:2183   */\n  sub\n    /* \"#utility.yul\":2159:2160   */\n  0x00\n    /* \"#utility.yul\":2148:2157   */\n  dup4\n    /* \"#utility.yul\":2144:2161   */\n  add\n    /* \"#utility.yul\":2137:2184   */\n  mstore\n    /* \"#utility.yul\":2201:2332   */\n  tag_42\n    /* \"#utility.yul\":2327:2331   */\n  dup2\n    /* \"#utility.yul\":2201:2332   */\n  tag_19\n  jump\t// in\ntag_42:\n    /* \"#utility.yul\":2193:2332   */\n  swap1\n  pop\n    /* \"#utility.yul\":1920:2339   */\n  swap2\n  swap1\n  pop\n  jump\t// out\n    /* \"UserVerification.sol\":283:4106  contract UserVerification {... */\ntag_9:\n  dataSize(sub_0)\n  dup1\n  dataOffset(sub_0)\n  0x00\n  codecopy\n  0x00\n  return\nstop\n\nsub_0: assembly {\n        /* \"UserVerification.sol\":283:4106  contract UserVerification {... */\n      mstore(0x40, 0x80)\n      callvalue\n      dup1\n      iszero\n      tag_1\n      jumpi\n      0x00\n      dup1\n      revert\n    tag_1:\n      pop\n      jumpi(tag_2, lt(calldatasize, 0x04))\n      shr(0xe0, calldataload(0x00))\n      dup1\n      0x1d143848\n      eq\n      tag_3\n      jumpi\n      dup1\n      0x55cc4e57\n      eq\n      tag_4\n      jumpi\n      dup1\n      0x6f8d2edf\n      eq\n      tag_5\n      jumpi\n      dup1\n      0x73984517\n      eq\n      tag_6\n      jumpi\n      dup1\n      0x9eb54de4\n      eq\n      tag_7\n      jumpi\n    tag_2:\n      0x00\n      dup1\n      revert\n        /* \"UserVerification.sol\":315:336  address public issuer */\n    tag_3:\n      tag_8\n      tag_9\n      jump\t// in\n    tag_8:\n      mload(0x40)\n      tag_10\n      swap2\n      swap1\n      tag_11\n      jump\t// in\n    tag_10:\n      mload(0x40)\n      dup1\n      swap2\n      sub\n      swap1\n      return\n        /* \"UserVerification.sol\":1018:1256  function setIssuer(address newIssuer) external onlyIssuer {... */\n    tag_4:\n      tag_12\n      0x04\n      dup1\n      calldatasize\n      sub\n      dup2\n      add\n      swap1\n      tag_13\n      swap2\n      swap1\n      tag_14\n      jump\t// in\n    tag_13:\n      tag_15\n      jump\t// in\n    tag_12:\n      stop\n        /* \"UserVerification.sol\":3682:3924  function setRiderPermission(... */\n    tag_5:\n      tag_16\n      0x04\n      dup1\n      calldatasize\n      sub\n      dup2\n      add\n      swap1\n      tag_17\n      swap2\n      swap1\n      tag_18\n      jump\t// in\n    tag_17:\n      tag_19\n      jump\t// in\n    tag_16:\n      stop\n        /* \"UserVerification.sol\":4002:4104  function canUserRide(address user) external view returns (bool) {... */\n    tag_6:\n      tag_20\n      0x04\n      dup1\n      calldatasize\n      sub\n      dup2\n      add\n      swap1\n      tag_21\n      swap2\n      swap1\n      tag_14\n      jump\t// in\n    tag_21:\n      tag_22\n      jump\t// in\n    tag_20:\n      mload(0x40)\n      tag_23\n      swap2\n      swap1\n      tag_24\n      jump\t// in\n    tag_23:\n      mload(0x40)\n      dup1\n      swap2\n      sub\n      swap1\n      return\n        /* \"UserVerification.sol\":2686:3447  function setRiderPermissionWithCredential(... */\n    tag_7:\n      tag_25\n      0x04\n      dup1\n      calldatasize\n      sub\n      dup2\n      add\n      swap1\n      tag_26\n      swap2\n      swap1\n      tag_27\n      jump\t// in\n    tag_26:\n      tag_28\n      jump\t// in\n    tag_25:\n      mload(0x40)\n      tag_29\n      swap2\n      swap1\n      tag_24\n      jump\t// in\n    tag_29:\n      mload(0x40)\n      dup1\n      swap2\n      sub\n      swap1\n      return\n        /* \"UserVerification.sol\":315:336  address public issuer */\n    tag_9:\n      0x00\n      dup1\n      sload\n      swap1\n      0x0100\n      exp\n      swap1\n      div\n      0xffffffffffffffffffffffffffffffffffffffff\n      and\n      dup2\n      jump\t// out\n        /* \"UserVerification.sol\":1018:1256  function setIssuer(address newIssuer) external onlyIssuer {... */\n    tag_15:\n        /* \"UserVerification.sol\":863:869  issuer */\n      0x00\n      dup1\n      sload\n      swap1\n      0x0100\n      exp\n      swap1\n      div\n      0xffffffffffffffffffffffffffffffffffffffff\n      and\n        /* \"UserVerification.sol\":849:869  msg.sender == issuer */\n      0xffffffffffffffffffffffffffffffffffffffff\n      and\n        /* \"UserVerification.sol\":849:859  msg.sender */\n      caller\n        /* \"UserVerification.sol\":849:869  msg.sender == issuer */\n      0xffffffffffffffffffffffffffffffffffffffff\n      and\n      eq\n        /* \"UserVerification.sol\":841:900  require(msg.sender == issuer, \"No autorizado: solo issuer\") */\n      tag_31\n      jumpi\n      mload(0x40)\n      0x08c379a000000000000000000000000000000000000000000000000000000000\n      dup2\n      mstore\n      0x04\n      add\n      tag_32\n      swap1\n      tag_33\n      jump\t// in\n    tag_32:\n      mload(0x40)\n      dup1\n      swap2\n      sub\n      swap1\n      revert\n    tag_31:\n        /* \"UserVerification.sol\":1115:1116  0 */\n      0x00\n        /* \"UserVerification.sol\":1094:1117  newIssuer != address(0) */\n      0xffffffffffffffffffffffffffffffffffffffff\n      and\n        /* \"UserVerification.sol\":1094:1103  newIssuer */\n      dup2\n        /* \"UserVerification.sol\":1094:1117  newIssuer != address(0) */\n      0xffffffffffffffffffffffffffffffffffffffff\n      and\n      eq\n      iszero\n        /* \"UserVerification.sol\":1086:1137  require(newIssuer != address(0), \"Issuer invalido\") */\n      tag_35\n      jumpi\n      mload(0x40)\n      0x08c379a000000000000000000000000000000000000000000000000000000000\n      dup2\n      mstore\n      0x04\n      add\n      tag_36\n      swap1\n      tag_37\n      jump\t// in\n    tag_36:\n      mload(0x40)\n      dup1\n      swap2\n      sub\n      swap1\n      revert\n    tag_35:\n        /* \"UserVerification.sol\":1147:1163  address previous */\n      0x00\n        /* \"UserVerification.sol\":1166:1172  issuer */\n      dup1\n      0x00\n      swap1\n      sload\n      swap1\n      0x0100\n      exp\n      swap1\n      div\n      0xffffffffffffffffffffffffffffffffffffffff\n      and\n        /* \"UserVerification.sol\":1147:1172  address previous = issuer */\n      swap1\n      pop\n        /* \"UserVerification.sol\":1191:1200  newIssuer */\n      dup2\n        /* \"UserVerification.sol\":1182:1188  issuer */\n      0x00\n      dup1\n        /* \"UserVerification.sol\":1182:1200  issuer = newIssuer */\n      0x0100\n      exp\n      dup2\n      sload\n      dup2\n      0xffffffffffffffffffffffffffffffffffffffff\n      mul\n      not\n      and\n      swap1\n      dup4\n      0xffffffffffffffffffffffffffffffffffffffff\n      and\n      mul\n      or\n      swap1\n      sstore\n      pop\n        /* \"UserVerification.sol\":1239:1248  newIssuer */\n      dup2\n        /* \"UserVerification.sol\":1215:1249  IssuerChanged(previous, newIssuer) */\n      0xffffffffffffffffffffffffffffffffffffffff\n      and\n        /* \"UserVerification.sol\":1229:1237  previous */\n      dup2\n        /* \"UserVerification.sol\":1215:1249  IssuerChanged(previous, newIssuer) */\n      0xffffffffffffffffffffffffffffffffffffffff\n      and\n      0xaf014c0f1e2d7c810cfe4f4ec7c675b9dbd7ad5fd0b058fe94776a447d6f3337\n      mload(0x40)\n      mload(0x40)\n      dup1\n      swap2\n      sub\n      swap1\n      log3\n        /* \"UserVerification.sol\":1076:1256  {... */\n      pop\n        /* \"UserVerification.sol\":1018:1256  function setIssuer(address newIssuer) external onlyIssuer {... */\n      pop\n      jump\t// out\n        /* \"UserVerification.sol\":3682:3924  function setRiderPermission(... */\n    tag_19:\n        /* \"UserVerification.sol\":863:869  issuer */\n      0x00\n      dup1\n      sload\n      swap1\n      0x0100\n      exp\n      swap1\n      div\n      0xffffffffffffffffffffffffffffffffffffffff\n      and\n        /* \"UserVerification.sol\":849:869  msg.sender == issuer */\n      0xffffffffffffffffffffffffffffffffffffffff\n      and\n        /* \"UserVerification.sol\":849:859  msg.sender */\n      caller\n        /* \"UserVerification.sol\":849:869  msg.sender == issuer */\n      0xffffffffffffffffffffffffffffffffffffffff\n      and\n      eq\n        /* \"UserVerification.sol\":841:900  require(msg.sender == issuer, \"No autorizado: solo issuer\") */\n      tag_39\n      jumpi\n      mload(0x40)\n      0x08c379a000000000000000000000000000000000000000000000000000000000\n      dup2\n      mstore\n      0x04\n      add\n      tag_40\n      swap1\n      tag_33\n      jump\t// in\n    tag_40:\n      mload(0x40)\n      dup1\n      swap2\n      sub\n      swap1\n      revert\n    tag_39:\n        /* \"UserVerification.sol\":3812:3813  0 */\n      0x00\n        /* \"UserVerification.sol\":3796:3814  user != address(0) */\n      0xffffffffffffffffffffffffffffffffffffffff\n      and\n        /* \"UserVerification.sol\":3796:3800  user */\n      dup3\n        /* \"UserVerification.sol\":3796:3814  user != address(0) */\n      0xffffffffffffffffffffffffffffffffffffffff\n      and\n      eq\n      iszero\n        /* \"UserVerification.sol\":3788:3835  require(user != address(0), \"Usuario invalido\") */\n      tag_42\n      jumpi\n      mload(0x40)\n      0x08c379a000000000000000000000000000000000000000000000000000000000\n      dup2\n      mstore\n      0x04\n      add\n      tag_43\n      swap1\n      tag_44\n      jump\t// in\n    tag_43:\n      mload(0x40)\n      dup1\n      swap2\n      sub\n      swap1\n      revert\n    tag_42:\n        /* \"UserVerification.sol\":3862:3869  canRide */\n      dup1\n        /* \"UserVerification.sol\":3845:3853  _canRide */\n      0x01\n        /* \"UserVerification.sol\":3845:3859  _canRide[user] */\n      0x00\n        /* \"UserVerification.sol\":3854:3858  user */\n      dup5\n        /* \"UserVerification.sol\":3845:3859  _canRide[user] */\n      0xffffffffffffffffffffffffffffffffffffffff\n      and\n      0xffffffffffffffffffffffffffffffffffffffff\n      and\n      dup2\n      mstore\n      0x20\n      add\n      swap1\n      dup2\n      mstore\n      0x20\n      add\n      0x00\n      keccak256\n      0x00\n        /* \"UserVerification.sol\":3845:3869  _canRide[user] = canRide */\n      0x0100\n      exp\n      dup2\n      sload\n      dup2\n      0xff\n      mul\n      not\n      and\n      swap1\n      dup4\n      iszero\n      iszero\n      mul\n      or\n      swap1\n      sstore\n      pop\n        /* \"UserVerification.sol\":3903:3907  user */\n      dup2\n        /* \"UserVerification.sol\":3884:3917  RiderPermissionSet(user, canRide) */\n      0xffffffffffffffffffffffffffffffffffffffff\n      and\n      0x113bf4f28e816627eceef129a25c6b0acf22a6cf4c8a7d9ecba02d8b686aac21\n        /* \"UserVerification.sol\":3909:3916  canRide */\n      dup3\n        /* \"UserVerification.sol\":3884:3917  RiderPermissionSet(user, canRide) */\n      mload(0x40)\n      tag_45\n      swap2\n      swap1\n      tag_24\n      jump\t// in\n    tag_45:\n      mload(0x40)\n      dup1\n      swap2\n      sub\n      swap1\n      log2\n        /* \"UserVerification.sol\":3682:3924  function setRiderPermission(... */\n      pop\n      pop\n      jump\t// out\n        /* \"UserVerification.sol\":4002:4104  function canUserRide(address user) external view returns (bool) {... */\n    tag_22:\n        /* \"UserVerification.sol\":4060:4064  bool */\n      0x00\n        /* \"UserVerification.sol\":4083:4091  _canRide */\n      0x01\n        /* \"UserVerification.sol\":4083:4097  _canRide[user] */\n      0x00\n        /* \"UserVerification.sol\":4092:4096  user */\n      dup4\n        /* \"UserVerification.sol\":4083:4097  _canRide[user] */\n      0xffffffffffffffffffffffffffffffffffffffff\n      and\n      0xffffffffffffffffffffffffffffffffffffffff\n      and\n      dup2\n      mstore\n      0x20\n      add\n      swap1\n      dup2\n      mstore\n      0x20\n      add\n      0x00\n      keccak256\n      0x00\n      swap1\n      sload\n      swap1\n      0x0100\n      exp\n      swap1\n      div\n      0xff\n      and\n        /* \"UserVerification.sol\":4076:4097  return _canRide[user] */\n      swap1\n      pop\n        /* \"UserVerification.sol\":4002:4104  function canUserRide(address user) external view returns (bool) {... */\n      swap2\n      swap1\n      pop\n      jump\t// out\n        /* \"UserVerification.sol\":2686:3447  function setRiderPermissionWithCredential(... */\n    tag_28:\n        /* \"UserVerification.sol\":2820:2832  bool canRide */\n      0x00\n        /* \"UserVerification.sol\":863:869  issuer */\n      dup1\n      0x00\n      swap1\n      sload\n      swap1\n      0x0100\n      exp\n      swap1\n      div\n      0xffffffffffffffffffffffffffffffffffffffff\n      and\n        /* \"UserVerification.sol\":849:869  msg.sender == issuer */\n      0xffffffffffffffffffffffffffffffffffffffff\n      and\n        /* \"UserVerification.sol\":849:859  msg.sender */\n      caller\n        /* \"UserVerification.sol\":849:869  msg.sender == issuer */\n      0xffffffffffffffffffffffffffffffffffffffff\n      and\n      eq\n        /* \"UserVerification.sol\":841:900  require(msg.sender == issuer, \"No autorizado: solo issuer\") */\n      tag_48\n      jumpi\n      mload(0x40)\n      0x08c379a000000000000000000000000000000000000000000000000000000000\n      dup2\n      mstore\n      0x04\n      add\n      tag_49\n      swap1\n      tag_33\n      jump\t// in\n    tag_49:\n      mload(0x40)\n      dup1\n      swap2\n      sub\n      swap1\n      revert\n    tag_48:\n        /* \"UserVerification.sol\":2868:2869  0 */\n      0x00\n        /* \"UserVerification.sol\":2852:2870  user != address(0) */\n      0xffffffffffffffffffffffffffffffffffffffff\n      and\n        /* \"UserVerification.sol\":2852:2856  user */\n      dup4\n        /* \"UserVerification.sol\":2852:2870  user != address(0) */\n      0xffffffffffffffffffffffffffffffffffffffff\n      and\n      eq\n      iszero\n        /* \"UserVerification.sol\":2844:2891  require(user != address(0), \"Usuario invalido\") */\n      tag_51\n      jumpi\n      mload(0x40)\n      0x08c379a000000000000000000000000000000000000000000000000000000000\n      dup2\n      mstore\n      0x04\n      add\n      tag_52\n      swap1\n      tag_44\n      jump\t// in\n    tag_52:\n      mload(0x40)\n      dup1\n      swap2\n      sub\n      swap1\n      revert\n    tag_51:\n        /* \"UserVerification.sol\":2968:3098  verifyCredentialSignature(... */\n      tag_53\n        /* \"UserVerification.sol\":3011:3025  userCredential */\n      dup3\n        /* \"UserVerification.sol\":2968:3098  verifyCredentialSignature(... */\n      mload(0x40)\n      dup1\n      0x40\n      add\n      0x40\n      mstore\n      dup1\n      0x10\n      dup2\n      mstore\n      0x20\n      add\n      0x52696465725f43726564656e7469616c00000000000000000000000000000000\n      dup2\n      mstore\n      pop\n      mload(0x40)\n      dup1\n      0x40\n      add\n      0x40\n      mstore\n      dup1\n      0x03\n      dup2\n      mstore\n      0x20\n      add\n      0x312e300000000000000000000000000000000000000000000000000000000000\n      dup2\n      mstore\n      pop\n        /* \"UserVerification.sol\":2968:2993  verifyCredentialSignature */\n      tag_54\n        /* \"UserVerification.sol\":2968:3098  verifyCredentialSignature(... */\n      jump\t// in\n    tag_53:\n        /* \"UserVerification.sol\":2947:3154  require(... */\n      tag_55\n      jumpi\n      mload(0x40)\n      0x08c379a000000000000000000000000000000000000000000000000000000000\n      dup2\n      mstore\n      0x04\n      add\n      tag_56\n      swap1\n      tag_57\n      jump\t// in\n    tag_56:\n      mload(0x40)\n      dup1\n      swap2\n      sub\n      swap1\n      revert\n    tag_55:\n        /* \"UserVerification.sol\":3209:3230  bool extractedCanRide */\n      0x00\n        /* \"UserVerification.sol\":3233:3273  extractCredentialCanRide(userCredential) */\n      tag_58\n        /* \"UserVerification.sol\":3258:3272  userCredential */\n      dup4\n        /* \"UserVerification.sol\":3233:3257  extractCredentialCanRide */\n      tag_59\n        /* \"UserVerification.sol\":3233:3273  extractCredentialCanRide(userCredential) */\n      jump\t// in\n    tag_58:\n        /* \"UserVerification.sol\":3209:3273  bool extractedCanRide = extractCredentialCanRide(userCredential) */\n      swap1\n      pop\n        /* \"UserVerification.sol\":3333:3349  extractedCanRide */\n      dup1\n        /* \"UserVerification.sol\":3316:3324  _canRide */\n      0x01\n        /* \"UserVerification.sol\":3316:3330  _canRide[user] */\n      0x00\n        /* \"UserVerification.sol\":3325:3329  user */\n      dup7\n        /* \"UserVerification.sol\":3316:3330  _canRide[user] */\n      0xffffffffffffffffffffffffffffffffffffffff\n      and\n      0xffffffffffffffffffffffffffffffffffffffff\n      and\n      dup2\n      mstore\n      0x20\n      add\n      swap1\n      dup2\n      mstore\n      0x20\n      add\n      0x00\n      keccak256\n      0x00\n        /* \"UserVerification.sol\":3316:3349  _canRide[user] = extractedCanRide */\n      0x0100\n      exp\n      dup2\n      sload\n      dup2\n      0xff\n      mul\n      not\n      and\n      swap1\n      dup4\n      iszero\n      iszero\n      mul\n      or\n      swap1\n      sstore\n      pop\n        /* \"UserVerification.sol\":3383:3387  user */\n      dup4\n        /* \"UserVerification.sol\":3364:3406  RiderPermissionSet(user, extractedCanRide) */\n      0xffffffffffffffffffffffffffffffffffffffff\n      and\n      0x113bf4f28e816627eceef129a25c6b0acf22a6cf4c8a7d9ecba02d8b686aac21\n        /* \"UserVerification.sol\":3389:3405  extractedCanRide */\n      dup3\n        /* \"UserVerification.sol\":3364:3406  RiderPermissionSet(user, extractedCanRide) */\n      mload(0x40)\n      tag_60\n      swap2\n      swap1\n      tag_24\n      jump\t// in\n    tag_60:\n      mload(0x40)\n      dup1\n      swap2\n      sub\n      swap1\n      log2\n        /* \"UserVerification.sol\":3424:3440  extractedCanRide */\n      dup1\n        /* \"UserVerification.sol\":3417:3440  return extractedCanRide */\n      swap2\n      pop\n      pop\n        /* \"UserVerification.sol\":2686:3447  function setRiderPermissionWithCredential(... */\n      swap3\n      swap2\n      pop\n      pop\n      jump\t// out\n        /* \"UserVerification.sol\":1416:1858  function verifyCredentialSignature(... */\n    tag_54:\n        /* \"UserVerification.sol\":1584:1588  bool */\n      0x00\n        /* \"UserVerification.sol\":1847:1851  true */\n      0x01\n        /* \"UserVerification.sol\":1840:1851  return true */\n      swap1\n      pop\n        /* \"UserVerification.sol\":1416:1858  function verifyCredentialSignature(... */\n      swap4\n      swap3\n      pop\n      pop\n      pop\n      jump\t// out\n        /* \"UserVerification.sol\":2015:2331  function extractCredentialCanRide(... */\n    tag_59:\n        /* \"UserVerification.sol\":2111:2115  bool */\n      0x00\n        /* \"UserVerification.sol\":2323:2324  0 */\n      dup1\n        /* \"UserVerification.sol\":2303:2313  credential */\n      dup3\n        /* \"UserVerification.sol\":2303:2320  credential.length */\n      mload\n        /* \"UserVerification.sol\":2303:2324  credential.length > 0 */\n      gt\n        /* \"UserVerification.sol\":2296:2324  return credential.length > 0 */\n      swap1\n      pop\n        /* \"UserVerification.sol\":2015:2331  function extractCredentialCanRide(... */\n      swap2\n      swap1\n      pop\n      jump\t// out\n        /* \"#utility.yul\":7:133   */\n    tag_63:\n        /* \"#utility.yul\":44:51   */\n      0x00\n        /* \"#utility.yul\":84:126   */\n      0xffffffffffffffffffffffffffffffffffffffff\n        /* \"#utility.yul\":77:82   */\n      dup3\n        /* \"#utility.yul\":73:127   */\n      and\n        /* \"#utility.yul\":62:127   */\n      swap1\n      pop\n        /* \"#utility.yul\":7:133   */\n      swap2\n      swap1\n      pop\n      jump\t// out\n        /* \"#utility.yul\":139:235   */\n    tag_64:\n        /* \"#utility.yul\":176:183   */\n      0x00\n        /* \"#utility.yul\":205:229   */\n      tag_97\n        /* \"#utility.yul\":223:228   */\n      dup3\n        /* \"#utility.yul\":205:229   */\n      tag_63\n      jump\t// in\n    tag_97:\n        /* \"#utility.yul\":194:229   */\n      swap1\n      pop\n        /* \"#utility.yul\":139:235   */\n      swap2\n      swap1\n      pop\n      jump\t// out\n        /* \"#utility.yul\":241:359   */\n    tag_65:\n        /* \"#utility.yul\":328:352   */\n      tag_99\n        /* \"#utility.yul\":346:351   */\n      dup2\n        /* \"#utility.yul\":328:352   */\n      tag_64\n      jump\t// in\n    tag_99:\n        /* \"#utility.yul\":323:326   */\n      dup3\n        /* \"#utility.yul\":316:353   */\n      mstore\n        /* \"#utility.yul\":241:359   */\n      pop\n      pop\n      jump\t// out\n        /* \"#utility.yul\":365:587   */\n    tag_11:\n        /* \"#utility.yul\":458:462   */\n      0x00\n        /* \"#utility.yul\":496:498   */\n      0x20\n        /* \"#utility.yul\":485:494   */\n      dup3\n        /* \"#utility.yul\":481:499   */\n      add\n        /* \"#utility.yul\":473:499   */\n      swap1\n      pop\n        /* \"#utility.yul\":509:580   */\n      tag_101\n        /* \"#utility.yul\":577:578   */\n      0x00\n        /* \"#utility.yul\":566:575   */\n      dup4\n        /* \"#utility.yul\":562:579   */\n      add\n        /* \"#utility.yul\":553:559   */\n      dup5\n        /* \"#utility.yul\":509:580   */\n      tag_65\n      jump\t// in\n    tag_101:\n        /* \"#utility.yul\":365:587   */\n      swap3\n      swap2\n      pop\n      pop\n      jump\t// out\n        /* \"#utility.yul\":593:668   */\n    tag_66:\n        /* \"#utility.yul\":626:632   */\n      0x00\n        /* \"#utility.yul\":659:661   */\n      0x40\n        /* \"#utility.yul\":653:662   */\n      mload\n        /* \"#utility.yul\":643:662   */\n      swap1\n      pop\n        /* \"#utility.yul\":593:668   */\n      swap1\n      jump\t// out\n        /* \"#utility.yul\":674:791   */\n    tag_67:\n        /* \"#utility.yul\":783:784   */\n      0x00\n        /* \"#utility.yul\":780:781   */\n      dup1\n        /* \"#utility.yul\":773:785   */\n      revert\n        /* \"#utility.yul\":797:914   */\n    tag_68:\n        /* \"#utility.yul\":906:907   */\n      0x00\n        /* \"#utility.yul\":903:904   */\n      dup1\n        /* \"#utility.yul\":896:908   */\n      revert\n        /* \"#utility.yul\":920:1042   */\n    tag_69:\n        /* \"#utility.yul\":993:1017   */\n      tag_106\n        /* \"#utility.yul\":1011:1016   */\n      dup2\n        /* \"#utility.yul\":993:1017   */\n      tag_64\n      jump\t// in\n    tag_106:\n        /* \"#utility.yul\":986:991   */\n      dup2\n        /* \"#utility.yul\":983:1018   */\n      eq\n        /* \"#utility.yul\":973:1036   */\n      tag_107\n      jumpi\n        /* \"#utility.yul\":1032:1033   */\n      0x00\n        /* \"#utility.yul\":1029:1030   */\n      dup1\n        /* \"#utility.yul\":1022:1034   */\n      revert\n        /* \"#utility.yul\":973:1036   */\n    tag_107:\n        /* \"#utility.yul\":920:1042   */\n      pop\n      jump\t// out\n        /* \"#utility.yul\":1048:1187   */\n    tag_70:\n        /* \"#utility.yul\":1094:1099   */\n      0x00\n        /* \"#utility.yul\":1132:1138   */\n      dup2\n        /* \"#utility.yul\":1119:1139   */\n      calldataload\n        /* \"#utility.yul\":1110:1139   */\n      swap1\n      pop\n        /* \"#utility.yul\":1148:1181   */\n      tag_109\n        /* \"#utility.yul\":1175:1180   */\n      dup2\n        /* \"#utility.yul\":1148:1181   */\n      tag_69\n      jump\t// in\n    tag_109:\n        /* \"#utility.yul\":1048:1187   */\n      swap3\n      swap2\n      pop\n      pop\n      jump\t// out\n        /* \"#utility.yul\":1193:1522   */\n    tag_14:\n        /* \"#utility.yul\":1252:1258   */\n      0x00\n        /* \"#utility.yul\":1301:1303   */\n      0x20\n        /* \"#utility.yul\":1289:1298   */\n      dup3\n        /* \"#utility.yul\":1280:1287   */\n      dup5\n        /* \"#utility.yul\":1276:1299   */\n      sub\n        /* \"#utility.yul\":1272:1304   */\n      slt\n        /* \"#utility.yul\":1269:1388   */\n      iszero\n      tag_111\n      jumpi\n        /* \"#utility.yul\":1307:1386   */\n      tag_112\n      tag_67\n      jump\t// in\n    tag_112:\n        /* \"#utility.yul\":1269:1388   */\n    tag_111:\n        /* \"#utility.yul\":1427:1428   */\n      0x00\n        /* \"#utility.yul\":1452:1505   */\n      tag_113\n        /* \"#utility.yul\":1497:1504   */\n      dup5\n        /* \"#utility.yul\":1488:1494   */\n      dup3\n        /* \"#utility.yul\":1477:1486   */\n      dup6\n        /* \"#utility.yul\":1473:1495   */\n      add\n        /* \"#utility.yul\":1452:1505   */\n      tag_70\n      jump\t// in\n    tag_113:\n        /* \"#utility.yul\":1442:1505   */\n      swap2\n      pop\n        /* \"#utility.yul\":1398:1515   */\n      pop\n        /* \"#utility.yul\":1193:1522   */\n      swap3\n      swap2\n      pop\n      pop\n      jump\t// out\n        /* \"#utility.yul\":1528:1618   */\n    tag_71:\n        /* \"#utility.yul\":1562:1569   */\n      0x00\n        /* \"#utility.yul\":1605:1610   */\n      dup2\n        /* \"#utility.yul\":1598:1611   */\n      iszero\n        /* \"#utility.yul\":1591:1612   */\n      iszero\n        /* \"#utility.yul\":1580:1612   */\n      swap1\n      pop\n        /* \"#utility.yul\":1528:1618   */\n      swap2\n      swap1\n      pop\n      jump\t// out\n        /* \"#utility.yul\":1624:1740   */\n    tag_72:\n        /* \"#utility.yul\":1694:1715   */\n      tag_116\n        /* \"#utility.yul\":1709:1714   */\n      dup2\n        /* \"#utility.yul\":1694:1715   */\n      tag_71\n      jump\t// in\n    tag_116:\n        /* \"#utility.yul\":1687:1692   */\n      dup2\n        /* \"#utility.yul\":1684:1716   */\n      eq\n        /* \"#utility.yul\":1674:1734   */\n      tag_117\n      jumpi\n        /* \"#utility.yul\":1730:1731   */\n      0x00\n        /* \"#utility.yul\":1727:1728   */\n      dup1\n        /* \"#utility.yul\":1720:1732   */\n      revert\n        /* \"#utility.yul\":1674:1734   */\n    tag_117:\n        /* \"#utility.yul\":1624:1740   */\n      pop\n      jump\t// out\n        /* \"#utility.yul\":1746:1879   */\n    tag_73:\n        /* \"#utility.yul\":1789:1794   */\n      0x00\n        /* \"#utility.yul\":1827:1833   */\n      dup2\n        /* \"#utility.yul\":1814:1834   */\n      calldataload\n        /* \"#utility.yul\":1805:1834   */\n      swap1\n      pop\n        /* \"#utility.yul\":1843:1873   */\n      tag_119\n        /* \"#utility.yul\":1867:1872   */\n      dup2\n        /* \"#utility.yul\":1843:1873   */\n      tag_72\n      jump\t// in\n    tag_119:\n        /* \"#utility.yul\":1746:1879   */\n      swap3\n      swap2\n      pop\n      pop\n      jump\t// out\n        /* \"#utility.yul\":1885:2353   */\n    tag_18:\n        /* \"#utility.yul\":1950:1956   */\n      0x00\n        /* \"#utility.yul\":1958:1964   */\n      dup1\n        /* \"#utility.yul\":2007:2009   */\n      0x40\n        /* \"#utility.yul\":1995:2004   */\n      dup4\n        /* \"#utility.yul\":1986:1993   */\n      dup6\n        /* \"#utility.yul\":1982:2005   */\n      sub\n        /* \"#utility.yul\":1978:2010   */\n      slt\n        /* \"#utility.yul\":1975:2094   */\n      iszero\n      tag_121\n      jumpi\n        /* \"#utility.yul\":2013:2092   */\n      tag_122\n      tag_67\n      jump\t// in\n    tag_122:\n        /* \"#utility.yul\":1975:2094   */\n    tag_121:\n        /* \"#utility.yul\":2133:2134   */\n      0x00\n        /* \"#utility.yul\":2158:2211   */\n      tag_123\n        /* \"#utility.yul\":2203:2210   */\n      dup6\n        /* \"#utility.yul\":2194:2200   */\n      dup3\n        /* \"#utility.yul\":2183:2192   */\n      dup7\n        /* \"#utility.yul\":2179:2201   */\n      add\n        /* \"#utility.yul\":2158:2211   */\n      tag_70\n      jump\t// in\n    tag_123:\n        /* \"#utility.yul\":2148:2211   */\n      swap3\n      pop\n        /* \"#utility.yul\":2104:2221   */\n      pop\n        /* \"#utility.yul\":2260:2262   */\n      0x20\n        /* \"#utility.yul\":2286:2336   */\n      tag_124\n        /* \"#utility.yul\":2328:2335   */\n      dup6\n        /* \"#utility.yul\":2319:2325   */\n      dup3\n        /* \"#utility.yul\":2308:2317   */\n      dup7\n        /* \"#utility.yul\":2304:2326   */\n      add\n        /* \"#utility.yul\":2286:2336   */\n      tag_73\n      jump\t// in\n    tag_124:\n        /* \"#utility.yul\":2276:2336   */\n      swap2\n      pop\n        /* \"#utility.yul\":2231:2346   */\n      pop\n        /* \"#utility.yul\":1885:2353   */\n      swap3\n      pop\n      swap3\n      swap1\n      pop\n      jump\t// out\n        /* \"#utility.yul\":2359:2468   */\n    tag_74:\n        /* \"#utility.yul\":2440:2461   */\n      tag_126\n        /* \"#utility.yul\":2455:2460   */\n      dup2\n        /* \"#utility.yul\":2440:2461   */\n      tag_71\n      jump\t// in\n    tag_126:\n        /* \"#utility.yul\":2435:2438   */\n      dup3\n        /* \"#utility.yul\":2428:2462   */\n      mstore\n        /* \"#utility.yul\":2359:2468   */\n      pop\n      pop\n      jump\t// out\n        /* \"#utility.yul\":2474:2684   */\n    tag_24:\n        /* \"#utility.yul\":2561:2565   */\n      0x00\n        /* \"#utility.yul\":2599:2601   */\n      0x20\n        /* \"#utility.yul\":2588:2597   */\n      dup3\n        /* \"#utility.yul\":2584:2602   */\n      add\n        /* \"#utility.yul\":2576:2602   */\n      swap1\n      pop\n        /* \"#utility.yul\":2612:2677   */\n      tag_128\n        /* \"#utility.yul\":2674:2675   */\n      0x00\n        /* \"#utility.yul\":2663:2672   */\n      dup4\n        /* \"#utility.yul\":2659:2676   */\n      add\n        /* \"#utility.yul\":2650:2656   */\n      dup5\n        /* \"#utility.yul\":2612:2677   */\n      tag_74\n      jump\t// in\n    tag_128:\n        /* \"#utility.yul\":2474:2684   */\n      swap3\n      swap2\n      pop\n      pop\n      jump\t// out\n        /* \"#utility.yul\":2690:2807   */\n    tag_75:\n        /* \"#utility.yul\":2799:2800   */\n      0x00\n        /* \"#utility.yul\":2796:2797   */\n      dup1\n        /* \"#utility.yul\":2789:2801   */\n      revert\n        /* \"#utility.yul\":2813:2930   */\n    tag_76:\n        /* \"#utility.yul\":2922:2923   */\n      0x00\n        /* \"#utility.yul\":2919:2920   */\n      dup1\n        /* \"#utility.yul\":2912:2924   */\n      revert\n        /* \"#utility.yul\":2936:3038   */\n    tag_77:\n        /* \"#utility.yul\":2977:2983   */\n      0x00\n        /* \"#utility.yul\":3028:3030   */\n      0x1f\n        /* \"#utility.yul\":3024:3031   */\n      not\n        /* \"#utility.yul\":3019:3021   */\n      0x1f\n        /* \"#utility.yul\":3012:3017   */\n      dup4\n        /* \"#utility.yul\":3008:3022   */\n      add\n        /* \"#utility.yul\":3004:3032   */\n      and\n        /* \"#utility.yul\":2994:3032   */\n      swap1\n      pop\n        /* \"#utility.yul\":2936:3038   */\n      swap2\n      swap1\n      pop\n      jump\t// out\n        /* \"#utility.yul\":3044:3224   */\n    tag_78:\n        /* \"#utility.yul\":3092:3169   */\n      0x4e487b7100000000000000000000000000000000000000000000000000000000\n        /* \"#utility.yul\":3089:3090   */\n      0x00\n        /* \"#utility.yul\":3082:3170   */\n      mstore\n        /* \"#utility.yul\":3189:3193   */\n      0x41\n        /* \"#utility.yul\":3186:3187   */\n      0x04\n        /* \"#utility.yul\":3179:3194   */\n      mstore\n        /* \"#utility.yul\":3213:3217   */\n      0x24\n        /* \"#utility.yul\":3210:3211   */\n      0x00\n        /* \"#utility.yul\":3203:3218   */\n      revert\n        /* \"#utility.yul\":3230:3511   */\n    tag_79:\n        /* \"#utility.yul\":3313:3340   */\n      tag_134\n        /* \"#utility.yul\":3335:3339   */\n      dup3\n        /* \"#utility.yul\":3313:3340   */\n      tag_77\n      jump\t// in\n    tag_134:\n        /* \"#utility.yul\":3305:3311   */\n      dup2\n        /* \"#utility.yul\":3301:3341   */\n      add\n        /* \"#utility.yul\":3443:3449   */\n      dup2\n        /* \"#utility.yul\":3431:3441   */\n      dup2\n        /* \"#utility.yul\":3428:3450   */\n      lt\n        /* \"#utility.yul\":3407:3425   */\n      0xffffffffffffffff\n        /* \"#utility.yul\":3395:3405   */\n      dup3\n        /* \"#utility.yul\":3392:3426   */\n      gt\n        /* \"#utility.yul\":3389:3451   */\n      or\n        /* \"#utility.yul\":3386:3474   */\n      iszero\n      tag_135\n      jumpi\n        /* \"#utility.yul\":3454:3472   */\n      tag_136\n      tag_78\n      jump\t// in\n    tag_136:\n        /* \"#utility.yul\":3386:3474   */\n    tag_135:\n        /* \"#utility.yul\":3494:3504   */\n      dup1\n        /* \"#utility.yul\":3490:3492   */\n      0x40\n        /* \"#utility.yul\":3483:3505   */\n      mstore\n        /* \"#utility.yul\":3273:3511   */\n      pop\n        /* \"#utility.yul\":3230:3511   */\n      pop\n      pop\n      jump\t// out\n        /* \"#utility.yul\":3517:3646   */\n    tag_80:\n        /* \"#utility.yul\":3551:3557   */\n      0x00\n        /* \"#utility.yul\":3578:3598   */\n      tag_138\n      tag_66\n      jump\t// in\n    tag_138:\n        /* \"#utility.yul\":3568:3598   */\n      swap1\n      pop\n        /* \"#utility.yul\":3607:3640   */\n      tag_139\n        /* \"#utility.yul\":3635:3639   */\n      dup3\n        /* \"#utility.yul\":3627:3633   */\n      dup3\n        /* \"#utility.yul\":3607:3640   */\n      tag_79\n      jump\t// in\n    tag_139:\n        /* \"#utility.yul\":3517:3646   */\n      swap2\n      swap1\n      pop\n      jump\t// out\n        /* \"#utility.yul\":3652:3959   */\n    tag_81:\n        /* \"#utility.yul\":3713:3717   */\n      0x00\n        /* \"#utility.yul\":3803:3821   */\n      0xffffffffffffffff\n        /* \"#utility.yul\":3795:3801   */\n      dup3\n        /* \"#utility.yul\":3792:3822   */\n      gt\n        /* \"#utility.yul\":3789:3845   */\n      iszero\n      tag_141\n      jumpi\n        /* \"#utility.yul\":3825:3843   */\n      tag_142\n      tag_78\n      jump\t// in\n    tag_142:\n        /* \"#utility.yul\":3789:3845   */\n    tag_141:\n        /* \"#utility.yul\":3863:3892   */\n      tag_143\n        /* \"#utility.yul\":3885:3891   */\n      dup3\n        /* \"#utility.yul\":3863:3892   */\n      tag_77\n      jump\t// in\n    tag_143:\n        /* \"#utility.yul\":3855:3892   */\n      swap1\n      pop\n        /* \"#utility.yul\":3947:3951   */\n      0x20\n        /* \"#utility.yul\":3941:3945   */\n      dup2\n        /* \"#utility.yul\":3937:3952   */\n      add\n        /* \"#utility.yul\":3929:3952   */\n      swap1\n      pop\n        /* \"#utility.yul\":3652:3959   */\n      swap2\n      swap1\n      pop\n      jump\t// out\n        /* \"#utility.yul\":3965:4119   */\n    tag_82:\n        /* \"#utility.yul\":4049:4055   */\n      dup3\n        /* \"#utility.yul\":4044:4047   */\n      dup2\n        /* \"#utility.yul\":4039:4042   */\n      dup4\n        /* \"#utility.yul\":4026:4056   */\n      calldatacopy\n        /* \"#utility.yul\":4111:4112   */\n      0x00\n        /* \"#utility.yul\":4102:4108   */\n      dup4\n        /* \"#utility.yul\":4097:4100   */\n      dup4\n        /* \"#utility.yul\":4093:4109   */\n      add\n        /* \"#utility.yul\":4086:4113   */\n      mstore\n        /* \"#utility.yul\":3965:4119   */\n      pop\n      pop\n      pop\n      jump\t// out\n        /* \"#utility.yul\":4125:4535   */\n    tag_83:\n        /* \"#utility.yul\":4202:4207   */\n      0x00\n        /* \"#utility.yul\":4227:4292   */\n      tag_146\n        /* \"#utility.yul\":4243:4291   */\n      tag_147\n        /* \"#utility.yul\":4284:4290   */\n      dup5\n        /* \"#utility.yul\":4243:4291   */\n      tag_81\n      jump\t// in\n    tag_147:\n        /* \"#utility.yul\":4227:4292   */\n      tag_80\n      jump\t// in\n    tag_146:\n        /* \"#utility.yul\":4218:4292   */\n      swap1\n      pop\n        /* \"#utility.yul\":4315:4321   */\n      dup3\n        /* \"#utility.yul\":4308:4313   */\n      dup2\n        /* \"#utility.yul\":4301:4322   */\n      mstore\n        /* \"#utility.yul\":4353:4357   */\n      0x20\n        /* \"#utility.yul\":4346:4351   */\n      dup2\n        /* \"#utility.yul\":4342:4358   */\n      add\n        /* \"#utility.yul\":4391:4394   */\n      dup5\n        /* \"#utility.yul\":4382:4388   */\n      dup5\n        /* \"#utility.yul\":4377:4380   */\n      dup5\n        /* \"#utility.yul\":4373:4389   */\n      add\n        /* \"#utility.yul\":4370:4395   */\n      gt\n        /* \"#utility.yul\":4367:4479   */\n      iszero\n      tag_148\n      jumpi\n        /* \"#utility.yul\":4398:4477   */\n      tag_149\n      tag_76\n      jump\t// in\n    tag_149:\n        /* \"#utility.yul\":4367:4479   */\n    tag_148:\n        /* \"#utility.yul\":4488:4529   */\n      tag_150\n        /* \"#utility.yul\":4522:4528   */\n      dup5\n        /* \"#utility.yul\":4517:4520   */\n      dup3\n        /* \"#utility.yul\":4512:4515   */\n      dup6\n        /* \"#utility.yul\":4488:4529   */\n      tag_82\n      jump\t// in\n    tag_150:\n        /* \"#utility.yul\":4208:4535   */\n      pop\n        /* \"#utility.yul\":4125:4535   */\n      swap4\n      swap3\n      pop\n      pop\n      pop\n      jump\t// out\n        /* \"#utility.yul\":4554:4892   */\n    tag_84:\n        /* \"#utility.yul\":4609:4614   */\n      0x00\n        /* \"#utility.yul\":4658:4661   */\n      dup3\n        /* \"#utility.yul\":4651:4655   */\n      0x1f\n        /* \"#utility.yul\":4643:4649   */\n      dup4\n        /* \"#utility.yul\":4639:4656   */\n      add\n        /* \"#utility.yul\":4635:4662   */\n      slt\n        /* \"#utility.yul\":4625:4747   */\n      tag_152\n      jumpi\n        /* \"#utility.yul\":4666:4745   */\n      tag_153\n      tag_75\n      jump\t// in\n    tag_153:\n        /* \"#utility.yul\":4625:4747   */\n    tag_152:\n        /* \"#utility.yul\":4783:4789   */\n      dup2\n        /* \"#utility.yul\":4770:4790   */\n      calldataload\n        /* \"#utility.yul\":4808:4886   */\n      tag_154\n        /* \"#utility.yul\":4882:4885   */\n      dup5\n        /* \"#utility.yul\":4874:4880   */\n      dup3\n        /* \"#utility.yul\":4867:4871   */\n      0x20\n        /* \"#utility.yul\":4859:4865   */\n      dup7\n        /* \"#utility.yul\":4855:4872   */\n      add\n        /* \"#utility.yul\":4808:4886   */\n      tag_83\n      jump\t// in\n    tag_154:\n        /* \"#utility.yul\":4799:4886   */\n      swap2\n      pop\n        /* \"#utility.yul\":4615:4892   */\n      pop\n        /* \"#utility.yul\":4554:4892   */\n      swap3\n      swap2\n      pop\n      pop\n      jump\t// out\n        /* \"#utility.yul\":4898:5550   */\n    tag_27:\n        /* \"#utility.yul\":4975:4981   */\n      0x00\n        /* \"#utility.yul\":4983:4989   */\n      dup1\n        /* \"#utility.yul\":5032:5034   */\n      0x40\n        /* \"#utility.yul\":5020:5029   */\n      dup4\n        /* \"#utility.yul\":5011:5018   */\n      dup6\n        /* \"#utility.yul\":5007:5030   */\n      sub\n        /* \"#utility.yul\":5003:5035   */\n      slt\n        /* \"#utility.yul\":5000:5119   */\n      iszero\n      tag_156\n      jumpi\n        /* \"#utility.yul\":5038:5117   */\n      tag_157\n      tag_67\n      jump\t// in\n    tag_157:\n        /* \"#utility.yul\":5000:5119   */\n    tag_156:\n        /* \"#utility.yul\":5158:5159   */\n      0x00\n        /* \"#utility.yul\":5183:5236   */\n      tag_158\n        /* \"#utility.yul\":5228:5235   */\n      dup6\n        /* \"#utility.yul\":5219:5225   */\n      dup3\n        /* \"#utility.yul\":5208:5217   */\n      dup7\n        /* \"#utility.yul\":5204:5226   */\n      add\n        /* \"#utility.yul\":5183:5236   */\n      tag_70\n      jump\t// in\n    tag_158:\n        /* \"#utility.yul\":5173:5236   */\n      swap3\n      pop\n        /* \"#utility.yul\":5129:5246   */\n      pop\n        /* \"#utility.yul\":5313:5315   */\n      0x20\n        /* \"#utility.yul\":5302:5311   */\n      dup4\n        /* \"#utility.yul\":5298:5316   */\n      add\n        /* \"#utility.yul\":5285:5317   */\n      calldataload\n        /* \"#utility.yul\":5344:5362   */\n      0xffffffffffffffff\n        /* \"#utility.yul\":5336:5342   */\n      dup2\n        /* \"#utility.yul\":5333:5363   */\n      gt\n        /* \"#utility.yul\":5330:5447   */\n      iszero\n      tag_159\n      jumpi\n        /* \"#utility.yul\":5366:5445   */\n      tag_160\n      tag_68\n      jump\t// in\n    tag_160:\n        /* \"#utility.yul\":5330:5447   */\n    tag_159:\n        /* \"#utility.yul\":5471:5533   */\n      tag_161\n        /* \"#utility.yul\":5525:5532   */\n      dup6\n        /* \"#utility.yul\":5516:5522   */\n      dup3\n        /* \"#utility.yul\":5505:5514   */\n      dup7\n        /* \"#utility.yul\":5501:5523   */\n      add\n        /* \"#utility.yul\":5471:5533   */\n      tag_84\n      jump\t// in\n    tag_161:\n        /* \"#utility.yul\":5461:5533   */\n      swap2\n      pop\n        /* \"#utility.yul\":5256:5543   */\n      pop\n        /* \"#utility.yul\":4898:5550   */\n      swap3\n      pop\n      swap3\n      swap1\n      pop\n      jump\t// out\n        /* \"#utility.yul\":5556:5725   */\n    tag_85:\n        /* \"#utility.yul\":5640:5651   */\n      0x00\n        /* \"#utility.yul\":5674:5680   */\n      dup3\n        /* \"#utility.yul\":5669:5672   */\n      dup3\n        /* \"#utility.yul\":5662:5681   */\n      mstore\n        /* \"#utility.yul\":5714:5718   */\n      0x20\n        /* \"#utility.yul\":5709:5712   */\n      dup3\n        /* \"#utility.yul\":5705:5719   */\n      add\n        /* \"#utility.yul\":5690:5719   */\n      swap1\n      pop\n        /* \"#utility.yul\":5556:5725   */\n      swap3\n      swap2\n      pop\n      pop\n      jump\t// out\n        /* \"#utility.yul\":5731:5907   */\n    tag_86:\n        /* \"#utility.yul\":5871:5899   */\n      0x4e6f206175746f72697a61646f3a20736f6c6f20697373756572000000000000\n        /* \"#utility.yul\":5867:5868   */\n      0x00\n        /* \"#utility.yul\":5859:5865   */\n      dup3\n        /* \"#utility.yul\":5855:5869   */\n      add\n        /* \"#utility.yul\":5848:5900   */\n      mstore\n        /* \"#utility.yul\":5731:5907   */\n      pop\n      jump\t// out\n        /* \"#utility.yul\":5913:6279   */\n    tag_87:\n        /* \"#utility.yul\":6055:6058   */\n      0x00\n        /* \"#utility.yul\":6076:6143   */\n      tag_165\n        /* \"#utility.yul\":6140:6142   */\n      0x1a\n        /* \"#utility.yul\":6135:6138   */\n      dup4\n        /* \"#utility.yul\":6076:6143   */\n      tag_85\n      jump\t// in\n    tag_165:\n        /* \"#utility.yul\":6069:6143   */\n      swap2\n      pop\n        /* \"#utility.yul\":6152:6245   */\n      tag_166\n        /* \"#utility.yul\":6241:6244   */\n      dup3\n        /* \"#utility.yul\":6152:6245   */\n      tag_86\n      jump\t// in\n    tag_166:\n        /* \"#utility.yul\":6270:6272   */\n      0x20\n        /* \"#utility.yul\":6265:6268   */\n      dup3\n        /* \"#utility.yul\":6261:6273   */\n      add\n        /* \"#utility.yul\":6254:6273   */\n      swap1\n      pop\n        /* \"#utility.yul\":5913:6279   */\n      swap2\n      swap1\n      pop\n      jump\t// out\n        /* \"#utility.yul\":6285:6704   */\n    tag_33:\n        /* \"#utility.yul\":6451:6455   */\n      0x00\n        /* \"#utility.yul\":6489:6491   */\n      0x20\n        /* \"#utility.yul\":6478:6487   */\n      dup3\n        /* \"#utility.yul\":6474:6492   */\n      add\n        /* \"#utility.yul\":6466:6492   */\n      swap1\n      pop\n        /* \"#utility.yul\":6538:6547   */\n      dup2\n        /* \"#utility.yul\":6532:6536   */\n      dup2\n        /* \"#utility.yul\":6528:6548   */\n      sub\n        /* \"#utility.yul\":6524:6525   */\n      0x00\n        /* \"#utility.yul\":6513:6522   */\n      dup4\n        /* \"#utility.yul\":6509:6526   */\n      add\n        /* \"#utility.yul\":6502:6549   */\n      mstore\n        /* \"#utility.yul\":6566:6697   */\n      tag_168\n        /* \"#utility.yul\":6692:6696   */\n      dup2\n        /* \"#utility.yul\":6566:6697   */\n      tag_87\n      jump\t// in\n    tag_168:\n        /* \"#utility.yul\":6558:6697   */\n      swap1\n      pop\n        /* \"#utility.yul\":6285:6704   */\n      swap2\n      swap1\n      pop\n      jump\t// out\n        /* \"#utility.yul\":6710:6875   */\n    tag_88:\n        /* \"#utility.yul\":6850:6867   */\n      0x49737375657220696e76616c69646f0000000000000000000000000000000000\n        /* \"#utility.yul\":6846:6847   */\n      0x00\n        /* \"#utility.yul\":6838:6844   */\n      dup3\n        /* \"#utility.yul\":6834:6848   */\n      add\n        /* \"#utility.yul\":6827:6868   */\n      mstore\n        /* \"#utility.yul\":6710:6875   */\n      pop\n      jump\t// out\n        /* \"#utility.yul\":6881:7247   */\n    tag_89:\n        /* \"#utility.yul\":7023:7026   */\n      0x00\n        /* \"#utility.yul\":7044:7111   */\n      tag_171\n        /* \"#utility.yul\":7108:7110   */\n      0x0f\n        /* \"#utility.yul\":7103:7106   */\n      dup4\n        /* \"#utility.yul\":7044:7111   */\n      tag_85\n      jump\t// in\n    tag_171:\n        /* \"#utility.yul\":7037:7111   */\n      swap2\n      pop\n        /* \"#utility.yul\":7120:7213   */\n      tag_172\n        /* \"#utility.yul\":7209:7212   */\n      dup3\n        /* \"#utility.yul\":7120:7213   */\n      tag_88\n      jump\t// in\n    tag_172:\n        /* \"#utility.yul\":7238:7240   */\n      0x20\n        /* \"#utility.yul\":7233:7236   */\n      dup3\n        /* \"#utility.yul\":7229:7241   */\n      add\n        /* \"#utility.yul\":7222:7241   */\n      swap1\n      pop\n        /* \"#utility.yul\":6881:7247   */\n      swap2\n      swap1\n      pop\n      jump\t// out\n        /* \"#utility.yul\":7253:7672   */\n    tag_37:\n        /* \"#utility.yul\":7419:7423   */\n      0x00\n        /* \"#utility.yul\":7457:7459   */\n      0x20\n        /* \"#utility.yul\":7446:7455   */\n      dup3\n        /* \"#utility.yul\":7442:7460   */\n      add\n        /* \"#utility.yul\":7434:7460   */\n      swap1\n      pop\n        /* \"#utility.yul\":7506:7515   */\n      dup2\n        /* \"#utility.yul\":7500:7504   */\n      dup2\n        /* \"#utility.yul\":7496:7516   */\n      sub\n        /* \"#utility.yul\":7492:7493   */\n      0x00\n        /* \"#utility.yul\":7481:7490   */\n      dup4\n        /* \"#utility.yul\":7477:7494   */\n      add\n        /* \"#utility.yul\":7470:7517   */\n      mstore\n        /* \"#utility.yul\":7534:7665   */\n      tag_174\n        /* \"#utility.yul\":7660:7664   */\n      dup2\n        /* \"#utility.yul\":7534:7665   */\n      tag_89\n      jump\t// in\n    tag_174:\n        /* \"#utility.yul\":7526:7665   */\n      swap1\n      pop\n        /* \"#utility.yul\":7253:7672   */\n      swap2\n      swap1\n      pop\n      jump\t// out\n        /* \"#utility.yul\":7678:7844   */\n    tag_90:\n        /* \"#utility.yul\":7818:7836   */\n      0x5573756172696f20696e76616c69646f00000000000000000000000000000000\n        /* \"#utility.yul\":7814:7815   */\n      0x00\n        /* \"#utility.yul\":7806:7812   */\n      dup3\n        /* \"#utility.yul\":7802:7816   */\n      add\n        /* \"#utility.yul\":7795:7837   */\n      mstore\n        /* \"#utility.yul\":7678:7844   */\n      pop\n      jump\t// out\n        /* \"#utility.yul\":7850:8216   */\n    tag_91:\n        /* \"#utility.yul\":7992:7995   */\n      0x00\n        /* \"#utility.yul\":8013:8080   */\n      tag_177\n        /* \"#utility.yul\":8077:8079   */\n      0x10\n        /* \"#utility.yul\":8072:8075   */\n      dup4\n        /* \"#utility.yul\":8013:8080   */\n      tag_85\n      jump\t// in\n    tag_177:\n        /* \"#utility.yul\":8006:8080   */\n      swap2\n      pop\n        /* \"#utility.yul\":8089:8182   */\n      tag_178\n        /* \"#utility.yul\":8178:8181   */\n      dup3\n        /* \"#utility.yul\":8089:8182   */\n      tag_90\n      jump\t// in\n    tag_178:\n        /* \"#utility.yul\":8207:8209   */\n      0x20\n        /* \"#utility.yul\":8202:8205   */\n      dup3\n        /* \"#utility.yul\":8198:8210   */\n      add\n        /* \"#utility.yul\":8191:8210   */\n      swap1\n      pop\n        /* \"#utility.yul\":7850:8216   */\n      swap2\n      swap1\n      pop\n      jump\t// out\n        /* \"#utility.yul\":8222:8641   */\n    tag_44:\n        /* \"#utility.yul\":8388:8392   */\n      0x00\n        /* \"#utility.yul\":8426:8428   */\n      0x20\n        /* \"#utility.yul\":8415:8424   */\n      dup3\n        /* \"#utility.yul\":8411:8429   */\n      add\n        /* \"#utility.yul\":8403:8429   */\n      swap1\n      pop\n        /* \"#utility.yul\":8475:8484   */\n      dup2\n        /* \"#utility.yul\":8469:8473   */\n      dup2\n        /* \"#utility.yul\":8465:8485   */\n      sub\n        /* \"#utility.yul\":8461:8462   */\n      0x00\n        /* \"#utility.yul\":8450:8459   */\n      dup4\n        /* \"#utility.yul\":8446:8463   */\n      add\n        /* \"#utility.yul\":8439:8486   */\n      mstore\n        /* \"#utility.yul\":8503:8634   */\n      tag_180\n        /* \"#utility.yul\":8629:8633   */\n      dup2\n        /* \"#utility.yul\":8503:8634   */\n      tag_91\n      jump\t// in\n    tag_180:\n        /* \"#utility.yul\":8495:8634   */\n      swap1\n      pop\n        /* \"#utility.yul\":8222:8641   */\n      swap2\n      swap1\n      pop\n      jump\t// out\n        /* \"#utility.yul\":8647:8827   */\n    tag_92:\n        /* \"#utility.yul\":8787:8819   */\n      0x43726564656e6369616c206465207573756172696f20696e76616c6964610000\n        /* \"#utility.yul\":8783:8784   */\n      0x00\n        /* \"#utility.yul\":8775:8781   */\n      dup3\n        /* \"#utility.yul\":8771:8785   */\n      add\n        /* \"#utility.yul\":8764:8820   */\n      mstore\n        /* \"#utility.yul\":8647:8827   */\n      pop\n      jump\t// out\n        /* \"#utility.yul\":8833:9199   */\n    tag_93:\n        /* \"#utility.yul\":8975:8978   */\n      0x00\n        /* \"#utility.yul\":8996:9063   */\n      tag_183\n        /* \"#utility.yul\":9060:9062   */\n      0x1e\n        /* \"#utility.yul\":9055:9058   */\n      dup4\n        /* \"#utility.yul\":8996:9063   */\n      tag_85\n      jump\t// in\n    tag_183:\n        /* \"#utility.yul\":8989:9063   */\n      swap2\n      pop\n        /* \"#utility.yul\":9072:9165   */\n      tag_184\n        /* \"#utility.yul\":9161:9164   */\n      dup3\n        /* \"#utility.yul\":9072:9165   */\n      tag_92\n      jump\t// in\n    tag_184:\n        /* \"#utility.yul\":9190:9192   */\n      0x20\n        /* \"#utility.yul\":9185:9188   */\n      dup3\n        /* \"#utility.yul\":9181:9193   */\n      add\n        /* \"#utility.yul\":9174:9193   */\n      swap1\n      pop\n        /* \"#utility.yul\":8833:9199   */\n      swap2\n      swap1\n      pop\n      jump\t// out\n        /* \"#utility.yul\":9205:9624   */\n    tag_57:\n        /* \"#utility.yul\":9371:9375   */\n      0x00\n        /* \"#utility.yul\":9409:9411   */\n      0x20\n        /* \"#utility.yul\":9398:9407   */\n      dup3\n        /* \"#utility.yul\":9394:9412   */\n      add\n        /* \"#utility.yul\":9386:9412   */\n      swap1\n      pop\n        /* \"#utility.yul\":9458:9467   */\n      dup2\n        /* \"#utility.yul\":9452:9456   */\n      dup2\n        /* \"#utility.yul\":9448:9468   */\n      sub\n        /* \"#utility.yul\":9444:9445   */\n      0x00\n        /* \"#utility.yul\":9433:9442   */\n      dup4\n        /* \"#utility.yul\":9429:9446   */\n      add\n        /* \"#utility.yul\":9422:9469   */\n      mstore\n        /* \"#utility.yul\":9486:9617   */\n      tag_186\n        /* \"#utility.yul\":9612:9616   */\n      dup2\n        /* \"#utility.yul\":9486:9617   */\n      tag_93\n      jump\t// in\n    tag_186:\n        /* \"#utility.yul\":9478:9617   */\n      swap1\n      pop\n        /* \"#utility.yul\":9205:9624   */\n      swap2\n      swap1\n      pop\n      jump\t// out\n\n    auxdata: 0xa264697066735822122020067cb50c5150d855f6ef7b1d881748381c18d1d55caad06a74c1c8b4f463c164736f6c634300080a0033\n}\n",
    "bytecode": {
      "linkReferences": {},
      "object": "60806040523480156200001157600080fd5b5060405162000eff38038062000eff8339818101604052810190620000379190620001b6565b600073ffffffffffffffffffffffffffffffffffffffff168173ffffffffffffffffffffffffffffffffffffffff161415620000aa576040517f08c379a0000000000000000000000000000000000000000000000000000000008152600401620000a19062000249565b60405180910390fd5b806000806101000a81548173ffffffffffffffffffffffffffffffffffffffff021916908373ffffffffffffffffffffffffffffffffffffffff1602179055508073ffffffffffffffffffffffffffffffffffffffff16600073ffffffffffffffffffffffffffffffffffffffff167faf014c0f1e2d7c810cfe4f4ec7c675b9dbd7ad5fd0b058fe94776a447d6f333760405160405180910390a3506200026b565b600080fd5b600073ffffffffffffffffffffffffffffffffffffffff82169050919050565b60006200017e8262000151565b9050919050565b620001908162000171565b81146200019c57600080fd5b50565b600081519050620001b08162000185565b92915050565b600060208284031215620001cf57620001ce6200014c565b5b6000620001df848285016200019f565b91505092915050565b600082825260208201905092915050565b7f49737375657220696e76616c69646f0000000000000000000000000000000000600082015250565b600062000231600f83620001e8565b91506200023e82620001f9565b602082019050919050565b60006020820190508181036000830152620002648162000222565b9050919050565b610c84806200027b6000396000f3fe608060405234801561001057600080fd5b50600436106100575760003560e01c80631d1438481461005c57806355cc4e571461007a5780636f8d2edf1461009657806373984517146100b25780639eb54de4146100e2575b600080fd5b610064610112565b60405161007191906107c1565b60405180910390f35b610094600480360381019061008f919061081c565b610136565b005b6100b060048036038101906100ab9190610881565b6102f8565b005b6100cc60048036038101906100c7919061081c565b61049f565b6040516100d991906108d0565b60405180910390f35b6100fc60048036038101906100f79190610a31565b6104f5565b60405161010991906108d0565b60405180910390f35b60008054906101000a900473ffffffffffffffffffffffffffffffffffffffff1681565b60008054906101000a900473ffffffffffffffffffffffffffffffffffffffff1673ffffffffffffffffffffffffffffffffffffffff163373ffffffffffffffffffffffffffffffffffffffff16146101c4576040517f08c379a00000000000000000000000000000000000000000000000000000000081526004016101bb90610aea565b60405180910390fd5b600073ffffffffffffffffffffffffffffffffffffffff168173ffffffffffffffffffffffffffffffffffffffff161415610234576040517f08c379a000000000000000000000000000000000000000000000000000000000815260040161022b90610b56565b60405180910390fd5b60008060009054906101000a900473ffffffffffffffffffffffffffffffffffffffff169050816000806101000a81548173ffffffffffffffffffffffffffffffffffffffff021916908373ffffffffffffffffffffffffffffffffffffffff1602179055508173ffffffffffffffffffffffffffffffffffffffff168173ffffffffffffffffffffffffffffffffffffffff167faf014c0f1e2d7c810cfe4f4ec7c675b9dbd7ad5fd0b058fe94776a447d6f333760405160405180910390a35050565b60008054906101000a900473ffffffffffffffffffffffffffffffffffffffff1673ffffffffffffffffffffffffffffffffffffffff163373ffffffffffffffffffffffffffffffffffffffff1614610386576040517f08c379a000000000000000000000000000000000000000000000000000000000815260040161037d90610aea565b60405180910390fd5b600073ffffffffffffffffffffffffffffffffffffffff168273ffffffffffffffffffffffffffffffffffffffff1614156103f6576040517f08c379a00000000000000000000000000000000000000000000000000000000081526004016103ed90610bc2565b60405180910390fd5b80600160008473ffffffffffffffffffffffffffffffffffffffff1673ffffffffffffffffffffffffffffffffffffffff16815260200190815260200160002060006101000a81548160ff0219169083151502179055508173ffffffffffffffffffffffffffffffffffffffff167f113bf4f28e816627eceef129a25c6b0acf22a6cf4c8a7d9ecba02d8b686aac218260405161049391906108d0565b60405180910390a25050565b6000600160008373ffffffffffffffffffffffffffffffffffffffff1673ffffffffffffffffffffffffffffffffffffffff16815260200190815260200160002060009054906101000a900460ff169050919050565b60008060009054906101000a900473ffffffffffffffffffffffffffffffffffffffff1673ffffffffffffffffffffffffffffffffffffffff163373ffffffffffffffffffffffffffffffffffffffff1614610586576040517f08c379a000000000000000000000000000000000000000000000000000000000815260040161057d90610aea565b60405180910390fd5b600073ffffffffffffffffffffffffffffffffffffffff168373ffffffffffffffffffffffffffffffffffffffff1614156105f6576040517f08c379a00000000000000000000000000000000000000000000000000000000081526004016105ed90610bc2565b60405180910390fd5b61066b826040518060400160405280601081526020017f52696465725f43726564656e7469616c000000000000000000000000000000008152506040518060400160405280600381526020017f312e300000000000000000000000000000000000000000000000000000000000815250610766565b6106aa576040517f08c379a00000000000000000000000000000000000000000000000000000000081526004016106a190610c2e565b60405180910390fd5b60006106b583610773565b905080600160008673ffffffffffffffffffffffffffffffffffffffff1673ffffffffffffffffffffffffffffffffffffffff16815260200190815260200160002060006101000a81548160ff0219169083151502179055508373ffffffffffffffffffffffffffffffffffffffff167f113bf4f28e816627eceef129a25c6b0acf22a6cf4c8a7d9ecba02d8b686aac218260405161075491906108d0565b60405180910390a28091505092915050565b6000600190509392505050565b6000808251119050919050565b600073ffffffffffffffffffffffffffffffffffffffff82169050919050565b60006107ab82610780565b9050919050565b6107bb816107a0565b82525050565b60006020820190506107d660008301846107b2565b92915050565b6000604051905090565b600080fd5b600080fd5b6107f9816107a0565b811461080457600080fd5b50565b600081359050610816816107f0565b92915050565b600060208284031215610832576108316107e6565b5b600061084084828501610807565b91505092915050565b60008115159050919050565b61085e81610849565b811461086957600080fd5b50565b60008135905061087b81610855565b92915050565b60008060408385031215610898576108976107e6565b5b60006108a685828601610807565b92505060206108b78582860161086c565b9150509250929050565b6108ca81610849565b82525050565b60006020820190506108e560008301846108c1565b92915050565b600080fd5b600080fd5b6000601f19601f8301169050919050565b7f4e487b7100000000000000000000000000000000000000000000000000000000600052604160045260246000fd5b61093e826108f5565b810181811067ffffffffffffffff8211171561095d5761095c610906565b5b80604052505050565b60006109706107dc565b905061097c8282610935565b919050565b600067ffffffffffffffff82111561099c5761099b610906565b5b6109a5826108f5565b9050602081019050919050565b82818337600083830152505050565b60006109d46109cf84610981565b610966565b9050828152602081018484840111156109f0576109ef6108f0565b5b6109fb8482856109b2565b509392505050565b600082601f830112610a1857610a176108eb565b5b8135610a288482602086016109c1565b91505092915050565b60008060408385031215610a4857610a476107e6565b5b6000610a5685828601610807565b925050602083013567ffffffffffffffff811115610a7757610a766107eb565b5b610a8385828601610a03565b9150509250929050565b600082825260208201905092915050565b7f4e6f206175746f72697a61646f3a20736f6c6f20697373756572000000000000600082015250565b6000610ad4601a83610a8d565b9150610adf82610a9e565b602082019050919050565b60006020820190508181036000830152610b0381610ac7565b9050919050565b7f49737375657220696e76616c69646f0000000000000000000000000000000000600082015250565b6000610b40600f83610a8d565b9150610b4b82610b0a565b602082019050919050565b60006020820190508181036000830152610b6f81610b33565b9050919050565b7f5573756172696f20696e76616c69646f00000000000000000000000000000000600082015250565b6000610bac601083610a8d565b9150610bb782610b76565b602082019050919050565b60006020820190508181036000830152610bdb81610b9f565b9050919050565b7f43726564656e6369616c206465207573756172696f20696e76616c6964610000600082015250565b6000610c18601e83610a8d565b9150610c2382610be2565b602082019050919050565b60006020820190508181036000830152610c4781610c0b565b905091905056fea264697066735822122020067cb50c5150d855f6ef7b1d881748381c18d1d55caad06a74c1c8b4f463c164736f6c634300080a0033",
      "opcodes": "PUSH1 0x80 PUSH1 0x40 MSTORE CALLVALUE DUP1 ISZERO PUSH3 0x11 JUMPI PUSH1 0x0 DUP1 REVERT JUMPDEST POP PUSH1 0x40 MLOAD PUSH3 0xEFF CODESIZE SUB DUP1 PUSH3 0xEFF DUP4 CODECOPY DUP2 DUP2 ADD PUSH1 0x40 MSTORE DUP2 ADD SWAP1 PUSH3 0x37 SWAP2 SWAP1 PUSH3 0x1B6 JUMP JUMPDEST PUSH1 0x0 PUSH20 0xFFFFFFFFFFFFFFFFFFFFFFFFFFFFFFFFFFFFFFFF AND DUP2 PUSH20 0xFFFFFFFFFFFFFFFFFFFFFFFFFFFFFFFFFFFFFFFF AND EQ ISZERO PUSH3 0xAA JUMPI PUSH1 0x40 MLOAD PUSH32 0x8C379A000000000000000000000000000000000000000000000000000000000 DUP2 MSTORE PUSH1 0x4 ADD PUSH3 0xA1 SWAP1 PUSH3 0x249 JUMP JUMPDEST PUSH1 0x40 MLOAD DUP1 SWAP2 SUB SWAP1 REVERT JUMPDEST DUP1 PUSH1 0x0 DUP1 PUSH2 0x100 EXP DUP2 SLOAD DUP2 PUSH20 0xFFFFFFFFFFFFFFFFFFFFFFFFFFFFFFFFFFFFFFFF MUL NOT AND SWAP1 DUP4 PUSH20 0xFFFFFFFFFFFFFFFFFFFFFFFFFFFFFFFFFFFFFFFF AND MUL OR SWAP1 SSTORE POP DUP1 PUSH20 0xFFFFFFFFFFFFFFFFFFFFFFFFFFFFFFFFFFFFFFFF AND PUSH1 0x0 PUSH20 0xFFFFFFFFFFFFFFFFFFFFFFFFFFFFFFFFFFFFFFFF AND PUSH32 0xAF014C0F1E2D7C810CFE4F4EC7C675B9DBD7AD5FD0B058FE94776A447D6F3337 PUSH1 0x40 MLOAD PUSH1 0x40 MLOAD DUP1 SWAP2 SUB SWAP1 LOG3 POP PUSH3 0x26B JUMP JUMPDEST PUSH1 0x0 DUP1 REVERT JUMPDEST PUSH1 0x0 PUSH20 0xFFFFFFFFFFFFFFFFFFFFFFFFFFFFFFFFFFFFFFFF DUP3 AND SWAP1 POP SWAP2 SWAP1 POP JUMP JUMPDEST PUSH1 0x0 PUSH3 0x17E DUP3 PUSH3 0x151 JUMP JUMPDEST SWAP1 POP SWAP2 SWAP1 POP JUMP JUMPDEST PUSH3 0x190 DUP2 PUSH3 0x171 JUMP JUMPDEST DUP2 EQ PUSH3 0x19C JUMPI PUSH1 0x0 DUP1 REVERT JUMPDEST POP JUMP JUMPDEST PUSH1 0x0 DUP2 MLOAD SWAP1 POP PUSH3 0x1B0 DUP2 PUSH3 0x185 JUMP JUMPDEST SWAP3 SWAP2 POP POP JUMP JUMPDEST PUSH1 0x0 PUSH1 0x20 DUP3 DUP5 SUB SLT ISZERO PUSH3 0x1CF JUMPI PUSH3 0x1CE PUSH3 0x14C JUMP JUMPDEST JUMPDEST PUSH1 0x0 PUSH3 0x1DF DUP5 DUP3 DUP6 ADD PUSH3 0x19F JUMP JUMPDEST SWAP2 POP POP SWAP3 SWAP2 POP POP JUMP JUMPDEST PUSH1 0x0 DUP3 DUP3 MSTORE PUSH1 0x20 DUP3 ADD SWAP1 POP SWAP3 SWAP2 POP POP JUMP JUMPDEST PUSH32 0x49737375657220696E76616C69646F0000000000000000000000000000000000 PUSH1 0x0 DUP3 ADD MSTORE POP JUMP JUMPDEST PUSH1 0x0 PUSH3 0x231 PUSH1 0xF DUP4 PUSH3 0x1E8 JUMP JUMPDEST SWAP2 POP PUSH3 0x23E DUP3 PUSH3 0x1F9 JUMP JUMPDEST PUSH1 0x20 DUP3 ADD SWAP1 POP SWAP2 SWAP1 POP JUMP JUMPDEST PUSH1 0x0 PUSH1 0x20 DUP3 ADD SWAP1 POP DUP2 DUP2 SUB PUSH1 0x0 DUP4 ADD MSTORE PUSH3 0x264 DUP2 PUSH3 0x222 JUMP JUMPDEST SWAP1 POP SWAP2 SWAP1 POP JUMP JUMPDEST PUSH2 0xC84 DUP1 PUSH3 0x27B PUSH1 0x0 CODECOPY PUSH1 0x0 RETURN INVALID PUSH1 0x80 PUSH1 0x40 MSTORE CALLVALUE DUP1 ISZERO PUSH2 0x10 JUMPI PUSH1 0x0 DUP1 REVERT JUMPDEST POP PUSH1 0x4 CALLDATASIZE LT PUSH2 0x57 JUMPI PUSH1 0x0 CALLDATALOAD PUSH1 0xE0 SHR DUP1 PUSH4 0x1D143848 EQ PUSH2 0x5C JUMPI DUP1 PUSH4 0x55CC4E57 EQ PUSH2 0x7A JUMPI DUP1 PUSH4 0x6F8D2EDF EQ PUSH2 0x96 JUMPI DUP1 PUSH4 0x73984517 EQ PUSH2 0xB2 JUMPI DUP1 PUSH4 0x9EB54DE4 EQ PUSH2 0xE2 JUMPI JUMPDEST PUSH1 0x0 DUP1 REVERT JUMPDEST PUSH2 0x64 PUSH2 0x112 JUMP JUMPDEST PUSH1 0x40 MLOAD PUSH2 0x71 SWAP2 SWAP1 PUSH2 0x7C1 JUMP JUMPDEST PUSH1 0x40 MLOAD DUP1 SWAP2 SUB SWAP1 RETURN JUMPDEST PUSH2 0x94 PUSH1 0x4 DUP1 CALLDATASIZE SUB DUP2 ADD SWAP1 PUSH2 0x8F SWAP2 SWAP1 PUSH2 0x81C JUMP JUMPDEST PUSH2 0x136 JUMP JUMPDEST STOP JUMPDEST PUSH2 0xB0 PUSH1 0x4 DUP1 CALLDATASIZE SUB DUP2 ADD SWAP1 PUSH2 0xAB SWAP2 SWAP1 PUSH2 0x881 JUMP JUMPDEST PUSH2 0x2F8 JUMP JUMPDEST STOP JUMPDEST PUSH2 0xCC PUSH1 0x4 DUP1 CALLDATASIZE SUB DUP2 ADD SWAP1 PUSH2 0xC7 SWAP2 SWAP1 PUSH2 0x81C JUMP JUMPDEST PUSH2 0x49F JUMP JUMPDEST PUSH1 0x40 MLOAD PUSH2 0xD9 SWAP2 SWAP1 PUSH2 0x8D0 JUMP JUMPDEST PUSH1 0x40 MLOAD DUP1 SWAP2 SUB SWAP1 RETURN JUMPDEST PUSH2 0xFC PUSH1 0x4 DUP1 CALLDATASIZE SUB DUP2 ADD SWAP1 PUSH2 0xF7 SWAP2 SWAP1 PUSH2 0xA31 JUMP JUMPDEST PUSH2 0x4F5 JUMP JUMPDEST PUSH1 0x40 MLOAD PUSH2 0x109 SWAP2 SWAP1 PUSH2 0x8D0 JUMP JUMPDEST PUSH1 0x40 MLOAD DUP1 SWAP2 SUB SWAP1 RETURN JUMPDEST PUSH1 0x0 DUP1 SLOAD SWAP1 PUSH2 0x100 EXP SWAP1 DIV PUSH20 0xFFFFFFFFFFFFFFFFFFFFFFFFFFFFFFFFFFFFFFFF AND DUP2 JUMP JUMPDEST PUSH1 0x0 DUP1 SLOAD SWAP1 PUSH2 0x100 EXP SWAP1 DIV PUSH20 0xFFFFFFFFFFFFFFFFFFFFFFFFFFFFFFFFFFFFFFFF AND PUSH20 0xFFFFFFFFFFFFFFFFFFFFFFFFFFFFFFFFFFFFFFFF AND CALLER PUSH20 0xFFFFFFFFFFFFFFFFFFFFFFFFFFFFFFFFFFFFFFFF AND EQ PUSH2 0x1C4 JUMPI PUSH1 0x40 MLOAD PUSH32 0x8C379A000000000000000000000000000000000000000000000000000000000 DUP2 MSTORE PUSH1 0x4 ADD PUSH2 0x1BB SWAP1 PUSH2 0xAEA JUMP JUMPDEST PUSH1 0x40 MLOAD DUP1 SWAP2 SUB SWAP1 REVERT JUMPDEST PUSH1 0x0 PUSH20 0xFFFFFFFFFFFFFFFFFFFFFFFFFFFFFFFFFFFFFFFF AND DUP2 PUSH20 0xFFFFFFFFFFFFFFFFFFFFFFFFFFFFFFFFFFFFFFFF AND EQ ISZERO PUSH2 0x234 JUMPI PUSH1 0x40 MLOAD PUSH32 0x8C379A000000000000000000000000000000000000000000000000000000000 DUP2 MSTORE PUSH1 0x4 ADD PUSH2 0x22B SWAP1 PUSH2 0xB56 JUMP JUMPDEST PUSH1 0x40 MLOAD DUP1 SWAP2 SUB SWAP1 REVERT JUMPDEST PUSH1 0x0 DUP1 PUSH1 0x0 SWAP1 SLOAD SWAP1 PUSH2 0x100 EXP SWAP1 DIV PUSH20 0xFFFFFFFFFFFFFFFFFFFFFFFFFFFFFFFFFFFFFFFF AND SWAP1 POP DUP2 PUSH1 0x0 DUP1 PUSH2 0x100 EXP DUP2 SLOAD DUP2 PUSH20 0xFFFFFFFFFFFFFFFFFFFFFFFFFFFFFFFFFFFFFFFF MUL NOT AND SWAP1 DUP4 PUSH20 0xFFFFFFFFFFFFFFFFFFFFFFFFFFFFFFFFFFFFFFFF AND MUL OR SWAP1 SSTORE POP DUP2 PUSH20 0xFFFFFFFFFFFFFFFFFFFFFFFFFFFFFFFFFFFFFFFF AND DUP2 PUSH20 0xFFFFFFFFFFFFFFFFFFFFFFFFFFFFFFFFFFFFFFFF AND PUSH32 0xAF014C0F1E2D7C810CFE4F4EC7C675B9DBD7AD5FD0B058FE94776A447D6F3337 PUSH1 0x40 MLOAD PUSH1 0x40 MLOAD DUP1 SWAP2 SUB SWAP1 LOG3 POP POP JUMP JUMPDEST PUSH1 0x0 DUP1 SLOAD SWAP1 PUSH2 0x100 EXP SWAP1 DIV PUSH20 0xFFFFFFFFFFFFFFFFFFFFFFFFFFFFFFFFFFFFFFFF AND PUSH20 0xFFFFFFFFFFFFFFFFFFFFFFFFFFFFFFFFFFFFFFFF AND CALLER PUSH20 0xFFFFFFFFFFFFFFFFFFFFFFFFFFFFFFFFFFFFFFFF AND EQ PUSH2 0x386 JUMPI PUSH1 0x40 MLOAD PUSH32 0x8C379A000000000000000000000000000000000000000000000000000000000 DUP2 MSTORE PUSH1 0x4 ADD PUSH2 0x37D SWAP1 PUSH2 0xAEA JUMP JUMPDEST PUSH1 0x40 MLOAD DUP1 SWAP2 SUB SWAP1 REVERT JUMPDEST PUSH1 0x0 PUSH20 0xFFFFFFFFFFFFFFFFFFFFFFFFFFFFFFFFFFFFFFFF AND DUP3 PUSH20 0xFFFFFFFFFFFFFFFFFFFFFFFFFFFFFFFFFFFFFFFF AND EQ ISZERO PUSH2 0x3F6 JUMPI PUSH1 0x40 MLOAD PUSH32 0x8C379A000000000000000000000000000000000000000000000000000000000 DUP2 MSTORE PUSH1 0x4 ADD PUSH2 0x3ED SWAP1 PUSH2 0xBC2 JUMP JUMPDEST PUSH1 0x40 MLOAD DUP1 SWAP2 SUB SWAP1 REVERT JUMPDEST DUP1 PUSH1 0x1 PUSH1 0x0 DUP5 PUSH20 0xFFFFFFFFFFFFFFFFFFFFFFFFFFFFFFFFFFFFFFFF AND PUSH20 0xFFFFFFFFFFFFFFFFFFFFFFFFFFFFFFFFFFFFFFFF AND DUP2 MSTORE PUSH1 0x20 ADD SWAP1 DUP2 MSTORE PUSH1 0x20 ADD PUSH1 0x0 KECCAK256 PUSH1 0x0 PUSH2 0x100 EXP DUP2 SLOAD DUP2 PUSH1 0xFF MUL NOT AND SWAP1 DUP4 ISZERO ISZERO MUL OR SWAP1 SSTORE POP DUP2 PUSH20 0xFFFFFFFFFFFFFFFFFFFFFFFFFFFFFFFFFFFFFFFF AND PUSH32 0x113BF4F28E816627ECEEF129A25C6B0ACF22A6CF4C8A7D9ECBA02D8B686AAC21 DUP3 PUSH1 0x40 MLOAD PUSH2 0x493 SWAP2 SWAP1 PUSH2 0x8D0 JUMP JUMPDEST PUSH1 0x40 MLOAD DUP1 SWAP2 SUB SWAP1 LOG2 POP POP JUMP JUMPDEST PUSH1 0x0 PUSH1 0x1 PUSH1 0x0 DUP4 PUSH20 0xFFFFFFFFFFFFFFFFFFFFFFFFFFFFFFFFFFFFFFFF AND PUSH20 0xFFFFFFFFFFFFFFFFFFFFFFFFFFFFFFFFFFFFFFFF AND DUP2 MSTORE PUSH1 0x20 ADD SWAP1 DUP2 MSTORE PUSH1 0x20 ADD PUSH1 0x0 KECCAK256 PUSH1 0x0 SWAP1 SLOAD SWAP1 PUSH2 0x100 EXP SWAP1 DIV PUSH1 0xFF AND SWAP1 POP SWAP2 SWAP1 POP JUMP JUMPDEST PUSH1 0x0 DUP1 PUSH1 0x0 SWAP1 SLOAD SWAP1 PUSH2 0x100 EXP SWAP1 DIV PUSH20 0xFFFFFFFFFFFFFFFFFFFFFFFFFFFFFFFFFFFFFFFF AND PUSH20 0xFFFFFFFFFFFFFFFFFFFFFFFFFFFFFFFFFFFFFFFF AND CALLER PUSH20 0xFFFFFFFFFFFFFFFFFFFFFFFFFFFFFFFFFFFFFFFF AND EQ PUSH2 0x586 JUMPI PUSH1 0x40 MLOAD PUSH32 0x8C379A000000000000000000000000000000000000000000000000000000000 DUP2 MSTORE PUSH1 0x4 ADD PUSH2 0x57D SWAP1 PUSH2 0xAEA JUMP JUMPDEST PUSH1 0x40 MLOAD DUP1 SWAP2 SUB SWAP1 REVERT JUMPDEST PUSH1 0x0 PUSH20 0xFFFFFFFFFFFFFFFFFFFFFFFFFFFFFFFFFFFFFFFF AND DUP4 PUSH20 0xFFFFFFFFFFFFFFFFFFFFFFFFFFFFFFFFFFFFFFFF AND EQ ISZERO PUSH2 0x5F6 JUMPI PUSH1 0x40 MLOAD PUSH32 0x8C379A000000000000000000000000000000000000000000000000000000000 DUP2 MSTORE PUSH1 0x4 ADD PUSH2 0x5ED SWAP1 PUSH2 0xBC2 JUMP JUMPDEST PUSH1 0x40 MLOAD DUP1 SWAP2 SUB SWAP1 REVERT JUMPDEST PUSH2 0x66B DUP3 PUSH1 0x40 MLOAD DUP1 PUSH1 0x40 ADD PUSH1 0x40 MSTORE DUP1 PUSH1 0x10 DUP2 MSTORE PUSH1 0x20 ADD PUSH32 0x52696465725F43726564656E7469616C00000000000000000000000000000000 DUP2 MSTORE POP PUSH1 0x40 MLOAD DUP1 PUSH1 0x40 ADD PUSH1 0x40 MSTORE DUP1 PUSH1 0x3 DUP2 MSTORE PUSH1 0x20 ADD PUSH32 0x312E300000000000000000000000000000000000000000000000000000000000 DUP2 MSTORE POP PUSH2 0x766 JUMP JUMPDEST PUSH2 0x6AA JUMPI PUSH1 0x40 MLOAD PUSH32 0x8C379A000000000000000000000000000000000000000000000000000000000 DUP2 MSTORE PUSH1 0x4 ADD PUSH2 0x6A1 SWAP1 PUSH2 0xC2E JUMP JUMPDEST PUSH1 0x40 MLOAD DUP1 SWAP2 SUB SWAP1 REVERT JUMPDEST PUSH1 0x0 PUSH2 0x6B5 DUP4 PUSH2 0x773 JUMP JUMPDEST SWAP1 POP DUP1 PUSH1 0x1 PUSH1 0x0 DUP7 PUSH20 0xFFFFFFFFFFFFFFFFFFFFFFFFFFFFFFFFFFFFFFFF AND PUSH20 0xFFFFFFFFFFFFFFFFFFFFFFFFFFFFFFFFFFFFFFFF AND DUP2 MSTORE PUSH1 0x20 ADD SWAP1 DUP2 MSTORE PUSH1 0x20 ADD PUSH1 0x0 KECCAK256 PUSH1 0x0 PUSH2 0x100 EXP DUP2 SLOAD DUP2 PUSH1 0xFF MUL NOT AND SWAP1 DUP4 ISZERO ISZERO MUL OR SWAP1 SSTORE POP DUP4 PUSH20 0xFFFFFFFFFFFFFFFFFFFFFFFFFFFFFFFFFFFFFFFF AND PUSH32 0x113BF4F28E816627ECEEF129A25C6B0ACF22A6CF4C8A7D9ECBA02D8B686AAC21 DUP3 PUSH1 0x40 MLOAD PUSH2 0x754 SWAP2 SWAP1 PUSH2 0x8D0 JUMP JUMPDEST PUSH1 0x40 MLOAD DUP1 SWAP2 SUB SWAP1 LOG2 DUP1 SWAP2 POP POP SWAP3 SWAP2 POP POP JUMP JUMPDEST PUSH1 0x0 PUSH1 0x1 SWAP1 POP SWAP4 SWAP3 POP POP POP JUMP JUMPDEST PUSH1 0x0 DUP1 DUP3 MLOAD GT SWAP1 POP SWAP2 SWAP1 POP JUMP JUMPDEST PUSH1 0x0 PUSH20 0xFFFFFFFFFFFFFFFFFFFFFFFFFFFFFFFFFFFFFFFF DUP3 AND SWAP1 POP SWAP2 SWAP1 POP JUMP JUMPDEST PUSH1 0x0 PUSH2 0x7AB DUP3 PUSH2 0x780 JUMP JUMPDEST SWAP1 POP SWAP2 SWAP1 POP JUMP JUMPDEST PUSH2 0x7BB DUP2 PUSH2 0x7A0 JUMP JUMPDEST DUP3 MSTORE POP POP JUMP JUMPDEST PUSH1 0x0 PUSH1 0x20 DUP3 ADD SWAP1 POP PUSH2 0x7D6 PUSH1 0x0 DUP4 ADD DUP5 PUSH2 0x7B2 JUMP JUMPDEST SWAP3 SWAP2 POP POP JUMP JUMPDEST PUSH1 0x0 PUSH1 0x40 MLOAD SWAP1 POP SWAP1 JUMP JUMPDEST PUSH1 0x0 DUP1 REVERT JUMPDEST PUSH1 0x0 DUP1 REVERT JUMPDEST PUSH2 0x7F9 DUP2 PUSH2 0x7A0 JUMP JUMPDEST DUP2 EQ PUSH2 0x804 JUMPI PUSH1 0x0 DUP1 REVERT JUMPDEST POP JUMP JUMPDEST PUSH1 0x0 DUP2 CALLDATALOAD SWAP1 POP PUSH2 0x816 DUP2 PUSH2 0x7F0 JUMP JUMPDEST SWAP3 SWAP2 POP POP JUMP JUMPDEST PUSH1 0x0 PUSH1 0x20 DUP3 DUP5 SUB SLT ISZERO PUSH2 0x832 JUMPI PUSH2 0x831 PUSH2 0x7E6 JUMP JUMPDEST JUMPDEST PUSH1 0x0 PUSH2 0x840 DUP5 DUP3 DUP6 ADD PUSH2 0x807 JUMP JUMPDEST SWAP2 POP POP SWAP3 SWAP2 POP POP JUMP JUMPDEST PUSH1 0x0 DUP2 ISZERO ISZERO SWAP1 POP SWAP2 SWAP1 POP JUMP JUMPDEST PUSH2 0x85E DUP2 PUSH2 0x849 JUMP JUMPDEST DUP2 EQ PUSH2 0x869 JUMPI PUSH1 0x0 DUP1 REVERT JUMPDEST POP JUMP JUMPDEST PUSH1 0x0 DUP2 CALLDATALOAD SWAP1 POP PUSH2 0x87B DUP2 PUSH2 0x855 JUMP JUMPDEST SWAP3 SWAP2 POP POP JUMP JUMPDEST PUSH1 0x0 DUP1 PUSH1 0x40 DUP4 DUP6 SUB SLT ISZERO PUSH2 0x898 JUMPI PUSH2 0x897 PUSH2 0x7E6 JUMP JUMPDEST JUMPDEST PUSH1 0x0 PUSH2 0x8A6 DUP6 DUP3 DUP7 ADD PUSH2 0x807 JUMP JUMPDEST SWAP3 POP POP PUSH1 0x20 PUSH2 0x8B7 DUP6 DUP3 DUP7 ADD PUSH2 0x86C JUMP JUMPDEST SWAP2 POP POP SWAP3 POP SWAP3 SWAP1 POP JUMP JUMPDEST PUSH2 0x8CA DUP2 PUSH2 0x849 JUMP JUMPDEST DUP3 MSTORE POP POP JUMP JUMPDEST PUSH1 0x0 PUSH1 0x20 DUP3 ADD SWAP1 POP PUSH2 0x8E5 PUSH1 0x0 DUP4 ADD DUP5 PUSH2 0x8C1 JUMP JUMPDEST SWAP3 SWAP2 POP POP JUMP JUMPDEST PUSH1 0x0 DUP1 REVERT JUMPDEST PUSH1 0x0 DUP1 REVERT JUMPDEST PUSH1 0x0 PUSH1 0x1F NOT PUSH1 0x1F DUP4 ADD AND SWAP1 POP SWAP2 SWAP1 POP JUMP JUMPDEST PUSH32 0x4E487B7100000000000000000000000000000000000000000000000000000000 PUSH1 0x0 MSTORE PUSH1 0x41 PUSH1 0x4 MSTORE PUSH1 0x24 PUSH1 0x0 REVERT JUMPDEST PUSH2 0x93E DUP3 PUSH2 0x8F5 JUMP JUMPDEST DUP2 ADD DUP2 DUP2 LT PUSH8 0xFFFFFFFFFFFFFFFF DUP3 GT OR ISZERO PUSH2 0x95D JUMPI PUSH2 0x95C PUSH2 0x906 JUMP JUMPDEST JUMPDEST DUP1 PUSH1 0x40 MSTORE POP POP POP JUMP JUMPDEST PUSH1 0x0 PUSH2 0x970 PUSH2 0x7DC JUMP JUMPDEST SWAP1 POP PUSH2 0x97C DUP3 DUP3 PUSH2 0x935 JUMP JUMPDEST SWAP2 SWAP1 POP JUMP JUMPDEST PUSH1 0x0 PUSH8 0xFFFFFFFFFFFFFFFF DUP3 GT ISZERO PUSH2 0x99C JUMPI PUSH2 0x99B PUSH2 0x906 JUMP JUMPDEST JUMPDEST PUSH2 0x9A5 DUP3 PUSH2 0x8F5 JUMP JUMPDEST SWAP1 POP PUSH1 0x20 DUP2 ADD SWAP1 POP SWAP2 SWAP1 POP JUMP JUMPDEST DUP3 DUP2 DUP4 CALLDATACOPY PUSH1 0x0 DUP4 DUP4 ADD MSTORE POP POP POP JUMP JUMPDEST PUSH1 0x0 PUSH2 0x9D4 PUSH2 0x9CF DUP5 PUSH2 0x981 JUMP JUMPDEST PUSH2 0x966 JUMP JUMPDEST SWAP1 POP DUP3 DUP2 MSTORE PUSH1 0x20 DUP2 ADD DUP5 DUP5 DUP5 ADD GT ISZERO PUSH2 0x9F0 JUMPI PUSH2 0x9EF PUSH2 0x8F0 JUMP JUMPDEST JUMPDEST PUSH2 0x9FB DUP5 DUP3 DUP6 PUSH2 0x9B2 JUMP JUMPDEST POP SWAP4 SWAP3 POP POP POP JUMP JUMPDEST PUSH1 0x0 DUP3 PUSH1 0x1F DUP4 ADD SLT PUSH2 0xA18 JUMPI PUSH2 0xA17 PUSH2 0x8EB JUMP JUMPDEST JUMPDEST DUP2 CALLDATALOAD PUSH2 0xA28 DUP5 DUP3 PUSH1 0x20 DUP7 ADD PUSH2 0x9C1 JUMP JUMPDEST SWAP2 POP POP SWAP3 SWAP2 POP POP JUMP JUMPDEST PUSH1 0x0 DUP1 PUSH1 0x40 DUP4 DUP6 SUB SLT ISZERO PUSH2 0xA48 JUMPI PUSH2 0xA47 PUSH2 0x7E6 JUMP JUMPDEST JUMPDEST PUSH1 0x0 PUSH2 0xA56 DUP6 DUP3 DUP7 ADD PUSH2 0x807 JUMP JUMPDEST SWAP3 POP POP PUSH1 0x20 DUP4 ADD CALLDATALOAD PUSH8 0xFFFFFFFFFFFFFFFF DUP2 GT ISZERO PUSH2 0xA77 JUMPI PUSH2 0xA76 PUSH2 0x7EB JUMP JUMPDEST JUMPDEST PUSH2 0xA83 DUP6 DUP3 DUP7 ADD PUSH2 0xA03 JUMP JUMPDEST SWAP2 POP POP SWAP3 POP SWAP3 SWAP1 POP JUMP JUMPDEST PUSH1 0x0 DUP3 DUP3 MSTORE PUSH1 0x20 DUP3 ADD SWAP1 POP SWAP3 SWAP2 POP POP JUMP JUMPDEST PUSH32 0x4E6F206175746F72697A61646F3A20736F6C6F20697373756572000000000000 PUSH1 0x0 DUP3 ADD MSTORE POP JUMP JUMPDEST PUSH1 0x0 PUSH2 0xAD4 PUSH1 0x1A DUP4 PUSH2 0xA8D JUMP JUMPDEST SWAP2 POP PUSH2 0xADF DUP3 PUSH2 0xA9E JUMP JUMPDEST PUSH1 0x20 DUP3 ADD SWAP1 POP SWAP2 SWAP1 POP JUMP JUMPDEST PUSH1 0x0 PUSH1 0x20 DUP3 ADD SWAP1 POP DUP2 DUP2 SUB PUSH1 0x0 DUP4 ADD MSTORE PUSH2 0xB03 DUP2 PUSH2 0xAC7 JUMP JUMPDEST SWAP1 POP SWAP2 SWAP1 POP JUMP JUMPDEST PUSH32 0x49737375657220696E76616C69646F0000000000000000000000000000000000 PUSH1 0x0 DUP3 ADD MSTORE POP JUMP JUMPDEST PUSH1 0x0 PUSH2 0xB40 PUSH1 0xF DUP4 PUSH2 0xA8D JUMP JUMPDEST SWAP2 POP PUSH2 0xB4B DUP3 PUSH2 0xB0A JUMP JUMPDEST PUSH1 0x20 DUP3 ADD SWAP1 POP SWAP2 SWAP1 POP JUMP JUMPDEST PUSH1 0x0 PUSH1 0x20 DUP3 ADD SWAP1 POP DUP2 DUP2 SUB PUSH1 0x0 DUP4 ADD MSTORE PUSH2 0xB6F DUP2 PUSH2 0xB33 JUMP JUMPDEST SWAP1 POP SWAP2 SWAP1 POP JUMP JUMPDEST PUSH32 0x5573756172696F20696E76616C69646F00000000000000000000000000000000 PUSH1 0x0 DUP3 ADD MSTORE POP JUMP JUMPDEST PUSH1 0x0 PUSH2 0xBAC PUSH1 0x10 DUP4 PUSH2 0xA8D JUMP JUMPDEST SWAP2 POP PUSH2 0xBB7 DUP3 PUSH2 0xB76 JUMP JUMPDEST PUSH1 0x20 DUP3 ADD SWAP1 POP SWAP2 SWAP1 POP JUMP JUMPDEST PUSH1 0x0 PUSH1 0x20 DUP3 ADD SWAP1 POP DUP2 DUP2 SUB PUSH1 0x0 DUP4 ADD MSTORE PUSH2 0xBDB DUP2 PUSH2 0xB9F JUMP JUMPDEST SWAP1 POP SWAP2 SWAP1 POP JUMP JUMPDEST PUSH32 0x43726564656E6369616C206465207573756172696F20696E76616C6964610000 PUSH1 0x0 DUP3 ADD MSTORE POP JUMP JUMPDEST PUSH1 0x0 PUSH2 0xC18 PUSH1 0x1E DUP4 PUSH2 0xA8D JUMP JUMPDEST SWAP2 POP PUSH2 0xC23 DUP3 PUSH2 0xBE2 JUMP JUMPDEST PUSH1 0x20 DUP3 ADD SWAP1 POP SWAP2 SWAP1 POP JUMP JUMPDEST PUSH1 0x0 PUSH1 0x20 DUP3 ADD SWAP1 POP DUP2 DUP2 SUB PUSH1 0x0 DUP4 ADD MSTORE PUSH2 0xC47 DUP2 PUSH2 0xC0B JUMP JUMPDEST SWAP1 POP SWAP2 SWAP1 POP JUMP INVALID LOG2 PUSH5 0x6970667358 0x22 SLT KECCAK256 KECCAK256 MOD PUSH29 0xB50C5150D855F6EF7B1D881748381C18D1D55CAAD06A74C1C8B4F463C1 PUSH5 0x736F6C6343 STOP ADDMOD EXP STOP CALLER "
    },
    "gasEstimates": {
      "creation": {
        "codeDepositCost": "640800",
        "executionCost": "infinite",
        "totalCost": "infinite"
      },
      "external": {
        "canUserRide(address)": "2927",
        "issuer()": "2489",
        "setIssuer(address)": "30621",
        "setRiderPermission(address,bool)": "infinite",
        "setRiderPermissionWithCredential(address,bytes)": "infinite"
      },
      "internal": {
        "extractCredentialCanRide(bytes memory)": "infinite",
        "verifyCredentialSignature(bytes memory,string memory,string memory)": "32"
      }
    },
    "methodIdentifiers": {
      "canUserRide(address)": "73984517",
      "issuer()": "1d143848",
      "setIssuer(address)": "55cc4e57",
      "setRiderPermission(address,bool)": "6f8d2edf",
      "setRiderPermissionWithCredential(address,bytes)": "9eb54de4"
    }
  },
  "storageLayout": {
    "storage": [
      {
        "astId": 1211,
        "contract": "UserVerification.sol:UserVerification",
        "label": "issuer",
        "offset": 0,
        "slot": "0",
        "type": "t_address"
      },
      {
        "astId": 1215,
        "contract": "UserVerification.sol:UserVerification",
        "label": "_canRide",
        "offset": 0,
        "slot": "1",
        "type": "t_mapping(t_address,t_bool)"
      }
    ],
    "types": {
      "t_address": {
        "encoding": "inplace",
        "label": "address",
        "numberOfBytes": "20"
      },
      "t_bool": {
        "encoding": "inplace",
        "label": "bool",
        "numberOfBytes": "1"
      },
      "t_mapping(t_address,t_bool)": {
        "encoding": "mapping",
        "key": "t_address",
        "label": "mapping(address => bool)",
        "numberOfBytes": "32",
        "value": "t_bool"
      }
    }
  },
  "userdoc": {
    "kind": "user",
    "methods": {
      "canUserRide(address)": {
        "notice": "Devuelve true si el usuario esta autorizado para volar."
      },
      "setIssuer(address)": {
        "notice": "Permite cambiar el issuer autorizado (por ejemplo rotacion de backend/agent)."
      },
      "setRiderPermission(address,bool)": {
        "notice": "Registra directamente la decision canRide para un usuario."
      },
      "setRiderPermissionWithCredential(address,bytes)": {
        "notice": "Registra o actualiza el permiso de un usuario para volar,         en base a una credencial verificada off-chain."
      }
    },
    "notice": "Mantiene un registro on-chain de si un usuario puede o no reservar vuelos,         en base a credenciales verificadas off-chain (Aries/Indy en produccion).",
    "version": 1
  }
}