{
  "abi": [
    {
      "anonymous": false,
      "inputs": [
        {
          "indexed": true,
          "internalType": "string",
          "name": "vertiportId",
          "type": "string"
        },
        {
          "indexed": false,
          "internalType": "uint256",
          "name": "n_airstrip",
          "type": "uint256"
        },
        {
          "indexed": false,
          "internalType": "uint256",
          "name": "n_parkings",
          "type": "uint256"
        }
      ],
      "name": "VertiportRegistered",
      "type": "event"
    },
    {
      "anonymous": false,
      "inputs": [
        {
          "indexed": true,
          "internalType": "string",
          "name": "vertiportId",
          "type": "string"
        },
        {
          "indexed": false,
          "internalType": "uint256",
          "name": "n_free_airstrip",
          "type": "uint256"
        },
        {
          "indexed": false,
          "internalType": "uint256",
          "name": "n_parkings_free",
          "type": "uint256"
        }
      ],
      "name": "VertiportUpdated",
      "type": "event"
    },
    {
      "inputs": [
        {
          "internalType": "string",
          "name": "vertiportId",
          "type": "string"
        }
      ],
      "name": "checkLandingAvailability",
      "outputs": [
        {
          "internalType": "bool",
          "name": "",
          "type": "bool"
        }
      ],
      "stateMutability": "view",
      "type": "function"
    },
    {
      "inputs": [
        {
          "internalType": "string",
          "name": "vertiportId",
          "type": "string"
        }
      ],
      "name": "getVertiportState",
      "outputs": [
        {
          "components": [
            {
              "internalType": "string",
              "name": "id",
              "type": "string"
            },
            {
              "internalType": "uint256",
              "name": "n_airstrip",
              "type": "uint256"
            },
            {
              "internalType": "uint256",
              "name": "n_parkings",
              "type": "uint256"
            },
            {
              "internalType": "uint256",
              "name": "n_free_airstrip",
              "type": "uint256"
            },
            {
              "internalType": "uint256",
              "name": "n_parkings_free",
              "type": "uint256"
            },
            {
              "internalType": "bool",
              "name": "exists",
              "type": "bool"
            }
          ],
          "internalType": "struct VertiportManagement.VertiportState",
          "name": "",
          "type": "tuple"
        }
      ],
      "stateMutability": "view",
      "type": "function"
    },
    {
      "inputs": [
        {
          "internalType": "string",
          "name": "vertiportId",
          "type": "string"
        },
        {
          "internalType": "uint256",
          "name": "n_airstrip",
          "type": "uint256"
        },
        {
          "internalType": "uint256",
          "name": "n_parkings",
          "type": "uint256"
        },
        {
          "internalType": "bytes",
          "name": "vertiportCredential",
          "type": "bytes"
        }
      ],
      "name": "registerVertiport",
      "outputs": [],
      "stateMutability": "nonpayable",
      "type": "function"
    },
    {
      "inputs": [
        {
          "internalType": "string",
          "name": "vertiportId",
          "type": "string"
        },
        {
          "internalType": "bytes",
          "name": "vertiportCredential",
          "type": "bytes"
        },
        {
          "internalType": "int256",
          "name": "airstripDelta",
          "type": "int256"
        },
        {
          "internalType": "int256",
          "name": "parkingDelta",
          "type": "int256"
        }
      ],
      "name": "updateVertiportState",
      "outputs": [],
      "stateMutability": "nonpayable",
      "type": "function"
    }
  ],
  "devdoc": {
    "kind": "dev",
    "methods": {
      "registerVertiport(string,uint256,uint256,bytes)": {
        "params": {
          "n_airstrip": "Número total de pistas de aterrizaje.",
          "n_parkings": "Número total de parkings.",
          "vertiportCredential": "Credencial SSI mock del vertiport.",
          "vertiportId": "Identificador lógico del vertiport."
        }
      },
      "updateVertiportState(string,bytes,int256,int256)": {
        "details": "Los deltas pueden ser positivos (liberar recursos) o negativos (ocupar).",
        "params": {
          "airstripDelta": "Cambio en pistas libres (int, puede ser negativo).",
          "parkingDelta": "Cambio en parkings libres (int, puede ser negativo).",
          "vertiportCredential": "Credencial SSI mock del vertiport.",
          "vertiportId": "Identificador del vertiport."
        }
      }
    },
    "title": "Gestión de Vertiports",
    "version": 1
  },
  "evm": {
    "assembly": "    /* \"VertiportManagement.sol\":218:5964  contract VertiportManagement {... */\n  mstore(0x40, 0x80)\n  callvalue\n  dup1\n  iszero\n  tag_1\n  jumpi\n  0x00\n  dup1\n  revert\ntag_1:\n  pop\n  dataSize(sub_0)\n  dup1\n  dataOffset(sub_0)\n  0x00\n  codecopy\n  0x00\n  return\nstop\n\nsub_0: assembly {\n        /* \"VertiportManagement.sol\":218:5964  contract VertiportManagement {... */\n      mstore(0x40, 0x80)\n      callvalue\n      dup1\n      iszero\n      tag_1\n      jumpi\n      0x00\n      dup1\n      revert\n    tag_1:\n      pop\n      jumpi(tag_2, lt(calldatasize, 0x04))\n      shr(0xe0, calldataload(0x00))\n      dup1\n      0x04dde7b1\n      eq\n      tag_3\n      jumpi\n      dup1\n      0x263d46ed\n      eq\n      tag_4\n      jumpi\n      dup1\n      0x41e1b73b\n      eq\n      tag_5\n      jumpi\n      dup1\n      0xcf0803e9\n      eq\n      tag_6\n      jumpi\n    tag_2:\n      0x00\n      dup1\n      revert\n        /* \"VertiportManagement.sol\":5329:5636  function checkLandingAvailability(... */\n    tag_3:\n      tag_7\n      0x04\n      dup1\n      calldatasize\n      sub\n      dup2\n      add\n      swap1\n      tag_8\n      swap2\n      swap1\n      tag_9\n      jump\t// in\n    tag_8:\n      tag_10\n      jump\t// in\n    tag_7:\n      mload(0x40)\n      tag_11\n      swap2\n      swap1\n      tag_12\n      jump\t// in\n    tag_11:\n      mload(0x40)\n      dup1\n      swap2\n      sub\n      swap1\n      return\n        /* \"VertiportManagement.sol\":1905:2990  function registerVertiport(... */\n    tag_4:\n      tag_13\n      0x04\n      dup1\n      calldatasize\n      sub\n      dup2\n      add\n      swap1\n      tag_14\n      swap2\n      swap1\n      tag_15\n      jump\t// in\n    tag_14:\n      tag_16\n      jump\t// in\n    tag_13:\n      stop\n        /* \"VertiportManagement.sol\":5703:5962  function getVertiportState(... */\n    tag_5:\n      tag_17\n      0x04\n      dup1\n      calldatasize\n      sub\n      dup2\n      add\n      swap1\n      tag_18\n      swap2\n      swap1\n      tag_9\n      jump\t// in\n    tag_18:\n      tag_19\n      jump\t// in\n    tag_17:\n      mload(0x40)\n      tag_20\n      swap2\n      swap1\n      tag_21\n      jump\t// in\n    tag_20:\n      mload(0x40)\n      dup1\n      swap2\n      sub\n      swap1\n      return\n        /* \"VertiportManagement.sol\":3451:5253  function updateVertiportState(... */\n    tag_6:\n      tag_22\n      0x04\n      dup1\n      calldatasize\n      sub\n      dup2\n      add\n      swap1\n      tag_23\n      swap2\n      swap1\n      tag_24\n      jump\t// in\n    tag_23:\n      tag_25\n      jump\t// in\n    tag_22:\n      stop\n        /* \"VertiportManagement.sol\":5329:5636  function checkLandingAvailability(... */\n    tag_10:\n        /* \"VertiportManagement.sol\":5425:5429  bool */\n      0x00\n        /* \"VertiportManagement.sol\":5441:5468  VertiportState storage port */\n      dup1\n        /* \"VertiportManagement.sol\":5471:5481  vertiports */\n      0x00\n        /* \"VertiportManagement.sol\":5482:5493  vertiportId */\n      dup4\n        /* \"VertiportManagement.sol\":5471:5494  vertiports[vertiportId] */\n      mload(0x40)\n      tag_27\n      swap2\n      swap1\n      tag_28\n      jump\t// in\n    tag_27:\n      swap1\n      dup2\n      mstore\n      0x20\n      add\n      mload(0x40)\n      dup1\n      swap2\n      sub\n      swap1\n      keccak256\n        /* \"VertiportManagement.sol\":5441:5494  VertiportState storage port = vertiports[vertiportId] */\n      swap1\n      pop\n        /* \"VertiportManagement.sol\":5509:5513  port */\n      dup1\n        /* \"VertiportManagement.sol\":5509:5520  port.exists */\n      0x05\n      add\n      0x00\n      swap1\n      sload\n      swap1\n      0x0100\n      exp\n      swap1\n      div\n      0xff\n      and\n        /* \"VertiportManagement.sol\":5504:5559  if (!port.exists) {... */\n      tag_29\n      jumpi\n        /* \"VertiportManagement.sol\":5543:5548  false */\n      0x00\n        /* \"VertiportManagement.sol\":5536:5548  return false */\n      swap2\n      pop\n      pop\n      jump(tag_26)\n        /* \"VertiportManagement.sol\":5504:5559  if (!port.exists) {... */\n    tag_29:\n        /* \"VertiportManagement.sol\":5599:5600  0 */\n      0x00\n        /* \"VertiportManagement.sol\":5576:5580  port */\n      dup2\n        /* \"VertiportManagement.sol\":5576:5596  port.n_free_airstrip */\n      0x03\n      add\n      sload\n        /* \"VertiportManagement.sol\":5576:5600  port.n_free_airstrip > 0 */\n      gt\n        /* \"VertiportManagement.sol\":5576:5628  port.n_free_airstrip > 0 && port.n_parkings_free > 0 */\n      dup1\n      iszero\n      tag_30\n      jumpi\n      pop\n        /* \"VertiportManagement.sol\":5627:5628  0 */\n      0x00\n        /* \"VertiportManagement.sol\":5604:5608  port */\n      dup2\n        /* \"VertiportManagement.sol\":5604:5624  port.n_parkings_free */\n      0x04\n      add\n      sload\n        /* \"VertiportManagement.sol\":5604:5628  port.n_parkings_free > 0 */\n      gt\n        /* \"VertiportManagement.sol\":5576:5628  port.n_free_airstrip > 0 && port.n_parkings_free > 0 */\n    tag_30:\n        /* \"VertiportManagement.sol\":5568:5629  return (port.n_free_airstrip > 0 && port.n_parkings_free > 0) */\n      swap2\n      pop\n      pop\n        /* \"VertiportManagement.sol\":5329:5636  function checkLandingAvailability(... */\n    tag_26:\n      swap2\n      swap1\n      pop\n      jump\t// out\n        /* \"VertiportManagement.sol\":1905:2990  function registerVertiport(... */\n    tag_16:\n        /* \"VertiportManagement.sol\":2109:2243  verifyCredentialSignature(... */\n      tag_32\n        /* \"VertiportManagement.sol\":2152:2171  vertiportCredential */\n      dup2\n        /* \"VertiportManagement.sol\":2109:2243  verifyCredentialSignature(... */\n      mload(0x40)\n      dup1\n      0x40\n      add\n      0x40\n      mstore\n      dup1\n      0x0f\n      dup2\n      mstore\n      0x20\n      add\n      0x506f72745f43726564656e7469616c0000000000000000000000000000000000\n      dup2\n      mstore\n      pop\n      mload(0x40)\n      dup1\n      0x40\n      add\n      0x40\n      mstore\n      dup1\n      0x03\n      dup2\n      mstore\n      0x20\n      add\n      0x342e300000000000000000000000000000000000000000000000000000000000\n      dup2\n      mstore\n      pop\n        /* \"VertiportManagement.sol\":2109:2134  verifyCredentialSignature */\n      tag_33\n        /* \"VertiportManagement.sol\":2109:2243  verifyCredentialSignature(... */\n      jump\t// in\n    tag_32:\n        /* \"VertiportManagement.sol\":2088:2301  require(... */\n      tag_34\n      jumpi\n      mload(0x40)\n      0x08c379a000000000000000000000000000000000000000000000000000000000\n      dup2\n      mstore\n      0x04\n      add\n      tag_35\n      swap1\n      tag_36\n      jump\t// in\n    tag_35:\n      mload(0x40)\n      dup1\n      swap2\n      sub\n      swap1\n      revert\n    tag_34:\n        /* \"VertiportManagement.sol\":2312:2343  VertiportState storage existing */\n      0x00\n        /* \"VertiportManagement.sol\":2346:2356  vertiports */\n      dup1\n        /* \"VertiportManagement.sol\":2357:2368  vertiportId */\n      dup6\n        /* \"VertiportManagement.sol\":2346:2369  vertiports[vertiportId] */\n      mload(0x40)\n      tag_37\n      swap2\n      swap1\n      tag_28\n      jump\t// in\n    tag_37:\n      swap1\n      dup2\n      mstore\n      0x20\n      add\n      mload(0x40)\n      dup1\n      swap2\n      sub\n      swap1\n      keccak256\n        /* \"VertiportManagement.sol\":2312:2369  VertiportState storage existing = vertiports[vertiportId] */\n      swap1\n      pop\n        /* \"VertiportManagement.sol\":2388:2396  existing */\n      dup1\n        /* \"VertiportManagement.sol\":2388:2403  existing.exists */\n      0x05\n      add\n      0x00\n      swap1\n      sload\n      swap1\n      0x0100\n      exp\n      swap1\n      div\n      0xff\n      and\n        /* \"VertiportManagement.sol\":2387:2403  !existing.exists */\n      iszero\n        /* \"VertiportManagement.sol\":2379:2431  require(!existing.exists, \"Vertiport ya registrado\") */\n      tag_38\n      jumpi\n      mload(0x40)\n      0x08c379a000000000000000000000000000000000000000000000000000000000\n      dup2\n      mstore\n      0x04\n      add\n      tag_39\n      swap1\n      tag_40\n      jump\t// in\n    tag_39:\n      mload(0x40)\n      dup1\n      swap2\n      sub\n      swap1\n      revert\n    tag_38:\n        /* \"VertiportManagement.sol\":2475:2476  0 */\n      0x00\n        /* \"VertiportManagement.sol\":2462:2472  n_airstrip */\n      dup5\n        /* \"VertiportManagement.sol\":2462:2476  n_airstrip > 0 */\n      gt\n        /* \"VertiportManagement.sol\":2462:2494  n_airstrip > 0 || n_parkings > 0 */\n      dup1\n      tag_41\n      jumpi\n      pop\n        /* \"VertiportManagement.sol\":2493:2494  0 */\n      0x00\n        /* \"VertiportManagement.sol\":2480:2490  n_parkings */\n      dup4\n        /* \"VertiportManagement.sol\":2480:2494  n_parkings > 0 */\n      gt\n        /* \"VertiportManagement.sol\":2462:2494  n_airstrip > 0 || n_parkings > 0 */\n    tag_41:\n        /* \"VertiportManagement.sol\":2441:2538  require(... */\n      tag_42\n      jumpi\n      mload(0x40)\n      0x08c379a000000000000000000000000000000000000000000000000000000000\n      dup2\n      mstore\n      0x04\n      add\n      tag_43\n      swap1\n      tag_44\n      jump\t// in\n    tag_43:\n      mload(0x40)\n      dup1\n      swap2\n      sub\n      swap1\n      revert\n    tag_42:\n        /* \"VertiportManagement.sol\":2549:2576  VertiportState storage port */\n      0x00\n        /* \"VertiportManagement.sol\":2579:2589  vertiports */\n      dup1\n        /* \"VertiportManagement.sol\":2590:2601  vertiportId */\n      dup7\n        /* \"VertiportManagement.sol\":2579:2602  vertiports[vertiportId] */\n      mload(0x40)\n      tag_45\n      swap2\n      swap1\n      tag_28\n      jump\t// in\n    tag_45:\n      swap1\n      dup2\n      mstore\n      0x20\n      add\n      mload(0x40)\n      dup1\n      swap2\n      sub\n      swap1\n      keccak256\n        /* \"VertiportManagement.sol\":2549:2602  VertiportState storage port = vertiports[vertiportId] */\n      swap1\n      pop\n        /* \"VertiportManagement.sol\":2622:2633  vertiportId */\n      dup6\n        /* \"VertiportManagement.sol\":2612:2616  port */\n      dup2\n        /* \"VertiportManagement.sol\":2612:2619  port.id */\n      0x00\n      add\n        /* \"VertiportManagement.sol\":2612:2633  port.id = vertiportId */\n      swap1\n      dup1\n      mload\n      swap1\n      0x20\n      add\n      swap1\n      tag_46\n      swap3\n      swap2\n      swap1\n      tag_47\n      jump\t// in\n    tag_46:\n      pop\n        /* \"VertiportManagement.sol\":2661:2671  n_airstrip */\n      dup5\n        /* \"VertiportManagement.sol\":2643:2647  port */\n      dup2\n        /* \"VertiportManagement.sol\":2643:2658  port.n_airstrip */\n      0x01\n      add\n        /* \"VertiportManagement.sol\":2643:2671  port.n_airstrip = n_airstrip */\n      dup2\n      swap1\n      sstore\n      pop\n        /* \"VertiportManagement.sol\":2699:2709  n_parkings */\n      dup4\n        /* \"VertiportManagement.sol\":2681:2685  port */\n      dup2\n        /* \"VertiportManagement.sol\":2681:2696  port.n_parkings */\n      0x02\n      add\n        /* \"VertiportManagement.sol\":2681:2709  port.n_parkings = n_parkings */\n      dup2\n      swap1\n      sstore\n      pop\n        /* \"VertiportManagement.sol\":2742:2752  n_airstrip */\n      dup5\n        /* \"VertiportManagement.sol\":2719:2723  port */\n      dup2\n        /* \"VertiportManagement.sol\":2719:2739  port.n_free_airstrip */\n      0x03\n      add\n        /* \"VertiportManagement.sol\":2719:2752  port.n_free_airstrip = n_airstrip */\n      dup2\n      swap1\n      sstore\n      pop\n        /* \"VertiportManagement.sol\":2785:2795  n_parkings */\n      dup4\n        /* \"VertiportManagement.sol\":2762:2766  port */\n      dup2\n        /* \"VertiportManagement.sol\":2762:2782  port.n_parkings_free */\n      0x04\n      add\n        /* \"VertiportManagement.sol\":2762:2795  port.n_parkings_free = n_parkings */\n      dup2\n      swap1\n      sstore\n      pop\n        /* \"VertiportManagement.sol\":2819:2823  true */\n      0x01\n        /* \"VertiportManagement.sol\":2805:2809  port */\n      dup2\n        /* \"VertiportManagement.sol\":2805:2816  port.exists */\n      0x05\n      add\n      0x00\n        /* \"VertiportManagement.sol\":2805:2823  port.exists = true */\n      0x0100\n      exp\n      dup2\n      sload\n      dup2\n      0xff\n      mul\n      not\n      and\n      swap1\n      dup4\n      iszero\n      iszero\n      mul\n      or\n      swap1\n      sstore\n      pop\n        /* \"VertiportManagement.sol\":2859:2870  vertiportId */\n      dup6\n        /* \"VertiportManagement.sol\":2839:2895  VertiportRegistered(vertiportId, n_airstrip, n_parkings) */\n      mload(0x40)\n      tag_48\n      swap2\n      swap1\n      tag_28\n      jump\t// in\n    tag_48:\n      mload(0x40)\n      dup1\n      swap2\n      sub\n      swap1\n      keccak256\n      0xd81cde743e975d867477af9fb074f61098109711df4c13495fa2d1385d70b125\n        /* \"VertiportManagement.sol\":2872:2882  n_airstrip */\n      dup7\n        /* \"VertiportManagement.sol\":2884:2894  n_parkings */\n      dup7\n        /* \"VertiportManagement.sol\":2839:2895  VertiportRegistered(vertiportId, n_airstrip, n_parkings) */\n      mload(0x40)\n      tag_49\n      swap3\n      swap2\n      swap1\n      tag_50\n      jump\t// in\n    tag_49:\n      mload(0x40)\n      dup1\n      swap2\n      sub\n      swap1\n      log2\n        /* \"VertiportManagement.sol\":2927:2938  vertiportId */\n      dup6\n        /* \"VertiportManagement.sol\":2910:2983  VertiportUpdated(vertiportId, port.n_free_airstrip, port.n_parkings_free) */\n      mload(0x40)\n      tag_51\n      swap2\n      swap1\n      tag_28\n      jump\t// in\n    tag_51:\n      mload(0x40)\n      dup1\n      swap2\n      sub\n      swap1\n      keccak256\n      0xf0566f84abd6eddef478b737e4ed710baacf8fb6bc1b36629e58c006a40b7dc4\n        /* \"VertiportManagement.sol\":2940:2944  port */\n      dup3\n        /* \"VertiportManagement.sol\":2940:2960  port.n_free_airstrip */\n      0x03\n      add\n      sload\n        /* \"VertiportManagement.sol\":2962:2966  port */\n      dup4\n        /* \"VertiportManagement.sol\":2962:2982  port.n_parkings_free */\n      0x04\n      add\n      sload\n        /* \"VertiportManagement.sol\":2910:2983  VertiportUpdated(vertiportId, port.n_free_airstrip, port.n_parkings_free) */\n      mload(0x40)\n      tag_52\n      swap3\n      swap2\n      swap1\n      tag_50\n      jump\t// in\n    tag_52:\n      mload(0x40)\n      dup1\n      swap2\n      sub\n      swap1\n      log2\n        /* \"VertiportManagement.sol\":2078:2990  {... */\n      pop\n      pop\n        /* \"VertiportManagement.sol\":1905:2990  function registerVertiport(... */\n      pop\n      pop\n      pop\n      pop\n      jump\t// out\n        /* \"VertiportManagement.sol\":5703:5962  function getVertiportState(... */\n    tag_19:\n        /* \"VertiportManagement.sol\":5792:5813  VertiportState memory */\n      tag_53\n      tag_54\n      jump\t// in\n    tag_53:\n        /* \"VertiportManagement.sol\":5825:5851  VertiportState memory port */\n      0x00\n        /* \"VertiportManagement.sol\":5854:5864  vertiports */\n      dup1\n        /* \"VertiportManagement.sol\":5865:5876  vertiportId */\n      dup4\n        /* \"VertiportManagement.sol\":5854:5877  vertiports[vertiportId] */\n      mload(0x40)\n      tag_56\n      swap2\n      swap1\n      tag_28\n      jump\t// in\n    tag_56:\n      swap1\n      dup2\n      mstore\n      0x20\n      add\n      mload(0x40)\n      dup1\n      swap2\n      sub\n      swap1\n      keccak256\n        /* \"VertiportManagement.sol\":5825:5877  VertiportState memory port = vertiports[vertiportId] */\n      mload(0x40)\n      dup1\n      0xc0\n      add\n      0x40\n      mstore\n      swap1\n      dup2\n      0x00\n      dup3\n      add\n      dup1\n      sload\n      tag_57\n      swap1\n      tag_58\n      jump\t// in\n    tag_57:\n      dup1\n      0x1f\n      add\n      0x20\n      dup1\n      swap2\n      div\n      mul\n      0x20\n      add\n      mload(0x40)\n      swap1\n      dup2\n      add\n      0x40\n      mstore\n      dup1\n      swap3\n      swap2\n      swap1\n      dup2\n      dup2\n      mstore\n      0x20\n      add\n      dup3\n      dup1\n      sload\n      tag_59\n      swap1\n      tag_58\n      jump\t// in\n    tag_59:\n      dup1\n      iszero\n      tag_60\n      jumpi\n      dup1\n      0x1f\n      lt\n      tag_61\n      jumpi\n      0x0100\n      dup1\n      dup4\n      sload\n      div\n      mul\n      dup4\n      mstore\n      swap2\n      0x20\n      add\n      swap2\n      jump(tag_60)\n    tag_61:\n      dup3\n      add\n      swap2\n      swap1\n      0x00\n      mstore\n      keccak256(0x00, 0x20)\n      swap1\n    tag_62:\n      dup2\n      sload\n      dup2\n      mstore\n      swap1\n      0x01\n      add\n      swap1\n      0x20\n      add\n      dup1\n      dup4\n      gt\n      tag_62\n      jumpi\n      dup3\n      swap1\n      sub\n      0x1f\n      and\n      dup3\n      add\n      swap2\n    tag_60:\n      pop\n      pop\n      pop\n      pop\n      pop\n      dup2\n      mstore\n      0x20\n      add\n      0x01\n      dup3\n      add\n      sload\n      dup2\n      mstore\n      0x20\n      add\n      0x02\n      dup3\n      add\n      sload\n      dup2\n      mstore\n      0x20\n      add\n      0x03\n      dup3\n      add\n      sload\n      dup2\n      mstore\n      0x20\n      add\n      0x04\n      dup3\n      add\n      sload\n      dup2\n      mstore\n      0x20\n      add\n      0x05\n      dup3\n      add\n      0x00\n      swap1\n      sload\n      swap1\n      0x0100\n      exp\n      swap1\n      div\n      0xff\n      and\n      iszero\n      iszero\n      iszero\n      iszero\n      dup2\n      mstore\n      pop\n      pop\n      swap1\n      pop\n        /* \"VertiportManagement.sol\":5895:5899  port */\n      dup1\n        /* \"VertiportManagement.sol\":5895:5906  port.exists */\n      0xa0\n      add\n      mload\n        /* \"VertiportManagement.sol\":5887:5934  require(port.exists, \"Vertiport no encontrado\") */\n      tag_63\n      jumpi\n      mload(0x40)\n      0x08c379a000000000000000000000000000000000000000000000000000000000\n      dup2\n      mstore\n      0x04\n      add\n      tag_64\n      swap1\n      tag_65\n      jump\t// in\n    tag_64:\n      mload(0x40)\n      dup1\n      swap2\n      sub\n      swap1\n      revert\n    tag_63:\n        /* \"VertiportManagement.sol\":5951:5955  port */\n      dup1\n        /* \"VertiportManagement.sol\":5944:5955  return port */\n      swap2\n      pop\n      pop\n        /* \"VertiportManagement.sol\":5703:5962  function getVertiportState(... */\n      swap2\n      swap1\n      pop\n      jump\t// out\n        /* \"VertiportManagement.sol\":3451:5253  function updateVertiportState(... */\n    tag_25:\n        /* \"VertiportManagement.sol\":3707:3841  verifyCredentialSignature(... */\n      tag_67\n        /* \"VertiportManagement.sol\":3750:3769  vertiportCredential */\n      dup4\n        /* \"VertiportManagement.sol\":3707:3841  verifyCredentialSignature(... */\n      mload(0x40)\n      dup1\n      0x40\n      add\n      0x40\n      mstore\n      dup1\n      0x0f\n      dup2\n      mstore\n      0x20\n      add\n      0x506f72745f43726564656e7469616c0000000000000000000000000000000000\n      dup2\n      mstore\n      pop\n      mload(0x40)\n      dup1\n      0x40\n      add\n      0x40\n      mstore\n      dup1\n      0x03\n      dup2\n      mstore\n      0x20\n      add\n      0x342e300000000000000000000000000000000000000000000000000000000000\n      dup2\n      mstore\n      pop\n        /* \"VertiportManagement.sol\":3707:3732  verifyCredentialSignature */\n      tag_33\n        /* \"VertiportManagement.sol\":3707:3841  verifyCredentialSignature(... */\n      jump\t// in\n    tag_67:\n        /* \"VertiportManagement.sol\":3686:3899  require(... */\n      tag_68\n      jumpi\n      mload(0x40)\n      0x08c379a000000000000000000000000000000000000000000000000000000000\n      dup2\n      mstore\n      0x04\n      add\n      tag_69\n      swap1\n      tag_36\n      jump\t// in\n    tag_69:\n      mload(0x40)\n      dup1\n      swap2\n      sub\n      swap1\n      revert\n    tag_68:\n        /* \"VertiportManagement.sol\":3910:3937  VertiportState storage port */\n      0x00\n        /* \"VertiportManagement.sol\":3940:3950  vertiports */\n      dup1\n        /* \"VertiportManagement.sol\":3951:3962  vertiportId */\n      dup6\n        /* \"VertiportManagement.sol\":3940:3963  vertiports[vertiportId] */\n      mload(0x40)\n      tag_70\n      swap2\n      swap1\n      tag_28\n      jump\t// in\n    tag_70:\n      swap1\n      dup2\n      mstore\n      0x20\n      add\n      mload(0x40)\n      dup1\n      swap2\n      sub\n      swap1\n      keccak256\n        /* \"VertiportManagement.sol\":3910:3963  VertiportState storage port = vertiports[vertiportId] */\n      swap1\n      pop\n        /* \"VertiportManagement.sol\":3981:3985  port */\n      dup1\n        /* \"VertiportManagement.sol\":3981:3992  port.exists */\n      0x05\n      add\n      0x00\n      swap1\n      sload\n      swap1\n      0x0100\n      exp\n      swap1\n      div\n      0xff\n      and\n        /* \"VertiportManagement.sol\":3973:4020  require(port.exists, \"Vertiport no encontrado\") */\n      tag_71\n      jumpi\n      mload(0x40)\n      0x08c379a000000000000000000000000000000000000000000000000000000000\n      dup2\n      mstore\n      0x04\n      add\n      tag_72\n      swap1\n      tag_65\n      jump\t// in\n    tag_72:\n      mload(0x40)\n      dup1\n      swap2\n      sub\n      swap1\n      revert\n    tag_71:\n        /* \"VertiportManagement.sol\":4106:4107  0 */\n      0x00\n        /* \"VertiportManagement.sol\":4090:4103  airstripDelta */\n      dup4\n        /* \"VertiportManagement.sol\":4090:4107  airstripDelta > 0 */\n      sgt\n        /* \"VertiportManagement.sol\":4086:4587  if (airstripDelta > 0) {... */\n      iszero\n      tag_73\n      jumpi\n        /* \"VertiportManagement.sol\":4155:4168  airstripDelta */\n      dup3\n        /* \"VertiportManagement.sol\":4123:4127  port */\n      dup2\n        /* \"VertiportManagement.sol\":4123:4143  port.n_free_airstrip */\n      0x03\n      add\n      0x00\n        /* \"VertiportManagement.sol\":4123:4169  port.n_free_airstrip += uint256(airstripDelta) */\n      dup3\n      dup3\n      sload\n      tag_74\n      swap2\n      swap1\n      tag_75\n      jump\t// in\n    tag_74:\n      swap3\n      pop\n      pop\n      dup2\n      swap1\n      sstore\n      pop\n        /* \"VertiportManagement.sol\":4232:4236  port */\n      dup1\n        /* \"VertiportManagement.sol\":4232:4247  port.n_airstrip */\n      0x01\n      add\n      sload\n        /* \"VertiportManagement.sol\":4208:4212  port */\n      dup2\n        /* \"VertiportManagement.sol\":4208:4228  port.n_free_airstrip */\n      0x03\n      add\n      sload\n        /* \"VertiportManagement.sol\":4208:4247  port.n_free_airstrip <= port.n_airstrip */\n      gt\n      iszero\n        /* \"VertiportManagement.sol\":4183:4306  require(... */\n      tag_76\n      jumpi\n      mload(0x40)\n      0x08c379a000000000000000000000000000000000000000000000000000000000\n      dup2\n      mstore\n      0x04\n      add\n      tag_77\n      swap1\n      tag_78\n      jump\t// in\n    tag_77:\n      mload(0x40)\n      dup1\n      swap2\n      sub\n      swap1\n      revert\n    tag_76:\n        /* \"VertiportManagement.sol\":4086:4587  if (airstripDelta > 0) {... */\n      jump(tag_79)\n    tag_73:\n        /* \"VertiportManagement.sol\":4343:4344  0 */\n      0x00\n        /* \"VertiportManagement.sol\":4327:4340  airstripDelta */\n      dup4\n        /* \"VertiportManagement.sol\":4327:4344  airstripDelta < 0 */\n      slt\n        /* \"VertiportManagement.sol\":4323:4587  if (airstripDelta < 0) {... */\n      iszero\n      tag_80\n      jumpi\n        /* \"VertiportManagement.sol\":4360:4373  uint256 delta */\n      0x00\n        /* \"VertiportManagement.sol\":4385:4398  airstripDelta */\n      dup4\n        /* \"VertiportManagement.sol\":4384:4398  -airstripDelta */\n      tag_81\n      swap1\n      tag_82\n      jump\t// in\n    tag_81:\n        /* \"VertiportManagement.sol\":4360:4399  uint256 delta = uint256(-airstripDelta) */\n      swap1\n      pop\n        /* \"VertiportManagement.sol\":4462:4467  delta */\n      dup1\n        /* \"VertiportManagement.sol\":4438:4442  port */\n      dup3\n        /* \"VertiportManagement.sol\":4438:4458  port.n_free_airstrip */\n      0x03\n      add\n      sload\n        /* \"VertiportManagement.sol\":4438:4467  port.n_free_airstrip >= delta */\n      lt\n      iszero\n        /* \"VertiportManagement.sol\":4413:4533  require(... */\n      tag_83\n      jumpi\n      mload(0x40)\n      0x08c379a000000000000000000000000000000000000000000000000000000000\n      dup2\n      mstore\n      0x04\n      add\n      tag_84\n      swap1\n      tag_85\n      jump\t// in\n    tag_84:\n      mload(0x40)\n      dup1\n      swap2\n      sub\n      swap1\n      revert\n    tag_83:\n        /* \"VertiportManagement.sol\":4571:4576  delta */\n      dup1\n        /* \"VertiportManagement.sol\":4547:4551  port */\n      dup3\n        /* \"VertiportManagement.sol\":4547:4567  port.n_free_airstrip */\n      0x03\n      add\n      0x00\n        /* \"VertiportManagement.sol\":4547:4576  port.n_free_airstrip -= delta */\n      dup3\n      dup3\n      sload\n      tag_86\n      swap2\n      swap1\n      tag_87\n      jump\t// in\n    tag_86:\n      swap3\n      pop\n      pop\n      dup2\n      swap1\n      sstore\n      pop\n        /* \"VertiportManagement.sol\":4346:4587  {... */\n      pop\n        /* \"VertiportManagement.sol\":4323:4587  if (airstripDelta < 0) {... */\n    tag_80:\n        /* \"VertiportManagement.sol\":4086:4587  if (airstripDelta > 0) {... */\n    tag_79:\n        /* \"VertiportManagement.sol\":4673:4674  0 */\n      0x00\n        /* \"VertiportManagement.sol\":4658:4670  parkingDelta */\n      dup3\n        /* \"VertiportManagement.sol\":4658:4674  parkingDelta > 0 */\n      sgt\n        /* \"VertiportManagement.sol\":4654:5158  if (parkingDelta > 0) {... */\n      iszero\n      tag_88\n      jumpi\n        /* \"VertiportManagement.sol\":4722:4734  parkingDelta */\n      dup2\n        /* \"VertiportManagement.sol\":4690:4694  port */\n      dup2\n        /* \"VertiportManagement.sol\":4690:4710  port.n_parkings_free */\n      0x04\n      add\n      0x00\n        /* \"VertiportManagement.sol\":4690:4735  port.n_parkings_free += uint256(parkingDelta) */\n      dup3\n      dup3\n      sload\n      tag_89\n      swap2\n      swap1\n      tag_75\n      jump\t// in\n    tag_89:\n      swap3\n      pop\n      pop\n      dup2\n      swap1\n      sstore\n      pop\n        /* \"VertiportManagement.sol\":4798:4802  port */\n      dup1\n        /* \"VertiportManagement.sol\":4798:4813  port.n_parkings */\n      0x02\n      add\n      sload\n        /* \"VertiportManagement.sol\":4774:4778  port */\n      dup2\n        /* \"VertiportManagement.sol\":4774:4794  port.n_parkings_free */\n      0x04\n      add\n      sload\n        /* \"VertiportManagement.sol\":4774:4813  port.n_parkings_free <= port.n_parkings */\n      gt\n      iszero\n        /* \"VertiportManagement.sol\":4749:4874  require(... */\n      tag_90\n      jumpi\n      mload(0x40)\n      0x08c379a000000000000000000000000000000000000000000000000000000000\n      dup2\n      mstore\n      0x04\n      add\n      tag_91\n      swap1\n      tag_92\n      jump\t// in\n    tag_91:\n      mload(0x40)\n      dup1\n      swap2\n      sub\n      swap1\n      revert\n    tag_90:\n        /* \"VertiportManagement.sol\":4654:5158  if (parkingDelta > 0) {... */\n      jump(tag_93)\n    tag_88:\n        /* \"VertiportManagement.sol\":4910:4911  0 */\n      0x00\n        /* \"VertiportManagement.sol\":4895:4907  parkingDelta */\n      dup3\n        /* \"VertiportManagement.sol\":4895:4911  parkingDelta < 0 */\n      slt\n        /* \"VertiportManagement.sol\":4891:5158  if (parkingDelta < 0) {... */\n      iszero\n      tag_94\n      jumpi\n        /* \"VertiportManagement.sol\":4927:4941  uint256 deltaP */\n      0x00\n        /* \"VertiportManagement.sol\":4953:4965  parkingDelta */\n      dup3\n        /* \"VertiportManagement.sol\":4952:4965  -parkingDelta */\n      tag_95\n      swap1\n      tag_82\n      jump\t// in\n    tag_95:\n        /* \"VertiportManagement.sol\":4927:4966  uint256 deltaP = uint256(-parkingDelta) */\n      swap1\n      pop\n        /* \"VertiportManagement.sol\":5029:5035  deltaP */\n      dup1\n        /* \"VertiportManagement.sol\":5005:5009  port */\n      dup3\n        /* \"VertiportManagement.sol\":5005:5025  port.n_parkings_free */\n      0x04\n      add\n      sload\n        /* \"VertiportManagement.sol\":5005:5035  port.n_parkings_free >= deltaP */\n      lt\n      iszero\n        /* \"VertiportManagement.sol\":4980:5103  require(... */\n      tag_96\n      jumpi\n      mload(0x40)\n      0x08c379a000000000000000000000000000000000000000000000000000000000\n      dup2\n      mstore\n      0x04\n      add\n      tag_97\n      swap1\n      tag_98\n      jump\t// in\n    tag_97:\n      mload(0x40)\n      dup1\n      swap2\n      sub\n      swap1\n      revert\n    tag_96:\n        /* \"VertiportManagement.sol\":5141:5147  deltaP */\n      dup1\n        /* \"VertiportManagement.sol\":5117:5121  port */\n      dup3\n        /* \"VertiportManagement.sol\":5117:5137  port.n_parkings_free */\n      0x04\n      add\n      0x00\n        /* \"VertiportManagement.sol\":5117:5147  port.n_parkings_free -= deltaP */\n      dup3\n      dup3\n      sload\n      tag_99\n      swap2\n      swap1\n      tag_87\n      jump\t// in\n    tag_99:\n      swap3\n      pop\n      pop\n      dup2\n      swap1\n      sstore\n      pop\n        /* \"VertiportManagement.sol\":4913:5158  {... */\n      pop\n        /* \"VertiportManagement.sol\":4891:5158  if (parkingDelta < 0) {... */\n    tag_94:\n        /* \"VertiportManagement.sol\":4654:5158  if (parkingDelta > 0) {... */\n    tag_93:\n        /* \"VertiportManagement.sol\":5190:5201  vertiportId */\n      dup5\n        /* \"VertiportManagement.sol\":5173:5246  VertiportUpdated(vertiportId, port.n_free_airstrip, port.n_parkings_free) */\n      mload(0x40)\n      tag_100\n      swap2\n      swap1\n      tag_28\n      jump\t// in\n    tag_100:\n      mload(0x40)\n      dup1\n      swap2\n      sub\n      swap1\n      keccak256\n      0xf0566f84abd6eddef478b737e4ed710baacf8fb6bc1b36629e58c006a40b7dc4\n        /* \"VertiportManagement.sol\":5203:5207  port */\n      dup3\n        /* \"VertiportManagement.sol\":5203:5223  port.n_free_airstrip */\n      0x03\n      add\n      sload\n        /* \"VertiportManagement.sol\":5225:5229  port */\n      dup4\n        /* \"VertiportManagement.sol\":5225:5245  port.n_parkings_free */\n      0x04\n      add\n      sload\n        /* \"VertiportManagement.sol\":5173:5246  VertiportUpdated(vertiportId, port.n_free_airstrip, port.n_parkings_free) */\n      mload(0x40)\n      tag_101\n      swap3\n      swap2\n      swap1\n      tag_50\n      jump\t// in\n    tag_101:\n      mload(0x40)\n      dup1\n      swap2\n      sub\n      swap1\n      log2\n        /* \"VertiportManagement.sol\":3630:5253  {... */\n      pop\n        /* \"VertiportManagement.sol\":3451:5253  function updateVertiportState(... */\n      pop\n      pop\n      pop\n      pop\n      jump\t// out\n        /* \"VertiportManagement.sol\":1143:1592  function verifyCredentialSignature(... */\n    tag_33:\n        /* \"VertiportManagement.sol\":1311:1315  bool */\n      0x00\n        /* \"VertiportManagement.sol\":1581:1585  true */\n      0x01\n        /* \"VertiportManagement.sol\":1574:1585  return true */\n      swap1\n      pop\n        /* \"VertiportManagement.sol\":1143:1592  function verifyCredentialSignature(... */\n      swap4\n      swap3\n      pop\n      pop\n      pop\n      jump\t// out\n    tag_47:\n      dup3\n      dup1\n      sload\n      tag_103\n      swap1\n      tag_58\n      jump\t// in\n    tag_103:\n      swap1\n      0x00\n      mstore\n      keccak256(0x00, 0x20)\n      swap1\n      0x1f\n      add\n      0x20\n      swap1\n      div\n      dup2\n      add\n      swap3\n      dup3\n      tag_105\n      jumpi\n      0x00\n      dup6\n      sstore\n      jump(tag_104)\n    tag_105:\n      dup3\n      0x1f\n      lt\n      tag_106\n      jumpi\n      dup1\n      mload\n      not(0xff)\n      and\n      dup4\n      dup1\n      add\n      or\n      dup6\n      sstore\n      jump(tag_104)\n    tag_106:\n      dup3\n      dup1\n      add\n      0x01\n      add\n      dup6\n      sstore\n      dup3\n      iszero\n      tag_104\n      jumpi\n      swap2\n      dup3\n      add\n    tag_107:\n      dup3\n      dup2\n      gt\n      iszero\n      tag_108\n      jumpi\n      dup3\n      mload\n      dup3\n      sstore\n      swap2\n      0x20\n      add\n      swap2\n      swap1\n      0x01\n      add\n      swap1\n      jump(tag_107)\n    tag_108:\n    tag_104:\n      pop\n      swap1\n      pop\n      tag_109\n      swap2\n      swap1\n      tag_110\n      jump\t// in\n    tag_109:\n      pop\n      swap1\n      jump\t// out\n    tag_54:\n      mload(0x40)\n      dup1\n      0xc0\n      add\n      0x40\n      mstore\n      dup1\n      0x60\n      dup2\n      mstore\n      0x20\n      add\n      0x00\n      dup2\n      mstore\n      0x20\n      add\n      0x00\n      dup2\n      mstore\n      0x20\n      add\n      0x00\n      dup2\n      mstore\n      0x20\n      add\n      0x00\n      dup2\n      mstore\n      0x20\n      add\n      iszero(iszero(0x00))\n      dup2\n      mstore\n      pop\n      swap1\n      jump\t// out\n    tag_110:\n    tag_111:\n      dup1\n      dup3\n      gt\n      iszero\n      tag_112\n      jumpi\n      0x00\n      dup2\n      0x00\n      swap1\n      sstore\n      pop\n      0x01\n      add\n      jump(tag_111)\n    tag_112:\n      pop\n      swap1\n      jump\t// out\n        /* \"#utility.yul\":7:82   */\n    tag_113:\n        /* \"#utility.yul\":40:46   */\n      0x00\n        /* \"#utility.yul\":73:75   */\n      0x40\n        /* \"#utility.yul\":67:76   */\n      mload\n        /* \"#utility.yul\":57:76   */\n      swap1\n      pop\n        /* \"#utility.yul\":7:82   */\n      swap1\n      jump\t// out\n        /* \"#utility.yul\":88:205   */\n    tag_114:\n        /* \"#utility.yul\":197:198   */\n      0x00\n        /* \"#utility.yul\":194:195   */\n      dup1\n        /* \"#utility.yul\":187:199   */\n      revert\n        /* \"#utility.yul\":211:328   */\n    tag_115:\n        /* \"#utility.yul\":320:321   */\n      0x00\n        /* \"#utility.yul\":317:318   */\n      dup1\n        /* \"#utility.yul\":310:322   */\n      revert\n        /* \"#utility.yul\":334:451   */\n    tag_116:\n        /* \"#utility.yul\":443:444   */\n      0x00\n        /* \"#utility.yul\":440:441   */\n      dup1\n        /* \"#utility.yul\":433:445   */\n      revert\n        /* \"#utility.yul\":457:574   */\n    tag_117:\n        /* \"#utility.yul\":566:567   */\n      0x00\n        /* \"#utility.yul\":563:564   */\n      dup1\n        /* \"#utility.yul\":556:568   */\n      revert\n        /* \"#utility.yul\":580:682   */\n    tag_118:\n        /* \"#utility.yul\":621:627   */\n      0x00\n        /* \"#utility.yul\":672:674   */\n      0x1f\n        /* \"#utility.yul\":668:675   */\n      not\n        /* \"#utility.yul\":663:665   */\n      0x1f\n        /* \"#utility.yul\":656:661   */\n      dup4\n        /* \"#utility.yul\":652:666   */\n      add\n        /* \"#utility.yul\":648:676   */\n      and\n        /* \"#utility.yul\":638:676   */\n      swap1\n      pop\n        /* \"#utility.yul\":580:682   */\n      swap2\n      swap1\n      pop\n      jump\t// out\n        /* \"#utility.yul\":688:868   */\n    tag_119:\n        /* \"#utility.yul\":736:813   */\n      0x4e487b7100000000000000000000000000000000000000000000000000000000\n        /* \"#utility.yul\":733:734   */\n      0x00\n        /* \"#utility.yul\":726:814   */\n      mstore\n        /* \"#utility.yul\":833:837   */\n      0x41\n        /* \"#utility.yul\":830:831   */\n      0x04\n        /* \"#utility.yul\":823:838   */\n      mstore\n        /* \"#utility.yul\":857:861   */\n      0x24\n        /* \"#utility.yul\":854:855   */\n      0x00\n        /* \"#utility.yul\":847:862   */\n      revert\n        /* \"#utility.yul\":874:1155   */\n    tag_120:\n        /* \"#utility.yul\":957:984   */\n      tag_175\n        /* \"#utility.yul\":979:983   */\n      dup3\n        /* \"#utility.yul\":957:984   */\n      tag_118\n      jump\t// in\n    tag_175:\n        /* \"#utility.yul\":949:955   */\n      dup2\n        /* \"#utility.yul\":945:985   */\n      add\n        /* \"#utility.yul\":1087:1093   */\n      dup2\n        /* \"#utility.yul\":1075:1085   */\n      dup2\n        /* \"#utility.yul\":1072:1094   */\n      lt\n        /* \"#utility.yul\":1051:1069   */\n      0xffffffffffffffff\n        /* \"#utility.yul\":1039:1049   */\n      dup3\n        /* \"#utility.yul\":1036:1070   */\n      gt\n        /* \"#utility.yul\":1033:1095   */\n      or\n        /* \"#utility.yul\":1030:1118   */\n      iszero\n      tag_176\n      jumpi\n        /* \"#utility.yul\":1098:1116   */\n      tag_177\n      tag_119\n      jump\t// in\n    tag_177:\n        /* \"#utility.yul\":1030:1118   */\n    tag_176:\n        /* \"#utility.yul\":1138:1148   */\n      dup1\n        /* \"#utility.yul\":1134:1136   */\n      0x40\n        /* \"#utility.yul\":1127:1149   */\n      mstore\n        /* \"#utility.yul\":917:1155   */\n      pop\n        /* \"#utility.yul\":874:1155   */\n      pop\n      pop\n      jump\t// out\n        /* \"#utility.yul\":1161:1290   */\n    tag_121:\n        /* \"#utility.yul\":1195:1201   */\n      0x00\n        /* \"#utility.yul\":1222:1242   */\n      tag_179\n      tag_113\n      jump\t// in\n    tag_179:\n        /* \"#utility.yul\":1212:1242   */\n      swap1\n      pop\n        /* \"#utility.yul\":1251:1284   */\n      tag_180\n        /* \"#utility.yul\":1279:1283   */\n      dup3\n        /* \"#utility.yul\":1271:1277   */\n      dup3\n        /* \"#utility.yul\":1251:1284   */\n      tag_120\n      jump\t// in\n    tag_180:\n        /* \"#utility.yul\":1161:1290   */\n      swap2\n      swap1\n      pop\n      jump\t// out\n        /* \"#utility.yul\":1296:1604   */\n    tag_122:\n        /* \"#utility.yul\":1358:1362   */\n      0x00\n        /* \"#utility.yul\":1448:1466   */\n      0xffffffffffffffff\n        /* \"#utility.yul\":1440:1446   */\n      dup3\n        /* \"#utility.yul\":1437:1467   */\n      gt\n        /* \"#utility.yul\":1434:1490   */\n      iszero\n      tag_182\n      jumpi\n        /* \"#utility.yul\":1470:1488   */\n      tag_183\n      tag_119\n      jump\t// in\n    tag_183:\n        /* \"#utility.yul\":1434:1490   */\n    tag_182:\n        /* \"#utility.yul\":1508:1537   */\n      tag_184\n        /* \"#utility.yul\":1530:1536   */\n      dup3\n        /* \"#utility.yul\":1508:1537   */\n      tag_118\n      jump\t// in\n    tag_184:\n        /* \"#utility.yul\":1500:1537   */\n      swap1\n      pop\n        /* \"#utility.yul\":1592:1596   */\n      0x20\n        /* \"#utility.yul\":1586:1590   */\n      dup2\n        /* \"#utility.yul\":1582:1597   */\n      add\n        /* \"#utility.yul\":1574:1597   */\n      swap1\n      pop\n        /* \"#utility.yul\":1296:1604   */\n      swap2\n      swap1\n      pop\n      jump\t// out\n        /* \"#utility.yul\":1610:1764   */\n    tag_123:\n        /* \"#utility.yul\":1694:1700   */\n      dup3\n        /* \"#utility.yul\":1689:1692   */\n      dup2\n        /* \"#utility.yul\":1684:1687   */\n      dup4\n        /* \"#utility.yul\":1671:1701   */\n      calldatacopy\n        /* \"#utility.yul\":1756:1757   */\n      0x00\n        /* \"#utility.yul\":1747:1753   */\n      dup4\n        /* \"#utility.yul\":1742:1745   */\n      dup4\n        /* \"#utility.yul\":1738:1754   */\n      add\n        /* \"#utility.yul\":1731:1758   */\n      mstore\n        /* \"#utility.yul\":1610:1764   */\n      pop\n      pop\n      pop\n      jump\t// out\n        /* \"#utility.yul\":1770:2182   */\n    tag_124:\n        /* \"#utility.yul\":1848:1853   */\n      0x00\n        /* \"#utility.yul\":1873:1939   */\n      tag_187\n        /* \"#utility.yul\":1889:1938   */\n      tag_188\n        /* \"#utility.yul\":1931:1937   */\n      dup5\n        /* \"#utility.yul\":1889:1938   */\n      tag_122\n      jump\t// in\n    tag_188:\n        /* \"#utility.yul\":1873:1939   */\n      tag_121\n      jump\t// in\n    tag_187:\n        /* \"#utility.yul\":1864:1939   */\n      swap1\n      pop\n        /* \"#utility.yul\":1962:1968   */\n      dup3\n        /* \"#utility.yul\":1955:1960   */\n      dup2\n        /* \"#utility.yul\":1948:1969   */\n      mstore\n        /* \"#utility.yul\":2000:2004   */\n      0x20\n        /* \"#utility.yul\":1993:1998   */\n      dup2\n        /* \"#utility.yul\":1989:2005   */\n      add\n        /* \"#utility.yul\":2038:2041   */\n      dup5\n        /* \"#utility.yul\":2029:2035   */\n      dup5\n        /* \"#utility.yul\":2024:2027   */\n      dup5\n        /* \"#utility.yul\":2020:2036   */\n      add\n        /* \"#utility.yul\":2017:2042   */\n      gt\n        /* \"#utility.yul\":2014:2126   */\n      iszero\n      tag_189\n      jumpi\n        /* \"#utility.yul\":2045:2124   */\n      tag_190\n      tag_117\n      jump\t// in\n    tag_190:\n        /* \"#utility.yul\":2014:2126   */\n    tag_189:\n        /* \"#utility.yul\":2135:2176   */\n      tag_191\n        /* \"#utility.yul\":2169:2175   */\n      dup5\n        /* \"#utility.yul\":2164:2167   */\n      dup3\n        /* \"#utility.yul\":2159:2162   */\n      dup6\n        /* \"#utility.yul\":2135:2176   */\n      tag_123\n      jump\t// in\n    tag_191:\n        /* \"#utility.yul\":1854:2182   */\n      pop\n        /* \"#utility.yul\":1770:2182   */\n      swap4\n      swap3\n      pop\n      pop\n      pop\n      jump\t// out\n        /* \"#utility.yul\":2202:2542   */\n    tag_125:\n        /* \"#utility.yul\":2258:2263   */\n      0x00\n        /* \"#utility.yul\":2307:2310   */\n      dup3\n        /* \"#utility.yul\":2300:2304   */\n      0x1f\n        /* \"#utility.yul\":2292:2298   */\n      dup4\n        /* \"#utility.yul\":2288:2305   */\n      add\n        /* \"#utility.yul\":2284:2311   */\n      slt\n        /* \"#utility.yul\":2274:2396   */\n      tag_193\n      jumpi\n        /* \"#utility.yul\":2315:2394   */\n      tag_194\n      tag_116\n      jump\t// in\n    tag_194:\n        /* \"#utility.yul\":2274:2396   */\n    tag_193:\n        /* \"#utility.yul\":2432:2438   */\n      dup2\n        /* \"#utility.yul\":2419:2439   */\n      calldataload\n        /* \"#utility.yul\":2457:2536   */\n      tag_195\n        /* \"#utility.yul\":2532:2535   */\n      dup5\n        /* \"#utility.yul\":2524:2530   */\n      dup3\n        /* \"#utility.yul\":2517:2521   */\n      0x20\n        /* \"#utility.yul\":2509:2515   */\n      dup7\n        /* \"#utility.yul\":2505:2522   */\n      add\n        /* \"#utility.yul\":2457:2536   */\n      tag_124\n      jump\t// in\n    tag_195:\n        /* \"#utility.yul\":2448:2536   */\n      swap2\n      pop\n        /* \"#utility.yul\":2264:2542   */\n      pop\n        /* \"#utility.yul\":2202:2542   */\n      swap3\n      swap2\n      pop\n      pop\n      jump\t// out\n        /* \"#utility.yul\":2548:3057   */\n    tag_9:\n        /* \"#utility.yul\":2617:2623   */\n      0x00\n        /* \"#utility.yul\":2666:2668   */\n      0x20\n        /* \"#utility.yul\":2654:2663   */\n      dup3\n        /* \"#utility.yul\":2645:2652   */\n      dup5\n        /* \"#utility.yul\":2641:2664   */\n      sub\n        /* \"#utility.yul\":2637:2669   */\n      slt\n        /* \"#utility.yul\":2634:2753   */\n      iszero\n      tag_197\n      jumpi\n        /* \"#utility.yul\":2672:2751   */\n      tag_198\n      tag_114\n      jump\t// in\n    tag_198:\n        /* \"#utility.yul\":2634:2753   */\n    tag_197:\n        /* \"#utility.yul\":2820:2821   */\n      0x00\n        /* \"#utility.yul\":2809:2818   */\n      dup3\n        /* \"#utility.yul\":2805:2822   */\n      add\n        /* \"#utility.yul\":2792:2823   */\n      calldataload\n        /* \"#utility.yul\":2850:2868   */\n      0xffffffffffffffff\n        /* \"#utility.yul\":2842:2848   */\n      dup2\n        /* \"#utility.yul\":2839:2869   */\n      gt\n        /* \"#utility.yul\":2836:2953   */\n      iszero\n      tag_199\n      jumpi\n        /* \"#utility.yul\":2872:2951   */\n      tag_200\n      tag_115\n      jump\t// in\n    tag_200:\n        /* \"#utility.yul\":2836:2953   */\n    tag_199:\n        /* \"#utility.yul\":2977:3040   */\n      tag_201\n        /* \"#utility.yul\":3032:3039   */\n      dup5\n        /* \"#utility.yul\":3023:3029   */\n      dup3\n        /* \"#utility.yul\":3012:3021   */\n      dup6\n        /* \"#utility.yul\":3008:3030   */\n      add\n        /* \"#utility.yul\":2977:3040   */\n      tag_125\n      jump\t// in\n    tag_201:\n        /* \"#utility.yul\":2967:3040   */\n      swap2\n      pop\n        /* \"#utility.yul\":2763:3050   */\n      pop\n        /* \"#utility.yul\":2548:3057   */\n      swap3\n      swap2\n      pop\n      pop\n      jump\t// out\n        /* \"#utility.yul\":3063:3153   */\n    tag_126:\n        /* \"#utility.yul\":3097:3104   */\n      0x00\n        /* \"#utility.yul\":3140:3145   */\n      dup2\n        /* \"#utility.yul\":3133:3146   */\n      iszero\n        /* \"#utility.yul\":3126:3147   */\n      iszero\n        /* \"#utility.yul\":3115:3147   */\n      swap1\n      pop\n        /* \"#utility.yul\":3063:3153   */\n      swap2\n      swap1\n      pop\n      jump\t// out\n        /* \"#utility.yul\":3159:3268   */\n    tag_127:\n        /* \"#utility.yul\":3240:3261   */\n      tag_204\n        /* \"#utility.yul\":3255:3260   */\n      dup2\n        /* \"#utility.yul\":3240:3261   */\n      tag_126\n      jump\t// in\n    tag_204:\n        /* \"#utility.yul\":3235:3238   */\n      dup3\n        /* \"#utility.yul\":3228:3262   */\n      mstore\n        /* \"#utility.yul\":3159:3268   */\n      pop\n      pop\n      jump\t// out\n        /* \"#utility.yul\":3274:3484   */\n    tag_12:\n        /* \"#utility.yul\":3361:3365   */\n      0x00\n        /* \"#utility.yul\":3399:3401   */\n      0x20\n        /* \"#utility.yul\":3388:3397   */\n      dup3\n        /* \"#utility.yul\":3384:3402   */\n      add\n        /* \"#utility.yul\":3376:3402   */\n      swap1\n      pop\n        /* \"#utility.yul\":3412:3477   */\n      tag_206\n        /* \"#utility.yul\":3474:3475   */\n      0x00\n        /* \"#utility.yul\":3463:3472   */\n      dup4\n        /* \"#utility.yul\":3459:3476   */\n      add\n        /* \"#utility.yul\":3450:3456   */\n      dup5\n        /* \"#utility.yul\":3412:3477   */\n      tag_127\n      jump\t// in\n    tag_206:\n        /* \"#utility.yul\":3274:3484   */\n      swap3\n      swap2\n      pop\n      pop\n      jump\t// out\n        /* \"#utility.yul\":3490:3567   */\n    tag_128:\n        /* \"#utility.yul\":3527:3534   */\n      0x00\n        /* \"#utility.yul\":3556:3561   */\n      dup2\n        /* \"#utility.yul\":3545:3561   */\n      swap1\n      pop\n        /* \"#utility.yul\":3490:3567   */\n      swap2\n      swap1\n      pop\n      jump\t// out\n        /* \"#utility.yul\":3573:3695   */\n    tag_129:\n        /* \"#utility.yul\":3646:3670   */\n      tag_209\n        /* \"#utility.yul\":3664:3669   */\n      dup2\n        /* \"#utility.yul\":3646:3670   */\n      tag_128\n      jump\t// in\n    tag_209:\n        /* \"#utility.yul\":3639:3644   */\n      dup2\n        /* \"#utility.yul\":3636:3671   */\n      eq\n        /* \"#utility.yul\":3626:3689   */\n      tag_210\n      jumpi\n        /* \"#utility.yul\":3685:3686   */\n      0x00\n        /* \"#utility.yul\":3682:3683   */\n      dup1\n        /* \"#utility.yul\":3675:3687   */\n      revert\n        /* \"#utility.yul\":3626:3689   */\n    tag_210:\n        /* \"#utility.yul\":3573:3695   */\n      pop\n      jump\t// out\n        /* \"#utility.yul\":3701:3840   */\n    tag_130:\n        /* \"#utility.yul\":3747:3752   */\n      0x00\n        /* \"#utility.yul\":3785:3791   */\n      dup2\n        /* \"#utility.yul\":3772:3792   */\n      calldataload\n        /* \"#utility.yul\":3763:3792   */\n      swap1\n      pop\n        /* \"#utility.yul\":3801:3834   */\n      tag_212\n        /* \"#utility.yul\":3828:3833   */\n      dup2\n        /* \"#utility.yul\":3801:3834   */\n      tag_129\n      jump\t// in\n    tag_212:\n        /* \"#utility.yul\":3701:3840   */\n      swap3\n      swap2\n      pop\n      pop\n      jump\t// out\n        /* \"#utility.yul\":3846:4153   */\n    tag_131:\n        /* \"#utility.yul\":3907:3911   */\n      0x00\n        /* \"#utility.yul\":3997:4015   */\n      0xffffffffffffffff\n        /* \"#utility.yul\":3989:3995   */\n      dup3\n        /* \"#utility.yul\":3986:4016   */\n      gt\n        /* \"#utility.yul\":3983:4039   */\n      iszero\n      tag_214\n      jumpi\n        /* \"#utility.yul\":4019:4037   */\n      tag_215\n      tag_119\n      jump\t// in\n    tag_215:\n        /* \"#utility.yul\":3983:4039   */\n    tag_214:\n        /* \"#utility.yul\":4057:4086   */\n      tag_216\n        /* \"#utility.yul\":4079:4085   */\n      dup3\n        /* \"#utility.yul\":4057:4086   */\n      tag_118\n      jump\t// in\n    tag_216:\n        /* \"#utility.yul\":4049:4086   */\n      swap1\n      pop\n        /* \"#utility.yul\":4141:4145   */\n      0x20\n        /* \"#utility.yul\":4135:4139   */\n      dup2\n        /* \"#utility.yul\":4131:4146   */\n      add\n        /* \"#utility.yul\":4123:4146   */\n      swap1\n      pop\n        /* \"#utility.yul\":3846:4153   */\n      swap2\n      swap1\n      pop\n      jump\t// out\n        /* \"#utility.yul\":4159:4569   */\n    tag_132:\n        /* \"#utility.yul\":4236:4241   */\n      0x00\n        /* \"#utility.yul\":4261:4326   */\n      tag_218\n        /* \"#utility.yul\":4277:4325   */\n      tag_219\n        /* \"#utility.yul\":4318:4324   */\n      dup5\n        /* \"#utility.yul\":4277:4325   */\n      tag_131\n      jump\t// in\n    tag_219:\n        /* \"#utility.yul\":4261:4326   */\n      tag_121\n      jump\t// in\n    tag_218:\n        /* \"#utility.yul\":4252:4326   */\n      swap1\n      pop\n        /* \"#utility.yul\":4349:4355   */\n      dup3\n        /* \"#utility.yul\":4342:4347   */\n      dup2\n        /* \"#utility.yul\":4335:4356   */\n      mstore\n        /* \"#utility.yul\":4387:4391   */\n      0x20\n        /* \"#utility.yul\":4380:4385   */\n      dup2\n        /* \"#utility.yul\":4376:4392   */\n      add\n        /* \"#utility.yul\":4425:4428   */\n      dup5\n        /* \"#utility.yul\":4416:4422   */\n      dup5\n        /* \"#utility.yul\":4411:4414   */\n      dup5\n        /* \"#utility.yul\":4407:4423   */\n      add\n        /* \"#utility.yul\":4404:4429   */\n      gt\n        /* \"#utility.yul\":4401:4513   */\n      iszero\n      tag_220\n      jumpi\n        /* \"#utility.yul\":4432:4511   */\n      tag_221\n      tag_117\n      jump\t// in\n    tag_221:\n        /* \"#utility.yul\":4401:4513   */\n    tag_220:\n        /* \"#utility.yul\":4522:4563   */\n      tag_222\n        /* \"#utility.yul\":4556:4562   */\n      dup5\n        /* \"#utility.yul\":4551:4554   */\n      dup3\n        /* \"#utility.yul\":4546:4549   */\n      dup6\n        /* \"#utility.yul\":4522:4563   */\n      tag_123\n      jump\t// in\n    tag_222:\n        /* \"#utility.yul\":4242:4569   */\n      pop\n        /* \"#utility.yul\":4159:4569   */\n      swap4\n      swap3\n      pop\n      pop\n      pop\n      jump\t// out\n        /* \"#utility.yul\":4588:4926   */\n    tag_133:\n        /* \"#utility.yul\":4643:4648   */\n      0x00\n        /* \"#utility.yul\":4692:4695   */\n      dup3\n        /* \"#utility.yul\":4685:4689   */\n      0x1f\n        /* \"#utility.yul\":4677:4683   */\n      dup4\n        /* \"#utility.yul\":4673:4690   */\n      add\n        /* \"#utility.yul\":4669:4696   */\n      slt\n        /* \"#utility.yul\":4659:4781   */\n      tag_224\n      jumpi\n        /* \"#utility.yul\":4700:4779   */\n      tag_225\n      tag_116\n      jump\t// in\n    tag_225:\n        /* \"#utility.yul\":4659:4781   */\n    tag_224:\n        /* \"#utility.yul\":4817:4823   */\n      dup2\n        /* \"#utility.yul\":4804:4824   */\n      calldataload\n        /* \"#utility.yul\":4842:4920   */\n      tag_226\n        /* \"#utility.yul\":4916:4919   */\n      dup5\n        /* \"#utility.yul\":4908:4914   */\n      dup3\n        /* \"#utility.yul\":4901:4905   */\n      0x20\n        /* \"#utility.yul\":4893:4899   */\n      dup7\n        /* \"#utility.yul\":4889:4906   */\n      add\n        /* \"#utility.yul\":4842:4920   */\n      tag_132\n      jump\t// in\n    tag_226:\n        /* \"#utility.yul\":4833:4920   */\n      swap2\n      pop\n        /* \"#utility.yul\":4649:4926   */\n      pop\n        /* \"#utility.yul\":4588:4926   */\n      swap3\n      swap2\n      pop\n      pop\n      jump\t// out\n        /* \"#utility.yul\":4932:6055   */\n    tag_15:\n        /* \"#utility.yul\":5037:5043   */\n      0x00\n        /* \"#utility.yul\":5045:5051   */\n      dup1\n        /* \"#utility.yul\":5053:5059   */\n      0x00\n        /* \"#utility.yul\":5061:5067   */\n      dup1\n        /* \"#utility.yul\":5110:5113   */\n      0x80\n        /* \"#utility.yul\":5098:5107   */\n      dup6\n        /* \"#utility.yul\":5089:5096   */\n      dup8\n        /* \"#utility.yul\":5085:5108   */\n      sub\n        /* \"#utility.yul\":5081:5114   */\n      slt\n        /* \"#utility.yul\":5078:5198   */\n      iszero\n      tag_228\n      jumpi\n        /* \"#utility.yul\":5117:5196   */\n      tag_229\n      tag_114\n      jump\t// in\n    tag_229:\n        /* \"#utility.yul\":5078:5198   */\n    tag_228:\n        /* \"#utility.yul\":5265:5266   */\n      0x00\n        /* \"#utility.yul\":5254:5263   */\n      dup6\n        /* \"#utility.yul\":5250:5267   */\n      add\n        /* \"#utility.yul\":5237:5268   */\n      calldataload\n        /* \"#utility.yul\":5295:5313   */\n      0xffffffffffffffff\n        /* \"#utility.yul\":5287:5293   */\n      dup2\n        /* \"#utility.yul\":5284:5314   */\n      gt\n        /* \"#utility.yul\":5281:5398   */\n      iszero\n      tag_230\n      jumpi\n        /* \"#utility.yul\":5317:5396   */\n      tag_231\n      tag_115\n      jump\t// in\n    tag_231:\n        /* \"#utility.yul\":5281:5398   */\n    tag_230:\n        /* \"#utility.yul\":5422:5485   */\n      tag_232\n        /* \"#utility.yul\":5477:5484   */\n      dup8\n        /* \"#utility.yul\":5468:5474   */\n      dup3\n        /* \"#utility.yul\":5457:5466   */\n      dup9\n        /* \"#utility.yul\":5453:5475   */\n      add\n        /* \"#utility.yul\":5422:5485   */\n      tag_125\n      jump\t// in\n    tag_232:\n        /* \"#utility.yul\":5412:5485   */\n      swap5\n      pop\n        /* \"#utility.yul\":5208:5495   */\n      pop\n        /* \"#utility.yul\":5534:5536   */\n      0x20\n        /* \"#utility.yul\":5560:5613   */\n      tag_233\n        /* \"#utility.yul\":5605:5612   */\n      dup8\n        /* \"#utility.yul\":5596:5602   */\n      dup3\n        /* \"#utility.yul\":5585:5594   */\n      dup9\n        /* \"#utility.yul\":5581:5603   */\n      add\n        /* \"#utility.yul\":5560:5613   */\n      tag_130\n      jump\t// in\n    tag_233:\n        /* \"#utility.yul\":5550:5613   */\n      swap4\n      pop\n        /* \"#utility.yul\":5505:5623   */\n      pop\n        /* \"#utility.yul\":5662:5664   */\n      0x40\n        /* \"#utility.yul\":5688:5741   */\n      tag_234\n        /* \"#utility.yul\":5733:5740   */\n      dup8\n        /* \"#utility.yul\":5724:5730   */\n      dup3\n        /* \"#utility.yul\":5713:5722   */\n      dup9\n        /* \"#utility.yul\":5709:5731   */\n      add\n        /* \"#utility.yul\":5688:5741   */\n      tag_130\n      jump\t// in\n    tag_234:\n        /* \"#utility.yul\":5678:5741   */\n      swap3\n      pop\n        /* \"#utility.yul\":5633:5751   */\n      pop\n        /* \"#utility.yul\":5818:5820   */\n      0x60\n        /* \"#utility.yul\":5807:5816   */\n      dup6\n        /* \"#utility.yul\":5803:5821   */\n      add\n        /* \"#utility.yul\":5790:5822   */\n      calldataload\n        /* \"#utility.yul\":5849:5867   */\n      0xffffffffffffffff\n        /* \"#utility.yul\":5841:5847   */\n      dup2\n        /* \"#utility.yul\":5838:5868   */\n      gt\n        /* \"#utility.yul\":5835:5952   */\n      iszero\n      tag_235\n      jumpi\n        /* \"#utility.yul\":5871:5950   */\n      tag_236\n      tag_115\n      jump\t// in\n    tag_236:\n        /* \"#utility.yul\":5835:5952   */\n    tag_235:\n        /* \"#utility.yul\":5976:6038   */\n      tag_237\n        /* \"#utility.yul\":6030:6037   */\n      dup8\n        /* \"#utility.yul\":6021:6027   */\n      dup3\n        /* \"#utility.yul\":6010:6019   */\n      dup9\n        /* \"#utility.yul\":6006:6028   */\n      add\n        /* \"#utility.yul\":5976:6038   */\n      tag_133\n      jump\t// in\n    tag_237:\n        /* \"#utility.yul\":5966:6038   */\n      swap2\n      pop\n        /* \"#utility.yul\":5761:6048   */\n      pop\n        /* \"#utility.yul\":4932:6055   */\n      swap3\n      swap6\n      swap2\n      swap5\n      pop\n      swap3\n      pop\n      jump\t// out\n        /* \"#utility.yul\":6061:6160   */\n    tag_134:\n        /* \"#utility.yul\":6113:6119   */\n      0x00\n        /* \"#utility.yul\":6147:6152   */\n      dup2\n        /* \"#utility.yul\":6141:6153   */\n      mload\n        /* \"#utility.yul\":6131:6153   */\n      swap1\n      pop\n        /* \"#utility.yul\":6061:6160   */\n      swap2\n      swap1\n      pop\n      jump\t// out\n        /* \"#utility.yul\":6166:6325   */\n    tag_135:\n        /* \"#utility.yul\":6240:6251   */\n      0x00\n        /* \"#utility.yul\":6274:6280   */\n      dup3\n        /* \"#utility.yul\":6269:6272   */\n      dup3\n        /* \"#utility.yul\":6262:6281   */\n      mstore\n        /* \"#utility.yul\":6314:6318   */\n      0x20\n        /* \"#utility.yul\":6309:6312   */\n      dup3\n        /* \"#utility.yul\":6305:6319   */\n      add\n        /* \"#utility.yul\":6290:6319   */\n      swap1\n      pop\n        /* \"#utility.yul\":6166:6325   */\n      swap3\n      swap2\n      pop\n      pop\n      jump\t// out\n        /* \"#utility.yul\":6331:6638   */\n    tag_136:\n        /* \"#utility.yul\":6399:6400   */\n      0x00\n        /* \"#utility.yul\":6409:6522   */\n    tag_241:\n        /* \"#utility.yul\":6423:6429   */\n      dup4\n        /* \"#utility.yul\":6420:6421   */\n      dup2\n        /* \"#utility.yul\":6417:6430   */\n      lt\n        /* \"#utility.yul\":6409:6522   */\n      iszero\n      tag_243\n      jumpi\n        /* \"#utility.yul\":6508:6509   */\n      dup1\n        /* \"#utility.yul\":6503:6506   */\n      dup3\n        /* \"#utility.yul\":6499:6510   */\n      add\n        /* \"#utility.yul\":6493:6511   */\n      mload\n        /* \"#utility.yul\":6489:6490   */\n      dup2\n        /* \"#utility.yul\":6484:6487   */\n      dup5\n        /* \"#utility.yul\":6480:6491   */\n      add\n        /* \"#utility.yul\":6473:6512   */\n      mstore\n        /* \"#utility.yul\":6445:6447   */\n      0x20\n        /* \"#utility.yul\":6442:6443   */\n      dup2\n        /* \"#utility.yul\":6438:6448   */\n      add\n        /* \"#utility.yul\":6433:6448   */\n      swap1\n      pop\n        /* \"#utility.yul\":6409:6522   */\n      jump(tag_241)\n    tag_243:\n        /* \"#utility.yul\":6540:6546   */\n      dup4\n        /* \"#utility.yul\":6537:6538   */\n      dup2\n        /* \"#utility.yul\":6534:6547   */\n      gt\n        /* \"#utility.yul\":6531:6632   */\n      iszero\n      tag_244\n      jumpi\n        /* \"#utility.yul\":6620:6621   */\n      0x00\n        /* \"#utility.yul\":6611:6617   */\n      dup5\n        /* \"#utility.yul\":6606:6609   */\n      dup5\n        /* \"#utility.yul\":6602:6618   */\n      add\n        /* \"#utility.yul\":6595:6622   */\n      mstore\n        /* \"#utility.yul\":6531:6632   */\n    tag_244:\n        /* \"#utility.yul\":6380:6638   */\n      pop\n        /* \"#utility.yul\":6331:6638   */\n      pop\n      pop\n      pop\n      jump\t// out\n        /* \"#utility.yul\":6644:6988   */\n    tag_137:\n        /* \"#utility.yul\":6722:6725   */\n      0x00\n        /* \"#utility.yul\":6750:6789   */\n      tag_246\n        /* \"#utility.yul\":6783:6788   */\n      dup3\n        /* \"#utility.yul\":6750:6789   */\n      tag_134\n      jump\t// in\n    tag_246:\n        /* \"#utility.yul\":6805:6866   */\n      tag_247\n        /* \"#utility.yul\":6859:6865   */\n      dup2\n        /* \"#utility.yul\":6854:6857   */\n      dup6\n        /* \"#utility.yul\":6805:6866   */\n      tag_135\n      jump\t// in\n    tag_247:\n        /* \"#utility.yul\":6798:6866   */\n      swap4\n      pop\n        /* \"#utility.yul\":6875:6927   */\n      tag_248\n        /* \"#utility.yul\":6920:6926   */\n      dup2\n        /* \"#utility.yul\":6915:6918   */\n      dup6\n        /* \"#utility.yul\":6908:6912   */\n      0x20\n        /* \"#utility.yul\":6901:6906   */\n      dup7\n        /* \"#utility.yul\":6897:6913   */\n      add\n        /* \"#utility.yul\":6875:6927   */\n      tag_136\n      jump\t// in\n    tag_248:\n        /* \"#utility.yul\":6952:6981   */\n      tag_249\n        /* \"#utility.yul\":6974:6980   */\n      dup2\n        /* \"#utility.yul\":6952:6981   */\n      tag_118\n      jump\t// in\n    tag_249:\n        /* \"#utility.yul\":6947:6950   */\n      dup5\n        /* \"#utility.yul\":6943:6982   */\n      add\n        /* \"#utility.yul\":6936:6982   */\n      swap2\n      pop\n        /* \"#utility.yul\":6726:6988   */\n      pop\n        /* \"#utility.yul\":6644:6988   */\n      swap3\n      swap2\n      pop\n      pop\n      jump\t// out\n        /* \"#utility.yul\":6994:7102   */\n    tag_138:\n        /* \"#utility.yul\":7071:7095   */\n      tag_251\n        /* \"#utility.yul\":7089:7094   */\n      dup2\n        /* \"#utility.yul\":7071:7095   */\n      tag_128\n      jump\t// in\n    tag_251:\n        /* \"#utility.yul\":7066:7069   */\n      dup3\n        /* \"#utility.yul\":7059:7096   */\n      mstore\n        /* \"#utility.yul\":6994:7102   */\n      pop\n      pop\n      jump\t// out\n        /* \"#utility.yul\":7108:7207   */\n    tag_139:\n        /* \"#utility.yul\":7179:7200   */\n      tag_253\n        /* \"#utility.yul\":7194:7199   */\n      dup2\n        /* \"#utility.yul\":7179:7200   */\n      tag_126\n      jump\t// in\n    tag_253:\n        /* \"#utility.yul\":7174:7177   */\n      dup3\n        /* \"#utility.yul\":7167:7201   */\n      mstore\n        /* \"#utility.yul\":7108:7207   */\n      pop\n      pop\n      jump\t// out\n        /* \"#utility.yul\":7307:8651   */\n    tag_140:\n        /* \"#utility.yul\":7440:7443   */\n      0x00\n        /* \"#utility.yul\":7476:7480   */\n      0xc0\n        /* \"#utility.yul\":7471:7474   */\n      dup4\n        /* \"#utility.yul\":7467:7481   */\n      add\n        /* \"#utility.yul\":7561:7565   */\n      0x00\n        /* \"#utility.yul\":7554:7559   */\n      dup4\n        /* \"#utility.yul\":7550:7566   */\n      add\n        /* \"#utility.yul\":7544:7567   */\n      mload\n        /* \"#utility.yul\":7614:7617   */\n      dup5\n        /* \"#utility.yul\":7608:7612   */\n      dup3\n        /* \"#utility.yul\":7604:7618   */\n      sub\n        /* \"#utility.yul\":7597:7601   */\n      0x00\n        /* \"#utility.yul\":7592:7595   */\n      dup7\n        /* \"#utility.yul\":7588:7602   */\n      add\n        /* \"#utility.yul\":7581:7619   */\n      mstore\n        /* \"#utility.yul\":7640:7713   */\n      tag_255\n        /* \"#utility.yul\":7708:7712   */\n      dup3\n        /* \"#utility.yul\":7694:7706   */\n      dup3\n        /* \"#utility.yul\":7640:7713   */\n      tag_137\n      jump\t// in\n    tag_255:\n        /* \"#utility.yul\":7632:7713   */\n      swap2\n      pop\n        /* \"#utility.yul\":7491:7724   */\n      pop\n        /* \"#utility.yul\":7812:7816   */\n      0x20\n        /* \"#utility.yul\":7805:7810   */\n      dup4\n        /* \"#utility.yul\":7801:7817   */\n      add\n        /* \"#utility.yul\":7795:7818   */\n      mload\n        /* \"#utility.yul\":7831:7894   */\n      tag_256\n        /* \"#utility.yul\":7888:7892   */\n      0x20\n        /* \"#utility.yul\":7883:7886   */\n      dup7\n        /* \"#utility.yul\":7879:7893   */\n      add\n        /* \"#utility.yul\":7865:7877   */\n      dup3\n        /* \"#utility.yul\":7831:7894   */\n      tag_138\n      jump\t// in\n    tag_256:\n        /* \"#utility.yul\":7734:7904   */\n      pop\n        /* \"#utility.yul\":7992:7996   */\n      0x40\n        /* \"#utility.yul\":7985:7990   */\n      dup4\n        /* \"#utility.yul\":7981:7997   */\n      add\n        /* \"#utility.yul\":7975:7998   */\n      mload\n        /* \"#utility.yul\":8011:8074   */\n      tag_257\n        /* \"#utility.yul\":8068:8072   */\n      0x40\n        /* \"#utility.yul\":8063:8066   */\n      dup7\n        /* \"#utility.yul\":8059:8073   */\n      add\n        /* \"#utility.yul\":8045:8057   */\n      dup3\n        /* \"#utility.yul\":8011:8074   */\n      tag_138\n      jump\t// in\n    tag_257:\n        /* \"#utility.yul\":7914:8084   */\n      pop\n        /* \"#utility.yul\":8177:8181   */\n      0x60\n        /* \"#utility.yul\":8170:8175   */\n      dup4\n        /* \"#utility.yul\":8166:8182   */\n      add\n        /* \"#utility.yul\":8160:8183   */\n      mload\n        /* \"#utility.yul\":8196:8259   */\n      tag_258\n        /* \"#utility.yul\":8253:8257   */\n      0x60\n        /* \"#utility.yul\":8248:8251   */\n      dup7\n        /* \"#utility.yul\":8244:8258   */\n      add\n        /* \"#utility.yul\":8230:8242   */\n      dup3\n        /* \"#utility.yul\":8196:8259   */\n      tag_138\n      jump\t// in\n    tag_258:\n        /* \"#utility.yul\":8094:8269   */\n      pop\n        /* \"#utility.yul\":8362:8366   */\n      0x80\n        /* \"#utility.yul\":8355:8360   */\n      dup4\n        /* \"#utility.yul\":8351:8367   */\n      add\n        /* \"#utility.yul\":8345:8368   */\n      mload\n        /* \"#utility.yul\":8381:8444   */\n      tag_259\n        /* \"#utility.yul\":8438:8442   */\n      0x80\n        /* \"#utility.yul\":8433:8436   */\n      dup7\n        /* \"#utility.yul\":8429:8443   */\n      add\n        /* \"#utility.yul\":8415:8427   */\n      dup3\n        /* \"#utility.yul\":8381:8444   */\n      tag_138\n      jump\t// in\n    tag_259:\n        /* \"#utility.yul\":8279:8454   */\n      pop\n        /* \"#utility.yul\":8538:8542   */\n      0xa0\n        /* \"#utility.yul\":8531:8536   */\n      dup4\n        /* \"#utility.yul\":8527:8543   */\n      add\n        /* \"#utility.yul\":8521:8544   */\n      mload\n        /* \"#utility.yul\":8557:8614   */\n      tag_260\n        /* \"#utility.yul\":8608:8612   */\n      0xa0\n        /* \"#utility.yul\":8603:8606   */\n      dup7\n        /* \"#utility.yul\":8599:8613   */\n      add\n        /* \"#utility.yul\":8585:8597   */\n      dup3\n        /* \"#utility.yul\":8557:8614   */\n      tag_139\n      jump\t// in\n    tag_260:\n        /* \"#utility.yul\":8464:8624   */\n      pop\n        /* \"#utility.yul\":8641:8645   */\n      dup1\n        /* \"#utility.yul\":8634:8645   */\n      swap2\n      pop\n        /* \"#utility.yul\":7445:8651   */\n      pop\n        /* \"#utility.yul\":7307:8651   */\n      swap3\n      swap2\n      pop\n      pop\n      jump\t// out\n        /* \"#utility.yul\":8657:9058   */\n    tag_21:\n        /* \"#utility.yul\":8814:8818   */\n      0x00\n        /* \"#utility.yul\":8852:8854   */\n      0x20\n        /* \"#utility.yul\":8841:8850   */\n      dup3\n        /* \"#utility.yul\":8837:8855   */\n      add\n        /* \"#utility.yul\":8829:8855   */\n      swap1\n      pop\n        /* \"#utility.yul\":8901:8910   */\n      dup2\n        /* \"#utility.yul\":8895:8899   */\n      dup2\n        /* \"#utility.yul\":8891:8911   */\n      sub\n        /* \"#utility.yul\":8887:8888   */\n      0x00\n        /* \"#utility.yul\":8876:8885   */\n      dup4\n        /* \"#utility.yul\":8872:8889   */\n      add\n        /* \"#utility.yul\":8865:8912   */\n      mstore\n        /* \"#utility.yul\":8929:9051   */\n      tag_262\n        /* \"#utility.yul\":9046:9050   */\n      dup2\n        /* \"#utility.yul\":9037:9043   */\n      dup5\n        /* \"#utility.yul\":8929:9051   */\n      tag_140\n      jump\t// in\n    tag_262:\n        /* \"#utility.yul\":8921:9051   */\n      swap1\n      pop\n        /* \"#utility.yul\":8657:9058   */\n      swap3\n      swap2\n      pop\n      pop\n      jump\t// out\n        /* \"#utility.yul\":9064:9140   */\n    tag_141:\n        /* \"#utility.yul\":9100:9107   */\n      0x00\n        /* \"#utility.yul\":9129:9134   */\n      dup2\n        /* \"#utility.yul\":9118:9134   */\n      swap1\n      pop\n        /* \"#utility.yul\":9064:9140   */\n      swap2\n      swap1\n      pop\n      jump\t// out\n        /* \"#utility.yul\":9146:9266   */\n    tag_142:\n        /* \"#utility.yul\":9218:9241   */\n      tag_265\n        /* \"#utility.yul\":9235:9240   */\n      dup2\n        /* \"#utility.yul\":9218:9241   */\n      tag_141\n      jump\t// in\n    tag_265:\n        /* \"#utility.yul\":9211:9216   */\n      dup2\n        /* \"#utility.yul\":9208:9242   */\n      eq\n        /* \"#utility.yul\":9198:9260   */\n      tag_266\n      jumpi\n        /* \"#utility.yul\":9256:9257   */\n      0x00\n        /* \"#utility.yul\":9253:9254   */\n      dup1\n        /* \"#utility.yul\":9246:9258   */\n      revert\n        /* \"#utility.yul\":9198:9260   */\n    tag_266:\n        /* \"#utility.yul\":9146:9266   */\n      pop\n      jump\t// out\n        /* \"#utility.yul\":9272:9409   */\n    tag_143:\n        /* \"#utility.yul\":9317:9322   */\n      0x00\n        /* \"#utility.yul\":9355:9361   */\n      dup2\n        /* \"#utility.yul\":9342:9362   */\n      calldataload\n        /* \"#utility.yul\":9333:9362   */\n      swap1\n      pop\n        /* \"#utility.yul\":9371:9403   */\n      tag_268\n        /* \"#utility.yul\":9397:9402   */\n      dup2\n        /* \"#utility.yul\":9371:9403   */\n      tag_142\n      jump\t// in\n    tag_268:\n        /* \"#utility.yul\":9272:9409   */\n      swap3\n      swap2\n      pop\n      pop\n      jump\t// out\n        /* \"#utility.yul\":9415:10534   */\n    tag_24:\n        /* \"#utility.yul\":9518:9524   */\n      0x00\n        /* \"#utility.yul\":9526:9532   */\n      dup1\n        /* \"#utility.yul\":9534:9540   */\n      0x00\n        /* \"#utility.yul\":9542:9548   */\n      dup1\n        /* \"#utility.yul\":9591:9594   */\n      0x80\n        /* \"#utility.yul\":9579:9588   */\n      dup6\n        /* \"#utility.yul\":9570:9577   */\n      dup8\n        /* \"#utility.yul\":9566:9589   */\n      sub\n        /* \"#utility.yul\":9562:9595   */\n      slt\n        /* \"#utility.yul\":9559:9679   */\n      iszero\n      tag_270\n      jumpi\n        /* \"#utility.yul\":9598:9677   */\n      tag_271\n      tag_114\n      jump\t// in\n    tag_271:\n        /* \"#utility.yul\":9559:9679   */\n    tag_270:\n        /* \"#utility.yul\":9746:9747   */\n      0x00\n        /* \"#utility.yul\":9735:9744   */\n      dup6\n        /* \"#utility.yul\":9731:9748   */\n      add\n        /* \"#utility.yul\":9718:9749   */\n      calldataload\n        /* \"#utility.yul\":9776:9794   */\n      0xffffffffffffffff\n        /* \"#utility.yul\":9768:9774   */\n      dup2\n        /* \"#utility.yul\":9765:9795   */\n      gt\n        /* \"#utility.yul\":9762:9879   */\n      iszero\n      tag_272\n      jumpi\n        /* \"#utility.yul\":9798:9877   */\n      tag_273\n      tag_115\n      jump\t// in\n    tag_273:\n        /* \"#utility.yul\":9762:9879   */\n    tag_272:\n        /* \"#utility.yul\":9903:9966   */\n      tag_274\n        /* \"#utility.yul\":9958:9965   */\n      dup8\n        /* \"#utility.yul\":9949:9955   */\n      dup3\n        /* \"#utility.yul\":9938:9947   */\n      dup9\n        /* \"#utility.yul\":9934:9956   */\n      add\n        /* \"#utility.yul\":9903:9966   */\n      tag_125\n      jump\t// in\n    tag_274:\n        /* \"#utility.yul\":9893:9966   */\n      swap5\n      pop\n        /* \"#utility.yul\":9689:9976   */\n      pop\n        /* \"#utility.yul\":10043:10045   */\n      0x20\n        /* \"#utility.yul\":10032:10041   */\n      dup6\n        /* \"#utility.yul\":10028:10046   */\n      add\n        /* \"#utility.yul\":10015:10047   */\n      calldataload\n        /* \"#utility.yul\":10074:10092   */\n      0xffffffffffffffff\n        /* \"#utility.yul\":10066:10072   */\n      dup2\n        /* \"#utility.yul\":10063:10093   */\n      gt\n        /* \"#utility.yul\":10060:10177   */\n      iszero\n      tag_275\n      jumpi\n        /* \"#utility.yul\":10096:10175   */\n      tag_276\n      tag_115\n      jump\t// in\n    tag_276:\n        /* \"#utility.yul\":10060:10177   */\n    tag_275:\n        /* \"#utility.yul\":10201:10263   */\n      tag_277\n        /* \"#utility.yul\":10255:10262   */\n      dup8\n        /* \"#utility.yul\":10246:10252   */\n      dup3\n        /* \"#utility.yul\":10235:10244   */\n      dup9\n        /* \"#utility.yul\":10231:10253   */\n      add\n        /* \"#utility.yul\":10201:10263   */\n      tag_133\n      jump\t// in\n    tag_277:\n        /* \"#utility.yul\":10191:10263   */\n      swap4\n      pop\n        /* \"#utility.yul\":9986:10273   */\n      pop\n        /* \"#utility.yul\":10312:10314   */\n      0x40\n        /* \"#utility.yul\":10338:10390   */\n      tag_278\n        /* \"#utility.yul\":10382:10389   */\n      dup8\n        /* \"#utility.yul\":10373:10379   */\n      dup3\n        /* \"#utility.yul\":10362:10371   */\n      dup9\n        /* \"#utility.yul\":10358:10380   */\n      add\n        /* \"#utility.yul\":10338:10390   */\n      tag_143\n      jump\t// in\n    tag_278:\n        /* \"#utility.yul\":10328:10390   */\n      swap3\n      pop\n        /* \"#utility.yul\":10283:10400   */\n      pop\n        /* \"#utility.yul\":10439:10441   */\n      0x60\n        /* \"#utility.yul\":10465:10517   */\n      tag_279\n        /* \"#utility.yul\":10509:10516   */\n      dup8\n        /* \"#utility.yul\":10500:10506   */\n      dup3\n        /* \"#utility.yul\":10489:10498   */\n      dup9\n        /* \"#utility.yul\":10485:10507   */\n      add\n        /* \"#utility.yul\":10465:10517   */\n      tag_143\n      jump\t// in\n    tag_279:\n        /* \"#utility.yul\":10455:10517   */\n      swap2\n      pop\n        /* \"#utility.yul\":10410:10527   */\n      pop\n        /* \"#utility.yul\":9415:10534   */\n      swap3\n      swap6\n      swap2\n      swap5\n      pop\n      swap3\n      pop\n      jump\t// out\n        /* \"#utility.yul\":10540:10688   */\n    tag_144:\n        /* \"#utility.yul\":10642:10653   */\n      0x00\n        /* \"#utility.yul\":10679:10682   */\n      dup2\n        /* \"#utility.yul\":10664:10682   */\n      swap1\n      pop\n        /* \"#utility.yul\":10540:10688   */\n      swap3\n      swap2\n      pop\n      pop\n      jump\t// out\n        /* \"#utility.yul\":10694:11071   */\n    tag_145:\n        /* \"#utility.yul\":10800:10803   */\n      0x00\n        /* \"#utility.yul\":10828:10867   */\n      tag_282\n        /* \"#utility.yul\":10861:10866   */\n      dup3\n        /* \"#utility.yul\":10828:10867   */\n      tag_134\n      jump\t// in\n    tag_282:\n        /* \"#utility.yul\":10883:10972   */\n      tag_283\n        /* \"#utility.yul\":10965:10971   */\n      dup2\n        /* \"#utility.yul\":10960:10963   */\n      dup6\n        /* \"#utility.yul\":10883:10972   */\n      tag_144\n      jump\t// in\n    tag_283:\n        /* \"#utility.yul\":10876:10972   */\n      swap4\n      pop\n        /* \"#utility.yul\":10981:11033   */\n      tag_284\n        /* \"#utility.yul\":11026:11032   */\n      dup2\n        /* \"#utility.yul\":11021:11024   */\n      dup6\n        /* \"#utility.yul\":11014:11018   */\n      0x20\n        /* \"#utility.yul\":11007:11012   */\n      dup7\n        /* \"#utility.yul\":11003:11019   */\n      add\n        /* \"#utility.yul\":10981:11033   */\n      tag_136\n      jump\t// in\n    tag_284:\n        /* \"#utility.yul\":11058:11064   */\n      dup1\n        /* \"#utility.yul\":11053:11056   */\n      dup5\n        /* \"#utility.yul\":11049:11065   */\n      add\n        /* \"#utility.yul\":11042:11065   */\n      swap2\n      pop\n        /* \"#utility.yul\":10804:11071   */\n      pop\n        /* \"#utility.yul\":10694:11071   */\n      swap3\n      swap2\n      pop\n      pop\n      jump\t// out\n        /* \"#utility.yul\":11077:11352   */\n    tag_28:\n        /* \"#utility.yul\":11209:11212   */\n      0x00\n        /* \"#utility.yul\":11231:11326   */\n      tag_286\n        /* \"#utility.yul\":11322:11325   */\n      dup3\n        /* \"#utility.yul\":11313:11319   */\n      dup5\n        /* \"#utility.yul\":11231:11326   */\n      tag_145\n      jump\t// in\n    tag_286:\n        /* \"#utility.yul\":11224:11326   */\n      swap2\n      pop\n        /* \"#utility.yul\":11343:11346   */\n      dup2\n        /* \"#utility.yul\":11336:11346   */\n      swap1\n      pop\n        /* \"#utility.yul\":11077:11352   */\n      swap3\n      swap2\n      pop\n      pop\n      jump\t// out\n        /* \"#utility.yul\":11358:11527   */\n    tag_146:\n        /* \"#utility.yul\":11442:11453   */\n      0x00\n        /* \"#utility.yul\":11476:11482   */\n      dup3\n        /* \"#utility.yul\":11471:11474   */\n      dup3\n        /* \"#utility.yul\":11464:11483   */\n      mstore\n        /* \"#utility.yul\":11516:11520   */\n      0x20\n        /* \"#utility.yul\":11511:11514   */\n      dup3\n        /* \"#utility.yul\":11507:11521   */\n      add\n        /* \"#utility.yul\":11492:11521   */\n      swap1\n      pop\n        /* \"#utility.yul\":11358:11527   */\n      swap3\n      swap2\n      pop\n      pop\n      jump\t// out\n        /* \"#utility.yul\":11533:11715   */\n    tag_147:\n        /* \"#utility.yul\":11673:11707   */\n      0x43726564656e6369616c206465207665727469706f727420696e76616c696461\n        /* \"#utility.yul\":11669:11670   */\n      0x00\n        /* \"#utility.yul\":11661:11667   */\n      dup3\n        /* \"#utility.yul\":11657:11671   */\n      add\n        /* \"#utility.yul\":11650:11708   */\n      mstore\n        /* \"#utility.yul\":11533:11715   */\n      pop\n      jump\t// out\n        /* \"#utility.yul\":11721:12087   */\n    tag_148:\n        /* \"#utility.yul\":11863:11866   */\n      0x00\n        /* \"#utility.yul\":11884:11951   */\n      tag_290\n        /* \"#utility.yul\":11948:11950   */\n      0x20\n        /* \"#utility.yul\":11943:11946   */\n      dup4\n        /* \"#utility.yul\":11884:11951   */\n      tag_146\n      jump\t// in\n    tag_290:\n        /* \"#utility.yul\":11877:11951   */\n      swap2\n      pop\n        /* \"#utility.yul\":11960:12053   */\n      tag_291\n        /* \"#utility.yul\":12049:12052   */\n      dup3\n        /* \"#utility.yul\":11960:12053   */\n      tag_147\n      jump\t// in\n    tag_291:\n        /* \"#utility.yul\":12078:12080   */\n      0x20\n        /* \"#utility.yul\":12073:12076   */\n      dup3\n        /* \"#utility.yul\":12069:12081   */\n      add\n        /* \"#utility.yul\":12062:12081   */\n      swap1\n      pop\n        /* \"#utility.yul\":11721:12087   */\n      swap2\n      swap1\n      pop\n      jump\t// out\n        /* \"#utility.yul\":12093:12512   */\n    tag_36:\n        /* \"#utility.yul\":12259:12263   */\n      0x00\n        /* \"#utility.yul\":12297:12299   */\n      0x20\n        /* \"#utility.yul\":12286:12295   */\n      dup3\n        /* \"#utility.yul\":12282:12300   */\n      add\n        /* \"#utility.yul\":12274:12300   */\n      swap1\n      pop\n        /* \"#utility.yul\":12346:12355   */\n      dup2\n        /* \"#utility.yul\":12340:12344   */\n      dup2\n        /* \"#utility.yul\":12336:12356   */\n      sub\n        /* \"#utility.yul\":12332:12333   */\n      0x00\n        /* \"#utility.yul\":12321:12330   */\n      dup4\n        /* \"#utility.yul\":12317:12334   */\n      add\n        /* \"#utility.yul\":12310:12357   */\n      mstore\n        /* \"#utility.yul\":12374:12505   */\n      tag_293\n        /* \"#utility.yul\":12500:12504   */\n      dup2\n        /* \"#utility.yul\":12374:12505   */\n      tag_148\n      jump\t// in\n    tag_293:\n        /* \"#utility.yul\":12366:12505   */\n      swap1\n      pop\n        /* \"#utility.yul\":12093:12512   */\n      swap2\n      swap1\n      pop\n      jump\t// out\n        /* \"#utility.yul\":12518:12691   */\n    tag_149:\n        /* \"#utility.yul\":12658:12683   */\n      0x5665727469706f7274207961207265676973747261646f000000000000000000\n        /* \"#utility.yul\":12654:12655   */\n      0x00\n        /* \"#utility.yul\":12646:12652   */\n      dup3\n        /* \"#utility.yul\":12642:12656   */\n      add\n        /* \"#utility.yul\":12635:12684   */\n      mstore\n        /* \"#utility.yul\":12518:12691   */\n      pop\n      jump\t// out\n        /* \"#utility.yul\":12697:13063   */\n    tag_150:\n        /* \"#utility.yul\":12839:12842   */\n      0x00\n        /* \"#utility.yul\":12860:12927   */\n      tag_296\n        /* \"#utility.yul\":12924:12926   */\n      0x17\n        /* \"#utility.yul\":12919:12922   */\n      dup4\n        /* \"#utility.yul\":12860:12927   */\n      tag_146\n      jump\t// in\n    tag_296:\n        /* \"#utility.yul\":12853:12927   */\n      swap2\n      pop\n        /* \"#utility.yul\":12936:13029   */\n      tag_297\n        /* \"#utility.yul\":13025:13028   */\n      dup3\n        /* \"#utility.yul\":12936:13029   */\n      tag_149\n      jump\t// in\n    tag_297:\n        /* \"#utility.yul\":13054:13056   */\n      0x20\n        /* \"#utility.yul\":13049:13052   */\n      dup3\n        /* \"#utility.yul\":13045:13057   */\n      add\n        /* \"#utility.yul\":13038:13057   */\n      swap1\n      pop\n        /* \"#utility.yul\":12697:13063   */\n      swap2\n      swap1\n      pop\n      jump\t// out\n        /* \"#utility.yul\":13069:13488   */\n    tag_40:\n        /* \"#utility.yul\":13235:13239   */\n      0x00\n        /* \"#utility.yul\":13273:13275   */\n      0x20\n        /* \"#utility.yul\":13262:13271   */\n      dup3\n        /* \"#utility.yul\":13258:13276   */\n      add\n        /* \"#utility.yul\":13250:13276   */\n      swap1\n      pop\n        /* \"#utility.yul\":13322:13331   */\n      dup2\n        /* \"#utility.yul\":13316:13320   */\n      dup2\n        /* \"#utility.yul\":13312:13332   */\n      sub\n        /* \"#utility.yul\":13308:13309   */\n      0x00\n        /* \"#utility.yul\":13297:13306   */\n      dup4\n        /* \"#utility.yul\":13293:13310   */\n      add\n        /* \"#utility.yul\":13286:13333   */\n      mstore\n        /* \"#utility.yul\":13350:13481   */\n      tag_299\n        /* \"#utility.yul\":13476:13480   */\n      dup2\n        /* \"#utility.yul\":13350:13481   */\n      tag_150\n      jump\t// in\n    tag_299:\n        /* \"#utility.yul\":13342:13481   */\n      swap1\n      pop\n        /* \"#utility.yul\":13069:13488   */\n      swap2\n      swap1\n      pop\n      jump\t// out\n        /* \"#utility.yul\":13494:13662   */\n    tag_151:\n        /* \"#utility.yul\":13634:13654   */\n      0x43617061636964616420696e76616c6964610000000000000000000000000000\n        /* \"#utility.yul\":13630:13631   */\n      0x00\n        /* \"#utility.yul\":13622:13628   */\n      dup3\n        /* \"#utility.yul\":13618:13632   */\n      add\n        /* \"#utility.yul\":13611:13655   */\n      mstore\n        /* \"#utility.yul\":13494:13662   */\n      pop\n      jump\t// out\n        /* \"#utility.yul\":13668:14034   */\n    tag_152:\n        /* \"#utility.yul\":13810:13813   */\n      0x00\n        /* \"#utility.yul\":13831:13898   */\n      tag_302\n        /* \"#utility.yul\":13895:13897   */\n      0x12\n        /* \"#utility.yul\":13890:13893   */\n      dup4\n        /* \"#utility.yul\":13831:13898   */\n      tag_146\n      jump\t// in\n    tag_302:\n        /* \"#utility.yul\":13824:13898   */\n      swap2\n      pop\n        /* \"#utility.yul\":13907:14000   */\n      tag_303\n        /* \"#utility.yul\":13996:13999   */\n      dup3\n        /* \"#utility.yul\":13907:14000   */\n      tag_151\n      jump\t// in\n    tag_303:\n        /* \"#utility.yul\":14025:14027   */\n      0x20\n        /* \"#utility.yul\":14020:14023   */\n      dup3\n        /* \"#utility.yul\":14016:14028   */\n      add\n        /* \"#utility.yul\":14009:14028   */\n      swap1\n      pop\n        /* \"#utility.yul\":13668:14034   */\n      swap2\n      swap1\n      pop\n      jump\t// out\n        /* \"#utility.yul\":14040:14459   */\n    tag_44:\n        /* \"#utility.yul\":14206:14210   */\n      0x00\n        /* \"#utility.yul\":14244:14246   */\n      0x20\n        /* \"#utility.yul\":14233:14242   */\n      dup3\n        /* \"#utility.yul\":14229:14247   */\n      add\n        /* \"#utility.yul\":14221:14247   */\n      swap1\n      pop\n        /* \"#utility.yul\":14293:14302   */\n      dup2\n        /* \"#utility.yul\":14287:14291   */\n      dup2\n        /* \"#utility.yul\":14283:14303   */\n      sub\n        /* \"#utility.yul\":14279:14280   */\n      0x00\n        /* \"#utility.yul\":14268:14277   */\n      dup4\n        /* \"#utility.yul\":14264:14281   */\n      add\n        /* \"#utility.yul\":14257:14304   */\n      mstore\n        /* \"#utility.yul\":14321:14452   */\n      tag_305\n        /* \"#utility.yul\":14447:14451   */\n      dup2\n        /* \"#utility.yul\":14321:14452   */\n      tag_152\n      jump\t// in\n    tag_305:\n        /* \"#utility.yul\":14313:14452   */\n      swap1\n      pop\n        /* \"#utility.yul\":14040:14459   */\n      swap2\n      swap1\n      pop\n      jump\t// out\n        /* \"#utility.yul\":14465:14583   */\n    tag_153:\n        /* \"#utility.yul\":14552:14576   */\n      tag_307\n        /* \"#utility.yul\":14570:14575   */\n      dup2\n        /* \"#utility.yul\":14552:14576   */\n      tag_128\n      jump\t// in\n    tag_307:\n        /* \"#utility.yul\":14547:14550   */\n      dup3\n        /* \"#utility.yul\":14540:14577   */\n      mstore\n        /* \"#utility.yul\":14465:14583   */\n      pop\n      pop\n      jump\t// out\n        /* \"#utility.yul\":14589:14921   */\n    tag_50:\n        /* \"#utility.yul\":14710:14714   */\n      0x00\n        /* \"#utility.yul\":14748:14750   */\n      0x40\n        /* \"#utility.yul\":14737:14746   */\n      dup3\n        /* \"#utility.yul\":14733:14751   */\n      add\n        /* \"#utility.yul\":14725:14751   */\n      swap1\n      pop\n        /* \"#utility.yul\":14761:14832   */\n      tag_309\n        /* \"#utility.yul\":14829:14830   */\n      0x00\n        /* \"#utility.yul\":14818:14827   */\n      dup4\n        /* \"#utility.yul\":14814:14831   */\n      add\n        /* \"#utility.yul\":14805:14811   */\n      dup6\n        /* \"#utility.yul\":14761:14832   */\n      tag_153\n      jump\t// in\n    tag_309:\n        /* \"#utility.yul\":14842:14914   */\n      tag_310\n        /* \"#utility.yul\":14910:14912   */\n      0x20\n        /* \"#utility.yul\":14899:14908   */\n      dup4\n        /* \"#utility.yul\":14895:14913   */\n      add\n        /* \"#utility.yul\":14886:14892   */\n      dup5\n        /* \"#utility.yul\":14842:14914   */\n      tag_153\n      jump\t// in\n    tag_310:\n        /* \"#utility.yul\":14589:14921   */\n      swap4\n      swap3\n      pop\n      pop\n      pop\n      jump\t// out\n        /* \"#utility.yul\":14927:15107   */\n    tag_154:\n        /* \"#utility.yul\":14975:15052   */\n      0x4e487b7100000000000000000000000000000000000000000000000000000000\n        /* \"#utility.yul\":14972:14973   */\n      0x00\n        /* \"#utility.yul\":14965:15053   */\n      mstore\n        /* \"#utility.yul\":15072:15076   */\n      0x22\n        /* \"#utility.yul\":15069:15070   */\n      0x04\n        /* \"#utility.yul\":15062:15077   */\n      mstore\n        /* \"#utility.yul\":15096:15100   */\n      0x24\n        /* \"#utility.yul\":15093:15094   */\n      0x00\n        /* \"#utility.yul\":15086:15101   */\n      revert\n        /* \"#utility.yul\":15113:15433   */\n    tag_58:\n        /* \"#utility.yul\":15157:15163   */\n      0x00\n        /* \"#utility.yul\":15194:15195   */\n      0x02\n        /* \"#utility.yul\":15188:15192   */\n      dup3\n        /* \"#utility.yul\":15184:15196   */\n      div\n        /* \"#utility.yul\":15174:15196   */\n      swap1\n      pop\n        /* \"#utility.yul\":15241:15242   */\n      0x01\n        /* \"#utility.yul\":15235:15239   */\n      dup3\n        /* \"#utility.yul\":15231:15243   */\n      and\n        /* \"#utility.yul\":15262:15280   */\n      dup1\n        /* \"#utility.yul\":15252:15333   */\n      tag_313\n      jumpi\n        /* \"#utility.yul\":15318:15322   */\n      0x7f\n        /* \"#utility.yul\":15310:15316   */\n      dup3\n        /* \"#utility.yul\":15306:15323   */\n      and\n        /* \"#utility.yul\":15296:15323   */\n      swap2\n      pop\n        /* \"#utility.yul\":15252:15333   */\n    tag_313:\n        /* \"#utility.yul\":15380:15382   */\n      0x20\n        /* \"#utility.yul\":15372:15378   */\n      dup3\n        /* \"#utility.yul\":15369:15383   */\n      lt\n        /* \"#utility.yul\":15349:15367   */\n      dup2\n        /* \"#utility.yul\":15346:15384   */\n      eq\n        /* \"#utility.yul\":15343:15427   */\n      iszero\n      tag_314\n      jumpi\n        /* \"#utility.yul\":15399:15417   */\n      tag_315\n      tag_154\n      jump\t// in\n    tag_315:\n        /* \"#utility.yul\":15343:15427   */\n    tag_314:\n        /* \"#utility.yul\":15164:15433   */\n      pop\n        /* \"#utility.yul\":15113:15433   */\n      swap2\n      swap1\n      pop\n      jump\t// out\n        /* \"#utility.yul\":15439:15612   */\n    tag_155:\n        /* \"#utility.yul\":15579:15604   */\n      0x5665727469706f7274206e6f20656e636f6e747261646f000000000000000000\n        /* \"#utility.yul\":15575:15576   */\n      0x00\n        /* \"#utility.yul\":15567:15573   */\n      dup3\n        /* \"#utility.yul\":15563:15577   */\n      add\n        /* \"#utility.yul\":15556:15605   */\n      mstore\n        /* \"#utility.yul\":15439:15612   */\n      pop\n      jump\t// out\n        /* \"#utility.yul\":15618:15984   */\n    tag_156:\n        /* \"#utility.yul\":15760:15763   */\n      0x00\n        /* \"#utility.yul\":15781:15848   */\n      tag_318\n        /* \"#utility.yul\":15845:15847   */\n      0x17\n        /* \"#utility.yul\":15840:15843   */\n      dup4\n        /* \"#utility.yul\":15781:15848   */\n      tag_146\n      jump\t// in\n    tag_318:\n        /* \"#utility.yul\":15774:15848   */\n      swap2\n      pop\n        /* \"#utility.yul\":15857:15950   */\n      tag_319\n        /* \"#utility.yul\":15946:15949   */\n      dup3\n        /* \"#utility.yul\":15857:15950   */\n      tag_155\n      jump\t// in\n    tag_319:\n        /* \"#utility.yul\":15975:15977   */\n      0x20\n        /* \"#utility.yul\":15970:15973   */\n      dup3\n        /* \"#utility.yul\":15966:15978   */\n      add\n        /* \"#utility.yul\":15959:15978   */\n      swap1\n      pop\n        /* \"#utility.yul\":15618:15984   */\n      swap2\n      swap1\n      pop\n      jump\t// out\n        /* \"#utility.yul\":15990:16409   */\n    tag_65:\n        /* \"#utility.yul\":16156:16160   */\n      0x00\n        /* \"#utility.yul\":16194:16196   */\n      0x20\n        /* \"#utility.yul\":16183:16192   */\n      dup3\n        /* \"#utility.yul\":16179:16197   */\n      add\n        /* \"#utility.yul\":16171:16197   */\n      swap1\n      pop\n        /* \"#utility.yul\":16243:16252   */\n      dup2\n        /* \"#utility.yul\":16237:16241   */\n      dup2\n        /* \"#utility.yul\":16233:16253   */\n      sub\n        /* \"#utility.yul\":16229:16230   */\n      0x00\n        /* \"#utility.yul\":16218:16227   */\n      dup4\n        /* \"#utility.yul\":16214:16231   */\n      add\n        /* \"#utility.yul\":16207:16254   */\n      mstore\n        /* \"#utility.yul\":16271:16402   */\n      tag_321\n        /* \"#utility.yul\":16397:16401   */\n      dup2\n        /* \"#utility.yul\":16271:16402   */\n      tag_156\n      jump\t// in\n    tag_321:\n        /* \"#utility.yul\":16263:16402   */\n      swap1\n      pop\n        /* \"#utility.yul\":15990:16409   */\n      swap2\n      swap1\n      pop\n      jump\t// out\n        /* \"#utility.yul\":16415:16595   */\n    tag_157:\n        /* \"#utility.yul\":16463:16540   */\n      0x4e487b7100000000000000000000000000000000000000000000000000000000\n        /* \"#utility.yul\":16460:16461   */\n      0x00\n        /* \"#utility.yul\":16453:16541   */\n      mstore\n        /* \"#utility.yul\":16560:16564   */\n      0x11\n        /* \"#utility.yul\":16557:16558   */\n      0x04\n        /* \"#utility.yul\":16550:16565   */\n      mstore\n        /* \"#utility.yul\":16584:16588   */\n      0x24\n        /* \"#utility.yul\":16581:16582   */\n      0x00\n        /* \"#utility.yul\":16574:16589   */\n      revert\n        /* \"#utility.yul\":16601:16906   */\n    tag_75:\n        /* \"#utility.yul\":16641:16644   */\n      0x00\n        /* \"#utility.yul\":16660:16680   */\n      tag_324\n        /* \"#utility.yul\":16678:16679   */\n      dup3\n        /* \"#utility.yul\":16660:16680   */\n      tag_128\n      jump\t// in\n    tag_324:\n        /* \"#utility.yul\":16655:16680   */\n      swap2\n      pop\n        /* \"#utility.yul\":16694:16714   */\n      tag_325\n        /* \"#utility.yul\":16712:16713   */\n      dup4\n        /* \"#utility.yul\":16694:16714   */\n      tag_128\n      jump\t// in\n    tag_325:\n        /* \"#utility.yul\":16689:16714   */\n      swap3\n      pop\n        /* \"#utility.yul\":16848:16849   */\n      dup3\n        /* \"#utility.yul\":16780:16846   */\n      0xffffffffffffffffffffffffffffffffffffffffffffffffffffffffffffffff\n        /* \"#utility.yul\":16776:16850   */\n      sub\n        /* \"#utility.yul\":16773:16774   */\n      dup3\n        /* \"#utility.yul\":16770:16851   */\n      gt\n        /* \"#utility.yul\":16767:16874   */\n      iszero\n      tag_326\n      jumpi\n        /* \"#utility.yul\":16854:16872   */\n      tag_327\n      tag_157\n      jump\t// in\n    tag_327:\n        /* \"#utility.yul\":16767:16874   */\n    tag_326:\n        /* \"#utility.yul\":16898:16899   */\n      dup3\n        /* \"#utility.yul\":16895:16896   */\n      dup3\n        /* \"#utility.yul\":16891:16900   */\n      add\n        /* \"#utility.yul\":16884:16900   */\n      swap1\n      pop\n        /* \"#utility.yul\":16601:16906   */\n      swap3\n      swap2\n      pop\n      pop\n      jump\t// out\n        /* \"#utility.yul\":16912:17087   */\n    tag_158:\n        /* \"#utility.yul\":17052:17079   */\n      0x4c696d6974652064652070697374617320657863656469646f00000000000000\n        /* \"#utility.yul\":17048:17049   */\n      0x00\n        /* \"#utility.yul\":17040:17046   */\n      dup3\n        /* \"#utility.yul\":17036:17050   */\n      add\n        /* \"#utility.yul\":17029:17080   */\n      mstore\n        /* \"#utility.yul\":16912:17087   */\n      pop\n      jump\t// out\n        /* \"#utility.yul\":17093:17459   */\n    tag_159:\n        /* \"#utility.yul\":17235:17238   */\n      0x00\n        /* \"#utility.yul\":17256:17323   */\n      tag_330\n        /* \"#utility.yul\":17320:17322   */\n      0x19\n        /* \"#utility.yul\":17315:17318   */\n      dup4\n        /* \"#utility.yul\":17256:17323   */\n      tag_146\n      jump\t// in\n    tag_330:\n        /* \"#utility.yul\":17249:17323   */\n      swap2\n      pop\n        /* \"#utility.yul\":17332:17425   */\n      tag_331\n        /* \"#utility.yul\":17421:17424   */\n      dup3\n        /* \"#utility.yul\":17332:17425   */\n      tag_158\n      jump\t// in\n    tag_331:\n        /* \"#utility.yul\":17450:17452   */\n      0x20\n        /* \"#utility.yul\":17445:17448   */\n      dup3\n        /* \"#utility.yul\":17441:17453   */\n      add\n        /* \"#utility.yul\":17434:17453   */\n      swap1\n      pop\n        /* \"#utility.yul\":17093:17459   */\n      swap2\n      swap1\n      pop\n      jump\t// out\n        /* \"#utility.yul\":17465:17884   */\n    tag_78:\n        /* \"#utility.yul\":17631:17635   */\n      0x00\n        /* \"#utility.yul\":17669:17671   */\n      0x20\n        /* \"#utility.yul\":17658:17667   */\n      dup3\n        /* \"#utility.yul\":17654:17672   */\n      add\n        /* \"#utility.yul\":17646:17672   */\n      swap1\n      pop\n        /* \"#utility.yul\":17718:17727   */\n      dup2\n        /* \"#utility.yul\":17712:17716   */\n      dup2\n        /* \"#utility.yul\":17708:17728   */\n      sub\n        /* \"#utility.yul\":17704:17705   */\n      0x00\n        /* \"#utility.yul\":17693:17702   */\n      dup4\n        /* \"#utility.yul\":17689:17706   */\n      add\n        /* \"#utility.yul\":17682:17729   */\n      mstore\n        /* \"#utility.yul\":17746:17877   */\n      tag_333\n        /* \"#utility.yul\":17872:17876   */\n      dup2\n        /* \"#utility.yul\":17746:17877   */\n      tag_159\n      jump\t// in\n    tag_333:\n        /* \"#utility.yul\":17738:17877   */\n      swap1\n      pop\n        /* \"#utility.yul\":17465:17884   */\n      swap2\n      swap1\n      pop\n      jump\t// out\n        /* \"#utility.yul\":17890:18118   */\n    tag_82:\n        /* \"#utility.yul\":17925:17928   */\n      0x00\n        /* \"#utility.yul\":17948:17971   */\n      tag_335\n        /* \"#utility.yul\":17965:17970   */\n      dup3\n        /* \"#utility.yul\":17948:17971   */\n      tag_141\n      jump\t// in\n    tag_335:\n        /* \"#utility.yul\":17939:17971   */\n      swap2\n      pop\n        /* \"#utility.yul\":17993:18059   */\n      0x8000000000000000000000000000000000000000000000000000000000000000\n        /* \"#utility.yul\":17986:17991   */\n      dup3\n        /* \"#utility.yul\":17983:18060   */\n      eq\n        /* \"#utility.yul\":17980:18083   */\n      iszero\n      tag_336\n      jumpi\n        /* \"#utility.yul\":18063:18081   */\n      tag_337\n      tag_157\n      jump\t// in\n    tag_337:\n        /* \"#utility.yul\":17980:18083   */\n    tag_336:\n        /* \"#utility.yul\":18106:18111   */\n      dup2\n        /* \"#utility.yul\":18103:18104   */\n      0x00\n        /* \"#utility.yul\":18099:18112   */\n      sub\n        /* \"#utility.yul\":18092:18112   */\n      swap1\n      pop\n        /* \"#utility.yul\":17890:18118   */\n      swap2\n      swap1\n      pop\n      jump\t// out\n        /* \"#utility.yul\":18124:18306   */\n    tag_160:\n        /* \"#utility.yul\":18264:18298   */\n      0x4e6f2068617920706973746173206c696272657320737566696369656e746573\n        /* \"#utility.yul\":18260:18261   */\n      0x00\n        /* \"#utility.yul\":18252:18258   */\n      dup3\n        /* \"#utility.yul\":18248:18262   */\n      add\n        /* \"#utility.yul\":18241:18299   */\n      mstore\n        /* \"#utility.yul\":18124:18306   */\n      pop\n      jump\t// out\n        /* \"#utility.yul\":18312:18678   */\n    tag_161:\n        /* \"#utility.yul\":18454:18457   */\n      0x00\n        /* \"#utility.yul\":18475:18542   */\n      tag_340\n        /* \"#utility.yul\":18539:18541   */\n      0x20\n        /* \"#utility.yul\":18534:18537   */\n      dup4\n        /* \"#utility.yul\":18475:18542   */\n      tag_146\n      jump\t// in\n    tag_340:\n        /* \"#utility.yul\":18468:18542   */\n      swap2\n      pop\n        /* \"#utility.yul\":18551:18644   */\n      tag_341\n        /* \"#utility.yul\":18640:18643   */\n      dup3\n        /* \"#utility.yul\":18551:18644   */\n      tag_160\n      jump\t// in\n    tag_341:\n        /* \"#utility.yul\":18669:18671   */\n      0x20\n        /* \"#utility.yul\":18664:18667   */\n      dup3\n        /* \"#utility.yul\":18660:18672   */\n      add\n        /* \"#utility.yul\":18653:18672   */\n      swap1\n      pop\n        /* \"#utility.yul\":18312:18678   */\n      swap2\n      swap1\n      pop\n      jump\t// out\n        /* \"#utility.yul\":18684:19103   */\n    tag_85:\n        /* \"#utility.yul\":18850:18854   */\n      0x00\n        /* \"#utility.yul\":18888:18890   */\n      0x20\n        /* \"#utility.yul\":18877:18886   */\n      dup3\n        /* \"#utility.yul\":18873:18891   */\n      add\n        /* \"#utility.yul\":18865:18891   */\n      swap1\n      pop\n        /* \"#utility.yul\":18937:18946   */\n      dup2\n        /* \"#utility.yul\":18931:18935   */\n      dup2\n        /* \"#utility.yul\":18927:18947   */\n      sub\n        /* \"#utility.yul\":18923:18924   */\n      0x00\n        /* \"#utility.yul\":18912:18921   */\n      dup4\n        /* \"#utility.yul\":18908:18925   */\n      add\n        /* \"#utility.yul\":18901:18948   */\n      mstore\n        /* \"#utility.yul\":18965:19096   */\n      tag_343\n        /* \"#utility.yul\":19091:19095   */\n      dup2\n        /* \"#utility.yul\":18965:19096   */\n      tag_161\n      jump\t// in\n    tag_343:\n        /* \"#utility.yul\":18957:19096   */\n      swap1\n      pop\n        /* \"#utility.yul\":18684:19103   */\n      swap2\n      swap1\n      pop\n      jump\t// out\n        /* \"#utility.yul\":19109:19300   */\n    tag_87:\n        /* \"#utility.yul\":19149:19153   */\n      0x00\n        /* \"#utility.yul\":19169:19189   */\n      tag_345\n        /* \"#utility.yul\":19187:19188   */\n      dup3\n        /* \"#utility.yul\":19169:19189   */\n      tag_128\n      jump\t// in\n    tag_345:\n        /* \"#utility.yul\":19164:19189   */\n      swap2\n      pop\n        /* \"#utility.yul\":19203:19223   */\n      tag_346\n        /* \"#utility.yul\":19221:19222   */\n      dup4\n        /* \"#utility.yul\":19203:19223   */\n      tag_128\n      jump\t// in\n    tag_346:\n        /* \"#utility.yul\":19198:19223   */\n      swap3\n      pop\n        /* \"#utility.yul\":19242:19243   */\n      dup3\n        /* \"#utility.yul\":19239:19240   */\n      dup3\n        /* \"#utility.yul\":19236:19244   */\n      lt\n        /* \"#utility.yul\":19233:19267   */\n      iszero\n      tag_347\n      jumpi\n        /* \"#utility.yul\":19247:19265   */\n      tag_348\n      tag_157\n      jump\t// in\n    tag_348:\n        /* \"#utility.yul\":19233:19267   */\n    tag_347:\n        /* \"#utility.yul\":19292:19293   */\n      dup3\n        /* \"#utility.yul\":19289:19290   */\n      dup3\n        /* \"#utility.yul\":19285:19294   */\n      sub\n        /* \"#utility.yul\":19277:19294   */\n      swap1\n      pop\n        /* \"#utility.yul\":19109:19300   */\n      swap3\n      swap2\n      pop\n      pop\n      jump\t// out\n        /* \"#utility.yul\":19306:19483   */\n    tag_162:\n        /* \"#utility.yul\":19446:19475   */\n      0x4c696d697465206465207061726b696e677320657863656469646f0000000000\n        /* \"#utility.yul\":19442:19443   */\n      0x00\n        /* \"#utility.yul\":19434:19440   */\n      dup3\n        /* \"#utility.yul\":19430:19444   */\n      add\n        /* \"#utility.yul\":19423:19476   */\n      mstore\n        /* \"#utility.yul\":19306:19483   */\n      pop\n      jump\t// out\n        /* \"#utility.yul\":19489:19855   */\n    tag_163:\n        /* \"#utility.yul\":19631:19634   */\n      0x00\n        /* \"#utility.yul\":19652:19719   */\n      tag_351\n        /* \"#utility.yul\":19716:19718   */\n      0x1b\n        /* \"#utility.yul\":19711:19714   */\n      dup4\n        /* \"#utility.yul\":19652:19719   */\n      tag_146\n      jump\t// in\n    tag_351:\n        /* \"#utility.yul\":19645:19719   */\n      swap2\n      pop\n        /* \"#utility.yul\":19728:19821   */\n      tag_352\n        /* \"#utility.yul\":19817:19820   */\n      dup3\n        /* \"#utility.yul\":19728:19821   */\n      tag_162\n      jump\t// in\n    tag_352:\n        /* \"#utility.yul\":19846:19848   */\n      0x20\n        /* \"#utility.yul\":19841:19844   */\n      dup3\n        /* \"#utility.yul\":19837:19849   */\n      add\n        /* \"#utility.yul\":19830:19849   */\n      swap1\n      pop\n        /* \"#utility.yul\":19489:19855   */\n      swap2\n      swap1\n      pop\n      jump\t// out\n        /* \"#utility.yul\":19861:20280   */\n    tag_92:\n        /* \"#utility.yul\":20027:20031   */\n      0x00\n        /* \"#utility.yul\":20065:20067   */\n      0x20\n        /* \"#utility.yul\":20054:20063   */\n      dup3\n        /* \"#utility.yul\":20050:20068   */\n      add\n        /* \"#utility.yul\":20042:20068   */\n      swap1\n      pop\n        /* \"#utility.yul\":20114:20123   */\n      dup2\n        /* \"#utility.yul\":20108:20112   */\n      dup2\n        /* \"#utility.yul\":20104:20124   */\n      sub\n        /* \"#utility.yul\":20100:20101   */\n      0x00\n        /* \"#utility.yul\":20089:20098   */\n      dup4\n        /* \"#utility.yul\":20085:20102   */\n      add\n        /* \"#utility.yul\":20078:20125   */\n      mstore\n        /* \"#utility.yul\":20142:20273   */\n      tag_354\n        /* \"#utility.yul\":20268:20272   */\n      dup2\n        /* \"#utility.yul\":20142:20273   */\n      tag_163\n      jump\t// in\n    tag_354:\n        /* \"#utility.yul\":20134:20273   */\n      swap1\n      pop\n        /* \"#utility.yul\":19861:20280   */\n      swap2\n      swap1\n      pop\n      jump\t// out\n        /* \"#utility.yul\":20286:20507   */\n    tag_164:\n        /* \"#utility.yul\":20426:20460   */\n      0x4e6f20686179207061726b696e6773206c696272657320737566696369656e74\n        /* \"#utility.yul\":20422:20423   */\n      0x00\n        /* \"#utility.yul\":20414:20420   */\n      dup3\n        /* \"#utility.yul\":20410:20424   */\n      add\n        /* \"#utility.yul\":20403:20461   */\n      mstore\n        /* \"#utility.yul\":20495:20499   */\n      0x6573000000000000000000000000000000000000000000000000000000000000\n        /* \"#utility.yul\":20490:20492   */\n      0x20\n        /* \"#utility.yul\":20482:20488   */\n      dup3\n        /* \"#utility.yul\":20478:20493   */\n      add\n        /* \"#utility.yul\":20471:20500   */\n      mstore\n        /* \"#utility.yul\":20286:20507   */\n      pop\n      jump\t// out\n        /* \"#utility.yul\":20513:20879   */\n    tag_165:\n        /* \"#utility.yul\":20655:20658   */\n      0x00\n        /* \"#utility.yul\":20676:20743   */\n      tag_357\n        /* \"#utility.yul\":20740:20742   */\n      0x22\n        /* \"#utility.yul\":20735:20738   */\n      dup4\n        /* \"#utility.yul\":20676:20743   */\n      tag_146\n      jump\t// in\n    tag_357:\n        /* \"#utility.yul\":20669:20743   */\n      swap2\n      pop\n        /* \"#utility.yul\":20752:20845   */\n      tag_358\n        /* \"#utility.yul\":20841:20844   */\n      dup3\n        /* \"#utility.yul\":20752:20845   */\n      tag_164\n      jump\t// in\n    tag_358:\n        /* \"#utility.yul\":20870:20872   */\n      0x40\n        /* \"#utility.yul\":20865:20868   */\n      dup3\n        /* \"#utility.yul\":20861:20873   */\n      add\n        /* \"#utility.yul\":20854:20873   */\n      swap1\n      pop\n        /* \"#utility.yul\":20513:20879   */\n      swap2\n      swap1\n      pop\n      jump\t// out\n        /* \"#utility.yul\":20885:21304   */\n    tag_98:\n        /* \"#utility.yul\":21051:21055   */\n      0x00\n        /* \"#utility.yul\":21089:21091   */\n      0x20\n        /* \"#utility.yul\":21078:21087   */\n      dup3\n        /* \"#utility.yul\":21074:21092   */\n      add\n        /* \"#utility.yul\":21066:21092   */\n      swap1\n      pop\n        /* \"#utility.yul\":21138:21147   */\n      dup2\n        /* \"#utility.yul\":21132:21136   */\n      dup2\n        /* \"#utility.yul\":21128:21148   */\n      sub\n        /* \"#utility.yul\":21124:21125   */\n      0x00\n        /* \"#utility.yul\":21113:21122   */\n      dup4\n        /* \"#utility.yul\":21109:21126   */\n      add\n        /* \"#utility.yul\":21102:21149   */\n      mstore\n        /* \"#utility.yul\":21166:21297   */\n      tag_360\n        /* \"#utility.yul\":21292:21296   */\n      dup2\n        /* \"#utility.yul\":21166:21297   */\n      tag_165\n      jump\t// in\n    tag_360:\n        /* \"#utility.yul\":21158:21297   */\n      swap1\n      pop\n        /* \"#utility.yul\":20885:21304   */\n      swap2\n      swap1\n      pop\n      jump\t// out\n\n    auxdata: 0xa26469706673582212209f1c763d33af7174fa4b87f55a1c89b86512bcbf901f8dbd1f1f10d65f51766264736f6c634300080a0033\n}\n",
    "bytecode": {
      "linkReferences": {},
      "object": "608060405234801561001057600080fd5b506114bd806100206000396000f3fe608060405234801561001057600080fd5b506004361061004c5760003560e01c806304dde7b114610051578063263d46ed1461008157806341e1b73b1461009d578063cf0803e9146100cd575b600080fd5b61006b60048036038101906100669190610ae7565b6100e9565b6040516100789190610b4b565b60405180910390f35b61009b60048036038101906100969190610c3d565b61014d565b005b6100b760048036038101906100b29190610ae7565b6103eb565b6040516100c49190610e0b565b60405180910390f35b6100e760048036038101906100e29190610e63565b610541565b005b6000806000836040516100fc9190610f3e565b908152602001604051809103902090508060050160009054906101000a900460ff1661012c576000915050610148565b60008160030154118015610144575060008160040154115b9150505b919050565b6101c2816040518060400160405280600f81526020017f506f72745f43726564656e7469616c00000000000000000000000000000000008152506040518060400160405280600381526020017f342e3000000000000000000000000000000000000000000000000000000000008152506108a5565b610201576040517f08c379a00000000000000000000000000000000000000000000000000000000081526004016101f890610fb2565b60405180910390fd5b600080856040516102129190610f3e565b908152602001604051809103902090508060050160009054906101000a900460ff1615610274576040517f08c379a000000000000000000000000000000000000000000000000000000000815260040161026b9061101e565b60405180910390fd5b60008411806102835750600083115b6102c2576040517f08c379a00000000000000000000000000000000000000000000000000000000081526004016102b99061108a565b60405180910390fd5b600080866040516102d39190610f3e565b90815260200160405180910390209050858160000190805190602001906102fb9291906108b2565b5084816001018190555083816002018190555084816003018190555083816004018190555060018160050160006101000a81548160ff0219169083151502179055508560405161034b9190610f3e565b60405180910390207fd81cde743e975d867477af9fb074f61098109711df4c13495fa2d1385d70b12586866040516103849291906110b9565b60405180910390a28560405161039a9190610f3e565b60405180910390207ff0566f84abd6eddef478b737e4ed710baacf8fb6bc1b36629e58c006a40b7dc4826003015483600401546040516103db9291906110b9565b60405180910390a2505050505050565b6103f3610938565b600080836040516104049190610f3e565b90815260200160405180910390206040518060c001604052908160008201805461042d90611111565b80601f016020809104026020016040519081016040528092919081815260200182805461045990611111565b80156104a65780601f1061047b576101008083540402835291602001916104a6565b820191906000526020600020905b81548152906001019060200180831161048957829003601f168201915b50505050508152602001600182015481526020016002820154815260200160038201548152602001600482015481526020016005820160009054906101000a900460ff16151515158152505090508060a00151610538576040517f08c379a000000000000000000000000000000000000000000000000000000000815260040161052f9061118f565b60405180910390fd5b80915050919050565b6105b6836040518060400160405280600f81526020017f506f72745f43726564656e7469616c00000000000000000000000000000000008152506040518060400160405280600381526020017f342e3000000000000000000000000000000000000000000000000000000000008152506108a5565b6105f5576040517f08c379a00000000000000000000000000000000000000000000000000000000081526004016105ec90610fb2565b60405180910390fd5b600080856040516106069190610f3e565b908152602001604051809103902090508060050160009054906101000a900460ff16610667576040517f08c379a000000000000000000000000000000000000000000000000000000000815260040161065e9061118f565b60405180910390fd5b60008313156106db578281600301600082825461068491906111de565b925050819055508060010154816003015411156106d6576040517f08c379a00000000000000000000000000000000000000000000000000000000081526004016106cd90611280565b60405180910390fd5b610757565b6000831215610756576000836106f0906112a0565b90508082600301541015610739576040517f08c379a000000000000000000000000000000000000000000000000000000000815260040161073090611335565b60405180910390fd5b8082600301600082825461074d9190611355565b92505081905550505b5b60008213156107cb578181600401600082825461077491906111de565b925050819055508060020154816004015411156107c6576040517f08c379a00000000000000000000000000000000000000000000000000000000081526004016107bd906113d5565b60405180910390fd5b610847565b6000821215610846576000826107e0906112a0565b90508082600401541015610829576040517f08c379a000000000000000000000000000000000000000000000000000000000815260040161082090611467565b60405180910390fd5b8082600401600082825461083d9190611355565b92505081905550505b5b846040516108559190610f3e565b60405180910390207ff0566f84abd6eddef478b737e4ed710baacf8fb6bc1b36629e58c006a40b7dc4826003015483600401546040516108969291906110b9565b60405180910390a25050505050565b6000600190509392505050565b8280546108be90611111565b90600052602060002090601f0160209004810192826108e05760008555610927565b82601f106108f957805160ff1916838001178555610927565b82800160010185558215610927579182015b8281111561092657825182559160200191906001019061090b565b5b5090506109349190610970565b5090565b6040518060c0016040528060608152602001600081526020016000815260200160008152602001600081526020016000151581525090565b5b80821115610989576000816000905550600101610971565b5090565b6000604051905090565b600080fd5b600080fd5b600080fd5b600080fd5b6000601f19601f8301169050919050565b7f4e487b7100000000000000000000000000000000000000000000000000000000600052604160045260246000fd5b6109f4826109ab565b810181811067ffffffffffffffff82111715610a1357610a126109bc565b5b80604052505050565b6000610a2661098d565b9050610a3282826109eb565b919050565b600067ffffffffffffffff821115610a5257610a516109bc565b5b610a5b826109ab565b9050602081019050919050565b82818337600083830152505050565b6000610a8a610a8584610a37565b610a1c565b905082815260208101848484011115610aa657610aa56109a6565b5b610ab1848285610a68565b509392505050565b600082601f830112610ace57610acd6109a1565b5b8135610ade848260208601610a77565b91505092915050565b600060208284031215610afd57610afc610997565b5b600082013567ffffffffffffffff811115610b1b57610b1a61099c565b5b610b2784828501610ab9565b91505092915050565b60008115159050919050565b610b4581610b30565b82525050565b6000602082019050610b606000830184610b3c565b92915050565b6000819050919050565b610b7981610b66565b8114610b8457600080fd5b50565b600081359050610b9681610b70565b92915050565b600067ffffffffffffffff821115610bb757610bb66109bc565b5b610bc0826109ab565b9050602081019050919050565b6000610be0610bdb84610b9c565b610a1c565b905082815260208101848484011115610bfc57610bfb6109a6565b5b610c07848285610a68565b509392505050565b600082601f830112610c2457610c236109a1565b5b8135610c34848260208601610bcd565b91505092915050565b60008060008060808587031215610c5757610c56610997565b5b600085013567ffffffffffffffff811115610c7557610c7461099c565b5b610c8187828801610ab9565b9450506020610c9287828801610b87565b9350506040610ca387828801610b87565b925050606085013567ffffffffffffffff811115610cc457610cc361099c565b5b610cd087828801610c0f565b91505092959194509250565b600081519050919050565b600082825260208201905092915050565b60005b83811015610d16578082015181840152602081019050610cfb565b83811115610d25576000848401525b50505050565b6000610d3682610cdc565b610d408185610ce7565b9350610d50818560208601610cf8565b610d59816109ab565b840191505092915050565b610d6d81610b66565b82525050565b610d7c81610b30565b82525050565b600060c0830160008301518482036000860152610d9f8282610d2b565b9150506020830151610db46020860182610d64565b506040830151610dc76040860182610d64565b506060830151610dda6060860182610d64565b506080830151610ded6080860182610d64565b5060a0830151610e0060a0860182610d73565b508091505092915050565b60006020820190508181036000830152610e258184610d82565b905092915050565b6000819050919050565b610e4081610e2d565b8114610e4b57600080fd5b50565b600081359050610e5d81610e37565b92915050565b60008060008060808587031215610e7d57610e7c610997565b5b600085013567ffffffffffffffff811115610e9b57610e9a61099c565b5b610ea787828801610ab9565b945050602085013567ffffffffffffffff811115610ec857610ec761099c565b5b610ed487828801610c0f565b9350506040610ee587828801610e4e565b9250506060610ef687828801610e4e565b91505092959194509250565b600081905092915050565b6000610f1882610cdc565b610f228185610f02565b9350610f32818560208601610cf8565b80840191505092915050565b6000610f4a8284610f0d565b915081905092915050565b600082825260208201905092915050565b7f43726564656e6369616c206465207665727469706f727420696e76616c696461600082015250565b6000610f9c602083610f55565b9150610fa782610f66565b602082019050919050565b60006020820190508181036000830152610fcb81610f8f565b9050919050565b7f5665727469706f7274207961207265676973747261646f000000000000000000600082015250565b6000611008601783610f55565b915061101382610fd2565b602082019050919050565b6000602082019050818103600083015261103781610ffb565b9050919050565b7f43617061636964616420696e76616c6964610000000000000000000000000000600082015250565b6000611074601283610f55565b915061107f8261103e565b602082019050919050565b600060208201905081810360008301526110a381611067565b9050919050565b6110b381610b66565b82525050565b60006040820190506110ce60008301856110aa565b6110db60208301846110aa565b9392505050565b7f4e487b7100000000000000000000000000000000000000000000000000000000600052602260045260246000fd5b6000600282049050600182168061112957607f821691505b6020821081141561113d5761113c6110e2565b5b50919050565b7f5665727469706f7274206e6f20656e636f6e747261646f000000000000000000600082015250565b6000611179601783610f55565b915061118482611143565b602082019050919050565b600060208201905081810360008301526111a88161116c565b9050919050565b7f4e487b7100000000000000000000000000000000000000000000000000000000600052601160045260246000fd5b60006111e982610b66565b91506111f483610b66565b9250827fffffffffffffffffffffffffffffffffffffffffffffffffffffffffffffffff03821115611229576112286111af565b5b828201905092915050565b7f4c696d6974652064652070697374617320657863656469646f00000000000000600082015250565b600061126a601983610f55565b915061127582611234565b602082019050919050565b600060208201905081810360008301526112998161125d565b9050919050565b60006112ab82610e2d565b91507f80000000000000000000000000000000000000000000000000000000000000008214156112de576112dd6111af565b5b816000039050919050565b7f4e6f2068617920706973746173206c696272657320737566696369656e746573600082015250565b600061131f602083610f55565b915061132a826112e9565b602082019050919050565b6000602082019050818103600083015261134e81611312565b9050919050565b600061136082610b66565b915061136b83610b66565b92508282101561137e5761137d6111af565b5b828203905092915050565b7f4c696d697465206465207061726b696e677320657863656469646f0000000000600082015250565b60006113bf601b83610f55565b91506113ca82611389565b602082019050919050565b600060208201905081810360008301526113ee816113b2565b9050919050565b7f4e6f20686179207061726b696e6773206c696272657320737566696369656e7460008201527f6573000000000000000000000000000000000000000000000000000000000000602082015250565b6000611451602283610f55565b915061145c826113f5565b604082019050919050565b6000602082019050818103600083015261148081611444565b905091905056fea26469706673582212209f1c763d33af7174fa4b87f55a1c89b86512bcbf901f8dbd1f1f10d65f51766264736f6c634300080a0033",
      "opcodes": "PUSH1 0x80 PUSH1 0x40 MSTORE CALLVALUE DUP1 ISZERO PUSH2 0x10 JUMPI PUSH1 0x0 DUP1 REVERT JUMPDEST POP PUSH2 0x14BD DUP1 PUSH2 0x20 PUSH1 0x0 CODECOPY PUSH1 0x0 RETURN INVALID PUSH1 0x80 PUSH1 0x40 MSTORE CALLVALUE DUP1 ISZERO PUSH2 0x10 JUMPI PUSH1 0x0 DUP1 REVERT JUMPDEST POP PUSH1 0x4 CALLDATASIZE LT PUSH2 0x4C JUMPI PUSH1 0x0 CALLDATALOAD PUSH1 0xE0 SHR DUP1 PUSH4 0x4DDE7B1 EQ PUSH2 0x51 JUMPI DUP1 PUSH4 0x263D46ED EQ PUSH2 0x81 JUMPI DUP1 PUSH4 0x41E1B73B EQ PUSH2 0x9D JUMPI DUP1 PUSH4 0xCF0803E9 EQ PUSH2 0xCD JUMPI JUMPDEST PUSH1 0x0 DUP1 REVERT JUMPDEST PUSH2 0x6B PUSH1 0x4 DUP1 CALLDATASIZE SUB DUP2 ADD SWAP1 PUSH2 0x66 SWAP2 SWAP1 PUSH2 0xAE7 JUMP JUMPDEST PUSH2 0xE9 JUMP JUMPDEST PUSH1 0x40 MLOAD PUSH2 0x78 SWAP2 SWAP1 PUSH2 0xB4B JUMP JUMPDEST PUSH1 0x40 MLOAD DUP1 SWAP2 SUB SWAP1 RETURN JUMPDEST PUSH2 0x9B PUSH1 0x4 DUP1 CALLDATASIZE SUB DUP2 ADD SWAP1 PUSH2 0x96 SWAP2 SWAP1 PUSH2 0xC3D JUMP JUMPDEST PUSH2 0x14D JUMP JUMPDEST STOP JUMPDEST PUSH2 0xB7 PUSH1 0x4 DUP1 CALLDATASIZE SUB DUP2 ADD SWAP1 PUSH2 0xB2 SWAP2 SWAP1 PUSH2 0xAE7 JUMP JUMPDEST PUSH2 0x3EB JUMP JUMPDEST PUSH1 0x40 MLOAD PUSH2 0xC4 SWAP2 SWAP1 PUSH2 0xE0B JUMP JUMPDEST PUSH1 0x40 MLOAD DUP1 SWAP2 SUB SWAP1 RETURN JUMPDEST PUSH2 0xE7 PUSH1 0x4 DUP1 CALLDATASIZE SUB DUP2 ADD SWAP1 PUSH2 0xE2 SWAP2 SWAP1 PUSH2 0xE63 JUMP JUMPDEST PUSH2 0x541 JUMP JUMPDEST STOP JUMPDEST PUSH1 0x0 DUP1 PUSH1 0x0 DUP4 PUSH1 0x40 MLOAD PUSH2 0xFC SWAP2 SWAP1 PUSH2 0xF3E JUMP JUMPDEST SWAP1 DUP2 MSTORE PUSH1 0x20 ADD PUSH1 0x40 MLOAD DUP1 SWAP2 SUB SWAP1 KECCAK256 SWAP1 POP DUP1 PUSH1 0x5 ADD PUSH1 0x0 SWAP1 SLOAD SWAP1 PUSH2 0x100 EXP SWAP1 DIV PUSH1 0xFF AND PUSH2 0x12C JUMPI PUSH1 0x0 SWAP2 POP POP PUSH2 0x148 JUMP JUMPDEST PUSH1 0x0 DUP2 PUSH1 0x3 ADD SLOAD GT DUP1 ISZERO PUSH2 0x144 JUMPI POP PUSH1 0x0 DUP2 PUSH1 0x4 ADD SLOAD GT JUMPDEST SWAP2 POP POP JUMPDEST SWAP2 SWAP1 POP JUMP JUMPDEST PUSH2 0x1C2 DUP2 PUSH1 0x40 MLOAD DUP1 PUSH1 0x40 ADD PUSH1 0x40 MSTORE DUP1 PUSH1 0xF DUP2 MSTORE PUSH1 0x20 ADD PUSH32 0x506F72745F43726564656E7469616C0000000000000000000000000000000000 DUP2 MSTORE POP PUSH1 0x40 MLOAD DUP1 PUSH1 0x40 ADD PUSH1 0x40 MSTORE DUP1 PUSH1 0x3 DUP2 MSTORE PUSH1 0x20 ADD PUSH32 0x342E300000000000000000000000000000000000000000000000000000000000 DUP2 MSTORE POP PUSH2 0x8A5 JUMP JUMPDEST PUSH2 0x201 JUMPI PUSH1 0x40 MLOAD PUSH32 0x8C379A000000000000000000000000000000000000000000000000000000000 DUP2 MSTORE PUSH1 0x4 ADD PUSH2 0x1F8 SWAP1 PUSH2 0xFB2 JUMP JUMPDEST PUSH1 0x40 MLOAD DUP1 SWAP2 SUB SWAP1 REVERT JUMPDEST PUSH1 0x0 DUP1 DUP6 PUSH1 0x40 MLOAD PUSH2 0x212 SWAP2 SWAP1 PUSH2 0xF3E JUMP JUMPDEST SWAP1 DUP2 MSTORE PUSH1 0x20 ADD PUSH1 0x40 MLOAD DUP1 SWAP2 SUB SWAP1 KECCAK256 SWAP1 POP DUP1 PUSH1 0x5 ADD PUSH1 0x0 SWAP1 SLOAD SWAP1 PUSH2 0x100 EXP SWAP1 DIV PUSH1 0xFF AND ISZERO PUSH2 0x274 JUMPI PUSH1 0x40 MLOAD PUSH32 0x8C379A000000000000000000000000000000000000000000000000000000000 DUP2 MSTORE PUSH1 0x4 ADD PUSH2 0x26B SWAP1 PUSH2 0x101E JUMP JUMPDEST PUSH1 0x40 MLOAD DUP1 SWAP2 SUB SWAP1 REVERT JUMPDEST PUSH1 0x0 DUP5 GT DUP1 PUSH2 0x283 JUMPI POP PUSH1 0x0 DUP4 GT JUMPDEST PUSH2 0x2C2 JUMPI PUSH1 0x40 MLOAD PUSH32 0x8C379A000000000000000000000000000000000000000000000000000000000 DUP2 MSTORE PUSH1 0x4 ADD PUSH2 0x2B9 SWAP1 PUSH2 0x108A JUMP JUMPDEST PUSH1 0x40 MLOAD DUP1 SWAP2 SUB SWAP1 REVERT JUMPDEST PUSH1 0x0 DUP1 DUP7 PUSH1 0x40 MLOAD PUSH2 0x2D3 SWAP2 SWAP1 PUSH2 0xF3E JUMP JUMPDEST SWAP1 DUP2 MSTORE PUSH1 0x20 ADD PUSH1 0x40 MLOAD DUP1 SWAP2 SUB SWAP1 KECCAK256 SWAP1 POP DUP6 DUP2 PUSH1 0x0 ADD SWAP1 DUP1 MLOAD SWAP1 PUSH1 0x20 ADD SWAP1 PUSH2 0x2FB SWAP3 SWAP2 SWAP1 PUSH2 0x8B2 JUMP JUMPDEST POP DUP5 DUP2 PUSH1 0x1 ADD DUP2 SWAP1 SSTORE POP DUP4 DUP2 PUSH1 0x2 ADD DUP2 SWAP1 SSTORE POP DUP5 DUP2 PUSH1 0x3 ADD DUP2 SWAP1 SSTORE POP DUP4 DUP2 PUSH1 0x4 ADD DUP2 SWAP1 SSTORE POP PUSH1 0x1 DUP2 PUSH1 0x5 ADD PUSH1 0x0 PUSH2 0x100 EXP DUP2 SLOAD DUP2 PUSH1 0xFF MUL NOT AND SWAP1 DUP4 ISZERO ISZERO MUL OR SWAP1 SSTORE POP DUP6 PUSH1 0x40 MLOAD PUSH2 0x34B SWAP2 SWAP1 PUSH2 0xF3E JUMP JUMPDEST PUSH1 0x40 MLOAD DUP1 SWAP2 SUB SWAP1 KECCAK256 PUSH32 0xD81CDE743E975D867477AF9FB074F61098109711DF4C13495FA2D1385D70B125 DUP7 DUP7 PUSH1 0x40 MLOAD PUSH2 0x384 SWAP3 SWAP2 SWAP1 PUSH2 0x10B9 JUMP JUMPDEST PUSH1 0x40 MLOAD DUP1 SWAP2 SUB SWAP1 LOG2 DUP6 PUSH1 0x40 MLOAD PUSH2 0x39A SWAP2 SWAP1 PUSH2 0xF3E JUMP JUMPDEST PUSH1 0x40 MLOAD DUP1 SWAP2 SUB SWAP1 KECCAK256 PUSH32 0xF0566F84ABD6EDDEF478B737E4ED710BAACF8FB6BC1B36629E58C006A40B7DC4 DUP3 PUSH1 0x3 ADD SLOAD DUP4 PUSH1 0x4 ADD SLOAD PUSH1 0x40 MLOAD PUSH2 0x3DB SWAP3 SWAP2 SWAP1 PUSH2 0x10B9 JUMP JUMPDEST PUSH1 0x40 MLOAD DUP1 SWAP2 SUB SWAP1 LOG2 POP POP POP POP POP POP JUMP JUMPDEST PUSH2 0x3F3 PUSH2 0x938 JUMP JUMPDEST PUSH1 0x0 DUP1 DUP4 PUSH1 0x40 MLOAD PUSH2 0x404 SWAP2 SWAP1 PUSH2 0xF3E JUMP JUMPDEST SWAP1 DUP2 MSTORE PUSH1 0x20 ADD PUSH1 0x40 MLOAD DUP1 SWAP2 SUB SWAP1 KECCAK256 PUSH1 0x40 MLOAD DUP1 PUSH1 0xC0 ADD PUSH1 0x40 MSTORE SWAP1 DUP2 PUSH1 0x0 DUP3 ADD DUP1 SLOAD PUSH2 0x42D SWAP1 PUSH2 0x1111 JUMP JUMPDEST DUP1 PUSH1 0x1F ADD PUSH1 0x20 DUP1 SWAP2 DIV MUL PUSH1 0x20 ADD PUSH1 0x40 MLOAD SWAP1 DUP2 ADD PUSH1 0x40 MSTORE DUP1 SWAP3 SWAP2 SWAP1 DUP2 DUP2 MSTORE PUSH1 0x20 ADD DUP3 DUP1 SLOAD PUSH2 0x459 SWAP1 PUSH2 0x1111 JUMP JUMPDEST DUP1 ISZERO PUSH2 0x4A6 JUMPI DUP1 PUSH1 0x1F LT PUSH2 0x47B JUMPI PUSH2 0x100 DUP1 DUP4 SLOAD DIV MUL DUP4 MSTORE SWAP2 PUSH1 0x20 ADD SWAP2 PUSH2 0x4A6 JUMP JUMPDEST DUP3 ADD SWAP2 SWAP1 PUSH1 0x0 MSTORE PUSH1 0x20 PUSH1 0x0 KECCAK256 SWAP1 JUMPDEST DUP2 SLOAD DUP2 MSTORE SWAP1 PUSH1 0x1 ADD SWAP1 PUSH1 0x20 ADD DUP1 DUP4 GT PUSH2 0x489 JUMPI DUP3 SWAP1 SUB PUSH1 0x1F AND DUP3 ADD SWAP2 JUMPDEST POP POP POP POP POP DUP2 MSTORE PUSH1 0x20 ADD PUSH1 0x1 DUP3 ADD SLOAD DUP2 MSTORE PUSH1 0x20 ADD PUSH1 0x2 DUP3 ADD SLOAD DUP2 MSTORE PUSH1 0x20 ADD PUSH1 0x3 DUP3 ADD SLOAD DUP2 MSTORE PUSH1 0x20 ADD PUSH1 0x4 DUP3 ADD SLOAD DUP2 MSTORE PUSH1 0x20 ADD PUSH1 0x5 DUP3 ADD PUSH1 0x0 SWAP1 SLOAD SWAP1 PUSH2 0x100 EXP SWAP1 DIV PUSH1 0xFF AND ISZERO ISZERO ISZERO ISZERO DUP2 MSTORE POP POP SWAP1 POP DUP1 PUSH1 0xA0 ADD MLOAD PUSH2 0x538 JUMPI PUSH1 0x40 MLOAD PUSH32 0x8C379A000000000000000000000000000000000000000000000000000000000 DUP2 MSTORE PUSH1 0x4 ADD PUSH2 0x52F SWAP1 PUSH2 0x118F JUMP JUMPDEST PUSH1 0x40 MLOAD DUP1 SWAP2 SUB SWAP1 REVERT JUMPDEST DUP1 SWAP2 POP POP SWAP2 SWAP1 POP JUMP JUMPDEST PUSH2 0x5B6 DUP4 PUSH1 0x40 MLOAD DUP1 PUSH1 0x40 ADD PUSH1 0x40 MSTORE DUP1 PUSH1 0xF DUP2 MSTORE PUSH1 0x20 ADD PUSH32 0x506F72745F43726564656E7469616C0000000000000000000000000000000000 DUP2 MSTORE POP PUSH1 0x40 MLOAD DUP1 PUSH1 0x40 ADD PUSH1 0x40 MSTORE DUP1 PUSH1 0x3 DUP2 MSTORE PUSH1 0x20 ADD PUSH32 0x342E300000000000000000000000000000000000000000000000000000000000 DUP2 MSTORE POP PUSH2 0x8A5 JUMP JUMPDEST PUSH2 0x5F5 JUMPI PUSH1 0x40 MLOAD PUSH32 0x8C379A000000000000000000000000000000000000000000000000000000000 DUP2 MSTORE PUSH1 0x4 ADD PUSH2 0x5EC SWAP1 PUSH2 0xFB2 JUMP JUMPDEST PUSH1 0x40 MLOAD DUP1 SWAP2 SUB SWAP1 REVERT JUMPDEST PUSH1 0x0 DUP1 DUP6 PUSH1 0x40 MLOAD PUSH2 0x606 SWAP2 SWAP1 PUSH2 0xF3E JUMP JUMPDEST SWAP1 DUP2 MSTORE PUSH1 0x20 ADD PUSH1 0x40 MLOAD DUP1 SWAP2 SUB SWAP1 KECCAK256 SWAP1 POP DUP1 PUSH1 0x5 ADD PUSH1 0x0 SWAP1 SLOAD SWAP1 PUSH2 0x100 EXP SWAP1 DIV PUSH1 0xFF AND PUSH2 0x667 JUMPI PUSH1 0x40 MLOAD PUSH32 0x8C379A000000000000000000000000000000000000000000000000000000000 DUP2 MSTORE PUSH1 0x4 ADD PUSH2 0x65E SWAP1 PUSH2 0x118F JUMP JUMPDEST PUSH1 0x40 MLOAD DUP1 SWAP2 SUB SWAP1 REVERT JUMPDEST PUSH1 0x0 DUP4 SGT ISZERO PUSH2 0x6DB JUMPI DUP3 DUP2 PUSH1 0x3 ADD PUSH1 0x0 DUP3 DUP3 SLOAD PUSH2 0x684 SWAP2 SWAP1 PUSH2 0x11DE JUMP JUMPDEST SWAP3 POP POP DUP2 SWAP1 SSTORE POP DUP1 PUSH1 0x1 ADD SLOAD DUP2 PUSH1 0x3 ADD SLOAD GT ISZERO PUSH2 0x6D6 JUMPI PUSH1 0x40 MLOAD PUSH32 0x8C379A000000000000000000000000000000000000000000000000000000000 DUP2 MSTORE PUSH1 0x4 ADD PUSH2 0x6CD SWAP1 PUSH2 0x1280 JUMP JUMPDEST PUSH1 0x40 MLOAD DUP1 SWAP2 SUB SWAP1 REVERT JUMPDEST PUSH2 0x757 JUMP JUMPDEST PUSH1 0x0 DUP4 SLT ISZERO PUSH2 0x756 JUMPI PUSH1 0x0 DUP4 PUSH2 0x6F0 SWAP1 PUSH2 0x12A0 JUMP JUMPDEST SWAP1 POP DUP1 DUP3 PUSH1 0x3 ADD SLOAD LT ISZERO PUSH2 0x739 JUMPI PUSH1 0x40 MLOAD PUSH32 0x8C379A000000000000000000000000000000000000000000000000000000000 DUP2 MSTORE PUSH1 0x4 ADD PUSH2 0x730 SWAP1 PUSH2 0x1335 JUMP JUMPDEST PUSH1 0x40 MLOAD DUP1 SWAP2 SUB SWAP1 REVERT JUMPDEST DUP1 DUP3 PUSH1 0x3 ADD PUSH1 0x0 DUP3 DUP3 SLOAD PUSH2 0x74D SWAP2 SWAP1 PUSH2 0x1355 JUMP JUMPDEST SWAP3 POP POP DUP2 SWAP1 SSTORE POP POP JUMPDEST JUMPDEST PUSH1 0x0 DUP3 SGT ISZERO PUSH2 0x7CB JUMPI DUP2 DUP2 PUSH1 0x4 ADD PUSH1 0x0 DUP3 DUP3 SLOAD PUSH2 0x774 SWAP2 SWAP1 PUSH2 0x11DE JUMP JUMPDEST SWAP3 POP POP DUP2 SWAP1 SSTORE POP DUP1 PUSH1 0x2 ADD SLOAD DUP2 PUSH1 0x4 ADD SLOAD GT ISZERO PUSH2 0x7C6 JUMPI PUSH1 0x40 MLOAD PUSH32 0x8C379A000000000000000000000000000000000000000000000000000000000 DUP2 MSTORE PUSH1 0x4 ADD PUSH2 0x7BD SWAP1 PUSH2 0x13D5 JUMP JUMPDEST PUSH1 0x40 MLOAD DUP1 SWAP2 SUB SWAP1 REVERT JUMPDEST PUSH2 0x847 JUMP JUMPDEST PUSH1 0x0 DUP3 SLT ISZERO PUSH2 0x846 JUMPI PUSH1 0x0 DUP3 PUSH2 0x7E0 SWAP1 PUSH2 0x12A0 JUMP JUMPDEST SWAP1 POP DUP1 DUP3 PUSH1 0x4 ADD SLOAD LT ISZERO PUSH2 0x829 JUMPI PUSH1 0x40 MLOAD PUSH32 0x8C379A000000000000000000000000000000000000000000000000000000000 DUP2 MSTORE PUSH1 0x4 ADD PUSH2 0x820 SWAP1 PUSH2 0x1467 JUMP JUMPDEST PUSH1 0x40 MLOAD DUP1 SWAP2 SUB SWAP1 REVERT JUMPDEST DUP1 DUP3 PUSH1 0x4 ADD PUSH1 0x0 DUP3 DUP3 SLOAD PUSH2 0x83D SWAP2 SWAP1 PUSH2 0x1355 JUMP JUMPDEST SWAP3 POP POP DUP2 SWAP1 SSTORE POP POP JUMPDEST JUMPDEST DUP5 PUSH1 0x40 MLOAD PUSH2 0x855 SWAP2 SWAP1 PUSH2 0xF3E JUMP JUMPDEST PUSH1 0x40 MLOAD DUP1 SWAP2 SUB SWAP1 KECCAK256 PUSH32 0xF0566F84ABD6EDDEF478B737E4ED710BAACF8FB6BC1B36629E58C006A40B7DC4 DUP3 PUSH1 0x3 ADD SLOAD DUP4 PUSH1 0x4 ADD SLOAD PUSH1 0x40 MLOAD PUSH2 0x896 SWAP3 SWAP2 SWAP1 PUSH2 0x10B9 JUMP JUMPDEST PUSH1 0x40 MLOAD DUP1 SWAP2 SUB SWAP1 LOG2 POP POP POP POP POP JUMP JUMPDEST PUSH1 0x0 PUSH1 0x1 SWAP1 POP SWAP4 SWAP3 POP POP POP JUMP JUMPDEST DUP3 DUP1 SLOAD PUSH2 0x8BE SWAP1 PUSH2 0x1111 JUMP JUMPDEST SWAP1 PUSH1 0x0 MSTORE PUSH1 0x20 PUSH1 0x0 KECCAK256 SWAP1 PUSH1 0x1F ADD PUSH1 0x20 SWAP1 DIV DUP2 ADD SWAP3 DUP3 PUSH2 0x8E0 JUMPI PUSH1 0x0 DUP6 SSTORE PUSH2 0x927 JUMP JUMPDEST DUP3 PUSH1 0x1F LT PUSH2 0x8F9 JUMPI DUP1 MLOAD PUSH1 0xFF NOT AND DUP4 DUP1 ADD OR DUP6 SSTORE PUSH2 0x927 JUMP JUMPDEST DUP3 DUP1 ADD PUSH1 0x1 ADD DUP6 SSTORE DUP3 ISZERO PUSH2 0x927 JUMPI SWAP2 DUP3 ADD JUMPDEST DUP3 DUP2 GT ISZERO PUSH2 0x926 JUMPI DUP3 MLOAD DUP3 SSTORE SWAP2 PUSH1 0x20 ADD SWAP2 SWAP1 PUSH1 0x1 ADD SWAP1 PUSH2 0x90B JUMP JUMPDEST JUMPDEST POP SWAP1 POP PUSH2 0x934 SWAP2 SWAP1 PUSH2 0x970 JUMP JUMPDEST POP SWAP1 JUMP JUMPDEST PUSH1 0x40 MLOAD DUP1 PUSH1 0xC0 ADD PUSH1 0x40 MSTORE DUP1 PUSH1 0x60 DUP2 MSTORE PUSH1 0x20 ADD PUSH1 0x0 DUP2 MSTORE PUSH1 0x20 ADD PUSH1 0x0 DUP2 MSTORE PUSH1 0x20 ADD PUSH1 0x0 DUP2 MSTORE PUSH1 0x20 ADD PUSH1 0x0 DUP2 MSTORE PUSH1 0x20 ADD PUSH1 0x0 ISZERO ISZERO DUP2 MSTORE POP SWAP1 JUMP JUMPDEST JUMPDEST DUP1 DUP3 GT ISZERO PUSH2 0x989 JUMPI PUSH1 0x0 DUP2 PUSH1 0x0 SWAP1 SSTORE POP PUSH1 0x1 ADD PUSH2 0x971 JUMP JUMPDEST POP SWAP1 JUMP JUMPDEST PUSH1 0x0 PUSH1 0x40 MLOAD SWAP1 POP SWAP1 JUMP JUMPDEST PUSH1 0x0 DUP1 REVERT JUMPDEST PUSH1 0x0 DUP1 REVERT JUMPDEST PUSH1 0x0 DUP1 REVERT JUMPDEST PUSH1 0x0 DUP1 REVERT JUMPDEST PUSH1 0x0 PUSH1 0x1F NOT PUSH1 0x1F DUP4 ADD AND SWAP1 POP SWAP2 SWAP1 POP JUMP JUMPDEST PUSH32 0x4E487B7100000000000000000000000000000000000000000000000000000000 PUSH1 0x0 MSTORE PUSH1 0x41 PUSH1 0x4 MSTORE PUSH1 0x24 PUSH1 0x0 REVERT JUMPDEST PUSH2 0x9F4 DUP3 PUSH2 0x9AB JUMP JUMPDEST DUP2 ADD DUP2 DUP2 LT PUSH8 0xFFFFFFFFFFFFFFFF DUP3 GT OR ISZERO PUSH2 0xA13 JUMPI PUSH2 0xA12 PUSH2 0x9BC JUMP JUMPDEST JUMPDEST DUP1 PUSH1 0x40 MSTORE POP POP POP JUMP JUMPDEST PUSH1 0x0 PUSH2 0xA26 PUSH2 0x98D JUMP JUMPDEST SWAP1 POP PUSH2 0xA32 DUP3 DUP3 PUSH2 0x9EB JUMP JUMPDEST SWAP2 SWAP1 POP JUMP JUMPDEST PUSH1 0x0 PUSH8 0xFFFFFFFFFFFFFFFF DUP3 GT ISZERO PUSH2 0xA52 JUMPI PUSH2 0xA51 PUSH2 0x9BC JUMP JUMPDEST JUMPDEST PUSH2 0xA5B DUP3 PUSH2 0x9AB JUMP JUMPDEST SWAP1 POP PUSH1 0x20 DUP2 ADD SWAP1 POP SWAP2 SWAP1 POP JUMP JUMPDEST DUP3 DUP2 DUP4 CALLDATACOPY PUSH1 0x0 DUP4 DUP4 ADD MSTORE POP POP POP JUMP JUMPDEST PUSH1 0x0 PUSH2 0xA8A PUSH2 0xA85 DUP5 PUSH2 0xA37 JUMP JUMPDEST PUSH2 0xA1C JUMP JUMPDEST SWAP1 POP DUP3 DUP2 MSTORE PUSH1 0x20 DUP2 ADD DUP5 DUP5 DUP5 ADD GT ISZERO PUSH2 0xAA6 JUMPI PUSH2 0xAA5 PUSH2 0x9A6 JUMP JUMPDEST JUMPDEST PUSH2 0xAB1 DUP5 DUP3 DUP6 PUSH2 0xA68 JUMP JUMPDEST POP SWAP4 SWAP3 POP POP POP JUMP JUMPDEST PUSH1 0x0 DUP3 PUSH1 0x1F DUP4 ADD SLT PUSH2 0xACE JUMPI PUSH2 0xACD PUSH2 0x9A1 JUMP JUMPDEST JUMPDEST DUP2 CALLDATALOAD PUSH2 0xADE DUP5 DUP3 PUSH1 0x20 DUP7 ADD PUSH2 0xA77 JUMP JUMPDEST SWAP2 POP POP SWAP3 SWAP2 POP POP JUMP JUMPDEST PUSH1 0x0 PUSH1 0x20 DUP3 DUP5 SUB SLT ISZERO PUSH2 0xAFD JUMPI PUSH2 0xAFC PUSH2 0x997 JUMP JUMPDEST JUMPDEST PUSH1 0x0 DUP3 ADD CALLDATALOAD PUSH8 0xFFFFFFFFFFFFFFFF DUP2 GT ISZERO PUSH2 0xB1B JUMPI PUSH2 0xB1A PUSH2 0x99C JUMP JUMPDEST JUMPDEST PUSH2 0xB27 DUP5 DUP3 DUP6 ADD PUSH2 0xAB9 JUMP JUMPDEST SWAP2 POP POP SWAP3 SWAP2 POP POP JUMP JUMPDEST PUSH1 0x0 DUP2 ISZERO ISZERO SWAP1 POP SWAP2 SWAP1 POP JUMP JUMPDEST PUSH2 0xB45 DUP2 PUSH2 0xB30 JUMP JUMPDEST DUP3 MSTORE POP POP JUMP JUMPDEST PUSH1 0x0 PUSH1 0x20 DUP3 ADD SWAP1 POP PUSH2 0xB60 PUSH1 0x0 DUP4 ADD DUP5 PUSH2 0xB3C JUMP JUMPDEST SWAP3 SWAP2 POP POP JUMP JUMPDEST PUSH1 0x0 DUP2 SWAP1 POP SWAP2 SWAP1 POP JUMP JUMPDEST PUSH2 0xB79 DUP2 PUSH2 0xB66 JUMP JUMPDEST DUP2 EQ PUSH2 0xB84 JUMPI PUSH1 0x0 DUP1 REVERT JUMPDEST POP JUMP JUMPDEST PUSH1 0x0 DUP2 CALLDATALOAD SWAP1 POP PUSH2 0xB96 DUP2 PUSH2 0xB70 JUMP JUMPDEST SWAP3 SWAP2 POP POP JUMP JUMPDEST PUSH1 0x0 PUSH8 0xFFFFFFFFFFFFFFFF DUP3 GT ISZERO PUSH2 0xBB7 JUMPI PUSH2 0xBB6 PUSH2 0x9BC JUMP JUMPDEST JUMPDEST PUSH2 0xBC0 DUP3 PUSH2 0x9AB JUMP JUMPDEST SWAP1 POP PUSH1 0x20 DUP2 ADD SWAP1 POP SWAP2 SWAP1 POP JUMP JUMPDEST PUSH1 0x0 PUSH2 0xBE0 PUSH2 0xBDB DUP5 PUSH2 0xB9C JUMP JUMPDEST PUSH2 0xA1C JUMP JUMPDEST SWAP1 POP DUP3 DUP2 MSTORE PUSH1 0x20 DUP2 ADD DUP5 DUP5 DUP5 ADD GT ISZERO PUSH2 0xBFC JUMPI PUSH2 0xBFB PUSH2 0x9A6 JUMP JUMPDEST JUMPDEST PUSH2 0xC07 DUP5 DUP3 DUP6 PUSH2 0xA68 JUMP JUMPDEST POP SWAP4 SWAP3 POP POP POP JUMP JUMPDEST PUSH1 0x0 DUP3 PUSH1 0x1F DUP4 ADD SLT PUSH2 0xC24 JUMPI PUSH2 0xC23 PUSH2 0x9A1 JUMP JUMPDEST JUMPDEST DUP2 CALLDATALOAD PUSH2 0xC34 DUP5 DUP3 PUSH1 0x20 DUP7 ADD PUSH2 0xBCD JUMP JUMPDEST SWAP2 POP POP SWAP3 SWAP2 POP POP JUMP JUMPDEST PUSH1 0x0 DUP1 PUSH1 0x0 DUP1 PUSH1 0x80 DUP6 DUP8 SUB SLT ISZERO PUSH2 0xC57 JUMPI PUSH2 0xC56 PUSH2 0x997 JUMP JUMPDEST JUMPDEST PUSH1 0x0 DUP6 ADD CALLDATALOAD PUSH8 0xFFFFFFFFFFFFFFFF DUP2 GT ISZERO PUSH2 0xC75 JUMPI PUSH2 0xC74 PUSH2 0x99C JUMP JUMPDEST JUMPDEST PUSH2 0xC81 DUP8 DUP3 DUP9 ADD PUSH2 0xAB9 JUMP JUMPDEST SWAP5 POP POP PUSH1 0x20 PUSH2 0xC92 DUP8 DUP3 DUP9 ADD PUSH2 0xB87 JUMP JUMPDEST SWAP4 POP POP PUSH1 0x40 PUSH2 0xCA3 DUP8 DUP3 DUP9 ADD PUSH2 0xB87 JUMP JUMPDEST SWAP3 POP POP PUSH1 0x60 DUP6 ADD CALLDATALOAD PUSH8 0xFFFFFFFFFFFFFFFF DUP2 GT ISZERO PUSH2 0xCC4 JUMPI PUSH2 0xCC3 PUSH2 0x99C JUMP JUMPDEST JUMPDEST PUSH2 0xCD0 DUP8 DUP3 DUP9 ADD PUSH2 0xC0F JUMP JUMPDEST SWAP2 POP POP SWAP3 SWAP6 SWAP2 SWAP5 POP SWAP3 POP JUMP JUMPDEST PUSH1 0x0 DUP2 MLOAD SWAP1 POP SWAP2 SWAP1 POP JUMP JUMPDEST PUSH1 0x0 DUP3 DUP3 MSTORE PUSH1 0x20 DUP3 ADD SWAP1 POP SWAP3 SWAP2 POP POP JUMP JUMPDEST PUSH1 0x0 JUMPDEST DUP4 DUP2 LT ISZERO PUSH2 0xD16 JUMPI DUP1 DUP3 ADD MLOAD DUP2 DUP5 ADD MSTORE PUSH1 0x20 DUP2 ADD SWAP1 POP PUSH2 0xCFB JUMP JUMPDEST DUP4 DUP2 GT ISZERO PUSH2 0xD25 JUMPI PUSH1 0x0 DUP5 DUP5 ADD MSTORE JUMPDEST POP POP POP POP JUMP JUMPDEST PUSH1 0x0 PUSH2 0xD36 DUP3 PUSH2 0xCDC JUMP JUMPDEST PUSH2 0xD40 DUP2 DUP6 PUSH2 0xCE7 JUMP JUMPDEST SWAP4 POP PUSH2 0xD50 DUP2 DUP6 PUSH1 0x20 DUP7 ADD PUSH2 0xCF8 JUMP JUMPDEST PUSH2 0xD59 DUP2 PUSH2 0x9AB JUMP JUMPDEST DUP5 ADD SWAP2 POP POP SWAP3 SWAP2 POP POP JUMP JUMPDEST PUSH2 0xD6D DUP2 PUSH2 0xB66 JUMP JUMPDEST DUP3 MSTORE POP POP JUMP JUMPDEST PUSH2 0xD7C DUP2 PUSH2 0xB30 JUMP JUMPDEST DUP3 MSTORE POP POP JUMP JUMPDEST PUSH1 0x0 PUSH1 0xC0 DUP4 ADD PUSH1 0x0 DUP4 ADD MLOAD DUP5 DUP3 SUB PUSH1 0x0 DUP7 ADD MSTORE PUSH2 0xD9F DUP3 DUP3 PUSH2 0xD2B JUMP JUMPDEST SWAP2 POP POP PUSH1 0x20 DUP4 ADD MLOAD PUSH2 0xDB4 PUSH1 0x20 DUP7 ADD DUP3 PUSH2 0xD64 JUMP JUMPDEST POP PUSH1 0x40 DUP4 ADD MLOAD PUSH2 0xDC7 PUSH1 0x40 DUP7 ADD DUP3 PUSH2 0xD64 JUMP JUMPDEST POP PUSH1 0x60 DUP4 ADD MLOAD PUSH2 0xDDA PUSH1 0x60 DUP7 ADD DUP3 PUSH2 0xD64 JUMP JUMPDEST POP PUSH1 0x80 DUP4 ADD MLOAD PUSH2 0xDED PUSH1 0x80 DUP7 ADD DUP3 PUSH2 0xD64 JUMP JUMPDEST POP PUSH1 0xA0 DUP4 ADD MLOAD PUSH2 0xE00 PUSH1 0xA0 DUP7 ADD DUP3 PUSH2 0xD73 JUMP JUMPDEST POP DUP1 SWAP2 POP POP SWAP3 SWAP2 POP POP JUMP JUMPDEST PUSH1 0x0 PUSH1 0x20 DUP3 ADD SWAP1 POP DUP2 DUP2 SUB PUSH1 0x0 DUP4 ADD MSTORE PUSH2 0xE25 DUP2 DUP5 PUSH2 0xD82 JUMP JUMPDEST SWAP1 POP SWAP3 SWAP2 POP POP JUMP JUMPDEST PUSH1 0x0 DUP2 SWAP1 POP SWAP2 SWAP1 POP JUMP JUMPDEST PUSH2 0xE40 DUP2 PUSH2 0xE2D JUMP JUMPDEST DUP2 EQ PUSH2 0xE4B JUMPI PUSH1 0x0 DUP1 REVERT JUMPDEST POP JUMP JUMPDEST PUSH1 0x0 DUP2 CALLDATALOAD SWAP1 POP PUSH2 0xE5D DUP2 PUSH2 0xE37 JUMP JUMPDEST SWAP3 SWAP2 POP POP JUMP JUMPDEST PUSH1 0x0 DUP1 PUSH1 0x0 DUP1 PUSH1 0x80 DUP6 DUP8 SUB SLT ISZERO PUSH2 0xE7D JUMPI PUSH2 0xE7C PUSH2 0x997 JUMP JUMPDEST JUMPDEST PUSH1 0x0 DUP6 ADD CALLDATALOAD PUSH8 0xFFFFFFFFFFFFFFFF DUP2 GT ISZERO PUSH2 0xE9B JUMPI PUSH2 0xE9A PUSH2 0x99C JUMP JUMPDEST JUMPDEST PUSH2 0xEA7 DUP8 DUP3 DUP9 ADD PUSH2 0xAB9 JUMP JUMPDEST SWAP5 POP POP PUSH1 0x20 DUP6 ADD CALLDATALOAD PUSH8 0xFFFFFFFFFFFFFFFF DUP2 GT ISZERO PUSH2 0xEC8 JUMPI PUSH2 0xEC7 PUSH2 0x99C JUMP JUMPDEST JUMPDEST PUSH2 0xED4 DUP8 DUP3 DUP9 ADD PUSH2 0xC0F JUMP JUMPDEST SWAP4 POP POP PUSH1 0x40 PUSH2 0xEE5 DUP8 DUP3 DUP9 ADD PUSH2 0xE4E JUMP JUMPDEST SWAP3 POP POP PUSH1 0x60 PUSH2 0xEF6 DUP8 DUP3 DUP9 ADD PUSH2 0xE4E JUMP JUMPDEST SWAP2 POP POP SWAP3 SWAP6 SWAP2 SWAP5 POP SWAP3 POP JUMP JUMPDEST PUSH1 0x0 DUP2 SWAP1 POP SWAP3 SWAP2 POP POP JUMP JUMPDEST PUSH1 0x0 PUSH2 0xF18 DUP3 PUSH2 0xCDC JUMP JUMPDEST PUSH2 0xF22 DUP2 DUP6 PUSH2 0xF02 JUMP JUMPDEST SWAP4 POP PUSH2 0xF32 DUP2 DUP6 PUSH1 0x20 DUP7 ADD PUSH2 0xCF8 JUMP JUMPDEST DUP1 DUP5 ADD SWAP2 POP POP SWAP3 SWAP2 POP POP JUMP JUMPDEST PUSH1 0x0 PUSH2 0xF4A DUP3 DUP5 PUSH2 0xF0D JUMP JUMPDEST SWAP2 POP DUP2 SWAP1 POP SWAP3 SWAP2 POP POP JUMP JUMPDEST PUSH1 0x0 DUP3 DUP3 MSTORE PUSH1 0x20 DUP3 ADD SWAP1 POP SWAP3 SWAP2 POP POP JUMP JUMPDEST PUSH32 0x43726564656E6369616C206465207665727469706F727420696E76616C696461 PUSH1 0x0 DUP3 ADD MSTORE POP JUMP JUMPDEST PUSH1 0x0 PUSH2 0xF9C PUSH1 0x20 DUP4 PUSH2 0xF55 JUMP JUMPDEST SWAP2 POP PUSH2 0xFA7 DUP3 PUSH2 0xF66 JUMP JUMPDEST PUSH1 0x20 DUP3 ADD SWAP1 POP SWAP2 SWAP1 POP JUMP JUMPDEST PUSH1 0x0 PUSH1 0x20 DUP3 ADD SWAP1 POP DUP2 DUP2 SUB PUSH1 0x0 DUP4 ADD MSTORE PUSH2 0xFCB DUP2 PUSH2 0xF8F JUMP JUMPDEST SWAP1 POP SWAP2 SWAP1 POP JUMP JUMPDEST PUSH32 0x5665727469706F7274207961207265676973747261646F000000000000000000 PUSH1 0x0 DUP3 ADD MSTORE POP JUMP JUMPDEST PUSH1 0x0 PUSH2 0x1008 PUSH1 0x17 DUP4 PUSH2 0xF55 JUMP JUMPDEST SWAP2 POP PUSH2 0x1013 DUP3 PUSH2 0xFD2 JUMP JUMPDEST PUSH1 0x20 DUP3 ADD SWAP1 POP SWAP2 SWAP1 POP JUMP JUMPDEST PUSH1 0x0 PUSH1 0x20 DUP3 ADD SWAP1 POP DUP2 DUP2 SUB PUSH1 0x0 DUP4 ADD MSTORE PUSH2 0x1037 DUP2 PUSH2 0xFFB JUMP JUMPDEST SWAP1 POP SWAP2 SWAP1 POP JUMP JUMPDEST PUSH32 0x43617061636964616420696E76616C6964610000000000000000000000000000 PUSH1 0x0 DUP3 ADD MSTORE POP JUMP JUMPDEST PUSH1 0x0 PUSH2 0x1074 PUSH1 0x12 DUP4 PUSH2 0xF55 JUMP JUMPDEST SWAP2 POP PUSH2 0x107F DUP3 PUSH2 0x103E JUMP JUMPDEST PUSH1 0x20 DUP3 ADD SWAP1 POP SWAP2 SWAP1 POP JUMP JUMPDEST PUSH1 0x0 PUSH1 0x20 DUP3 ADD SWAP1 POP DUP2 DUP2 SUB PUSH1 0x0 DUP4 ADD MSTORE PUSH2 0x10A3 DUP2 PUSH2 0x1067 JUMP JUMPDEST SWAP1 POP SWAP2 SWAP1 POP JUMP JUMPDEST PUSH2 0x10B3 DUP2 PUSH2 0xB66 JUMP JUMPDEST DUP3 MSTORE POP POP JUMP JUMPDEST PUSH1 0x0 PUSH1 0x40 DUP3 ADD SWAP1 POP PUSH2 0x10CE PUSH1 0x0 DUP4 ADD DUP6 PUSH2 0x10AA JUMP JUMPDEST PUSH2 0x10DB PUSH1 0x20 DUP4 ADD DUP5 PUSH2 0x10AA JUMP JUMPDEST SWAP4 SWAP3 POP POP POP JUMP JUMPDEST PUSH32 0x4E487B7100000000000000000000000000000000000000000000000000000000 PUSH1 0x0 MSTORE PUSH1 0x22 PUSH1 0x4 MSTORE PUSH1 0x24 PUSH1 0x0 REVERT JUMPDEST PUSH1 0x0 PUSH1 0x2 DUP3 DIV SWAP1 POP PUSH1 0x1 DUP3 AND DUP1 PUSH2 0x1129 JUMPI PUSH1 0x7F DUP3 AND SWAP2 POP JUMPDEST PUSH1 0x20 DUP3 LT DUP2 EQ ISZERO PUSH2 0x113D JUMPI PUSH2 0x113C PUSH2 0x10E2 JUMP JUMPDEST JUMPDEST POP SWAP2 SWAP1 POP JUMP JUMPDEST PUSH32 0x5665727469706F7274206E6F20656E636F6E747261646F000000000000000000 PUSH1 0x0 DUP3 ADD MSTORE POP JUMP JUMPDEST PUSH1 0x0 PUSH2 0x1179 PUSH1 0x17 DUP4 PUSH2 0xF55 JUMP JUMPDEST SWAP2 POP PUSH2 0x1184 DUP3 PUSH2 0x1143 JUMP JUMPDEST PUSH1 0x20 DUP3 ADD SWAP1 POP SWAP2 SWAP1 POP JUMP JUMPDEST PUSH1 0x0 PUSH1 0x20 DUP3 ADD SWAP1 POP DUP2 DUP2 SUB PUSH1 0x0 DUP4 ADD MSTORE PUSH2 0x11A8 DUP2 PUSH2 0x116C JUMP JUMPDEST SWAP1 POP SWAP2 SWAP1 POP JUMP JUMPDEST PUSH32 0x4E487B7100000000000000000000000000000000000000000000000000000000 PUSH1 0x0 MSTORE PUSH1 0x11 PUSH1 0x4 MSTORE PUSH1 0x24 PUSH1 0x0 REVERT JUMPDEST PUSH1 0x0 PUSH2 0x11E9 DUP3 PUSH2 0xB66 JUMP JUMPDEST SWAP2 POP PUSH2 0x11F4 DUP4 PUSH2 0xB66 JUMP JUMPDEST SWAP3 POP DUP3 PUSH32 0xFFFFFFFFFFFFFFFFFFFFFFFFFFFFFFFFFFFFFFFFFFFFFFFFFFFFFFFFFFFFFFFF SUB DUP3 GT ISZERO PUSH2 0x1229 JUMPI PUSH2 0x1228 PUSH2 0x11AF JUMP JUMPDEST JUMPDEST DUP3 DUP3 ADD SWAP1 POP SWAP3 SWAP2 POP POP JUMP JUMPDEST PUSH32 0x4C696D6974652064652070697374617320657863656469646F00000000000000 PUSH1 0x0 DUP3 ADD MSTORE POP JUMP JUMPDEST PUSH1 0x0 PUSH2 0x126A PUSH1 0x19 DUP4 PUSH2 0xF55 JUMP JUMPDEST SWAP2 POP PUSH2 0x1275 DUP3 PUSH2 0x1234 JUMP JUMPDEST PUSH1 0x20 DUP3 ADD SWAP1 POP SWAP2 SWAP1 POP JUMP JUMPDEST PUSH1 0x0 PUSH1 0x20 DUP3 ADD SWAP1 POP DUP2 DUP2 SUB PUSH1 0x0 DUP4 ADD MSTORE PUSH2 0x1299 DUP2 PUSH2 0x125D JUMP JUMPDEST SWAP1 POP SWAP2 SWAP1 POP JUMP JUMPDEST PUSH1 0x0 PUSH2 0x12AB DUP3 PUSH2 0xE2D JUMP JUMPDEST SWAP2 POP PUSH32 0x8000000000000000000000000000000000000000000000000000000000000000 DUP3 EQ ISZERO PUSH2 0x12DE JUMPI PUSH2 0x12DD PUSH2 0x11AF JUMP JUMPDEST JUMPDEST DUP2 PUSH1 0x0 SUB SWAP1 POP SWAP2 SWAP1 POP JUMP JUMPDEST PUSH32 0x4E6F2068617920706973746173206C696272657320737566696369656E746573 PUSH1 0x0 DUP3 ADD MSTORE POP JUMP JUMPDEST PUSH1 0x0 PUSH2 0x131F PUSH1 0x20 DUP4 PUSH2 0xF55 JUMP JUMPDEST SWAP2 POP PUSH2 0x132A DUP3 PUSH2 0x12E9 JUMP JUMPDEST PUSH1 0x20 DUP3 ADD SWAP1 POP SWAP2 SWAP1 POP JUMP JUMPDEST PUSH1 0x0 PUSH1 0x20 DUP3 ADD SWAP1 POP DUP2 DUP2 SUB PUSH1 0x0 DUP4 ADD MSTORE PUSH2 0x134E DUP2 PUSH2 0x1312 JUMP JUMPDEST SWAP1 POP SWAP2 SWAP1 POP JUMP JUMPDEST PUSH1 0x0 PUSH2 0x1360 DUP3 PUSH2 0xB66 JUMP JUMPDEST SWAP2 POP PUSH2 0x136B DUP4 PUSH2 0xB66 JUMP JUMPDEST SWAP3 POP DUP3 DUP3 LT ISZERO PUSH2 0x137E JUMPI PUSH2 0x137D PUSH2 0x11AF JUMP JUMPDEST JUMPDEST DUP3 DUP3 SUB SWAP1 POP SWAP3 SWAP2 POP POP JUMP JUMPDEST PUSH32 0x4C696D697465206465207061726B696E677320657863656469646F0000000000 PUSH1 0x0 DUP3 ADD MSTORE POP JUMP JUMPDEST PUSH1 0x0 PUSH2 0x13BF PUSH1 0x1B DUP4 PUSH2 0xF55 JUMP JUMPDEST SWAP2 POP PUSH2 0x13CA DUP3 PUSH2 0x1389 JUMP JUMPDEST PUSH1 0x20 DUP3 ADD SWAP1 POP SWAP2 SWAP1 POP JUMP JUMPDEST PUSH1 0x0 PUSH1 0x20 DUP3 ADD SWAP1 POP DUP2 DUP2 SUB PUSH1 0x0 DUP4 ADD MSTORE PUSH2 0x13EE DUP2 PUSH2 0x13B2 JUMP JUMPDEST SWAP1 POP SWAP2 SWAP1 POP JUMP JUMPDEST PUSH32 0x4E6F20686179207061726B696E6773206C696272657320737566696369656E74 PUSH1 0x0 DUP3 ADD MSTORE PUSH32 0x6573000000000000000000000000000000000000000000000000000000000000 PUSH1 0x20 DUP3 ADD MSTORE POP JUMP JUMPDEST PUSH1 0x0 PUSH2 0x1451 PUSH1 0x22 DUP4 PUSH2 0xF55 JUMP JUMPDEST SWAP2 POP PUSH2 0x145C DUP3 PUSH2 0x13F5 JUMP JUMPDEST PUSH1 0x40 DUP3 ADD SWAP1 POP SWAP2 SWAP1 POP JUMP JUMPDEST PUSH1 0x0 PUSH1 0x20 DUP3 ADD SWAP1 POP DUP2 DUP2 SUB PUSH1 0x0 DUP4 ADD MSTORE PUSH2 0x1480 DUP2 PUSH2 0x1444 JUMP JUMPDEST SWAP1 POP SWAP2 SWAP1 POP JUMP INVALID LOG2 PUSH5 0x6970667358 0x22 SLT KECCAK256 SWAP16 SHR PUSH23 0x3D33AF7174FA4B87F55A1C89B86512BCBF901F8DBD1F1F LT 0xD6 0x5F MLOAD PUSH23 0x6264736F6C634300080A00330000000000000000000000 "
    },
    "gasEstimates": {
      "creation": {
        "codeDepositCost": "1061800",
        "executionCost": "1100",
        "totalCost": "1062900"
      },
      "external": {
        "checkLandingAvailability(string)": "infinite",
        "getVertiportState(string)": "infinite",
        "registerVertiport(string,uint256,uint256,bytes)": "infinite",
        "updateVertiportState(string,bytes,int256,int256)": "infinite"
      },
      "internal": {
        "verifyCredentialSignature(bytes memory,string memory,string memory)": "32"
      }
    },
    "methodIdentifiers": {
      "checkLandingAvailability(string)": "04dde7b1",
      "getVertiportState(string)": "41e1b73b",
      "registerVertiport(string,uint256,uint256,bytes)": "263d46ed",
      "updateVertiportState(string,bytes,int256,int256)": "cf0803e9"
    }
  },
  "storageLayout": {
    "storage": [
      {
        "astId": 1452,
        "contract": "VertiportManagement.sol:VertiportManagement",
        "label": "vertiports",
        "offset": 0,
        "slot": "0",
        "type": "t_mapping(t_string_memory_ptr,t_struct(VertiportState)1447_storage)"
      }
    ],
    "types": {
      "t_bool": {
        "encoding": "inplace",
        "label": "bool",
        "numberOfBytes": "1"
      },
      "t_mapping(t_string_memory_ptr,t_struct(VertiportState)1447_storage)": {
        "encoding": "mapping",
        "key": "t_string_memory_ptr",
        "label": "mapping(string => struct VertiportManagement.VertiportState)",
        "numberOfBytes": "32",
        "value": "t_struct(VertiportState)1447_storage"
      },
      "t_string_memory_ptr": {
        "encoding": "bytes",
        "label": "string",
        "numberOfBytes": "32"
      },
      "t_string_storage": {
        "encoding": "bytes",
        "label": "string",
        "numberOfBytes": "32"
      },
      "t_struct(VertiportState)1447_storage": {
        "encoding": "inplace",
        "label": "struct VertiportManagement.VertiportState",
        "members": [
          {
            "astId": 1436,
            "contract": "VertiportManagement.sol:VertiportManagement",
            "label": "id",
            "offset": 0,
            "slot": "0",
            "type": "t_string_storage"
          },
          {
            "astId": 1438,
            "contract": "VertiportManagement.sol:VertiportManagement",
            "label": "n_airstrip",
            "offset": 0,
            "slot": "1",
            "type": "t_uint256"
          },
          {
            "astId": 1440,
            "contract": "VertiportManagement.sol:VertiportManagement",
            "label": "n_parkings",
            "offset": 0,
            "slot": "2",
            "type": "t_uint256"
          },
          {
            "astId": 1442,
            "contract": "VertiportManagement.sol:VertiportManagement",
            "label": "n_free_airstrip",
            "offset": 0,
            "slot": "3",
            "type": "t_uint256"
          },
          {
            "astId": 1444,
            "contract": "VertiportManagement.sol:VertiportManagement",
            "label": "n_parkings_free",
            "offset": 0,
            "slot": "4",
            "type": "t_uint256"
          },
          {
            "astId": 1446,
            "contract": "VertiportManagement.sol:VertiportManagement",
            "label": "exists",
            "offset": 0,
            "slot": "5",
            "type": "t_bool"
          }
        ],
        "numberOfBytes": "192"
      },
      "t_uint256": {
        "encoding": "inplace",
        "label": "uint256",
        "numberOfBytes": "32"
      }
    }
  },
  "userdoc": {
    "kind": "user",
    "methods": {
      "checkLandingAvailability(string)": {
        "notice": "Indica si hay al menos una pista y un parking libres."
      },
      "getVertiportState(string)": {
        "notice": "Devuelve el estado completo de un vertiport."
      },
      "registerVertiport(string,uint256,uint256,bytes)": {
        "notice": "Registra un nuevo vertiport en la red."
      },
      "updateVertiportState(string,bytes,int256,int256)": {
        "notice": "Actualiza la disponibilidad de pistas y parkings de un vertiport."
      }
    },
    "notice": "Mantiene la capacidad y disponibilidad de pistas y parkings         para cada vertiport registrado en la red.",
    "version": 1
  }
}